{
  "address": "0x5f300aEc9573BeC1ed161E07bB6564e03154e68A",
  "abi": [
    {
      "anonymous": false,
      "inputs": [
        {
          "indexed": true,
          "internalType": "uint256",
          "name": "heroId",
          "type": "uint256"
        },
        {
          "indexed": false,
          "internalType": "uint256",
          "name": "arrivalChainId",
          "type": "uint256"
        }
      ],
      "name": "HeroArrived",
      "type": "event"
    },
    {
      "anonymous": false,
      "inputs": [
        {
          "indexed": true,
          "internalType": "uint256",
          "name": "heroId",
          "type": "uint256"
        },
        {
          "indexed": false,
          "internalType": "uint256",
          "name": "arrivalChainId",
          "type": "uint256"
        }
      ],
      "name": "HeroSent",
      "type": "event"
    },
    {
      "anonymous": false,
      "inputs": [
        {
          "indexed": true,
          "internalType": "address",
          "name": "previousOwner",
          "type": "address"
        },
        {
          "indexed": true,
          "internalType": "address",
          "name": "newOwner",
          "type": "address"
        }
      ],
      "name": "OwnershipTransferred",
      "type": "event"
    },
    {
      "anonymous": false,
      "inputs": [
        {
          "indexed": false,
          "internalType": "uint256",
          "name": "_srcChainId",
          "type": "uint256"
        },
        {
          "indexed": false,
          "internalType": "bytes32",
          "name": "_srcAddress",
          "type": "bytes32"
        }
      ],
      "name": "SetTrustedRemote",
      "type": "event"
    },
    {
      "inputs": [],
      "name": "assistingAuction",
      "outputs": [
        {
          "internalType": "address",
          "name": "",
          "type": "address"
        }
      ],
      "stateMutability": "view",
      "type": "function"
    },
    {
      "inputs": [
        {
          "internalType": "bytes32",
          "name": "_srcAddress",
          "type": "bytes32"
        },
        {
          "internalType": "uint256",
          "name": "_srcChainId",
          "type": "uint256"
        },
        {
          "internalType": "bytes",
          "name": "_message",
          "type": "bytes"
        },
        {
          "internalType": "address",
          "name": "_executor",
          "type": "address"
        }
      ],
      "name": "executeMessage",
      "outputs": [],
      "stateMutability": "nonpayable",
      "type": "function"
    },
    {
      "inputs": [
        {
          "internalType": "uint256",
          "name": "_chainId",
          "type": "uint256"
        }
      ],
      "name": "getTrustedRemote",
      "outputs": [
        {
          "internalType": "bytes32",
          "name": "trustedRemote",
          "type": "bytes32"
        }
      ],
      "stateMutability": "view",
      "type": "function"
    },
    {
      "inputs": [],
      "name": "heroes",
      "outputs": [
        {
          "internalType": "address",
          "name": "",
          "type": "address"
        }
      ],
      "stateMutability": "view",
      "type": "function"
    },
    {
      "inputs": [
        {
          "internalType": "address",
          "name": "_messageBus",
          "type": "address"
        },
        {
          "internalType": "address",
          "name": "_heroes",
          "type": "address"
        },
        {
          "internalType": "address",
          "name": "_assistingAuction",
          "type": "address"
        }
      ],
      "name": "initialize",
      "outputs": [],
      "stateMutability": "nonpayable",
      "type": "function"
    },
    {
      "inputs": [],
      "name": "messageBus",
      "outputs": [
        {
          "internalType": "address",
          "name": "",
          "type": "address"
        }
      ],
      "stateMutability": "view",
      "type": "function"
    },
    {
      "inputs": [],
      "name": "msgGasLimit",
      "outputs": [
        {
          "internalType": "uint256",
          "name": "",
          "type": "uint256"
        }
      ],
      "stateMutability": "view",
      "type": "function"
    },
    {
      "inputs": [],
      "name": "owner",
      "outputs": [
        {
          "internalType": "address",
          "name": "",
          "type": "address"
        }
      ],
      "stateMutability": "view",
      "type": "function"
    },
    {
      "inputs": [],
      "name": "renounceOwnership",
      "outputs": [],
      "stateMutability": "nonpayable",
      "type": "function"
    },
    {
      "inputs": [
        {
          "internalType": "uint256",
          "name": "_heroId",
          "type": "uint256"
        },
        {
          "internalType": "uint256",
          "name": "_dstChainId",
          "type": "uint256"
        }
      ],
      "name": "sendHero",
      "outputs": [],
      "stateMutability": "payable",
      "type": "function"
    },
    {
      "inputs": [
        {
          "internalType": "address",
          "name": "_assistingAuction",
          "type": "address"
        }
      ],
      "name": "setAssistingAuctionAddress",
      "outputs": [],
      "stateMutability": "nonpayable",
      "type": "function"
    },
    {
      "inputs": [
        {
          "internalType": "address",
          "name": "_messageBus",
          "type": "address"
        }
      ],
      "name": "setMessageBus",
      "outputs": [],
      "stateMutability": "nonpayable",
      "type": "function"
    },
    {
      "inputs": [
        {
          "internalType": "uint256",
          "name": "_msgGasLimit",
          "type": "uint256"
        }
      ],
      "name": "setMsgGasLimit",
      "outputs": [],
      "stateMutability": "nonpayable",
      "type": "function"
    },
    {
      "inputs": [
        {
          "internalType": "uint256",
          "name": "_srcChainId",
          "type": "uint256"
        },
        {
          "internalType": "bytes32",
          "name": "_srcAddress",
          "type": "bytes32"
        }
      ],
      "name": "setTrustedRemote",
      "outputs": [],
      "stateMutability": "nonpayable",
      "type": "function"
    },
    {
      "inputs": [
        {
          "internalType": "address",
          "name": "newOwner",
          "type": "address"
        }
      ],
      "name": "transferOwnership",
      "outputs": [],
      "stateMutability": "nonpayable",
      "type": "function"
    }
  ],
  "transactionHash": "0xb6267f72042af3d813cdfc652a1feeff969d1968db8b67a7c3179d696d63b3e8",
  "args": [],
  "solcInputHash": "a3b42a6bd52c323c3781e633e0d442ab",
  "bytecode": "0x608060405234801561001057600080fd5b5061264e806100206000396000f3fe6080604052600436106100e85760003560e01c80638da5cb5b1161008a578063c0c53b8b11610059578063c0c53b8b146102ae578063c0e07f28146102ce578063f2fde38b146102e4578063f9ecc6f51461030457600080fd5b80638da5cb5b14610216578063a1a227fa14610241578063a60608711461026e578063bd3583ae1461028e57600080fd5b80635c9c7c73116100c65780635c9c7c7314610179578063715018a6146101995780637246a948146101ae57806384a12b0f146101db57600080fd5b80631efedbe5146100ed578063230bb9f614610102578063547cad1214610159575b600080fd5b6101006100fb3660046117bb565b610324565b005b34801561010e57600080fd5b5060975461012f9073ffffffffffffffffffffffffffffffffffffffff1681565b60405173ffffffffffffffffffffffffffffffffffffffff90911681526020015b60405180910390f35b34801561016557600080fd5b506101006101743660046117ff565b6107a3565b34801561018557600080fd5b506101006101943660046117ff565b61086b565b3480156101a557600080fd5b50610100610933565b3480156101ba57600080fd5b5060985461012f9073ffffffffffffffffffffffffffffffffffffffff1681565b3480156101e757600080fd5b506102086101f636600461181c565b60009081526066602052604090205490565b604051908152602001610150565b34801561022257600080fd5b5060335473ffffffffffffffffffffffffffffffffffffffff1661012f565b34801561024d57600080fd5b5060655461012f9073ffffffffffffffffffffffffffffffffffffffff1681565b34801561027a57600080fd5b50610100610289366004611835565b6109c0565b34801561029a57600080fd5b506101006102a93660046117bb565b610b02565b3480156102ba57600080fd5b506101006102c93660046118d0565b610bd2565b3480156102da57600080fd5b5061020860995481565b3480156102f057600080fd5b506101006102ff3660046117ff565b610d5b565b34801561031057600080fd5b5061010061031f36600461181c565b610e8b565b6097546040517f21d80111000000000000000000000000000000000000000000000000000000008152600481018490528391839160009173ffffffffffffffffffffffffffffffffffffffff16906321d801119060240161088060405180830381865afa158015610399573d6000803e3d6000fd5b505050506040513d601f19601f820116820180604052508101906103bd9190611fe9565b606081015160a0015190915073ffffffffffffffffffffffffffffffffffffffff161561044b576040517f08c379a000000000000000000000000000000000000000000000000000000000815260206004820152601060248201527f6865726f206973207175657374696e670000000000000000000000000000000060448201526064015b60405180910390fd5b6098546040517f37e246ad0000000000000000000000000000000000000000000000000000000081526004810185905273ffffffffffffffffffffffffffffffffffffffff909116906337e246ad906024016020604051808303816000875af11580156104bc573d6000803e3d6000fd5b505050506040513d601f19601f820116820180604052508101906104e09190612006565b15610547576040517f08c379a000000000000000000000000000000000000000000000000000000000815260206004820152601160248201527f617373697374696e672061756374696f6e0000000000000000000000000000006044820152606401610442565b60008281526066602052604081205490610562853385610f11565b905060006105b0609954604080517e01000000000000000000000000000000000000000000000000000000000000602082015260228082019390935281518082039093018352604201905290565b6097546040517f23b872dd0000000000000000000000000000000000000000000000000000000081523360048201523060248201526044810189905291925073ffffffffffffffffffffffffffffffffffffffff16906323b872dd90606401600060405180830381600087803b15801561062957600080fd5b505af115801561063d573d6000803e3d6000fd5b50506097546040517f6352211e000000000000000000000000000000000000000000000000000000008152600481018a905230935073ffffffffffffffffffffffffffffffffffffffff9091169150636352211e90602401602060405180830381865afa1580156106b2573d6000803e3d6000fd5b505050506040513d601f19601f820116820180604052508101906106d69190612021565b73ffffffffffffffffffffffffffffffffffffffff1614610753576040517f08c379a000000000000000000000000000000000000000000000000000000000815260206004820152601360248201527f4661696c656420746f206c6f636b204865726f000000000000000000000000006044820152606401610442565b61075f83868484610f72565b857fff49e1183195e20d542761218d85b1f570951619d00481ca84c2195144092bb28660405161079191815260200190565b60405180910390a25050505050505050565b60335473ffffffffffffffffffffffffffffffffffffffff163314610824576040517f08c379a000000000000000000000000000000000000000000000000000000000815260206004820181905260248201527f4f776e61626c653a2063616c6c6572206973206e6f7420746865206f776e65726044820152606401610442565b606580547fffffffffffffffffffffffff00000000000000000000000000000000000000001673ffffffffffffffffffffffffffffffffffffffff92909216919091179055565b60335473ffffffffffffffffffffffffffffffffffffffff1633146108ec576040517f08c379a000000000000000000000000000000000000000000000000000000000815260206004820181905260248201527f4f776e61626c653a2063616c6c6572206973206e6f7420746865206f776e65726044820152606401610442565b609880547fffffffffffffffffffffffff00000000000000000000000000000000000000001673ffffffffffffffffffffffffffffffffffffffff92909216919091179055565b60335473ffffffffffffffffffffffffffffffffffffffff1633146109b4576040517f08c379a000000000000000000000000000000000000000000000000000000000815260206004820181905260248201527f4f776e61626c653a2063616c6c6572206973206e6f7420746865206f776e65726044820152606401610442565b6109be600061110e565b565b60655473ffffffffffffffffffffffffffffffffffffffff163314610a41576040517f08c379a000000000000000000000000000000000000000000000000000000000815260206004820152601960248201527f63616c6c6572206973206e6f74206d65737361676520627573000000000000006044820152606401610442565b6000848152606660205260409020548514610ab8576040517f08c379a000000000000000000000000000000000000000000000000000000000815260206004820152601a60248201527f496e76616c696420736f757263652073656e64696e67206170700000000000006044820152606401610442565b610afb858585858080601f016020809104026020016040519081016040528093929190818152602001838380828437600092019190915250879250611185915050565b5050505050565b60335473ffffffffffffffffffffffffffffffffffffffff163314610b83576040517f08c379a000000000000000000000000000000000000000000000000000000000815260206004820181905260248201527f4f776e61626c653a2063616c6c6572206973206e6f7420746865206f776e65726044820152606401610442565b60008281526066602090815260409182902083905581518481529081018390527f642e74356c0610a9f944fb1a2d88d2fb82c6b74921566eee8bc0f9bb30f74f03910160405180910390a15050565b600054610100900460ff16610bed5760005460ff1615610bf1565b303b155b610c7d576040517f08c379a000000000000000000000000000000000000000000000000000000000815260206004820152602e60248201527f496e697469616c697a61626c653a20636f6e747261637420697320616c72656160448201527f647920696e697469616c697a65640000000000000000000000000000000000006064820152608401610442565b600054610100900460ff16158015610cbc57600080547fffffffffffffffffffffffffffffffffffffffffffffffffffffffffffff0000166101011790555b610cc461144e565b6065805473ffffffffffffffffffffffffffffffffffffffff8087167fffffffffffffffffffffffff0000000000000000000000000000000000000000928316179092556097805486841690831617905560988054928516929091169190911790558015610d5557600080547fffffffffffffffffffffffffffffffffffffffffffffffffffffffffffff00ff1690555b50505050565b60335473ffffffffffffffffffffffffffffffffffffffff163314610ddc576040517f08c379a000000000000000000000000000000000000000000000000000000000815260206004820181905260248201527f4f776e61626c653a2063616c6c6572206973206e6f7420746865206f776e65726044820152606401610442565b73ffffffffffffffffffffffffffffffffffffffff8116610e7f576040517f08c379a000000000000000000000000000000000000000000000000000000000815260206004820152602660248201527f4f776e61626c653a206e6577206f776e657220697320746865207a65726f206160448201527f64647265737300000000000000000000000000000000000000000000000000006064820152608401610442565b610e888161110e565b50565b60335473ffffffffffffffffffffffffffffffffffffffff163314610f0c576040517f08c379a000000000000000000000000000000000000000000000000000000000815260206004820181905260248201527f4f776e61626c653a2063616c6c6572206973206e6f7420746865206f776e65726044820152606401610442565b609955565b6060600060405180606001604052808481526020018573ffffffffffffffffffffffffffffffffffffffff16815260200186815250905080604051602001610f599190612484565b6040516020818303038152906040529150509392505050565b60008381526066602052604090205480610fe8576040517f08c379a000000000000000000000000000000000000000000000000000000000815260206004820152601f60248201527f4e6f2072656d6f7465206170702073657420666f722064737420636861696e006044820152606401610442565b848114611077576040517f08c379a000000000000000000000000000000000000000000000000000000000815260206004820152602660248201527f5265636569766572206973206e6f7420696e20747275737465642072656d6f7460448201527f65206170707300000000000000000000000000000000000000000000000000006064820152608401610442565b6065546040517fac8a4c1b00000000000000000000000000000000000000000000000000000000815273ffffffffffffffffffffffffffffffffffffffff9091169063ac8a4c1b9034906110d5908990899089908990600401612534565b6000604051808303818588803b1580156110ee57600080fd5b505af1158015611102573d6000803e3d6000fd5b50505050505050505050565b6033805473ffffffffffffffffffffffffffffffffffffffff8381167fffffffffffffffffffffffff0000000000000000000000000000000000000000831681179093556040519116919082907f8be0079c531659141344cd1fd0a4f28419497f9722a3daafe3b4186f6b6457e090600090a35050565b6000611190836114ee565b8051602082015160408084015160975491517f6352211e00000000000000000000000000000000000000000000000000000000815260048101829052949550929391929173ffffffffffffffffffffffffffffffffffffffff90911690636352211e90602401602060405180830381865afa92505050801561124d575060408051601f3d9081017fffffffffffffffffffffffffffffffffffffffffffffffffffffffffffffffe016820190925261124a91810190612021565b60015b6112e2576097546040517f1b8276710000000000000000000000000000000000000000000000000000000081526004810183905273ffffffffffffffffffffffffffffffffffffffff848116602483015290911690631b82767190604401600060405180830381600087803b1580156112c557600080fd5b505af11580156112d9573d6000803e3d6000fd5b50505050611394565b3073ffffffffffffffffffffffffffffffffffffffff821603611392576097546040517f42842e0e00000000000000000000000000000000000000000000000000000000815230600482015273ffffffffffffffffffffffffffffffffffffffff858116602483015260448201859052909116906342842e0e90606401600060405180830381600087803b15801561137957600080fd5b505af115801561138d573d6000803e3d6000fd5b505050505b505b6097546040517fb006410300000000000000000000000000000000000000000000000000000000815273ffffffffffffffffffffffffffffffffffffffff9091169063b0064103906113ea908690600401612570565b600060405180830381600087803b15801561140457600080fd5b505af1158015611418573d6000803e3d6000fd5b50505050807f1f3a4fd9d309a82e1d37743b6e0a35dfa60738cceb88aa6117021faad35957764660405161079191815260200190565b600054610100900460ff166114e5576040517f08c379a000000000000000000000000000000000000000000000000000000000815260206004820152602b60248201527f496e697469616c697a61626c653a20636f6e7472616374206973206e6f74206960448201527f6e697469616c697a696e670000000000000000000000000000000000000000006064820152608401610442565b6109be3361110e565b6114f6611513565b60008280602001905181019061150c9190612585565b9392505050565b604051806060016040528061152661153a565b815260006020820181905260409091015290565b604051806101000160405280600081526020016115926040518060c0016040528060008152602001600081526020016000815260200160008152602001600063ffffffff168152602001600063ffffffff1681525090565b815260200161159f611757565b81526020016115e96040805161010081018252600080825260208201819052918101829052606081018290526080810182905260a0810182905260c081018290529060e082015290565b8152604080516101608101825260008082526020828101829052928201819052606082018190526080820181905260a0820181905260c0820181905260e08201819052610100820181905261012082018190526101408201529101908152604080516101c08101825260008082526020828101829052928201819052606082018190526080820181905260a0820181905260c0820181905260e08201819052610100820181905261012082018190526101408201819052610160820181905261018082018190526101a08201529101908152604080516101c08101825260008082526020828101829052928201819052606082018190526080820181905260a0820181905260c0820181905260e08201819052610100820181905261012082018190526101408201819052610160820181905261018082018190526101a082015291019081526040805160808101825260008082526020828101829052928201819052606082015291015290565b6040518061014001604052806000815260200160008152602001600060048111156117845761178461203e565b815260006020820181905260408201819052606082018190526080820181905260a0820181905260c0820181905260e09091015290565b600080604083850312156117ce57600080fd5b50508035926020909101359150565b73ffffffffffffffffffffffffffffffffffffffff81168114610e8857600080fd5b60006020828403121561181157600080fd5b813561150c816117dd565b60006020828403121561182e57600080fd5b5035919050565b60008060008060006080868803121561184d57600080fd5b8535945060208601359350604086013567ffffffffffffffff8082111561187357600080fd5b818801915088601f83011261188757600080fd5b81358181111561189657600080fd5b8960208285010111156118a857600080fd5b60208301955080945050505060608601356118c2816117dd565b809150509295509295909350565b6000806000606084860312156118e557600080fd5b83356118f0816117dd565b92506020840135611900816117dd565b91506040840135611910816117dd565b809150509250925092565b604051610140810167ffffffffffffffff81118282101715611966577f4e487b7100000000000000000000000000000000000000000000000000000000600052604160045260246000fd5b60405290565b604051610100810167ffffffffffffffff81118282101715611966577f4e487b7100000000000000000000000000000000000000000000000000000000600052604160045260246000fd5b604051610160810167ffffffffffffffff81118282101715611966577f4e487b7100000000000000000000000000000000000000000000000000000000600052604160045260246000fd5b6040516101c0810167ffffffffffffffff81118282101715611966577f4e487b7100000000000000000000000000000000000000000000000000000000600052604160045260246000fd5b805163ffffffff81168114611a6157600080fd5b919050565b600060c08284031215611a7857600080fd5b60405160c0810181811067ffffffffffffffff82111715611ac2577f4e487b7100000000000000000000000000000000000000000000000000000000600052604160045260246000fd5b806040525080915082518152602083015160208201526040830151604082015260608301516060820152611af860808401611a4d565b6080820152611b0960a08401611a4d565b60a08201525092915050565b805160058110611a6157600080fd5b80518015158114611a6157600080fd5b805161ffff81168114611a6157600080fd5b805160ff81168114611a6157600080fd5b60006101408284031215611b6a57600080fd5b611b7261191b565b90508151815260208201516020820152611b8e60408301611b15565b6040820152611b9f60608301611b24565b6060820152611bb060808301611b34565b6080820152611bc160a08301611a4d565b60a0820152611bd260c08301611a4d565b60c0820152611be360e08301611b46565b60e0820152610100611bf6818401611b46565b90820152610120611c08838201611b46565b9082015292915050565b8051611a61816117dd565b805160028110611a6157600080fd5b60006101008284031215611c3f57600080fd5b611c4761196c565b9050815181526020820151602082015260408201516040820152611c6d60608301611b34565b6060820152608082015167ffffffffffffffff81168114611c8d57600080fd5b6080820152611c9e60a08301611c12565b60a0820152611caf60c08301611b46565b60c0820152611cc060e08301611c1d565b60e082015292915050565b60006101608284031215611cde57600080fd5b611ce66119b7565b9050611cf182611b34565b8152611cff60208301611b34565b6020820152611d1060408301611b34565b6040820152611d2160608301611b34565b6060820152611d3260808301611b34565b6080820152611d4360a08301611b34565b60a0820152611d5460c08301611b34565b60c0820152611d6560e08301611b34565b60e0820152610100611d78818401611b34565b90820152610120611d8a838201611b34565b90820152610140611c08838201611b34565b60006101c08284031215611daf57600080fd5b611db7611a02565b9050611dc282611b34565b8152611dd060208301611b34565b6020820152611de160408301611b34565b6040820152611df260608301611b34565b6060820152611e0360808301611b34565b6080820152611e1460a08301611b34565b60a0820152611e2560c08301611b34565b60c0820152611e3660e08301611b34565b60e0820152610100611e49818401611b34565b90820152610120611e5b838201611b34565b90820152610140611e6d838201611b34565b90820152610160611e7f838201611b34565b90820152610180611e91838201611b34565b908201526101a0611c08838201611b34565b600060808284031215611eb557600080fd5b6040516080810181811067ffffffffffffffff82111715611eff577f4e487b7100000000000000000000000000000000000000000000000000000000600052604160045260246000fd5b604052905080611f0e83611b34565b8152611f1c60208401611b34565b6020820152611f2d60408401611b34565b6040820152611f3e60608401611b34565b60608201525092915050565b60006108808284031215611f5d57600080fd5b611f6561196c565b905081518152611f788360208401611a66565b6020820152611f8a8360e08401611b57565b6040820152611f9d836102208401611c2c565b6060820152611fb0836103208401611ccb565b6080820152611fc3836104808401611d9c565b60a0820152611fd6836106408401611d9c565b60c0820152611cc0836108008401611ea3565b60006108808284031215611ffc57600080fd5b61150c8383611f4a565b60006020828403121561201857600080fd5b61150c82611b24565b60006020828403121561203357600080fd5b815161150c816117dd565b7f4e487b7100000000000000000000000000000000000000000000000000000000600052602160045260246000fd5b6005811061207d5761207d61203e565b9052565b805182526020810151602083015260408101516120a1604084018261206d565b5060608101516120b5606084018215159052565b5060808101516120cb608084018261ffff169052565b5060a08101516120e360a084018263ffffffff169052565b5060c08101516120fb60c084018263ffffffff169052565b5060e081015161211060e084018260ff169052565b506101008181015160ff81168483015250506101208181015160ff811684830152610d55565b80518252602081015160208301526040810151604083015261ffff606082015116606083015267ffffffffffffffff608082015116608083015273ffffffffffffffffffffffffffffffffffffffff60a08201511660a083015260ff60c08201511660c083015260e0810151600281106121b2576121b261203e565b8060e0840152505050565b805161ffff16825260208101516121da602084018261ffff169052565b5060408101516121f0604084018261ffff169052565b506060810151612206606084018261ffff169052565b50608081015161221c608084018261ffff169052565b5060a081015161223260a084018261ffff169052565b5060c081015161224860c084018261ffff169052565b5060e081015161225e60e084018261ffff169052565b506101008181015161ffff81168483015250506101208181015161ffff81168483015250506101408181015161ffff811684830152610d55565b805161ffff16825260208101516122b5602084018261ffff169052565b5060408101516122cb604084018261ffff169052565b5060608101516122e1606084018261ffff169052565b5060808101516122f7608084018261ffff169052565b5060a081015161230d60a084018261ffff169052565b5060c081015161232360c084018261ffff169052565b5060e081015161233960e084018261ffff169052565b506101008181015161ffff90811691840191909152610120808301518216908401526101408083015182169084015261016080830151821690840152610180808301518216908401526101a0808301519182168185015290610d55565b80518252602081015180516020840152602081015160408401526040810151606084015260608101516080840152608081015163ffffffff80821660a08601528060a08401511660c086015250505060408101516123f760e0840182612081565b50606081015161240b610220840182612136565b50608081015161241f6103208401826121bd565b5060a0810151612433610480840182612298565b5060c0810151612447610640840182612298565b5060e00151805161ffff90811661080084015260208201518116610820840152604082015181166108408401526060909101511661086090910152565b60006108c082019050612498828451612396565b602083015173ffffffffffffffffffffffffffffffffffffffff166108808301526040909201516108a09091015290565b6000815180845260005b818110156124ef576020818501810151868301820152016124d3565b81811115612501576000602083870101525b50601f017fffffffffffffffffffffffffffffffffffffffffffffffffffffffffffffffe0169290920160200192915050565b84815283602082015260806040820152600061255360808301856124c9565b828103606084015261256581856124c9565b979650505050505050565b610880810161257f8284612396565b92915050565b60006108c0828403121561259857600080fd5b6040516060810181811067ffffffffffffffff821117156125e2577f4e487b7100000000000000000000000000000000000000000000000000000000600052604160045260246000fd5b6040526125ef8484611f4a565b8152610880830151612600816117dd565b60208201526108a0929092015160408301525091905056fea26469706673582212202b89b914d281fca9f632f9f704fb1f03731e4125a9e8817b12be3bffccd71fc664736f6c634300080d0033",
  "devdoc": {
    "kind": "dev",
    "methods": {
      "executeMessage(bytes32,uint256,bytes,address)": {
        "details": "Must be called by MessageBug & sent from src chain by a trusted srcApp",
        "params": {
          "_executor": "Address who called the MessageBus execution function",
          "_message": "Arbitrary message bytes originated from and encoded by the source app contract",
          "_srcAddress": "The bytes32 address of the source app contract",
          "_srcChainId": "The source chain ID where the transfer is originated from"
        }
      },
      "owner()": {
        "details": "Returns the address of the current owner."
      },
      "renounceOwnership()": {
        "details": "Leaves the contract without owner. It will not be possible to call `onlyOwner` functions anymore. Can only be called by the current owner. NOTE: Renouncing ownership will leave the contract without an owner, thereby removing any functionality that is only available to the owner."
      },
      "sendHero(uint256,uint256)": {
        "details": "This function enforces the caller to receive the Hero being bridged to the same address on another chain.Do NOT call this from other contracts, unless the contract is deployed on another chain to the same address, and can receive ERC721s. ",
        "params": {
          "_dstChainId": "The destination chain ID - typically, standard EVM chain ID, but differs on nonEVM chains",
          "_heroId": "specifics which hero msg.sender already holds and will transfer to the bridge contract"
        }
      },
      "transferOwnership(address)": {
        "details": "Transfers ownership of the contract to a new account (`newOwner`). Can only be called by the current owner."
      }
    },
    "stateVariables": {
      "__gap": {
        "details": "This empty reserved space is put in place to allow future versions to add new variables without shifting down storage in the inheritance chain. See https://docs.openzeppelin.com/contracts/4.x/upgradeable#storage_gaps"
      }
    },
    "title": "Core app for handling cross chain messaging passing to bridge Hero NFTs",
    "version": 1
  },
  "userdoc": {
    "kind": "user",
    "methods": {
      "executeMessage(bytes32,uint256,bytes,address)": {
        "notice": "Executes a message called by MessageBus (MessageBusReceiver)"
      },
      "sendHero(uint256,uint256)": {
        "notice": "User must have an existing hero minted to bridge it."
      }
    },
    "version": 1
  },
  "storageLayout": {
    "storage": [
      {
        "astId": 3029,
        "contract": "contracts/messaging/dfk/bridge/HeroBridgeUpgradeable.sol:HeroBridgeUpgradeable",
        "label": "_initialized",
        "offset": 0,
        "slot": "0",
        "type": "t_bool"
      },
      {
        "astId": 3032,
        "contract": "contracts/messaging/dfk/bridge/HeroBridgeUpgradeable.sol:HeroBridgeUpgradeable",
        "label": "_initializing",
        "offset": 1,
        "slot": "0",
        "type": "t_bool"
      },
      {
        "astId": 5010,
        "contract": "contracts/messaging/dfk/bridge/HeroBridgeUpgradeable.sol:HeroBridgeUpgradeable",
        "label": "__gap",
        "offset": 0,
        "slot": "1",
        "type": "t_array(t_uint256)50_storage"
      },
      {
        "astId": 2909,
        "contract": "contracts/messaging/dfk/bridge/HeroBridgeUpgradeable.sol:HeroBridgeUpgradeable",
        "label": "_owner",
        "offset": 0,
        "slot": "51",
        "type": "t_address"
      },
      {
        "astId": 3021,
        "contract": "contracts/messaging/dfk/bridge/HeroBridgeUpgradeable.sol:HeroBridgeUpgradeable",
        "label": "__gap",
        "offset": 0,
        "slot": "52",
        "type": "t_array(t_uint256)49_storage"
      },
      {
        "astId": 12606,
        "contract": "contracts/messaging/dfk/bridge/HeroBridgeUpgradeable.sol:HeroBridgeUpgradeable",
        "label": "messageBus",
        "offset": 0,
        "slot": "101",
        "type": "t_address"
      },
      {
        "astId": 12610,
        "contract": "contracts/messaging/dfk/bridge/HeroBridgeUpgradeable.sol:HeroBridgeUpgradeable",
        "label": "trustedRemoteLookup",
        "offset": 0,
        "slot": "102",
        "type": "t_mapping(t_uint256,t_bytes32)"
      },
      {
        "astId": 12751,
        "contract": "contracts/messaging/dfk/bridge/HeroBridgeUpgradeable.sol:HeroBridgeUpgradeable",
        "label": "__gap",
        "offset": 0,
        "slot": "103",
        "type": "t_array(t_uint256)48_storage"
      },
      {
        "astId": 10900,
        "contract": "contracts/messaging/dfk/bridge/HeroBridgeUpgradeable.sol:HeroBridgeUpgradeable",
        "label": "heroes",
        "offset": 0,
        "slot": "151",
        "type": "t_address"
      },
      {
        "astId": 10902,
        "contract": "contracts/messaging/dfk/bridge/HeroBridgeUpgradeable.sol:HeroBridgeUpgradeable",
        "label": "assistingAuction",
        "offset": 0,
        "slot": "152",
        "type": "t_address"
      },
      {
        "astId": 10904,
        "contract": "contracts/messaging/dfk/bridge/HeroBridgeUpgradeable.sol:HeroBridgeUpgradeable",
        "label": "msgGasLimit",
        "offset": 0,
        "slot": "153",
        "type": "t_uint256"
      },
      {
        "astId": 11296,
        "contract": "contracts/messaging/dfk/bridge/HeroBridgeUpgradeable.sol:HeroBridgeUpgradeable",
        "label": "__gap",
        "offset": 0,
        "slot": "154",
        "type": "t_array(t_uint256)47_storage"
      }
    ],
    "types": {
      "t_address": {
        "encoding": "inplace",
        "label": "address",
        "numberOfBytes": "20"
      },
      "t_array(t_uint256)47_storage": {
        "base": "t_uint256",
        "encoding": "inplace",
        "label": "uint256[47]",
        "numberOfBytes": "1504"
      },
      "t_array(t_uint256)48_storage": {
        "base": "t_uint256",
        "encoding": "inplace",
        "label": "uint256[48]",
        "numberOfBytes": "1536"
      },
      "t_array(t_uint256)49_storage": {
        "base": "t_uint256",
        "encoding": "inplace",
        "label": "uint256[49]",
        "numberOfBytes": "1568"
      },
      "t_array(t_uint256)50_storage": {
        "base": "t_uint256",
        "encoding": "inplace",
        "label": "uint256[50]",
        "numberOfBytes": "1600"
      },
      "t_bool": {
        "encoding": "inplace",
        "label": "bool",
        "numberOfBytes": "1"
      },
      "t_bytes32": {
        "encoding": "inplace",
        "label": "bytes32",
        "numberOfBytes": "32"
      },
      "t_mapping(t_uint256,t_bytes32)": {
        "encoding": "mapping",
        "key": "t_uint256",
        "label": "mapping(uint256 => bytes32)",
        "numberOfBytes": "32",
        "value": "t_bytes32"
      },
      "t_uint256": {
        "encoding": "inplace",
        "label": "uint256",
        "numberOfBytes": "32"
      }
    }
  }
}