{
  "address": "0x75224b0f245Fe51d5bf47A898DbB6720D4150BA7",
  "abi": [
    {
      "inputs": [
        {
          "internalType": "address payable",
          "name": "_wethAddress",
          "type": "address"
        },
        {
          "internalType": "contract ISwap",
          "name": "_baseSwap",
          "type": "address"
        },
        {
          "internalType": "contract ISynapseBridge",
          "name": "_synapseBridge",
          "type": "address"
        }
      ],
      "stateMutability": "nonpayable",
      "type": "constructor"
    },
    {
      "inputs": [],
      "name": "WETH_ADDRESS",
      "outputs": [
        {
          "internalType": "address payable",
          "name": "",
          "type": "address"
        }
      ],
      "stateMutability": "view",
      "type": "function"
    },
    {
      "inputs": [
        {
          "internalType": "uint256",
          "name": "",
          "type": "uint256"
        }
      ],
      "name": "baseTokens",
      "outputs": [
        {
          "internalType": "contract IERC20",
          "name": "",
          "type": "address"
        }
      ],
      "stateMutability": "view",
      "type": "function"
    },
    {
      "inputs": [
        {
          "internalType": "uint256",
          "name": "tokenAmount",
          "type": "uint256"
        },
        {
          "internalType": "uint8",
          "name": "tokenIndex",
          "type": "uint8"
        }
      ],
      "name": "calculateRemoveLiquidityOneToken",
      "outputs": [
        {
          "internalType": "uint256",
          "name": "availableTokenAmount",
          "type": "uint256"
        }
      ],
      "stateMutability": "view",
      "type": "function"
    },
    {
      "inputs": [
        {
          "internalType": "uint256[]",
          "name": "amounts",
          "type": "uint256[]"
        },
        {
          "internalType": "bool",
          "name": "deposit",
          "type": "bool"
        }
      ],
      "name": "calculateTokenAmount",
      "outputs": [
        {
          "internalType": "uint256",
          "name": "",
          "type": "uint256"
        }
      ],
      "stateMutability": "view",
      "type": "function"
    },
    {
      "inputs": [
        {
          "internalType": "address",
          "name": "to",
          "type": "address"
        },
        {
          "internalType": "uint256",
          "name": "chainId",
          "type": "uint256"
        },
        {
          "internalType": "contract IERC20",
          "name": "token",
          "type": "address"
        },
        {
          "internalType": "uint256",
          "name": "amount",
          "type": "uint256"
        }
      ],
      "name": "deposit",
      "outputs": [],
      "stateMutability": "nonpayable",
      "type": "function"
    },
    {
      "inputs": [
        {
          "internalType": "address",
          "name": "to",
          "type": "address"
        },
        {
          "internalType": "uint256",
          "name": "chainId",
          "type": "uint256"
        },
        {
          "internalType": "contract IERC20",
          "name": "token",
          "type": "address"
        },
        {
          "internalType": "uint256",
          "name": "amount",
          "type": "uint256"
        },
        {
          "internalType": "uint8",
          "name": "tokenIndexFrom",
          "type": "uint8"
        },
        {
          "internalType": "uint8",
          "name": "tokenIndexTo",
          "type": "uint8"
        },
        {
          "internalType": "uint256",
          "name": "minDy",
          "type": "uint256"
        },
        {
          "internalType": "uint256",
          "name": "deadline",
          "type": "uint256"
        }
      ],
      "name": "depositAndSwap",
      "outputs": [],
      "stateMutability": "nonpayable",
      "type": "function"
    },
    {
      "inputs": [
        {
          "internalType": "address",
          "name": "to",
          "type": "address"
        },
        {
          "internalType": "uint256",
          "name": "chainId",
          "type": "uint256"
        },
        {
          "internalType": "uint256",
          "name": "amount",
          "type": "uint256"
        }
      ],
      "name": "depositETH",
      "outputs": [],
      "stateMutability": "payable",
      "type": "function"
    },
    {
      "inputs": [
        {
          "internalType": "address",
          "name": "to",
          "type": "address"
        },
        {
          "internalType": "uint256",
          "name": "chainId",
          "type": "uint256"
        },
        {
          "internalType": "uint256",
          "name": "amount",
          "type": "uint256"
        },
        {
          "internalType": "uint8",
          "name": "tokenIndexFrom",
          "type": "uint8"
        },
        {
          "internalType": "uint8",
          "name": "tokenIndexTo",
          "type": "uint8"
        },
        {
          "internalType": "uint256",
          "name": "minDy",
          "type": "uint256"
        },
        {
          "internalType": "uint256",
          "name": "deadline",
          "type": "uint256"
        }
      ],
      "name": "depositETHAndSwap",
      "outputs": [],
      "stateMutability": "payable",
      "type": "function"
    },
    {
      "inputs": [
        {
          "internalType": "address",
          "name": "to",
          "type": "address"
        },
        {
          "internalType": "uint256",
          "name": "chainId",
          "type": "uint256"
        },
        {
          "internalType": "contract IERC20",
          "name": "token",
          "type": "address"
        },
        {
          "internalType": "uint256",
          "name": "amount",
          "type": "uint256"
        }
      ],
      "name": "redeem",
      "outputs": [],
      "stateMutability": "nonpayable",
      "type": "function"
    },
    {
      "inputs": [
        {
          "internalType": "address",
          "name": "to",
          "type": "address"
        },
        {
          "internalType": "uint256",
          "name": "chainId",
          "type": "uint256"
        },
        {
          "internalType": "contract IERC20",
          "name": "token",
          "type": "address"
        },
        {
          "internalType": "uint256",
          "name": "amount",
          "type": "uint256"
        },
        {
          "internalType": "uint8",
          "name": "liqTokenIndex",
          "type": "uint8"
        },
        {
          "internalType": "uint256",
          "name": "liqMinAmount",
          "type": "uint256"
        },
        {
          "internalType": "uint256",
          "name": "liqDeadline",
          "type": "uint256"
        }
      ],
      "name": "redeemAndRemove",
      "outputs": [],
      "stateMutability": "nonpayable",
      "type": "function"
    },
    {
      "inputs": [
        {
          "internalType": "address",
          "name": "to",
          "type": "address"
        },
        {
          "internalType": "uint256",
          "name": "chainId",
          "type": "uint256"
        },
        {
          "internalType": "contract IERC20",
          "name": "token",
          "type": "address"
        },
        {
          "internalType": "uint256",
          "name": "amount",
          "type": "uint256"
        },
        {
          "internalType": "uint8",
          "name": "tokenIndexFrom",
          "type": "uint8"
        },
        {
          "internalType": "uint8",
          "name": "tokenIndexTo",
          "type": "uint8"
        },
        {
          "internalType": "uint256",
          "name": "minDy",
          "type": "uint256"
        },
        {
          "internalType": "uint256",
          "name": "deadline",
          "type": "uint256"
        }
      ],
      "name": "redeemAndSwap",
      "outputs": [],
      "stateMutability": "nonpayable",
      "type": "function"
    },
    {
      "inputs": [
        {
          "internalType": "bytes32",
          "name": "to",
          "type": "bytes32"
        },
        {
          "internalType": "uint256",
          "name": "chainId",
          "type": "uint256"
        },
        {
          "internalType": "contract IERC20",
          "name": "token",
          "type": "address"
        },
        {
          "internalType": "uint256",
          "name": "amount",
          "type": "uint256"
        }
      ],
      "name": "redeemv2",
      "outputs": [],
      "stateMutability": "nonpayable",
      "type": "function"
    },
    {
      "inputs": [
        {
          "internalType": "address",
          "name": "to",
          "type": "address"
        },
        {
          "internalType": "uint256",
          "name": "chainId",
          "type": "uint256"
        },
        {
          "internalType": "contract IERC20",
          "name": "token",
          "type": "address"
        },
        {
          "internalType": "uint256[]",
          "name": "liquidityAmounts",
          "type": "uint256[]"
        },
        {
          "internalType": "uint256",
          "name": "minToMint",
          "type": "uint256"
        },
        {
          "internalType": "uint256",
          "name": "deadline",
          "type": "uint256"
        }
      ],
      "name": "zapAndDeposit",
      "outputs": [],
      "stateMutability": "nonpayable",
      "type": "function"
    },
    {
      "inputs": [
        {
          "internalType": "address",
          "name": "to",
          "type": "address"
        },
        {
          "internalType": "uint256",
          "name": "chainId",
          "type": "uint256"
        },
        {
          "internalType": "contract IERC20",
          "name": "token",
          "type": "address"
        },
        {
          "internalType": "uint256[]",
          "name": "liquidityAmounts",
          "type": "uint256[]"
        },
        {
          "internalType": "uint256",
          "name": "minToMint",
          "type": "uint256"
        },
        {
          "internalType": "uint256",
          "name": "liqDeadline",
          "type": "uint256"
        },
        {
          "internalType": "uint8",
          "name": "tokenIndexFrom",
          "type": "uint8"
        },
        {
          "internalType": "uint8",
          "name": "tokenIndexTo",
          "type": "uint8"
        },
        {
          "internalType": "uint256",
          "name": "minDy",
          "type": "uint256"
        },
        {
          "internalType": "uint256",
          "name": "swapDeadline",
          "type": "uint256"
        }
      ],
      "name": "zapAndDepositAndSwap",
      "outputs": [],
      "stateMutability": "nonpayable",
      "type": "function"
    }
  ],
  "transactionHash": "0xfc19c34e3954dcda1060a1fea1db20e6deebc69d5dd22e66cf47bb7ba79f8373",
  "args": [
    "0xCCb93dABD71c8Dad03Fc4CE5559dC3D89F67a260",
    "0x0000000000000000000000000000000000000000",
    "0xE05c976d3f045D0E6E7A6f61083d98A15603cF6A"
  ],
  "solcInputHash": "f890e19d95a4324c05c431b6e8cd0070",
  "bytecode": "0x60a06040523480156200001157600080fd5b506040516200275638038062002756833981810160405260608110156200003757600080fd5b5080516020808301516040909301516001600160601b0319606084901b16608052600080546001600160a01b038087166001600160a01b0319928316179092556001805483851692169190911790559293929091620000a891851690839060001990620018ab62000204821b17901c565b6001600160a01b03821615620001fb5760005b60208160ff161015620001b557826001600160a01b03166382b86600826040518263ffffffff1660e01b8152600401808260ff16815260200191505060206040518083038186803b1580156200011057600080fd5b505afa9250505080156200013757506040513d60208110156200013257600080fd5b505160015b6200014257620001b5565b600280546001810182556000919091527f405787fa12a823e0f2b7631cc41b3ba8828b3321ca811111fa75cd3aa3bb5ace0180546001600160a01b0319166001600160a01b038316908117909155620001ab908560001962000204602090811b620018ab17901c565b50600101620000bb565b60018160ff1611620001f95760405162461bcd60e51b8152600401808060200182810382526024815260200180620027086024913960400191505060405180910390fd5b505b50505062000661565b6000620002ab82856001600160a01b031663dd62ed3e30876040518363ffffffff1660e01b815260040180836001600160a01b03168152602001826001600160a01b031681526020019250505060206040518083038186803b1580156200026a57600080fd5b505afa1580156200027f573d6000803e3d6000fd5b505050506040513d60208110156200029657600080fd5b5051906200030d602090811b620019ca17901c565b604080516001600160a01b038616602482015260448082018490528251808303909101815260649091019091526020810180516001600160e01b0390811663095ea7b360e01b1790915291925062000307918691906200036f16565b50505050565b60008282018381101562000368576040805162461bcd60e51b815260206004820152601b60248201527f536166654d6174683a206164646974696f6e206f766572666c6f770000000000604482015290519081900360640190fd5b9392505050565b6060620003cb826040518060400160405280602081526020017f5361666545524332303a206c6f772d6c6576656c2063616c6c206661696c6564815250856001600160a01b03166200043060201b62001a3e179092919060201c565b8051909150156200042b57808060200190516020811015620003ec57600080fd5b50516200042b5760405162461bcd60e51b815260040180806020018281038252602a8152602001806200272c602a913960400191505060405180910390fd5b505050565b606062000441848460008562000449565b949350505050565b6060824710156200048c5760405162461bcd60e51b8152600401808060200182810382526026815260200180620026e26026913960400191505060405180910390fd5b6200049785620005b1565b620004e9576040805162461bcd60e51b815260206004820152601d60248201527f416464726573733a2063616c6c20746f206e6f6e2d636f6e7472616374000000604482015290519081900360640190fd5b60006060866001600160a01b031685876040518082805190602001908083835b602083106200052a5780518252601f19909201916020918201910162000509565b6001836020036101000a03801982511681845116808217855250505050505090500191505060006040518083038185875af1925050503d80600081146200058e576040519150601f19603f3d011682016040523d82523d6000602084013e62000593565b606091505b509092509050620005a6828286620005b7565b979650505050505050565b3b151590565b60608315620005c857508162000368565b825115620005d95782518084602001fd5b8160405162461bcd60e51b81526004018080602001828103825283818151815260200191508051906020019080838360005b83811015620006255781810151838201526020016200060b565b50505050905090810190601f168015620006535780820380516001836020036101000a031916815260200191505b509250505060405180910390fd5b60805160601c61204f62000693600039806105e9528061139c528061144e528061154552806115f7525061204f6000f3fe6080604052600436106100dd5760003560e01c8063839ed90a1161007f578063a9fd8c5711610059578063a9fd8c571461049e578063ce0b63ce146104ef578063e6ab280614610521578063f3f094a1146105a0576100dd565b8063839ed90a1461038957806390d25074146103f0578063a2a2af0b14610437576100dd565b806336e712ed116100bb57806336e712ed14610182578063394023d9146101e057806349b7cf84146102825780638054ae3b146102c7576100dd565b8063040141e5146100e2578063328123a214610113578063342a87a11461013d575b600080fd5b3480156100ee57600080fd5b506100f76105e7565b604080516001600160a01b039092168252519081900360200190f35b34801561011f57600080fd5b506100f76004803603602081101561013657600080fd5b503561060b565b34801561014957600080fd5b506101706004803603604081101561016057600080fd5b508035906020013560ff16610632565b60408051918252519081900360200190f35b34801561018e57600080fd5b506101de600480360360e08110156101a557600080fd5b506001600160a01b0381358116916020810135916040820135169060608101359060ff6080820135169060a08101359060c001356106d4565b005b3480156101ec57600080fd5b506101de600480360360c081101561020357600080fd5b6001600160a01b03823581169260208101359260408201359092169181019060808101606082013564010000000081111561023d57600080fd5b82018360208201111561024f57600080fd5b8035906020019184602083028401116401000000008311171561027157600080fd5b919350915080359060200135610858565b34801561028e57600080fd5b506101de600480360360808110156102a557600080fd5b508035906020810135906001600160a01b036040820135169060600135610afc565b3480156102d357600080fd5b506101de60048036036101408110156102eb57600080fd5b6001600160a01b03823581169260208101359260408201359092169181019060808101606082013564010000000081111561032557600080fd5b82018360208201111561033757600080fd5b8035906020019184602083028401116401000000008311171561035957600080fd5b919350915080359060208101359060ff604082013581169160608101359091169060808101359060a00135610c65565b34801561039557600080fd5b506101de60048036036101008110156103ad57600080fd5b506001600160a01b0381358116916020810135916040820135169060608101359060ff608082013581169160a08101359091169060c08101359060e00135610efc565b3480156103fc57600080fd5b506101de6004803603608081101561041357600080fd5b506001600160a01b0381358116916020810135916040820135169060600135611068565b34801561044357600080fd5b506101de600480360361010081101561045b57600080fd5b506001600160a01b0381358116916020810135916040820135169060608101359060ff608082013581169160a08101359091169060c08101359060e001356111b4565b6101de600480360360e08110156104b457600080fd5b506001600160a01b038135169060208101359060408101359060ff606082013581169160808101359091169060a08101359060c00135611320565b6101de6004803603606081101561050557600080fd5b506001600160a01b0381351690602081013590604001356114c9565b34801561052d57600080fd5b506101706004803603604081101561054457600080fd5b81019060208101813564010000000081111561055f57600080fd5b82018360208201111561057157600080fd5b8035906020019184602083028401116401000000008311171561059357600080fd5b919350915035151561166f565b3480156105ac57600080fd5b506101de600480360360808110156105c357600080fd5b506001600160a01b038135811691602081013591604082013516906060013561175f565b7f000000000000000000000000000000000000000000000000000000000000000081565b6002818154811061061857fe5b6000918252602090912001546001600160a01b0316905081565b60008054604080517f342a87a10000000000000000000000000000000000000000000000000000000081526004810186905260ff8516602482015290516001600160a01b039092169163342a87a191604480820192602092909190829003018186803b1580156106a157600080fd5b505afa1580156106b5573d6000803e3d6000fd5b505050506040513d60208110156106cb57600080fd5b50519392505050565b6106e96001600160a01b038616333087611a55565b600154604080517fdd62ed3e0000000000000000000000000000000000000000000000000000000081523060048201526001600160a01b0392831660248201529051869288169163dd62ed3e916044808301926020929190829003018186803b15801561075557600080fd5b505afa158015610769573d6000803e3d6000fd5b505050506040513d602081101561077f57600080fd5b505110156107a3576001546107a3906001600160a01b038781169116600019611add565b600154604080517f36e712ed0000000000000000000000000000000000000000000000000000000081526001600160a01b038a81166004830152602482018a905288811660448301526064820188905260ff8716608483015260a4820186905260c48201859052915191909216916336e712ed9160e480830192600092919082900301818387803b15801561083757600080fd5b505af115801561084b573d6000803e3d6000fd5b5050505050505050505050565b60005b6002548110156108c95784848281811061087157fe5b905060200201356000146108c1576108c1333087878581811061089057fe5b90506020020135600285815481106108a457fe5b6000918252602090912001546001600160a01b0316929190611a55565b60010161085b565b50600080546040517f4d49e87d0000000000000000000000000000000000000000000000000000000081526024810185905260448101849052606060048201908152606482018790526001600160a01b0390921691634d49e87d9188918891889188918190608401866020870280828437600081840152601f19601f82011690508083019250505095505050505050602060405180830381600087803b15801561097257600080fd5b505af1158015610986573d6000803e3d6000fd5b505050506040513d602081101561099c57600080fd5b5051600154604080517fdd62ed3e0000000000000000000000000000000000000000000000000000000081523060048201526001600160a01b039283166024820152905192935083929189169163dd62ed3e91604480820192602092909190829003018186803b158015610a0f57600080fd5b505afa158015610a23573d6000803e3d6000fd5b505050506040513d6020811015610a3957600080fd5b50511015610a5d57600154610a5d906001600160a01b038881169116600019611add565b600154604080517f90d250740000000000000000000000000000000000000000000000000000000081526001600160a01b038b81166004830152602482018b9052898116604483015260648201859052915191909216916390d2507491608480830192600092919082900301818387803b158015610ada57600080fd5b505af1158015610aee573d6000803e3d6000fd5b505050505050505050505050565b610b116001600160a01b038316333084611a55565b600154604080517fdd62ed3e0000000000000000000000000000000000000000000000000000000081523060048201526001600160a01b0392831660248201529051839285169163dd62ed3e916044808301926020929190829003018186803b158015610b7d57600080fd5b505afa158015610b91573d6000803e3d6000fd5b505050506040513d6020811015610ba757600080fd5b50511015610bcb57600154610bcb906001600160a01b038481169116600019611add565b600154604080517f49b7cf8400000000000000000000000000000000000000000000000000000000815260048101879052602481018690526001600160a01b03858116604483015260648201859052915191909216916349b7cf8491608480830192600092919082900301818387803b158015610c4757600080fd5b505af1158015610c5b573d6000803e3d6000fd5b5050505050505050565b60005b600254811015610ca557888882818110610c7e57fe5b90506020020135600014610c9d57610c9d33308b8b8581811061089057fe5b600101610c68565b50600080546040517f4d49e87d0000000000000000000000000000000000000000000000000000000081526024810189905260448101889052606060048201908152606482018b90526001600160a01b0390921691634d49e87d918c918c918c918c918190608401866020870280828437600081840152601f19601f82011690508083019250505095505050505050602060405180830381600087803b158015610d4e57600080fd5b505af1158015610d62573d6000803e3d6000fd5b505050506040513d6020811015610d7857600080fd5b5051600154604080517fdd62ed3e0000000000000000000000000000000000000000000000000000000081523060048201526001600160a01b03928316602482015290519293508392918d169163dd62ed3e91604480820192602092909190829003018186803b158015610deb57600080fd5b505afa158015610dff573d6000803e3d6000fd5b505050506040513d6020811015610e1557600080fd5b50511015610e3957600154610e39906001600160a01b038c81169116600019611add565b600154604080517fa2a2af0b0000000000000000000000000000000000000000000000000000000081526001600160a01b038f81166004830152602482018f90528d811660448301526064820185905260ff808a166084840152881660a483015260c4820187905260e482018690529151919092169163a2a2af0b9161010480830192600092919082900301818387803b158015610ed657600080fd5b505af1158015610eea573d6000803e3d6000fd5b50505050505050505050505050505050565b610f116001600160a01b038716333088611a55565b600154604080517fdd62ed3e0000000000000000000000000000000000000000000000000000000081523060048201526001600160a01b0392831660248201529051879289169163dd62ed3e916044808301926020929190829003018186803b158015610f7d57600080fd5b505afa158015610f91573d6000803e3d6000fd5b505050506040513d6020811015610fa757600080fd5b50511015610fcb57600154610fcb906001600160a01b038881169116600019611add565b600154604080517f839ed90a0000000000000000000000000000000000000000000000000000000081526001600160a01b038b81166004830152602482018b905289811660448301526064820189905260ff8089166084840152871660a483015260c4820186905260e482018590529151919092169163839ed90a9161010480830192600092919082900301818387803b158015610ada57600080fd5b61107d6001600160a01b038316333084611a55565b600154604080517fdd62ed3e0000000000000000000000000000000000000000000000000000000081523060048201526001600160a01b0392831660248201529051839285169163dd62ed3e916044808301926020929190829003018186803b1580156110e957600080fd5b505afa1580156110fd573d6000803e3d6000fd5b505050506040513d602081101561111357600080fd5b5051101561113757600154611137906001600160a01b038481169116600019611add565b600154604080517f90d250740000000000000000000000000000000000000000000000000000000081526001600160a01b03878116600483015260248201879052858116604483015260648201859052915191909216916390d2507491608480830192600092919082900301818387803b158015610c4757600080fd5b6111c96001600160a01b038716333088611a55565b600154604080517fdd62ed3e0000000000000000000000000000000000000000000000000000000081523060048201526001600160a01b0392831660248201529051879289169163dd62ed3e916044808301926020929190829003018186803b15801561123557600080fd5b505afa158015611249573d6000803e3d6000fd5b505050506040513d602081101561125f57600080fd5b5051101561128357600154611283906001600160a01b038881169116600019611add565b600154604080517fa2a2af0b0000000000000000000000000000000000000000000000000000000081526001600160a01b038b81166004830152602482018b905289811660448301526064820189905260ff8089166084840152871660a483015260c4820186905260e482018590529151919092169163a2a2af0b9161010480830192600092919082900301818387803b158015610ada57600080fd5b60003411801561132f57508434145b61139a57604080517f08c379a000000000000000000000000000000000000000000000000000000000815260206004820152601360248201527f494e434f5252454354204d53472056414c554500000000000000000000000000604482015290519081900360640190fd5b7f00000000000000000000000000000000000000000000000000000000000000006001600160a01b031663d0e30db0346040518263ffffffff1660e01b81526004016000604051808303818588803b1580156113f557600080fd5b505af1158015611409573d6000803e3d6000fd5b5050600154604080517fa2a2af0b0000000000000000000000000000000000000000000000000000000081526001600160a01b038d81166004830152602482018d90527f000000000000000000000000000000000000000000000000000000000000000081166044830152606482018c905260ff808c1660848401528a1660a483015260c4820189905260e48201889052915191909216945063a2a2af0b9350610104808301935060009282900301818387803b15801561083757600080fd5b6000341180156114d857508034145b61154357604080517f08c379a000000000000000000000000000000000000000000000000000000000815260206004820152601360248201527f494e434f5252454354204d53472056414c554500000000000000000000000000604482015290519081900360640190fd5b7f00000000000000000000000000000000000000000000000000000000000000006001600160a01b031663d0e30db0346040518263ffffffff1660e01b81526004016000604051808303818588803b15801561159e57600080fd5b505af11580156115b2573d6000803e3d6000fd5b5050600154604080517f90d250740000000000000000000000000000000000000000000000000000000081526001600160a01b038981166004830152602482018990527f0000000000000000000000000000000000000000000000000000000000000000811660448301526064820188905291519190921694506390d2507493506084808301935060009282900301818387803b15801561165257600080fd5b505af1158015611666573d6000803e3d6000fd5b50505050505050565b60008054604080517fe6ab2806000000000000000000000000000000000000000000000000000000008152841515602482015260048101918252604481018690526001600160a01b039092169163e6ab2806918791879187918190606401856020860280828437600083820152604051601f9091017fffffffffffffffffffffffffffffffffffffffffffffffffffffffffffffffe016909201965060209550909350505081840390508186803b15801561172957600080fd5b505afa15801561173d573d6000803e3d6000fd5b505050506040513d602081101561175357600080fd5b505190505b9392505050565b6117746001600160a01b038316333084611a55565b600154604080517fdd62ed3e0000000000000000000000000000000000000000000000000000000081523060048201526001600160a01b0392831660248201529051839285169163dd62ed3e916044808301926020929190829003018186803b1580156117e057600080fd5b505afa1580156117f4573d6000803e3d6000fd5b505050506040513d602081101561180a57600080fd5b5051101561182e5760015461182e906001600160a01b038481169116600019611add565b600154604080517ff3f094a10000000000000000000000000000000000000000000000000000000081526001600160a01b038781166004830152602482018790528581166044830152606482018590529151919092169163f3f094a191608480830192600092919082900301818387803b158015610c4757600080fd5b600061194182856001600160a01b031663dd62ed3e30876040518363ffffffff1660e01b815260040180836001600160a01b03168152602001826001600160a01b031681526020019250505060206040518083038186803b15801561190f57600080fd5b505afa158015611923573d6000803e3d6000fd5b505050506040513d602081101561193957600080fd5b5051906119ca565b604080516001600160a01b038616602482015260448082018490528251808303909101815260649091019091526020810180517bffffffffffffffffffffffffffffffffffffffffffffffffffffffff167f095ea7b3000000000000000000000000000000000000000000000000000000001790529091506119c4908590611c56565b50505050565b60008282018381101561175857604080517f08c379a000000000000000000000000000000000000000000000000000000000815260206004820152601b60248201527f536166654d6174683a206164646974696f6e206f766572666c6f770000000000604482015290519081900360640190fd5b6060611a4d8484600085611d21565b949350505050565b604080516001600160a01b0380861660248301528416604482015260648082018490528251808303909101815260849091019091526020810180517bffffffffffffffffffffffffffffffffffffffffffffffffffffffff167f23b872dd000000000000000000000000000000000000000000000000000000001790526119c4908590611c56565b801580611b7c5750604080517fdd62ed3e0000000000000000000000000000000000000000000000000000000081523060048201526001600160a01b03848116602483015291519185169163dd62ed3e91604480820192602092909190829003018186803b158015611b4e57600080fd5b505afa158015611b62573d6000803e3d6000fd5b505050506040513d6020811015611b7857600080fd5b5051155b611bd1576040517f08c379a0000000000000000000000000000000000000000000000000000000008152600401808060200182810382526036815260200180611fe46036913960400191505060405180910390fd5b604080516001600160a01b038416602482015260448082018490528251808303909101815260649091019091526020810180517bffffffffffffffffffffffffffffffffffffffffffffffffffffffff167f095ea7b300000000000000000000000000000000000000000000000000000000179052611c51908490611c56565b505050565b6060611cab826040518060400160405280602081526020017f5361666545524332303a206c6f772d6c6576656c2063616c6c206661696c6564815250856001600160a01b0316611a3e9092919063ffffffff16565b805190915015611c5157808060200190516020811015611cca57600080fd5b5051611c51576040517f08c379a000000000000000000000000000000000000000000000000000000000815260040180806020018281038252602a815260200180611fba602a913960400191505060405180910390fd5b606082471015611d7c576040517f08c379a0000000000000000000000000000000000000000000000000000000008152600401808060200182810382526026815260200180611f946026913960400191505060405180910390fd5b611d8585611ecf565b611df057604080517f08c379a000000000000000000000000000000000000000000000000000000000815260206004820152601d60248201527f416464726573733a2063616c6c20746f206e6f6e2d636f6e7472616374000000604482015290519081900360640190fd5b60006060866001600160a01b031685876040518082805190602001908083835b60208310611e4d57805182527fffffffffffffffffffffffffffffffffffffffffffffffffffffffffffffffe09092019160209182019101611e10565b6001836020036101000a03801982511681845116808217855250505050505090500191505060006040518083038185875af1925050503d8060008114611eaf576040519150601f19603f3d011682016040523d82523d6000602084013e611eb4565b606091505b5091509150611ec4828286611ed5565b979650505050505050565b3b151590565b60608315611ee4575081611758565b825115611ef45782518084602001fd5b816040517f08c379a00000000000000000000000000000000000000000000000000000000081526004018080602001828103825283818151815260200191508051906020019080838360005b83811015611f58578181015183820152602001611f40565b50505050905090810190601f168015611f855780820380516001836020036101000a031916815260200191505b509250505060405180910390fdfe416464726573733a20696e73756666696369656e742062616c616e636520666f722063616c6c5361666545524332303a204552433230206f7065726174696f6e20646964206e6f7420737563636565645361666545524332303a20617070726f76652066726f6d206e6f6e2d7a65726f20746f206e6f6e2d7a65726f20616c6c6f77616e6365a2646970667358221220368ae9593dac9c8c71cbdb9d7e6e44b1e9cd5534accc570cb6daa218ba6b2ef864736f6c634300060c0033416464726573733a20696e73756666696369656e742062616c616e636520666f722063616c6c6261736553776170206d7573742068617665206174206c65617374203220746f6b656e735361666545524332303a204552433230206f7065726174696f6e20646964206e6f742073756363656564",
  "devdoc": {
    "details": "This contract should be deployed with a base Swap.sol address and a SynapseBridge.sol address, otherwise, it will not function.",
    "kind": "dev",
    "methods": {
      "calculateRemoveLiquidityOneToken(uint256,uint8)": {
        "params": {
          "tokenAmount": "the amount of LP token to burn",
          "tokenIndex": "index of which token will be withdrawn"
        },
        "returns": {
          "availableTokenAmount": "calculated amount of underlying token available to withdraw"
        }
      },
      "calculateTokenAmount(uint256[],bool)": {
        "details": "This shouldn't be used outside frontends for user estimates.",
        "params": {
          "amounts": "an array of token amounts to deposit or withdrawal, corresponding to pooledTokens. The amount should be in each pooled token's native precision.",
          "deposit": "whether this is a deposit or a withdrawal"
        },
        "returns": {
          "_0": "token amount the user will receive"
        }
      },
      "deposit(address,uint256,address,uint256)": {
        "params": {
          "amount": "Amount in native token decimals to transfer cross-chain pre-fees*",
          "chainId": "which chain to bridge assets onto",
          "to": "address on other chain to bridge assets to",
          "token": "ERC20 compatible token to deposit into the bridge"
        }
      },
      "depositAndSwap(address,uint256,address,uint256,uint8,uint8,uint256,uint256)": {
        "params": {
          "amount": "Amount in native token decimals to transfer cross-chain pre-fees",
          "chainId": "which chain to bridge assets onto",
          "deadline": "latest timestamp to accept this transaction*",
          "minDy": "the min amount the user would like to receive, or revert to only minting the SynERC20 token crosschain.",
          "to": "address on other chain to bridge assets to",
          "token": "ERC20 compatible token to deposit into the bridge",
          "tokenIndexFrom": "the token the user wants to swap from",
          "tokenIndexTo": "the token the user wants to swap to"
        }
      },
      "depositETH(address,uint256,uint256)": {
        "params": {
          "amount": "Amount in native token decimals to transfer cross-chain pre-fees*",
          "chainId": "which chain to bridge assets onto",
          "to": "address on other chain to bridge assets to"
        }
      },
      "depositETHAndSwap(address,uint256,uint256,uint8,uint8,uint256,uint256)": {
        "params": {
          "amount": "Amount in native token decimals to transfer cross-chain pre-fees",
          "chainId": "which chain to bridge assets onto",
          "deadline": "latest timestamp to accept this transaction*",
          "minDy": "the min amount the user would like to receive, or revert to only minting the SynERC20 token crosschain.",
          "to": "address on other chain to bridge assets to",
          "tokenIndexFrom": "the token the user wants to swap from",
          "tokenIndexTo": "the token the user wants to swap to"
        }
      },
      "redeem(address,uint256,address,uint256)": {
        "params": {
          "amount": "Amount in native token decimals to transfer cross-chain pre-fees*",
          "chainId": "which chain to bridge assets onto",
          "to": "address on other chain to bridge assets to",
          "token": "ERC20 compatible token to redeem into the bridge"
        }
      },
      "redeemAndRemove(address,uint256,address,uint256,uint8,uint256,uint256)": {
        "params": {
          "amount": "Amount of (typically) LP token to pass to the nodes to attempt to removeLiquidity() with to redeem for the underlying assets of the LP token",
          "chainId": "which underlying chain to bridge assets onto",
          "liqDeadline": "Specificies the deadline that the nodes are allowed to try to redeem/swap the LP token*",
          "liqMinAmount": "Specifies the minimum amount of the underlying asset needed for the nodes to execute the redeem/swap",
          "liqTokenIndex": "Specifies which of the underlying LP assets the nodes should attempt to redeem for",
          "to": "address on other chain to redeem underlying assets to",
          "token": "ERC20 compatible token to deposit into the bridge"
        }
      },
      "redeemAndSwap(address,uint256,address,uint256,uint8,uint8,uint256,uint256)": {
        "params": {
          "amount": "Amount in native token decimals to transfer cross-chain pre-fees",
          "chainId": "which underlying chain to bridge assets onto",
          "deadline": "latest timestamp to accept this transaction*",
          "minDy": "the min amount the user would like to receive, or revert to only minting the SynERC20 token crosschain.",
          "to": "address on other chain to redeem underlying assets to",
          "token": "ERC20 compatible token to deposit into the bridge",
          "tokenIndexFrom": "the token the user wants to swap from",
          "tokenIndexTo": "the token the user wants to swap to"
        }
      },
      "redeemv2(bytes32,uint256,address,uint256)": {
        "params": {
          "amount": "Amount in native token decimals to transfer cross-chain pre-fees*",
          "chainId": "which chain to bridge assets onto",
          "to": "address on other chain to bridge assets to",
          "token": "ERC20 compatible token to redeem into the bridge"
        }
      },
      "zapAndDeposit(address,uint256,address,uint256[],uint256,uint256)": {
        "params": {
          "chainId": "which chain to bridge assets onto",
          "deadline": "latest timestamp to accept this transaction*",
          "liquidityAmounts": "the amounts of each token to add, in their native precision",
          "minToMint": "the minimum LP tokens adding this amount of liquidity should mint, otherwise revert. Handy for front-running mitigation",
          "to": "address on other chain to bridge assets to",
          "token": "ERC20 compatible token to deposit into the bridge"
        }
      },
      "zapAndDepositAndSwap(address,uint256,address,uint256[],uint256,uint256,uint8,uint8,uint256,uint256)": {
        "params": {
          "chainId": "which chain to bridge assets onto",
          "liqDeadline": "latest timestamp to accept this transaction",
          "liquidityAmounts": "the amounts of each token to add, in their native precision",
          "minDy": "the min amount the user would like to receive, or revert to only minting the SynERC20 token crosschain.",
          "minToMint": "the minimum LP tokens adding this amount of liquidity should mint, otherwise revert. Handy for front-running mitigation",
          "swapDeadline": "latest timestamp to accept this transaction*",
          "to": "address on other chain to bridge assets to",
          "token": "ERC20 compatible token to deposit into the bridge",
          "tokenIndexFrom": "the token the user wants to swap from",
          "tokenIndexTo": "the token the user wants to swap to"
        }
      }
    },
    "title": "L1BridgeZap",
    "version": 1
  },
  "userdoc": {
    "kind": "user",
    "methods": {
      "calculateRemoveLiquidityOneToken(uint256,uint8)": {
        "notice": "Calculate the amount of underlying token available to withdraw when withdrawing via only single token"
      },
      "calculateTokenAmount(uint256[],bool)": {
        "notice": "A simple method to calculate prices from deposits or withdrawals, excluding fees but including slippage. This is helpful as an input into the various \"min\" parameters on calls to fight front-running"
      },
      "constructor": "Constructs the contract, approves each token inside of baseSwap to be used by baseSwap (needed for addLiquidity())",
      "deposit(address,uint256,address,uint256)": {
        "notice": "Wraps SynapseBridge deposit() function"
      },
      "depositAndSwap(address,uint256,address,uint256,uint8,uint8,uint256,uint256)": {
        "notice": "Wraps SynapseBridge depositAndSwap() function"
      },
      "depositETH(address,uint256,uint256)": {
        "notice": "Wraps SynapseBridge deposit() function to make it compatible w/ ETH -> WETH conversions"
      },
      "depositETHAndSwap(address,uint256,uint256,uint8,uint8,uint256,uint256)": {
        "notice": "Wraps SynapseBridge depositAndSwap() function to make it compatible w/ ETH -> WETH conversions"
      },
      "redeem(address,uint256,address,uint256)": {
        "notice": "Wraps SynapseBridge redeem() function"
      },
      "redeemAndRemove(address,uint256,address,uint256,uint8,uint256,uint256)": {
        "notice": "Wraps redeemAndRemove on SynapseBridge Relays to nodes that (typically) a wrapped synAsset ERC20 token has been burned and the underlying needs to be redeeemed on the native chain. This function indicates to the nodes that they should attempt to redeem the LP token for the underlying assets (E.g \"swap\" out of the LP token)"
      },
      "redeemAndSwap(address,uint256,address,uint256,uint8,uint8,uint256,uint256)": {
        "notice": "Wraps redeemAndSwap on SynapseBridge.sol Relays to nodes that (typically) a wrapped synAsset ERC20 token has been burned and the underlying needs to be redeeemed on the native chain. This function indicates to the nodes that they should attempt to redeem the LP token for the underlying assets (E.g \"swap\" out of the LP token)"
      },
      "redeemv2(bytes32,uint256,address,uint256)": {
        "notice": "Wraps SynapseBridge redeemv2() function"
      },
      "zapAndDeposit(address,uint256,address,uint256[],uint256,uint256)": {
        "notice": "Combines adding liquidity to the given Swap, and calls deposit() on the bridge using that LP token"
      },
      "zapAndDepositAndSwap(address,uint256,address,uint256[],uint256,uint256,uint8,uint8,uint256,uint256)": {
        "notice": "Combines adding liquidity to the given Swap, and calls depositAndSwap() on the bridge using that LP token"
      }
    },
    "notice": "This contract is responsible for handling user Zaps into the SynapseBridge contract, through the Synapse Swap contracts. It does so It does so by combining the action of addLiquidity() to the base swap pool, and then calling either deposit() or depositAndSwap() on the bridge. This is done in hopes of automating portions of the bridge user experience to users, while keeping the SynapseBridge contract logic small.",
    "version": 1
  },
  "storageLayout": {
    "storage": [
      {
        "astId": 23194,
        "contract": "contracts/bridge/wrappers/L1BridgeZap.sol:L1BridgeZap",
        "label": "baseSwap",
        "offset": 0,
        "slot": "0",
        "type": "t_contract(ISwap)20874"
      },
      {
        "astId": 23196,
        "contract": "contracts/bridge/wrappers/L1BridgeZap.sol:L1BridgeZap",
        "label": "synapseBridge",
        "offset": 0,
        "slot": "1",
        "type": "t_contract(ISynapseBridge)20970"
      },
      {
        "astId": 23199,
        "contract": "contracts/bridge/wrappers/L1BridgeZap.sol:L1BridgeZap",
        "label": "baseTokens",
        "offset": 0,
        "slot": "2",
        "type": "t_array(t_contract(IERC20)4954)dyn_storage"
      }
    ],
    "types": {
      "t_array(t_contract(IERC20)4954)dyn_storage": {
        "base": "t_contract(IERC20)4954",
        "encoding": "dynamic_array",
        "label": "contract IERC20[]",
        "numberOfBytes": "32"
      },
      "t_contract(IERC20)4954": {
        "encoding": "inplace",
        "label": "contract IERC20",
        "numberOfBytes": "20"
      },
      "t_contract(ISwap)20874": {
        "encoding": "inplace",
        "label": "contract ISwap",
        "numberOfBytes": "20"
      },
      "t_contract(ISynapseBridge)20970": {
        "encoding": "inplace",
        "label": "contract ISynapseBridge",
        "numberOfBytes": "20"
      }
    }
  }
}