{
  "address": "0x9FE398b906C431802Bc3b9ECA7829F66e74252A2",
  "abi": [
    {
      "anonymous": false,
      "inputs": [
        {
          "indexed": true,
          "internalType": "address",
          "name": "previousOwner",
          "type": "address"
        },
        {
          "indexed": true,
          "internalType": "address",
          "name": "newOwner",
          "type": "address"
        }
      ],
      "name": "OwnershipTransferred",
      "type": "event"
    },
    {
      "anonymous": false,
      "inputs": [
        {
          "indexed": true,
          "internalType": "uint256",
          "name": "petId",
          "type": "uint256"
        },
        {
          "indexed": false,
          "internalType": "uint256",
          "name": "arrivalChainId",
          "type": "uint256"
        }
      ],
      "name": "PetArrived",
      "type": "event"
    },
    {
      "anonymous": false,
      "inputs": [
        {
          "indexed": true,
          "internalType": "uint256",
          "name": "petId",
          "type": "uint256"
        },
        {
          "indexed": false,
          "internalType": "uint256",
          "name": "arrivalChainId",
          "type": "uint256"
        }
      ],
      "name": "PetSent",
      "type": "event"
    },
    {
      "anonymous": false,
      "inputs": [
        {
          "indexed": false,
          "internalType": "uint256",
          "name": "_srcChainId",
          "type": "uint256"
        },
        {
          "indexed": false,
          "internalType": "bytes32",
          "name": "_srcAddress",
          "type": "bytes32"
        }
      ],
      "name": "SetTrustedRemote",
      "type": "event"
    },
    {
      "inputs": [
        {
          "internalType": "bytes32",
          "name": "_srcAddress",
          "type": "bytes32"
        },
        {
          "internalType": "uint256",
          "name": "_srcChainId",
          "type": "uint256"
        },
        {
          "internalType": "bytes",
          "name": "_message",
          "type": "bytes"
        },
        {
          "internalType": "address",
          "name": "_executor",
          "type": "address"
        }
      ],
      "name": "executeMessage",
      "outputs": [],
      "stateMutability": "nonpayable",
      "type": "function"
    },
    {
      "inputs": [
        {
          "internalType": "uint256",
          "name": "_chainId",
          "type": "uint256"
        }
      ],
      "name": "getTrustedRemote",
      "outputs": [
        {
          "internalType": "bytes32",
          "name": "trustedRemote",
          "type": "bytes32"
        }
      ],
      "stateMutability": "view",
      "type": "function"
    },
    {
      "inputs": [
        {
          "internalType": "address",
          "name": "_messageBus",
          "type": "address"
        },
        {
          "internalType": "address",
          "name": "_pets",
          "type": "address"
        }
      ],
      "name": "initialize",
      "outputs": [],
      "stateMutability": "nonpayable",
      "type": "function"
    },
    {
      "inputs": [],
      "name": "messageBus",
      "outputs": [
        {
          "internalType": "address",
          "name": "",
          "type": "address"
        }
      ],
      "stateMutability": "view",
      "type": "function"
    },
    {
      "inputs": [],
      "name": "msgGasLimit",
      "outputs": [
        {
          "internalType": "uint256",
          "name": "",
          "type": "uint256"
        }
      ],
      "stateMutability": "view",
      "type": "function"
    },
    {
      "inputs": [],
      "name": "owner",
      "outputs": [
        {
          "internalType": "address",
          "name": "",
          "type": "address"
        }
      ],
      "stateMutability": "view",
      "type": "function"
    },
    {
      "inputs": [],
      "name": "pets",
      "outputs": [
        {
          "internalType": "address",
          "name": "",
          "type": "address"
        }
      ],
      "stateMutability": "view",
      "type": "function"
    },
    {
      "inputs": [],
      "name": "renounceOwnership",
      "outputs": [],
      "stateMutability": "nonpayable",
      "type": "function"
    },
    {
      "inputs": [
        {
          "internalType": "uint256",
          "name": "_petId",
          "type": "uint256"
        },
        {
          "internalType": "uint256",
          "name": "_dstChainId",
          "type": "uint256"
        }
      ],
      "name": "sendPet",
      "outputs": [],
      "stateMutability": "payable",
      "type": "function"
    },
    {
      "inputs": [
        {
          "internalType": "address",
          "name": "_messageBus",
          "type": "address"
        }
      ],
      "name": "setMessageBus",
      "outputs": [],
      "stateMutability": "nonpayable",
      "type": "function"
    },
    {
      "inputs": [
        {
          "internalType": "uint256",
          "name": "_msgGasLimit",
          "type": "uint256"
        }
      ],
      "name": "setMsgGasLimit",
      "outputs": [],
      "stateMutability": "nonpayable",
      "type": "function"
    },
    {
      "inputs": [
        {
          "internalType": "uint256",
          "name": "_srcChainId",
          "type": "uint256"
        },
        {
          "internalType": "bytes32",
          "name": "_srcAddress",
          "type": "bytes32"
        }
      ],
      "name": "setTrustedRemote",
      "outputs": [],
      "stateMutability": "nonpayable",
      "type": "function"
    },
    {
      "inputs": [
        {
          "internalType": "address",
          "name": "newOwner",
          "type": "address"
        }
      ],
      "name": "transferOwnership",
      "outputs": [],
      "stateMutability": "nonpayable",
      "type": "function"
    }
  ],
  "transactionHash": "0x57b8012f6519c4a28483baad661be65ba0b73284f080ea5aaac4e0ccdb82a2b4",
  "args": [],
  "solcInputHash": "190a35282469d8744663e932f90aee30",
  "bytecode": "0x608060405234801561001057600080fd5b50611b55806100206000396000f3fe6080604052600436106100d25760003560e01c8063a1a227fa1161007f578063bd3583ae11610059578063bd3583ae14610247578063c0e07f2814610267578063f2fde38b1461027d578063f9ecc6f51461029d57600080fd5b8063a1a227fa146101e7578063a606087114610214578063bb5e613b1461023457600080fd5b806384a12b0f116100b057806384a12b0f1461012e5780638da5cb5b1461016e578063a1227b68146101ba57600080fd5b8063485cc955146100d7578063547cad12146100f9578063715018a614610119575b600080fd5b3480156100e357600080fd5b506100f76100f23660046113b3565b6102bd565b005b34801561010557600080fd5b506100f76101143660046113ec565b61043d565b34801561012557600080fd5b506100f7610505565b34801561013a57600080fd5b5061015b610149366004611409565b60009081526066602052604090205490565b6040519081526020015b60405180910390f35b34801561017a57600080fd5b5060335473ffffffffffffffffffffffffffffffffffffffff165b60405173ffffffffffffffffffffffffffffffffffffffff9091168152602001610165565b3480156101c657600080fd5b506097546101959073ffffffffffffffffffffffffffffffffffffffff1681565b3480156101f357600080fd5b506065546101959073ffffffffffffffffffffffffffffffffffffffff1681565b34801561022057600080fd5b506100f761022f366004611422565b610592565b6100f76102423660046114bd565b6106d4565b34801561025357600080fd5b506100f76102623660046114bd565b610a5b565b34801561027357600080fd5b5061015b60985481565b34801561028957600080fd5b506100f76102983660046113ec565b610b2b565b3480156102a957600080fd5b506100f76102b8366004611409565b610c5b565b600054610100900460ff166102d85760005460ff16156102dc565b303b155b61036d576040517f08c379a000000000000000000000000000000000000000000000000000000000815260206004820152602e60248201527f496e697469616c697a61626c653a20636f6e747261637420697320616c72656160448201527f647920696e697469616c697a656400000000000000000000000000000000000060648201526084015b60405180910390fd5b600054610100900460ff161580156103ac57600080547fffffffffffffffffffffffffffffffffffffffffffffffffffffffffffff0000166101011790555b6103b4610ce1565b6065805473ffffffffffffffffffffffffffffffffffffffff8086167fffffffffffffffffffffffff0000000000000000000000000000000000000000928316179092556097805492851692909116919091179055801561043857600080547fffffffffffffffffffffffffffffffffffffffffffffffffffffffffffff00ff1690555b505050565b60335473ffffffffffffffffffffffffffffffffffffffff1633146104be576040517f08c379a000000000000000000000000000000000000000000000000000000000815260206004820181905260248201527f4f776e61626c653a2063616c6c6572206973206e6f7420746865206f776e65726044820152606401610364565b606580547fffffffffffffffffffffffff00000000000000000000000000000000000000001673ffffffffffffffffffffffffffffffffffffffff92909216919091179055565b60335473ffffffffffffffffffffffffffffffffffffffff163314610586576040517f08c379a000000000000000000000000000000000000000000000000000000000815260206004820181905260248201527f4f776e61626c653a2063616c6c6572206973206e6f7420746865206f776e65726044820152606401610364565b6105906000610d7d565b565b60655473ffffffffffffffffffffffffffffffffffffffff163314610613576040517f08c379a000000000000000000000000000000000000000000000000000000000815260206004820152601960248201527f63616c6c6572206973206e6f74206d65737361676520627573000000000000006044820152606401610364565b600084815260666020526040902054851461068a576040517f08c379a000000000000000000000000000000000000000000000000000000000815260206004820152601a60248201527f496e76616c696420736f757263652073656e64696e67206170700000000000006044820152606401610364565b6106cd858585858080601f016020809104026020016040519081016040528093929190818152602001838380828437600092019190915250879250610df4915050565b5050505050565b6097546040517f59d55194000000000000000000000000000000000000000000000000000000008152600481018490528391839160009173ffffffffffffffffffffffffffffffffffffffff16906359d5519490602401600060405180830381865afa158015610748573d6000803e3d6000fd5b505050506040513d6000823e601f3d9081017fffffffffffffffffffffffffffffffffffffffffffffffffffffffffffffffe016820160405261078e91908101906117da565b90508061026001516000146107ff576040517f08c379a000000000000000000000000000000000000000000000000000000000815260206004820152600f60248201527f70657420697320657175697070656400000000000000000000000000000000006044820152606401610364565b6000828152606660205260408120549061081a8533856110bd565b90506000610868609854604080517e01000000000000000000000000000000000000000000000000000000000000602082015260228082019390935281518082039093018352604201905290565b6097546040517f23b872dd0000000000000000000000000000000000000000000000000000000081523360048201523060248201526044810189905291925073ffffffffffffffffffffffffffffffffffffffff16906323b872dd90606401600060405180830381600087803b1580156108e157600080fd5b505af11580156108f5573d6000803e3d6000fd5b50506097546040517f6352211e000000000000000000000000000000000000000000000000000000008152600481018a905230935073ffffffffffffffffffffffffffffffffffffffff9091169150636352211e90602401602060405180830381865afa15801561096a573d6000803e3d6000fd5b505050506040513d601f19601f8201168201806040525081019061098e9190611817565b73ffffffffffffffffffffffffffffffffffffffff1614610a0b576040517f08c379a000000000000000000000000000000000000000000000000000000000815260206004820152601260248201527f4661696c656420746f206c6f636b2050657400000000000000000000000000006044820152606401610364565b610a178386848461111e565b857f0158ec556cf37866a866d820878380a6a27533e8e17b9d692f800dd8de5ae84f86604051610a4991815260200190565b60405180910390a25050505050505050565b60335473ffffffffffffffffffffffffffffffffffffffff163314610adc576040517f08c379a000000000000000000000000000000000000000000000000000000000815260206004820181905260248201527f4f776e61626c653a2063616c6c6572206973206e6f7420746865206f776e65726044820152606401610364565b60008281526066602090815260409182902083905581518481529081018390527f642e74356c0610a9f944fb1a2d88d2fb82c6b74921566eee8bc0f9bb30f74f03910160405180910390a15050565b60335473ffffffffffffffffffffffffffffffffffffffff163314610bac576040517f08c379a000000000000000000000000000000000000000000000000000000000815260206004820181905260248201527f4f776e61626c653a2063616c6c6572206973206e6f7420746865206f776e65726044820152606401610364565b73ffffffffffffffffffffffffffffffffffffffff8116610c4f576040517f08c379a000000000000000000000000000000000000000000000000000000000815260206004820152602660248201527f4f776e61626c653a206e6577206f776e657220697320746865207a65726f206160448201527f64647265737300000000000000000000000000000000000000000000000000006064820152608401610364565b610c5881610d7d565b50565b60335473ffffffffffffffffffffffffffffffffffffffff163314610cdc576040517f08c379a000000000000000000000000000000000000000000000000000000000815260206004820181905260248201527f4f776e61626c653a2063616c6c6572206973206e6f7420746865206f776e65726044820152606401610364565b609855565b600054610100900460ff16610d78576040517f08c379a000000000000000000000000000000000000000000000000000000000815260206004820152602b60248201527f496e697469616c697a61626c653a20636f6e7472616374206973206e6f74206960448201527f6e697469616c697a696e670000000000000000000000000000000000000000006064820152608401610364565b610590335b6033805473ffffffffffffffffffffffffffffffffffffffff8381167fffffffffffffffffffffffff0000000000000000000000000000000000000000831681179093556040519116919082907f8be0079c531659141344cd1fd0a4f28419497f9722a3daafe3b4186f6b6457e090600090a35050565b6000610dff836112ba565b8051602082015160408084015160975491517f6352211e00000000000000000000000000000000000000000000000000000000815260048101829052949550929391929173ffffffffffffffffffffffffffffffffffffffff90911690636352211e90602401602060405180830381865afa925050508015610ebc575060408051601f3d9081017fffffffffffffffffffffffffffffffffffffffffffffffffffffffffffffffe0168201909252610eb991810190611817565b60015b610f51576097546040517f1b8276710000000000000000000000000000000000000000000000000000000081526004810183905273ffffffffffffffffffffffffffffffffffffffff848116602483015290911690631b82767190604401600060405180830381600087803b158015610f3457600080fd5b505af1158015610f48573d6000803e3d6000fd5b50505050611003565b3073ffffffffffffffffffffffffffffffffffffffff821603611001576097546040517f42842e0e00000000000000000000000000000000000000000000000000000000815230600482015273ffffffffffffffffffffffffffffffffffffffff858116602483015260448201859052909116906342842e0e90606401600060405180830381600087803b158015610fe857600080fd5b505af1158015610ffc573d6000803e3d6000fd5b505050505b505b6097546040517ff588218600000000000000000000000000000000000000000000000000000000815273ffffffffffffffffffffffffffffffffffffffff9091169063f5882186906110599086906004016119d8565b600060405180830381600087803b15801561107357600080fd5b505af1158015611087573d6000803e3d6000fd5b50505050807f6bd58bb696941d116b542481b456cfc0a45988f5a1fca53066073374992d2f3746604051610a4991815260200190565b6060600060405180606001604052808481526020018573ffffffffffffffffffffffffffffffffffffffff1681526020018681525090508060405160200161110591906119eb565b6040516020818303038152906040529150509392505050565b60008381526066602052604090205480611194576040517f08c379a000000000000000000000000000000000000000000000000000000000815260206004820152601f60248201527f4e6f2072656d6f7465206170702073657420666f722064737420636861696e006044820152606401610364565b848114611223576040517f08c379a000000000000000000000000000000000000000000000000000000000815260206004820152602660248201527f5265636569766572206973206e6f7420696e20747275737465642072656d6f7460448201527f65206170707300000000000000000000000000000000000000000000000000006064820152608401610364565b6065546040517fac8a4c1b00000000000000000000000000000000000000000000000000000000815273ffffffffffffffffffffffffffffffffffffffff9091169063ac8a4c1b903490611281908990899089908990600401611a3d565b6000604051808303818588803b15801561129a57600080fd5b505af11580156112ae573d6000803e3d6000fd5b50505050505050505050565b604080516102e081018252600060608083018281526080840183905260a084019190915260c0830182905260e08301829052610100830182905261012083018290526101408301829052610160830182905261018083018290526101a083018290526101c083018290526101e08301829052610200830182905261022083018290526102408301829052610260830182905261028083018290526102a083018290526102c083018290528252602082018190529181019190915260008280602001905181019061138a9190611a79565b9392505050565b73ffffffffffffffffffffffffffffffffffffffff81168114610c5857600080fd5b600080604083850312156113c657600080fd5b82356113d181611391565b915060208301356113e181611391565b809150509250929050565b6000602082840312156113fe57600080fd5b813561138a81611391565b60006020828403121561141b57600080fd5b5035919050565b60008060008060006080868803121561143a57600080fd5b8535945060208601359350604086013567ffffffffffffffff8082111561146057600080fd5b818801915088601f83011261147457600080fd5b81358181111561148357600080fd5b89602082850101111561149557600080fd5b60208301955080945050505060608601356114af81611391565b809150509295509295909350565b600080604083850312156114d057600080fd5b50508035926020909101359150565b7f4e487b7100000000000000000000000000000000000000000000000000000000600052604160045260246000fd5b604051610280810167ffffffffffffffff81118282101715611532576115326114df565b60405290565b805160ff8116811461154957600080fd5b919050565b60005b83811015611569578181015183820152602001611551565b83811115611578576000848401525b50505050565b600082601f83011261158f57600080fd5b815167ffffffffffffffff808211156115aa576115aa6114df565b604051601f83017fffffffffffffffffffffffffffffffffffffffffffffffffffffffffffffffe0908116603f011681019082821181831017156115f0576115f06114df565b8160405283815286602085880101111561160957600080fd5b61161a84602083016020890161154e565b9695505050505050565b805161ffff8116811461154957600080fd5b805167ffffffffffffffff8116811461154957600080fd5b6000610280828403121561166157600080fd5b61166961150e565b90508151815261167b60208301611538565b6020820152604082015167ffffffffffffffff81111561169a57600080fd5b6116a68482850161157e565b6040830152506116b860608301611538565b60608201526116c960808301611538565b60808201526116da60a08301611538565b60a08201526116eb60c08301611538565b60c08201526116fc60e08301611538565b60e082015261010061170f818401611538565b90820152610120611721838201611538565b90820152610140611733838201611538565b90820152610160611745838201611538565b90820152610180611757838201611538565b908201526101a0611769838201611538565b908201526101c061177b838201611624565b908201526101e061178d838201611538565b9082015261020061179f838201611538565b908201526102206117b1838201611636565b908201526102406117c3838201611636565b818301525061026080830151818301525092915050565b6000602082840312156117ec57600080fd5b815167ffffffffffffffff81111561180357600080fd5b61180f8482850161164e565b949350505050565b60006020828403121561182957600080fd5b815161138a81611391565b6000815180845261184c81602086016020860161154e565b601f017fffffffffffffffffffffffffffffffffffffffffffffffffffffffffffffffe0169290920160200192915050565b600061028082518452602083015161189b602086018260ff169052565b5060408301518160408601526118b382860182611834565b91505060608301516118ca606086018260ff169052565b5060808301516118df608086018260ff169052565b5060a08301516118f460a086018260ff169052565b5060c083015161190960c086018260ff169052565b5060e083015161191e60e086018260ff169052565b506101008381015160ff90811691860191909152610120808501518216908601526101408085015182169086015261016080850151821690860152610180808501518216908601526101a0808501518216908601526101c08085015161ffff16908601526101e08085015182169086015261020080850151909116908501526102208084015167ffffffffffffffff9081169186019190915261024080850151909116908501526102609283015192909301919091525090565b60208152600061138a602083018461187e565b602081526000825160606020840152611a07608084018261187e565b905073ffffffffffffffffffffffffffffffffffffffff6020850151166040840152604084015160608401528091505092915050565b848152836020820152608060408201526000611a5c6080830185611834565b8281036060840152611a6e8185611834565b979650505050505050565b600060208284031215611a8b57600080fd5b815167ffffffffffffffff80821115611aa357600080fd5b9083019060608286031215611ab757600080fd5b604051606081018181108382111715611ad257611ad26114df565b604052825182811115611ae457600080fd5b611af08782860161164e565b82525060208301519150611b0382611391565b816020820152604083015160408201528093505050509291505056fea2646970667358221220768acb3670418fad6a6aa4d5d7b5abbaa3482e3df5666e148a8793e6639be2ca64736f6c634300080d0033",
  "devdoc": {
    "kind": "dev",
    "methods": {
      "executeMessage(bytes32,uint256,bytes,address)": {
        "details": "Must be called by MessageBug & sent from src chain by a trusted srcApp",
        "params": {
          "_executor": "Address who called the MessageBus execution function",
          "_message": "Arbitrary message bytes originated from and encoded by the source app contract",
          "_srcAddress": "The bytes32 address of the source app contract",
          "_srcChainId": "The source chain ID where the transfer is originated from"
        }
      },
      "owner()": {
        "details": "Returns the address of the current owner."
      },
      "renounceOwnership()": {
        "details": "Leaves the contract without owner. It will not be possible to call `onlyOwner` functions anymore. Can only be called by the current owner. NOTE: Renouncing ownership will leave the contract without an owner, thereby removing any functionality that is only available to the owner."
      },
      "sendPet(uint256,uint256)": {
        "details": "This function enforces the caller to receive the Pet being bridged to the same address on another chain.Do NOT call this from other contracts, unless the contract is deployed on another chain to the same address,and can receive ERC721s.",
        "params": {
          "_dstChainId": "The destination chain ID - typically, standard EVM chain ID, but differs on nonEVM chains",
          "_petId": "specifics which pet msg.sender already holds and will transfer to the bridge contract"
        }
      },
      "transferOwnership(address)": {
        "details": "Transfers ownership of the contract to a new account (`newOwner`). Can only be called by the current owner."
      }
    },
    "stateVariables": {
      "__gap": {
        "details": "This empty reserved space is put in place to allow future versions to add new variables without shifting down storage in the inheritance chain. See https://docs.openzeppelin.com/contracts/4.x/upgradeable#storage_gaps"
      }
    },
    "title": "Core app for handling cross chain messaging passing to bridge Pet NFTs",
    "version": 1
  },
  "userdoc": {
    "kind": "user",
    "methods": {
      "executeMessage(bytes32,uint256,bytes,address)": {
        "notice": "Executes a message called by MessageBus (MessageBusReceiver)"
      },
      "sendPet(uint256,uint256)": {
        "notice": "User must have an existing pet minted to bridge it."
      }
    },
    "version": 1
  },
  "storageLayout": {
    "storage": [
      {
        "astId": 3029,
        "contract": "contracts/messaging/dfk/bridge/PetBridgeUpgradeable.sol:PetBridgeUpgradeable",
        "label": "_initialized",
        "offset": 0,
        "slot": "0",
        "type": "t_bool"
      },
      {
        "astId": 3032,
        "contract": "contracts/messaging/dfk/bridge/PetBridgeUpgradeable.sol:PetBridgeUpgradeable",
        "label": "_initializing",
        "offset": 1,
        "slot": "0",
        "type": "t_bool"
      },
      {
        "astId": 5010,
        "contract": "contracts/messaging/dfk/bridge/PetBridgeUpgradeable.sol:PetBridgeUpgradeable",
        "label": "__gap",
        "offset": 0,
        "slot": "1",
        "type": "t_array(t_uint256)50_storage"
      },
      {
        "astId": 2909,
        "contract": "contracts/messaging/dfk/bridge/PetBridgeUpgradeable.sol:PetBridgeUpgradeable",
        "label": "_owner",
        "offset": 0,
        "slot": "51",
        "type": "t_address"
      },
      {
        "astId": 3021,
        "contract": "contracts/messaging/dfk/bridge/PetBridgeUpgradeable.sol:PetBridgeUpgradeable",
        "label": "__gap",
        "offset": 0,
        "slot": "52",
        "type": "t_array(t_uint256)49_storage"
      },
      {
        "astId": 13699,
        "contract": "contracts/messaging/dfk/bridge/PetBridgeUpgradeable.sol:PetBridgeUpgradeable",
        "label": "messageBus",
        "offset": 0,
        "slot": "101",
        "type": "t_address"
      },
      {
        "astId": 13703,
        "contract": "contracts/messaging/dfk/bridge/PetBridgeUpgradeable.sol:PetBridgeUpgradeable",
        "label": "trustedRemoteLookup",
        "offset": 0,
        "slot": "102",
        "type": "t_mapping(t_uint256,t_bytes32)"
      },
      {
        "astId": 13871,
        "contract": "contracts/messaging/dfk/bridge/PetBridgeUpgradeable.sol:PetBridgeUpgradeable",
        "label": "__gap",
        "offset": 0,
        "slot": "103",
        "type": "t_array(t_uint256)48_storage"
      },
      {
        "astId": 11870,
        "contract": "contracts/messaging/dfk/bridge/PetBridgeUpgradeable.sol:PetBridgeUpgradeable",
        "label": "pets",
        "offset": 0,
        "slot": "151",
        "type": "t_address"
      },
      {
        "astId": 11872,
        "contract": "contracts/messaging/dfk/bridge/PetBridgeUpgradeable.sol:PetBridgeUpgradeable",
        "label": "msgGasLimit",
        "offset": 0,
        "slot": "152",
        "type": "t_uint256"
      },
      {
        "astId": 12229,
        "contract": "contracts/messaging/dfk/bridge/PetBridgeUpgradeable.sol:PetBridgeUpgradeable",
        "label": "__gap",
        "offset": 0,
        "slot": "153",
        "type": "t_array(t_uint256)48_storage"
      }
    ],
    "types": {
      "t_address": {
        "encoding": "inplace",
        "label": "address",
        "numberOfBytes": "20"
      },
      "t_array(t_uint256)48_storage": {
        "base": "t_uint256",
        "encoding": "inplace",
        "label": "uint256[48]",
        "numberOfBytes": "1536"
      },
      "t_array(t_uint256)49_storage": {
        "base": "t_uint256",
        "encoding": "inplace",
        "label": "uint256[49]",
        "numberOfBytes": "1568"
      },
      "t_array(t_uint256)50_storage": {
        "base": "t_uint256",
        "encoding": "inplace",
        "label": "uint256[50]",
        "numberOfBytes": "1600"
      },
      "t_bool": {
        "encoding": "inplace",
        "label": "bool",
        "numberOfBytes": "1"
      },
      "t_bytes32": {
        "encoding": "inplace",
        "label": "bytes32",
        "numberOfBytes": "32"
      },
      "t_mapping(t_uint256,t_bytes32)": {
        "encoding": "mapping",
        "key": "t_uint256",
        "label": "mapping(uint256 => bytes32)",
        "numberOfBytes": "32",
        "value": "t_bytes32"
      },
      "t_uint256": {
        "encoding": "inplace",
        "label": "uint256",
        "numberOfBytes": "32"
      }
    }
  }
}