{
  "address": "0x6a00Dc976a7291a1E9F5380FE6F96fE006dCdD3c",
  "abi": [
    {
      "inputs": [
        {
          "internalType": "address",
          "name": "_messageBus",
          "type": "address"
        },
        {
          "internalType": "address",
          "name": "_gaiaTear",
          "type": "address"
        }
      ],
      "stateMutability": "nonpayable",
      "type": "constructor"
    },
    {
      "anonymous": false,
      "inputs": [
        {
          "indexed": true,
          "internalType": "address",
          "name": "dstUser",
          "type": "address"
        },
        {
          "indexed": false,
          "internalType": "uint256",
          "name": "arrivalChainId",
          "type": "uint256"
        }
      ],
      "name": "GaiaArrived",
      "type": "event"
    },
    {
      "anonymous": false,
      "inputs": [
        {
          "indexed": true,
          "internalType": "address",
          "name": "dstUser",
          "type": "address"
        },
        {
          "indexed": false,
          "internalType": "uint256",
          "name": "arrivalChainId",
          "type": "uint256"
        }
      ],
      "name": "GaiaSent",
      "type": "event"
    },
    {
      "anonymous": false,
      "inputs": [
        {
          "indexed": true,
          "internalType": "address",
          "name": "previousOwner",
          "type": "address"
        },
        {
          "indexed": true,
          "internalType": "address",
          "name": "newOwner",
          "type": "address"
        }
      ],
      "name": "OwnershipTransferred",
      "type": "event"
    },
    {
      "anonymous": false,
      "inputs": [
        {
          "indexed": false,
          "internalType": "uint256",
          "name": "_srcChainId",
          "type": "uint256"
        },
        {
          "indexed": false,
          "internalType": "bytes32",
          "name": "_srcAddress",
          "type": "bytes32"
        }
      ],
      "name": "SetTrustedRemote",
      "type": "event"
    },
    {
      "inputs": [
        {
          "internalType": "bytes32",
          "name": "_srcAddress",
          "type": "bytes32"
        },
        {
          "internalType": "uint256",
          "name": "_srcChainId",
          "type": "uint256"
        },
        {
          "internalType": "bytes",
          "name": "_message",
          "type": "bytes"
        },
        {
          "internalType": "address",
          "name": "_executor",
          "type": "address"
        }
      ],
      "name": "executeMessage",
      "outputs": [],
      "stateMutability": "nonpayable",
      "type": "function"
    },
    {
      "inputs": [],
      "name": "gaiaTears",
      "outputs": [
        {
          "internalType": "address",
          "name": "",
          "type": "address"
        }
      ],
      "stateMutability": "view",
      "type": "function"
    },
    {
      "inputs": [
        {
          "internalType": "uint256",
          "name": "_chainId",
          "type": "uint256"
        }
      ],
      "name": "getTrustedRemote",
      "outputs": [
        {
          "internalType": "bytes32",
          "name": "trustedRemote",
          "type": "bytes32"
        }
      ],
      "stateMutability": "view",
      "type": "function"
    },
    {
      "inputs": [],
      "name": "messageBus",
      "outputs": [
        {
          "internalType": "address",
          "name": "",
          "type": "address"
        }
      ],
      "stateMutability": "view",
      "type": "function"
    },
    {
      "inputs": [],
      "name": "msgGasLimit",
      "outputs": [
        {
          "internalType": "uint256",
          "name": "",
          "type": "uint256"
        }
      ],
      "stateMutability": "view",
      "type": "function"
    },
    {
      "inputs": [],
      "name": "owner",
      "outputs": [
        {
          "internalType": "address",
          "name": "",
          "type": "address"
        }
      ],
      "stateMutability": "view",
      "type": "function"
    },
    {
      "inputs": [],
      "name": "renounceOwnership",
      "outputs": [],
      "stateMutability": "nonpayable",
      "type": "function"
    },
    {
      "inputs": [
        {
          "internalType": "uint256",
          "name": "_tearsAmount",
          "type": "uint256"
        },
        {
          "internalType": "uint256",
          "name": "_dstChainId",
          "type": "uint256"
        }
      ],
      "name": "sendTear",
      "outputs": [],
      "stateMutability": "payable",
      "type": "function"
    },
    {
      "inputs": [
        {
          "internalType": "address",
          "name": "_messageBus",
          "type": "address"
        }
      ],
      "name": "setMessageBus",
      "outputs": [],
      "stateMutability": "nonpayable",
      "type": "function"
    },
    {
      "inputs": [
        {
          "internalType": "uint256",
          "name": "_msgGasLimit",
          "type": "uint256"
        }
      ],
      "name": "setMsgGasLimit",
      "outputs": [],
      "stateMutability": "nonpayable",
      "type": "function"
    },
    {
      "inputs": [
        {
          "internalType": "uint256",
          "name": "_srcChainId",
          "type": "uint256"
        },
        {
          "internalType": "bytes32",
          "name": "_srcAddress",
          "type": "bytes32"
        }
      ],
      "name": "setTrustedRemote",
      "outputs": [],
      "stateMutability": "nonpayable",
      "type": "function"
    },
    {
      "inputs": [
        {
          "internalType": "address",
          "name": "newOwner",
          "type": "address"
        }
      ],
      "name": "transferOwnership",
      "outputs": [],
      "stateMutability": "nonpayable",
      "type": "function"
    }
  ],
  "transactionHash": "0x03d383de1f258a0351dc7e103251cb5af4ee8a8b090463a1be3f399059e5cb6d",
  "args": [
    "0x7bc5fD6b80067d6052A4550c69f152877bF7C748",
    "0x58E63A9bbb2047cd9Ba7E6bB4490C238d271c278"
  ],
  "solcInputHash": "a3b42a6bd52c323c3781e633e0d442ab",
  "bytecode": "0x60a060405234801561001057600080fd5b5060405161101838038061101883398101604081905261002f916100c9565b6100383361005d565b600180546001600160a01b0319166001600160a01b03938416179055166080526100fc565b600080546001600160a01b038381166001600160a01b0319831681178455604051919092169283917f8be0079c531659141344cd1fd0a4f28419497f9722a3daafe3b4186f6b6457e09190a35050565b80516001600160a01b03811681146100c457600080fd5b919050565b600080604083850312156100dc57600080fd5b6100e5836100ad565b91506100f3602084016100ad565b90509250929050565b608051610ef3610125600039600081816102010152818161042c0152610bab0152610ef36000f3fe6080604052600436106100c75760003560e01c8063a606087111610074578063c0e07f281161004e578063c0e07f2814610243578063f2fde38b14610259578063f9ecc6f51461027957600080fd5b8063a6060871146101cf578063acac4bdd146101ef578063bd3583ae1461022357600080fd5b806384a12b0f116100a557806384a12b0f146101165780638da5cb5b14610156578063a1a227fa146101a257600080fd5b8063547cad12146100cc578063715018a6146100ee5780638273190314610103575b600080fd5b3480156100d857600080fd5b506100ec6100e7366004610ca4565b610299565b005b3480156100fa57600080fd5b506100ec610366565b6100ec610111366004610cc1565b6103f3565b34801561012257600080fd5b50610143610131366004610ce3565b60009081526002602052604090205490565b6040519081526020015b60405180910390f35b34801561016257600080fd5b5060005473ffffffffffffffffffffffffffffffffffffffff165b60405173ffffffffffffffffffffffffffffffffffffffff909116815260200161014d565b3480156101ae57600080fd5b5060015461017d9073ffffffffffffffffffffffffffffffffffffffff1681565b3480156101db57600080fd5b506100ec6101ea366004610cfc565b61056d565b3480156101fb57600080fd5b5061017d7f000000000000000000000000000000000000000000000000000000000000000081565b34801561022f57600080fd5b506100ec61023e366004610cc1565b6106af565b34801561024f57600080fd5b5061014360035481565b34801561026557600080fd5b506100ec610274366004610ca4565b61077f565b34801561028557600080fd5b506100ec610294366004610ce3565b6108af565b60005473ffffffffffffffffffffffffffffffffffffffff16331461031f576040517f08c379a000000000000000000000000000000000000000000000000000000000815260206004820181905260248201527f4f776e61626c653a2063616c6c6572206973206e6f7420746865206f776e657260448201526064015b60405180910390fd5b600180547fffffffffffffffffffffffff00000000000000000000000000000000000000001673ffffffffffffffffffffffffffffffffffffffff92909216919091179055565b60005473ffffffffffffffffffffffffffffffffffffffff1633146103e7576040517f08c379a000000000000000000000000000000000000000000000000000000000815260206004820181905260248201527f4f776e61626c653a2063616c6c6572206973206e6f7420746865206f776e65726044820152606401610316565b6103f16000610935565b565b6040517f79cc679000000000000000000000000000000000000000000000000000000000815233600482015260248101839052829082907f000000000000000000000000000000000000000000000000000000000000000073ffffffffffffffffffffffffffffffffffffffff16906379cc679090604401600060405180830381600087803b15801561048557600080fd5b505af1158015610499573d6000803e3d6000fd5b50505060008281526002602090815260409182902054825180840184523380825290830187815284519384019190915251828401528251808303840181526060830184526003547e0100000000000000000000000000000000000000000000000000000000000060808501526082808501919091528451808503909101815260a2909301909352925061052e838584846109aa565b60405185815233907fe82273e05845454dcf88823968e5c722028bc4cb17ed03bdc06eaa32cc58ee66906020015b60405180910390a250505050505050565b60015473ffffffffffffffffffffffffffffffffffffffff1633146105ee576040517f08c379a000000000000000000000000000000000000000000000000000000000815260206004820152601960248201527f63616c6c6572206973206e6f74206d65737361676520627573000000000000006044820152606401610316565b6000848152600260205260409020548514610665576040517f08c379a000000000000000000000000000000000000000000000000000000000815260206004820152601a60248201527f496e76616c696420736f757263652073656e64696e67206170700000000000006044820152606401610316565b6106a8858585858080601f016020809104026020016040519081016040528093929190818152602001838380828437600092019190915250879250610b46915050565b5050505050565b60005473ffffffffffffffffffffffffffffffffffffffff163314610730576040517f08c379a000000000000000000000000000000000000000000000000000000000815260206004820181905260248201527f4f776e61626c653a2063616c6c6572206973206e6f7420746865206f776e65726044820152606401610316565b60008281526002602090815260409182902083905581518481529081018390527f642e74356c0610a9f944fb1a2d88d2fb82c6b74921566eee8bc0f9bb30f74f03910160405180910390a15050565b60005473ffffffffffffffffffffffffffffffffffffffff163314610800576040517f08c379a000000000000000000000000000000000000000000000000000000000815260206004820181905260248201527f4f776e61626c653a2063616c6c6572206973206e6f7420746865206f776e65726044820152606401610316565b73ffffffffffffffffffffffffffffffffffffffff81166108a3576040517f08c379a000000000000000000000000000000000000000000000000000000000815260206004820152602660248201527f4f776e61626c653a206e6577206f776e657220697320746865207a65726f206160448201527f64647265737300000000000000000000000000000000000000000000000000006064820152608401610316565b6108ac81610935565b50565b60005473ffffffffffffffffffffffffffffffffffffffff163314610930576040517f08c379a000000000000000000000000000000000000000000000000000000000815260206004820181905260248201527f4f776e61626c653a2063616c6c6572206973206e6f7420746865206f776e65726044820152606401610316565b600355565b6000805473ffffffffffffffffffffffffffffffffffffffff8381167fffffffffffffffffffffffff0000000000000000000000000000000000000000831681178455604051919092169283917f8be0079c531659141344cd1fd0a4f28419497f9722a3daafe3b4186f6b6457e09190a35050565b60008381526002602052604090205480610a20576040517f08c379a000000000000000000000000000000000000000000000000000000000815260206004820152601f60248201527f4e6f2072656d6f7465206170702073657420666f722064737420636861696e006044820152606401610316565b848114610aaf576040517f08c379a000000000000000000000000000000000000000000000000000000000815260206004820152602660248201527f5265636569766572206973206e6f7420696e20747275737465642072656d6f7460448201527f65206170707300000000000000000000000000000000000000000000000000006064820152608401610316565b6001546040517fac8a4c1b00000000000000000000000000000000000000000000000000000000815273ffffffffffffffffffffffffffffffffffffffff9091169063ac8a4c1b903490610b0d908990899089908990600401610e02565b6000604051808303818588803b158015610b2657600080fd5b505af1158015610b3a573d6000803e3d6000fd5b50505050505050505050565b6000610b5183610c51565b805160208201516040517f40c10f1900000000000000000000000000000000000000000000000000000000815273ffffffffffffffffffffffffffffffffffffffff808416600483015260248201839052939450919290917f0000000000000000000000000000000000000000000000000000000000000000909116906340c10f1990604401600060405180830381600087803b158015610bf157600080fd5b505af1158015610c05573d6000803e3d6000fd5b505050508173ffffffffffffffffffffffffffffffffffffffff167f07b815cd29685803e7213231371fa19ce2e23221109bf847d949305e6b7464a48260405161055c91815260200190565b6040805180820190915260008082526020820152600082806020019051810190610c7b9190610e3e565b9392505050565b73ffffffffffffffffffffffffffffffffffffffff811681146108ac57600080fd5b600060208284031215610cb657600080fd5b8135610c7b81610c82565b60008060408385031215610cd457600080fd5b50508035926020909101359150565b600060208284031215610cf557600080fd5b5035919050565b600080600080600060808688031215610d1457600080fd5b8535945060208601359350604086013567ffffffffffffffff80821115610d3a57600080fd5b818801915088601f830112610d4e57600080fd5b813581811115610d5d57600080fd5b896020828501011115610d6f57600080fd5b6020830195508094505050506060860135610d8981610c82565b809150509295509295909350565b6000815180845260005b81811015610dbd57602081850181015186830182015201610da1565b81811115610dcf576000602083870101525b50601f017fffffffffffffffffffffffffffffffffffffffffffffffffffffffffffffffe0169290920160200192915050565b848152836020820152608060408201526000610e216080830185610d97565b8281036060840152610e338185610d97565b979650505050505050565b600060408284031215610e5057600080fd5b6040516040810181811067ffffffffffffffff82111715610e9a577f4e487b7100000000000000000000000000000000000000000000000000000000600052604160045260246000fd5b6040528251610ea881610c82565b8152602092830151928101929092525091905056fea264697066735822122017aabdf7a153b67665d6528ec1a8a6ea1f8996b292de9590d6e75650a4008f3064736f6c634300080d0033",
  "devdoc": {
    "kind": "dev",
    "methods": {
      "executeMessage(bytes32,uint256,bytes,address)": {
        "details": "Must be called by MessageBug & sent from src chain by a trusted srcApp",
        "params": {
          "_executor": "Address who called the MessageBus execution function",
          "_message": "Arbitrary message bytes originated from and encoded by the source app contract",
          "_srcAddress": "The bytes32 address of the source app contract",
          "_srcChainId": "The source chain ID where the transfer is originated from"
        }
      },
      "owner()": {
        "details": "Returns the address of the current owner."
      },
      "renounceOwnership()": {
        "details": "Leaves the contract without owner. It will not be possible to call `onlyOwner` functions anymore. Can only be called by the current owner. NOTE: Renouncing ownership will leave the contract without an owner, thereby removing any functionality that is only available to the owner."
      },
      "transferOwnership(address)": {
        "details": "Transfers ownership of the contract to a new account (`newOwner`). Can only be called by the current owner."
      }
    },
    "version": 1
  },
  "userdoc": {
    "kind": "user",
    "methods": {
      "executeMessage(bytes32,uint256,bytes,address)": {
        "notice": "Executes a message called by MessageBus (MessageBusReceiver)"
      }
    },
    "version": 1
  },
  "storageLayout": {
    "storage": [
      {
        "astId": 539,
        "contract": "contracts/messaging/dfk/bridge/TearBridge.sol:TearBridge",
        "label": "_owner",
        "offset": 0,
        "slot": "0",
        "type": "t_address"
      },
      {
        "astId": 12454,
        "contract": "contracts/messaging/dfk/bridge/TearBridge.sol:TearBridge",
        "label": "messageBus",
        "offset": 0,
        "slot": "1",
        "type": "t_address"
      },
      {
        "astId": 12458,
        "contract": "contracts/messaging/dfk/bridge/TearBridge.sol:TearBridge",
        "label": "trustedRemoteLookup",
        "offset": 0,
        "slot": "2",
        "type": "t_mapping(t_uint256,t_bytes32)"
      },
      {
        "astId": 11306,
        "contract": "contracts/messaging/dfk/bridge/TearBridge.sol:TearBridge",
        "label": "msgGasLimit",
        "offset": 0,
        "slot": "3",
        "type": "t_uint256"
      }
    ],
    "types": {
      "t_address": {
        "encoding": "inplace",
        "label": "address",
        "numberOfBytes": "20"
      },
      "t_bytes32": {
        "encoding": "inplace",
        "label": "bytes32",
        "numberOfBytes": "32"
      },
      "t_mapping(t_uint256,t_bytes32)": {
        "encoding": "mapping",
        "key": "t_uint256",
        "label": "mapping(uint256 => bytes32)",
        "numberOfBytes": "32",
        "value": "t_bytes32"
      },
      "t_uint256": {
        "encoding": "inplace",
        "label": "uint256",
        "numberOfBytes": "32"
      }
    }
  }
}