{
  "address": "0xE910dfaa50094C6BC1bF68E3CD7B244E9eC09D57",
  "abi": [
    {
      "inputs": [
        {
          "internalType": "address payable",
          "name": "_wethAddress",
          "type": "address"
        },
        {
          "internalType": "address",
          "name": "_metaSwapOne",
          "type": "address"
        },
        {
          "internalType": "address",
          "name": "tokenOne",
          "type": "address"
        },
        {
          "internalType": "address",
          "name": "_metaSwapTwo",
          "type": "address"
        },
        {
          "internalType": "address",
          "name": "tokenTwo",
          "type": "address"
        },
        {
          "internalType": "contract ISynapseBridge",
          "name": "_synapseBridge",
          "type": "address"
        }
      ],
      "stateMutability": "nonpayable",
      "type": "constructor"
    },
    {
      "inputs": [],
      "name": "WETH_ADDRESS",
      "outputs": [
        {
          "internalType": "address payable",
          "name": "",
          "type": "address"
        }
      ],
      "stateMutability": "view",
      "type": "function"
    },
    {
      "inputs": [
        {
          "internalType": "contract IERC20",
          "name": "token",
          "type": "address"
        },
        {
          "internalType": "uint8",
          "name": "tokenIndexFrom",
          "type": "uint8"
        },
        {
          "internalType": "uint8",
          "name": "tokenIndexTo",
          "type": "uint8"
        },
        {
          "internalType": "uint256",
          "name": "dx",
          "type": "uint256"
        }
      ],
      "name": "calculateSwap",
      "outputs": [
        {
          "internalType": "uint256",
          "name": "",
          "type": "uint256"
        }
      ],
      "stateMutability": "view",
      "type": "function"
    },
    {
      "inputs": [
        {
          "internalType": "address",
          "name": "to",
          "type": "address"
        },
        {
          "internalType": "uint256",
          "name": "chainId",
          "type": "uint256"
        },
        {
          "internalType": "contract IERC20",
          "name": "token",
          "type": "address"
        },
        {
          "internalType": "uint256",
          "name": "amount",
          "type": "uint256"
        }
      ],
      "name": "deposit",
      "outputs": [],
      "stateMutability": "nonpayable",
      "type": "function"
    },
    {
      "inputs": [
        {
          "internalType": "address",
          "name": "",
          "type": "address"
        }
      ],
      "name": "metaSwapMap",
      "outputs": [
        {
          "internalType": "address",
          "name": "",
          "type": "address"
        }
      ],
      "stateMutability": "view",
      "type": "function"
    },
    {
      "inputs": [
        {
          "internalType": "address",
          "name": "",
          "type": "address"
        },
        {
          "internalType": "uint256",
          "name": "",
          "type": "uint256"
        }
      ],
      "name": "metaSwapTokensMap",
      "outputs": [
        {
          "internalType": "contract IERC20",
          "name": "",
          "type": "address"
        }
      ],
      "stateMutability": "view",
      "type": "function"
    },
    {
      "inputs": [
        {
          "internalType": "address",
          "name": "to",
          "type": "address"
        },
        {
          "internalType": "uint256",
          "name": "chainId",
          "type": "uint256"
        },
        {
          "internalType": "contract IERC20",
          "name": "token",
          "type": "address"
        },
        {
          "internalType": "uint256",
          "name": "amount",
          "type": "uint256"
        }
      ],
      "name": "redeem",
      "outputs": [],
      "stateMutability": "nonpayable",
      "type": "function"
    },
    {
      "inputs": [
        {
          "internalType": "address",
          "name": "to",
          "type": "address"
        },
        {
          "internalType": "uint256",
          "name": "chainId",
          "type": "uint256"
        },
        {
          "internalType": "contract IERC20",
          "name": "token",
          "type": "address"
        },
        {
          "internalType": "uint256",
          "name": "amount",
          "type": "uint256"
        },
        {
          "internalType": "uint8",
          "name": "liqTokenIndex",
          "type": "uint8"
        },
        {
          "internalType": "uint256",
          "name": "liqMinAmount",
          "type": "uint256"
        },
        {
          "internalType": "uint256",
          "name": "liqDeadline",
          "type": "uint256"
        }
      ],
      "name": "redeemAndRemove",
      "outputs": [],
      "stateMutability": "nonpayable",
      "type": "function"
    },
    {
      "inputs": [
        {
          "internalType": "address",
          "name": "to",
          "type": "address"
        },
        {
          "internalType": "uint256",
          "name": "chainId",
          "type": "uint256"
        },
        {
          "internalType": "contract IERC20",
          "name": "token",
          "type": "address"
        },
        {
          "internalType": "uint256",
          "name": "amount",
          "type": "uint256"
        },
        {
          "internalType": "uint8",
          "name": "tokenIndexFrom",
          "type": "uint8"
        },
        {
          "internalType": "uint8",
          "name": "tokenIndexTo",
          "type": "uint8"
        },
        {
          "internalType": "uint256",
          "name": "minDy",
          "type": "uint256"
        },
        {
          "internalType": "uint256",
          "name": "deadline",
          "type": "uint256"
        }
      ],
      "name": "redeemAndSwap",
      "outputs": [],
      "stateMutability": "nonpayable",
      "type": "function"
    },
    {
      "inputs": [
        {
          "internalType": "address",
          "name": "to",
          "type": "address"
        },
        {
          "internalType": "uint256",
          "name": "chainId",
          "type": "uint256"
        },
        {
          "internalType": "contract IERC20",
          "name": "token",
          "type": "address"
        },
        {
          "internalType": "uint8",
          "name": "tokenIndexFrom",
          "type": "uint8"
        },
        {
          "internalType": "uint8",
          "name": "tokenIndexTo",
          "type": "uint8"
        },
        {
          "internalType": "uint256",
          "name": "dx",
          "type": "uint256"
        },
        {
          "internalType": "uint256",
          "name": "minDy",
          "type": "uint256"
        },
        {
          "internalType": "uint256",
          "name": "deadline",
          "type": "uint256"
        }
      ],
      "name": "swapAndRedeem",
      "outputs": [],
      "stateMutability": "nonpayable",
      "type": "function"
    },
    {
      "inputs": [
        {
          "internalType": "address",
          "name": "to",
          "type": "address"
        },
        {
          "internalType": "uint256",
          "name": "chainId",
          "type": "uint256"
        },
        {
          "internalType": "contract IERC20",
          "name": "token",
          "type": "address"
        },
        {
          "internalType": "uint8",
          "name": "tokenIndexFrom",
          "type": "uint8"
        },
        {
          "internalType": "uint8",
          "name": "tokenIndexTo",
          "type": "uint8"
        },
        {
          "internalType": "uint256",
          "name": "dx",
          "type": "uint256"
        },
        {
          "internalType": "uint256",
          "name": "minDy",
          "type": "uint256"
        },
        {
          "internalType": "uint256",
          "name": "deadline",
          "type": "uint256"
        },
        {
          "internalType": "uint8",
          "name": "liqTokenIndex",
          "type": "uint8"
        },
        {
          "internalType": "uint256",
          "name": "liqMinAmount",
          "type": "uint256"
        },
        {
          "internalType": "uint256",
          "name": "liqDeadline",
          "type": "uint256"
        }
      ],
      "name": "swapAndRedeemAndRemove",
      "outputs": [],
      "stateMutability": "nonpayable",
      "type": "function"
    },
    {
      "inputs": [
        {
          "internalType": "address",
          "name": "to",
          "type": "address"
        },
        {
          "internalType": "uint256",
          "name": "chainId",
          "type": "uint256"
        },
        {
          "internalType": "contract IERC20",
          "name": "token",
          "type": "address"
        },
        {
          "internalType": "uint8",
          "name": "tokenIndexFrom",
          "type": "uint8"
        },
        {
          "internalType": "uint8",
          "name": "tokenIndexTo",
          "type": "uint8"
        },
        {
          "internalType": "uint256",
          "name": "dx",
          "type": "uint256"
        },
        {
          "internalType": "uint256",
          "name": "minDy",
          "type": "uint256"
        },
        {
          "internalType": "uint256",
          "name": "deadline",
          "type": "uint256"
        },
        {
          "internalType": "uint8",
          "name": "swapTokenIndexFrom",
          "type": "uint8"
        },
        {
          "internalType": "uint8",
          "name": "swapTokenIndexTo",
          "type": "uint8"
        },
        {
          "internalType": "uint256",
          "name": "swapMinDy",
          "type": "uint256"
        },
        {
          "internalType": "uint256",
          "name": "swapDeadline",
          "type": "uint256"
        }
      ],
      "name": "swapAndRedeemAndSwap",
      "outputs": [],
      "stateMutability": "nonpayable",
      "type": "function"
    },
    {
      "inputs": [
        {
          "internalType": "address",
          "name": "to",
          "type": "address"
        },
        {
          "internalType": "uint256",
          "name": "chainId",
          "type": "uint256"
        },
        {
          "internalType": "contract IERC20",
          "name": "token",
          "type": "address"
        },
        {
          "internalType": "uint8",
          "name": "tokenIndexFrom",
          "type": "uint8"
        },
        {
          "internalType": "uint8",
          "name": "tokenIndexTo",
          "type": "uint8"
        },
        {
          "internalType": "uint256",
          "name": "dx",
          "type": "uint256"
        },
        {
          "internalType": "uint256",
          "name": "minDy",
          "type": "uint256"
        },
        {
          "internalType": "uint256",
          "name": "deadline",
          "type": "uint256"
        }
      ],
      "name": "swapETHAndRedeem",
      "outputs": [],
      "stateMutability": "payable",
      "type": "function"
    }
  ],
  "transactionHash": "0x7127a63657c80d642b0e7378f9265d0b3295f741cc51c381b2f9e15fcb524b1c",
  "args": [
    "0x0000000000000000000000000000000000000000",
    "0xcEf6C2e20898C2604886b888552CA6CcF66933B0",
    "0xED2a7edd7413021d440b09D654f3b87712abAB66",
    "0x0000000000000000000000000000000000000000",
    "0x0000000000000000000000000000000000000000",
    "0xAf41a65F786339e7911F4acDAD6BD49426F2Dc6b"
  ],
  "solcInputHash": "16412b2ab85ccb21af0b3507786005ed",
  "bytecode": "0x60a06040523480156200001157600080fd5b506040516200279638038062002796833981810160405260c08110156200003757600080fd5b50805160208083015160408085015160608087015160808089015160a0909901519288901b6001600160601b0319169052600080546001600160a01b03199081166001600160a01b038086169190911783558086168352600190985285822080548216898916908117909155888b16835295909120805490911696821696909617909555949592949093929115620002295760005b60208160ff161015620001e357856001600160a01b031663e4b50cb8826040518263ffffffff1660e01b8152600401808260ff16815260200191505060206040518083038186803b1580156200012157600080fd5b505afa9250505080156200014857506040513d60208110156200014357600080fd5b505160015b6200015357620001e3565b6001600160a01b038781166000908152600260209081526040822080546001810182559083529181902090910180546001600160a01b0319169284169283179055620001af9190899060001990620003a5811b620018f317901c565b600054620001d9906001600160a01b038381169116600019620003a5602090811b620018f317901c565b50600101620000cc565b60018160ff1611620002275760405162461bcd60e51b8152600401808060200182810382526024815260200180620027126024913960400191505060405180910390fd5b505b6001600160a01b03831615620003995760005b60208160ff1610156200035357836001600160a01b031663e4b50cb8826040518263ffffffff1660e01b8152600401808260ff16815260200191505060206040518083038186803b1580156200029157600080fd5b505afa925050508015620002b857506040513d6020811015620002b357600080fd5b505160015b620002c35762000353565b6001600160a01b038581166000908152600260209081526040822080546001810182559083529181902090910180546001600160a01b03191692841692831790556200031f9190879060001990620003a5811b620018f317901c565b60005462000349906001600160a01b038381169116600019620003a5602090811b620018f317901c565b506001016200023c565b60018160ff1611620003975760405162461bcd60e51b8152600401808060200182810382526024815260200180620027126024913960400191505060405180910390fd5b505b505050505050620007b8565b8015806200042f575060408051636eb1769f60e11b81523060048201526001600160a01b03848116602483015291519185169163dd62ed3e91604480820192602092909190829003018186803b158015620003ff57600080fd5b505afa15801562000414573d6000803e3d6000fd5b505050506040513d60208110156200042b57600080fd5b5051155b6200046c5760405162461bcd60e51b8152600401808060200182810382526036815260200180620027606036913960400191505060405180910390fd5b604080516001600160a01b038416602482015260448082018490528251808303909101815260649091019091526020810180516001600160e01b0390811663095ea7b360e01b17909152620004c4918591620004c916565b505050565b606062000525826040518060400160405280602081526020017f5361666545524332303a206c6f772d6c6576656c2063616c6c206661696c6564815250856001600160a01b03166200058560201b62001a6c179092919060201c565b805190915015620004c4578080602001905160208110156200054657600080fd5b5051620004c45760405162461bcd60e51b815260040180806020018281038252602a81526020018062002736602a913960400191505060405180910390fd5b6060620005968484600085620005a0565b90505b9392505050565b606082471015620005e35760405162461bcd60e51b8152600401808060200182810382526026815260200180620026ec6026913960400191505060405180910390fd5b620005ee8562000708565b62000640576040805162461bcd60e51b815260206004820152601d60248201527f416464726573733a2063616c6c20746f206e6f6e2d636f6e7472616374000000604482015290519081900360640190fd5b60006060866001600160a01b031685876040518082805190602001908083835b60208310620006815780518252601f19909201916020918201910162000660565b6001836020036101000a03801982511681845116808217855250505050505090500191505060006040518083038185875af1925050503d8060008114620006e5576040519150601f19603f3d011682016040523d82523d6000602084013e620006ea565b606091505b509092509050620006fd8282866200070e565b979650505050505050565b3b151590565b606083156200071f57508162000599565b825115620007305782518084602001fd5b8160405162461bcd60e51b81526004018080602001828103825283818151815260200191508051906020019080838360005b838110156200077c57818101518382015260200162000762565b50505050905090810190601f168015620007aa5780820380516001836020036101000a031916815260200191505b509250505060405180910390fd5b60805160601c611f0c620007e0600039806104e05280610d035280610e995250611f0c6000f3fe6080604052600436106100c75760003560e01c8063839ed90a116100745780639f3307271161004e5780639f330727146103df578063d49df1a614610464578063f3f094a114610497576100c7565b8063839ed90a146102f85780638ff28a061461035f57806390d2507414610398576100c7565b80634a517a55116100a55780634a517a55146101d957806365749c9d14610240578063798af7201461029a576100c7565b8063040141e5146100cc578063174dc952146100fd57806336e712ed1461017d575b600080fd5b3480156100d857600080fd5b506100e16104de565b604080516001600160a01b039092168252519081900360200190f35b34801561010957600080fd5b5061017b600480360361016081101561012157600080fd5b506001600160a01b0381358116916020810135916040820135169060ff6060820135811691608081013582169160a08201359160c08101359160e08201359161010081013590911690610120810135906101400135610502565b005b34801561018957600080fd5b5061017b600480360360e08110156101a057600080fd5b506001600160a01b0381358116916020810135916040820135169060608101359060ff6080820135169060a08101359060c00135610865565b3480156101e557600080fd5b5061017b60048036036101008110156101fd57600080fd5b506001600160a01b0381358116916020810135916040820135169060ff606082013581169160808101359091169060a08101359060c08101359060e001356109e6565b61017b600480360361010081101561025757600080fd5b506001600160a01b0381358116916020810135916040820135169060ff606082013581169160808101359091169060a08101359060c08101359060e00135610d01565b3480156102a657600080fd5b506102e6600480360360808110156102bd57600080fd5b506001600160a01b038135169060ff60208201358116916040810135909116906060013561105b565b60408051918252519081900360200190f35b34801561030457600080fd5b5061017b600480360361010081101561031c57600080fd5b506001600160a01b0381358116916020810135916040820135169060608101359060ff608082013581169160a08101359091169060c08101359060e00135611114565b34801561036b57600080fd5b506100e16004803603604081101561038257600080fd5b506001600160a01b03813516906020013561129f565b3480156103a457600080fd5b5061017b600480360360808110156103bb57600080fd5b506001600160a01b03813581169160208101359160408201351690606001356112d4565b3480156103eb57600080fd5b5061017b600480360361018081101561040357600080fd5b506001600160a01b0381358116916020810135916040820135169060ff6060820135811691608081013582169160a08201359160c08101359160e082013591610100810135821691610120820135169061014081013590610160013561143b565b34801561047057600080fd5b506100e16004803603602081101561048757600080fd5b50356001600160a01b031661178f565b3480156104a357600080fd5b5061017b600480360360808110156104ba57600080fd5b506001600160a01b03813581169160208101359160408201351690606001356117aa565b7f000000000000000000000000000000000000000000000000000000000000000081565b6001600160a01b03808a16600090815260016020526040902054168061058957604080517f08c379a000000000000000000000000000000000000000000000000000000000815260206004820152601060248201527f4d65746173776170206973203078303000000000000000000000000000000000604482015290519081900360640190fd5b6001600160a01b0381166000908152600260209081526040918290208054835181840281018401909452808452606093928301828280156105f357602002820191906000526020600020905b81546001600160a01b031681526001909101906020018083116105d5575b5050505050905061063033308a848e60ff168151811061060f57fe5b60200260200101516001600160a01b0316611a85909392919063ffffffff16565b604080517f9169558600000000000000000000000000000000000000000000000000000000815260ff808d1660048301528b166024820152604481018a9052606481018990526084810188905290516000916001600160a01b0385169163916955869160a48082019260209290919082900301818787803b1580156106b457600080fd5b505af11580156106c8573d6000803e3d6000fd5b505050506040513d60208110156106de57600080fd5b5051600054604080517fdd62ed3e0000000000000000000000000000000000000000000000000000000081523060048201526001600160a01b03928316602482015290519293508392918f169163dd62ed3e91604480820192602092909190829003018186803b15801561075157600080fd5b505afa158015610765573d6000803e3d6000fd5b505050506040513d602081101561077b57600080fd5b5051101561079f5760005461079f906001600160a01b038e811691166000196118f3565b60008054906101000a90046001600160a01b03166001600160a01b03166336e712ed8f8f8f858b8b8b6040518863ffffffff1660e01b815260040180886001600160a01b03168152602001878152602001866001600160a01b031681526020018581526020018460ff168152602001838152602001828152602001975050505050505050600060405180830381600087803b15801561083d57600080fd5b505af1158015610851573d6000803e3d6000fd5b505050505050505050505050505050505050565b61087a6001600160a01b038616333087611a85565b600054604080517fdd62ed3e0000000000000000000000000000000000000000000000000000000081523060048201526001600160a01b0392831660248201529051869288169163dd62ed3e916044808301926020929190829003018186803b1580156108e657600080fd5b505afa1580156108fa573d6000803e3d6000fd5b505050506040513d602081101561091057600080fd5b5051101561093457600054610934906001600160a01b0387811691166000196118f3565b60008054604080517f36e712ed0000000000000000000000000000000000000000000000000000000081526001600160a01b038b81166004830152602482018b905289811660448301526064820189905260ff8816608483015260a4820187905260c48201869052915191909216926336e712ed9260e4808201939182900301818387803b1580156109c557600080fd5b505af11580156109d9573d6000803e3d6000fd5b5050505050505050505050565b6001600160a01b038087166000908152600160205260409020541680610a6d57604080517f08c379a000000000000000000000000000000000000000000000000000000000815260206004820152601060248201527f4d65746173776170206973203078303000000000000000000000000000000000604482015290519081900360640190fd5b6001600160a01b038116600090815260026020908152604091829020805483518184028101840190945280845260609392830182828015610ad757602002820191906000526020600020905b81546001600160a01b03168152600190910190602001808311610ab9575b50505050509050610af3333087848b60ff168151811061060f57fe5b604080517f9169558600000000000000000000000000000000000000000000000000000000815260ff808a1660048301528816602482015260448101879052606481018690526084810185905290516000916001600160a01b0385169163916955869160a48082019260209290919082900301818787803b158015610b7757600080fd5b505af1158015610b8b573d6000803e3d6000fd5b505050506040513d6020811015610ba157600080fd5b5051600054604080517fdd62ed3e0000000000000000000000000000000000000000000000000000000081523060048201526001600160a01b03928316602482015290519293508392918c169163dd62ed3e91604480820192602092909190829003018186803b158015610c1457600080fd5b505afa158015610c28573d6000803e3d6000fd5b505050506040513d6020811015610c3e57600080fd5b50511015610c6257600054610c62906001600160a01b038b811691166000196118f3565b60008054604080517ff3f094a10000000000000000000000000000000000000000000000000000000081526001600160a01b038f81166004830152602482018f90528d81166044830152606482018690529151919092169263f3f094a1926084808201939182900301818387803b158015610cdc57600080fd5b505af1158015610cf0573d6000803e3d6000fd5b505050505050505050505050505050565b7f00000000000000000000000000000000000000000000000000000000000000006001600160a01b0316610d9657604080517f08c379a000000000000000000000000000000000000000000000000000000000815260206004820152600660248201527f5745544820300000000000000000000000000000000000000000000000000000604482015290519081900360640190fd5b600034118015610da557508234145b610e1057604080517f08c379a000000000000000000000000000000000000000000000000000000000815260206004820152601360248201527f494e434f5252454354204d53472056414c554500000000000000000000000000604482015290519081900360640190fd5b6001600160a01b038087166000908152600160205260409020541680610e9757604080517f08c379a000000000000000000000000000000000000000000000000000000000815260206004820152601060248201527f4d65746173776170206973203078303000000000000000000000000000000000604482015290519081900360640190fd5b7f00000000000000000000000000000000000000000000000000000000000000006001600160a01b031663d0e30db0346040518263ffffffff1660e01b81526004016000604051808303818588803b158015610ef257600080fd5b505af1158015610f06573d6000803e3d6000fd5b5050604080517f9169558600000000000000000000000000000000000000000000000000000000815260ff808c1660048301528a1660248201526044810189905260648101889052608481018790529051600094506001600160a01b03861693506391695586925060a480830192602092919082900301818787803b158015610f8e57600080fd5b505af1158015610fa2573d6000803e3d6000fd5b505050506040513d6020811015610fb857600080fd5b505160008054604080517ff3f094a10000000000000000000000000000000000000000000000000000000081526001600160a01b038f81166004830152602482018f90528d8116604483015260648201869052915194955091169263f3f094a19260848084019391929182900301818387803b15801561103757600080fd5b505af115801561104b573d6000803e3d6000fd5b5050505050505050505050505050565b6001600160a01b0380851660009081526001602090815260408083205481517fa95b089f00000000000000000000000000000000000000000000000000000000815260ff808a1660048301528816602482015260448101879052915193941692839263a95b089f9260648082019391829003018186803b1580156110de57600080fd5b505afa1580156110f2573d6000803e3d6000fd5b505050506040513d602081101561110857600080fd5b50519695505050505050565b6111296001600160a01b038716333088611a85565b600054604080517fdd62ed3e0000000000000000000000000000000000000000000000000000000081523060048201526001600160a01b0392831660248201529051879289169163dd62ed3e916044808301926020929190829003018186803b15801561119557600080fd5b505afa1580156111a9573d6000803e3d6000fd5b505050506040513d60208110156111bf57600080fd5b505110156111e3576000546111e3906001600160a01b0388811691166000196118f3565b60008054604080517f839ed90a0000000000000000000000000000000000000000000000000000000081526001600160a01b038c81166004830152602482018c90528a81166044830152606482018a905260ff808a166084840152881660a483015260c4820187905260e482018690529151919092169263839ed90a92610104808201939182900301818387803b15801561127d57600080fd5b505af1158015611291573d6000803e3d6000fd5b505050505050505050505050565b600260205281600052604060002081815481106112b857fe5b6000918252602090912001546001600160a01b03169150829050565b6112e96001600160a01b038316333084611a85565b600054604080517fdd62ed3e0000000000000000000000000000000000000000000000000000000081523060048201526001600160a01b0392831660248201529051839285169163dd62ed3e916044808301926020929190829003018186803b15801561135557600080fd5b505afa158015611369573d6000803e3d6000fd5b505050506040513d602081101561137f57600080fd5b505110156113a3576000546113a3906001600160a01b0384811691166000196118f3565b60008054604080517f90d250740000000000000000000000000000000000000000000000000000000081526001600160a01b03888116600483015260248201889052868116604483015260648201869052915191909216926390d25074926084808201939182900301818387803b15801561141d57600080fd5b505af1158015611431573d6000803e3d6000fd5b5050505050505050565b6001600160a01b038a8116600090815260016020526040902054166114c157604080517f08c379a000000000000000000000000000000000000000000000000000000000815260206004820152601060248201527f4d65746173776170206973203078303000000000000000000000000000000000604482015290519081900360640190fd5b6001600160a01b03808b166000908152600160209081526040808320549093168252600281529082902080548351818402810184019094528084526060939283018282801561153957602002820191906000526020600020905b81546001600160a01b0316815260019091019060200180831161151b575b5050505050905061155533308a848e60ff168151811061060f57fe5b6000600160008d6001600160a01b03166001600160a01b0316815260200190815260200160002060009054906101000a90046001600160a01b03166001600160a01b031663916955868c8c8c8c8c6040518663ffffffff1660e01b8152600401808660ff1681526020018560ff16815260200184815260200183815260200182815260200195505050505050602060405180830381600087803b1580156115fb57600080fd5b505af115801561160f573d6000803e3d6000fd5b505050506040513d602081101561162557600080fd5b5051600054604080517fdd62ed3e0000000000000000000000000000000000000000000000000000000081523060048201526001600160a01b03928316602482015290519293508392918f169163dd62ed3e91604480820192602092909190829003018186803b15801561169857600080fd5b505afa1580156116ac573d6000803e3d6000fd5b505050506040513d60208110156116c257600080fd5b505110156116e6576000546116e6906001600160a01b038e811691166000196118f3565b60008054906101000a90046001600160a01b03166001600160a01b031663839ed90a8f8f8f858b8b8b8b6040518963ffffffff1660e01b815260040180896001600160a01b03168152602001888152602001876001600160a01b031681526020018681526020018560ff1681526020018460ff16815260200183815260200182815260200198505050505050505050600060405180830381600087803b15801561083d57600080fd5b6001602052600090815260409020546001600160a01b031681565b6117bf6001600160a01b038316333084611a85565b600054604080517fdd62ed3e0000000000000000000000000000000000000000000000000000000081523060048201526001600160a01b0392831660248201529051839285169163dd62ed3e916044808301926020929190829003018186803b15801561182b57600080fd5b505afa15801561183f573d6000803e3d6000fd5b505050506040513d602081101561185557600080fd5b5051101561187957600054611879906001600160a01b0384811691166000196118f3565b60008054604080517ff3f094a10000000000000000000000000000000000000000000000000000000081526001600160a01b038881166004830152602482018890528681166044830152606482018690529151919092169263f3f094a1926084808201939182900301818387803b15801561141d57600080fd5b8015806119925750604080517fdd62ed3e0000000000000000000000000000000000000000000000000000000081523060048201526001600160a01b03848116602483015291519185169163dd62ed3e91604480820192602092909190829003018186803b15801561196457600080fd5b505afa158015611978573d6000803e3d6000fd5b505050506040513d602081101561198e57600080fd5b5051155b6119e7576040517f08c379a0000000000000000000000000000000000000000000000000000000008152600401808060200182810382526036815260200180611ea16036913960400191505060405180910390fd5b604080516001600160a01b038416602482015260448082018490528251808303909101815260649091019091526020810180517bffffffffffffffffffffffffffffffffffffffffffffffffffffffff167f095ea7b300000000000000000000000000000000000000000000000000000000179052611a67908490611b13565b505050565b6060611a7b8484600085611bde565b90505b9392505050565b604080516001600160a01b0380861660248301528416604482015260648082018490528251808303909101815260849091019091526020810180517bffffffffffffffffffffffffffffffffffffffffffffffffffffffff167f23b872dd00000000000000000000000000000000000000000000000000000000179052611b0d908590611b13565b50505050565b6060611b68826040518060400160405280602081526020017f5361666545524332303a206c6f772d6c6576656c2063616c6c206661696c6564815250856001600160a01b0316611a6c9092919063ffffffff16565b805190915015611a6757808060200190516020811015611b8757600080fd5b5051611a67576040517f08c379a000000000000000000000000000000000000000000000000000000000815260040180806020018281038252602a815260200180611e77602a913960400191505060405180910390fd5b606082471015611c39576040517f08c379a0000000000000000000000000000000000000000000000000000000008152600401808060200182810382526026815260200180611e516026913960400191505060405180910390fd5b611c4285611d8c565b611cad57604080517f08c379a000000000000000000000000000000000000000000000000000000000815260206004820152601d60248201527f416464726573733a2063616c6c20746f206e6f6e2d636f6e7472616374000000604482015290519081900360640190fd5b60006060866001600160a01b031685876040518082805190602001908083835b60208310611d0a57805182527fffffffffffffffffffffffffffffffffffffffffffffffffffffffffffffffe09092019160209182019101611ccd565b6001836020036101000a03801982511681845116808217855250505050505090500191505060006040518083038185875af1925050503d8060008114611d6c576040519150601f19603f3d011682016040523d82523d6000602084013e611d71565b606091505b5091509150611d81828286611d92565b979650505050505050565b3b151590565b60608315611da1575081611a7e565b825115611db15782518084602001fd5b816040517f08c379a00000000000000000000000000000000000000000000000000000000081526004018080602001828103825283818151815260200191508051906020019080838360005b83811015611e15578181015183820152602001611dfd565b50505050905090810190601f168015611e425780820380516001836020036101000a031916815260200191505b509250505060405180910390fdfe416464726573733a20696e73756666696369656e742062616c616e636520666f722063616c6c5361666545524332303a204552433230206f7065726174696f6e20646964206e6f7420737563636565645361666545524332303a20617070726f76652066726f6d206e6f6e2d7a65726f20746f206e6f6e2d7a65726f20616c6c6f77616e6365a2646970667358221220d48ebaa3ef3947e11fec5f0cbbee4746206fd8453bfd80b94c06d4e5225a00dd64736f6c634300060c0033416464726573733a20696e73756666696369656e742062616c616e636520666f722063616c6c6d65746153776170206d7573742068617665206174206c65617374203220746f6b656e735361666545524332303a204552433230206f7065726174696f6e20646964206e6f7420737563636565645361666545524332303a20617070726f76652066726f6d206e6f6e2d7a65726f20746f206e6f6e2d7a65726f20616c6c6f77616e6365",
  "devdoc": {
    "kind": "dev",
    "methods": {
      "calculateSwap(address,uint8,uint8,uint256)": {
        "params": {
          "dx": "the amount of tokens the user wants to sell. If the token charges a fee on transfers, use the amount that gets transferred after the fee.",
          "tokenIndexFrom": "the token the user wants to sell",
          "tokenIndexTo": "the token the user wants to buy"
        },
        "returns": {
          "_0": "amount of tokens the user will receive"
        }
      },
      "deposit(address,uint256,address,uint256)": {
        "params": {
          "amount": "Amount in native token decimals to transfer cross-chain pre-fees*",
          "chainId": "which underlying chain to bridge assets onto",
          "to": "address on other chain to redeem underlying assets to",
          "token": "ERC20 compatible token to deposit into the bridge"
        }
      },
      "redeem(address,uint256,address,uint256)": {
        "params": {
          "amount": "Amount in native token decimals to transfer cross-chain pre-fees*",
          "chainId": "which underlying chain to bridge assets onto",
          "to": "address on other chain to redeem underlying assets to",
          "token": "ERC20 compatible token to deposit into the bridge"
        }
      },
      "redeemAndRemove(address,uint256,address,uint256,uint8,uint256,uint256)": {
        "params": {
          "amount": "Amount of (typically) LP token to pass to the nodes to attempt to removeLiquidity() with to redeem for the underlying assets of the LP token",
          "chainId": "which underlying chain to bridge assets onto",
          "liqDeadline": "Specificies the deadline that the nodes are allowed to try to redeem/swap the LP token*",
          "liqMinAmount": "Specifies the minimum amount of the underlying asset needed for the nodes to execute the redeem/swap",
          "liqTokenIndex": "Specifies which of the underlying LP assets the nodes should attempt to redeem for",
          "to": "address on other chain to redeem underlying assets to",
          "token": "ERC20 compatible token to deposit into the bridge"
        }
      },
      "redeemAndSwap(address,uint256,address,uint256,uint8,uint8,uint256,uint256)": {
        "params": {
          "amount": "Amount in native token decimals to transfer cross-chain pre-fees",
          "chainId": "which underlying chain to bridge assets onto",
          "deadline": "latest timestamp to accept this transaction*",
          "minDy": "the min amount the user would like to receive, or revert to only minting the SynERC20 token crosschain.",
          "to": "address on other chain to redeem underlying assets to",
          "token": "ERC20 compatible token to deposit into the bridge",
          "tokenIndexFrom": "the token the user wants to swap from",
          "tokenIndexTo": "the token the user wants to swap to"
        }
      }
    },
    "version": 1
  },
  "userdoc": {
    "kind": "user",
    "methods": {
      "calculateSwap(address,uint8,uint8,uint256)": {
        "notice": "Calculate amount of tokens you receive on swap"
      },
      "deposit(address,uint256,address,uint256)": {
        "notice": "wraps SynapseBridge redeem()"
      },
      "redeem(address,uint256,address,uint256)": {
        "notice": "wraps SynapseBridge redeem()"
      },
      "redeemAndRemove(address,uint256,address,uint256,uint8,uint256,uint256)": {
        "notice": "Wraps redeemAndRemove on SynapseBridge Relays to nodes that (typically) a wrapped synAsset ERC20 token has been burned and the underlying needs to be redeeemed on the native chain. This function indicates to the nodes that they should attempt to redeem the LP token for the underlying assets (E.g \"swap\" out of the LP token)"
      },
      "redeemAndSwap(address,uint256,address,uint256,uint8,uint8,uint256,uint256)": {
        "notice": "Wraps redeemAndSwap on SynapseBridge.sol Relays to nodes that (typically) a wrapped synAsset ERC20 token has been burned and the underlying needs to be redeeemed on the native chain. This function indicates to the nodes that they should attempt to redeem the LP token for the underlying assets (E.g \"swap\" out of the LP token)"
      }
    },
    "version": 1
  },
  "storageLayout": {
    "storage": [
      {
        "astId": 22713,
        "contract": "contracts/bridge/wrappers/NerveMetaBridgeZap.sol:NerveMetaBridgeZap",
        "label": "synapseBridge",
        "offset": 0,
        "slot": "0",
        "type": "t_contract(ISynapseBridge)21194"
      },
      {
        "astId": 22719,
        "contract": "contracts/bridge/wrappers/NerveMetaBridgeZap.sol:NerveMetaBridgeZap",
        "label": "metaSwapMap",
        "offset": 0,
        "slot": "1",
        "type": "t_mapping(t_address,t_address)"
      },
      {
        "astId": 22724,
        "contract": "contracts/bridge/wrappers/NerveMetaBridgeZap.sol:NerveMetaBridgeZap",
        "label": "metaSwapTokensMap",
        "offset": 0,
        "slot": "2",
        "type": "t_mapping(t_address,t_array(t_contract(IERC20)4954)dyn_storage)"
      }
    ],
    "types": {
      "t_address": {
        "encoding": "inplace",
        "label": "address",
        "numberOfBytes": "20"
      },
      "t_array(t_contract(IERC20)4954)dyn_storage": {
        "base": "t_contract(IERC20)4954",
        "encoding": "dynamic_array",
        "label": "contract IERC20[]",
        "numberOfBytes": "32"
      },
      "t_contract(IERC20)4954": {
        "encoding": "inplace",
        "label": "contract IERC20",
        "numberOfBytes": "20"
      },
      "t_contract(ISynapseBridge)21194": {
        "encoding": "inplace",
        "label": "contract ISynapseBridge",
        "numberOfBytes": "20"
      },
      "t_mapping(t_address,t_address)": {
        "encoding": "mapping",
        "key": "t_address",
        "label": "mapping(address => address)",
        "numberOfBytes": "32",
        "value": "t_address"
      },
      "t_mapping(t_address,t_array(t_contract(IERC20)4954)dyn_storage)": {
        "encoding": "mapping",
        "key": "t_address",
        "label": "mapping(address => contract IERC20[])",
        "numberOfBytes": "32",
        "value": "t_array(t_contract(IERC20)4954)dyn_storage"
      }
    }
  }
}