{
  "address": "0xB0e1a7FE9C3bff7C75606Ae77Efd33dd09601cBd",
  "abi": [
    {
      "anonymous": false,
      "inputs": [
        {
          "indexed": false,
          "internalType": "address",
          "name": "tokenAddress",
          "type": "address"
        }
      ],
      "name": "BonusChefCreated",
      "type": "event"
    },
    {
      "inputs": [
        {
          "internalType": "contract IMiniChefV2",
          "name": "miniChef",
          "type": "address"
        },
        {
          "internalType": "uint256",
          "name": "chefPoolID",
          "type": "uint256"
        },
        {
          "internalType": "address",
          "name": "rewardsDistribution",
          "type": "address"
        }
      ],
      "name": "deploy",
      "outputs": [
        {
          "internalType": "address",
          "name": "",
          "type": "address"
        }
      ],
      "stateMutability": "nonpayable",
      "type": "function"
    }
  ],
  "transactionHash": "0x39a03401e6802536809457b9245c9b2cc3e77c4704366ebd8e3e4f53b3b100b0",
  "args": [],
  "numDeployments": 1,
  "solcInputHash": "c77097658f5539e263b357b7931ba510",
  "bytecode": "0x608060405234801561001057600080fd5b5061208d806100206000396000f3fe608060405234801561001057600080fd5b506004361061002b5760003560e01c80638408681d14610030575b600080fd5b61004361003e3660046100e4565b610059565b6040516100509190610125565b60405180910390f35b6000808484843360405161006c906100d7565b6100799493929190610146565b604051809103906000f080158015610095573d6000803e3d6000fd5b5090507fea1fddb842218c9428c3d55279c02be3e3f408157d572919f9d451d580151801816040516100c79190610125565b60405180910390a1949350505050565b611eb4806101a483390190565b6000806000606084860312156100f8578283fd5b83356101038161017e565b925060208401359150604084013561011a8161017e565b809150509250925092565b73ffffffffffffffffffffffffffffffffffffffff91909116815260200190565b73ffffffffffffffffffffffffffffffffffffffff948516815260208101939093529083166040830152909116606082015260800190565b73ffffffffffffffffffffffffffffffffffffffff811681146101a057600080fd5b5056fe60e06040523480156200001157600080fd5b5060405162001eb438038062001eb483398101604081905262000034916200013e565b60016000556001600160601b0319606085901b1660805260a08390526040516378ed5d1f60e01b81526001600160a01b038516906378ed5d1f906200007e90869060040162000199565b60206040518083038186803b1580156200009757600080fd5b505afa158015620000ac573d6000803e3d6000fd5b505050506040513d601f19601f82011682018060405250810190620000d2919062000118565b60601b6001600160601b03191660c052600180546001600160a01b03199081166001600160a01b0394851617909155600280549091169190921617905550620001bb9050565b6000602082840312156200012a578081fd5b81516200013781620001a2565b9392505050565b6000806000806080858703121562000154578283fd5b84516200016181620001a2565b6020860151604087015191955093506200017b81620001a2565b60608601519092506200018e81620001a2565b939692955090935050565b90815260200190565b6001600160a01b0381168114620001b857600080fd5b50565b60805160601c60a05160c05160601c611cbc620001f86000398061046e5250806109c95250806103e4528061049b528061099a5250611cbc6000f3fe608060405234801561001057600080fd5b50600436106101b95760003560e01c8063638634ee116100f9578063b66503cf11610097578063da09d19d11610071578063da09d19d14610398578063e70b9e27146103ab578063eb9e5ddc146103be578063f1229777146103c6576101b9565b8063b66503cf14610351578063bcd1101414610364578063d63b3c4914610377576101b9565b80637eb48966116100d35780637eb4896614610305578063839006f2146103185780639ce43f901461032b578063ab033ea91461033e576101b9565b8063638634ee146102cc5780637035ab98146102df57806370a08231146102f2576101b9565b8063221ca18c11610166578063372d944811610140578063372d9448146102835780633fc6df6e146102a95780635aa6e675146102b15780635d910351146102b9576101b9565b8063221ca18c1461024a5780632ce9aead1461025d57806333d4cbf314610270576101b9565b80631c5ef433116101975780631c5ef433146102045780631dfa8e8114610217578063211dc32d14610237576101b9565b80630eb9eaf1146101be57806318160ddd146101d357806319762143146101f1575b600080fd5b6101d16101cc3660046116ff565b6103d9565b005b6101db61043b565b6040516101e89190611c66565b60405180910390f35b6101d16101ff366004611636565b610518565b6101d1610212366004611685565b61057c565b61022a6102253660046116cf565b610715565b6040516101e891906117e7565b6101db610245366004611651565b61073c565b6101db610258366004611636565b6107c3565b6101db61026b366004611636565b6107e5565b6101d161027e366004611636565b610803565b610296610291366004611636565b6108af565b6040516101e897969594939291906118a4565b61022a6108fa565b61022a610909565b6101db6102c7366004611636565b610918565b6101db6102da366004611636565b610937565b6101db6102ed366004611651565b610966565b6101db610300366004611636565b610995565b6101d16103133660046116cf565b610a5d565b6101d1610326366004611636565b610a93565b6101db610339366004611636565b610baf565b6101d161034c366004611636565b610bcd565b6101d161035f366004611685565b610c31565b6101db610372366004611636565b610ede565b61038a61038536600461174e565b610f0a565b6040516101e8929190611814565b6101db6103a6366004611636565b611048565b6101db6103b9366004611651565b611066565b6101db611095565b6101db6103d4366004611636565b61109b565b336001600160a01b037f0000000000000000000000000000000000000000000000000000000000000000161461042a5760405162461bcd60e51b815260040161042190611abf565b60405180910390fd5b610434848461110e565b5050505050565b6040517f70a082310000000000000000000000000000000000000000000000000000000081526000906001600160a01b037f000000000000000000000000000000000000000000000000000000000000000016906370a08231906104c3907f0000000000000000000000000000000000000000000000000000000000000000906004016117e7565b60206040518083038186803b1580156104db57600080fd5b505afa1580156104ef573d6000803e3d6000fd5b505050506040513d601f19601f8201168201806040525081019061051391906116e7565b905090565b6002546001600160a01b031633146105425760405162461bcd60e51b815260040161042190611918565b600180547fffffffffffffffffffffffff0000000000000000000000000000000000000000166001600160a01b0392909216919091179055565b6002546001600160a01b031633146105a65760405162461bcd60e51b815260040161042190611918565b6001600160a01b03821660009081526003602052604090206008015460ff16156105e25760405162461bcd60e51b815260040161042190611c2f565b806105ff5760405162461bcd60e51b8152600401610421906119f4565b6040805160e0810182526001600160a01b0393841680825260006020808401828152848601838152606086019788526080860184815260a08701858152600160c08901818152888852600396879052998720985189549c167fffffffffffffffffffffffff00000000000000000000000000000000000000009c8d16178955935188850155915160028801559751928601929092559551600480860191909155905160058501559351600890930180549315157fffffffffffffffffffffffffffffffffffffffffffffffffffffffffffffff0090941693909317909255825493840183559190527f8a35acfbc15ff81a39ae7d344fd709f28e8600b4aa8c65c6b64bfe7fe36bd19b9091018054909216179055565b6004818154811061072257fe5b6000918252602090912001546001600160a01b0316905081565b6001600160a01b038083166000908152600360209081526040808320938516835260078401825280832054600685019092528220549192916107b991906107b390670de0b6b3a7640000906107ad9061079e906107988b61109b565b9061122c565b6107a789610995565b90611254565b9061128e565b906112c0565b9150505b92915050565b6001600160a01b0381166000908152600360205260409020600201545b919050565b6001600160a01b031660009081526003602052604090206004015490565b6002546001600160a01b0316331461082d5760405162461bcd60e51b815260040161042190611918565b60008060005b60045481101561088357836001600160a01b03166004828154811061085457fe5b6000918252602090912001546001600160a01b0316141561087b5780925060019150610883565b600101610833565b50806108a15760405162461bcd60e51b815260040161042190611b64565b6108aa826112e5565b505050565b600360208190526000918252604090912080546001820154600283015493830154600484015460058501546008909501546001600160a01b0390941695929492939192909160ff1687565b6001546001600160a01b031681565b6002546001600160a01b031681565b6001600160a01b03166000908152600360208190526040909120015490565b6001600160a01b0381166000908152600360205260408120600181015461095f904290611435565b9392505050565b6001600160a01b0391821660009081526003602090815260408083209390941682526006909201909152205490565b6000807f00000000000000000000000000000000000000000000000000000000000000006001600160a01b03166393f1a40b7f0000000000000000000000000000000000000000000000000000000000000000856040518363ffffffff1660e01b8152600401610a06929190611c6f565b604080518083038186803b158015610a1d57600080fd5b505afa158015610a31573d6000803e3d6000fd5b505050506040513d601f19601f82011682018060405250810190610a559190611783565b509392505050565b6002546001600160a01b03163314610a875760405162461bcd60e51b815260040161042190611918565b610a90816112e5565b50565b6002546001600160a01b03163314610abd5760405162461bcd60e51b815260040161042190611918565b6001600160a01b0381166000908152600360205260409020600881015460ff1615610afa5760405162461bcd60e51b815260040161042190611b9b565b6040517f70a082310000000000000000000000000000000000000000000000000000000081526000906001600160a01b038416906370a0823190610b429030906004016117e7565b60206040518083038186803b158015610b5a57600080fd5b505afa158015610b6e573d6000803e3d6000fd5b505050506040513d601f19601f82011682018060405250810190610b9291906116e7565b6002549091506108aa906001600160a01b0385811691168361144b565b6001600160a01b031660009081526003602052604090206005015490565b6002546001600160a01b03163314610bf75760405162461bcd60e51b815260040161042190611918565b600280547fffffffffffffffffffffffff0000000000000000000000000000000000000000166001600160a01b0392909216919091179055565b6001546001600160a01b03163314610c5b5760405162461bcd60e51b815260040161042190611bf8565b6001600160a01b03808316600090815260036020526040812080548593610c82911661109b565b60058201558054610c9b906001600160a01b0316610937565b60048201556001600160a01b03821615610cf6578054610cc4906001600160a01b03168361073c565b6001600160a01b0383166000908152600783016020908152604080832093909355600584015460068501909152919020555b6001600160a01b038516600090815260036020819052604090912090810154610d315760405162461bcd60e51b815260040161042190611b2d565b80600101544210610d56576003810154610d4c90869061128e565b6002820155610da1565b6001810154600090610d68904261122c565b90506000610d8383600201548361125490919063ffffffff16565b6003840154909150610d99906107ad89846112c0565b600284015550505b80546040517f70a082310000000000000000000000000000000000000000000000000000000081526000916001600160a01b0316906370a0823190610dea9030906004016117e7565b60206040518083038186803b158015610e0257600080fd5b505afa158015610e16573d6000803e3d6000fd5b505050506040513d601f19601f82011682018060405250810190610e3a91906116e7565b9050610e5382600301548261128e90919063ffffffff16565b82600201541115610e765760405162461bcd60e51b815260040161042190611af6565b42600483018190556003830154610e8d91906112c0565b60018301556040516001600160a01b038816907fac24935fd910bc682b5ccb1a07b718cadf8cf2f6d1404c4f3ddc3662dae40e2990610ecd908990611c66565b60405180910390a250505050505050565b6001600160a01b0381166000908152600360208190526040822090810154600282015461095f91611254565b6004546060908190818167ffffffffffffffff81118015610f2a57600080fd5b50604051908082528060200260200182016040528015610f54578160200160208202803683370190505b50905060608267ffffffffffffffff81118015610f7057600080fd5b50604051908082528060200260200182016040528015610f9a578160200160208202803683370190505b50905060005b838160ff16101561103a57600060048260ff1681548110610fbd57fe5b9060005260206000200160009054906101000a90046001600160a01b0316905080848360ff1681518110610fed57fe5b60200260200101906001600160a01b031690816001600160a01b031681525050611017818a61073c565b838360ff168151811061102657fe5b602090810291909101015250600101610fa0565b509097909650945050505050565b6001600160a01b031660009081526003602052604090206001015490565b6001600160a01b0391821660009081526003602090815260408083209390941682526007909201909152205490565b60045490565b6001600160a01b0381166000908152600360205260408120816110bc61043b565b9050806110cf57506005015490506107e0565b6111066110fb826107ad670de0b6b3a76400006107a787600201546107a789600401546107988d610937565b6005840154906112c0565b949350505050565b8160005b6004548110156111e4576000600360006004848154811061112f57fe5b60009182526020808320909101546001600160a01b03908116845290830193909352604090910190208054909250611167911661109b565b60058201558054611180906001600160a01b0316610937565b60048201556001600160a01b038316156111db5780546111a9906001600160a01b03168461073c565b6001600160a01b0384166000908152600783016020908152604080832093909355600584015460068501909152919020555b50600101611112565b5060005b6004548110156112265761121e6004828154811061120257fe5b6000918252602090912001546001600160a01b03168585611547565b6001016111e8565b50505050565b60008282111561124e5760405162461bcd60e51b815260040161042190611986565b50900390565b600082611263575060006107bd565b8282028284828161127057fe5b041461095f5760405162461bcd60e51b815260040161042190611a62565b60008082116112af5760405162461bcd60e51b8152600401610421906119bd565b8183816112b857fe5b049392505050565b60008282018381101561095f5760405162461bcd60e51b81526004016104219061194f565b600060036000600484815481106112f857fe5b60009182526020808320909101546001600160a01b0316835282019290925260400190206008810180547fffffffffffffffffffffffffffffffffffffffffffffffffffffffffffffff0016905560048054919250907fffffffffffffffffffffffffffffffffffffffffffffffffffffffffffffffff810190811061137a57fe5b600091825260209091200154600480546001600160a01b0390921691849081106113a057fe5b9060005260206000200160006101000a8154816001600160a01b0302191690836001600160a01b0316021790555060048054806113d957fe5b60008281526020902081017fffffffffffffffffffffffffffffffffffffffffffffffffffffffffffffffff90810180547fffffffffffffffffffffffff00000000000000000000000000000000000000001690550190555050565b6000818310611444578161095f565b5090919050565b60006060846001600160a01b031663a9059cbb85856040516024016114719291906117fb565b6040516020818303038152906040529060e01b6020820180517bffffffffffffffffffffffffffffffffffffffffffffffffffffffff83818316178352505050506040516114bf91906117ae565b6000604051808303816000865af19150503d80600081146114fc576040519150601f19603f3d011682016040523d82523d6000602084013e611501565b606091505b509150915081801561152b57508051158061152b57508080602001905181019061152b91906116af565b6104345760405162461bcd60e51b8152600401610421906118e1565b6001600160a01b0383166000908152600360205260409020600881015460ff166115835760405162461bcd60e51b815260040161042190611a2b565b6001600160a01b03831660009081526007820160205260409020548015610434576001600160a01b03808516600090815260078401602052604081205582546115ce9116848361144b565b81546040516001600160a01b038087169216907fce405e67b4d6e56e438257e15f160ae28b450e6e7659bbc4c1f4e09a1ac846cb9061161090879086906117fb565b60405180910390a35050505050565b80356001600160a01b03811681146107bd57600080fd5b600060208284031215611647578081fd5b61095f838361161f565b60008060408385031215611663578081fd5b61166d848461161f565b915061167c846020850161161f565b90509250929050565b60008060408385031215611697578182fd5b6116a1848461161f565b946020939093013593505050565b6000602082840312156116c0578081fd5b8151801515811461095f578182fd5b6000602082840312156116e0578081fd5b5035919050565b6000602082840312156116f8578081fd5b5051919050565b600080600080600060a08688031215611716578081fd5b85359450611727876020880161161f565b9350611736876040880161161f565b94979396509394606081013594506080013592915050565b600080600060608486031215611762578283fd5b83359250611773856020860161161f565b9150604084013590509250925092565b60008060408385031215611795578182fd5b505080516020909101519092909150565b815260200190565b60008251815b818110156117ce57602081860181015185830152016117b4565b818111156117dc5782828501525b509190910192915050565b6001600160a01b0391909116815260200190565b6001600160a01b03929092168252602082015260400190565b604080825283519082018190526000906020906060840190828701845b828110156118565781516001600160a01b031684529284019290840190600101611831565b5050508381038285015280855161186d8184611c66565b91508387019250845b81811015611897576118898385516117a6565b938501939250600101611876565b5090979650505050505050565b6001600160a01b03979097168752602087019590955260408601939093526060850191909152608084015260a0830152151560c082015260e00190565b6020808252601c908201527f426f72696e6745524332303a205472616e73666572206661696c656400000000604082015260600190565b6020808252600b908201527f21676f7665726e616e6365000000000000000000000000000000000000000000604082015260600190565b6020808252601b908201527f536166654d6174683a206164646974696f6e206f766572666c6f770000000000604082015260600190565b6020808252601e908201527f536166654d6174683a207375627472616374696f6e206f766572666c6f770000604082015260600190565b6020808252601a908201527f536166654d6174683a206469766973696f6e206279207a65726f000000000000604082015260600190565b60208082526010908201527f4475726174696f6e206973206e756c6c00000000000000000000000000000000604082015260600190565b60208082526010908201527f506f6f6c20697320696e61637469766500000000000000000000000000000000604082015260600190565b60208082526021908201527f536166654d6174683a206d756c7469706c69636174696f6e206f766572666c6f60408201527f7700000000000000000000000000000000000000000000000000000000000000606082015260800190565b60208082526007908201527f21706172656e7400000000000000000000000000000000000000000000000000604082015260600190565b60208082526018908201527f50726f76696465642072657761726420746f6f20686967680000000000000000604082015260600190565b60208082526011908201527f506f6f6c206973206e6f74206164646564000000000000000000000000000000604082015260600190565b60208082526015908201527f52657761726420706f6f6c206e6f7420666f756e640000000000000000000000604082015260600190565b60208082526023908201527f43616e6e6f74207769746864726177206163746976652072657761726420746f60408201527f6b656e0000000000000000000000000000000000000000000000000000000000606082015260800190565b60208082526014908201527f2172657761726473446973747269627574696f6e000000000000000000000000604082015260600190565b6020808252600e908201527f506f6f6c20697320616374697665000000000000000000000000000000000000604082015260600190565b90815260200190565b9182526001600160a01b031660208201526040019056fea264697066735822122005a6bb4707f47d6bc88ef004a821f4989f787482bacda49d097e4e87738668f264736f6c634300060c0033a2646970667358221220f44197035d2b0a90e340e4cbbcdba3de5170e6c537fc398a631db768806964a964736f6c634300060c0033",
  "devdoc": {
    "kind": "dev",
    "methods": {},
    "version": 1
  },
  "userdoc": {
    "kind": "user",
    "methods": {},
    "version": 1
  },
  "storageLayout": {
    "storage": [],
    "types": null
  }
}