{
  "address": "0x836353Ba1844AE6FafB07786743f44aBE1E8EBb7",
  "abi": [
    {
      "anonymous": false,
      "inputs": [
        {
          "indexed": false,
          "internalType": "address",
          "name": "tokenAddress",
          "type": "address"
        }
      ],
      "name": "BonusChefCreated",
      "type": "event"
    },
    {
      "inputs": [
        {
          "internalType": "contract IMiniChefV2",
          "name": "miniChef",
          "type": "address"
        },
        {
          "internalType": "uint256",
          "name": "chefPoolID",
          "type": "uint256"
        },
        {
          "internalType": "address",
          "name": "rewardsDistribution",
          "type": "address"
        }
      ],
      "name": "deploy",
      "outputs": [
        {
          "internalType": "address",
          "name": "",
          "type": "address"
        }
      ],
      "stateMutability": "nonpayable",
      "type": "function"
    }
  ],
  "transactionHash": "0xdfaab5bf01abd9c8012e65e8f9cbdd1ea8228ecbd89dea007f69b69443270428",
  "args": [],
  "numDeployments": 1,
  "solcInputHash": "fdf3a3c1f84ea16812db3e5dbdfc2555",
  "bytecode": "0x608060405234801561001057600080fd5b5061208a806100206000396000f3fe608060405234801561001057600080fd5b506004361061002b5760003560e01c80638408681d14610030575b600080fd5b6100736004803603606081101561004657600080fd5b5073ffffffffffffffffffffffffffffffffffffffff81358116916020810135916040909101351661009c565b6040805173ffffffffffffffffffffffffffffffffffffffff9092168252519081900360200190f35b600080848484336040516100af90610182565b808573ffffffffffffffffffffffffffffffffffffffff1681526020018481526020018373ffffffffffffffffffffffffffffffffffffffff1681526020018273ffffffffffffffffffffffffffffffffffffffff168152602001945050505050604051809103906000f08015801561012c573d6000803e3d6000fd5b506040805173ffffffffffffffffffffffffffffffffffffffff8316815290519192507fea1fddb842218c9428c3d55279c02be3e3f408157d572919f9d451d580151801919081900360200190a1949350505050565b611ec5806101908339019056fe60e060405234801561001057600080fd5b50604051611ec5380380611ec58339818101604052608081101561003357600080fd5b50805160208083015160408085015160609586015160016000559585901b6001600160601b03191660805260a083905281516378ed5d1f60e01b81526004810184905291519495929490936001600160a01b038716926378ed5d1f9260248083019392829003018186803b1580156100aa57600080fd5b505afa1580156100be573d6000803e3d6000fd5b505050506040513d60208110156100d457600080fd5b50516001600160601b031960609190911b1660c052600180546001600160a01b039384166001600160a01b03199182161790915560028054929093169116179055505060805160601c60a05160c05160601c611d7261015360003980610721525080610dcc52508061069a52806107505280610d9d5250611d726000f3fe608060405234801561001057600080fd5b50600436106101b95760003560e01c8063638634ee116100f9578063b66503cf11610097578063da09d19d11610071578063da09d19d1461060d578063e70b9e2714610633578063eb9e5ddc14610661578063f122977714610669576101b9565b8063b66503cf146104f0578063bcd110141461051c578063d63b3c4914610542576101b9565b80637eb48966116100d35780637eb4896614610461578063839006f21461047e5780639ce43f90146104a4578063ab033ea9146104ca576101b9565b8063638634ee146103e75780637035ab981461040d57806370a082311461043b576101b9565b8063221ca18c11610166578063372d944811610140578063372d9448146103475780633fc6df6e146103b15780635aa6e675146103b95780635d910351146103c1576101b9565b8063221ca18c146102d55780632ce9aead146102fb57806333d4cbf314610321576101b9565b80631c5ef433116101975780631c5ef433146102425780631dfa8e811461026e578063211dc32d146102a7576101b9565b80630eb9eaf1146101be57806318160ddd14610202578063197621431461021c575b600080fd5b610200600480360360a08110156101d457600080fd5b508035906001600160a01b0360208201358116916040810135909116906060810135906080013561068f565b005b61020a61071d565b60408051918252519081900360200190f35b6102006004803603602081101561023257600080fd5b50356001600160a01b03166107dd565b6102006004803603604081101561025857600080fd5b506001600160a01b038135169060200135610876565b61028b6004803603602081101561028457600080fd5b5035610aae565b604080516001600160a01b039092168252519081900360200190f35b61020a600480360360408110156102bd57600080fd5b506001600160a01b0381358116916020013516610ad5565b61020a600480360360208110156102eb57600080fd5b50356001600160a01b0316610b5c565b61020a6004803603602081101561031157600080fd5b50356001600160a01b0316610b7e565b6102006004803603602081101561033757600080fd5b50356001600160a01b0316610b9c565b61036d6004803603602081101561035d57600080fd5b50356001600160a01b0316610cb2565b604080516001600160a01b0390981688526020880196909652868601949094526060860192909252608085015260a0840152151560c0830152519081900360e00190f35b61028b610cfd565b61028b610d0c565b61020a600480360360208110156103d757600080fd5b50356001600160a01b0316610d1b565b61020a600480360360208110156103fd57600080fd5b50356001600160a01b0316610d3a565b61020a6004803603604081101561042357600080fd5b506001600160a01b0381358116916020013516610d69565b61020a6004803603602081101561045157600080fd5b50356001600160a01b0316610d98565b6102006004803603602081101561047757600080fd5b5035610e62565b6102006004803603602081101561049457600080fd5b50356001600160a01b0316610ecd565b61020a600480360360208110156104ba57600080fd5b50356001600160a01b0316611020565b610200600480360360208110156104e057600080fd5b50356001600160a01b031661103e565b6102006004803603604081101561050657600080fd5b506001600160a01b0381351690602001356110d7565b61020a6004803603602081101561053257600080fd5b50356001600160a01b031661140f565b6105746004803603606081101561055857600080fd5b508035906001600160a01b03602082013516906040013561143b565b604051808060200180602001838103835285818151815260200191508051906020019060200280838360005b838110156105b85781810151838201526020016105a0565b50505050905001838103825284818151815260200191508051906020019060200280838360005b838110156105f75781810151838201526020016105df565b5050505090500194505050505060405180910390f35b61020a6004803603602081101561062357600080fd5b50356001600160a01b0316611579565b61020a6004803603604081101561064957600080fd5b506001600160a01b0381358116916020013516611597565b61020a6115c6565b61020a6004803603602081101561067f57600080fd5b50356001600160a01b03166115cc565b336001600160a01b037f0000000000000000000000000000000000000000000000000000000000000000161461070c576040805162461bcd60e51b815260206004820152600760248201527f21706172656e7400000000000000000000000000000000000000000000000000604482015290519081900360640190fd5b610716848461163f565b5050505050565b60007f00000000000000000000000000000000000000000000000000000000000000006001600160a01b03166370a082317f00000000000000000000000000000000000000000000000000000000000000006040518263ffffffff1660e01b815260040180826001600160a01b0316815260200191505060206040518083038186803b1580156107ac57600080fd5b505afa1580156107c0573d6000803e3d6000fd5b505050506040513d60208110156107d657600080fd5b5051905090565b6002546001600160a01b0316331461083c576040805162461bcd60e51b815260206004820152600b60248201527f21676f7665726e616e6365000000000000000000000000000000000000000000604482015290519081900360640190fd5b600180547fffffffffffffffffffffffff0000000000000000000000000000000000000000166001600160a01b0392909216919091179055565b6002546001600160a01b031633146108d5576040805162461bcd60e51b815260206004820152600b60248201527f21676f7665726e616e6365000000000000000000000000000000000000000000604482015290519081900360640190fd5b6001600160a01b03821660009081526003602052604090206008015460ff1615610946576040805162461bcd60e51b815260206004820152600e60248201527f506f6f6c20697320616374697665000000000000000000000000000000000000604482015290519081900360640190fd5b80610998576040805162461bcd60e51b815260206004820152601060248201527f4475726174696f6e206973206e756c6c00000000000000000000000000000000604482015290519081900360640190fd5b6040805160e0810182526001600160a01b0393841680825260006020808401828152848601838152606086019788526080860184815260a08701858152600160c08901818152888852600396879052998720985189549c167fffffffffffffffffffffffff00000000000000000000000000000000000000009c8d16178955935188850155915160028801559751928601929092559551600480860191909155905160058501559351600890930180549315157fffffffffffffffffffffffffffffffffffffffffffffffffffffffffffffff0090941693909317909255825493840183559190527f8a35acfbc15ff81a39ae7d344fd709f28e8600b4aa8c65c6b64bfe7fe36bd19b9091018054909216179055565b60048181548110610abb57fe5b6000918252602090912001546001600160a01b0316905081565b6001600160a01b03808316600090815260036020908152604080832093851683526007840182528083205460068501909252822054919291610b529190610b4c90670de0b6b3a764000090610b4690610b3790610b318b6115cc565b9061175d565b610b4089610d98565b906117ba565b90611813565b9061187a565b9150505b92915050565b6001600160a01b0381166000908152600360205260409020600201545b919050565b6001600160a01b031660009081526003602052604090206004015490565b6002546001600160a01b03163314610bfb576040805162461bcd60e51b815260206004820152600b60248201527f21676f7665726e616e6365000000000000000000000000000000000000000000604482015290519081900360640190fd5b60008060005b600454811015610c5157836001600160a01b031660048281548110610c2257fe5b6000918252602090912001546001600160a01b03161415610c495780925060019150610c51565b600101610c01565b5080610ca4576040805162461bcd60e51b815260206004820152601560248201527f52657761726420706f6f6c206e6f7420666f756e640000000000000000000000604482015290519081900360640190fd5b610cad826118d4565b505050565b600360208190526000918252604090912080546001820154600283015493830154600484015460058501546008909501546001600160a01b0390941695929492939192909160ff1687565b6001546001600160a01b031681565b6002546001600160a01b031681565b6001600160a01b03166000908152600360208190526040909120015490565b6001600160a01b03811660009081526003602052604081206001810154610d62904290611a24565b9392505050565b6001600160a01b0391821660009081526003602090815260408083209390941682526006909201909152205490565b6000807f00000000000000000000000000000000000000000000000000000000000000006001600160a01b03166393f1a40b7f0000000000000000000000000000000000000000000000000000000000000000856040518363ffffffff1660e01b815260040180838152602001826001600160a01b0316815260200192505050604080518083038186803b158015610e2f57600080fd5b505afa158015610e43573d6000803e3d6000fd5b505050506040513d6040811015610e5957600080fd5b50519392505050565b6002546001600160a01b03163314610ec1576040805162461bcd60e51b815260206004820152600b60248201527f21676f7665726e616e6365000000000000000000000000000000000000000000604482015290519081900360640190fd5b610eca816118d4565b50565b6002546001600160a01b03163314610f2c576040805162461bcd60e51b815260206004820152600b60248201527f21676f7665726e616e6365000000000000000000000000000000000000000000604482015290519081900360640190fd5b6001600160a01b0381166000908152600360205260409020600881015460ff1615610f885760405162461bcd60e51b8152600401808060200182810382526023815260200180611d1a6023913960400191505060405180910390fd5b6000826001600160a01b03166370a08231306040518263ffffffff1660e01b815260040180826001600160a01b0316815260200191505060206040518083038186803b158015610fd757600080fd5b505afa158015610feb573d6000803e3d6000fd5b505050506040513d602081101561100157600080fd5b5051600254909150610cad906001600160a01b03858116911683611a3a565b6001600160a01b031660009081526003602052604090206005015490565b6002546001600160a01b0316331461109d576040805162461bcd60e51b815260206004820152600b60248201527f21676f7665726e616e6365000000000000000000000000000000000000000000604482015290519081900360640190fd5b600280547fffffffffffffffffffffffff0000000000000000000000000000000000000000166001600160a01b0392909216919091179055565b6001546001600160a01b03163314611136576040805162461bcd60e51b815260206004820152601460248201527f2172657761726473446973747269627574696f6e000000000000000000000000604482015290519081900360640190fd5b6001600160a01b0380831660009081526003602052604081208054859361115d91166115cc565b60058201558054611176906001600160a01b0316610d3a565b60048201556001600160a01b038216156111d157805461119f906001600160a01b031683610ad5565b6001600160a01b0383166000908152600783016020908152604080832093909355600584015460068501909152919020555b6001600160a01b038516600090815260036020819052604090912090810154611241576040805162461bcd60e51b815260206004820152601160248201527f506f6f6c206973206e6f74206164646564000000000000000000000000000000604482015290519081900360640190fd5b8060010154421061126657600381015461125c908690611813565b60028201556112b1565b6001810154600090611278904261175d565b905060006112938360020154836117ba90919063ffffffff16565b60038401549091506112a990610b46898461187a565b600284015550505b8054604080517f70a0823100000000000000000000000000000000000000000000000000000000815230600482015290516000926001600160a01b0316916370a08231916024808301926020929190829003018186803b15801561131457600080fd5b505afa158015611328573d6000803e3d6000fd5b505050506040513d602081101561133e57600080fd5b50516003830154909150611353908290611813565b826002015411156113ab576040805162461bcd60e51b815260206004820152601860248201527f50726f76696465642072657761726420746f6f20686967680000000000000000604482015290519081900360640190fd5b426004830181905560038301546113c2919061187a565b60018301556040805187815290516001600160a01b038916917fac24935fd910bc682b5ccb1a07b718cadf8cf2f6d1404c4f3ddc3662dae40e29919081900360200190a250505050505050565b6001600160a01b03811660009081526003602081905260408220908101546002820154610d62916117ba565b6004546060908190818167ffffffffffffffff8111801561145b57600080fd5b50604051908082528060200260200182016040528015611485578160200160208202803683370190505b50905060608267ffffffffffffffff811180156114a157600080fd5b506040519080825280602002602001820160405280156114cb578160200160208202803683370190505b50905060005b838160ff16101561156b57600060048260ff16815481106114ee57fe5b9060005260206000200160009054906101000a90046001600160a01b0316905080848360ff168151811061151e57fe5b60200260200101906001600160a01b031690816001600160a01b031681525050611548818a610ad5565b838360ff168151811061155757fe5b6020908102919091010152506001016114d1565b509097909650945050505050565b6001600160a01b031660009081526003602052604090206001015490565b6001600160a01b0391821660009081526003602090815260408083209390941682526007909201909152205490565b60045490565b6001600160a01b0381166000908152600360205260408120816115ed61071d565b9050806116005750600501549050610b79565b61163761162c82610b46670de0b6b3a7640000610b408760020154610b408960040154610b318d610d3a565b60058401549061187a565b949350505050565b8160005b600454811015611715576000600360006004848154811061166057fe5b60009182526020808320909101546001600160a01b0390811684529083019390935260409091019020805490925061169891166115cc565b600582015580546116b1906001600160a01b0316610d3a565b60048201556001600160a01b0383161561170c5780546116da906001600160a01b031684610ad5565b6001600160a01b0384166000908152600783016020908152604080832093909355600584015460068501909152919020555b50600101611643565b5060005b6004548110156117575761174f6004828154811061173357fe5b6000918252602090912001546001600160a01b03168585611be9565b600101611719565b50505050565b6000828211156117b4576040805162461bcd60e51b815260206004820152601e60248201527f536166654d6174683a207375627472616374696f6e206f766572666c6f770000604482015290519081900360640190fd5b50900390565b6000826117c957506000610b56565b828202828482816117d657fe5b0414610d625760405162461bcd60e51b8152600401808060200182810382526021815260200180611cf96021913960400191505060405180910390fd5b6000808211611869576040805162461bcd60e51b815260206004820152601a60248201527f536166654d6174683a206469766973696f6e206279207a65726f000000000000604482015290519081900360640190fd5b81838161187257fe5b049392505050565b600082820183811015610d62576040805162461bcd60e51b815260206004820152601b60248201527f536166654d6174683a206164646974696f6e206f766572666c6f770000000000604482015290519081900360640190fd5b600060036000600484815481106118e757fe5b60009182526020808320909101546001600160a01b0316835282019290925260400190206008810180547fffffffffffffffffffffffffffffffffffffffffffffffffffffffffffffff0016905560048054919250907fffffffffffffffffffffffffffffffffffffffffffffffffffffffffffffffff810190811061196957fe5b600091825260209091200154600480546001600160a01b03909216918490811061198f57fe5b9060005260206000200160006101000a8154816001600160a01b0302191690836001600160a01b0316021790555060048054806119c857fe5b60008281526020902081017fffffffffffffffffffffffffffffffffffffffffffffffffffffffffffffffff90810180547fffffffffffffffffffffffff00000000000000000000000000000000000000001690550190555050565b6000818310611a335781610d62565b5090919050565b604080516001600160a01b038481166024830152604480830185905283518084039091018152606490920183526020820180517bffffffffffffffffffffffffffffffffffffffffffffffffffffffff167fa9059cbb00000000000000000000000000000000000000000000000000000000178152925182516000946060949389169392918291908083835b60208310611b0357805182527fffffffffffffffffffffffffffffffffffffffffffffffffffffffffffffffe09092019160209182019101611ac6565b6001836020036101000a0380198251168184511680821785525050505050509050019150506000604051808303816000865af19150503d8060008114611b65576040519150601f19603f3d011682016040523d82523d6000602084013e611b6a565b606091505b5091509150818015611b98575080511580611b985750808060200190516020811015611b9557600080fd5b50515b610716576040805162461bcd60e51b815260206004820152601c60248201527f426f72696e6745524332303a205472616e73666572206661696c656400000000604482015290519081900360640190fd5b6001600160a01b0383166000908152600360205260409020600881015460ff16611c5a576040805162461bcd60e51b815260206004820152601060248201527f506f6f6c20697320696e61637469766500000000000000000000000000000000604482015290519081900360640190fd5b6001600160a01b03831660009081526007820160205260409020548015610716576001600160a01b0380851660009081526007840160205260408120558254611ca591168483611a3a565b8154604080516001600160a01b03868116825260208201859052825181891694909116927fce405e67b4d6e56e438257e15f160ae28b450e6e7659bbc4c1f4e09a1ac846cb928290030190a3505050505056fe536166654d6174683a206d756c7469706c69636174696f6e206f766572666c6f7743616e6e6f74207769746864726177206163746976652072657761726420746f6b656ea2646970667358221220a6255eaceee40bfa84f156c9187230463c0016e5598a0a537df95179abf9b63964736f6c634300060c0033a26469706673582212200f050863f32181a60c7c463023e29c59d565e9b621964234abcf8e1ed12a12c764736f6c634300060c0033",
  "devdoc": {
    "kind": "dev",
    "methods": {},
    "version": 1
  },
  "userdoc": {
    "kind": "user",
    "methods": {},
    "version": 1
  },
  "storageLayout": {
    "storage": [],
    "types": null
  }
}