{
  "address": "0x77a7e60555bC18B4Be44C181b2575eee46212d44",
  "abi": [
    {
      "anonymous": false,
      "inputs": [
        {
          "indexed": false,
          "internalType": "address",
          "name": "tokenAddress",
          "type": "address"
        }
      ],
      "name": "BonusChefCreated",
      "type": "event"
    },
    {
      "inputs": [
        {
          "internalType": "contract IMiniChefV2",
          "name": "miniChef",
          "type": "address"
        },
        {
          "internalType": "uint256",
          "name": "chefPoolID",
          "type": "uint256"
        },
        {
          "internalType": "address",
          "name": "rewardsDistribution",
          "type": "address"
        },
        {
          "internalType": "address",
          "name": "governance",
          "type": "address"
        }
      ],
      "name": "deploy",
      "outputs": [
        {
          "internalType": "address",
          "name": "",
          "type": "address"
        }
      ],
      "stateMutability": "nonpayable",
      "type": "function"
    }
  ],
  "transactionHash": "0xae9d3cb6d99c2533e81dd5570e7a2516aae8cb588b2b5d9eb5d61e72a939b12f",
  "args": [],
  "solcInputHash": "ac0fd7d60dcb1a3d3edc3dddb03bac3e",
  "bytecode": "0x608060405234801561001057600080fd5b50612faa806100206000396000f3fe608060405234801561001057600080fd5b506004361061002b5760003560e01c80639efd114f14610030575b600080fd5b6100796004803603608081101561004657600080fd5b5073ffffffffffffffffffffffffffffffffffffffff8135811691602081013591604082013581169160600135166100a2565b6040805173ffffffffffffffffffffffffffffffffffffffff9092168252519081900360200190f35b600080858585856040516100b590610189565b808573ffffffffffffffffffffffffffffffffffffffff1681526020018481526020018373ffffffffffffffffffffffffffffffffffffffff1681526020018273ffffffffffffffffffffffffffffffffffffffff168152602001945050505050604051809103906000f080158015610132573d6000803e3d6000fd5b506040805173ffffffffffffffffffffffffffffffffffffffff8316815290519192507fea1fddb842218c9428c3d55279c02be3e3f408157d572919f9d451d580151801919081900360200190a195945050505050565b612dde806101978339019056fe60e06040523480156200001157600080fd5b5060405162002dde38038062002dde833981810160405260808110156200003757600080fd5b50805160208083015160408085015160609586015160016000559585901b6001600160601b03191660805260a083905281516378ed5d1f60e01b81526004810184905291519495929490936001600160a01b038716926378ed5d1f9260248083019392829003018186803b158015620000af57600080fd5b505afa158015620000c4573d6000803e3d6000fd5b505050506040513d6020811015620000db57600080fd5b505160601b6001600160601b03191660c0526200010860008051602062002dbe8339815191528262000172565b6200012360008051602062002d9e8339815191528362000172565b6200013e60008051602062002dbe8339815191528062000182565b6200016860008051602062002d9e83398151915260008051602062002dbe83398151915262000182565b50505050620002da565b6200017e8282620001d4565b5050565b600082815260016020526040808220600201549051839285917fbd79b86ffe0ab8e8776151514217cd7cacd52c909f66475c3af44e129f0b00ff9190a460009182526001602052604090912060020155565b6000828152600160209081526040909120620001fb91839062001d1d6200024f821b17901c565b156200017e576200020b6200026f565b6001600160a01b0316816001600160a01b0316837f2f8788117e7eff1d82e926ec794901d17c78024a50270940304540a733656f0d60405160405180910390a45050565b600062000266836001600160a01b03841662000273565b90505b92915050565b3390565b6000620002818383620002c2565b620002b95750815460018181018455600084815260208082209093018490558454848252828601909352604090209190915562000269565b50600062000269565b60009081526001919091016020526040902054151590565b60805160601c60a05160c05160601c612a6e62000330600039806109a15280611cfb525080610b13528061114c52806111a25250806108b452806109d05280610ae452806110ac52806111735250612a6e6000f3fe608060405234801561001057600080fd5b50600436106102925760003560e01c8063839006f211610160578063d38bfff4116100d8578063e70b9e271161008c578063f122977711610071578063f122977714610873578063f36c8f5c14610899578063ff0d75ff146108a157610292565b8063e70b9e271461083d578063eb9e5ddc1461086b57610292565b8063d63b3c49116100bd578063d63b3c4914610744578063da09d19d1461080f578063e381bef61461083557610292565b8063d38bfff4146106f2578063d547741f1461071857610292565b8063a217fddf1161012f578063b6973f7211610114578063b6973f7214610689578063bcd11014146106af578063ca15c873146106d557610292565b8063a217fddf14610655578063b66503cf1461065d57610292565b8063839006f2146105a65780639010d07c146105cc57806391d14854146105ef5780639ce43f901461062f57610292565b806333d4cbf31161020e578063638634ee116101c25780637036828e116101a75780637036828e1461055b57806370a08231146105635780637eb489661461058957610292565b8063638634ee146105075780637035ab981461052d57610292565b8063372d9448116101f3578063372d94481461046f5780634005760a146104d95780635d910351146104e157610292565b806333d4cbf31461041d57806336568abe1461044357610292565b8063211dc32d11610265578063248a9ca31161024a578063248a9ca3146103ae5780632ce9aead146103cb5780632f2ff15d146103f157610292565b8063211dc32d1461035a578063221ca18c1461038857610292565b80630eb9eaf11461029757806318160ddd146102db5780631c5ef433146102f55780631dfa8e8114610321575b600080fd5b6102d9600480360360a08110156102ad57600080fd5b508035906001600160a01b036020820135811691604081013590911690606081013590608001356108a9565b005b6102e361099d565b60408051918252519081900360200190f35b6102d96004803603604081101561030b57600080fd5b506001600160a01b038135169060200135610a5d565b61033e6004803603602081101561033757600080fd5b5035610dc6565b604080516001600160a01b039092168252519081900360200190f35b6102e36004803603604081101561037057600080fd5b506001600160a01b0381358116916020013516610ded565b6102e36004803603602081101561039e57600080fd5b50356001600160a01b0316610e0b565b6102e3600480360360208110156103c457600080fd5b5035610e2e565b6102e3600480360360208110156103e157600080fd5b50356001600160a01b0316610e43565b6102d96004803603604081101561040757600080fd5b50803590602001356001600160a01b0316610e61565b6102d96004803603602081101561043357600080fd5b50356001600160a01b0316610ecd565b6102d96004803603604081101561045957600080fd5b50803590602001356001600160a01b0316610fff565b6104956004803603602081101561048557600080fd5b50356001600160a01b0316611060565b604080516001600160a01b0390981688526020880196909652868601949094526060860192909252608085015260a0840152151560c0830152519081900360e00190f35b61033e6110aa565b6102e3600480360360208110156104f757600080fd5b50356001600160a01b03166110ce565b6102e36004803603602081101561051d57600080fd5b50356001600160a01b03166110ec565b6102e36004803603604081101561054357600080fd5b506001600160a01b038135811691602001351661111b565b6102e361114a565b6102e36004803603602081101561057957600080fd5b50356001600160a01b031661116e565b6102d96004803603602081101561059f57600080fd5b5035611238565b6102d9600480360360208110156105bc57600080fd5b50356001600160a01b03166112bf565b61033e600480360360408110156105e257600080fd5b5080359060200135611427565b61061b6004803603604081101561060557600080fd5b50803590602001356001600160a01b031661143f565b604080519115158252519081900360200190f35b6102e36004803603602081101561064557600080fd5b50356001600160a01b0316611457565b6102e3611475565b6102d96004803603604081101561067357600080fd5b506001600160a01b03813516906020013561147a565b6102d96004803603602081101561069f57600080fd5b50356001600160a01b0316611843565b6102e3600480360360208110156106c557600080fd5b50356001600160a01b03166118e8565b6102e3600480360360208110156106eb57600080fd5b5035611917565b6102d96004803603602081101561070857600080fd5b50356001600160a01b031661192e565b6102d96004803603604081101561072e57600080fd5b50803590602001356001600160a01b0316611a39565b6107766004803603606081101561075a57600080fd5b508035906001600160a01b036020820135169060400135611a92565b604051808060200180602001838103835285818151815260200191508051906020019060200280838360005b838110156107ba5781810151838201526020016107a2565b50505050905001838103825284818151815260200191508051906020019060200280838360005b838110156107f95781810151838201526020016107e1565b5050505090500194505050505060405180910390f35b6102e36004803603602081101561082557600080fd5b50356001600160a01b0316611bdf565b6102e3611bfd565b6102e36004803603604081101561085357600080fd5b506001600160a01b0381358116916020013516611c21565b6102e3611c50565b6102e36004803603602081101561088957600080fd5b50356001600160a01b0316611c56565b6102e3611cd5565b61033e611cf9565b336001600160a01b037f00000000000000000000000000000000000000000000000000000000000000001614610926576040805162461bcd60e51b815260206004820152600760248201527f21706172656e7400000000000000000000000000000000000000000000000000604482015290519081900360640190fd5b6002600054141561097e576040805162461bcd60e51b815260206004820152601f60248201527f5265656e7472616e637947756172643a207265656e7472616e742063616c6c00604482015290519081900360640190fd5b6002600055610991848483851515611d32565b50506001600055505050565b60007f00000000000000000000000000000000000000000000000000000000000000006001600160a01b03166370a082317f00000000000000000000000000000000000000000000000000000000000000006040518263ffffffff1660e01b815260040180826001600160a01b0316815260200191505060206040518083038186803b158015610a2c57600080fd5b505afa158015610a40573d6000803e3d6000fd5b505050506040513d6020811015610a5657600080fd5b5051905090565b610a877f71840dc4906352362b0cdaf79870196c8e42acafade72d5d5a6d59291253ceb13361143f565b610ad8576040805162461bcd60e51b815260206004820152600b60248201527f21676f7665726e616e6365000000000000000000000000000000000000000000604482015290519081900360640190fd5b306001600160a01b03167f00000000000000000000000000000000000000000000000000000000000000006001600160a01b031663c346253d7f00000000000000000000000000000000000000000000000000000000000000006040518263ffffffff1660e01b81526004018082815260200191505060206040518083038186803b158015610b6657600080fd5b505afa158015610b7a573d6000803e3d6000fd5b505050506040513d6020811015610b9057600080fd5b50516001600160a01b031614610bed576040805162461bcd60e51b815260206004820152601a60248201527f4d696e694368656620706f6f6c2069736e277420736574207570000000000000604482015290519081900360640190fd5b6001600160a01b03821660009081526002602052604090206008015460ff1615610c5e576040805162461bcd60e51b815260206004820152600e60248201527f506f6f6c20697320616374697665000000000000000000000000000000000000604482015290519081900360640190fd5b80610cb0576040805162461bcd60e51b815260206004820152601060248201527f4475726174696f6e206973206e756c6c00000000000000000000000000000000604482015290519081900360640190fd5b6040805160e0810182526001600160a01b0393841680825260006020808401828152848601838152606086019788526080860184815260a08701858152600160c08901818152888852600296879052998720985189549c167fffffffffffffffffffffffff00000000000000000000000000000000000000009c8d16178955935188850155915193870193909355965160038087019190915591516004860155955160058501559351600890930180549315157fffffffffffffffffffffffffffffffffffffffffffffffffffffffffffffff0090941693909317909255825493840183559190527fc2575a0e9e593c00f959f8c92f12db2869c3395a3b0502d05e2516446f71f85b9091018054909216179055565b60038181548110610dd357fe5b6000918252602090912001546001600160a01b0316905081565b6000610e028383610dfd8561116e565b611e5c565b90505b92915050565b6001600160a01b038116600090815260026020819052604090912001545b919050565b60009081526001602052604090206002015490565b6001600160a01b031660009081526002602052604090206004015490565b600082815260016020526040902060020154610e8490610e7f611ece565b61143f565b610ebf5760405162461bcd60e51b815260040180806020018281038252602f815260200180612967602f913960400191505060405180910390fd5b610ec98282611ed2565b5050565b610ef77f71840dc4906352362b0cdaf79870196c8e42acafade72d5d5a6d59291253ceb13361143f565b610f48576040805162461bcd60e51b815260206004820152600b60248201527f21676f7665726e616e6365000000000000000000000000000000000000000000604482015290519081900360640190fd5b60008060005b600354811015610f9e57836001600160a01b031660038281548110610f6f57fe5b6000918252602090912001546001600160a01b03161415610f965780925060019150610f9e565b600101610f4e565b5080610ff1576040805162461bcd60e51b815260206004820152601560248201527f52657761726420706f6f6c206e6f7420666f756e640000000000000000000000604482015290519081900360640190fd5b610ffa82611f3b565b505050565b611007611ece565b6001600160a01b0316816001600160a01b0316146110565760405162461bcd60e51b815260040180806020018281038252602f815260200180612a0a602f913960400191505060405180910390fd5b610ec982826120e3565b600260208190526000918252604090912080546001820154928201546003830154600484015460058501546008909501546001600160a01b03909416959492939192909160ff1687565b7f000000000000000000000000000000000000000000000000000000000000000081565b6001600160a01b031660009081526002602052604090206003015490565b6001600160a01b0381166000908152600260205260408120600181015461111490429061214c565b9392505050565b6001600160a01b0391821660009081526002602090815260408083209390941682526006909201909152205490565b7f000000000000000000000000000000000000000000000000000000000000000081565b6000807f00000000000000000000000000000000000000000000000000000000000000006001600160a01b03166393f1a40b7f0000000000000000000000000000000000000000000000000000000000000000856040518363ffffffff1660e01b815260040180838152602001826001600160a01b0316815260200192505050604080518083038186803b15801561120557600080fd5b505afa158015611219573d6000803e3d6000fd5b505050506040513d604081101561122f57600080fd5b50519392505050565b6112627f71840dc4906352362b0cdaf79870196c8e42acafade72d5d5a6d59291253ceb13361143f565b6112b3576040805162461bcd60e51b815260206004820152600b60248201527f21676f7665726e616e6365000000000000000000000000000000000000000000604482015290519081900360640190fd5b6112bc81611f3b565b50565b6112e97f71840dc4906352362b0cdaf79870196c8e42acafade72d5d5a6d59291253ceb13361143f565b61133a576040805162461bcd60e51b815260206004820152600b60248201527f21676f7665726e616e6365000000000000000000000000000000000000000000604482015290519081900360640190fd5b6001600160a01b0381166000908152600260205260409020600881015460ff16156113965760405162461bcd60e51b81526004018080602001828103825260238152602001806129e76023913960400191505060405180910390fd5b6000826001600160a01b03166370a08231306040518263ffffffff1660e01b815260040180826001600160a01b0316815260200191505060206040518083038186803b1580156113e557600080fd5b505afa1580156113f9573d6000803e3d6000fd5b505050506040513d602081101561140f57600080fd5b50519050610ffa6001600160a01b0384163383612162565b6000828152600160205260408120610e029083612318565b6000828152600160205260408120610e029083612324565b6001600160a01b031660009081526002602052604090206005015490565b600081565b6114a47fd208cee4e5c276797506bf2048f7c1b03b32c5e17ee2bbc1f54b5df96001c2143361143f565b6114f5576040805162461bcd60e51b815260206004820152601460248201527f2172657761726473446973747269627574696f6e000000000000000000000000604482015290519081900360640190fd5b6001600160a01b0380831660009081526002602052604081208054859383929161151f9116611c56565b60058201558054611538906001600160a01b03166110ec565b60048201556001600160a01b03831615611594578054611562906001600160a01b03168484611e5c565b6001600160a01b0384166000908152600783016020908152604080832093909355600584015460068501909152919020555b846115e6576040805162461bcd60e51b815260206004820152601460248201527f5a65726f207265776172642070726f7669646564000000000000000000000000604482015290519081900360640190fd5b6001600160a01b0386166000908152600260205260409020600881015460ff16611657576040805162461bcd60e51b815260206004820152601160248201527f506f6f6c206973206e6f74206164646564000000000000000000000000000000604482015290519081900360640190fd5b805461166e906001600160a01b0316333089612339565b806001015442106116935760038101546116899087906124f0565b60028201556116e4565b60018101546000906116a59042612557565b905060006116c08360020154836125b490919063ffffffff16565b60038401549091506116dc906116d68a8461260d565b906124f0565b600284015550505b8054604080517f70a0823100000000000000000000000000000000000000000000000000000000815230600482015290516000926001600160a01b0316916370a08231916024808301926020929190829003018186803b15801561174757600080fd5b505afa15801561175b573d6000803e3d6000fd5b505050506040513d602081101561177157600080fd5b505160038301549091506117869082906124f0565b826002015411156117de576040805162461bcd60e51b815260206004820152601860248201527f50726f76696465642072657761726420746f6f20686967680000000000000000604482015290519081900360640190fd5b426004830181905560038301546117f5919061260d565b60018301556040805188815290516001600160a01b038a16917fac24935fd910bc682b5ccb1a07b718cadf8cf2f6d1404c4f3ddc3662dae40e29919081900360200190a25050505050505050565b61186d7f71840dc4906352362b0cdaf79870196c8e42acafade72d5d5a6d59291253ceb13361143f565b6118be576040805162461bcd60e51b815260206004820152600b60248201527f21676f7665726e616e6365000000000000000000000000000000000000000000604482015290519081900360640190fd5b6112bc7fd208cee4e5c276797506bf2048f7c1b03b32c5e17ee2bbc1f54b5df96001c21482610ebf565b6001600160a01b03811660009081526002602081905260408220600381015491810154909161111491906125b4565b6000818152600160205260408120610e0590612667565b6119587f71840dc4906352362b0cdaf79870196c8e42acafade72d5d5a6d59291253ceb13361143f565b6119a9576040805162461bcd60e51b815260206004820152600b60248201527f21676f7665726e616e6365000000000000000000000000000000000000000000604482015290519081900360640190fd5b604080516001600160a01b038316815290517f5ab1e8b2c0a96bffa69cb323894590e00556bdce76b87d529100949740e6a55a9181900360200190a1611a0f7f71840dc4906352362b0cdaf79870196c8e42acafade72d5d5a6d59291253ceb133610fff565b6112bc7f71840dc4906352362b0cdaf79870196c8e42acafade72d5d5a6d59291253ceb182610ebf565b600082815260016020526040902060020154611a5790610e7f611ece565b6110565760405162461bcd60e51b81526004018080602001828103825260308152602001806129966030913960400191505060405180910390fd5b6003546060908190818167ffffffffffffffff81118015611ab257600080fd5b50604051908082528060200260200182016040528015611adc578160200160208202803683370190505b50905060608267ffffffffffffffff81118015611af857600080fd5b50604051908082528060200260200182016040528015611b22578160200160208202803683370190505b5090506000611b308861116e565b905060005b848160ff161015611bd057600060038260ff1681548110611b5257fe5b9060005260206000200160009054906101000a90046001600160a01b0316905080858360ff1681518110611b8257fe5b60200260200101906001600160a01b031690816001600160a01b031681525050611bad818b85611e5c565b848360ff1681518110611bbc57fe5b602090810291909101015250600101611b35565b50919890975095505050505050565b6001600160a01b031660009081526002602052604090206001015490565b7fd208cee4e5c276797506bf2048f7c1b03b32c5e17ee2bbc1f54b5df96001c21481565b6001600160a01b0391821660009081526002602090815260408083209390941682526007909201909152205490565b60035490565b6001600160a01b038116600090815260026020526040812081611c7761099d565b905080611c8a5750600501549050610e29565b611ccd611cc2826116d6670de0b6b3a7640000611cbc8760020154611cbc8960040154611cb68d6110ec565b90612557565b906125b4565b60058401549061260d565b949350505050565b7f71840dc4906352362b0cdaf79870196c8e42acafade72d5d5a6d59291253ceb181565b7f000000000000000000000000000000000000000000000000000000000000000081565b6000610e02836001600160a01b038416612672565b838260005b600354811015611e0a5760006002600060038481548110611d5457fe5b60009182526020808320909101546001600160a01b03908116845290830193909352604090910190208054909250611d8c9116611c56565b60058201558054611da5906001600160a01b03166110ec565b60048201556001600160a01b03841615611e01578054611dcf906001600160a01b03168585611e5c565b6001600160a01b0385166000908152600783016020908152604080832093909355600584015460068501909152919020555b50600101611d37565b508215611e545760005b600354811015611e5257611e4a60038281548110611e2e57fe5b6000918252602090912001546001600160a01b031688886126bc565b600101611e14565b505b505050505050565b6001600160a01b03808416600090815260026020908152604080832093861683526007840182528083205460068501909252822054919291611ec59190611ebf90670de0b6b3a7640000906116d690611eb890611cb68c611c56565b88906125b4565b9061260d565b95945050505050565b3390565b6000828152600160205260409020611eea9082611d1d565b15610ec957611ef7611ece565b6001600160a01b0316816001600160a01b0316837f2f8788117e7eff1d82e926ec794901d17c78024a50270940304540a733656f0d60405160405180910390a45050565b60006002600060038481548110611f4e57fe5b60009182526020808320909101546001600160a01b0316835282019290925260400190206001810154909150421015611fce576040805162461bcd60e51b815260206004820152601660248201527f506f6f6c20686173206e6f7420636f6e636c7564656400000000000000000000604482015290519081900360640190fd5b6008810180547fffffffffffffffffffffffffffffffffffffffffffffffffffffffffffffff00169055600380547fffffffffffffffffffffffffffffffffffffffffffffffffffffffffffffffff810190811061202857fe5b600091825260209091200154600380546001600160a01b03909216918490811061204e57fe5b9060005260206000200160006101000a8154816001600160a01b0302191690836001600160a01b03160217905550600380548061208757fe5b60008281526020902081017fffffffffffffffffffffffffffffffffffffffffffffffffffffffffffffffff90810180547fffffffffffffffffffffffff00000000000000000000000000000000000000001690550190555050565b60008281526001602052604090206120fb90826127cb565b15610ec957612108611ece565b6001600160a01b0316816001600160a01b0316837ff6391f5c32d9c69d2a47ea670b442974b53935d1edc7fd64eb21e047a839171b60405160405180910390a45050565b600081831061215b5781610e02565b5090919050565b604080516001600160a01b038481166024830152604480830185905283518084039091018152606490920183526020820180517bffffffffffffffffffffffffffffffffffffffffffffffffffffffff167fa9059cbb00000000000000000000000000000000000000000000000000000000178152925182516000946060949389169392918291908083835b6020831061222b57805182527fffffffffffffffffffffffffffffffffffffffffffffffffffffffffffffffe090920191602091820191016121ee565b6001836020036101000a0380198251168184511680821785525050505050509050019150506000604051808303816000865af19150503d806000811461228d576040519150601f19603f3d011682016040523d82523d6000602084013e612292565b606091505b50915091508180156122c05750805115806122c057508080602001905160208110156122bd57600080fd5b50515b612311576040805162461bcd60e51b815260206004820152601c60248201527f426f72696e6745524332303a205472616e73666572206661696c656400000000604482015290519081900360640190fd5b5050505050565b6000610e0283836127e0565b6000610e02836001600160a01b038416612844565b604080516001600160a01b0385811660248301528481166044830152606480830185905283518084039091018152608490920183526020820180517bffffffffffffffffffffffffffffffffffffffffffffffffffffffff167f23b872dd0000000000000000000000000000000000000000000000000000000017815292518251600094606094938a169392918291908083835b6020831061240a57805182527fffffffffffffffffffffffffffffffffffffffffffffffffffffffffffffffe090920191602091820191016123cd565b6001836020036101000a0380198251168184511680821785525050505050509050019150506000604051808303816000865af19150503d806000811461246c576040519150601f19603f3d011682016040523d82523d6000602084013e612471565b606091505b509150915081801561249f57508051158061249f575080806020019051602081101561249c57600080fd5b50515b611e54576040805162461bcd60e51b815260206004820181905260248201527f426f72696e6745524332303a205472616e7366657246726f6d206661696c6564604482015290519081900360640190fd5b6000808211612546576040805162461bcd60e51b815260206004820152601a60248201527f536166654d6174683a206469766973696f6e206279207a65726f000000000000604482015290519081900360640190fd5b81838161254f57fe5b049392505050565b6000828211156125ae576040805162461bcd60e51b815260206004820152601e60248201527f536166654d6174683a207375627472616374696f6e206f766572666c6f770000604482015290519081900360640190fd5b50900390565b6000826125c357506000610e05565b828202828482816125d057fe5b0414610e025760405162461bcd60e51b81526004018080602001828103825260218152602001806129c66021913960400191505060405180910390fd5b600082820183811015610e02576040805162461bcd60e51b815260206004820152601b60248201527f536166654d6174683a206164646974696f6e206f766572666c6f770000000000604482015290519081900360640190fd5b6000610e058261285c565b600061267e8383612844565b6126b457508154600181810184556000848152602080822090930184905584548482528286019093526040902091909155610e05565b506000610e05565b6001600160a01b0383166000908152600260205260409020600881015460ff1661272d576040805162461bcd60e51b815260206004820152601060248201527f506f6f6c20697320696e61637469766500000000000000000000000000000000604482015290519081900360640190fd5b6001600160a01b03831660009081526007820160205260409020548015612311576001600160a01b038085166000908152600784016020526040812055825461277891168483612162565b8154604080516001600160a01b03868116825260208201859052825181891694909116927fce405e67b4d6e56e438257e15f160ae28b450e6e7659bbc4c1f4e09a1ac846cb928290030190a35050505050565b6000610e02836001600160a01b038416612860565b815460009082106128225760405162461bcd60e51b81526004018080602001828103825260228152602001806129456022913960400191505060405180910390fd5b82600001828154811061283157fe5b9060005260206000200154905092915050565b60009081526001919091016020526040902054151590565b5490565b6000818152600183016020526040812054801561293a5783547fffffffffffffffffffffffffffffffffffffffffffffffffffffffffffffffff80830191908101906000908790839081106128b157fe5b90600052602060002001549050808760000184815481106128ce57fe5b6000918252602080832090910192909255828152600189810190925260409020908401905586548790806128fe57fe5b60019003818190600052602060002001600090559055866001016000878152602001908152602001600020600090556001945050505050610e05565b6000915050610e0556fe456e756d657261626c655365743a20696e646578206f7574206f6620626f756e6473416363657373436f6e74726f6c3a2073656e646572206d75737420626520616e2061646d696e20746f206772616e74416363657373436f6e74726f6c3a2073656e646572206d75737420626520616e2061646d696e20746f207265766f6b65536166654d6174683a206d756c7469706c69636174696f6e206f766572666c6f7743616e6e6f74207769746864726177206163746976652072657761726420746f6b656e416363657373436f6e74726f6c3a2063616e206f6e6c792072656e6f756e636520726f6c657320666f722073656c66a2646970667358221220cf540d093fe72dd7d6f497622307b57c6d59390a2185c9243a2f30985e95b59a64736f6c634300060c0033d208cee4e5c276797506bf2048f7c1b03b32c5e17ee2bbc1f54b5df96001c21471840dc4906352362b0cdaf79870196c8e42acafade72d5d5a6d59291253ceb1a2646970667358221220f562881c7b9a8008d446ff1e73ff3ff2431d80f805a2b8d8b9572df02b22fcf164736f6c634300060c0033",
  "devdoc": {
    "kind": "dev",
    "methods": {},
    "version": 1
  },
  "userdoc": {
    "kind": "user",
    "methods": {
      "deploy(address,uint256,address,address)": {
        "notice": "deploys a new bonus chef contract"
      }
    },
    "version": 1
  },
  "storageLayout": {
    "storage": [],
    "types": null
  }
}