{
  "address": "0x93616BE16Cf1aa4A138bfCb2320875148429713c",
  "abi": [
    {
      "inputs": [],
      "stateMutability": "nonpayable",
      "type": "constructor"
    },
    {
      "anonymous": false,
      "inputs": [
        {
          "indexed": true,
          "internalType": "bytes32",
          "name": "role",
          "type": "bytes32"
        },
        {
          "indexed": true,
          "internalType": "bytes32",
          "name": "previousAdminRole",
          "type": "bytes32"
        },
        {
          "indexed": true,
          "internalType": "bytes32",
          "name": "newAdminRole",
          "type": "bytes32"
        }
      ],
      "name": "RoleAdminChanged",
      "type": "event"
    },
    {
      "anonymous": false,
      "inputs": [
        {
          "indexed": true,
          "internalType": "bytes32",
          "name": "role",
          "type": "bytes32"
        },
        {
          "indexed": true,
          "internalType": "address",
          "name": "account",
          "type": "address"
        },
        {
          "indexed": true,
          "internalType": "address",
          "name": "sender",
          "type": "address"
        }
      ],
      "name": "RoleGranted",
      "type": "event"
    },
    {
      "anonymous": false,
      "inputs": [
        {
          "indexed": true,
          "internalType": "bytes32",
          "name": "role",
          "type": "bytes32"
        },
        {
          "indexed": true,
          "internalType": "address",
          "name": "account",
          "type": "address"
        },
        {
          "indexed": true,
          "internalType": "address",
          "name": "sender",
          "type": "address"
        }
      ],
      "name": "RoleRevoked",
      "type": "event"
    },
    {
      "inputs": [],
      "name": "BRIDGEMANAGER_ROLE",
      "outputs": [
        {
          "internalType": "bytes32",
          "name": "",
          "type": "bytes32"
        }
      ],
      "stateMutability": "view",
      "type": "function"
    },
    {
      "inputs": [],
      "name": "DEFAULT_ADMIN_ROLE",
      "outputs": [
        {
          "internalType": "bytes32",
          "name": "",
          "type": "bytes32"
        }
      ],
      "stateMutability": "view",
      "type": "function"
    },
    {
      "inputs": [
        {
          "internalType": "string",
          "name": "tokenId",
          "type": "string"
        },
        {
          "internalType": "uint256",
          "name": "chainId",
          "type": "uint256"
        },
        {
          "internalType": "uint256",
          "name": "amount",
          "type": "uint256"
        }
      ],
      "name": "calculateSwapFee",
      "outputs": [
        {
          "internalType": "uint256",
          "name": "",
          "type": "uint256"
        }
      ],
      "stateMutability": "view",
      "type": "function"
    },
    {
      "inputs": [],
      "name": "getAllTokenIDs",
      "outputs": [
        {
          "internalType": "string[]",
          "name": "result",
          "type": "string[]"
        }
      ],
      "stateMutability": "view",
      "type": "function"
    },
    {
      "inputs": [
        {
          "internalType": "bytes32",
          "name": "role",
          "type": "bytes32"
        }
      ],
      "name": "getRoleAdmin",
      "outputs": [
        {
          "internalType": "bytes32",
          "name": "",
          "type": "bytes32"
        }
      ],
      "stateMutability": "view",
      "type": "function"
    },
    {
      "inputs": [
        {
          "internalType": "bytes32",
          "name": "role",
          "type": "bytes32"
        },
        {
          "internalType": "uint256",
          "name": "index",
          "type": "uint256"
        }
      ],
      "name": "getRoleMember",
      "outputs": [
        {
          "internalType": "address",
          "name": "",
          "type": "address"
        }
      ],
      "stateMutability": "view",
      "type": "function"
    },
    {
      "inputs": [
        {
          "internalType": "bytes32",
          "name": "role",
          "type": "bytes32"
        }
      ],
      "name": "getRoleMemberCount",
      "outputs": [
        {
          "internalType": "uint256",
          "name": "",
          "type": "uint256"
        }
      ],
      "stateMutability": "view",
      "type": "function"
    },
    {
      "inputs": [
        {
          "internalType": "string",
          "name": "tokenID",
          "type": "string"
        },
        {
          "internalType": "uint256",
          "name": "chainID",
          "type": "uint256"
        }
      ],
      "name": "getToken",
      "outputs": [
        {
          "components": [
            {
              "internalType": "uint256",
              "name": "chainId",
              "type": "uint256"
            },
            {
              "internalType": "address",
              "name": "tokenAddress",
              "type": "address"
            },
            {
              "internalType": "uint8",
              "name": "tokenDecimals",
              "type": "uint8"
            },
            {
              "internalType": "uint256",
              "name": "maxSwap",
              "type": "uint256"
            },
            {
              "internalType": "uint256",
              "name": "minSwap",
              "type": "uint256"
            },
            {
              "internalType": "uint256",
              "name": "swapFee",
              "type": "uint256"
            },
            {
              "internalType": "uint256",
              "name": "maxSwapFee",
              "type": "uint256"
            },
            {
              "internalType": "uint256",
              "name": "minSwapFee",
              "type": "uint256"
            },
            {
              "internalType": "bool",
              "name": "hasUnderlying",
              "type": "bool"
            },
            {
              "internalType": "bool",
              "name": "isUnderlying",
              "type": "bool"
            }
          ],
          "internalType": "struct BridgeConfigV2.Token",
          "name": "token",
          "type": "tuple"
        }
      ],
      "stateMutability": "view",
      "type": "function"
    },
    {
      "inputs": [
        {
          "internalType": "uint256",
          "name": "chainID",
          "type": "uint256"
        },
        {
          "internalType": "address",
          "name": "tokenAddress",
          "type": "address"
        }
      ],
      "name": "getTokenID",
      "outputs": [
        {
          "internalType": "string",
          "name": "",
          "type": "string"
        }
      ],
      "stateMutability": "view",
      "type": "function"
    },
    {
      "inputs": [
        {
          "internalType": "string",
          "name": "tokenID",
          "type": "string"
        }
      ],
      "name": "getUnderlyingToken",
      "outputs": [
        {
          "components": [
            {
              "internalType": "uint256",
              "name": "chainId",
              "type": "uint256"
            },
            {
              "internalType": "address",
              "name": "tokenAddress",
              "type": "address"
            },
            {
              "internalType": "uint8",
              "name": "tokenDecimals",
              "type": "uint8"
            },
            {
              "internalType": "uint256",
              "name": "maxSwap",
              "type": "uint256"
            },
            {
              "internalType": "uint256",
              "name": "minSwap",
              "type": "uint256"
            },
            {
              "internalType": "uint256",
              "name": "swapFee",
              "type": "uint256"
            },
            {
              "internalType": "uint256",
              "name": "maxSwapFee",
              "type": "uint256"
            },
            {
              "internalType": "uint256",
              "name": "minSwapFee",
              "type": "uint256"
            },
            {
              "internalType": "bool",
              "name": "hasUnderlying",
              "type": "bool"
            },
            {
              "internalType": "bool",
              "name": "isUnderlying",
              "type": "bool"
            }
          ],
          "internalType": "struct BridgeConfigV2.Token",
          "name": "token",
          "type": "tuple"
        }
      ],
      "stateMutability": "view",
      "type": "function"
    },
    {
      "inputs": [
        {
          "internalType": "bytes32",
          "name": "role",
          "type": "bytes32"
        },
        {
          "internalType": "address",
          "name": "account",
          "type": "address"
        }
      ],
      "name": "grantRole",
      "outputs": [],
      "stateMutability": "nonpayable",
      "type": "function"
    },
    {
      "inputs": [
        {
          "internalType": "bytes32",
          "name": "role",
          "type": "bytes32"
        },
        {
          "internalType": "address",
          "name": "account",
          "type": "address"
        }
      ],
      "name": "hasRole",
      "outputs": [
        {
          "internalType": "bool",
          "name": "",
          "type": "bool"
        }
      ],
      "stateMutability": "view",
      "type": "function"
    },
    {
      "inputs": [
        {
          "internalType": "string",
          "name": "tokenID",
          "type": "string"
        }
      ],
      "name": "hasUnderlyingToken",
      "outputs": [
        {
          "internalType": "bool",
          "name": "",
          "type": "bool"
        }
      ],
      "stateMutability": "view",
      "type": "function"
    },
    {
      "inputs": [
        {
          "internalType": "string",
          "name": "tokenID",
          "type": "string"
        }
      ],
      "name": "isTokenIDExist",
      "outputs": [
        {
          "internalType": "bool",
          "name": "",
          "type": "bool"
        }
      ],
      "stateMutability": "view",
      "type": "function"
    },
    {
      "inputs": [
        {
          "internalType": "bytes32",
          "name": "role",
          "type": "bytes32"
        },
        {
          "internalType": "address",
          "name": "account",
          "type": "address"
        }
      ],
      "name": "renounceRole",
      "outputs": [],
      "stateMutability": "nonpayable",
      "type": "function"
    },
    {
      "inputs": [
        {
          "internalType": "bytes32",
          "name": "role",
          "type": "bytes32"
        },
        {
          "internalType": "address",
          "name": "account",
          "type": "address"
        }
      ],
      "name": "revokeRole",
      "outputs": [],
      "stateMutability": "nonpayable",
      "type": "function"
    },
    {
      "inputs": [
        {
          "internalType": "string",
          "name": "tokenID",
          "type": "string"
        },
        {
          "internalType": "uint256",
          "name": "chainID",
          "type": "uint256"
        },
        {
          "internalType": "address",
          "name": "tokenAddress",
          "type": "address"
        },
        {
          "internalType": "uint8",
          "name": "tokenDecimals",
          "type": "uint8"
        },
        {
          "internalType": "uint256",
          "name": "maxSwap",
          "type": "uint256"
        },
        {
          "internalType": "uint256",
          "name": "minSwap",
          "type": "uint256"
        },
        {
          "internalType": "uint256",
          "name": "swapFee",
          "type": "uint256"
        },
        {
          "internalType": "uint256",
          "name": "maxSwapFee",
          "type": "uint256"
        },
        {
          "internalType": "uint256",
          "name": "minSwapFee",
          "type": "uint256"
        },
        {
          "internalType": "bool",
          "name": "hasUnderlying",
          "type": "bool"
        },
        {
          "internalType": "bool",
          "name": "isUnderlying",
          "type": "bool"
        }
      ],
      "name": "setTokenConfig",
      "outputs": [
        {
          "internalType": "bool",
          "name": "",
          "type": "bool"
        }
      ],
      "stateMutability": "nonpayable",
      "type": "function"
    }
  ],
  "transactionHash": "0x50af9722280d7b83edb02b43a6557236caac23eea0a45ec79e27c1ea490f96fb",
  "args": [],
  "solcInputHash": "540abcfc3402280a91564e863fe06339",
  "bytecode": "0x60806040523480156200001157600080fd5b506200001f60003362000051565b6200004b7f4370dcf3e42e4d5b773a451bb8390ee8e7308f47681d1414cff87c2ad0512c853362000051565b62000165565b6200005d828262000061565b5050565b6000828152602081815260409091206200008691839062000b72620000da821b17901c565b156200005d5762000096620000fa565b6001600160a01b0316816001600160a01b0316837f2f8788117e7eff1d82e926ec794901d17c78024a50270940304540a733656f0d60405160405180910390a45050565b6000620000f1836001600160a01b038416620000fe565b90505b92915050565b3390565b60006200010c83836200014d565b6200014457508154600181810184556000848152602080822090930184905584548482528286019093526040902091909155620000f4565b506000620000f4565b60009081526001919091016020526040902054151590565b611c5280620001756000396000f3fe608060405234801561001057600080fd5b506004361061011b5760003560e01c8063684a10b3116100b2578063af611ca011610081578063ca15c87311610066578063ca15c8731461026d578063d547741f14610280578063ff9106c7146102935761011b565b8063af611ca01461023a578063c4fb2e4b1461024d5761011b565b8063684a10b3146101ea5780639010d07c146101ff57806391d148541461021f578063a217fddf146102325761011b565b8063324980b5116100ee578063324980b51461019157806336568abe146101b157806358dfe6f1146101c457806359053bfe146101d75761011b565b8063074b7e97146101205780630a62a9cb14610149578063248a9ca3146101695780632f2ff15d1461017c575b600080fd5b61013361012e36600461165f565b61029b565b604051610140919061195b565b60405180910390f35b61015c6101573660046117b1565b61042d565b6040516101409190611966565b61015c6101773660046115df565b610493565b61018f61018a3660046115f7565b6104ab565b005b6101a461019f36600461169f565b610516565b6040516101409190611b8a565b61018f6101bf3660046115f7565b61062d565b6101a46101d236600461165f565b6106a3565b6101336101e53660046116e9565b610849565b6101f261097f565b60405161014091906118dd565b61021261020d36600461163e565b610a22565b60405161014091906118bc565b61013361022d3660046115f7565b610a41565b61015c610a59565b61013361024836600461165f565b610a5e565b61026061025b366004611800565b610aa7565b604051610140919061196f565b61015c61027b3660046115df565b610ae3565b61018f61028e3660046115f7565b610afa565b61015c610b4e565b6000806102dd84848080601f016020809104026020016040519081016040528093929190818152602001838380828437600092019190915250610b9492505050565b600081815260026020908152604080832080548251818502810185019093528083529495506060949193909284015b828210156103db5760008481526020908190206040805161014081018252600886029092018054835260018082015473ffffffffffffffffffffffffffffffffffffffff81168587015260ff740100000000000000000000000000000000000000009091048116938501939093526002820154606085015260038201546080850152600482015460a0850152600582015460c0850152600682015460e085015260079091015480831615156101008086019190915290049091161515610120830152908352909201910161030c565b50505050905060005b815181101561041f578181815181106103f957fe5b60200260200101516101000151156104175760019350505050610427565b6001016103e4565b506000925050505b92915050565b60006104376114f4565b610442868686610516565b9050600061046c6402540be4006104668460a0015187610b9b90919063ffffffff16565b90610bef565b90508160e0015181111561048357915061048b9050565b5060e0015190505b949350505050565b6000818152602081905260409020600201545b919050565b6000828152602081905260409020600201546104c99061022d610c3b565b610508576040517f08c379a00000000000000000000000000000000000000000000000000000000081526004016104ff906119df565b60405180910390fd5b6105128282610c3f565b5050565b61051e6114f4565b6004600061056186868080601f016020809104026020016040519081016040528093929190818152602001838380828437600092019190915250610b9492505050565b815260208082019290925260409081016000908120858252835281902081516101408101835281548152600182015473ffffffffffffffffffffffffffffffffffffffff81169482019490945260ff740100000000000000000000000000000000000000009094048416928101929092526002810154606083015260038101546080830152600481015460a0830152600581015460c0830152600681015460e0830152600701548083161515610100808401919091529004909116151561012082015290509392505050565b610635610c3b565b73ffffffffffffffffffffffffffffffffffffffff168173ffffffffffffffffffffffffffffffffffffffff1614610699576040517f08c379a00000000000000000000000000000000000000000000000000000000081526004016104ff90611b2d565b6105128282610cc2565b6106ab6114f4565b60006106ec84848080601f016020809104026020016040519081016040528093929190818152602001838380828437600092019190915250610b9492505050565b600081815260026020908152604080832080548251818502810185019093528083529495506060949193909284015b828210156107ea5760008481526020908190206040805161014081018252600886029092018054835260018082015473ffffffffffffffffffffffffffffffffffffffff81168587015260ff740100000000000000000000000000000000000000009091048116938501939093526002820154606085015260038201546080850152600482015460a0850152600582015460c0850152600682015460e085015260079091015480831615156101008086019190915290049091161515610120830152908352909201910161071b565b50505050905060005b81518110156108405781818151811061080857fe5b60200260200101516101200151156108385781818151811061082657fe5b60200260200101519350505050610427565b6001016107f3565b50505092915050565b60006108757f4370dcf3e42e4d5b773a451bb8390ee8e7308f47681d1414cff87c2ad0512c8533610a41565b61087e57600080fd5b6108866114f4565b8a816020019073ffffffffffffffffffffffffffffffffffffffff16908173ffffffffffffffffffffffffffffffffffffffff168152505089816040019060ff16908160ff16815250508881606001818152505087816080018181525050868160a0018181525050858160c0018181525050848160e00181815250508381610100019015159081151581525050828161012001901515908115158152505061096d6109668f8f8080601f016020809104026020016040519081016040528093929190818152602001838380828437600092019190915250610b9492505050565b8d83610d45565b9e9d5050505050505050505050505050565b6001546060908067ffffffffffffffff8111801561099c57600080fd5b506040519080825280602002602001820160405280156109d057816020015b60608152602001906001900390816109bb5790505b50915060005b81811015610a1d576109fe600182815481106109ee57fe5b9060005260206000200154611194565b838281518110610a0a57fe5b60209081029190910101526001016109d6565b505090565b6000828152602081905260408120610a3a90836112a8565b9392505050565b6000828152602081905260408120610a3a90836112b4565b600081565b6000610a3a610aa284848080601f016020809104026020016040519081016040528093929190818152602001838380828437600092019190915250610b9492505050565b6112d6565b600082815260036020908152604080832073ffffffffffffffffffffffffffffffffffffffff85168452909152902054606090610a3a90611194565b60008181526020819052604081206104279061131e565b600082815260208190526040902060020154610b189061022d610c3b565b610699576040517f08c379a00000000000000000000000000000000000000000000000000000000081526004016104ff90611a73565b7f4370dcf3e42e4d5b773a451bb8390ee8e7308f47681d1414cff87c2ad0512c8581565b6000610a3a8373ffffffffffffffffffffffffffffffffffffffff8416611329565b6020015190565b600082610baa57506000610427565b82820282848281610bb757fe5b0414610a3a576040517f08c379a00000000000000000000000000000000000000000000000000000000081526004016104ff90611ad0565b6000808211610c2a576040517f08c379a00000000000000000000000000000000000000000000000000000000081526004016104ff90611a3c565b818381610c3357fe5b049392505050565b3390565b6000828152602081905260409020610c579082610b72565b1561051257610c64610c3b565b73ffffffffffffffffffffffffffffffffffffffff168173ffffffffffffffffffffffffffffffffffffffff16837f2f8788117e7eff1d82e926ec794901d17c78024a50270940304540a733656f0d60405160405180910390a45050565b6000828152602081905260409020610cda9082611373565b1561051257610ce7610c3b565b73ffffffffffffffffffffffffffffffffffffffff168173ffffffffffffffffffffffffffffffffffffffff16837ff6391f5c32d9c69d2a47ea670b442974b53935d1edc7fd64eb21e047a839171b60405160405180910390a45050565b6000838152600460208181526040808420868552825280842085518155918501516001830180549287015160ff1674010000000000000000000000000000000000000000027fffffffffffffffffffffff00ffffffffffffffffffffffffffffffffffffffff73ffffffffffffffffffffffffffffffffffffffff9093167fffffffffffffffffffffffff00000000000000000000000000000000000000009094169390931791909116919091179055606084015160028201556080840151600382015560a08401519181019190915560c0830151600582015560e08301516006820155610100808401516007909201805461012086015115159092027fffffffffffffffffffffffffffffffffffffffffffffffffffffffffffff00ff9315157fffffffffffffffffffffffffffffffffffffffffffffffffffffffffffffff009093169290921792909216179055610e9e846112d6565b610ed7576001805480820182556000919091527fb10e2d527612073b26eecdfd717e6a320cf44b4afac2b0732d9fcbe2b7fa0cf6018490555b6000848152600260205260408120905b815481101561101e5784828281548110610efd57fe5b9060005260206000209060080201600001541415611016576000828281548110610f2357fe5b6000918252602091829020600160089092020101549086015173ffffffffffffffffffffffffffffffffffffffff9182169250168114611014578460200151838381548110610f6e57fe5b6000918252602080832060089290920290910160010180547fffffffffffffffffffffffff00000000000000000000000000000000000000001673ffffffffffffffffffffffffffffffffffffffff9485161790558882526003808252604080842086861685528084528185207fc5d2460186f7233c927e7db2dcc703c0e500b653ca82273b7bfad8045d85a47090558b85529183528983015190941683529052208790555b505b600101610ee7565b50805460018181018355600092835260208084208651600890940201928355808601805184840180546040808b015160ff1674010000000000000000000000000000000000000000027fffffffffffffffffffffff00ffffffffffffffffffffffffffffffffffffffff73ffffffffffffffffffffffffffffffffffffffff9586167fffffffffffffffffffffffff000000000000000000000000000000000000000090941693909317929092169190911790915560608901516002870155608089015160038088019190915560a08a0151600488015560c08a0151600588015560e08a01516006880155610100808b0151600790980180546101208d015115159092027fffffffffffffffffffffffffffffffffffffffffffffffffffffffffffff00ff9915157fffffffffffffffffffffffffffffffffffffffffffffffffffffffffffffff0090931692909217989098161790965589875294835284862091511685529052912085905590509392505050565b606060005b60208160ff161080156111df5750828160ff16602081106111b657fe5b1a60f81b7fff000000000000000000000000000000000000000000000000000000000000001615155b156111ec57600101611199565b60608160ff1667ffffffffffffffff8111801561120857600080fd5b506040519080825280601f01601f191660200182016040528015611233576020820181803683370190505b50905060005b8260ff168160ff1610156112a057848160ff166020811061125657fe5b1a60f81b828260ff168151811061126957fe5b60200101907effffffffffffffffffffffffffffffffffffffffffffffffffffffffffffff1916908160001a905350600101611239565b509392505050565b6000610a3a8383611395565b6000610a3a8373ffffffffffffffffffffffffffffffffffffffff84166113f4565b6000805b6001548110156113155782600182815481106112f257fe5b9060005260206000200154141561130d5760019150506104a6565b6001016112da565b50600092915050565b60006104278261140c565b600061133583836113f4565b61136b57508154600181810184556000848152602080822090930184905584548482528286019093526040902091909155610427565b506000610427565b6000610a3a8373ffffffffffffffffffffffffffffffffffffffff8416611410565b815460009082106113d2576040517f08c379a00000000000000000000000000000000000000000000000000000000081526004016104ff90611982565b8260000182815481106113e157fe5b9060005260206000200154905092915050565b60009081526001919091016020526040902054151590565b5490565b600081815260018301602052604081205480156114ea5783547fffffffffffffffffffffffffffffffffffffffffffffffffffffffffffffffff808301919081019060009087908390811061146157fe5b906000526020600020015490508087600001848154811061147e57fe5b6000918252602080832090910192909255828152600189810190925260409020908401905586548790806114ae57fe5b60019003818190600052602060002001600090559055866001016000878152602001908152602001600020600090556001945050505050610427565b6000915050610427565b60405180610140016040528060008152602001600073ffffffffffffffffffffffffffffffffffffffff168152602001600060ff16815260200160008152602001600081526020016000815260200160008152602001600081526020016000151581526020016000151581525090565b803573ffffffffffffffffffffffffffffffffffffffff8116811461042757600080fd5b8035801515811461042757600080fd5b60008083601f8401126115a9578182fd5b50813567ffffffffffffffff8111156115c0578182fd5b6020830191508360208285010111156115d857600080fd5b9250929050565b6000602082840312156115f0578081fd5b5035919050565b60008060408385031215611609578081fd5b82359150602083013573ffffffffffffffffffffffffffffffffffffffff81168114611633578182fd5b809150509250929050565b60008060408385031215611650578182fd5b50508035926020909101359150565b60008060208385031215611671578182fd5b823567ffffffffffffffff811115611687578283fd5b61169385828601611598565b90969095509350505050565b6000806000604084860312156116b3578081fd5b833567ffffffffffffffff8111156116c9578182fd5b6116d586828701611598565b909790965060209590950135949350505050565b6000806000806000806000806000806000806101608d8f03121561170b578788fd5b67ffffffffffffffff8d351115611720578788fd5b61172d8e8e358f01611598565b909c509a5060208d013599506117468e60408f01611564565b985060608d013560ff8116811461175b578889fd5b975060808d0135965060a08d0135955060c08d0135945060e08d013593506101008d0135925061178f8e6101208f01611588565b915061179f8e6101408f01611588565b90509295989b509295989b509295989b565b600080600080606085870312156117c6578384fd5b843567ffffffffffffffff8111156117dc578485fd5b6117e887828801611598565b90989097506020870135966040013595509350505050565b60008060408385031215611812578182fd5b823591506118238460208501611564565b90509250929050565b73ffffffffffffffffffffffffffffffffffffffff169052565b15159052565b60008151808452815b8181101561187157602081850181015186830182015201611855565b818111156118825782602083870101525b50601f017fffffffffffffffffffffffffffffffffffffffffffffffffffffffffffffffe0169290920160200192915050565b60ff169052565b73ffffffffffffffffffffffffffffffffffffffff91909116815260200190565b6000602080830181845280855180835260408601915060408482028701019250838701855b8281101561194e577fffffffffffffffffffffffffffffffffffffffffffffffffffffffffffffffc088860301845261193c85835161184c565b94509285019290850190600101611902565b5092979650505050505050565b901515815260200190565b90815260200190565b600060208252610a3a602083018461184c565b60208082526022908201527f456e756d657261626c655365743a20696e646578206f7574206f6620626f756e60408201527f6473000000000000000000000000000000000000000000000000000000000000606082015260800190565b6020808252602f908201527f416363657373436f6e74726f6c3a2073656e646572206d75737420626520616e60408201527f2061646d696e20746f206772616e740000000000000000000000000000000000606082015260800190565b6020808252601a908201527f536166654d6174683a206469766973696f6e206279207a65726f000000000000604082015260600190565b60208082526030908201527f416363657373436f6e74726f6c3a2073656e646572206d75737420626520616e60408201527f2061646d696e20746f207265766f6b6500000000000000000000000000000000606082015260800190565b60208082526021908201527f536166654d6174683a206d756c7469706c69636174696f6e206f766572666c6f60408201527f7700000000000000000000000000000000000000000000000000000000000000606082015260800190565b6020808252602f908201527f416363657373436f6e74726f6c3a2063616e206f6e6c792072656e6f756e636560408201527f20726f6c657320666f722073656c660000000000000000000000000000000000606082015260800190565b81518152602080830151610140830191611ba69084018261182c565b506040830151611bb960408401826118b5565b50606083015160608301526080830151608083015260a083015160a083015260c083015160c083015260e083015160e083015261010080840151611bff82850182611846565b505061012080840151611c1482850182611846565b50509291505056fea2646970667358221220ca8659ab1c2ab9686d7e6c00a049495232ea1308e6d6690ee0113be74df18b6264736f6c634300060c0033",
  "devdoc": {
    "kind": "dev",
    "methods": {
      "getRoleAdmin(bytes32)": {
        "details": "Returns the admin role that controls `role`. See {grantRole} and {revokeRole}. To change a role's admin, use {_setRoleAdmin}."
      },
      "getRoleMember(bytes32,uint256)": {
        "details": "Returns one of the accounts that have `role`. `index` must be a value between 0 and {getRoleMemberCount}, non-inclusive. Role bearers are not sorted in any particular way, and their ordering may change at any point. WARNING: When using {getRoleMember} and {getRoleMemberCount}, make sure you perform all queries on the same block. See the following https://forum.openzeppelin.com/t/iterating-over-elements-on-enumerableset-in-openzeppelin-contracts/2296[forum post] for more information."
      },
      "getRoleMemberCount(bytes32)": {
        "details": "Returns the number of accounts that have `role`. Can be used together with {getRoleMember} to enumerate all bearers of a role."
      },
      "grantRole(bytes32,address)": {
        "details": "Grants `role` to `account`. If `account` had not been already granted `role`, emits a {RoleGranted} event. Requirements: - the caller must have ``role``'s admin role."
      },
      "hasRole(bytes32,address)": {
        "details": "Returns `true` if `account` has been granted `role`."
      },
      "renounceRole(bytes32,address)": {
        "details": "Revokes `role` from the calling account. Roles are often managed via {grantRole} and {revokeRole}: this function's purpose is to provide a mechanism for accounts to lose their privileges if they are compromised (such as when a trusted device is misplaced). If the calling account had been granted `role`, emits a {RoleRevoked} event. Requirements: - the caller must be `account`."
      },
      "revokeRole(bytes32,address)": {
        "details": "Revokes `role` from `account`. If `account` had been granted `role`, emits a {RoleRevoked} event. Requirements: - the caller must have ``role``'s admin role."
      }
    },
    "title": "BridgeConfig contract",
    "version": 1
  },
  "userdoc": {
    "kind": "user",
    "methods": {},
    "notice": "This token is used for configuring different tokens on the bridge and mapping them across chains.*",
    "version": 1
  },
  "storageLayout": {
    "storage": [
      {
        "astId": 2760,
        "contract": "contracts/synapse/BridgeConfigV2.sol:BridgeConfigV2",
        "label": "_roles",
        "offset": 0,
        "slot": "0",
        "type": "t_mapping(t_bytes32,t_struct(RoleData)2756_storage)"
      },
      {
        "astId": 6340,
        "contract": "contracts/synapse/BridgeConfigV2.sol:BridgeConfigV2",
        "label": "_allTokenIDs",
        "offset": 0,
        "slot": "1",
        "type": "t_array(t_bytes32)dyn_storage"
      },
      {
        "astId": 6345,
        "contract": "contracts/synapse/BridgeConfigV2.sol:BridgeConfigV2",
        "label": "_allTokens",
        "offset": 0,
        "slot": "2",
        "type": "t_mapping(t_bytes32,t_array(t_struct(Token)6383_storage)dyn_storage)"
      },
      {
        "astId": 6351,
        "contract": "contracts/synapse/BridgeConfigV2.sol:BridgeConfigV2",
        "label": "_tokenIDMap",
        "offset": 0,
        "slot": "3",
        "type": "t_mapping(t_uint256,t_mapping(t_address,t_bytes32))"
      },
      {
        "astId": 6357,
        "contract": "contracts/synapse/BridgeConfigV2.sol:BridgeConfigV2",
        "label": "_tokens",
        "offset": 0,
        "slot": "4",
        "type": "t_mapping(t_bytes32,t_mapping(t_uint256,t_struct(Token)6383_storage))"
      }
    ],
    "types": {
      "t_address": {
        "encoding": "inplace",
        "label": "address",
        "numberOfBytes": "20"
      },
      "t_array(t_bytes32)dyn_storage": {
        "base": "t_bytes32",
        "encoding": "dynamic_array",
        "label": "bytes32[]",
        "numberOfBytes": "32"
      },
      "t_array(t_struct(Token)6383_storage)dyn_storage": {
        "base": "t_struct(Token)6383_storage",
        "encoding": "dynamic_array",
        "label": "struct BridgeConfigV2.Token[]",
        "numberOfBytes": "32"
      },
      "t_bool": {
        "encoding": "inplace",
        "label": "bool",
        "numberOfBytes": "1"
      },
      "t_bytes32": {
        "encoding": "inplace",
        "label": "bytes32",
        "numberOfBytes": "32"
      },
      "t_mapping(t_address,t_bytes32)": {
        "encoding": "mapping",
        "key": "t_address",
        "label": "mapping(address => bytes32)",
        "numberOfBytes": "32",
        "value": "t_bytes32"
      },
      "t_mapping(t_bytes32,t_array(t_struct(Token)6383_storage)dyn_storage)": {
        "encoding": "mapping",
        "key": "t_bytes32",
        "label": "mapping(bytes32 => struct BridgeConfigV2.Token[])",
        "numberOfBytes": "32",
        "value": "t_array(t_struct(Token)6383_storage)dyn_storage"
      },
      "t_mapping(t_bytes32,t_mapping(t_uint256,t_struct(Token)6383_storage))": {
        "encoding": "mapping",
        "key": "t_bytes32",
        "label": "mapping(bytes32 => mapping(uint256 => struct BridgeConfigV2.Token))",
        "numberOfBytes": "32",
        "value": "t_mapping(t_uint256,t_struct(Token)6383_storage)"
      },
      "t_mapping(t_bytes32,t_struct(RoleData)2756_storage)": {
        "encoding": "mapping",
        "key": "t_bytes32",
        "label": "mapping(bytes32 => struct AccessControl.RoleData)",
        "numberOfBytes": "32",
        "value": "t_struct(RoleData)2756_storage"
      },
      "t_mapping(t_bytes32,t_uint256)": {
        "encoding": "mapping",
        "key": "t_bytes32",
        "label": "mapping(bytes32 => uint256)",
        "numberOfBytes": "32",
        "value": "t_uint256"
      },
      "t_mapping(t_uint256,t_mapping(t_address,t_bytes32))": {
        "encoding": "mapping",
        "key": "t_uint256",
        "label": "mapping(uint256 => mapping(address => bytes32))",
        "numberOfBytes": "32",
        "value": "t_mapping(t_address,t_bytes32)"
      },
      "t_mapping(t_uint256,t_struct(Token)6383_storage)": {
        "encoding": "mapping",
        "key": "t_uint256",
        "label": "mapping(uint256 => struct BridgeConfigV2.Token)",
        "numberOfBytes": "32",
        "value": "t_struct(Token)6383_storage"
      },
      "t_struct(AddressSet)5510_storage": {
        "encoding": "inplace",
        "label": "struct EnumerableSet.AddressSet",
        "members": [
          {
            "astId": 5509,
            "contract": "contracts/synapse/BridgeConfigV2.sol:BridgeConfigV2",
            "label": "_inner",
            "offset": 0,
            "slot": "0",
            "type": "t_struct(Set)5245_storage"
          }
        ],
        "numberOfBytes": "64"
      },
      "t_struct(RoleData)2756_storage": {
        "encoding": "inplace",
        "label": "struct AccessControl.RoleData",
        "members": [
          {
            "astId": 2753,
            "contract": "contracts/synapse/BridgeConfigV2.sol:BridgeConfigV2",
            "label": "members",
            "offset": 0,
            "slot": "0",
            "type": "t_struct(AddressSet)5510_storage"
          },
          {
            "astId": 2755,
            "contract": "contracts/synapse/BridgeConfigV2.sol:BridgeConfigV2",
            "label": "adminRole",
            "offset": 0,
            "slot": "2",
            "type": "t_bytes32"
          }
        ],
        "numberOfBytes": "96"
      },
      "t_struct(Set)5245_storage": {
        "encoding": "inplace",
        "label": "struct EnumerableSet.Set",
        "members": [
          {
            "astId": 5240,
            "contract": "contracts/synapse/BridgeConfigV2.sol:BridgeConfigV2",
            "label": "_values",
            "offset": 0,
            "slot": "0",
            "type": "t_array(t_bytes32)dyn_storage"
          },
          {
            "astId": 5244,
            "contract": "contracts/synapse/BridgeConfigV2.sol:BridgeConfigV2",
            "label": "_indexes",
            "offset": 0,
            "slot": "1",
            "type": "t_mapping(t_bytes32,t_uint256)"
          }
        ],
        "numberOfBytes": "64"
      },
      "t_struct(Token)6383_storage": {
        "encoding": "inplace",
        "label": "struct BridgeConfigV2.Token",
        "members": [
          {
            "astId": 6364,
            "contract": "contracts/synapse/BridgeConfigV2.sol:BridgeConfigV2",
            "label": "chainId",
            "offset": 0,
            "slot": "0",
            "type": "t_uint256"
          },
          {
            "astId": 6366,
            "contract": "contracts/synapse/BridgeConfigV2.sol:BridgeConfigV2",
            "label": "tokenAddress",
            "offset": 0,
            "slot": "1",
            "type": "t_address"
          },
          {
            "astId": 6368,
            "contract": "contracts/synapse/BridgeConfigV2.sol:BridgeConfigV2",
            "label": "tokenDecimals",
            "offset": 20,
            "slot": "1",
            "type": "t_uint8"
          },
          {
            "astId": 6370,
            "contract": "contracts/synapse/BridgeConfigV2.sol:BridgeConfigV2",
            "label": "maxSwap",
            "offset": 0,
            "slot": "2",
            "type": "t_uint256"
          },
          {
            "astId": 6372,
            "contract": "contracts/synapse/BridgeConfigV2.sol:BridgeConfigV2",
            "label": "minSwap",
            "offset": 0,
            "slot": "3",
            "type": "t_uint256"
          },
          {
            "astId": 6374,
            "contract": "contracts/synapse/BridgeConfigV2.sol:BridgeConfigV2",
            "label": "swapFee",
            "offset": 0,
            "slot": "4",
            "type": "t_uint256"
          },
          {
            "astId": 6376,
            "contract": "contracts/synapse/BridgeConfigV2.sol:BridgeConfigV2",
            "label": "maxSwapFee",
            "offset": 0,
            "slot": "5",
            "type": "t_uint256"
          },
          {
            "astId": 6378,
            "contract": "contracts/synapse/BridgeConfigV2.sol:BridgeConfigV2",
            "label": "minSwapFee",
            "offset": 0,
            "slot": "6",
            "type": "t_uint256"
          },
          {
            "astId": 6380,
            "contract": "contracts/synapse/BridgeConfigV2.sol:BridgeConfigV2",
            "label": "hasUnderlying",
            "offset": 0,
            "slot": "7",
            "type": "t_bool"
          },
          {
            "astId": 6382,
            "contract": "contracts/synapse/BridgeConfigV2.sol:BridgeConfigV2",
            "label": "isUnderlying",
            "offset": 1,
            "slot": "7",
            "type": "t_bool"
          }
        ],
        "numberOfBytes": "256"
      },
      "t_uint256": {
        "encoding": "inplace",
        "label": "uint256",
        "numberOfBytes": "32"
      },
      "t_uint8": {
        "encoding": "inplace",
        "label": "uint8",
        "numberOfBytes": "1"
      }
    }
  }
}