{
  "address": "0x1BFE50bb2A8a75fefa46892dB10313898dDbFf8F",
  "abi": [
    {
      "anonymous": false,
      "inputs": [
        {
          "indexed": true,
          "internalType": "address",
          "name": "submittingMember",
          "type": "address"
        },
        {
          "indexed": false,
          "internalType": "bytes",
          "name": "conflictingPublicKey",
          "type": "bytes"
        }
      ],
      "name": "ConflictingPublicKeySubmitted",
      "type": "event"
    },
    {
      "anonymous": false,
      "inputs": [],
      "name": "KeepClosed",
      "type": "event"
    },
    {
      "anonymous": false,
      "inputs": [],
      "name": "KeepTerminated",
      "type": "event"
    },
    {
      "anonymous": false,
      "inputs": [
        {
          "indexed": false,
          "internalType": "bytes",
          "name": "publicKey",
          "type": "bytes"
        }
      ],
      "name": "PublicKeyPublished",
      "type": "event"
    },
    {
      "inputs": [],
      "name": "closeKeep",
      "outputs": [],
      "stateMutability": "nonpayable",
      "type": "function"
    },
    {
      "inputs": [],
      "name": "getMembers",
      "outputs": [
        {
          "internalType": "address[]",
          "name": "",
          "type": "address[]"
        }
      ],
      "stateMutability": "view",
      "type": "function"
    },
    {
      "inputs": [],
      "name": "getOpenedTimestamp",
      "outputs": [
        {
          "internalType": "uint256",
          "name": "",
          "type": "uint256"
        }
      ],
      "stateMutability": "view",
      "type": "function"
    },
    {
      "inputs": [],
      "name": "getOwner",
      "outputs": [
        {
          "internalType": "address",
          "name": "",
          "type": "address"
        }
      ],
      "stateMutability": "view",
      "type": "function"
    },
    {
      "inputs": [],
      "name": "getPublicKey",
      "outputs": [
        {
          "internalType": "bytes",
          "name": "",
          "type": "bytes"
        }
      ],
      "stateMutability": "view",
      "type": "function"
    },
    {
      "inputs": [],
      "name": "honestThreshold",
      "outputs": [
        {
          "internalType": "uint256",
          "name": "",
          "type": "uint256"
        }
      ],
      "stateMutability": "view",
      "type": "function"
    },
    {
      "inputs": [
        {
          "internalType": "address",
          "name": "_owner",
          "type": "address"
        },
        {
          "internalType": "address[]",
          "name": "_members",
          "type": "address[]"
        },
        {
          "internalType": "uint256",
          "name": "_honestThreshold",
          "type": "uint256"
        }
      ],
      "name": "initialize",
      "outputs": [],
      "stateMutability": "nonpayable",
      "type": "function"
    },
    {
      "inputs": [],
      "name": "isActive",
      "outputs": [
        {
          "internalType": "bool",
          "name": "",
          "type": "bool"
        }
      ],
      "stateMutability": "view",
      "type": "function"
    },
    {
      "inputs": [],
      "name": "isClosed",
      "outputs": [
        {
          "internalType": "bool",
          "name": "",
          "type": "bool"
        }
      ],
      "stateMutability": "view",
      "type": "function"
    },
    {
      "inputs": [],
      "name": "isTerminated",
      "outputs": [
        {
          "internalType": "bool",
          "name": "",
          "type": "bool"
        }
      ],
      "stateMutability": "view",
      "type": "function"
    },
    {
      "inputs": [
        {
          "internalType": "uint256",
          "name": "",
          "type": "uint256"
        }
      ],
      "name": "members",
      "outputs": [
        {
          "internalType": "address",
          "name": "",
          "type": "address"
        }
      ],
      "stateMutability": "view",
      "type": "function"
    },
    {
      "inputs": [],
      "name": "owner",
      "outputs": [
        {
          "internalType": "address",
          "name": "",
          "type": "address"
        }
      ],
      "stateMutability": "view",
      "type": "function"
    },
    {
      "inputs": [],
      "name": "publicKey",
      "outputs": [
        {
          "internalType": "bytes",
          "name": "",
          "type": "bytes"
        }
      ],
      "stateMutability": "view",
      "type": "function"
    },
    {
      "inputs": [
        {
          "internalType": "bytes",
          "name": "_publicKey",
          "type": "bytes"
        }
      ],
      "name": "submitPublicKey",
      "outputs": [],
      "stateMutability": "nonpayable",
      "type": "function"
    }
  ],
  "transactionHash": "0xe932736d65337bbc0edf77b9df181556ce82a5503914b34d3dacaa33cb242b14",
  "args": [],
  "solcInputHash": "1fbbd2d4de8ae41573b47d642f734797",
  "bytecode": "0x608060405234801561001057600080fd5b50611002806100206000396000f3fe608060405234801561001057600080fd5b50600436106100ea5760003560e01c80638da5cb5b1161008c578063abd14f3711610066578063abd14f3714610324578063c2b6b58c14610394578063d1cc99761461039c578063f4c2b4c1146103a4576100ea565b80638da5cb5b146102bc5780639eab5253146102c4578063a15c3bbb1461031c576100ea565b80635daf08ca116100c85780635daf08ca1461024c57806363ffab31146102925780636806db1f1461029a578063893d20e8146102b4576100ea565b806322f3e2d4146100ef5780632e3344521461010b5780633ede50c614610188575b600080fd5b6100f76103ac565b604080519115158252519081900360200190f35b6101136103c7565b6040805160208082528351818301528351919283929083019185019080838360005b8381101561014d578181015183820152602001610135565b50505050905090810190601f16801561017a5780820380516001836020036101000a031916815260200191505b509250505060405180910390f35b61024a6004803603606081101561019e57600080fd5b73ffffffffffffffffffffffffffffffffffffffff82351691908101906040810160208201356401000000008111156101d657600080fd5b8201836020820111156101e857600080fd5b8035906020019184602083028401116401000000008311171561020a57600080fd5b919080806020026020016040519081016040528093929190818152602001838360200280828437600092019190915250929550509135925061047b915050565b005b6102696004803603602081101561026257600080fd5b503561057d565b6040805173ffffffffffffffffffffffffffffffffffffffff9092168252519081900360200190f35b6101136105b1565b6102a261065d565b60408051918252519081900360200190f35b610269610663565b61026961067f565b6102cc61069b565b60408051602080825283518183015283519192839290830191858101910280838360005b838110156103085781810151838201526020016102f0565b505050509050019250505060405180910390f35b61024a610709565b61024a6004803603602081101561033a57600080fd5b81019060208101813564010000000081111561035557600080fd5b82018360208201111561036757600080fd5b8035906020019184600183028401116401000000008311171561038957600080fd5b50909250905061080c565b6100f7610cfe565b6100f7610d07565b6102a2610d10565b6000805b60065460ff1660028111156103c157fe5b14905090565b60038054604080516020601f60027fffffffffffffffffffffffffffffffffffffffffffffffffffffffffffffffff6101006001881615020190951694909404938401819004810282018101909252828152606093909290918301828280156104715780601f1061044657610100808354040283529160200191610471565b820191906000526020600020905b81548152906001019060200180831161045457829003601f168201915b5050505050905090565b600654610100900460ff16156104f257604080517f08c379a000000000000000000000000000000000000000000000000000000000815260206004820152601c60248201527f436f6e747261637420616c726561647920696e697469616c697a656400000000604482015290519081900360640190fd5b600080547fffffffffffffffffffffffff00000000000000000000000000000000000000001673ffffffffffffffffffffffffffffffffffffffff85161790558151610545906001906020850190610e39565b506002555050600680547fffffffffffffffffffffffffffffffffffffffffffffffffffffffffffff00001661010017905542600455565b6001818154811061058a57fe5b60009182526020909120015473ffffffffffffffffffffffffffffffffffffffff16905081565b6003805460408051602060026001851615610100027fffffffffffffffffffffffffffffffffffffffffffffffffffffffffffffffff0190941693909304601f810184900484028201840190925281815292918301828280156106555780601f1061062a57610100808354040283529160200191610655565b820191906000526020600020905b81548152906001019060200180831161063857829003601f168201915b505050505081565b60025481565b60005473ffffffffffffffffffffffffffffffffffffffff1690565b60005473ffffffffffffffffffffffffffffffffffffffff1681565b6060600180548060200260200160405190810160405280929190818152602001828054801561047157602002820191906000526020600020905b815473ffffffffffffffffffffffffffffffffffffffff1681526001909101906020018083116106d5575050505050905090565b60005473ffffffffffffffffffffffffffffffffffffffff16331461078f57604080517f08c379a000000000000000000000000000000000000000000000000000000000815260206004820152601c60248201527f43616c6c6572206973206e6f7420746865206b656570206f776e657200000000604482015290519081900360640190fd5b6107976103ac565b61080257604080517f08c379a000000000000000000000000000000000000000000000000000000000815260206004820152601260248201527f4b656570206973206e6f74206163746976650000000000000000000000000000604482015290519081900360640190fd5b61080a610d16565b565b61088633600180548060200260200160405190810160405280929190818152602001828054801561087357602002820191906000526020600020905b815473ffffffffffffffffffffffffffffffffffffffff168152600190910190602001808311610848575b5050505050610d6c90919063ffffffff16565b6108f157604080517f08c379a000000000000000000000000000000000000000000000000000000000815260206004820152601d60248201527f43616c6c6572206973206e6f7420746865206b656570206d656d626572000000604482015290519081900360640190fd5b6108fa33610dde565b15610950576040517f08c379a0000000000000000000000000000000000000000000000000000000008152600401808060200182810382526025815260200180610fa86025913960400191505060405180910390fd5b604081146109bf57604080517f08c379a000000000000000000000000000000000000000000000000000000000815260206004820181905260248201527f5075626c6963206b6579206d757374206265203634206279746573206c6f6e67604482015290519081900360640190fd5b3360009081526005602052604090206109d9908383610ec3565b506000805b600154811015610c5d57838360405180838380828437808301925050509250505060405180910390206005600060018481548110610a1857fe5b9060005260206000200160009054906101000a900473ffffffffffffffffffffffffffffffffffffffff1673ffffffffffffffffffffffffffffffffffffffff1673ffffffffffffffffffffffffffffffffffffffff1681526020019081526020016000206040518082805460018160011615610100020316600290048015610ad85780601f10610ab6576101008083540402835291820191610ad8565b820191906000526020600020905b815481529060010190602001808311610ac4575b5050915050604051809103902014610c4e57610b2160018281548110610afa57fe5b60009182526020909120015473ffffffffffffffffffffffffffffffffffffffff16610dde565b15610c49573373ffffffffffffffffffffffffffffffffffffffff167f99d98e35ad6445ac964c46a75c7f748e8f390ebdca5a924cd8f92d674fa34ff76005600060018581548110610b6f57fe5b600091825260208083209091015473ffffffffffffffffffffffffffffffffffffffff16835282810193909352604091820190208151838152815460027fffffffffffffffffffffffffffffffffffffffffffffffffffffffffffffffff60018316156101000201909116049381018490529092909182919082019084908015610c3a5780601f10610c0f57610100808354040283529160200191610c3a565b820191906000526020600020905b815481529060010190602001808311610c1d57829003601f168201915b50509250505060405180910390a25b610c55565b6001909101905b6001016109de565b506001548114610c6d5750610cfa565b610c7960038484610ec3565b507ff62bba8b270bef3e8d0fcebc1f86567664da8ccbd03e8509d6231cc8d63f4b31838360405180806020018281038252848482818152602001925080828437600083820152604051601f9091017fffffffffffffffffffffffffffffffffffffffffffffffffffffffffffffffe0169092018290039550909350505050a1505b5050565b600060016103b0565b600060026103b0565b60045490565b600680547fffffffffffffffffffffffffffffffffffffffffffffffffffffffffffffff001660011790556040517f400fd7ee62b209afddce9dfbca204b2124c135597dff0ac92e9844e2b08927f690600090a1565b6000805b8351811015610dd257838181518110610d8557fe5b602002602001015173ffffffffffffffffffffffffffffffffffffffff168373ffffffffffffffffffffffffffffffffffffffff161415610dca576001915050610dd8565b600101610d70565b50600090505b92915050565b73ffffffffffffffffffffffffffffffffffffffff1660009081526005602052604090205460026001821615610100027fffffffffffffffffffffffffffffffffffffffffffffffffffffffffffffffff0190911604151590565b828054828255906000526020600020908101928215610eb3579160200282015b82811115610eb357825182547fffffffffffffffffffffffff00000000000000000000000000000000000000001673ffffffffffffffffffffffffffffffffffffffff909116178255602090920191600190910190610e59565b50610ebf929150610f5b565b5090565b828054600181600116156101000203166002900490600052602060002090601f016020900481019282601f10610f22578280017fffffffffffffffffffffffffffffffffffffffffffffffffffffffffffffff00823516178555610f4f565b82800160010185558215610f4f579182015b82811115610f4f578235825591602001919060010190610f34565b50610ebf929150610f92565b5b80821115610ebf5780547fffffffffffffffffffffffff0000000000000000000000000000000000000000168155600101610f5c565b5b80821115610ebf5760008155600101610f9356fe4d656d62657220616c7265616479207375626d69747465642061207075626c6963206b6579a264697066735822122027cddce2da5ffb330c7442ba4c23c5ec3381f5bc4f94a47cf6e04af0a336141264736f6c634300060c0033",
  "devdoc": {
    "kind": "dev",
    "methods": {
      "closeKeep()": {
        "details": "The function can be called only by the owner of the keep and only if the keep has not been already closed."
      },
      "getMembers()": {
        "returns": {
          "_0": "List of the keep members' addresses."
        }
      },
      "getOpenedTimestamp()": {
        "returns": {
          "_0": "Timestamp the keep was opened at."
        }
      },
      "getOwner()": {
        "returns": {
          "_0": "Address of the keep owner."
        }
      },
      "getPublicKey()": {
        "returns": {
          "_0": "Keep's ECDSA public key."
        }
      },
      "initialize(address,address[],uint256)": {
        "details": "We use clone factory to create new keep. That is why this contract doesn't have a constructor. We provide keep parameters for each instance function after cloning instances from the master contract. Initialization must happen in the same transaction in which the clone is created.",
        "params": {
          "_honestThreshold": "Minimum number of honest keep members.",
          "_members": "Addresses of the keep members.",
          "_owner": "Address of the keep owner."
        }
      },
      "isActive()": {
        "returns": {
          "_0": "true if the keep is active, false otherwise."
        }
      },
      "isClosed()": {
        "returns": {
          "_0": "true if the keep is closed, false otherwise."
        }
      },
      "isTerminated()": {
        "returns": {
          "_0": "true if the keep has been terminated, false otherwise."
        }
      },
      "submitPublicKey(bytes)": {
        "details": "Public key is published successfully if all members submit the same value. In case of conflicts with others members submissions it will emit `ConflictingPublicKeySubmitted` event. When all submitted keys match it will store the key as keep's public key and emit a `PublicKeyPublished` event.",
        "params": {
          "_publicKey": "Signer's public key."
        }
      }
    },
    "version": 1
  },
  "userdoc": {
    "kind": "user",
    "methods": {
      "closeKeep()": {
        "notice": "Closes keep when owner decides that they no longer need it. Releases bonds to the keep members."
      },
      "getMembers()": {
        "notice": "Returns members of the keep."
      },
      "getOpenedTimestamp()": {
        "notice": "Gets the timestamp the keep was opened at."
      },
      "getOwner()": {
        "notice": "Gets the owner of the keep."
      },
      "getPublicKey()": {
        "notice": "Returns keep's ECDSA public key."
      },
      "initialize(address,address[],uint256)": {
        "notice": "Initialization function."
      },
      "isActive()": {
        "notice": "Returns true if the keep is active."
      },
      "isClosed()": {
        "notice": "Returns true if the keep is closed and members no longer support this keep."
      },
      "isTerminated()": {
        "notice": "Returns true if the keep has been terminated. Keep is terminated when bonds are seized and members no longer support this keep."
      },
      "submitPublicKey(bytes)": {
        "notice": "Submits a public key to the keep."
      }
    },
    "version": 1
  },
  "storageLayout": {
    "storage": [
      {
        "astId": 6451,
        "contract": "contracts/synapse/ECDSANodeManagement.sol:ECDSANodeManagement",
        "label": "owner",
        "offset": 0,
        "slot": "0",
        "type": "t_address"
      },
      {
        "astId": 6454,
        "contract": "contracts/synapse/ECDSANodeManagement.sol:ECDSANodeManagement",
        "label": "members",
        "offset": 0,
        "slot": "1",
        "type": "t_array(t_address)dyn_storage"
      },
      {
        "astId": 6456,
        "contract": "contracts/synapse/ECDSANodeManagement.sol:ECDSANodeManagement",
        "label": "honestThreshold",
        "offset": 0,
        "slot": "2",
        "type": "t_uint256"
      },
      {
        "astId": 6458,
        "contract": "contracts/synapse/ECDSANodeManagement.sol:ECDSANodeManagement",
        "label": "publicKey",
        "offset": 0,
        "slot": "3",
        "type": "t_bytes_storage"
      },
      {
        "astId": 6460,
        "contract": "contracts/synapse/ECDSANodeManagement.sol:ECDSANodeManagement",
        "label": "keyGenerationStartTimestamp",
        "offset": 0,
        "slot": "4",
        "type": "t_uint256"
      },
      {
        "astId": 6464,
        "contract": "contracts/synapse/ECDSANodeManagement.sol:ECDSANodeManagement",
        "label": "submittedPublicKeys",
        "offset": 0,
        "slot": "5",
        "type": "t_mapping(t_address,t_bytes_storage)"
      },
      {
        "astId": 6466,
        "contract": "contracts/synapse/ECDSANodeManagement.sol:ECDSANodeManagement",
        "label": "status",
        "offset": 0,
        "slot": "6",
        "type": "t_enum(Status)6449"
      },
      {
        "astId": 6468,
        "contract": "contracts/synapse/ECDSANodeManagement.sol:ECDSANodeManagement",
        "label": "isInitialized",
        "offset": 1,
        "slot": "6",
        "type": "t_bool"
      }
    ],
    "types": {
      "t_address": {
        "encoding": "inplace",
        "label": "address",
        "numberOfBytes": "20"
      },
      "t_array(t_address)dyn_storage": {
        "base": "t_address",
        "encoding": "dynamic_array",
        "label": "address[]",
        "numberOfBytes": "32"
      },
      "t_bool": {
        "encoding": "inplace",
        "label": "bool",
        "numberOfBytes": "1"
      },
      "t_bytes_storage": {
        "encoding": "bytes",
        "label": "bytes",
        "numberOfBytes": "32"
      },
      "t_enum(Status)6449": {
        "encoding": "inplace",
        "label": "enum ECDSANodeManagement.Status",
        "numberOfBytes": "1"
      },
      "t_mapping(t_address,t_bytes_storage)": {
        "encoding": "mapping",
        "key": "t_address",
        "label": "mapping(address => bytes)",
        "numberOfBytes": "32",
        "value": "t_bytes_storage"
      },
      "t_uint256": {
        "encoding": "inplace",
        "label": "uint256",
        "numberOfBytes": "32"
      }
    }
  }
}