{
  "address": "0x20A9DC684B4d0407EF8C9A302BEAaA18ee15F656",
  "abi": [
    {
      "inputs": [],
      "name": "bridge",
      "outputs": [
        {
          "internalType": "address",
          "name": "",
          "type": "address"
        }
      ],
      "stateMutability": "view",
      "type": "function"
    },
    {
      "inputs": [
        {
          "internalType": "address",
          "name": "_addr",
          "type": "address"
        },
        {
          "internalType": "uint256",
          "name": "_amount",
          "type": "uint256"
        }
      ],
      "name": "burnFrom",
      "outputs": [],
      "stateMutability": "nonpayable",
      "type": "function"
    },
    {
      "inputs": [],
      "name": "gmx",
      "outputs": [
        {
          "internalType": "address",
          "name": "",
          "type": "address"
        }
      ],
      "stateMutability": "view",
      "type": "function"
    },
    {
      "inputs": [
        {
          "internalType": "address",
          "name": "_addr",
          "type": "address"
        },
        {
          "internalType": "uint256",
          "name": "_amount",
          "type": "uint256"
        }
      ],
      "name": "mint",
      "outputs": [],
      "stateMutability": "nonpayable",
      "type": "function"
    },
    {
      "inputs": [
        {
          "internalType": "address",
          "name": "_recipient",
          "type": "address"
        },
        {
          "internalType": "uint256",
          "name": "_amount",
          "type": "uint256"
        }
      ],
      "name": "transfer",
      "outputs": [
        {
          "internalType": "bool",
          "name": "",
          "type": "bool"
        }
      ],
      "stateMutability": "nonpayable",
      "type": "function"
    }
  ],
  "transactionHash": "0x8b39d1f265639af6a3efa7fcaa21f80e0031f01256f5bcab3f940dfbf1f6bd99",
  "args": [],
  "numDeployments": 1,
  "solcInputHash": "9fd54f9447607882b6f6dbd801c9ce03",
  "bytecode": "0x608060405234801561001057600080fd5b50610a0e806100206000396000f3fe608060405234801561001057600080fd5b50600436106100675760003560e01c806379cc67901161005057806379cc6790146100d8578063a9059cbb14610111578063e78cea921461015e57610067565b806331e67c711461006c57806340c10f191461009d575b600080fd5b610074610166565b6040805173ffffffffffffffffffffffffffffffffffffffff9092168252519081900360200190f35b6100d6600480360360408110156100b357600080fd5b5073ffffffffffffffffffffffffffffffffffffffff813516906020013561017e565b005b6100d6600480360360408110156100ee57600080fd5b5073ffffffffffffffffffffffffffffffffffffffff8135169060200135610413565b61014a6004803603604081101561012757600080fd5b5073ffffffffffffffffffffffffffffffffffffffff81351690602001356106a2565b604080519115158252519081900360200190f35b6100746106d8565b7362edc0692bd897d2295872a9ffcac5425011c66181565b3373c05e61d0e7a63d27546389b7ad62fdff5a91aace1461019e57600080fd5b60007362edc0692bd897d2295872a9ffcac5425011c66173ffffffffffffffffffffffffffffffffffffffff166370a08231846040518263ffffffff1660e01b8152600401808273ffffffffffffffffffffffffffffffffffffffff16815260200191505060206040518083038186803b15801561021b57600080fd5b505afa15801561022f573d6000803e3d6000fd5b505050506040513d602081101561024557600080fd5b5051604080517f40c10f1900000000000000000000000000000000000000000000000000000000815273ffffffffffffffffffffffffffffffffffffffff861660048201526024810185905290519192507362edc0692bd897d2295872a9ffcac5425011c661916340c10f199160448082019260009290919082900301818387803b1580156102d357600080fd5b505af11580156102e7573d6000803e3d6000fd5b5050505060007362edc0692bd897d2295872a9ffcac5425011c66173ffffffffffffffffffffffffffffffffffffffff166370a08231856040518263ffffffff1660e01b8152600401808273ffffffffffffffffffffffffffffffffffffffff16815260200191505060206040518083038186803b15801561036857600080fd5b505afa15801561037c573d6000803e3d6000fd5b505050506040513d602081101561039257600080fd5b50519050806103a183856106f0565b1461040d57604080517f08c379a000000000000000000000000000000000000000000000000000000000815260206004820152600f60248201527f4d696e7420696e636f6d706c6574650000000000000000000000000000000000604482015290519081900360640190fd5b50505050565b3373c05e61d0e7a63d27546389b7ad62fdff5a91aace1461043357600080fd5b60007362edc0692bd897d2295872a9ffcac5425011c66173ffffffffffffffffffffffffffffffffffffffff166370a08231846040518263ffffffff1660e01b8152600401808273ffffffffffffffffffffffffffffffffffffffff16815260200191505060206040518083038186803b1580156104b057600080fd5b505afa1580156104c4573d6000803e3d6000fd5b505050506040513d60208110156104da57600080fd5b5051604080517f9dc29fac00000000000000000000000000000000000000000000000000000000815273ffffffffffffffffffffffffffffffffffffffff861660048201526024810185905290519192507362edc0692bd897d2295872a9ffcac5425011c66191639dc29fac9160448082019260009290919082900301818387803b15801561056857600080fd5b505af115801561057c573d6000803e3d6000fd5b5050505060007362edc0692bd897d2295872a9ffcac5425011c66173ffffffffffffffffffffffffffffffffffffffff166370a08231856040518263ffffffff1660e01b8152600401808273ffffffffffffffffffffffffffffffffffffffff16815260200191505060206040518083038186803b1580156105fd57600080fd5b505afa158015610611573d6000803e3d6000fd5b505050506040513d602081101561062757600080fd5b505190508161063682856106f0565b1461040d57604080517f08c379a000000000000000000000000000000000000000000000000000000000815260206004820152600f60248201527f4275726e20696e636f6d706c6574650000000000000000000000000000000000604482015290519081900360640190fd5b60003373c05e61d0e7a63d27546389b7ad62fdff5a91aace146106c457600080fd5b6106cf33848461076b565b50600192915050565b73c05e61d0e7a63d27546389b7ad62fdff5a91aace81565b60008282018381101561076457604080517f08c379a000000000000000000000000000000000000000000000000000000000815260206004820152601b60248201527f536166654d6174683a206164646974696f6e206f766572666c6f770000000000604482015290519081900360640190fd5b9392505050565b73ffffffffffffffffffffffffffffffffffffffff83166107d7576040517f08c379a00000000000000000000000000000000000000000000000000000000081526004018080602001828103825260298152602001806109b06029913960400191505060405180910390fd5b73ffffffffffffffffffffffffffffffffffffffff8216610843576040517f08c379a00000000000000000000000000000000000000000000000000000000081526004018080602001828103825260278152602001806109896027913960400191505060405180910390fd5b604080517f9dc29fac00000000000000000000000000000000000000000000000000000000815273ffffffffffffffffffffffffffffffffffffffff851660048201526024810183905290517362edc0692bd897d2295872a9ffcac5425011c66191639dc29fac91604480830192600092919082900301818387803b1580156108cb57600080fd5b505af11580156108df573d6000803e3d6000fd5b5050604080517f40c10f1900000000000000000000000000000000000000000000000000000000815273ffffffffffffffffffffffffffffffffffffffff861660048201526024810185905290517362edc0692bd897d2295872a9ffcac5425011c66193506340c10f199250604480830192600092919082900301818387803b15801561096b57600080fd5b505af115801561097f573d6000803e3d6000fd5b5050505050505056fe42617365546f6b656e3a207472616e7366657220746f20746865207a65726f206164647265737342617365546f6b656e3a207472616e736665722066726f6d20746865207a65726f2061646472657373a26469706673582212200b492912c493e6fb6cd5528c3fedbd35e9abdaea791d85ad0675c458c3bca9f964736f6c634300060c0033",
  "devdoc": {
    "kind": "dev",
    "methods": {},
    "version": 1
  },
  "userdoc": {
    "kind": "user",
    "methods": {},
    "version": 1
  },
  "storageLayout": {
    "storage": [],
    "types": null
  }
}