{
  "address": "0x0150E4bb98422f3b38aE8524E0cE0B7E734923eB",
  "abi": [
    {
      "inputs": [
        {
          "internalType": "uint8",
          "name": "",
          "type": "uint8"
        },
        {
          "internalType": "uint8",
          "name": "",
          "type": "uint8"
        },
        {
          "internalType": "uint256",
          "name": "",
          "type": "uint256"
        }
      ],
      "name": "calculateSwap",
      "outputs": [
        {
          "internalType": "uint256",
          "name": "",
          "type": "uint256"
        }
      ],
      "stateMutability": "pure",
      "type": "function"
    },
    {
      "inputs": [
        {
          "internalType": "uint8",
          "name": "",
          "type": "uint8"
        },
        {
          "internalType": "uint8",
          "name": "",
          "type": "uint8"
        },
        {
          "internalType": "uint256",
          "name": "",
          "type": "uint256"
        },
        {
          "internalType": "uint256",
          "name": "",
          "type": "uint256"
        },
        {
          "internalType": "uint256",
          "name": "",
          "type": "uint256"
        }
      ],
      "name": "swap",
      "outputs": [
        {
          "internalType": "uint256",
          "name": "",
          "type": "uint256"
        }
      ],
      "stateMutability": "payable",
      "type": "function"
    }
  ],
  "transactionHash": "0x31d53f227f54d4b2cd1c2db3a10a2bc39883597cd199ca858f1591f8cfd33722",
  "args": [],
  "solcInputHash": "758096ecd3d06e06616ed8b113dfbf80",
  "bytecode": "0x608060405234801561001057600080fd5b50610131806100206000396000f3fe60806040526004361060265760003560e01c80639169558614602b578063a95b089f146076575b600080fd5b6064600480360360a0811015603f57600080fd5b5060ff81358116916020810135909116906040810135906060810135906080013560af565b60408051918252519081900360200190f35b348015608157600080fd5b50606460048036036060811015609657600080fd5b5060ff81358116916020810135909116906040013560f2565b604080517f08c379a00000000000000000000000000000000000000000000000000000000081526020600482015260006024820181905291519081900360640190fd5b6000939250505056fea26469706673582212203e9babea9ee5d1c0b25685288489501736e4c992e7346893236352828c95eaa564736f6c634300060c0033",
  "devdoc": {
    "kind": "dev",
    "methods": {},
    "version": 1
  },
  "userdoc": {
    "kind": "user",
    "methods": {},
    "version": 1
  },
  "storageLayout": {
    "storage": [],
    "types": null
  }
}