{
  "address": "0xb899E925C7C01652A44C7a1f3121B40ec5Da91FA",
  "abi": [
    {
      "anonymous": false,
      "inputs": [
        {
          "indexed": true,
          "internalType": "bytes32",
          "name": "role",
          "type": "bytes32"
        },
        {
          "indexed": true,
          "internalType": "bytes32",
          "name": "previousAdminRole",
          "type": "bytes32"
        },
        {
          "indexed": true,
          "internalType": "bytes32",
          "name": "newAdminRole",
          "type": "bytes32"
        }
      ],
      "name": "RoleAdminChanged",
      "type": "event"
    },
    {
      "anonymous": false,
      "inputs": [
        {
          "indexed": true,
          "internalType": "bytes32",
          "name": "role",
          "type": "bytes32"
        },
        {
          "indexed": true,
          "internalType": "address",
          "name": "account",
          "type": "address"
        },
        {
          "indexed": true,
          "internalType": "address",
          "name": "sender",
          "type": "address"
        }
      ],
      "name": "RoleGranted",
      "type": "event"
    },
    {
      "anonymous": false,
      "inputs": [
        {
          "indexed": true,
          "internalType": "bytes32",
          "name": "role",
          "type": "bytes32"
        },
        {
          "indexed": true,
          "internalType": "address",
          "name": "account",
          "type": "address"
        },
        {
          "indexed": true,
          "internalType": "address",
          "name": "sender",
          "type": "address"
        }
      ],
      "name": "RoleRevoked",
      "type": "event"
    },
    {
      "inputs": [],
      "name": "BRIDGE",
      "outputs": [
        {
          "internalType": "contract ISynapseBridge",
          "name": "",
          "type": "address"
        }
      ],
      "stateMutability": "view",
      "type": "function"
    },
    {
      "inputs": [],
      "name": "DEFAULT_ADMIN_ROLE",
      "outputs": [
        {
          "internalType": "bytes32",
          "name": "",
          "type": "bytes32"
        }
      ],
      "stateMutability": "view",
      "type": "function"
    },
    {
      "inputs": [],
      "name": "GOVERNANCE_ROLE",
      "outputs": [
        {
          "internalType": "bytes32",
          "name": "",
          "type": "bytes32"
        }
      ],
      "stateMutability": "view",
      "type": "function"
    },
    {
      "inputs": [],
      "name": "HALF_Q",
      "outputs": [
        {
          "internalType": "uint256",
          "name": "",
          "type": "uint256"
        }
      ],
      "stateMutability": "view",
      "type": "function"
    },
    {
      "inputs": [],
      "name": "MINT_AND_SWAP_TYPE",
      "outputs": [
        {
          "internalType": "uint256",
          "name": "",
          "type": "uint256"
        }
      ],
      "stateMutability": "view",
      "type": "function"
    },
    {
      "inputs": [],
      "name": "MINT_EVENT_TYPE",
      "outputs": [
        {
          "internalType": "uint256",
          "name": "",
          "type": "uint256"
        }
      ],
      "stateMutability": "view",
      "type": "function"
    },
    {
      "inputs": [],
      "name": "Q",
      "outputs": [
        {
          "internalType": "uint256",
          "name": "",
          "type": "uint256"
        }
      ],
      "stateMutability": "view",
      "type": "function"
    },
    {
      "inputs": [],
      "name": "WITHDRAW_AND_REMOVE_TYPE",
      "outputs": [
        {
          "internalType": "uint256",
          "name": "",
          "type": "uint256"
        }
      ],
      "stateMutability": "view",
      "type": "function"
    },
    {
      "inputs": [],
      "name": "WITHDRAW_EVENT_TYPE",
      "outputs": [
        {
          "internalType": "uint256",
          "name": "",
          "type": "uint256"
        }
      ],
      "stateMutability": "view",
      "type": "function"
    },
    {
      "inputs": [
        {
          "internalType": "bytes32",
          "name": "role",
          "type": "bytes32"
        }
      ],
      "name": "getRoleAdmin",
      "outputs": [
        {
          "internalType": "bytes32",
          "name": "",
          "type": "bytes32"
        }
      ],
      "stateMutability": "view",
      "type": "function"
    },
    {
      "inputs": [
        {
          "internalType": "bytes32",
          "name": "role",
          "type": "bytes32"
        },
        {
          "internalType": "uint256",
          "name": "index",
          "type": "uint256"
        }
      ],
      "name": "getRoleMember",
      "outputs": [
        {
          "internalType": "address",
          "name": "",
          "type": "address"
        }
      ],
      "stateMutability": "view",
      "type": "function"
    },
    {
      "inputs": [
        {
          "internalType": "bytes32",
          "name": "role",
          "type": "bytes32"
        }
      ],
      "name": "getRoleMemberCount",
      "outputs": [
        {
          "internalType": "uint256",
          "name": "",
          "type": "uint256"
        }
      ],
      "stateMutability": "view",
      "type": "function"
    },
    {
      "inputs": [
        {
          "internalType": "bytes32",
          "name": "role",
          "type": "bytes32"
        },
        {
          "internalType": "address",
          "name": "account",
          "type": "address"
        }
      ],
      "name": "grantRole",
      "outputs": [],
      "stateMutability": "nonpayable",
      "type": "function"
    },
    {
      "inputs": [
        {
          "internalType": "bytes32",
          "name": "role",
          "type": "bytes32"
        },
        {
          "internalType": "address",
          "name": "account",
          "type": "address"
        }
      ],
      "name": "hasRole",
      "outputs": [
        {
          "internalType": "bool",
          "name": "",
          "type": "bool"
        }
      ],
      "stateMutability": "view",
      "type": "function"
    },
    {
      "inputs": [],
      "name": "initialize",
      "outputs": [],
      "stateMutability": "nonpayable",
      "type": "function"
    },
    {
      "inputs": [
        {
          "internalType": "address payable",
          "name": "to",
          "type": "address"
        },
        {
          "internalType": "contract IERC20Mintable",
          "name": "token",
          "type": "address"
        },
        {
          "internalType": "uint256",
          "name": "amount",
          "type": "uint256"
        },
        {
          "internalType": "uint256",
          "name": "fee",
          "type": "uint256"
        },
        {
          "internalType": "bytes32",
          "name": "kappa",
          "type": "bytes32"
        },
        {
          "internalType": "uint256",
          "name": "signature",
          "type": "uint256"
        },
        {
          "internalType": "address",
          "name": "commitmentAddress",
          "type": "address"
        }
      ],
      "name": "mint",
      "outputs": [],
      "stateMutability": "nonpayable",
      "type": "function"
    },
    {
      "inputs": [
        {
          "internalType": "address payable",
          "name": "to",
          "type": "address"
        },
        {
          "internalType": "contract IERC20Mintable",
          "name": "token",
          "type": "address"
        },
        {
          "internalType": "uint256",
          "name": "amount",
          "type": "uint256"
        },
        {
          "internalType": "uint256",
          "name": "fee",
          "type": "uint256"
        },
        {
          "internalType": "contract IMetaSwapDeposit",
          "name": "pool",
          "type": "address"
        },
        {
          "internalType": "uint8",
          "name": "tokenIndexFrom",
          "type": "uint8"
        },
        {
          "internalType": "uint8",
          "name": "tokenIndexTo",
          "type": "uint8"
        },
        {
          "internalType": "uint256",
          "name": "minDy",
          "type": "uint256"
        },
        {
          "internalType": "uint256",
          "name": "deadline",
          "type": "uint256"
        },
        {
          "internalType": "bytes32",
          "name": "kappa",
          "type": "bytes32"
        },
        {
          "internalType": "uint256",
          "name": "signature",
          "type": "uint256"
        },
        {
          "internalType": "address",
          "name": "commitmentAddress",
          "type": "address"
        }
      ],
      "name": "mintAndSwap",
      "outputs": [],
      "stateMutability": "nonpayable",
      "type": "function"
    },
    {
      "inputs": [],
      "name": "pubKeyYParity",
      "outputs": [
        {
          "internalType": "uint8",
          "name": "",
          "type": "uint8"
        }
      ],
      "stateMutability": "view",
      "type": "function"
    },
    {
      "inputs": [
        {
          "internalType": "bytes32",
          "name": "role",
          "type": "bytes32"
        },
        {
          "internalType": "address",
          "name": "account",
          "type": "address"
        }
      ],
      "name": "renounceRole",
      "outputs": [],
      "stateMutability": "nonpayable",
      "type": "function"
    },
    {
      "inputs": [
        {
          "internalType": "bytes32",
          "name": "role",
          "type": "bytes32"
        },
        {
          "internalType": "address",
          "name": "account",
          "type": "address"
        }
      ],
      "name": "revokeRole",
      "outputs": [],
      "stateMutability": "nonpayable",
      "type": "function"
    },
    {
      "inputs": [
        {
          "internalType": "address payable",
          "name": "_bridgeAddress",
          "type": "address"
        }
      ],
      "name": "setBridgeAddress",
      "outputs": [],
      "stateMutability": "nonpayable",
      "type": "function"
    },
    {
      "inputs": [
        {
          "internalType": "uint256",
          "name": "_signingPubKeyX",
          "type": "uint256"
        },
        {
          "internalType": "uint8",
          "name": "_pubKeyYParity",
          "type": "uint8"
        }
      ],
      "name": "setSchnorrPubKey",
      "outputs": [],
      "stateMutability": "nonpayable",
      "type": "function"
    },
    {
      "inputs": [],
      "name": "signingPubKeyX",
      "outputs": [
        {
          "internalType": "uint256",
          "name": "",
          "type": "uint256"
        }
      ],
      "stateMutability": "view",
      "type": "function"
    },
    {
      "inputs": [
        {
          "internalType": "uint256",
          "name": "signingPubKeyX",
          "type": "uint256"
        },
        {
          "internalType": "uint8",
          "name": "pubKeyYParity",
          "type": "uint8"
        },
        {
          "internalType": "uint256",
          "name": "signature",
          "type": "uint256"
        },
        {
          "internalType": "uint256",
          "name": "msgHash",
          "type": "uint256"
        },
        {
          "internalType": "address",
          "name": "nonceTimesGeneratorAddress",
          "type": "address"
        }
      ],
      "name": "verifySignature",
      "outputs": [
        {
          "internalType": "bool",
          "name": "",
          "type": "bool"
        }
      ],
      "stateMutability": "pure",
      "type": "function"
    },
    {
      "inputs": [
        {
          "internalType": "address",
          "name": "to",
          "type": "address"
        },
        {
          "internalType": "contract IERC20",
          "name": "token",
          "type": "address"
        },
        {
          "internalType": "uint256",
          "name": "amount",
          "type": "uint256"
        },
        {
          "internalType": "uint256",
          "name": "fee",
          "type": "uint256"
        },
        {
          "internalType": "bytes32",
          "name": "kappa",
          "type": "bytes32"
        },
        {
          "internalType": "uint256",
          "name": "signature",
          "type": "uint256"
        },
        {
          "internalType": "address",
          "name": "commitmentAddress",
          "type": "address"
        }
      ],
      "name": "withdraw",
      "outputs": [],
      "stateMutability": "nonpayable",
      "type": "function"
    },
    {
      "inputs": [
        {
          "internalType": "address",
          "name": "to",
          "type": "address"
        },
        {
          "internalType": "contract IERC20",
          "name": "token",
          "type": "address"
        },
        {
          "internalType": "uint256",
          "name": "amount",
          "type": "uint256"
        },
        {
          "internalType": "uint256",
          "name": "fee",
          "type": "uint256"
        },
        {
          "internalType": "contract ISwap",
          "name": "pool",
          "type": "address"
        },
        {
          "internalType": "uint8",
          "name": "swapTokenIndex",
          "type": "uint8"
        },
        {
          "internalType": "uint256",
          "name": "swapMinAmount",
          "type": "uint256"
        },
        {
          "internalType": "uint256",
          "name": "swapDeadline",
          "type": "uint256"
        },
        {
          "internalType": "bytes32",
          "name": "kappa",
          "type": "bytes32"
        },
        {
          "internalType": "uint256",
          "name": "signature",
          "type": "uint256"
        },
        {
          "internalType": "address",
          "name": "commitmentAddress",
          "type": "address"
        }
      ],
      "name": "withdrawAndRemove",
      "outputs": [],
      "stateMutability": "nonpayable",
      "type": "function"
    }
  ],
  "transactionHash": "0xa53e2ff0d50efd599009dfeafe5365a0ef5bf5e77002619e40cfaf6df03b07bd",
  "args": [],
  "solcInputHash": "78292d5a1b38bab0fd51e6bf7604003f",
  "bytecode": "0x608060405234801561001057600080fd5b50611bcf806100206000396000f3fe608060405234801561001057600080fd5b50600436106101ae5760003560e01c80639010d07c116100ee578063dd6c4e1811610097578063ee9a31a211610071578063ee9a31a214610566578063f1d8437c1461056e578063f36c8f5c146105cb578063ff51dff2146105d3576101ae565b8063dd6c4e18146104f9578063e493ef8c14610501578063e50c9ba114610509576101ae565b8063ae452cac116100c8578063ae452cac1461049b578063ca15c873146104a3578063d547741f146104c0576101ae565b80639010d07c146103fa57806391d1485414610446578063a217fddf14610493576101ae565b80632f2ff15d1161015b5780637770b478116101355780637770b478146103395780637f5a22f9146103b75780638129fc1c146103ea5780638efb3bb2146103f2576101ae565b80632f2ff15d146102a957806336568abe146102e25780637261f5061461031b576101ae565b80631a2650b51161018c5780631a2650b5146101fd5780631cd6dd2d14610284578063248a9ca31461028c576101ae565b80630e699ca7146101b3578063154882ae146101cd57806317708525146101f5575b600080fd5b6101bb610621565b60408051918252519081900360200190f35b6101f3600480360360408110156101e357600080fd5b508035906020013560ff16610626565b005b6101bb61072d565b6101f3600480360361018081101561021457600080fd5b5073ffffffffffffffffffffffffffffffffffffffff81358116916020810135821691604082013591606081013591608082013581169160ff60a082013581169260c08301359091169160e081013591610100820135916101208101359161014082013591610160013516610732565b6101bb610939565b6101bb600480360360208110156102a257600080fd5b503561093f565b6101f3600480360360408110156102bf57600080fd5b508035906020013573ffffffffffffffffffffffffffffffffffffffff16610954565b6101f3600480360360408110156102f857600080fd5b508035906020013573ffffffffffffffffffffffffffffffffffffffff166109da565b610323610a6f565b6040805160ff9092168252519081900360200190f35b6101f3600480360361016081101561035057600080fd5b5073ffffffffffffffffffffffffffffffffffffffff81358116916020810135821691604082013591606081013591608082013581169160ff60a0820135169160c08201359160e08101359161010082013591610120810135916101409091013516610a78565b6101f3600480360360208110156103cd57600080fd5b503573ffffffffffffffffffffffffffffffffffffffff16610be6565b6101f3610c60565b6101bb610d87565b61041d6004803603604081101561041057600080fd5b5080359060200135610dab565b6040805173ffffffffffffffffffffffffffffffffffffffff9092168252519081900360200190f35b61047f6004803603604081101561045c57600080fd5b508035906020013573ffffffffffffffffffffffffffffffffffffffff16610dcc565b604080519115158252519081900360200190f35b6101bb610de4565b6101bb610de9565b6101bb600480360360208110156104b957600080fd5b5035610dee565b6101f3600480360360408110156104d657600080fd5b508035906020013573ffffffffffffffffffffffffffffffffffffffff16610e05565b6101bb610e78565b6101bb610e7d565b6101f3600480360360e081101561051f57600080fd5b5073ffffffffffffffffffffffffffffffffffffffff8135811691602081013582169160408201359160608101359160808201359160a08101359160c09091013516610ea1565b61041d610fc7565b6101f3600480360360e081101561058457600080fd5b5073ffffffffffffffffffffffffffffffffffffffff8135811691602081013582169160408201359160608101359160808201359160a08101359160c09091013516610fe3565b6101bb6110e7565b61047f600480360360a08110156105e957600080fd5b50803590602081013560ff16906040810135906060810135906080013573ffffffffffffffffffffffffffffffffffffffff1661110b565b600781565b6106507f71840dc4906352362b0cdaf79870196c8e42acafade72d5d5a6d59291253ceb133610dcc565b61065957600080fd5b7f7fffffffffffffffffffffffffffffff5d576e7357a4501ddfe92f46681b20a182106106e757604080517f08c379a000000000000000000000000000000000000000000000000000000000815260206004820152601660248201527f5075626c69632d6b65792078203e3d2048414c465f5100000000000000000000604482015290519081900360640190fd5b600082116106f457600080fd5b606691909155606780547fffffffffffffffffffffffffffffffffffffffffffffffffffffffffffffff001660ff909216919091179055565b600681565b600060078d8d8d8d8d8d8d8d8d8d604051602001808c81526020018b73ffffffffffffffffffffffffffffffffffffffff1681526020018a73ffffffffffffffffffffffffffffffffffffffff1681526020018981526020018881526020018773ffffffffffffffffffffffffffffffffffffffff1681526020018660ff1681526020018560ff1681526020018481526020018381526020018281526020019b5050505050505050505050506040516020818303038152906040528051906020012060001c9050610804838284611466565b61080d57600080fd5b606560009054906101000a900473ffffffffffffffffffffffffffffffffffffffff1673ffffffffffffffffffffffffffffffffffffffff1663173578928e8e8e8e8e8e8e8e8e8e6040518b63ffffffff1660e01b8152600401808b73ffffffffffffffffffffffffffffffffffffffff1681526020018a73ffffffffffffffffffffffffffffffffffffffff1681526020018981526020018881526020018773ffffffffffffffffffffffffffffffffffffffff1681526020018660ff1681526020018560ff1681526020018481526020018381526020018281526020019a5050505050505050505050600060405180830381600087803b15801561091257600080fd5b505af1158015610926573d6000803e3d6000fd5b5050505050505050505050505050505050565b60665481565b60009081526033602052604090206002015490565b6000828152603360205260409020600201546109779061097261152f565b610dcc565b6109cc576040517f08c379a000000000000000000000000000000000000000000000000000000000815260040180806020018281038252602f815260200180611abc602f913960400191505060405180910390fd5b6109d68282611533565b5050565b6109e261152f565b73ffffffffffffffffffffffffffffffffffffffff168173ffffffffffffffffffffffffffffffffffffffff1614610a65576040517f08c379a000000000000000000000000000000000000000000000000000000000815260040180806020018281038252602f815260200180611b6b602f913960400191505060405180910390fd5b6109d682826115b6565b60675460ff1681565b60408051600860208083019190915273ffffffffffffffffffffffffffffffffffffffff808f1683850152808e166060840152608083018d905260a083018c90528a1660c083015260ff891660e083015261010082018890526101208201879052610140808301879052835180840390910181526101609092019092528051910120610b05838284611466565b610b0e57600080fd5b606554604080517fd57eafac00000000000000000000000000000000000000000000000000000000815273ffffffffffffffffffffffffffffffffffffffff8f811660048301528e81166024830152604482018e9052606482018d90528b8116608483015260ff8b1660a483015260c482018a905260e4820189905261010482018890529151919092169163d57eafac9161012480830192600092919082900301818387803b158015610bc057600080fd5b505af1158015610bd4573d6000803e3d6000fd5b50505050505050505050505050505050565b610c107f71840dc4906352362b0cdaf79870196c8e42acafade72d5d5a6d59291253ceb133610dcc565b610c1957600080fd5b606580547fffffffffffffffffffffffff00000000000000000000000000000000000000001673ffffffffffffffffffffffffffffffffffffffff92909216919091179055565b600054610100900460ff1680610c795750610c79611639565b80610c87575060005460ff16155b610cdc576040517f08c379a000000000000000000000000000000000000000000000000000000000815260040180806020018281038252602e815260200180611b1b602e913960400191505060405180910390fd5b600054610100900460ff16158015610d4257600080547fffffffffffffffffffffffffffffffffffffffffffffffffffffffffffffff007fffffffffffffffffffffffffffffffffffffffffffffffffffffffffffff00ff909116610100171660011790555b610d4d6000336109cc565b610d5561164a565b8015610d8457600080547fffffffffffffffffffffffffffffffffffffffffffffffffffffffffffff00ff1690555b50565b7f7fffffffffffffffffffffffffffffff5d576e7357a4501ddfe92f46681b20a181565b6000828152603360205260408120610dc3908361173c565b90505b92915050565b6000828152603360205260408120610dc39083611748565b600081565b600581565b6000818152603360205260408120610dc69061176a565b600082815260336020526040902060020154610e239061097261152f565b610a65576040517f08c379a0000000000000000000000000000000000000000000000000000000008152600401808060200182810382526030815260200180611aeb6030913960400191505060405180910390fd5b600881565b7ffffffffffffffffffffffffffffffffebaaedce6af48a03bbfd25e8cd036414181565b60408051600560208083019190915273ffffffffffffffffffffffffffffffffffffffff808b1683850152891660608301526080820188905260a0820187905260c08083018790528351808403909101815260e09092019092528051910120610f0b838284611466565b610f1457600080fd5b606554604080517f1cf5f07f00000000000000000000000000000000000000000000000000000000815273ffffffffffffffffffffffffffffffffffffffff8b811660048301528a81166024830152604482018a9052606482018990526084820188905291519190921691631cf5f07f9160a480830192600092919082900301818387803b158015610fa557600080fd5b505af1158015610fb9573d6000803e3d6000fd5b505050505050505050505050565b60655473ffffffffffffffffffffffffffffffffffffffff1681565b60408051600660208083019190915273ffffffffffffffffffffffffffffffffffffffff808b1683850152891660608301526080820188905260a0820187905260c08083018790528351808403909101815260e0909201909252805191012061104d838284611466565b61105657600080fd5b606554604080517f20d7b32700000000000000000000000000000000000000000000000000000000815273ffffffffffffffffffffffffffffffffffffffff8b811660048301528a81166024830152604482018a90526064820189905260848201889052915191909216916320d7b3279160a480830192600092919082900301818387803b158015610fa557600080fd5b7f71840dc4906352362b0cdaf79870196c8e42acafade72d5d5a6d59291253ceb181565b60007f7fffffffffffffffffffffffffffffff5d576e7357a4501ddfe92f46681b20a1861061119b57604080517f08c379a000000000000000000000000000000000000000000000000000000000815260206004820152601660248201527f5075626c69632d6b65792078203e3d2048414c465f5100000000000000000000604482015290519081900360640190fd5b7ffffffffffffffffffffffffffffffffebaaedce6af48a03bbfd25e8cd03641418410611213576040517f08c379a0000000000000000000000000000000000000000000000000000000008152600401808060200182810382526022815260200180611b496022913960400191505060405180910390fd5b73ffffffffffffffffffffffffffffffffffffffff8216158015906112385750600086115b80156112445750600084115b80156112505750600083115b6112bb57604080517f08c379a000000000000000000000000000000000000000000000000000000000815260206004820152601660248201527f6e6f207a65726f20696e7075747320616c6c6f77656400000000000000000000604482015290519081900360640190fd5b6040805160208082018990527fff0000000000000000000000000000000000000000000000000000000000000060f889901b1682840152604182018690527fffffffffffffffffffffffffffffffffffffffff000000000000000000000000606086901b1660618301528251605581840301815260759092019092528051910120600060017ffffffffffffffffffffffffffffffffebaaedce6af48a03bbfd25e8cd0364141878a097ffffffffffffffffffffffffffffffffebaaedce6af48a03bbfd25e8cd03641410360ff89161561139657601c611399565b601b5b8a7ffffffffffffffffffffffffffffffffebaaedce6af48a03bbfd25e8cd03641418c870960001b60405160008152602001604052604051808581526020018460ff1681526020018381526020018281526020019450505050506020604051602081039080840390855afa158015611415573d6000803e3d6000fd5b50506040517fffffffffffffffffffffffffffffffffffffffffffffffffffffffffffffffe0015173ffffffffffffffffffffffffffffffffffffffff868116911614935050505095945050505050565b606654606754604080517fff51dff2000000000000000000000000000000000000000000000000000000008152600481019390935260ff9091166024830152604482018590526064820184905273ffffffffffffffffffffffffffffffffffffffff8316608483015251600091309163ff51dff29160a480820192602092909190829003018186803b1580156114fb57600080fd5b505afa15801561150f573d6000803e3d6000fd5b505050506040513d602081101561152557600080fd5b5051949350505050565b3390565b600082815260336020526040902061154b9082611775565b156109d65761155861152f565b73ffffffffffffffffffffffffffffffffffffffff168173ffffffffffffffffffffffffffffffffffffffff16837f2f8788117e7eff1d82e926ec794901d17c78024a50270940304540a733656f0d60405160405180910390a45050565b60008281526033602052604090206115ce9082611797565b156109d6576115db61152f565b73ffffffffffffffffffffffffffffffffffffffff168173ffffffffffffffffffffffffffffffffffffffff16837ff6391f5c32d9c69d2a47ea670b442974b53935d1edc7fd64eb21e047a839171b60405160405180910390a45050565b6000611644306117b9565b15905090565b600054610100900460ff16806116635750611663611639565b80611671575060005460ff16155b6116c6576040517f08c379a000000000000000000000000000000000000000000000000000000000815260040180806020018281038252602e815260200180611b1b602e913960400191505060405180910390fd5b600054610100900460ff1615801561172c57600080547fffffffffffffffffffffffffffffffffffffffffffffffffffffffffffffff007fffffffffffffffffffffffffffffffffffffffffffffffffffffffffffff00ff909116610100171660011790555b6117346117bf565b610d556117bf565b6000610dc383836118d1565b6000610dc38373ffffffffffffffffffffffffffffffffffffffff841661194f565b6000610dc682611967565b6000610dc38373ffffffffffffffffffffffffffffffffffffffff841661196b565b6000610dc38373ffffffffffffffffffffffffffffffffffffffff84166119b5565b3b151590565b600054610100900460ff16806117d857506117d8611639565b806117e6575060005460ff16155b61183b576040517f08c379a000000000000000000000000000000000000000000000000000000000815260040180806020018281038252602e815260200180611b1b602e913960400191505060405180910390fd5b600054610100900460ff16158015610d5557600080547fffffffffffffffffffffffffffffffffffffffffffffffffffffffffffffff007fffffffffffffffffffffffffffffffffffffffffffffffffffffffffffff00ff909116610100171660011790558015610d8457600080547fffffffffffffffffffffffffffffffffffffffffffffffffffffffffffff00ff16905550565b8154600090821061192d576040517f08c379a0000000000000000000000000000000000000000000000000000000008152600401808060200182810382526022815260200180611a9a6022913960400191505060405180910390fd5b82600001828154811061193c57fe5b9060005260206000200154905092915050565b60009081526001919091016020526040902054151590565b5490565b6000611977838361194f565b6119ad57508154600181810184556000848152602080822090930184905584548482528286019093526040902091909155610dc6565b506000610dc6565b60008181526001830160205260408120548015611a8f5783547fffffffffffffffffffffffffffffffffffffffffffffffffffffffffffffffff8083019190810190600090879083908110611a0657fe5b9060005260206000200154905080876000018481548110611a2357fe5b600091825260208083209091019290925582815260018981019092526040902090840190558654879080611a5357fe5b60019003818190600052602060002001600090559055866001016000878152602001908152602001600020600090556001945050505050610dc6565b6000915050610dc656fe456e756d657261626c655365743a20696e646578206f7574206f6620626f756e6473416363657373436f6e74726f6c3a2073656e646572206d75737420626520616e2061646d696e20746f206772616e74416363657373436f6e74726f6c3a2073656e646572206d75737420626520616e2061646d696e20746f207265766f6b65496e697469616c697a61626c653a20636f6e747261637420697320616c726561647920696e697469616c697a65647369676e6174757265206d7573742062652072656475636564206d6f64756c6f2051416363657373436f6e74726f6c3a2063616e206f6e6c792072656e6f756e636520726f6c657320666f722073656c66a2646970667358221220ef329f3ec8c5712d75eedf314f180b1e833f265b6e44337de9482cbde37a6d8164736f6c634300060c0033",
  "devdoc": {
    "kind": "dev",
    "methods": {
      "getRoleAdmin(bytes32)": {
        "details": "Returns the admin role that controls `role`. See {grantRole} and {revokeRole}. To change a role's admin, use {_setRoleAdmin}."
      },
      "getRoleMember(bytes32,uint256)": {
        "details": "Returns one of the accounts that have `role`. `index` must be a value between 0 and {getRoleMemberCount}, non-inclusive. Role bearers are not sorted in any particular way, and their ordering may change at any point. WARNING: When using {getRoleMember} and {getRoleMemberCount}, make sure you perform all queries on the same block. See the following https://forum.openzeppelin.com/t/iterating-over-elements-on-enumerableset-in-openzeppelin-contracts/2296[forum post] for more information."
      },
      "getRoleMemberCount(bytes32)": {
        "details": "Returns the number of accounts that have `role`. Can be used together with {getRoleMember} to enumerate all bearers of a role."
      },
      "grantRole(bytes32,address)": {
        "details": "Grants `role` to `account`. If `account` had not been already granted `role`, emits a {RoleGranted} event. Requirements: - the caller must have ``role``'s admin role."
      },
      "hasRole(bytes32,address)": {
        "details": "Returns `true` if `account` has been granted `role`."
      },
      "mint(address,address,uint256,uint256,bytes32,uint256,address)": {
        "details": "This means the SynapseBridge.sol contract must have minter access to the token attempting to be minted",
        "params": {
          "amount": "Amount in native token decimals to transfer cross-chain post-fees",
          "fee": "Amount in native token decimals to save to the contract as fees",
          "kappa": "kappa*",
          "to": "address on other chain to redeem underlying assets to",
          "token": "ERC20 compatible token to deposit into the bridge"
        }
      },
      "mintAndSwap(address,address,uint256,uint256,address,uint8,uint8,uint256,uint256,bytes32,uint256,address)": {
        "details": "This means the BridgeDeposit.sol contract must have minter access to the token attempting to be minted",
        "params": {
          "amount": "Amount in native token decimals to transfer cross-chain post-fees",
          "deadline": "Epoch time of the deadline that the swap is allowed to be executed.",
          "fee": "Amount in native token decimals to save to the contract as fees",
          "kappa": "kappa*",
          "minDy": "Minumum amount (in final asset decimals) that must be swapped for, otherwise the user will receive the SynERC20.",
          "pool": "Destination chain's pool to use to swap SynERC20 -> Asset. The nodes determine this by using PoolConfig.sol.",
          "to": "address on other chain to redeem underlying assets to",
          "token": "ERC20 compatible token to deposit into the bridge",
          "tokenIndexFrom": "Index of the SynERC20 asset in the pool",
          "tokenIndexTo": "Index of the desired final asset"
        }
      },
      "renounceRole(bytes32,address)": {
        "details": "Revokes `role` from the calling account. Roles are often managed via {grantRole} and {revokeRole}: this function's purpose is to provide a mechanism for accounts to lose their privileges if they are compromised (such as when a trusted device is misplaced). If the calling account had been granted `role`, emits a {RoleRevoked} event. Requirements: - the caller must be `account`."
      },
      "revokeRole(bytes32,address)": {
        "details": "Revokes `role` from `account`. If `account` had been granted `role`, emits a {RoleRevoked} event. Requirements: - the caller must have ``role``'s admin role."
      },
      "verifySignature(uint256,uint8,uint256,uint256,address)": {
        "details": "See https://en.wikipedia.org/wiki/Schnorr_signature for reference.In what follows, let d be your secret key, PK be your public key, PKx be the x ordinate of your public key, and PKyp be the parity bit for the y ordinate (i.e., 0 if PKy is even, 1 if odd.)**************************************************************************TO CREATE A VALID SIGNATURE FOR THIS METHODFirst PKx must be less than HALF_Q. Then follow these instructions (see evm/test/schnorr_test.js, for an example of carrying them out):1. Hash the target message to a uint256, called msgHash here, using keccak2562. Pick k uniformly and cryptographically securely randomly from {0,...,Q-1}. It is critical that k remains confidential, as your private key can be reconstructed from k and the signature.3. Compute k*g in the secp256k1 group, where g is the group generator. (This is the same as computing the public key from the secret key k. But it's OK if k*g's x ordinate is greater than HALF_Q.)4. Compute the ethereum address for k*g. This is the lower 160 bits of the keccak hash of the concatenated affine coordinates of k*g, as 32-byte big-endians. (For instance, you could pass k to ethereumjs-utils's privateToAddress to compute this, though that should be strictly a development convenience, not for handling live secrets, unless you've locked your javascript environment down very carefully.) Call this address nonceTimesGeneratorAddress.5. Compute e=uint256(keccak256(PKx as a 32-byte big-endian  PKyp as a single byte  msgHash  nonceTimesGeneratorAddress)) This value e is called \"msgChallenge\" in verifySignature's source code below. Here \"\" means concatenation of the listed byte arrays.6. Let x be your secret key. Compute s = (k - d * e) % Q. Add Q to it, if it's negative. This is your signature. (d is your secret key.)**************************************************************************TO VERIFY A SIGNATUREGiven a signature (s, e) of msgHash, constructed as above, compute S=e*PK+s*generator in the secp256k1 group law, and then the ethereum address of S, as described in step 4. Call that nonceTimesGeneratorAddress. Then call the verifySignature method as:verifySignature(PKx, PKyp, s, msgHash, nonceTimesGeneratorAddress)**************************************************************************This signging scheme deviates slightly from the classical Schnorr signature, in that the address of k*g is used in place of k*g itself, both when calculating e and when verifying sum S as described in the verification paragraph above. This reduces the difficulty of brute-forcing a signature by trying random secp256k1 points in place of k*g in the signature verification process from 256 bits to 160 bits. However, the difficulty of cracking the public key using \"baby-step, giant-step\" is only 128 bits, so this weakening constitutes no compromise in the security of the signatures or the key.The constraint signingPubKeyX < HALF_Q comes from Eq. (281), p. 24 of Yellow Paper version 78d7b9a. ecrecover only accepts \"s\" inputs less than HALF_Q, to protect against a signature- malleability vulnerability in ECDSA. Schnorr does not have this vulnerability, but we must account for ecrecover's defense anyway. And since we are abusing ecrecover by putting signingPubKeyX in ecrecover's \"s\" argument the constraint applies to signingPubKeyX, even though it represents a value in the base field, and has no natural relationship to the order of the curve's cyclic group.**************************************************************************",
        "params": {
          "msgHash": "is a 256-bit hash of the message being signed.",
          "nonceTimesGeneratorAddress": "is the ethereum address of k*g in the above instructions**************************************************************************",
          "pubKeyYParity": "is 0 if the y ordinate of the public key is even, 1 if it's odd.",
          "signature": "is the actual signature, described as s in the above instructions.",
          "signingPubKeyX": "is the x ordinate of the public key. This must be less than HALF_Q."
        },
        "returns": {
          "_0": "True if passed a valid signature, false otherwise. "
        }
      },
      "withdraw(address,address,uint256,uint256,bytes32,uint256,address)": {
        "params": {
          "amount": "Amount in native token decimals to withdraw",
          "fee": "Amount in native token decimals to save to the contract as fees",
          "kappa": "kappa*",
          "to": "address on chain to send underlying assets to",
          "token": "ERC20 compatible token to withdraw from the bridge"
        }
      },
      "withdrawAndRemove(address,address,uint256,uint256,address,uint8,uint256,uint256,bytes32,uint256,address)": {
        "params": {
          "amount": "Amount in native token decimals to withdraw",
          "fee": "Amount in native token decimals to save to the contract as fees",
          "kappa": "kappa*",
          "pool": "Destination chain's pool to use to swap SynERC20 -> Asset. The nodes determine this by using PoolConfig.sol.",
          "swapDeadline": "Specificies the deadline that the nodes are allowed to try to redeem/swap the LP token",
          "swapMinAmount": "Specifies the minimum amount of the underlying asset needed for the nodes to execute the redeem/swap",
          "swapTokenIndex": "Specifies which of the underlying LP assets the nodes should attempt to redeem for",
          "to": "address on chain to send underlying assets to",
          "token": "ERC20 compatible token to withdraw from the bridge"
        }
      }
    },
    "version": 1
  },
  "userdoc": {
    "kind": "user",
    "methods": {
      "mint(address,address,uint256,uint256,bytes32,uint256,address)": {
        "notice": "Nodes call this function to mint a SynERC20 (or any asset that the bridge is given minter access to). This is called by the nodes after a TokenDeposit event is emitted."
      },
      "mintAndSwap(address,address,uint256,uint256,address,uint8,uint8,uint256,uint256,bytes32,uint256,address)": {
        "notice": "Nodes call this function to mint a SynERC20 (or any asset that the bridge is given minter access to), and then attempt to swap the SynERC20 into the desired destination asset. This is called by the nodes after a TokenDepositAndSwap event is emitted."
      },
      "verifySignature(uint256,uint8,uint256,uint256,address)": {
        "notice": "**************************************************************************verifySignature returns true iff passed a valid Schnorr signature."
      },
      "withdraw(address,address,uint256,uint256,bytes32,uint256,address)": {
        "notice": "Function to be called by the node group to withdraw the underlying assets from the contract"
      },
      "withdrawAndRemove(address,address,uint256,uint256,address,uint8,uint256,uint256,bytes32,uint256,address)": {
        "notice": "Function to be called by the node group to withdraw the underlying assets from the contract"
      }
    },
    "version": 1
  },
  "storageLayout": {
    "storage": [
      {
        "astId": 1286,
        "contract": "contracts/bridge/BridgeAuthProxy.sol:BridgeAuthProxy",
        "label": "_initialized",
        "offset": 0,
        "slot": "0",
        "type": "t_bool"
      },
      {
        "astId": 1289,
        "contract": "contracts/bridge/BridgeAuthProxy.sol:BridgeAuthProxy",
        "label": "_initializing",
        "offset": 1,
        "slot": "0",
        "type": "t_bool"
      },
      {
        "astId": 2325,
        "contract": "contracts/bridge/BridgeAuthProxy.sol:BridgeAuthProxy",
        "label": "__gap",
        "offset": 0,
        "slot": "1",
        "type": "t_array(t_uint256)50_storage"
      },
      {
        "astId": 43,
        "contract": "contracts/bridge/BridgeAuthProxy.sol:BridgeAuthProxy",
        "label": "_roles",
        "offset": 0,
        "slot": "51",
        "type": "t_mapping(t_bytes32,t_struct(RoleData)39_storage)"
      },
      {
        "astId": 306,
        "contract": "contracts/bridge/BridgeAuthProxy.sol:BridgeAuthProxy",
        "label": "__gap",
        "offset": 0,
        "slot": "52",
        "type": "t_array(t_uint256)49_storage"
      },
      {
        "astId": 18056,
        "contract": "contracts/bridge/BridgeAuthProxy.sol:BridgeAuthProxy",
        "label": "BRIDGE",
        "offset": 0,
        "slot": "101",
        "type": "t_contract(ISynapseBridge)22017"
      },
      {
        "astId": 18086,
        "contract": "contracts/bridge/BridgeAuthProxy.sol:BridgeAuthProxy",
        "label": "signingPubKeyX",
        "offset": 0,
        "slot": "102",
        "type": "t_uint256"
      },
      {
        "astId": 18088,
        "contract": "contracts/bridge/BridgeAuthProxy.sol:BridgeAuthProxy",
        "label": "pubKeyYParity",
        "offset": 0,
        "slot": "103",
        "type": "t_uint8"
      }
    ],
    "types": {
      "t_array(t_bytes32)dyn_storage": {
        "base": "t_bytes32",
        "encoding": "dynamic_array",
        "label": "bytes32[]",
        "numberOfBytes": "32"
      },
      "t_array(t_uint256)49_storage": {
        "base": "t_uint256",
        "encoding": "inplace",
        "label": "uint256[49]",
        "numberOfBytes": "1568"
      },
      "t_array(t_uint256)50_storage": {
        "base": "t_uint256",
        "encoding": "inplace",
        "label": "uint256[50]",
        "numberOfBytes": "1600"
      },
      "t_bool": {
        "encoding": "inplace",
        "label": "bool",
        "numberOfBytes": "1"
      },
      "t_bytes32": {
        "encoding": "inplace",
        "label": "bytes32",
        "numberOfBytes": "32"
      },
      "t_contract(ISynapseBridge)22017": {
        "encoding": "inplace",
        "label": "contract ISynapseBridge",
        "numberOfBytes": "20"
      },
      "t_mapping(t_bytes32,t_struct(RoleData)39_storage)": {
        "encoding": "mapping",
        "key": "t_bytes32",
        "label": "mapping(bytes32 => struct AccessControlUpgradeable.RoleData)",
        "numberOfBytes": "32",
        "value": "t_struct(RoleData)39_storage"
      },
      "t_mapping(t_bytes32,t_uint256)": {
        "encoding": "mapping",
        "key": "t_bytes32",
        "label": "mapping(bytes32 => uint256)",
        "numberOfBytes": "32",
        "value": "t_uint256"
      },
      "t_struct(AddressSet)2652_storage": {
        "encoding": "inplace",
        "label": "struct EnumerableSetUpgradeable.AddressSet",
        "members": [
          {
            "astId": 2651,
            "contract": "contracts/bridge/BridgeAuthProxy.sol:BridgeAuthProxy",
            "label": "_inner",
            "offset": 0,
            "slot": "0",
            "type": "t_struct(Set)2387_storage"
          }
        ],
        "numberOfBytes": "64"
      },
      "t_struct(RoleData)39_storage": {
        "encoding": "inplace",
        "label": "struct AccessControlUpgradeable.RoleData",
        "members": [
          {
            "astId": 36,
            "contract": "contracts/bridge/BridgeAuthProxy.sol:BridgeAuthProxy",
            "label": "members",
            "offset": 0,
            "slot": "0",
            "type": "t_struct(AddressSet)2652_storage"
          },
          {
            "astId": 38,
            "contract": "contracts/bridge/BridgeAuthProxy.sol:BridgeAuthProxy",
            "label": "adminRole",
            "offset": 0,
            "slot": "2",
            "type": "t_bytes32"
          }
        ],
        "numberOfBytes": "96"
      },
      "t_struct(Set)2387_storage": {
        "encoding": "inplace",
        "label": "struct EnumerableSetUpgradeable.Set",
        "members": [
          {
            "astId": 2382,
            "contract": "contracts/bridge/BridgeAuthProxy.sol:BridgeAuthProxy",
            "label": "_values",
            "offset": 0,
            "slot": "0",
            "type": "t_array(t_bytes32)dyn_storage"
          },
          {
            "astId": 2386,
            "contract": "contracts/bridge/BridgeAuthProxy.sol:BridgeAuthProxy",
            "label": "_indexes",
            "offset": 0,
            "slot": "1",
            "type": "t_mapping(t_bytes32,t_uint256)"
          }
        ],
        "numberOfBytes": "64"
      },
      "t_uint256": {
        "encoding": "inplace",
        "label": "uint256",
        "numberOfBytes": "32"
      },
      "t_uint8": {
        "encoding": "inplace",
        "label": "uint8",
        "numberOfBytes": "1"
      }
    }
  }
}