{
  "address": "0x059525ED9A7A04f82764E3fdbEc5C37D2a82f22a",
  "abi": [
    {
      "inputs": [],
      "stateMutability": "nonpayable",
      "type": "constructor"
    },
    {
      "anonymous": false,
      "inputs": [
        {
          "indexed": true,
          "internalType": "address",
          "name": "keepAddress",
          "type": "address"
        },
        {
          "indexed": false,
          "internalType": "address[]",
          "name": "members",
          "type": "address[]"
        },
        {
          "indexed": true,
          "internalType": "address",
          "name": "owner",
          "type": "address"
        },
        {
          "indexed": false,
          "internalType": "uint256",
          "name": "honestThreshold",
          "type": "uint256"
        }
      ],
      "name": "ECDSANodeGroupCreated",
      "type": "event"
    },
    {
      "anonymous": false,
      "inputs": [
        {
          "indexed": true,
          "internalType": "address",
          "name": "previousOwner",
          "type": "address"
        },
        {
          "indexed": true,
          "internalType": "address",
          "name": "newOwner",
          "type": "address"
        }
      ],
      "name": "OwnershipTransferred",
      "type": "event"
    },
    {
      "inputs": [
        {
          "internalType": "address",
          "name": "nodeMgmtAddress",
          "type": "address"
        },
        {
          "internalType": "address",
          "name": "owner",
          "type": "address"
        },
        {
          "internalType": "address[]",
          "name": "members",
          "type": "address[]"
        },
        {
          "internalType": "uint256",
          "name": "honestThreshold",
          "type": "uint256"
        }
      ],
      "name": "deploy",
      "outputs": [
        {
          "internalType": "address",
          "name": "",
          "type": "address"
        }
      ],
      "stateMutability": "nonpayable",
      "type": "function"
    },
    {
      "inputs": [],
      "name": "getMembers",
      "outputs": [
        {
          "internalType": "address[]",
          "name": "",
          "type": "address[]"
        }
      ],
      "stateMutability": "view",
      "type": "function"
    },
    {
      "inputs": [],
      "name": "latestNodeGroup",
      "outputs": [
        {
          "internalType": "address",
          "name": "keepAddress",
          "type": "address"
        },
        {
          "internalType": "address",
          "name": "owner",
          "type": "address"
        },
        {
          "internalType": "uint256",
          "name": "honestThreshold",
          "type": "uint256"
        }
      ],
      "stateMutability": "view",
      "type": "function"
    },
    {
      "inputs": [],
      "name": "owner",
      "outputs": [
        {
          "internalType": "address",
          "name": "",
          "type": "address"
        }
      ],
      "stateMutability": "view",
      "type": "function"
    },
    {
      "inputs": [],
      "name": "renounceOwnership",
      "outputs": [],
      "stateMutability": "nonpayable",
      "type": "function"
    },
    {
      "inputs": [
        {
          "internalType": "address",
          "name": "newOwner",
          "type": "address"
        }
      ],
      "name": "transferOwnership",
      "outputs": [],
      "stateMutability": "nonpayable",
      "type": "function"
    }
  ],
  "transactionHash": "0x1aa4e3d1d9ccd73e12baef826e969aa9aaaf6754525e989cd56f68f3e6d956a1",
  "args": [],
  "solcInputHash": "1fbbd2d4de8ae41573b47d642f734797",
  "bytecode": "0x608060405234801561001057600080fd5b50600061001b61006a565b600080546001600160a01b0319166001600160a01b0383169081178255604051929350917f8be0079c531659141344cd1fd0a4f28419497f9722a3daafe3b4186f6b6457e0908290a35061006e565b3390565b610a6e8061007d6000396000f3fe608060405234801561001057600080fd5b50600436106100725760003560e01c80639eab5253116100505780639eab5253146100f15780639ee10fcb14610149578063f2fde38b1461021457610072565b8063215b2b6a14610077578063715018a6146100b65780638da5cb5b146100c0575b600080fd5b61007f610247565b6040805173ffffffffffffffffffffffffffffffffffffffff94851681529290931660208301528183015290519081900360600190f35b6100be610270565b005b6100c8610387565b6040805173ffffffffffffffffffffffffffffffffffffffff9092168252519081900360200190f35b6100f96103a3565b60408051602080825283518183015283519192839290830191858101910280838360005b8381101561013557818101518382015260200161011d565b505050509050019250505060405180910390f35b6100c86004803603608081101561015f57600080fd5b73ffffffffffffffffffffffffffffffffffffffff82358116926020810135909116918101906060810160408201356401000000008111156101a057600080fd5b8201836020820111156101b257600080fd5b803590602001918460208302840111640100000000831117156101d457600080fd5b9190808060200260200160405190810160405280939291908181526020018383602002808284376000920191909152509295505091359250610414915050565b6100be6004803603602081101561022a57600080fd5b503573ffffffffffffffffffffffffffffffffffffffff166106c5565b60015460035460045473ffffffffffffffffffffffffffffffffffffffff928316929091169083565b610278610866565b73ffffffffffffffffffffffffffffffffffffffff16610296610387565b73ffffffffffffffffffffffffffffffffffffffff161461031857604080517f08c379a000000000000000000000000000000000000000000000000000000000815260206004820181905260248201527f4f776e61626c653a2063616c6c6572206973206e6f7420746865206f776e6572604482015290519081900360640190fd5b6000805460405173ffffffffffffffffffffffffffffffffffffffff909116907f8be0079c531659141344cd1fd0a4f28419497f9722a3daafe3b4186f6b6457e0908390a3600080547fffffffffffffffffffffffff0000000000000000000000000000000000000000169055565b60005473ffffffffffffffffffffffffffffffffffffffff1690565b60606001800180548060200260200160405190810160405280929190818152602001828054801561040a57602002820191906000526020600020905b815473ffffffffffffffffffffffffffffffffffffffff1681526001909101906020018083116103df575b5050505050905090565b600061041e610866565b73ffffffffffffffffffffffffffffffffffffffff1661043c610387565b73ffffffffffffffffffffffffffffffffffffffff16146104be57604080517f08c379a000000000000000000000000000000000000000000000000000000000815260206004820181905260248201527f4f776e61626c653a2063616c6c6572206973206e6f7420746865206f776e6572604482015290519081900360640190fd5b60006104c98661086a565b90508073ffffffffffffffffffffffffffffffffffffffff16633ede50c68686866040518463ffffffff1660e01b8152600401808473ffffffffffffffffffffffffffffffffffffffff16815260200180602001838152602001828103825284818151815260200191508051906020019060200280838360005b8381101561055b578181015183820152602001610543565b50505050905001945050505050600060405180830381600087803b15801561058257600080fd5b505af1158015610596573d6000803e3d6000fd5b5050600180547fffffffffffffffffffffffff00000000000000000000000000000000000000001673ffffffffffffffffffffffffffffffffffffffff8516179055505083516105ed906002906020870190610951565b50600380547fffffffffffffffffffffffff00000000000000000000000000000000000000001673ffffffffffffffffffffffffffffffffffffffff8781169182179092556004859055604080516020808201889052828252885192820192909252875192938516927f0111738b06eb1931e810f949dd1fe860c4b9708eaa16c2c0faa0b95dc764608f9289928992909182916060830191868101910280838360005b838110156106a8578181015183820152602001610690565b50505050905001935050505060405180910390a395945050505050565b6106cd610866565b73ffffffffffffffffffffffffffffffffffffffff166106eb610387565b73ffffffffffffffffffffffffffffffffffffffff161461076d57604080517f08c379a000000000000000000000000000000000000000000000000000000000815260206004820181905260248201527f4f776e61626c653a2063616c6c6572206973206e6f7420746865206f776e6572604482015290519081900360640190fd5b73ffffffffffffffffffffffffffffffffffffffff81166107d9576040517f08c379a0000000000000000000000000000000000000000000000000000000008152600401808060200182810382526026815260200180610a136026913960400191505060405180910390fd5b6000805460405173ffffffffffffffffffffffffffffffffffffffff808516939216917f8be0079c531659141344cd1fd0a4f28419497f9722a3daafe3b4186f6b6457e091a3600080547fffffffffffffffffffffffff00000000000000000000000000000000000000001673ffffffffffffffffffffffffffffffffffffffff92909216919091179055565b3390565b60006040517f3d602d80600a3d3981f3363d3d373d3d3d363d7300000000000000000000000081528260601b60148201527f5af43d82803e903d91602b57fd5bf3000000000000000000000000000000000060288201526037816000f091505073ffffffffffffffffffffffffffffffffffffffff811661094c57604080517f08c379a000000000000000000000000000000000000000000000000000000000815260206004820152601660248201527f455243313136373a20637265617465206661696c656400000000000000000000604482015290519081900360640190fd5b919050565b8280548282559060005260206000209081019282156109cb579160200282015b828111156109cb57825182547fffffffffffffffffffffffff00000000000000000000000000000000000000001673ffffffffffffffffffffffffffffffffffffffff909116178255602090920191600190910190610971565b506109d79291506109db565b5090565b5b808211156109d75780547fffffffffffffffffffffffff00000000000000000000000000000000000000001681556001016109dc56fe4f776e61626c653a206e6577206f776e657220697320746865207a65726f2061646472657373a26469706673582212203cc56f57eaaee74a3425c0e570eb630fec39b947666b01f1034a2592284bcb2664736f6c634300060c0033",
  "devdoc": {
    "kind": "dev",
    "methods": {
      "deploy(address,address,address[],uint256)": {
        "params": {
          "honestThreshold": "Number of signers to process a transaction ",
          "members": "Array of node group members addresses",
          "nodeMgmtAddress": "address of the ECDSANodeManagement contract to initialize with",
          "owner": "Owner of the  ECDSANodeManagement contract who can determine if the node group is closed or active"
        },
        "returns": {
          "_0": "Address of the newest node management contract created*"
        }
      },
      "getMembers()": {
        "returns": {
          "_0": "List of the keep members' addresses."
        }
      },
      "owner()": {
        "details": "Returns the address of the current owner."
      },
      "renounceOwnership()": {
        "details": "Leaves the contract without owner. It will not be possible to call `onlyOwner` functions anymore. Can only be called by the current owner. NOTE: Renouncing ownership will leave the contract without an owner, thereby removing any functionality that is only available to the owner."
      },
      "transferOwnership(address)": {
        "details": "Transfers ownership of the contract to a new account (`newOwner`). Can only be called by the current owner."
      }
    },
    "version": 1
  },
  "userdoc": {
    "kind": "user",
    "methods": {
      "deploy(address,address,address[],uint256)": {
        "notice": "Deploys a new node "
      },
      "getMembers()": {
        "notice": "Returns members of the keep."
      }
    },
    "version": 1
  },
  "storageLayout": {
    "storage": [
      {
        "astId": 3028,
        "contract": "contracts/synapse/ECDSAFactory.sol:ECDSAFactory",
        "label": "_owner",
        "offset": 0,
        "slot": "0",
        "type": "t_address"
      },
      {
        "astId": 6344,
        "contract": "contracts/synapse/ECDSAFactory.sol:ECDSAFactory",
        "label": "latestNodeGroup",
        "offset": 0,
        "slot": "1",
        "type": "t_struct(LatestNodeGroup)6342_storage"
      }
    ],
    "types": {
      "t_address": {
        "encoding": "inplace",
        "label": "address",
        "numberOfBytes": "20"
      },
      "t_array(t_address)dyn_storage": {
        "base": "t_address",
        "encoding": "dynamic_array",
        "label": "address[]",
        "numberOfBytes": "32"
      },
      "t_struct(LatestNodeGroup)6342_storage": {
        "encoding": "inplace",
        "label": "struct ECDSAFactory.LatestNodeGroup",
        "members": [
          {
            "astId": 6334,
            "contract": "contracts/synapse/ECDSAFactory.sol:ECDSAFactory",
            "label": "keepAddress",
            "offset": 0,
            "slot": "0",
            "type": "t_address"
          },
          {
            "astId": 6337,
            "contract": "contracts/synapse/ECDSAFactory.sol:ECDSAFactory",
            "label": "members",
            "offset": 0,
            "slot": "1",
            "type": "t_array(t_address)dyn_storage"
          },
          {
            "astId": 6339,
            "contract": "contracts/synapse/ECDSAFactory.sol:ECDSAFactory",
            "label": "owner",
            "offset": 0,
            "slot": "2",
            "type": "t_address"
          },
          {
            "astId": 6341,
            "contract": "contracts/synapse/ECDSAFactory.sol:ECDSAFactory",
            "label": "honestThreshold",
            "offset": 0,
            "slot": "3",
            "type": "t_uint256"
          }
        ],
        "numberOfBytes": "128"
      },
      "t_uint256": {
        "encoding": "inplace",
        "label": "uint256",
        "numberOfBytes": "32"
      }
    }
  }
}