{
  "address": "0xf0284FB86adA5E4D82555C529677eEA3B2C3E022",
  "abi": [
    {
      "inputs": [
        {
          "internalType": "contract IERC20",
          "name": "legacyToken",
          "type": "address"
        },
        {
          "internalType": "contract IERC20Mintable",
          "name": "newToken",
          "type": "address"
        }
      ],
      "stateMutability": "nonpayable",
      "type": "constructor"
    },
    {
      "inputs": [],
      "name": "legacyToken",
      "outputs": [
        {
          "internalType": "contract IERC20",
          "name": "",
          "type": "address"
        }
      ],
      "stateMutability": "view",
      "type": "function"
    },
    {
      "inputs": [
        {
          "internalType": "uint256",
          "name": "amount",
          "type": "uint256"
        }
      ],
      "name": "migrate",
      "outputs": [],
      "stateMutability": "nonpayable",
      "type": "function"
    },
    {
      "inputs": [],
      "name": "newToken",
      "outputs": [
        {
          "internalType": "contract IERC20",
          "name": "",
          "type": "address"
        }
      ],
      "stateMutability": "view",
      "type": "function"
    }
  ],
  "transactionHash": "0xf1fadc62eb18df51ff37594c3384e991dad8b906fb31794a243f10508ac9624e",
  "args": [
    "0x42F6f551ae042cBe50C739158b4f0CAC0Edb9096",
    "0xa4080f1778e69467e905b8d6f72f6e441f9e9484"
  ],
  "solcInputHash": "564eea54ee07bd6fc5f6d278bcc20461",
  "bytecode": "0x608060405234801561001057600080fd5b506040516107d93803806107d98339818101604052604081101561003357600080fd5b508051602090910151600080546001600160a01b039384166001600160a01b0319918216179091556001805493909216921691909117905561075f8061007a6000396000f3fe608060405234801561001057600080fd5b50600436106100415760003560e01c80631315545514610046578063454b060814610077578063c42bd05a14610096575b600080fd5b61004e61009e565b6040805173ffffffffffffffffffffffffffffffffffffffff9092168252519081900360200190f35b6100946004803603602081101561008d57600080fd5b50356100ba565b005b61004e61018f565b60005473ffffffffffffffffffffffffffffffffffffffff1690565b6000546100df9073ffffffffffffffffffffffffffffffffffffffff163330846101ab565b60006100f760026100f1846005610246565b906102c2565b600154604080517f40c10f1900000000000000000000000000000000000000000000000000000000815233600482015260248101849052905192935073ffffffffffffffffffffffffffffffffffffffff909116916340c10f199160448082019260009290919082900301818387803b15801561017357600080fd5b505af1158015610187573d6000803e3d6000fd5b505050505050565b60015473ffffffffffffffffffffffffffffffffffffffff1690565b6040805173ffffffffffffffffffffffffffffffffffffffff80861660248301528416604482015260648082018490528251808303909101815260849091019091526020810180517bffffffffffffffffffffffffffffffffffffffffffffffffffffffff167f23b872dd00000000000000000000000000000000000000000000000000000000179052610240908590610343565b50505050565b600082610255575060006102bc565b8282028284828161026257fe5b04146102b9576040517f08c379a00000000000000000000000000000000000000000000000000000000081526004018080602001828103825260218152602001806106df6021913960400191505060405180910390fd5b90505b92915050565b600080821161033257604080517f08c379a000000000000000000000000000000000000000000000000000000000815260206004820152601a60248201527f536166654d6174683a206469766973696f6e206279207a65726f000000000000604482015290519081900360640190fd5b81838161033b57fe5b049392505050565b60606103a5826040518060400160405280602081526020017f5361666545524332303a206c6f772d6c6576656c2063616c6c206661696c65648152508573ffffffffffffffffffffffffffffffffffffffff166104209092919063ffffffff16565b80519091501561041b578080602001905160208110156103c457600080fd5b505161041b576040517f08c379a000000000000000000000000000000000000000000000000000000000815260040180806020018281038252602a815260200180610700602a913960400191505060405180910390fd5b505050565b606061042f8484600085610439565b90505b9392505050565b606082471015610494576040517f08c379a00000000000000000000000000000000000000000000000000000000081526004018080602001828103825260268152602001806106b96026913960400191505060405180910390fd5b61049d856105f4565b61050857604080517f08c379a000000000000000000000000000000000000000000000000000000000815260206004820152601d60248201527f416464726573733a2063616c6c20746f206e6f6e2d636f6e7472616374000000604482015290519081900360640190fd5b600060608673ffffffffffffffffffffffffffffffffffffffff1685876040518082805190602001908083835b6020831061057257805182527fffffffffffffffffffffffffffffffffffffffffffffffffffffffffffffffe09092019160209182019101610535565b6001836020036101000a03801982511681845116808217855250505050505090500191505060006040518083038185875af1925050503d80600081146105d4576040519150601f19603f3d011682016040523d82523d6000602084013e6105d9565b606091505b50915091506105e98282866105fa565b979650505050505050565b3b151590565b60608315610609575081610432565b8251156106195782518084602001fd5b816040517f08c379a00000000000000000000000000000000000000000000000000000000081526004018080602001828103825283818151815260200191508051906020019080838360005b8381101561067d578181015183820152602001610665565b50505050905090810190601f1680156106aa5780820380516001836020036101000a031916815260200191505b509250505060405180910390fdfe416464726573733a20696e73756666696369656e742062616c616e636520666f722063616c6c536166654d6174683a206d756c7469706c69636174696f6e206f766572666c6f775361666545524332303a204552433230206f7065726174696f6e20646964206e6f742073756363656564a2646970667358221220a67547178bd4ad1cb44b10f822ec105359ce14625e8d1342db63e993fe48a20a64736f6c634300060c0033",
  "devdoc": {
    "kind": "dev",
    "methods": {
      "constructor": {
        "params": {
          "legacyToken": "address of the old token contract"
        }
      },
      "legacyToken()": {
        "details": "Returns the legacy token that is being migrated."
      },
      "migrate(uint256)": {
        "details": "Transfers part of an account's balance in the old token to this contract, and mints the same amount of new tokens for that account.",
        "params": {
          "amount": "amount of tokens to be migrated"
        }
      },
      "newToken()": {
        "details": "Returns the new token to which we are migrating."
      }
    },
    "version": 1
  },
  "userdoc": {
    "kind": "user",
    "methods": {},
    "version": 1
  },
  "storageLayout": {
    "storage": [
      {
        "astId": 6977,
        "contract": "contracts/synapse/ERC20Migrator.sol:ERC20Migrator",
        "label": "_legacyToken",
        "offset": 0,
        "slot": "0",
        "type": "t_contract(IERC20)4652"
      },
      {
        "astId": 6979,
        "contract": "contracts/synapse/ERC20Migrator.sol:ERC20Migrator",
        "label": "_newToken",
        "offset": 0,
        "slot": "1",
        "type": "t_contract(IERC20Mintable)6969"
      }
    ],
    "types": {
      "t_contract(IERC20)4652": {
        "encoding": "inplace",
        "label": "contract IERC20",
        "numberOfBytes": "20"
      },
      "t_contract(IERC20Mintable)6969": {
        "encoding": "inplace",
        "label": "contract IERC20Mintable",
        "numberOfBytes": "20"
      }
    }
  }
}