{
  "address": "0x31F46645948567d44f151e7E18AF6Fc5F0b3EAC6",
  "abi": [
    {
      "inputs": [
        {
          "internalType": "address",
          "name": "_swapAddress",
          "type": "address"
        },
        {
          "internalType": "address",
          "name": "_swapDepositAddress",
          "type": "address"
        }
      ],
      "stateMutability": "nonpayable",
      "type": "constructor"
    },
    {
      "anonymous": false,
      "inputs": [
        {
          "indexed": true,
          "internalType": "address",
          "name": "deployer",
          "type": "address"
        },
        {
          "indexed": false,
          "internalType": "address",
          "name": "metaSwapAddress",
          "type": "address"
        },
        {
          "indexed": false,
          "internalType": "address",
          "name": "metaSwapDepositAddress",
          "type": "address"
        }
      ],
      "name": "NewMetaSwapPool",
      "type": "event"
    },
    {
      "anonymous": false,
      "inputs": [
        {
          "indexed": true,
          "internalType": "address",
          "name": "previousOwner",
          "type": "address"
        },
        {
          "indexed": true,
          "internalType": "address",
          "name": "newOwner",
          "type": "address"
        }
      ],
      "name": "OwnershipTransferred",
      "type": "event"
    },
    {
      "inputs": [
        {
          "internalType": "contract IERC20[]",
          "name": "_pooledTokens",
          "type": "address[]"
        },
        {
          "internalType": "uint8[]",
          "name": "decimals",
          "type": "uint8[]"
        },
        {
          "internalType": "string",
          "name": "lpTokenName",
          "type": "string"
        },
        {
          "internalType": "string",
          "name": "lpTokenSymbol",
          "type": "string"
        },
        {
          "internalType": "uint256",
          "name": "_a",
          "type": "uint256"
        },
        {
          "internalType": "uint256",
          "name": "_fee",
          "type": "uint256"
        },
        {
          "internalType": "uint256",
          "name": "_adminFee",
          "type": "uint256"
        },
        {
          "internalType": "address",
          "name": "lpTokenTargetAddress",
          "type": "address"
        },
        {
          "internalType": "address",
          "name": "baseSwap",
          "type": "address"
        }
      ],
      "name": "deploy",
      "outputs": [
        {
          "internalType": "address",
          "name": "",
          "type": "address"
        }
      ],
      "stateMutability": "nonpayable",
      "type": "function"
    },
    {
      "inputs": [],
      "name": "metaSwapAddress",
      "outputs": [
        {
          "internalType": "address",
          "name": "",
          "type": "address"
        }
      ],
      "stateMutability": "view",
      "type": "function"
    },
    {
      "inputs": [],
      "name": "metaSwapDepositAddress",
      "outputs": [
        {
          "internalType": "address",
          "name": "",
          "type": "address"
        }
      ],
      "stateMutability": "view",
      "type": "function"
    },
    {
      "inputs": [
        {
          "internalType": "uint256",
          "name": "",
          "type": "uint256"
        }
      ],
      "name": "metaSwapPoolInfo",
      "outputs": [
        {
          "internalType": "address",
          "name": "metaSwapAddress",
          "type": "address"
        },
        {
          "internalType": "address",
          "name": "metaSwapDepositAddress",
          "type": "address"
        }
      ],
      "stateMutability": "view",
      "type": "function"
    },
    {
      "inputs": [],
      "name": "metaSwapPoolLength",
      "outputs": [
        {
          "internalType": "uint256",
          "name": "",
          "type": "uint256"
        }
      ],
      "stateMutability": "view",
      "type": "function"
    },
    {
      "inputs": [],
      "name": "owner",
      "outputs": [
        {
          "internalType": "address",
          "name": "",
          "type": "address"
        }
      ],
      "stateMutability": "view",
      "type": "function"
    },
    {
      "inputs": [],
      "name": "renounceOwnership",
      "outputs": [],
      "stateMutability": "nonpayable",
      "type": "function"
    },
    {
      "inputs": [
        {
          "internalType": "address",
          "name": "newOwner",
          "type": "address"
        }
      ],
      "name": "transferOwnership",
      "outputs": [],
      "stateMutability": "nonpayable",
      "type": "function"
    }
  ],
  "transactionHash": "0xd3ef2e8defdcd417165018bc1e1301e0bde9b1e6d133fd7521d4fa989b39553d",
  "args": [
    "0x6F6978e551B62d7E8Db2fe27d8dB8bFE5d94d009",
    "0x6E42e97Dd28b3D531048202D29C4fD81d193344b"
  ],
  "solcInputHash": "40de39300ebb9dc0aa2c4438ee1943ce",
  "bytecode": "0x608060405234801561001057600080fd5b50604051610fd3380380610fd383398101604081905261002f916100b8565b60006100396100b4565b600080546001600160a01b0319166001600160a01b0383169081178255604051929350917f8be0079c531659141344cd1fd0a4f28419497f9722a3daafe3b4186f6b6457e0908290a350600280546001600160a01b039384166001600160a01b03199182161790915560038054929093169116179055610109565b3390565b600080604083850312156100ca578182fd5b82516100d5816100f1565b60208401519092506100e6816100f1565b809150509250929050565b6001600160a01b038116811461010657600080fd5b50565b610ebb806101186000396000f3fe608060405234801561001057600080fd5b50600436106100885760003560e01c80638da5cb5b1161005b5780638da5cb5b146100dd578063f2fde38b146100e5578063fbc2c15b146100f8578063fcf879e91461010057610088565b806304414a071461008d5780630f3e9613146100ab5780634af8b013146100c0578063715018a6146100d3575b600080fd5b610095610121565b6040516100a29190610e10565b60405180910390f35b6100b3610127565b6040516100a29190610c0f565b6100b36100ce3660046109d1565b610143565b6100db6104bd565b005b6100b36105a8565b6100db6100f33660046109ae565b6105c4565b6100b3610711565b61011361010e366004610aba565b61072d565b6040516100a2929190610c30565b60015490565b60025473ffffffffffffffffffffffffffffffffffffffff1681565b600254600090819061016a9073ffffffffffffffffffffffffffffffffffffffff16610770565b6003549091506000906101929073ffffffffffffffffffffffffffffffffffffffff16610770565b6040517f118e1c7700000000000000000000000000000000000000000000000000000000815290915073ffffffffffffffffffffffffffffffffffffffff83169063118e1c77906101f7908f908f908f908f908f908f908f908f908f90600401610c57565b600060405180830381600087803b15801561021157600080fd5b505af1158015610225573d6000803e3d6000fd5b5050505060008273ffffffffffffffffffffffffffffffffffffffff16635fd65f0f6040518163ffffffff1660e01b815260040160e06040518083038186803b15801561027157600080fd5b505afa158015610285573d6000803e3d6000fd5b505050506040513d601f19601f820116820180604052508101906102a99190610ad2565b6040517fc0c53b8b00000000000000000000000000000000000000000000000000000000815290975073ffffffffffffffffffffffffffffffffffffffff8916965063c0c53b8b955061030894508b9350899250879150600401610d17565b600060405180830381600087803b15801561032257600080fd5b505af1158015610336573d6000803e3d6000fd5b505050508273ffffffffffffffffffffffffffffffffffffffff1663f2fde38b61035e6105a8565b6040518263ffffffff1660e01b815260040161037a9190610c0f565b600060405180830381600087803b15801561039457600080fd5b505af11580156103a8573d6000803e3d6000fd5b505060408051808201825273ffffffffffffffffffffffffffffffffffffffff808816825286811660208301908152600180548082018255600091909152925160029093027fb10e2d527612073b26eecdfd717e6a320cf44b4afac2b0732d9fcbe2b7fa0cf6810180549484167fffffffffffffffffffffffff000000000000000000000000000000000000000095861617905590517fb10e2d527612073b26eecdfd717e6a320cf44b4afac2b0732d9fcbe2b7fa0cf79091018054919092169216919091179055513392507f066ddb396d6a2323b8a583f695359cfbca7a8b216b5b7025956e969d29cec57891506104a49086908690610c30565b60405180910390a250909b9a5050505050505050505050565b6104c5610822565b73ffffffffffffffffffffffffffffffffffffffff166104e36105a8565b73ffffffffffffffffffffffffffffffffffffffff1614610539576040517f08c379a000000000000000000000000000000000000000000000000000000000815260040161053090610ddb565b60405180910390fd5b6000805460405173ffffffffffffffffffffffffffffffffffffffff909116907f8be0079c531659141344cd1fd0a4f28419497f9722a3daafe3b4186f6b6457e0908390a3600080547fffffffffffffffffffffffff0000000000000000000000000000000000000000169055565b60005473ffffffffffffffffffffffffffffffffffffffff1690565b6105cc610822565b73ffffffffffffffffffffffffffffffffffffffff166105ea6105a8565b73ffffffffffffffffffffffffffffffffffffffff1614610637576040517f08c379a000000000000000000000000000000000000000000000000000000000815260040161053090610ddb565b73ffffffffffffffffffffffffffffffffffffffff8116610684576040517f08c379a000000000000000000000000000000000000000000000000000000000815260040161053090610d47565b6000805460405173ffffffffffffffffffffffffffffffffffffffff808516939216917f8be0079c531659141344cd1fd0a4f28419497f9722a3daafe3b4186f6b6457e091a3600080547fffffffffffffffffffffffff00000000000000000000000000000000000000001673ffffffffffffffffffffffffffffffffffffffff92909216919091179055565b60035473ffffffffffffffffffffffffffffffffffffffff1681565b6001818154811061073a57fe5b60009182526020909120600290910201805460019091015473ffffffffffffffffffffffffffffffffffffffff91821692501682565b60006040517f3d602d80600a3d3981f3363d3d373d3d3d363d7300000000000000000000000081528260601b60148201527f5af43d82803e903d91602b57fd5bf3000000000000000000000000000000000060288201526037816000f091505073ffffffffffffffffffffffffffffffffffffffff811661081d576040517f08c379a000000000000000000000000000000000000000000000000000000000815260040161053090610da4565b919050565b3390565b803561083181610e60565b92915050565b600082601f830112610847578081fd5b813561085a61085582610e40565b610e19565b81815291506020808301908481018184028601820187101561087b57600080fd5b60005b848110156108a357813561089181610e60565b8452928201929082019060010161087e565b505050505092915050565b600082601f8301126108be578081fd5b81356108cc61085582610e40565b8181529150602080830190848101818402860182018710156108ed57600080fd5b6000805b8581101561091b57823560ff81168114610909578283fd5b855293830193918301916001016108f1565b50505050505092915050565b600082601f830112610937578081fd5b813567ffffffffffffffff81111561094d578182fd5b61097e60207fffffffffffffffffffffffffffffffffffffffffffffffffffffffffffffffe0601f84011601610e19565b915080825283602082850101111561099557600080fd5b8060208401602084013760009082016020015292915050565b6000602082840312156109bf578081fd5b81356109ca81610e60565b9392505050565b60008060008060008060008060006101208a8c0312156109ef578485fd5b893567ffffffffffffffff80821115610a06578687fd5b610a128d838e01610837565b9a5060208c0135915080821115610a27578687fd5b610a338d838e016108ae565b995060408c0135915080821115610a48578687fd5b610a548d838e01610927565b985060608c0135915080821115610a69578687fd5b50610a768c828d01610927565b96505060808a0135945060a08a0135935060c08a01359250610a9b8b60e08c01610826565b9150610aab8b6101008c01610826565b90509295985092959850929598565b600060208284031215610acb578081fd5b5035919050565b600080600080600080600060e0888a031215610aec578283fd5b875196506020880151955060408801519450606088015193506080880151925060a0880151915060c0880151610b2181610e60565b8091505092959891949750929550565b73ffffffffffffffffffffffffffffffffffffffff16815260200190565b73ffffffffffffffffffffffffffffffffffffffff169052565b6000815180845260208085019450808401835b83811015610b9b57815160ff1687529582019590820190600101610b7c565b509495945050505050565b60008151808452815b81811015610bcb57602081850181015186830182015201610baf565b81811115610bdc5782602083870101525b50601f017fffffffffffffffffffffffffffffffffffffffffffffffffffffffffffffffe0169290920160200192915050565b73ffffffffffffffffffffffffffffffffffffffff91909116815260200190565b73ffffffffffffffffffffffffffffffffffffffff92831681529116602082015260400190565b60006101208083018184528091508c51610c718183610e10565b925060209150818e01845b82811015610c9d57610c8f858351610b31565b945090830190600101610c7c565b50505083820390840152610cb1818c610b69565b90508281036040840152610cc5818b610ba6565b90508281036060840152610cd9818a610ba6565b9150508660808301528560a08301528460c0830152610cfb60e0830185610b4f565b610d09610100830184610b4f565b9a9950505050505050505050565b73ffffffffffffffffffffffffffffffffffffffff93841681529183166020830152909116604082015260600190565b60208082526026908201527f4f776e61626c653a206e6577206f776e657220697320746865207a65726f206160408201527f6464726573730000000000000000000000000000000000000000000000000000606082015260800190565b60208082526016908201527f455243313136373a20637265617465206661696c656400000000000000000000604082015260600190565b6020808252818101527f4f776e61626c653a2063616c6c6572206973206e6f7420746865206f776e6572604082015260600190565b90815260200190565b60405181810167ffffffffffffffff81118282101715610e3857600080fd5b604052919050565b600067ffffffffffffffff821115610e56578081fd5b5060209081020190565b73ffffffffffffffffffffffffffffffffffffffff81168114610e8257600080fd5b5056fea2646970667358221220408bf7bae627f2556c3b063f23298084725e815b7557836066b95adb6398ef0d64736f6c634300060c0033",
  "devdoc": {
    "kind": "dev",
    "methods": {
      "owner()": {
        "details": "Returns the address of the current owner."
      },
      "renounceOwnership()": {
        "details": "Leaves the contract without owner. It will not be possible to call `onlyOwner` functions anymore. Can only be called by the current owner. NOTE: Renouncing ownership will leave the contract without an owner, thereby removing any functionality that is only available to the owner."
      },
      "transferOwnership(address)": {
        "details": "Transfers ownership of the contract to a new account (`newOwner`). Can only be called by the current owner."
      }
    },
    "title": "MetaSwapDeployer",
    "version": 1
  },
  "userdoc": {
    "kind": "user",
    "methods": {},
    "notice": "A library to be used to permissionlessly deploy Metapools.",
    "version": 1
  },
  "storageLayout": {
    "storage": [
      {
        "astId": 1711,
        "contract": "contracts/meta/MetaSwapDeployer.sol:MetaSwapDeployer",
        "label": "_owner",
        "offset": 0,
        "slot": "0",
        "type": "t_address"
      },
      {
        "astId": 9566,
        "contract": "contracts/meta/MetaSwapDeployer.sol:MetaSwapDeployer",
        "label": "metaSwapPoolInfo",
        "offset": 0,
        "slot": "1",
        "type": "t_array(t_struct(MetaSwapPoolInfo)9563_storage)dyn_storage"
      },
      {
        "astId": 9568,
        "contract": "contracts/meta/MetaSwapDeployer.sol:MetaSwapDeployer",
        "label": "metaSwapAddress",
        "offset": 0,
        "slot": "2",
        "type": "t_address"
      },
      {
        "astId": 9570,
        "contract": "contracts/meta/MetaSwapDeployer.sol:MetaSwapDeployer",
        "label": "metaSwapDepositAddress",
        "offset": 0,
        "slot": "3",
        "type": "t_address"
      }
    ],
    "types": {
      "t_address": {
        "encoding": "inplace",
        "label": "address",
        "numberOfBytes": "20"
      },
      "t_array(t_struct(MetaSwapPoolInfo)9563_storage)dyn_storage": {
        "base": "t_struct(MetaSwapPoolInfo)9563_storage",
        "encoding": "dynamic_array",
        "label": "struct MetaSwapDeployer.MetaSwapPoolInfo[]",
        "numberOfBytes": "32"
      },
      "t_struct(MetaSwapPoolInfo)9563_storage": {
        "encoding": "inplace",
        "label": "struct MetaSwapDeployer.MetaSwapPoolInfo",
        "members": [
          {
            "astId": 9560,
            "contract": "contracts/meta/MetaSwapDeployer.sol:MetaSwapDeployer",
            "label": "metaSwapAddress",
            "offset": 0,
            "slot": "0",
            "type": "t_address"
          },
          {
            "astId": 9562,
            "contract": "contracts/meta/MetaSwapDeployer.sol:MetaSwapDeployer",
            "label": "metaSwapDepositAddress",
            "offset": 0,
            "slot": "1",
            "type": "t_address"
          }
        ],
        "numberOfBytes": "64"
      }
    }
  }
}