{
  "address": "0xDE27892BAbFc5c30D4FE4e3478897F76D261cAeB",
  "abi": [
    {
      "inputs": [],
      "stateMutability": "nonpayable",
      "type": "constructor"
    },
    {
      "inputs": [
        {
          "internalType": "uint256",
          "name": "amount",
          "type": "uint256"
        }
      ],
      "name": "migrate",
      "outputs": [],
      "stateMutability": "nonpayable",
      "type": "function"
    },
    {
      "inputs": [
        {
          "internalType": "uint256",
          "name": "amount",
          "type": "uint256"
        },
        {
          "internalType": "address",
          "name": "to",
          "type": "address"
        },
        {
          "internalType": "uint256",
          "name": "chainId",
          "type": "uint256"
        }
      ],
      "name": "migrateAndBridge",
      "outputs": [],
      "stateMutability": "nonpayable",
      "type": "function"
    }
  ],
  "transactionHash": "0xb976b44b54edfc23412630c57cfb6824f1d4fe93926dbbf0c7113833880e8168",
  "args": [],
  "solcInputHash": "92ccffa3e48ffcdcd8ea1a9f830a7164",
  "bytecode": "0x60806040523480156200001157600080fd5b50620000557342f6f551ae042cbe50c739158b4f0cac0edb909673f0284fb86ada5e4d82555c529677eea3b2c3e0226000196200009e602090811b620002f117901c565b6200009873a4080f1778e69467e905b8d6f72f6e441f9e948473d123f70ae324d34a9e76b67a27bf77593ba8749f6000196200009e602090811b620002f117901c565b620004b1565b80158062000128575060408051636eb1769f60e11b81523060048201526001600160a01b03848116602483015291519185169163dd62ed3e91604480820192602092909190829003018186803b158015620000f857600080fd5b505afa1580156200010d573d6000803e3d6000fd5b505050506040513d60208110156200012457600080fd5b5051155b620001655760405162461bcd60e51b8152600401808060200182810382526036815260200180620010036036913960400191505060405180910390fd5b604080516001600160a01b038416602482015260448082018490528251808303909101815260649091019091526020810180516001600160e01b0390811663095ea7b360e01b17909152620001bd918591620001c216565b505050565b60606200021e826040518060400160405280602081526020017f5361666545524332303a206c6f772d6c6576656c2063616c6c206661696c6564815250856001600160a01b03166200027e60201b62000484179092919060201c565b805190915015620001bd578080602001905160208110156200023f57600080fd5b5051620001bd5760405162461bcd60e51b815260040180806020018281038252602a81526020018062000fd9602a913960400191505060405180910390fd5b60606200028f848460008562000299565b90505b9392505050565b606082471015620002dc5760405162461bcd60e51b815260040180806020018281038252602681526020018062000fb36026913960400191505060405180910390fd5b620002e78562000401565b62000339576040805162461bcd60e51b815260206004820152601d60248201527f416464726573733a2063616c6c20746f206e6f6e2d636f6e7472616374000000604482015290519081900360640190fd5b60006060866001600160a01b031685876040518082805190602001908083835b602083106200037a5780518252601f19909201916020918201910162000359565b6001836020036101000a03801982511681845116808217855250505050505090500191505060006040518083038185875af1925050503d8060008114620003de576040519150601f19603f3d011682016040523d82523d6000602084013e620003e3565b606091505b509092509050620003f682828662000407565b979650505050505050565b3b151590565b606083156200041857508162000292565b825115620004295782518084602001fd5b8160405162461bcd60e51b81526004018080602001828103825283818151815260200191508051906020019080838360005b83811015620004755781810151838201526020016200045b565b50505050905090810190601f168015620004a35780820380516001836020036101000a031916815260200191505b509250505060405180910390fd5b610af280620004c16000396000f3fe608060405234801561001057600080fd5b50600436106100365760003560e01c8063454b06081461003b578063ccd946191461005a575b600080fd5b6100586004803603602081101561005157600080fd5b5035610099565b005b6100586004803603606081101561007057600080fd5b5080359073ffffffffffffffffffffffffffffffffffffffff602082013516906040013561017a565b6100b97342f6f551ae042cbe50c739158b4f0cac0edb909633308461049d565b73f0284fb86ada5e4d82555c529677eea3b2c3e02273ffffffffffffffffffffffffffffffffffffffff1663454b0608826040518263ffffffff1660e01b815260040180828152602001915050600060405180830381600087803b15801561012057600080fd5b505af1158015610134573d6000803e3d6000fd5b505050506101773361015b600261015560058661053890919063ffffffff16565b906105b4565b73a4080f1778e69467e905b8d6f72f6e441f9e94849190610635565b50565b61019a7342f6f551ae042cbe50c739158b4f0cac0edb909633308661049d565b73f0284fb86ada5e4d82555c529677eea3b2c3e02273ffffffffffffffffffffffffffffffffffffffff1663454b0608846040518263ffffffff1660e01b815260040180828152602001915050600060405180830381600087803b15801561020157600080fd5b505af1158015610215573d6000803e3d6000fd5b5073d123f70ae324d34a9e76b67a27bf77593ba8749f925063f3f094a191508490508373a4080f1778e69467e905b8d6f72f6e441f9e948461025d60026101558a6005610538565b6040518563ffffffff1660e01b8152600401808573ffffffffffffffffffffffffffffffffffffffff1681526020018481526020018373ffffffffffffffffffffffffffffffffffffffff168152602001828152602001945050505050600060405180830381600087803b1580156102d457600080fd5b505af11580156102e8573d6000803e3d6000fd5b50505050505050565b80158061039d5750604080517fdd62ed3e00000000000000000000000000000000000000000000000000000000815230600482015273ffffffffffffffffffffffffffffffffffffffff848116602483015291519185169163dd62ed3e91604480820192602092909190829003018186803b15801561036f57600080fd5b505afa158015610383573d6000803e3d6000fd5b505050506040513d602081101561039957600080fd5b5051155b6103f2576040517f08c379a0000000000000000000000000000000000000000000000000000000008152600401808060200182810382526036815260200180610a876036913960400191505060405180910390fd5b6040805173ffffffffffffffffffffffffffffffffffffffff8416602482015260448082018490528251808303909101815260649091019091526020810180517bffffffffffffffffffffffffffffffffffffffffffffffffffffffff167f095ea7b30000000000000000000000000000000000000000000000000000000017905261047f9084906106be565b505050565b60606104938484600085610796565b90505b9392505050565b6040805173ffffffffffffffffffffffffffffffffffffffff80861660248301528416604482015260648082018490528251808303909101815260849091019091526020810180517bffffffffffffffffffffffffffffffffffffffffffffffffffffffff167f23b872dd000000000000000000000000000000000000000000000000000000001790526105329085906106be565b50505050565b600082610547575060006105ae565b8282028284828161055457fe5b04146105ab576040517f08c379a0000000000000000000000000000000000000000000000000000000008152600401808060200182810382526021815260200180610a3c6021913960400191505060405180910390fd5b90505b92915050565b600080821161062457604080517f08c379a000000000000000000000000000000000000000000000000000000000815260206004820152601a60248201527f536166654d6174683a206469766973696f6e206279207a65726f000000000000604482015290519081900360640190fd5b81838161062d57fe5b049392505050565b6040805173ffffffffffffffffffffffffffffffffffffffff8416602482015260448082018490528251808303909101815260649091019091526020810180517bffffffffffffffffffffffffffffffffffffffffffffffffffffffff167fa9059cbb0000000000000000000000000000000000000000000000000000000017905261047f9084905b6060610720826040518060400160405280602081526020017f5361666545524332303a206c6f772d6c6576656c2063616c6c206661696c65648152508573ffffffffffffffffffffffffffffffffffffffff166104849092919063ffffffff16565b80519091501561047f5780806020019051602081101561073f57600080fd5b505161047f576040517f08c379a000000000000000000000000000000000000000000000000000000000815260040180806020018281038252602a815260200180610a5d602a913960400191505060405180910390fd5b6060824710156107f1576040517f08c379a0000000000000000000000000000000000000000000000000000000008152600401808060200182810382526026815260200180610a166026913960400191505060405180910390fd5b6107fa85610951565b61086557604080517f08c379a000000000000000000000000000000000000000000000000000000000815260206004820152601d60248201527f416464726573733a2063616c6c20746f206e6f6e2d636f6e7472616374000000604482015290519081900360640190fd5b600060608673ffffffffffffffffffffffffffffffffffffffff1685876040518082805190602001908083835b602083106108cf57805182527fffffffffffffffffffffffffffffffffffffffffffffffffffffffffffffffe09092019160209182019101610892565b6001836020036101000a03801982511681845116808217855250505050505090500191505060006040518083038185875af1925050503d8060008114610931576040519150601f19603f3d011682016040523d82523d6000602084013e610936565b606091505b5091509150610946828286610957565b979650505050505050565b3b151590565b60608315610966575081610496565b8251156109765782518084602001fd5b816040517f08c379a00000000000000000000000000000000000000000000000000000000081526004018080602001828103825283818151815260200191508051906020019080838360005b838110156109da5781810151838201526020016109c2565b50505050905090810190601f168015610a075780820380516001836020036101000a031916815260200191505b509250505060405180910390fdfe416464726573733a20696e73756666696369656e742062616c616e636520666f722063616c6c536166654d6174683a206d756c7469706c69636174696f6e206f766572666c6f775361666545524332303a204552433230206f7065726174696f6e20646964206e6f7420737563636565645361666545524332303a20617070726f76652066726f6d206e6f6e2d7a65726f20746f206e6f6e2d7a65726f20616c6c6f77616e6365a26469706673582212200684fcc6a6fce6d31fb537b75c9b6c0aa7cea1f654e4570a3c830ef02b41a98364736f6c634300060c0033416464726573733a20696e73756666696369656e742062616c616e636520666f722063616c6c5361666545524332303a204552433230206f7065726174696f6e20646964206e6f7420737563636565645361666545524332303a20617070726f76652066726f6d206e6f6e2d7a65726f20746f206e6f6e2d7a65726f20616c6c6f77616e6365",
  "devdoc": {
    "kind": "dev",
    "methods": {},
    "version": 1
  },
  "userdoc": {
    "kind": "user",
    "methods": {},
    "version": 1
  },
  "storageLayout": {
    "storage": [],
    "types": null
  }
}