{
  "address": "0xCe02a6238EdaD228CF6Bd2504ccF1283e7D94866",
  "abi": [
    {
      "inputs": [
        {
          "internalType": "contract IMetaSwapDeposit",
          "name": "_metaSwap",
          "type": "address"
        },
        {
          "internalType": "contract ISynapseBridge",
          "name": "_synapseBridge",
          "type": "address"
        }
      ],
      "stateMutability": "nonpayable",
      "type": "constructor"
    },
    {
      "inputs": [
        {
          "internalType": "uint8",
          "name": "tokenIndexFrom",
          "type": "uint8"
        },
        {
          "internalType": "uint8",
          "name": "tokenIndexTo",
          "type": "uint8"
        },
        {
          "internalType": "uint256",
          "name": "dx",
          "type": "uint256"
        }
      ],
      "name": "calculateSwap",
      "outputs": [
        {
          "internalType": "uint256",
          "name": "",
          "type": "uint256"
        }
      ],
      "stateMutability": "view",
      "type": "function"
    },
    {
      "inputs": [
        {
          "internalType": "uint256",
          "name": "",
          "type": "uint256"
        }
      ],
      "name": "metaTokens",
      "outputs": [
        {
          "internalType": "contract IERC20",
          "name": "",
          "type": "address"
        }
      ],
      "stateMutability": "view",
      "type": "function"
    },
    {
      "inputs": [
        {
          "internalType": "address",
          "name": "to",
          "type": "address"
        },
        {
          "internalType": "uint256",
          "name": "chainId",
          "type": "uint256"
        },
        {
          "internalType": "contract IERC20",
          "name": "token",
          "type": "address"
        },
        {
          "internalType": "uint256",
          "name": "amount",
          "type": "uint256"
        }
      ],
      "name": "redeem",
      "outputs": [],
      "stateMutability": "nonpayable",
      "type": "function"
    },
    {
      "inputs": [
        {
          "internalType": "address",
          "name": "to",
          "type": "address"
        },
        {
          "internalType": "uint256",
          "name": "chainId",
          "type": "uint256"
        },
        {
          "internalType": "contract IERC20",
          "name": "token",
          "type": "address"
        },
        {
          "internalType": "uint256",
          "name": "amount",
          "type": "uint256"
        },
        {
          "internalType": "uint8",
          "name": "liqTokenIndex",
          "type": "uint8"
        },
        {
          "internalType": "uint256",
          "name": "liqMinAmount",
          "type": "uint256"
        },
        {
          "internalType": "uint256",
          "name": "liqDeadline",
          "type": "uint256"
        }
      ],
      "name": "redeemAndRemove",
      "outputs": [],
      "stateMutability": "nonpayable",
      "type": "function"
    },
    {
      "inputs": [
        {
          "internalType": "address",
          "name": "to",
          "type": "address"
        },
        {
          "internalType": "uint256",
          "name": "chainId",
          "type": "uint256"
        },
        {
          "internalType": "contract IERC20",
          "name": "token",
          "type": "address"
        },
        {
          "internalType": "uint256",
          "name": "amount",
          "type": "uint256"
        },
        {
          "internalType": "uint8",
          "name": "tokenIndexFrom",
          "type": "uint8"
        },
        {
          "internalType": "uint8",
          "name": "tokenIndexTo",
          "type": "uint8"
        },
        {
          "internalType": "uint256",
          "name": "minDy",
          "type": "uint256"
        },
        {
          "internalType": "uint256",
          "name": "deadline",
          "type": "uint256"
        }
      ],
      "name": "redeemAndSwap",
      "outputs": [],
      "stateMutability": "nonpayable",
      "type": "function"
    },
    {
      "inputs": [
        {
          "internalType": "address",
          "name": "to",
          "type": "address"
        },
        {
          "internalType": "uint256",
          "name": "chainId",
          "type": "uint256"
        },
        {
          "internalType": "contract IERC20",
          "name": "token",
          "type": "address"
        },
        {
          "internalType": "uint8",
          "name": "tokenIndexFrom",
          "type": "uint8"
        },
        {
          "internalType": "uint8",
          "name": "tokenIndexTo",
          "type": "uint8"
        },
        {
          "internalType": "uint256",
          "name": "dx",
          "type": "uint256"
        },
        {
          "internalType": "uint256",
          "name": "minDy",
          "type": "uint256"
        },
        {
          "internalType": "uint256",
          "name": "deadline",
          "type": "uint256"
        }
      ],
      "name": "swapAndRedeem",
      "outputs": [],
      "stateMutability": "nonpayable",
      "type": "function"
    },
    {
      "inputs": [
        {
          "internalType": "address",
          "name": "to",
          "type": "address"
        },
        {
          "internalType": "uint256",
          "name": "chainId",
          "type": "uint256"
        },
        {
          "internalType": "contract IERC20",
          "name": "token",
          "type": "address"
        },
        {
          "internalType": "uint8",
          "name": "tokenIndexFrom",
          "type": "uint8"
        },
        {
          "internalType": "uint8",
          "name": "tokenIndexTo",
          "type": "uint8"
        },
        {
          "internalType": "uint256",
          "name": "dx",
          "type": "uint256"
        },
        {
          "internalType": "uint256",
          "name": "minDy",
          "type": "uint256"
        },
        {
          "internalType": "uint256",
          "name": "deadline",
          "type": "uint256"
        },
        {
          "internalType": "uint8",
          "name": "liqTokenIndex",
          "type": "uint8"
        },
        {
          "internalType": "uint256",
          "name": "liqMinAmount",
          "type": "uint256"
        },
        {
          "internalType": "uint256",
          "name": "liqDeadline",
          "type": "uint256"
        }
      ],
      "name": "swapAndRedeemAndRemove",
      "outputs": [],
      "stateMutability": "nonpayable",
      "type": "function"
    },
    {
      "inputs": [
        {
          "internalType": "address",
          "name": "to",
          "type": "address"
        },
        {
          "internalType": "uint256",
          "name": "chainId",
          "type": "uint256"
        },
        {
          "internalType": "contract IERC20",
          "name": "token",
          "type": "address"
        },
        {
          "internalType": "uint8",
          "name": "tokenIndexFrom",
          "type": "uint8"
        },
        {
          "internalType": "uint8",
          "name": "tokenIndexTo",
          "type": "uint8"
        },
        {
          "internalType": "uint256",
          "name": "dx",
          "type": "uint256"
        },
        {
          "internalType": "uint256",
          "name": "minDy",
          "type": "uint256"
        },
        {
          "internalType": "uint256",
          "name": "deadline",
          "type": "uint256"
        },
        {
          "internalType": "uint8",
          "name": "swapTokenIndexFrom",
          "type": "uint8"
        },
        {
          "internalType": "uint8",
          "name": "swapTokenIndexTo",
          "type": "uint8"
        },
        {
          "internalType": "uint256",
          "name": "swapMinDy",
          "type": "uint256"
        },
        {
          "internalType": "uint256",
          "name": "swapDeadline",
          "type": "uint256"
        }
      ],
      "name": "swapAndRedeemAndSwap",
      "outputs": [],
      "stateMutability": "nonpayable",
      "type": "function"
    }
  ],
  "transactionHash": "0xd53b853d0ac8b2dd249e56852ac1faffd18a9dab4a361897a885a5c458f65442",
  "args": [
    "0x1F6F06F97B1FE5f9296e29f5C6c113BB6c2D0ebF",
    "0x0EfC29e196da2e81AFE96eDD041bEdCdF9e74893"
  ],
  "solcInputHash": "0b1d94e0075b70f3808c003c612a1c7e",
  "bytecode": "0x60806040523480156200001157600080fd5b5060405162001dc238038062001dc2833981810160405260408110156200003757600080fd5b508051602090910151600080546001600160a01b038085166001600160a01b031992831617835560018054918516919092161790555b60208160ff1610156200016757826001600160a01b031663e4b50cb8826040518263ffffffff1660e01b8152600401808260ff16815260200191505060206040518083038186803b158015620000c257600080fd5b505afa925050508015620000e957506040513d6020811015620000e457600080fd5b505160015b620000f45762000167565b600280546001810182556000919091527f405787fa12a823e0f2b7631cc41b3ba8828b3321ca811111fa75cd3aa3bb5ace0180546001600160a01b0319166001600160a01b0383169081179091556200015d9085600019620001b4602090811b620010e917901c565b506001016200006d565b60018160ff1611620001ab5760405162461bcd60e51b815260040180806020018281038252602481526020018062001d3e6024913960400191505060405180910390fd5b505050620005c7565b8015806200023e575060408051636eb1769f60e11b81523060048201526001600160a01b03848116602483015291519185169163dd62ed3e91604480820192602092909190829003018186803b1580156200020e57600080fd5b505afa15801562000223573d6000803e3d6000fd5b505050506040513d60208110156200023a57600080fd5b5051155b6200027b5760405162461bcd60e51b815260040180806020018281038252603681526020018062001d8c6036913960400191505060405180910390fd5b604080516001600160a01b038416602482015260448082018490528251808303909101815260649091019091526020810180516001600160e01b0390811663095ea7b360e01b17909152620002d3918591620002d816565b505050565b606062000334826040518060400160405280602081526020017f5361666545524332303a206c6f772d6c6576656c2063616c6c206661696c6564815250856001600160a01b03166200039460201b6200127c179092919060201c565b805190915015620002d3578080602001905160208110156200035557600080fd5b5051620002d35760405162461bcd60e51b815260040180806020018281038252602a81526020018062001d62602a913960400191505060405180910390fd5b6060620003a58484600085620003af565b90505b9392505050565b606082471015620003f25760405162461bcd60e51b815260040180806020018281038252602681526020018062001d186026913960400191505060405180910390fd5b620003fd8562000517565b6200044f576040805162461bcd60e51b815260206004820152601d60248201527f416464726573733a2063616c6c20746f206e6f6e2d636f6e7472616374000000604482015290519081900360640190fd5b60006060866001600160a01b031685876040518082805190602001908083835b60208310620004905780518252601f1990920191602091820191016200046f565b6001836020036101000a03801982511681845116808217855250505050505090500191505060006040518083038185875af1925050503d8060008114620004f4576040519150601f19603f3d011682016040523d82523d6000602084013e620004f9565b606091505b5090925090506200050c8282866200051d565b979650505050505050565b3b151590565b606083156200052e575081620003a8565b8251156200053f5782518084602001fd5b8160405162461bcd60e51b81526004018080602001828103825283818151815260200191508051906020019080838360005b838110156200058b57818101518382015260200162000571565b50505050905090810190601f168015620005b95780820380516001836020036101000a031916815260200191505b509250505060405180910390fd5b61174180620005d76000396000f3fe608060405234801561001057600080fd5b50600436106100885760003560e01c80639f3307271161005b5780639f33072714610237578063a95b089f146102bc578063f3f094a1146102fe578063fd0bd0991461034557610088565b8063174dc9521461008d57806336e712ed1461010d5780634a517a5514610169578063839ed90a146101d0575b600080fd5b61010b60048036036101608110156100a457600080fd5b5073ffffffffffffffffffffffffffffffffffffffff81358116916020810135916040820135169060ff6060820135811691608081013582169160a08201359160c08101359160e0820135916101008101359091169061012081013590610140013561038b565b005b61010b600480360360e081101561012357600080fd5b5073ffffffffffffffffffffffffffffffffffffffff81358116916020810135916040820135169060608101359060ff6080820135169060a08101359060c00135610632565b61010b600480360361010081101561018057600080fd5b5073ffffffffffffffffffffffffffffffffffffffff81358116916020810135916040820135169060ff606082013581169160808101359091169060a08101359060c08101359060e001356107d0565b61010b60048036036101008110156101e757600080fd5b5073ffffffffffffffffffffffffffffffffffffffff81358116916020810135916040820135169060608101359060ff608082013581169160a08101359091169060c08101359060e00135610a2b565b61010b600480360361018081101561024e57600080fd5b5073ffffffffffffffffffffffffffffffffffffffff81358116916020810135916040820135169060ff6060820135811691608081013582169160a08201359160c08101359160e0820135916101008101358216916101208201351690610140810135906101600135610bcb565b6102ec600480360360608110156102d257600080fd5b5060ff813581169160208101359091169060400135610e7f565b60408051918252519081900360200190f35b61010b6004803603608081101561031457600080fd5b5073ffffffffffffffffffffffffffffffffffffffff81358116916020810135916040820135169060600135610f39565b6103626004803603602081101561035b57600080fd5b50356110b5565b6040805173ffffffffffffffffffffffffffffffffffffffff9092168252519081900360200190f35b6103cb33308860028c60ff16815481106103a157fe5b60009182526020909120015473ffffffffffffffffffffffffffffffffffffffff16929190611293565b60008054604080517f9169558600000000000000000000000000000000000000000000000000000000815260ff808d1660048301528b166024820152604481018a90526064810189905260848101889052905173ffffffffffffffffffffffffffffffffffffffff9092169163916955869160a48082019260209290919082900301818787803b15801561045e57600080fd5b505af1158015610472573d6000803e3d6000fd5b505050506040513d602081101561048857600080fd5b5051600154604080517fdd62ed3e00000000000000000000000000000000000000000000000000000000815230600482015273ffffffffffffffffffffffffffffffffffffffff928316602482015290519293508392918d169163dd62ed3e91604480820192602092909190829003018186803b15801561050857600080fd5b505afa15801561051c573d6000803e3d6000fd5b505050506040513d602081101561053257600080fd5b50511015610563576001546105639073ffffffffffffffffffffffffffffffffffffffff8c811691166000196110e9565b600154604080517f74786f3f00000000000000000000000000000000000000000000000000000000815273ffffffffffffffffffffffffffffffffffffffff8f81166004830152602482018f90528d81166044830152606482018590526084820185905260ff881660a483015260c4820187905260e48201869052915191909216916374786f3f9161010480830192600092919082900301818387803b15801561060c57600080fd5b505af1158015610620573d6000803e3d6000fd5b50505050505050505050505050505050565b600154604080517fdd62ed3e00000000000000000000000000000000000000000000000000000000815230600482015273ffffffffffffffffffffffffffffffffffffffff92831660248201529051869288169163dd62ed3e916044808301926020929190829003018186803b1580156106ab57600080fd5b505afa1580156106bf573d6000803e3d6000fd5b505050506040513d60208110156106d557600080fd5b50511015610706576001546107069073ffffffffffffffffffffffffffffffffffffffff87811691166000196110e9565b600154604080517f74786f3f00000000000000000000000000000000000000000000000000000000815273ffffffffffffffffffffffffffffffffffffffff8a81166004830152602482018a90528881166044830152606482018890526084820188905260ff871660a483015260c4820186905260e48201859052915191909216916374786f3f9161010480830192600092919082900301818387803b1580156107af57600080fd5b505af11580156107c3573d6000803e3d6000fd5b5050505050505050505050565b6107e633308560028960ff16815481106103a157fe5b60008054604080517f9169558600000000000000000000000000000000000000000000000000000000815260ff808a16600483015288166024820152604481018790526064810186905260848101859052905173ffffffffffffffffffffffffffffffffffffffff9092169163916955869160a48082019260209290919082900301818787803b15801561087957600080fd5b505af115801561088d573d6000803e3d6000fd5b505050506040513d60208110156108a357600080fd5b5051600154604080517fdd62ed3e00000000000000000000000000000000000000000000000000000000815230600482015273ffffffffffffffffffffffffffffffffffffffff928316602482015290519293508392918a169163dd62ed3e91604480820192602092909190829003018186803b15801561092357600080fd5b505afa158015610937573d6000803e3d6000fd5b505050506040513d602081101561094d57600080fd5b5051101561097e5760015461097e9073ffffffffffffffffffffffffffffffffffffffff89811691166000196110e9565b600154604080517ff3f094a100000000000000000000000000000000000000000000000000000000815273ffffffffffffffffffffffffffffffffffffffff8c81166004830152602482018c90528a81166044830152606482018590529151919092169163f3f094a191608480830192600092919082900301818387803b158015610a0857600080fd5b505af1158015610a1c573d6000803e3d6000fd5b50505050505050505050505050565b600154604080517fdd62ed3e00000000000000000000000000000000000000000000000000000000815230600482015273ffffffffffffffffffffffffffffffffffffffff92831660248201529051879289169163dd62ed3e916044808301926020929190829003018186803b158015610aa457600080fd5b505afa158015610ab8573d6000803e3d6000fd5b505050506040513d6020811015610ace57600080fd5b50511015610aff57600154610aff9073ffffffffffffffffffffffffffffffffffffffff88811691166000196110e9565b600154604080517f839ed90a00000000000000000000000000000000000000000000000000000000815273ffffffffffffffffffffffffffffffffffffffff8b81166004830152602482018b905289811660448301526064820189905260ff8089166084840152871660a483015260c4820186905260e482018590529151919092169163839ed90a9161010480830192600092919082900301818387803b158015610ba957600080fd5b505af1158015610bbd573d6000803e3d6000fd5b505050505050505050505050565b610be133308960028d60ff16815481106103a157fe5b60008054604080517f9169558600000000000000000000000000000000000000000000000000000000815260ff808e1660048301528c166024820152604481018b9052606481018a905260848101899052905173ffffffffffffffffffffffffffffffffffffffff9092169163916955869160a48082019260209290919082900301818787803b158015610c7457600080fd5b505af1158015610c88573d6000803e3d6000fd5b505050506040513d6020811015610c9e57600080fd5b5051600154604080517fdd62ed3e00000000000000000000000000000000000000000000000000000000815230600482015273ffffffffffffffffffffffffffffffffffffffff928316602482015290519293508392918e169163dd62ed3e91604480820192602092909190829003018186803b158015610d1e57600080fd5b505afa158015610d32573d6000803e3d6000fd5b505050506040513d6020811015610d4857600080fd5b50511015610d7957600154610d799073ffffffffffffffffffffffffffffffffffffffff8d811691166000196110e9565b600160009054906101000a900473ffffffffffffffffffffffffffffffffffffffff1673ffffffffffffffffffffffffffffffffffffffff1663839ed90a8e8e8e858a8a8a8a6040518963ffffffff1660e01b8152600401808973ffffffffffffffffffffffffffffffffffffffff1681526020018881526020018773ffffffffffffffffffffffffffffffffffffffff1681526020018681526020018560ff1681526020018460ff16815260200183815260200182815260200198505050505050505050600060405180830381600087803b158015610e5857600080fd5b505af1158015610e6c573d6000803e3d6000fd5b5050505050505050505050505050505050565b60008054604080517fa95b089f00000000000000000000000000000000000000000000000000000000815260ff80881660048301528616602482015260448101859052905173ffffffffffffffffffffffffffffffffffffffff9092169163a95b089f91606480820192602092909190829003018186803b158015610f0357600080fd5b505afa158015610f17573d6000803e3d6000fd5b505050506040513d6020811015610f2d57600080fd5b505190505b9392505050565b600154604080517fdd62ed3e00000000000000000000000000000000000000000000000000000000815230600482015273ffffffffffffffffffffffffffffffffffffffff92831660248201529051839285169163dd62ed3e916044808301926020929190829003018186803b158015610fb257600080fd5b505afa158015610fc6573d6000803e3d6000fd5b505050506040513d6020811015610fdc57600080fd5b5051101561100d5760015461100d9073ffffffffffffffffffffffffffffffffffffffff84811691166000196110e9565b600154604080517ff3f094a100000000000000000000000000000000000000000000000000000000815273ffffffffffffffffffffffffffffffffffffffff8781166004830152602482018790528581166044830152606482018590529151919092169163f3f094a191608480830192600092919082900301818387803b15801561109757600080fd5b505af11580156110ab573d6000803e3d6000fd5b5050505050505050565b600281815481106110c257fe5b60009182526020909120015473ffffffffffffffffffffffffffffffffffffffff16905081565b8015806111955750604080517fdd62ed3e00000000000000000000000000000000000000000000000000000000815230600482015273ffffffffffffffffffffffffffffffffffffffff848116602483015291519185169163dd62ed3e91604480820192602092909190829003018186803b15801561116757600080fd5b505afa15801561117b573d6000803e3d6000fd5b505050506040513d602081101561119157600080fd5b5051155b6111ea576040517f08c379a00000000000000000000000000000000000000000000000000000000081526004018080602001828103825260368152602001806116d66036913960400191505060405180910390fd5b6040805173ffffffffffffffffffffffffffffffffffffffff8416602482015260448082018490528251808303909101815260649091019091526020810180517bffffffffffffffffffffffffffffffffffffffffffffffffffffffff167f095ea7b30000000000000000000000000000000000000000000000000000000017905261127790849061132e565b505050565b606061128b8484600085611406565b949350505050565b6040805173ffffffffffffffffffffffffffffffffffffffff80861660248301528416604482015260648082018490528251808303909101815260849091019091526020810180517bffffffffffffffffffffffffffffffffffffffffffffffffffffffff167f23b872dd0000000000000000000000000000000000000000000000000000000017905261132890859061132e565b50505050565b6060611390826040518060400160405280602081526020017f5361666545524332303a206c6f772d6c6576656c2063616c6c206661696c65648152508573ffffffffffffffffffffffffffffffffffffffff1661127c9092919063ffffffff16565b805190915015611277578080602001905160208110156113af57600080fd5b5051611277576040517f08c379a000000000000000000000000000000000000000000000000000000000815260040180806020018281038252602a8152602001806116ac602a913960400191505060405180910390fd5b606082471015611461576040517f08c379a00000000000000000000000000000000000000000000000000000000081526004018080602001828103825260268152602001806116866026913960400191505060405180910390fd5b61146a856115c1565b6114d557604080517f08c379a000000000000000000000000000000000000000000000000000000000815260206004820152601d60248201527f416464726573733a2063616c6c20746f206e6f6e2d636f6e7472616374000000604482015290519081900360640190fd5b600060608673ffffffffffffffffffffffffffffffffffffffff1685876040518082805190602001908083835b6020831061153f57805182527fffffffffffffffffffffffffffffffffffffffffffffffffffffffffffffffe09092019160209182019101611502565b6001836020036101000a03801982511681845116808217855250505050505090500191505060006040518083038185875af1925050503d80600081146115a1576040519150601f19603f3d011682016040523d82523d6000602084013e6115a6565b606091505b50915091506115b68282866115c7565b979650505050505050565b3b151590565b606083156115d6575081610f32565b8251156115e65782518084602001fd5b816040517f08c379a00000000000000000000000000000000000000000000000000000000081526004018080602001828103825283818151815260200191508051906020019080838360005b8381101561164a578181015183820152602001611632565b50505050905090810190601f1680156116775780820380516001836020036101000a031916815260200191505b509250505060405180910390fdfe416464726573733a20696e73756666696369656e742062616c616e636520666f722063616c6c5361666545524332303a204552433230206f7065726174696f6e20646964206e6f7420737563636565645361666545524332303a20617070726f76652066726f6d206e6f6e2d7a65726f20746f206e6f6e2d7a65726f20616c6c6f77616e6365a26469706673582212200f655f52631db2f767d4a14f16e9e60fb2353cf1d09af64e2a962daca3cc5b3364736f6c634300060c0033416464726573733a20696e73756666696369656e742062616c616e636520666f722063616c6c6d65746153776170206d7573742068617665206174206c65617374203220746f6b656e735361666545524332303a204552433230206f7065726174696f6e20646964206e6f7420737563636565645361666545524332303a20617070726f76652066726f6d206e6f6e2d7a65726f20746f206e6f6e2d7a65726f20616c6c6f77616e6365",
  "devdoc": {
    "kind": "dev",
    "methods": {
      "calculateSwap(uint8,uint8,uint256)": {
        "params": {
          "dx": "the amount of tokens the user wants to sell. If the token charges a fee on transfers, use the amount that gets transferred after the fee.",
          "tokenIndexFrom": "the token the user wants to sell",
          "tokenIndexTo": "the token the user wants to buy"
        },
        "returns": {
          "_0": "amount of tokens the user will receive"
        }
      },
      "redeem(address,uint256,address,uint256)": {
        "params": {
          "amount": "Amount in native token decimals to transfer cross-chain pre-fees*",
          "chainId": "which underlying chain to bridge assets onto",
          "to": "address on other chain to redeem underlying assets to",
          "token": "ERC20 compatible token to deposit into the bridge"
        }
      },
      "redeemAndRemove(address,uint256,address,uint256,uint8,uint256,uint256)": {
        "params": {
          "amount": "Amount of (typically) LP token to pass to the nodes to attempt to removeLiquidity() with to redeem for the underlying assets of the LP token ",
          "chainId": "which underlying chain to bridge assets onto",
          "liqDeadline": "Specificies the deadline that the nodes are allowed to try to redeem/swap the LP token*",
          "liqMinAmount": "Specifies the minimum amount of the underlying asset needed for the nodes to execute the redeem/swap",
          "liqTokenIndex": "Specifies which of the underlying LP assets the nodes should attempt to redeem for",
          "to": "address on other chain to redeem underlying assets to",
          "token": "ERC20 compatible token to deposit into the bridge"
        }
      },
      "redeemAndSwap(address,uint256,address,uint256,uint8,uint8,uint256,uint256)": {
        "params": {
          "amount": "Amount in native token decimals to transfer cross-chain pre-fees",
          "chainId": "which underlying chain to bridge assets onto",
          "deadline": "latest timestamp to accept this transaction*",
          "minDy": "the min amount the user would like to receive, or revert to only minting the SynERC20 token crosschain.",
          "to": "address on other chain to redeem underlying assets to",
          "token": "ERC20 compatible token to deposit into the bridge",
          "tokenIndexFrom": "the token the user wants to swap from",
          "tokenIndexTo": "the token the user wants to swap to"
        }
      }
    },
    "version": 1
  },
  "userdoc": {
    "kind": "user",
    "methods": {
      "calculateSwap(uint8,uint8,uint256)": {
        "notice": "Calculate amount of tokens you receive on swap"
      },
      "redeem(address,uint256,address,uint256)": {
        "notice": "wraps SynapseBridge redeem()"
      },
      "redeemAndRemove(address,uint256,address,uint256,uint8,uint256,uint256)": {
        "notice": "Wraps redeemAndRemove on SynapseBridge Relays to nodes that (typically) a wrapped synAsset ERC20 token has been burned and the underlying needs to be redeeemed on the native chain. This function indicates to the nodes that they should attempt to redeem the LP token for the underlying assets (E.g \"swap\" out of the LP token)"
      },
      "redeemAndSwap(address,uint256,address,uint256,uint8,uint8,uint256,uint256)": {
        "notice": "Wraps redeemAndSwap on SynapseBridge.sol Relays to nodes that (typically) a wrapped synAsset ERC20 token has been burned and the underlying needs to be redeeemed on the native chain. This function indicates to the nodes that they should attempt to redeem the LP token for the underlying assets (E.g \"swap\" out of the LP token)"
      }
    },
    "version": 1
  },
  "storageLayout": {
    "storage": [
      {
        "astId": 9450,
        "contract": "contracts/synapse/wrappers/NerveMetaBridgeZap.sol:NerveMetaBridgeZap",
        "label": "metaSwap",
        "offset": 0,
        "slot": "0",
        "type": "t_contract(IMetaSwapDeposit)8338"
      },
      {
        "astId": 9452,
        "contract": "contracts/synapse/wrappers/NerveMetaBridgeZap.sol:NerveMetaBridgeZap",
        "label": "synapseBridge",
        "offset": 0,
        "slot": "1",
        "type": "t_contract(ISynapseBridge)8584"
      },
      {
        "astId": 9455,
        "contract": "contracts/synapse/wrappers/NerveMetaBridgeZap.sol:NerveMetaBridgeZap",
        "label": "metaTokens",
        "offset": 0,
        "slot": "2",
        "type": "t_array(t_contract(IERC20)4652)dyn_storage"
      }
    ],
    "types": {
      "t_array(t_contract(IERC20)4652)dyn_storage": {
        "base": "t_contract(IERC20)4652",
        "encoding": "dynamic_array",
        "label": "contract IERC20[]",
        "numberOfBytes": "32"
      },
      "t_contract(IERC20)4652": {
        "encoding": "inplace",
        "label": "contract IERC20",
        "numberOfBytes": "20"
      },
      "t_contract(IMetaSwapDeposit)8338": {
        "encoding": "inplace",
        "label": "contract IMetaSwapDeposit",
        "numberOfBytes": "20"
      },
      "t_contract(ISynapseBridge)8584": {
        "encoding": "inplace",
        "label": "contract ISynapseBridge",
        "numberOfBytes": "20"
      }
    }
  }
}