{
  "address": "0x2eB78584b26a1E6dF23dB0b9c9D9034fe356D6c7",
  "abi": [
    {
      "inputs": [
        {
          "internalType": "contract IERC20",
          "name": "_token",
          "type": "address"
        }
      ],
      "stateMutability": "nonpayable",
      "type": "constructor"
    },
    {
      "anonymous": false,
      "inputs": [
        {
          "indexed": true,
          "internalType": "address",
          "name": "previousOwner",
          "type": "address"
        },
        {
          "indexed": true,
          "internalType": "address",
          "name": "newOwner",
          "type": "address"
        }
      ],
      "name": "OwnershipTransferred",
      "type": "event"
    },
    {
      "inputs": [
        {
          "internalType": "address",
          "name": "sender",
          "type": "address"
        }
      ],
      "name": "claim",
      "outputs": [],
      "stateMutability": "nonpayable",
      "type": "function"
    },
    {
      "inputs": [
        {
          "internalType": "address",
          "name": "",
          "type": "address"
        }
      ],
      "name": "claimBalances",
      "outputs": [
        {
          "internalType": "uint256",
          "name": "",
          "type": "uint256"
        }
      ],
      "stateMutability": "view",
      "type": "function"
    },
    {
      "inputs": [],
      "name": "enableClaim",
      "outputs": [],
      "stateMutability": "nonpayable",
      "type": "function"
    },
    {
      "inputs": [],
      "name": "owner",
      "outputs": [
        {
          "internalType": "address",
          "name": "",
          "type": "address"
        }
      ],
      "stateMutability": "view",
      "type": "function"
    },
    {
      "inputs": [],
      "name": "renounceOwnership",
      "outputs": [],
      "stateMutability": "nonpayable",
      "type": "function"
    },
    {
      "inputs": [
        {
          "internalType": "address[]",
          "name": "addresses",
          "type": "address[]"
        },
        {
          "internalType": "uint256[]",
          "name": "amounts",
          "type": "uint256[]"
        }
      ],
      "name": "setClaimBalances",
      "outputs": [],
      "stateMutability": "nonpayable",
      "type": "function"
    },
    {
      "inputs": [],
      "name": "token",
      "outputs": [
        {
          "internalType": "contract IERC20",
          "name": "",
          "type": "address"
        }
      ],
      "stateMutability": "view",
      "type": "function"
    },
    {
      "inputs": [
        {
          "internalType": "address",
          "name": "newOwner",
          "type": "address"
        }
      ],
      "name": "transferOwnership",
      "outputs": [],
      "stateMutability": "nonpayable",
      "type": "function"
    }
  ],
  "transactionHash": "0x33b3bde2cf6fdf2bb428492bd15555e19e8027838e29a83a3e3c5edcf64eb5c6",
  "args": [
    "0x42F6f551ae042cBe50C739158b4f0CAC0Edb9096"
  ],
  "solcInputHash": "dacd00a824b09fc4de2fd693ea7bbd2b",
  "bytecode": "0x60a06040526000805460ff60a01b1916905534801561001d57600080fd5b50604051610d76380380610d768339818101604052602081101561004057600080fd5b5051600061004c6100ab565b600080546001600160a01b0319166001600160a01b0383169081178255604051929350917f8be0079c531659141344cd1fd0a4f28419497f9722a3daafe3b4186f6b6457e0908290a35060601b6001600160601b0319166080526100af565b3390565b60805160601c610ca56100d16000398061039a52806108395250610ca56000f3fe608060405234801561001057600080fd5b50600436106100885760003560e01c8063715018a61161005b578063715018a6146101d15780638da5cb5b146101d9578063f2fde38b1461020a578063fc0c546a1461023d57610088565b80631e83409a1461008d57806328dae6e3146100c25780635360f5e1146100ca57806370f8a6711461010f575b600080fd5b6100c0600480360360208110156100a357600080fd5b503573ffffffffffffffffffffffffffffffffffffffff16610245565b005b6100c06103d5565b6100fd600480360360208110156100e057600080fd5b503573ffffffffffffffffffffffffffffffffffffffff166104a4565b60408051918252519081900360200190f35b6100c06004803603604081101561012557600080fd5b81019060208101813564010000000081111561014057600080fd5b82018360208201111561015257600080fd5b8035906020019184602083028401116401000000008311171561017457600080fd5b91939092909160208101903564010000000081111561019257600080fd5b8201836020820111156101a457600080fd5b803590602001918460208302840111640100000000831117156101c657600080fd5b5090925090506104b6565b6100c06105b1565b6101e16106ae565b6040805173ffffffffffffffffffffffffffffffffffffffff9092168252519081900360200190f35b6100c06004803603602081101561022057600080fd5b503573ffffffffffffffffffffffffffffffffffffffff166106ca565b6101e1610837565b60005474010000000000000000000000000000000000000000900460ff166102b4576040805162461bcd60e51b815260206004820152601160248201527f436c61696d206e6f7420656e61626c6564000000000000000000000000000000604482015290519081900360640190fd5b3373ffffffffffffffffffffffffffffffffffffffff82161461031e576040805162461bcd60e51b815260206004820152601760248201527f496e636f7272656374206164647265737320636c61696d000000000000000000604482015290519081900360640190fd5b3360009081526001602052604090205480610380576040805162461bcd60e51b815260206004820152601360248201527f436c61696d2063616e2774206265207a65726f00000000000000000000000000604482015290519081900360640190fd5b6103c173ffffffffffffffffffffffffffffffffffffffff7f000000000000000000000000000000000000000000000000000000000000000016338361085b565b505033600090815260016020526040812055565b6103dd6108ed565b73ffffffffffffffffffffffffffffffffffffffff166103fb6106ae565b73ffffffffffffffffffffffffffffffffffffffff1614610463576040805162461bcd60e51b815260206004820181905260248201527f4f776e61626c653a2063616c6c6572206973206e6f7420746865206f776e6572604482015290519081900360640190fd5b600080547fffffffffffffffffffffff00ffffffffffffffffffffffffffffffffffffffff1674010000000000000000000000000000000000000000179055565b60016020526000908152604090205481565b6104be6108ed565b73ffffffffffffffffffffffffffffffffffffffff166104dc6106ae565b73ffffffffffffffffffffffffffffffffffffffff1614610544576040805162461bcd60e51b815260206004820181905260248201527f4f776e61626c653a2063616c6c6572206973206e6f7420746865206f776e6572604482015290519081900360640190fd5b60005b838110156105aa5782828281811061055b57fe5b905060200201356001600087878581811061057257fe5b6020908102929092013573ffffffffffffffffffffffffffffffffffffffff1683525081019190915260400160002055600101610547565b5050505050565b6105b96108ed565b73ffffffffffffffffffffffffffffffffffffffff166105d76106ae565b73ffffffffffffffffffffffffffffffffffffffff161461063f576040805162461bcd60e51b815260206004820181905260248201527f4f776e61626c653a2063616c6c6572206973206e6f7420746865206f776e6572604482015290519081900360640190fd5b6000805460405173ffffffffffffffffffffffffffffffffffffffff909116907f8be0079c531659141344cd1fd0a4f28419497f9722a3daafe3b4186f6b6457e0908390a3600080547fffffffffffffffffffffffff0000000000000000000000000000000000000000169055565b60005473ffffffffffffffffffffffffffffffffffffffff1690565b6106d26108ed565b73ffffffffffffffffffffffffffffffffffffffff166106f06106ae565b73ffffffffffffffffffffffffffffffffffffffff1614610758576040805162461bcd60e51b815260206004820181905260248201527f4f776e61626c653a2063616c6c6572206973206e6f7420746865206f776e6572604482015290519081900360640190fd5b73ffffffffffffffffffffffffffffffffffffffff81166107aa5760405162461bcd60e51b8152600401808060200182810382526026815260200180610bfa6026913960400191505060405180910390fd5b6000805460405173ffffffffffffffffffffffffffffffffffffffff808516939216917f8be0079c531659141344cd1fd0a4f28419497f9722a3daafe3b4186f6b6457e091a3600080547fffffffffffffffffffffffff00000000000000000000000000000000000000001673ffffffffffffffffffffffffffffffffffffffff92909216919091179055565b7f000000000000000000000000000000000000000000000000000000000000000081565b6040805173ffffffffffffffffffffffffffffffffffffffff8416602482015260448082018490528251808303909101815260649091019091526020810180517bffffffffffffffffffffffffffffffffffffffffffffffffffffffff167fa9059cbb000000000000000000000000000000000000000000000000000000001790526108e89084906108f1565b505050565b3390565b6060610953826040518060400160405280602081526020017f5361666545524332303a206c6f772d6c6576656c2063616c6c206661696c65648152508573ffffffffffffffffffffffffffffffffffffffff166109af9092919063ffffffff16565b8051909150156108e85780806020019051602081101561097257600080fd5b50516108e85760405162461bcd60e51b815260040180806020018281038252602a815260200180610c46602a913960400191505060405180910390fd5b60606109be84846000856109c8565b90505b9392505050565b606082471015610a095760405162461bcd60e51b8152600401808060200182810382526026815260200180610c206026913960400191505060405180910390fd5b610a1285610b4f565b610a63576040805162461bcd60e51b815260206004820152601d60248201527f416464726573733a2063616c6c20746f206e6f6e2d636f6e7472616374000000604482015290519081900360640190fd5b600060608673ffffffffffffffffffffffffffffffffffffffff1685876040518082805190602001908083835b60208310610acd57805182527fffffffffffffffffffffffffffffffffffffffffffffffffffffffffffffffe09092019160209182019101610a90565b6001836020036101000a03801982511681845116808217855250505050505090500191505060006040518083038185875af1925050503d8060008114610b2f576040519150601f19603f3d011682016040523d82523d6000602084013e610b34565b606091505b5091509150610b44828286610b55565b979650505050505050565b3b151590565b60608315610b645750816109c1565b825115610b745782518084602001fd5b8160405162461bcd60e51b81526004018080602001828103825283818151815260200191508051906020019080838360005b83811015610bbe578181015183820152602001610ba6565b50505050905090810190601f168015610beb5780820380516001836020036101000a031916815260200191505b509250505060405180910390fdfe4f776e61626c653a206e6577206f776e657220697320746865207a65726f2061646472657373416464726573733a20696e73756666696369656e742062616c616e636520666f722063616c6c5361666545524332303a204552433230206f7065726174696f6e20646964206e6f742073756363656564a2646970667358221220e6a2f5b48213e96997e050727c8b5bd0873cbd2d349c716ceabf5ae73b5e739d64736f6c634300060c0033",
  "devdoc": {
    "kind": "dev",
    "methods": {
      "owner()": {
        "details": "Returns the address of the current owner."
      },
      "renounceOwnership()": {
        "details": "Leaves the contract without owner. It will not be possible to call `onlyOwner` functions anymore. Can only be called by the current owner. NOTE: Renouncing ownership will leave the contract without an owner, thereby removing any functionality that is only available to the owner."
      },
      "transferOwnership(address)": {
        "details": "Transfers ownership of the contract to a new account (`newOwner`). Can only be called by the current owner."
      }
    },
    "version": 1
  },
  "userdoc": {
    "kind": "user",
    "methods": {},
    "version": 1
  },
  "storageLayout": {
    "storage": [
      {
        "astId": 3199,
        "contract": "contracts/synapse/TokenDistributor.sol:TokenDistributor",
        "label": "_owner",
        "offset": 0,
        "slot": "0",
        "type": "t_address"
      },
      {
        "astId": 8779,
        "contract": "contracts/synapse/TokenDistributor.sol:TokenDistributor",
        "label": "isClaimable",
        "offset": 20,
        "slot": "0",
        "type": "t_bool"
      },
      {
        "astId": 8783,
        "contract": "contracts/synapse/TokenDistributor.sol:TokenDistributor",
        "label": "claimBalances",
        "offset": 0,
        "slot": "1",
        "type": "t_mapping(t_address,t_uint256)"
      }
    ],
    "types": {
      "t_address": {
        "encoding": "inplace",
        "label": "address",
        "numberOfBytes": "20"
      },
      "t_bool": {
        "encoding": "inplace",
        "label": "bool",
        "numberOfBytes": "1"
      },
      "t_mapping(t_address,t_uint256)": {
        "encoding": "mapping",
        "key": "t_address",
        "label": "mapping(address => uint256)",
        "numberOfBytes": "32",
        "value": "t_uint256"
      },
      "t_uint256": {
        "encoding": "inplace",
        "label": "uint256",
        "numberOfBytes": "32"
      }
    }
  }
}