{
  "address": "0x04073530d61bBCEa747f9917C478273AE5859D46",
  "abi": [
    {
      "inputs": [
        {
          "internalType": "uint256",
          "name": "minDelay",
          "type": "uint256"
        },
        {
          "internalType": "address[]",
          "name": "proposers",
          "type": "address[]"
        },
        {
          "internalType": "address[]",
          "name": "executors",
          "type": "address[]"
        }
      ],
      "stateMutability": "nonpayable",
      "type": "constructor"
    },
    {
      "anonymous": false,
      "inputs": [
        {
          "indexed": true,
          "internalType": "bytes32",
          "name": "id",
          "type": "bytes32"
        },
        {
          "indexed": true,
          "internalType": "uint256",
          "name": "index",
          "type": "uint256"
        },
        {
          "indexed": false,
          "internalType": "address",
          "name": "target",
          "type": "address"
        },
        {
          "indexed": false,
          "internalType": "uint256",
          "name": "value",
          "type": "uint256"
        },
        {
          "indexed": false,
          "internalType": "bytes",
          "name": "data",
          "type": "bytes"
        }
      ],
      "name": "CallExecuted",
      "type": "event"
    },
    {
      "anonymous": false,
      "inputs": [
        {
          "indexed": true,
          "internalType": "bytes32",
          "name": "id",
          "type": "bytes32"
        },
        {
          "indexed": true,
          "internalType": "uint256",
          "name": "index",
          "type": "uint256"
        },
        {
          "indexed": false,
          "internalType": "address",
          "name": "target",
          "type": "address"
        },
        {
          "indexed": false,
          "internalType": "uint256",
          "name": "value",
          "type": "uint256"
        },
        {
          "indexed": false,
          "internalType": "bytes",
          "name": "data",
          "type": "bytes"
        },
        {
          "indexed": false,
          "internalType": "bytes32",
          "name": "predecessor",
          "type": "bytes32"
        },
        {
          "indexed": false,
          "internalType": "uint256",
          "name": "delay",
          "type": "uint256"
        }
      ],
      "name": "CallScheduled",
      "type": "event"
    },
    {
      "anonymous": false,
      "inputs": [
        {
          "indexed": true,
          "internalType": "bytes32",
          "name": "id",
          "type": "bytes32"
        }
      ],
      "name": "Cancelled",
      "type": "event"
    },
    {
      "anonymous": false,
      "inputs": [
        {
          "indexed": false,
          "internalType": "uint256",
          "name": "oldDuration",
          "type": "uint256"
        },
        {
          "indexed": false,
          "internalType": "uint256",
          "name": "newDuration",
          "type": "uint256"
        }
      ],
      "name": "MinDelayChange",
      "type": "event"
    },
    {
      "anonymous": false,
      "inputs": [
        {
          "indexed": true,
          "internalType": "bytes32",
          "name": "role",
          "type": "bytes32"
        },
        {
          "indexed": true,
          "internalType": "bytes32",
          "name": "previousAdminRole",
          "type": "bytes32"
        },
        {
          "indexed": true,
          "internalType": "bytes32",
          "name": "newAdminRole",
          "type": "bytes32"
        }
      ],
      "name": "RoleAdminChanged",
      "type": "event"
    },
    {
      "anonymous": false,
      "inputs": [
        {
          "indexed": true,
          "internalType": "bytes32",
          "name": "role",
          "type": "bytes32"
        },
        {
          "indexed": true,
          "internalType": "address",
          "name": "account",
          "type": "address"
        },
        {
          "indexed": true,
          "internalType": "address",
          "name": "sender",
          "type": "address"
        }
      ],
      "name": "RoleGranted",
      "type": "event"
    },
    {
      "anonymous": false,
      "inputs": [
        {
          "indexed": true,
          "internalType": "bytes32",
          "name": "role",
          "type": "bytes32"
        },
        {
          "indexed": true,
          "internalType": "address",
          "name": "account",
          "type": "address"
        },
        {
          "indexed": true,
          "internalType": "address",
          "name": "sender",
          "type": "address"
        }
      ],
      "name": "RoleRevoked",
      "type": "event"
    },
    {
      "inputs": [],
      "name": "DEFAULT_ADMIN_ROLE",
      "outputs": [
        {
          "internalType": "bytes32",
          "name": "",
          "type": "bytes32"
        }
      ],
      "stateMutability": "view",
      "type": "function"
    },
    {
      "inputs": [],
      "name": "EXECUTOR_ROLE",
      "outputs": [
        {
          "internalType": "bytes32",
          "name": "",
          "type": "bytes32"
        }
      ],
      "stateMutability": "view",
      "type": "function"
    },
    {
      "inputs": [],
      "name": "PROPOSER_ROLE",
      "outputs": [
        {
          "internalType": "bytes32",
          "name": "",
          "type": "bytes32"
        }
      ],
      "stateMutability": "view",
      "type": "function"
    },
    {
      "inputs": [],
      "name": "TIMELOCK_ADMIN_ROLE",
      "outputs": [
        {
          "internalType": "bytes32",
          "name": "",
          "type": "bytes32"
        }
      ],
      "stateMutability": "view",
      "type": "function"
    },
    {
      "inputs": [
        {
          "internalType": "bytes32",
          "name": "id",
          "type": "bytes32"
        }
      ],
      "name": "cancel",
      "outputs": [],
      "stateMutability": "nonpayable",
      "type": "function"
    },
    {
      "inputs": [
        {
          "internalType": "address",
          "name": "target",
          "type": "address"
        },
        {
          "internalType": "uint256",
          "name": "value",
          "type": "uint256"
        },
        {
          "internalType": "bytes",
          "name": "data",
          "type": "bytes"
        },
        {
          "internalType": "bytes32",
          "name": "predecessor",
          "type": "bytes32"
        },
        {
          "internalType": "bytes32",
          "name": "salt",
          "type": "bytes32"
        }
      ],
      "name": "execute",
      "outputs": [],
      "stateMutability": "payable",
      "type": "function"
    },
    {
      "inputs": [
        {
          "internalType": "address[]",
          "name": "targets",
          "type": "address[]"
        },
        {
          "internalType": "uint256[]",
          "name": "values",
          "type": "uint256[]"
        },
        {
          "internalType": "bytes[]",
          "name": "datas",
          "type": "bytes[]"
        },
        {
          "internalType": "bytes32",
          "name": "predecessor",
          "type": "bytes32"
        },
        {
          "internalType": "bytes32",
          "name": "salt",
          "type": "bytes32"
        }
      ],
      "name": "executeBatch",
      "outputs": [],
      "stateMutability": "payable",
      "type": "function"
    },
    {
      "inputs": [],
      "name": "getMinDelay",
      "outputs": [
        {
          "internalType": "uint256",
          "name": "duration",
          "type": "uint256"
        }
      ],
      "stateMutability": "view",
      "type": "function"
    },
    {
      "inputs": [
        {
          "internalType": "bytes32",
          "name": "role",
          "type": "bytes32"
        }
      ],
      "name": "getRoleAdmin",
      "outputs": [
        {
          "internalType": "bytes32",
          "name": "",
          "type": "bytes32"
        }
      ],
      "stateMutability": "view",
      "type": "function"
    },
    {
      "inputs": [
        {
          "internalType": "bytes32",
          "name": "role",
          "type": "bytes32"
        },
        {
          "internalType": "uint256",
          "name": "index",
          "type": "uint256"
        }
      ],
      "name": "getRoleMember",
      "outputs": [
        {
          "internalType": "address",
          "name": "",
          "type": "address"
        }
      ],
      "stateMutability": "view",
      "type": "function"
    },
    {
      "inputs": [
        {
          "internalType": "bytes32",
          "name": "role",
          "type": "bytes32"
        }
      ],
      "name": "getRoleMemberCount",
      "outputs": [
        {
          "internalType": "uint256",
          "name": "",
          "type": "uint256"
        }
      ],
      "stateMutability": "view",
      "type": "function"
    },
    {
      "inputs": [
        {
          "internalType": "bytes32",
          "name": "id",
          "type": "bytes32"
        }
      ],
      "name": "getTimestamp",
      "outputs": [
        {
          "internalType": "uint256",
          "name": "timestamp",
          "type": "uint256"
        }
      ],
      "stateMutability": "view",
      "type": "function"
    },
    {
      "inputs": [
        {
          "internalType": "bytes32",
          "name": "role",
          "type": "bytes32"
        },
        {
          "internalType": "address",
          "name": "account",
          "type": "address"
        }
      ],
      "name": "grantRole",
      "outputs": [],
      "stateMutability": "nonpayable",
      "type": "function"
    },
    {
      "inputs": [
        {
          "internalType": "bytes32",
          "name": "role",
          "type": "bytes32"
        },
        {
          "internalType": "address",
          "name": "account",
          "type": "address"
        }
      ],
      "name": "hasRole",
      "outputs": [
        {
          "internalType": "bool",
          "name": "",
          "type": "bool"
        }
      ],
      "stateMutability": "view",
      "type": "function"
    },
    {
      "inputs": [
        {
          "internalType": "address",
          "name": "target",
          "type": "address"
        },
        {
          "internalType": "uint256",
          "name": "value",
          "type": "uint256"
        },
        {
          "internalType": "bytes",
          "name": "data",
          "type": "bytes"
        },
        {
          "internalType": "bytes32",
          "name": "predecessor",
          "type": "bytes32"
        },
        {
          "internalType": "bytes32",
          "name": "salt",
          "type": "bytes32"
        }
      ],
      "name": "hashOperation",
      "outputs": [
        {
          "internalType": "bytes32",
          "name": "hash",
          "type": "bytes32"
        }
      ],
      "stateMutability": "pure",
      "type": "function"
    },
    {
      "inputs": [
        {
          "internalType": "address[]",
          "name": "targets",
          "type": "address[]"
        },
        {
          "internalType": "uint256[]",
          "name": "values",
          "type": "uint256[]"
        },
        {
          "internalType": "bytes[]",
          "name": "datas",
          "type": "bytes[]"
        },
        {
          "internalType": "bytes32",
          "name": "predecessor",
          "type": "bytes32"
        },
        {
          "internalType": "bytes32",
          "name": "salt",
          "type": "bytes32"
        }
      ],
      "name": "hashOperationBatch",
      "outputs": [
        {
          "internalType": "bytes32",
          "name": "hash",
          "type": "bytes32"
        }
      ],
      "stateMutability": "pure",
      "type": "function"
    },
    {
      "inputs": [
        {
          "internalType": "bytes32",
          "name": "id",
          "type": "bytes32"
        }
      ],
      "name": "isOperation",
      "outputs": [
        {
          "internalType": "bool",
          "name": "pending",
          "type": "bool"
        }
      ],
      "stateMutability": "view",
      "type": "function"
    },
    {
      "inputs": [
        {
          "internalType": "bytes32",
          "name": "id",
          "type": "bytes32"
        }
      ],
      "name": "isOperationDone",
      "outputs": [
        {
          "internalType": "bool",
          "name": "done",
          "type": "bool"
        }
      ],
      "stateMutability": "view",
      "type": "function"
    },
    {
      "inputs": [
        {
          "internalType": "bytes32",
          "name": "id",
          "type": "bytes32"
        }
      ],
      "name": "isOperationPending",
      "outputs": [
        {
          "internalType": "bool",
          "name": "pending",
          "type": "bool"
        }
      ],
      "stateMutability": "view",
      "type": "function"
    },
    {
      "inputs": [
        {
          "internalType": "bytes32",
          "name": "id",
          "type": "bytes32"
        }
      ],
      "name": "isOperationReady",
      "outputs": [
        {
          "internalType": "bool",
          "name": "ready",
          "type": "bool"
        }
      ],
      "stateMutability": "view",
      "type": "function"
    },
    {
      "inputs": [
        {
          "internalType": "bytes32",
          "name": "role",
          "type": "bytes32"
        },
        {
          "internalType": "address",
          "name": "account",
          "type": "address"
        }
      ],
      "name": "renounceRole",
      "outputs": [],
      "stateMutability": "nonpayable",
      "type": "function"
    },
    {
      "inputs": [
        {
          "internalType": "bytes32",
          "name": "role",
          "type": "bytes32"
        },
        {
          "internalType": "address",
          "name": "account",
          "type": "address"
        }
      ],
      "name": "revokeRole",
      "outputs": [],
      "stateMutability": "nonpayable",
      "type": "function"
    },
    {
      "inputs": [
        {
          "internalType": "address",
          "name": "target",
          "type": "address"
        },
        {
          "internalType": "uint256",
          "name": "value",
          "type": "uint256"
        },
        {
          "internalType": "bytes",
          "name": "data",
          "type": "bytes"
        },
        {
          "internalType": "bytes32",
          "name": "predecessor",
          "type": "bytes32"
        },
        {
          "internalType": "bytes32",
          "name": "salt",
          "type": "bytes32"
        },
        {
          "internalType": "uint256",
          "name": "delay",
          "type": "uint256"
        }
      ],
      "name": "schedule",
      "outputs": [],
      "stateMutability": "nonpayable",
      "type": "function"
    },
    {
      "inputs": [
        {
          "internalType": "address[]",
          "name": "targets",
          "type": "address[]"
        },
        {
          "internalType": "uint256[]",
          "name": "values",
          "type": "uint256[]"
        },
        {
          "internalType": "bytes[]",
          "name": "datas",
          "type": "bytes[]"
        },
        {
          "internalType": "bytes32",
          "name": "predecessor",
          "type": "bytes32"
        },
        {
          "internalType": "bytes32",
          "name": "salt",
          "type": "bytes32"
        },
        {
          "internalType": "uint256",
          "name": "delay",
          "type": "uint256"
        }
      ],
      "name": "scheduleBatch",
      "outputs": [],
      "stateMutability": "nonpayable",
      "type": "function"
    },
    {
      "inputs": [
        {
          "internalType": "uint256",
          "name": "newDelay",
          "type": "uint256"
        }
      ],
      "name": "updateDelay",
      "outputs": [],
      "stateMutability": "nonpayable",
      "type": "function"
    },
    {
      "stateMutability": "payable",
      "type": "receive"
    }
  ],
  "transactionHash": "0xed62fd72c36f5784c78d0db7dc175b5377d653254f5a32a7595c3d93139da1c5",
  "args": [
    180,
    [],
    []
  ],
  "solcInputHash": "4272932ad6ef4c4c8b2dafde7afde17b",
  "bytecode": "0x60806040523480156200001157600080fd5b50604051620021c1380380620021c18339810160408190526200003491620003d1565b6200004f6000805160206200216183398151915280620001b1565b620000796000805160206200218183398151915260008051602062002161833981519152620001b1565b620000a3600080516020620021a183398151915260008051602062002161833981519152620001b1565b620000c760008051602062002161833981519152620000c162000203565b62000207565b620000e2600080516020620021618339815191523062000207565b60005b82518110156200012d5762000124600080516020620021818339815191528483815181106200011057fe5b60200260200101516200020760201b60201c565b600101620000e5565b5060005b815181101562000165576200015c600080516020620021a18339815191528383815181106200011057fe5b60010162000131565b5060028390556040517f11c24f4ead16507c69ac467fbd5e4eed5fb5c699626d2cc6d66421df253886d590620001a090600090869062000442565b60405180910390a150505062000450565b600082815260208190526040808220600201549051839285917fbd79b86ffe0ab8e8776151514217cd7cacd52c909f66475c3af44e129f0b00ff9190a460009182526020829052604090912060020155565b3390565b62000213828262000217565b5050565b6000828152602081815260409091206200023c91839062000c7162000290821b17901c565b1562000213576200024c62000203565b6001600160a01b0316816001600160a01b0316837f2f8788117e7eff1d82e926ec794901d17c78024a50270940304540a733656f0d60405160405180910390a45050565b6000620002a7836001600160a01b038416620002b0565b90505b92915050565b6000620002be8383620002ff565b620002f657508154600181810184556000848152602080822090930184905584548482528286019093526040902091909155620002aa565b506000620002aa565b60009081526001919091016020526040902054151590565b80516001600160a01b0381168114620002aa57600080fd5b600082601f83011262000340578081fd5b81516001600160401b038082111562000357578283fd5b60208083026040518282820101818110858211171562000375578687fd5b6040528481529450818501925085820181870183018810156200039757600080fd5b600091505b84821015620003c657620003b1888262000317565b8452928201926001919091019082016200039c565b505050505092915050565b600080600060608486031215620003e6578283fd5b835160208501519093506001600160401b038082111562000405578384fd5b62000413878388016200032f565b9350604086015191508082111562000429578283fd5b5062000438868287016200032f565b9150509250925092565b918252602082015260400190565b611d0180620004606000396000f3fe60806040526004361061019a5760003560e01c80638065657f116100e1578063b1c5f4271161008a578063d45c443511610064578063d45c44351461043f578063d547741f1461045f578063e38335e51461047f578063f27a0c9214610492576101a1565b8063b1c5f427146103df578063c4d252f5146103ff578063ca15c8731461041f576101a1565b80639010d07c116100bb5780639010d07c1461037d57806391d14854146103aa578063a217fddf146103ca576101a1565b80638065657f146103285780638f2a0bb0146103485780638f61f4f514610368576101a1565b80632ab0f5291161014357806336568abe1161011d57806336568abe146102c8578063584b153e146102e857806364d6235314610308576101a1565b80632ab0f529146102685780632f2ff15d1461028857806331d50750146102a8576101a1565b8063134008d311610174578063134008d31461020857806313bc9f201461021b578063248a9ca314610248576101a1565b806301d5062a146101a657806307bd0265146101c85780630d3cf6fc146101f3576101a1565b366101a157005b600080fd5b3480156101b257600080fd5b506101c66101c136600461128b565b6104a7565b005b3480156101d457600080fd5b506101dd610575565b6040516101ea919061173f565b60405180910390f35b3480156101ff57600080fd5b506101dd610599565b6101c661021636600461121f565b6105bd565b34801561022757600080fd5b5061023b610236366004611452565b610654565b6040516101ea9190611734565b34801561025457600080fd5b506101dd610263366004611452565b610679565b34801561027457600080fd5b5061023b610283366004611452565b61068e565b34801561029457600080fd5b506101c66102a336600461146a565b6106a2565b3480156102b457600080fd5b5061023b6102c3366004611452565b6106ea565b3480156102d457600080fd5b506101c66102e336600461146a565b6106fd565b3480156102f457600080fd5b5061023b610303366004611452565b610759565b34801561031457600080fd5b506101c6610323366004611452565b610766565b34801561033457600080fd5b506101dd61034336600461121f565b6107c5565b34801561035457600080fd5b506101c66103633660046113a4565b610804565b34801561037457600080fd5b506101dd61096c565b34801561038957600080fd5b5061039d610398366004611499565b610990565b6040516101ea91906115bb565b3480156103b657600080fd5b5061023b6103c536600461146a565b6109b1565b3480156103d657600080fd5b506101dd6109c9565b3480156103eb57600080fd5b506101dd6103fa3660046112ff565b6109ce565b34801561040b57600080fd5b506101c661041a366004611452565b610a13565b34801561042b57600080fd5b506101dd61043a366004611452565b610ace565b34801561044b57600080fd5b506101dd61045a366004611452565b610ae5565b34801561046b57600080fd5b506101c661047a36600461146a565b610af7565b6101c661048d3660046112ff565b610b31565b34801561049e57600080fd5b506101dd610c6b565b7fb09aa5aeb3702cfd50b6b62bc4532604938f21248a27a1d5ca736082b6819cc16104d4816103c5610c93565b806104e557506104e58160006109b1565b61050a5760405162461bcd60e51b8152600401610501906118bc565b60405180910390fd5b600061051a8989898989896107c5565b90506105268184610c97565b6000817f4cf4410cc57040e44862ef0f45f3dd5a5e02db8eb8add648d4b0e236f1d07dca8b8b8b8b8b8a6040516105629695949392919061161c565b60405180910390a3505050505050505050565b7fd8aa0f3194971a2a116679f7c2090f6939c8d4e01a2a8d7e41d55e5351469e6381565b7f5f58e3a2316349923ce3780f8d587db2d72378aed66a8261c916544fa6846ca581565b7fd8aa0f3194971a2a116679f7c2090f6939c8d4e01a2a8d7e41d55e5351469e636105ea816103c5610c93565b806105fb57506105fb8160006109b1565b6106175760405162461bcd60e51b8152600401610501906118bc565b60006106278888888888886107c5565b905061063284610d04565b6106418160008a8a8a8a610d34565b61064a81610e09565b5050505050505050565b60008061066083610ae5565b90506001811180156106725750428111155b9392505050565b60009081526020819052604090206002015490565b6000600161069b83610ae5565b1492915050565b6000828152602081905260409020600201546106c0906103c5610c93565b6106dc5760405162461bcd60e51b815260040161050190611802565b6106e68282610e42565b5050565b6000806106f683610ae5565b1192915050565b610705610c93565b73ffffffffffffffffffffffffffffffffffffffff168173ffffffffffffffffffffffffffffffffffffffff161461074f5760405162461bcd60e51b815260040161050190611b7e565b6106e68282610ec5565b600060016106f683610ae5565b3330146107855760405162461bcd60e51b815260040161050190611b21565b7f11c24f4ead16507c69ac467fbd5e4eed5fb5c699626d2cc6d66421df253886d5600254826040516107b8929190611c38565b60405180910390a1600255565b60008686868686866040516020016107e29695949392919061161c565b6040516020818303038152906040528051906020012090509695505050505050565b7fb09aa5aeb3702cfd50b6b62bc4532604938f21248a27a1d5ca736082b6819cc1610831816103c5610c93565b8061084257506108428160006109b1565b61085e5760405162461bcd60e51b8152600401610501906118bc565b88871461087d5760405162461bcd60e51b81526004016105019061185f565b88851461089c5760405162461bcd60e51b81526004016105019061185f565b60006108ae8b8b8b8b8b8b8b8b6109ce565b90506108ba8184610c97565b60005b8a81101561095e5780827f4cf4410cc57040e44862ef0f45f3dd5a5e02db8eb8add648d4b0e236f1d07dca8e8e858181106108f457fe5b90506020020160208101906109099190611204565b8d8d8681811061091557fe5b905060200201358c8c8781811061092857fe5b905060200281019061093a9190611c46565b8c8b60405161094e9695949392919061161c565b60405180910390a36001016108bd565b505050505050505050505050565b7fb09aa5aeb3702cfd50b6b62bc4532604938f21248a27a1d5ca736082b6819cc181565b60008281526020819052604081206109a89083610f48565b90505b92915050565b60008281526020819052604081206109a89083610f54565b600081565b600088888888888888886040516020016109ef989796959493929190611667565b60405160208183030381529060405280519060200120905098975050505050505050565b7fb09aa5aeb3702cfd50b6b62bc4532604938f21248a27a1d5ca736082b6819cc1610a40816103c5610c93565b80610a515750610a518160006109b1565b610a6d5760405162461bcd60e51b8152600401610501906118bc565b610a7682610759565b610a925760405162461bcd60e51b815260040161050190611ac4565b6000828152600160205260408082208290555183917fbaa1eb22f2a492ba1a5fea61b8df4d27c6c8b5f3971e63bb58fa14ff72eedb7091a25050565b60008181526020819052604081206109ab90610f76565b60009081526001602052604090205490565b600082815260208190526040902060020154610b15906103c5610c93565b61074f5760405162461bcd60e51b815260040161050190611950565b7fd8aa0f3194971a2a116679f7c2090f6939c8d4e01a2a8d7e41d55e5351469e63610b5e816103c5610c93565b80610b6f5750610b6f8160006109b1565b610b8b5760405162461bcd60e51b8152600401610501906118bc565b878614610baa5760405162461bcd60e51b81526004016105019061185f565b878414610bc95760405162461bcd60e51b81526004016105019061185f565b6000610bdb8a8a8a8a8a8a8a8a6109ce565b9050610be684610d04565b60005b89811015610c5557610c4d82828d8d85818110610c0257fe5b9050602002016020810190610c179190611204565b8c8c86818110610c2357fe5b905060200201358b8b87818110610c3657fe5b9050602002810190610c489190611c46565b610d34565b600101610be9565b50610c5f81610e09565b50505050505050505050565b60025490565b60006109a88373ffffffffffffffffffffffffffffffffffffffff8416610f81565b3390565b610ca0826106ea565b15610cbd5760405162461bcd60e51b815260040161050190611a0a565b610cc5610c6b565b811015610ce45760405162461bcd60e51b8152600401610501906119ad565b610cee4282610fcb565b6000928352600160205260409092209190915550565b801580610d155750610d158161068e565b610d315760405162461bcd60e51b8152600401610501906117a5565b50565b60008473ffffffffffffffffffffffffffffffffffffffff16848484604051610d5e9291906115ab565b60006040518083038185875af1925050503d8060008114610d9b576040519150601f19603f3d011682016040523d82523d6000602084013e610da0565b606091505b5050905080610dc15760405162461bcd60e51b815260040161050190611bdb565b85877fc2617efa69bab66782fa219543714338489c4e9e178271560a91b82c3f612b5887878787604051610df894939291906115dc565b60405180910390a350505050505050565b610e1281610654565b610e2e5760405162461bcd60e51b815260040161050190611a67565b600090815260016020819052604090912055565b6000828152602081905260409020610e5a9082610c71565b156106e657610e67610c93565b73ffffffffffffffffffffffffffffffffffffffff168173ffffffffffffffffffffffffffffffffffffffff16837f2f8788117e7eff1d82e926ec794901d17c78024a50270940304540a733656f0d60405160405180910390a45050565b6000828152602081905260409020610edd9082610ff0565b156106e657610eea610c93565b73ffffffffffffffffffffffffffffffffffffffff168173ffffffffffffffffffffffffffffffffffffffff16837ff6391f5c32d9c69d2a47ea670b442974b53935d1edc7fd64eb21e047a839171b60405160405180910390a45050565b60006109a88383611012565b60006109a88373ffffffffffffffffffffffffffffffffffffffff8416611057565b60006109ab8261106f565b6000610f8d8383611057565b610fc3575081546001818101845560008481526020808220909301849055845484825282860190935260409020919091556109ab565b5060006109ab565b6000828201838110156109a85760405162461bcd60e51b815260040161050190611919565b60006109a88373ffffffffffffffffffffffffffffffffffffffff8416611073565b815460009082106110355760405162461bcd60e51b815260040161050190611748565b82600001828154811061104457fe5b9060005260206000200154905092915050565b60009081526001919091016020526040902054151590565b5490565b6000818152600183016020526040812054801561114d5783547fffffffffffffffffffffffffffffffffffffffffffffffffffffffffffffffff80830191908101906000908790839081106110c457fe5b90600052602060002001549050808760000184815481106110e157fe5b60009182526020808320909101929092558281526001898101909252604090209084019055865487908061111157fe5b600190038181906000526020600020016000905590558660010160008781526020019081526020016000206000905560019450505050506109ab565b60009150506109ab565b803573ffffffffffffffffffffffffffffffffffffffff811681146109ab57600080fd5b60008083601f84011261118c578182fd5b50813567ffffffffffffffff8111156111a3578182fd5b60208301915083602080830285010111156111bd57600080fd5b9250929050565b60008083601f8401126111d5578182fd5b50813567ffffffffffffffff8111156111ec578182fd5b6020830191508360208285010111156111bd57600080fd5b600060208284031215611215578081fd5b6109a88383611157565b60008060008060008060a08789031215611237578182fd5b863561124281611ca9565b955060208701359450604087013567ffffffffffffffff811115611264578283fd5b61127089828a016111c4565b979a9699509760608101359660809091013595509350505050565b600080600080600080600060c0888a0312156112a5578081fd5b6112af8989611157565b965060208801359550604088013567ffffffffffffffff8111156112d1578182fd5b6112dd8a828b016111c4565b989b979a50986060810135976080820135975060a09091013595509350505050565b60008060008060008060008060a0898b03121561131a578081fd5b883567ffffffffffffffff80821115611331578283fd5b61133d8c838d0161117b565b909a50985060208b0135915080821115611355578283fd5b6113618c838d0161117b565b909850965060408b0135915080821115611379578283fd5b506113868b828c0161117b565b999c989b509699959896976060870135966080013595509350505050565b600080600080600080600080600060c08a8c0312156113c1578081fd5b893567ffffffffffffffff808211156113d8578283fd5b6113e48d838e0161117b565b909b50995060208c01359150808211156113fc578283fd5b6114088d838e0161117b565b909950975060408c0135915080821115611420578283fd5b5061142d8c828d0161117b565b9a9d999c50979a969997986060880135976080810135975060a0013595509350505050565b600060208284031215611463578081fd5b5035919050565b6000806040838503121561147c578182fd5b82359150602083013561148e81611ca9565b809150509250929050565b600080604083850312156114ab578182fd5b50508035926020909101359150565b818352602080840193600091908185020181018584845b8781101561155657828403895281357fffffffffffffffffffffffffffffffffffffffffffffffffffffffffffffffe188360301811261150f578687fd5b8701803567ffffffffffffffff811115611527578788fd5b803603891315611535578788fd5b6115428682898501611563565b9a87019a95505050908401906001016114d1565b5091979650505050505050565b600082845282826020860137806020848601015260207fffffffffffffffffffffffffffffffffffffffffffffffffffffffffffffffe0601f85011685010190509392505050565b6000828483379101908152919050565b73ffffffffffffffffffffffffffffffffffffffff91909116815260200190565b600073ffffffffffffffffffffffffffffffffffffffff8616825284602083015260606040830152611612606083018486611563565b9695505050505050565b600073ffffffffffffffffffffffffffffffffffffffff8816825286602083015260a0604083015261165260a083018688611563565b60608301949094525060800152949350505050565b60a0808252810188905260008960c08301825b8b8110156116b757602080840173ffffffffffffffffffffffffffffffffffffffff6116a68287611157565b16845293509091019060010161167a565b5083810360208501528881527f07ffffffffffffffffffffffffffffffffffffffffffffffffffffffffffffff8911156116ef578283fd5b602089029150818a6020830137016020818101838152848303909101604085015261171b81888a6114ba565b6060850196909652505050608001529695505050505050565b901515815260200190565b90815260200190565b60208082526022908201527f456e756d657261626c655365743a20696e646578206f7574206f6620626f756e60408201527f6473000000000000000000000000000000000000000000000000000000000000606082015260800190565b60208082526026908201527f54696d656c6f636b436f6e74726f6c6c65723a206d697373696e67206465706560408201527f6e64656e63790000000000000000000000000000000000000000000000000000606082015260800190565b6020808252602f908201527f416363657373436f6e74726f6c3a2073656e646572206d75737420626520616e60408201527f2061646d696e20746f206772616e740000000000000000000000000000000000606082015260800190565b60208082526023908201527f54696d656c6f636b436f6e74726f6c6c65723a206c656e677468206d69736d6160408201527f7463680000000000000000000000000000000000000000000000000000000000606082015260800190565b6020808252602e908201527f54696d656c6f636b436f6e74726f6c6c65723a2073656e64657220726571756960408201527f726573207065726d697373696f6e000000000000000000000000000000000000606082015260800190565b6020808252601b908201527f536166654d6174683a206164646974696f6e206f766572666c6f770000000000604082015260600190565b60208082526030908201527f416363657373436f6e74726f6c3a2073656e646572206d75737420626520616e60408201527f2061646d696e20746f207265766f6b6500000000000000000000000000000000606082015260800190565b60208082526026908201527f54696d656c6f636b436f6e74726f6c6c65723a20696e73756666696369656e7460408201527f2064656c61790000000000000000000000000000000000000000000000000000606082015260800190565b6020808252602f908201527f54696d656c6f636b436f6e74726f6c6c65723a206f7065726174696f6e20616c60408201527f7265616479207363686564756c65640000000000000000000000000000000000606082015260800190565b6020808252602a908201527f54696d656c6f636b436f6e74726f6c6c65723a206f7065726174696f6e20697360408201527f206e6f7420726561647900000000000000000000000000000000000000000000606082015260800190565b60208082526031908201527f54696d656c6f636b436f6e74726f6c6c65723a206f7065726174696f6e20636160408201527f6e6e6f742062652063616e63656c6c6564000000000000000000000000000000606082015260800190565b6020808252602b908201527f54696d656c6f636b436f6e74726f6c6c65723a2063616c6c6572206d7573742060408201527f62652074696d656c6f636b000000000000000000000000000000000000000000606082015260800190565b6020808252602f908201527f416363657373436f6e74726f6c3a2063616e206f6e6c792072656e6f756e636560408201527f20726f6c657320666f722073656c660000000000000000000000000000000000606082015260800190565b60208082526033908201527f54696d656c6f636b436f6e74726f6c6c65723a20756e6465726c79696e67207460408201527f72616e73616374696f6e20726576657274656400000000000000000000000000606082015260800190565b918252602082015260400190565b60008083357fffffffffffffffffffffffffffffffffffffffffffffffffffffffffffffffe1843603018112611c7a578283fd5b83018035915067ffffffffffffffff821115611c94578283fd5b6020019150368190038213156111bd57600080fd5b73ffffffffffffffffffffffffffffffffffffffff81168114610d3157600080fdfea26469706673582212202dcd252d44b2dc084e21dea5312f829a0177fec162e79683d7a6ceb76abc701464736f6c634300060c00335f58e3a2316349923ce3780f8d587db2d72378aed66a8261c916544fa6846ca5b09aa5aeb3702cfd50b6b62bc4532604938f21248a27a1d5ca736082b6819cc1d8aa0f3194971a2a116679f7c2090f6939c8d4e01a2a8d7e41d55e5351469e63",
  "devdoc": {
    "details": "Contract module which acts as a timelocked controller. When set as the owner of an `Ownable` smart contract, it enforces a timelock on all `onlyOwner` maintenance operations. This gives time for users of the controlled contract to exit before a potentially dangerous maintenance operation is applied. By default, this contract is self administered, meaning administration tasks have to go through the timelock process. The proposer (resp executor) role is in charge of proposing (resp executing) operations. A common use case is to position this {TimelockController} as the owner of a smart contract, with a multisig or a DAO as the sole proposer. _Available since v3.3._",
    "events": {
      "CallExecuted(bytes32,uint256,address,uint256,bytes)": {
        "details": "Emitted when a call is performed as part of operation `id`."
      },
      "CallScheduled(bytes32,uint256,address,uint256,bytes,bytes32,uint256)": {
        "details": "Emitted when a call is scheduled as part of operation `id`."
      },
      "Cancelled(bytes32)": {
        "details": "Emitted when operation `id` is cancelled."
      },
      "MinDelayChange(uint256,uint256)": {
        "details": "Emitted when the minimum delay for future operations is modified."
      }
    },
    "kind": "dev",
    "methods": {
      "cancel(bytes32)": {
        "details": "Cancel an operation. Requirements: - the caller must have the 'proposer' role."
      },
      "constructor": {
        "details": "Initializes the contract with a given `minDelay`."
      },
      "execute(address,uint256,bytes,bytes32,bytes32)": {
        "details": "Execute an (ready) operation containing a single transaction. Emits a {CallExecuted} event. Requirements: - the caller must have the 'executor' role."
      },
      "executeBatch(address[],uint256[],bytes[],bytes32,bytes32)": {
        "details": "Execute an (ready) operation containing a batch of transactions. Emits one {CallExecuted} event per transaction in the batch. Requirements: - the caller must have the 'executor' role."
      },
      "getMinDelay()": {
        "details": "Returns the minimum delay for an operation to become valid. This value can be changed by executing an operation that calls `updateDelay`."
      },
      "getRoleAdmin(bytes32)": {
        "details": "Returns the admin role that controls `role`. See {grantRole} and {revokeRole}. To change a role's admin, use {_setRoleAdmin}."
      },
      "getRoleMember(bytes32,uint256)": {
        "details": "Returns one of the accounts that have `role`. `index` must be a value between 0 and {getRoleMemberCount}, non-inclusive. Role bearers are not sorted in any particular way, and their ordering may change at any point. WARNING: When using {getRoleMember} and {getRoleMemberCount}, make sure you perform all queries on the same block. See the following https://forum.openzeppelin.com/t/iterating-over-elements-on-enumerableset-in-openzeppelin-contracts/2296[forum post] for more information."
      },
      "getRoleMemberCount(bytes32)": {
        "details": "Returns the number of accounts that have `role`. Can be used together with {getRoleMember} to enumerate all bearers of a role."
      },
      "getTimestamp(bytes32)": {
        "details": "Returns the timestamp at with an operation becomes ready (0 for unset operations, 1 for done operations)."
      },
      "grantRole(bytes32,address)": {
        "details": "Grants `role` to `account`. If `account` had not been already granted `role`, emits a {RoleGranted} event. Requirements: - the caller must have ``role``'s admin role."
      },
      "hasRole(bytes32,address)": {
        "details": "Returns `true` if `account` has been granted `role`."
      },
      "hashOperation(address,uint256,bytes,bytes32,bytes32)": {
        "details": "Returns the identifier of an operation containing a single transaction."
      },
      "hashOperationBatch(address[],uint256[],bytes[],bytes32,bytes32)": {
        "details": "Returns the identifier of an operation containing a batch of transactions."
      },
      "isOperation(bytes32)": {
        "details": "Returns whether an id correspond to a registered operation. This includes both Pending, Ready and Done operations."
      },
      "isOperationDone(bytes32)": {
        "details": "Returns whether an operation is done or not."
      },
      "isOperationPending(bytes32)": {
        "details": "Returns whether an operation is pending or not."
      },
      "isOperationReady(bytes32)": {
        "details": "Returns whether an operation is ready or not."
      },
      "renounceRole(bytes32,address)": {
        "details": "Revokes `role` from the calling account. Roles are often managed via {grantRole} and {revokeRole}: this function's purpose is to provide a mechanism for accounts to lose their privileges if they are compromised (such as when a trusted device is misplaced). If the calling account had been granted `role`, emits a {RoleRevoked} event. Requirements: - the caller must be `account`."
      },
      "revokeRole(bytes32,address)": {
        "details": "Revokes `role` from `account`. If `account` had been granted `role`, emits a {RoleRevoked} event. Requirements: - the caller must have ``role``'s admin role."
      },
      "schedule(address,uint256,bytes,bytes32,bytes32,uint256)": {
        "details": "Schedule an operation containing a single transaction. Emits a {CallScheduled} event. Requirements: - the caller must have the 'proposer' role."
      },
      "scheduleBatch(address[],uint256[],bytes[],bytes32,bytes32,uint256)": {
        "details": "Schedule an operation containing a batch of transactions. Emits one {CallScheduled} event per transaction in the batch. Requirements: - the caller must have the 'proposer' role."
      },
      "updateDelay(uint256)": {
        "details": "Changes the minimum timelock duration for future operations. Emits a {MinDelayChange} event. Requirements: - the caller must be the timelock itself. This can only be achieved by scheduling and later executing an operation where the timelock is the target and the data is the ABI-encoded call to this function."
      }
    },
    "version": 1
  },
  "userdoc": {
    "kind": "user",
    "methods": {},
    "version": 1
  },
  "storageLayout": {
    "storage": [
      {
        "astId": 2760,
        "contract": "contracts/synapse/utils/TimelockController.sol:TimelockController",
        "label": "_roles",
        "offset": 0,
        "slot": "0",
        "type": "t_mapping(t_bytes32,t_struct(RoleData)2756_storage)"
      },
      {
        "astId": 9376,
        "contract": "contracts/synapse/utils/TimelockController.sol:TimelockController",
        "label": "_timestamps",
        "offset": 0,
        "slot": "1",
        "type": "t_mapping(t_bytes32,t_uint256)"
      },
      {
        "astId": 9378,
        "contract": "contracts/synapse/utils/TimelockController.sol:TimelockController",
        "label": "_minDelay",
        "offset": 0,
        "slot": "2",
        "type": "t_uint256"
      }
    ],
    "types": {
      "t_array(t_bytes32)dyn_storage": {
        "base": "t_bytes32",
        "encoding": "dynamic_array",
        "label": "bytes32[]",
        "numberOfBytes": "32"
      },
      "t_bytes32": {
        "encoding": "inplace",
        "label": "bytes32",
        "numberOfBytes": "32"
      },
      "t_mapping(t_bytes32,t_struct(RoleData)2756_storage)": {
        "encoding": "mapping",
        "key": "t_bytes32",
        "label": "mapping(bytes32 => struct AccessControl.RoleData)",
        "numberOfBytes": "32",
        "value": "t_struct(RoleData)2756_storage"
      },
      "t_mapping(t_bytes32,t_uint256)": {
        "encoding": "mapping",
        "key": "t_bytes32",
        "label": "mapping(bytes32 => uint256)",
        "numberOfBytes": "32",
        "value": "t_uint256"
      },
      "t_struct(AddressSet)5510_storage": {
        "encoding": "inplace",
        "label": "struct EnumerableSet.AddressSet",
        "members": [
          {
            "astId": 5509,
            "contract": "contracts/synapse/utils/TimelockController.sol:TimelockController",
            "label": "_inner",
            "offset": 0,
            "slot": "0",
            "type": "t_struct(Set)5245_storage"
          }
        ],
        "numberOfBytes": "64"
      },
      "t_struct(RoleData)2756_storage": {
        "encoding": "inplace",
        "label": "struct AccessControl.RoleData",
        "members": [
          {
            "astId": 2753,
            "contract": "contracts/synapse/utils/TimelockController.sol:TimelockController",
            "label": "members",
            "offset": 0,
            "slot": "0",
            "type": "t_struct(AddressSet)5510_storage"
          },
          {
            "astId": 2755,
            "contract": "contracts/synapse/utils/TimelockController.sol:TimelockController",
            "label": "adminRole",
            "offset": 0,
            "slot": "2",
            "type": "t_bytes32"
          }
        ],
        "numberOfBytes": "96"
      },
      "t_struct(Set)5245_storage": {
        "encoding": "inplace",
        "label": "struct EnumerableSet.Set",
        "members": [
          {
            "astId": 5240,
            "contract": "contracts/synapse/utils/TimelockController.sol:TimelockController",
            "label": "_values",
            "offset": 0,
            "slot": "0",
            "type": "t_array(t_bytes32)dyn_storage"
          },
          {
            "astId": 5244,
            "contract": "contracts/synapse/utils/TimelockController.sol:TimelockController",
            "label": "_indexes",
            "offset": 0,
            "slot": "1",
            "type": "t_mapping(t_bytes32,t_uint256)"
          }
        ],
        "numberOfBytes": "64"
      },
      "t_uint256": {
        "encoding": "inplace",
        "label": "uint256",
        "numberOfBytes": "32"
      }
    }
  }
}