{
  "address": "0xd5609cD0e1675331E4Fb1d43207C8d9D83AAb17C",
  "abi": [
    {
      "inputs": [],
      "stateMutability": "nonpayable",
      "type": "constructor"
    },
    {
      "anonymous": false,
      "inputs": [
        {
          "indexed": false,
          "internalType": "address",
          "name": "contractAddress",
          "type": "address"
        }
      ],
      "name": "SynapseERC20Created",
      "type": "event"
    },
    {
      "inputs": [
        {
          "internalType": "address",
          "name": "synapseERC20Address",
          "type": "address"
        },
        {
          "internalType": "string",
          "name": "name",
          "type": "string"
        },
        {
          "internalType": "string",
          "name": "symbol",
          "type": "string"
        },
        {
          "internalType": "uint8",
          "name": "decimals",
          "type": "uint8"
        },
        {
          "internalType": "address",
          "name": "owner",
          "type": "address"
        }
      ],
      "name": "deploy",
      "outputs": [
        {
          "internalType": "address",
          "name": "",
          "type": "address"
        }
      ],
      "stateMutability": "nonpayable",
      "type": "function"
    }
  ],
  "transactionHash": "0xb58dc6312ef01e406631e57608eb68864aee94307427fd157d229dd27af6f643",
  "args": [],
  "solcInputHash": "f7a0e775a63db70556faee5b2931ea16",
  "bytecode": "0x608060405234801561001057600080fd5b5061049d806100206000396000f3fe608060405234801561001057600080fd5b506004361061002b5760003560e01c80635d58ce2414610030575b600080fd5b610198600480360360a081101561004657600080fd5b73ffffffffffffffffffffffffffffffffffffffff823516919081019060408101602082013564010000000081111561007e57600080fd5b82018360208201111561009057600080fd5b803590602001918460018302840111640100000000831117156100b257600080fd5b91908080601f016020809104026020016040519081016040528093929190818152602001838380828437600092019190915250929594936020810193503591505064010000000081111561010557600080fd5b82018360208201111561011757600080fd5b8035906020019184600183028401116401000000008311171561013957600080fd5b91908080601f0160208091040260200160405190810160405280939291908181526020018383808284376000920191909152509295505050813560ff169250506020013573ffffffffffffffffffffffffffffffffffffffff166101c1565b6040805173ffffffffffffffffffffffffffffffffffffffff9092168252519081900360200190f35b6000806101cd87610380565b90508073ffffffffffffffffffffffffffffffffffffffff1663de7ea79d878787876040518563ffffffff1660e01b81526004018080602001806020018560ff1681526020018473ffffffffffffffffffffffffffffffffffffffff168152602001838103835287818151815260200191508051906020019080838360005b8381101561026457818101518382015260200161024c565b50505050905090810190601f1680156102915780820380516001836020036101000a031916815260200191505b50838103825286518152865160209182019188019080838360005b838110156102c45781810151838201526020016102ac565b50505050905090810190601f1680156102f15780820380516001836020036101000a031916815260200191505b509650505050505050600060405180830381600087803b15801561031457600080fd5b505af1158015610328573d6000803e3d6000fd5b50506040805173ffffffffffffffffffffffffffffffffffffffff8516815290517f3f53e2db82c60058131913739ee1bca25955b597586645b6043f9902e9bdf0dd9350908190036020019150a19695505050505050565b60006040517f3d602d80600a3d3981f3363d3d373d3d3d363d7300000000000000000000000081528260601b60148201527f5af43d82803e903d91602b57fd5bf3000000000000000000000000000000000060288201526037816000f091505073ffffffffffffffffffffffffffffffffffffffff811661046257604080517f08c379a000000000000000000000000000000000000000000000000000000000815260206004820152601660248201527f455243313136373a20637265617465206661696c656400000000000000000000604482015290519081900360640190fd5b91905056fea2646970667358221220cb8880f958959567ff767e3277571bfa9615d9fe124c0b2860bbf220ece6a16f64736f6c634300060c0033",
  "devdoc": {
    "kind": "dev",
    "methods": {
      "deploy(address,string,string,uint8,address)": {
        "params": {
          "decimals": "Token name",
          "name": "Token name",
          "owner": "admin address to be initialized with",
          "symbol": "Token symbol",
          "synapseERC20Address": "address of the synapseERC20Address contract to initialize with"
        },
        "returns": {
          "_0": "Address of the newest node management contract created*"
        }
      }
    },
    "version": 1
  },
  "userdoc": {
    "kind": "user",
    "methods": {
      "deploy(address,string,string,uint8,address)": {
        "notice": "Deploys a new node"
      }
    },
    "version": 1
  },
  "storageLayout": {
    "storage": [],
    "types": null
  }
}