{
  "address": "0x9476CB42AD75b7eDa482970D55b9bc9fbdf8ACa1",
  "abi": [
    {
      "inputs": [],
      "stateMutability": "nonpayable",
      "type": "constructor"
    },
    {
      "anonymous": false,
      "inputs": [
        {
          "indexed": false,
          "internalType": "address",
          "name": "contractAddress",
          "type": "address"
        }
      ],
      "name": "SynapseERC20Created",
      "type": "event"
    },
    {
      "inputs": [
        {
          "internalType": "address",
          "name": "synapseERC20Address",
          "type": "address"
        },
        {
          "internalType": "string",
          "name": "name",
          "type": "string"
        },
        {
          "internalType": "string",
          "name": "symbol",
          "type": "string"
        },
        {
          "internalType": "uint8",
          "name": "decimals",
          "type": "uint8"
        },
        {
          "internalType": "uint256",
          "name": "underlyingChainId",
          "type": "uint256"
        },
        {
          "internalType": "address",
          "name": "underlyingTokenAddress",
          "type": "address"
        },
        {
          "internalType": "address",
          "name": "owner",
          "type": "address"
        }
      ],
      "name": "deploy",
      "outputs": [
        {
          "internalType": "address",
          "name": "",
          "type": "address"
        }
      ],
      "stateMutability": "nonpayable",
      "type": "function"
    }
  ],
  "transactionHash": "0xc7d5d7b79225746cf846dc71f381d3ee810a95a96ebe6dbd773782452b604dd1",
  "args": [],
  "solcInputHash": "adde4deb5622e1fc3e2abc11eed451e9",
  "bytecode": "0x608060405234801561001057600080fd5b506104d3806100206000396000f3fe608060405234801561001057600080fd5b506004361061002b5760003560e01c8063b5c9797814610030575b600080fd5b6101a6600480360360e081101561004657600080fd5b73ffffffffffffffffffffffffffffffffffffffff823516919081019060408101602082013564010000000081111561007e57600080fd5b82018360208201111561009057600080fd5b803590602001918460018302840111640100000000831117156100b257600080fd5b91908080601f016020809104026020016040519081016040528093929190818152602001838380828437600092019190915250929594936020810193503591505064010000000081111561010557600080fd5b82018360208201111561011757600080fd5b8035906020019184600183028401116401000000008311171561013957600080fd5b91908080601f0160208091040260200160405190810160405280939291908181526020018383808284376000920191909152509295505060ff8335169350505060208101359073ffffffffffffffffffffffffffffffffffffffff604082013581169160600135166101cf565b6040805173ffffffffffffffffffffffffffffffffffffffff9092168252519081900360200190f35b6000806101db896103b6565b90508073ffffffffffffffffffffffffffffffffffffffff1663c45c3a308989898989896040518763ffffffff1660e01b81526004018080602001806020018760ff1681526020018681526020018573ffffffffffffffffffffffffffffffffffffffff1681526020018473ffffffffffffffffffffffffffffffffffffffff168152602001838103835289818151815260200191508051906020019080838360005b8381101561029657818101518382015260200161027e565b50505050905090810190601f1680156102c35780820380516001836020036101000a031916815260200191505b5083810382528851815288516020918201918a019080838360005b838110156102f65781810151838201526020016102de565b50505050905090810190601f1680156103235780820380516001836020036101000a031916815260200191505b5098505050505050505050600060405180830381600087803b15801561034857600080fd5b505af115801561035c573d6000803e3d6000fd5b50506040805173ffffffffffffffffffffffffffffffffffffffff8516815290517f3f53e2db82c60058131913739ee1bca25955b597586645b6043f9902e9bdf0dd9350908190036020019150a198975050505050505050565b60006040517f3d602d80600a3d3981f3363d3d373d3d3d363d7300000000000000000000000081528260601b60148201527f5af43d82803e903d91602b57fd5bf3000000000000000000000000000000000060288201526037816000f091505073ffffffffffffffffffffffffffffffffffffffff811661049857604080517f08c379a000000000000000000000000000000000000000000000000000000000815260206004820152601660248201527f455243313136373a20637265617465206661696c656400000000000000000000604482015290519081900360640190fd5b91905056fea264697066735822122035407e9bbb8aa6b22206b43c4b4f3b32c3ed637ffb909455835931e508a7599164736f6c634300060c0033",
  "devdoc": {
    "kind": "dev",
    "methods": {
      "deploy(address,string,string,uint8,uint256,address,address)": {
        "params": {
          "decimals": "Token name",
          "name": "Token name",
          "owner": "admin address to be initialized with",
          "symbol": "Token symbol",
          "synapseERC20Address": "address of the synapseERC20Address contract to initialize with",
          "underlyingChainId": "Base asset chain ID which SynapseERC20 represents",
          "underlyingTokenAddress": "Base asset address which SynapseERC20 represents"
        },
        "returns": {
          "_0": "Address of the newest node management contract created*"
        }
      }
    },
    "version": 1
  },
  "userdoc": {
    "kind": "user",
    "methods": {
      "deploy(address,string,string,uint8,uint256,address,address)": {
        "notice": "Deploys a new node"
      }
    },
    "version": 1
  },
  "storageLayout": {
    "storage": [],
    "types": null
  }
}