{
  "address": "0x991adb00eF4c4a6D1eA6036811138Db4379377C2",
  "abi": [
    {
      "anonymous": false,
      "inputs": [
        {
          "indexed": true,
          "internalType": "address",
          "name": "previousOwner",
          "type": "address"
        },
        {
          "indexed": true,
          "internalType": "address",
          "name": "newOwner",
          "type": "address"
        }
      ],
      "name": "OwnershipTransferred",
      "type": "event"
    },
    {
      "inputs": [],
      "name": "WETH",
      "outputs": [
        {
          "internalType": "contract IWETH9",
          "name": "",
          "type": "address"
        }
      ],
      "stateMutability": "view",
      "type": "function"
    },
    {
      "inputs": [],
      "name": "owner",
      "outputs": [
        {
          "internalType": "address",
          "name": "",
          "type": "address"
        }
      ],
      "stateMutability": "view",
      "type": "function"
    },
    {
      "inputs": [],
      "name": "renounceOwnership",
      "outputs": [],
      "stateMutability": "nonpayable",
      "type": "function"
    },
    {
      "inputs": [
        {
          "internalType": "uint256",
          "name": "amount",
          "type": "uint256"
        }
      ],
      "name": "rescue",
      "outputs": [],
      "stateMutability": "nonpayable",
      "type": "function"
    },
    {
      "inputs": [
        {
          "internalType": "address payable",
          "name": "_weth",
          "type": "address"
        }
      ],
      "name": "setWETHAddress",
      "outputs": [],
      "stateMutability": "nonpayable",
      "type": "function"
    },
    {
      "inputs": [
        {
          "internalType": "address",
          "name": "newOwner",
          "type": "address"
        }
      ],
      "name": "transferOwnership",
      "outputs": [],
      "stateMutability": "nonpayable",
      "type": "function"
    },
    {
      "inputs": [
        {
          "internalType": "uint256",
          "name": "amount",
          "type": "uint256"
        }
      ],
      "name": "withdrawToSelf",
      "outputs": [],
      "stateMutability": "nonpayable",
      "type": "function"
    },
    {
      "stateMutability": "payable",
      "type": "receive"
    }
  ],
  "transactionHash": "0xd2c6c77a21fe6aee61154144afdf8451b4b4c70b95d5e876075b8cddab2784b2",
  "args": [],
  "solcInputHash": "95d2d967c938005158722875e8205f16",
  "bytecode": "0x608060405234801561001057600080fd5b50600061001b61006a565b600080546001600160a01b0319166001600160a01b0383169081178255604051929350917f8be0079c531659141344cd1fd0a4f28419497f9722a3daafe3b4186f6b6457e0908290a35061006e565b3390565b6107dc8061007d6000396000f3fe6080604052600436106100745760003560e01c8063715018a61161004e578063715018a6146101165780638da5cb5b1461012b578063ad5c464814610169578063f2fde38b1461017e5761007b565b80633847d7eb146100805780636a4234eb146100ac5780636ac053ad146100ec5761007b565b3661007b57005b600080fd5b34801561008c57600080fd5b506100aa600480360360208110156100a357600080fd5b50356101be565b005b3480156100b857600080fd5b506100aa600480360360208110156100cf57600080fd5b503573ffffffffffffffffffffffffffffffffffffffff1661024c565b3480156100f857600080fd5b506100aa6004803603602081101561010f57600080fd5b503561033b565b34801561012257600080fd5b506100aa61048c565b34801561013757600080fd5b506101406105a3565b6040805173ffffffffffffffffffffffffffffffffffffffff9092168252519081900360200190f35b34801561017557600080fd5b506101406105bf565b34801561018a57600080fd5b506100aa600480360360208110156101a157600080fd5b503573ffffffffffffffffffffffffffffffffffffffff166105db565b600154604080517f2e1a7d4d00000000000000000000000000000000000000000000000000000000815260048101849052905173ffffffffffffffffffffffffffffffffffffffff90921691632e1a7d4d9160248082019260009290919082900301818387803b15801561023157600080fd5b505af1158015610245573d6000803e3d6000fd5b5050505050565b61025461077c565b73ffffffffffffffffffffffffffffffffffffffff166102726105a3565b73ffffffffffffffffffffffffffffffffffffffff16146102f457604080517f08c379a000000000000000000000000000000000000000000000000000000000815260206004820181905260248201527f4f776e61626c653a2063616c6c6572206973206e6f7420746865206f776e6572604482015290519081900360640190fd5b600180547fffffffffffffffffffffffff00000000000000000000000000000000000000001673ffffffffffffffffffffffffffffffffffffffff92909216919091179055565b61034361077c565b73ffffffffffffffffffffffffffffffffffffffff166103616105a3565b73ffffffffffffffffffffffffffffffffffffffff16146103e357604080517f08c379a000000000000000000000000000000000000000000000000000000000815260206004820181905260248201527f4f776e61626c653a2063616c6c6572206973206e6f7420746865206f776e6572604482015290519081900360640190fd5b60015473ffffffffffffffffffffffffffffffffffffffff1663a9059cbb6104096105a3565b836040518363ffffffff1660e01b8152600401808373ffffffffffffffffffffffffffffffffffffffff16815260200182815260200192505050602060405180830381600087803b15801561045d57600080fd5b505af1158015610471573d6000803e3d6000fd5b505050506040513d602081101561048757600080fd5b505050565b61049461077c565b73ffffffffffffffffffffffffffffffffffffffff166104b26105a3565b73ffffffffffffffffffffffffffffffffffffffff161461053457604080517f08c379a000000000000000000000000000000000000000000000000000000000815260206004820181905260248201527f4f776e61626c653a2063616c6c6572206973206e6f7420746865206f776e6572604482015290519081900360640190fd5b6000805460405173ffffffffffffffffffffffffffffffffffffffff909116907f8be0079c531659141344cd1fd0a4f28419497f9722a3daafe3b4186f6b6457e0908390a3600080547fffffffffffffffffffffffff0000000000000000000000000000000000000000169055565b60005473ffffffffffffffffffffffffffffffffffffffff1690565b60015473ffffffffffffffffffffffffffffffffffffffff1681565b6105e361077c565b73ffffffffffffffffffffffffffffffffffffffff166106016105a3565b73ffffffffffffffffffffffffffffffffffffffff161461068357604080517f08c379a000000000000000000000000000000000000000000000000000000000815260206004820181905260248201527f4f776e61626c653a2063616c6c6572206973206e6f7420746865206f776e6572604482015290519081900360640190fd5b73ffffffffffffffffffffffffffffffffffffffff81166106ef576040517f08c379a00000000000000000000000000000000000000000000000000000000081526004018080602001828103825260268152602001806107816026913960400191505060405180910390fd5b6000805460405173ffffffffffffffffffffffffffffffffffffffff808516939216917f8be0079c531659141344cd1fd0a4f28419497f9722a3daafe3b4186f6b6457e091a3600080547fffffffffffffffffffffffff00000000000000000000000000000000000000001673ffffffffffffffffffffffffffffffffffffffff92909216919091179055565b339056fe4f776e61626c653a206e6577206f776e657220697320746865207a65726f2061646472657373a2646970667358221220eb2102cb14621de736b2f455c81a58cdc37e60960cdaca7d2f94cd7d17579f8064736f6c634300060c0033",
  "devdoc": {
    "kind": "dev",
    "methods": {
      "owner()": {
        "details": "Returns the address of the current owner."
      },
      "renounceOwnership()": {
        "details": "Leaves the contract without owner. It will not be possible to call `onlyOwner` functions anymore. Can only be called by the current owner. NOTE: Renouncing ownership will leave the contract without an owner, thereby removing any functionality that is only available to the owner."
      },
      "transferOwnership(address)": {
        "details": "Transfers ownership of the contract to a new account (`newOwner`). Can only be called by the current owner."
      }
    },
    "version": 1
  },
  "userdoc": {
    "kind": "user",
    "methods": {},
    "version": 1
  },
  "storageLayout": {
    "storage": [
      {
        "astId": 3330,
        "contract": "contracts/auxiliary/DummyWeth.sol:DummyWeth",
        "label": "_owner",
        "offset": 0,
        "slot": "0",
        "type": "t_address"
      },
      {
        "astId": 18111,
        "contract": "contracts/auxiliary/DummyWeth.sol:DummyWeth",
        "label": "WETH",
        "offset": 0,
        "slot": "1",
        "type": "t_contract(IWETH9)18107"
      }
    ],
    "types": {
      "t_address": {
        "encoding": "inplace",
        "label": "address",
        "numberOfBytes": "20"
      },
      "t_contract(IWETH9)18107": {
        "encoding": "inplace",
        "label": "contract IWETH9",
        "numberOfBytes": "20"
      }
    }
  }
}