{
  "address": "0xBf180C122D85831dcb55DC673aB47C8aB9BCEFb4",
  "abi": [
    {
      "anonymous": false,
      "inputs": [
        {
          "indexed": true,
          "internalType": "address",
          "name": "previousOwner",
          "type": "address"
        },
        {
          "indexed": true,
          "internalType": "address",
          "name": "newOwner",
          "type": "address"
        }
      ],
      "name": "OwnershipTransferred",
      "type": "event"
    },
    {
      "inputs": [],
      "name": "WETH",
      "outputs": [
        {
          "internalType": "contract IWETH9",
          "name": "",
          "type": "address"
        }
      ],
      "stateMutability": "view",
      "type": "function"
    },
    {
      "inputs": [],
      "name": "initialize",
      "outputs": [],
      "stateMutability": "nonpayable",
      "type": "function"
    },
    {
      "inputs": [],
      "name": "owner",
      "outputs": [
        {
          "internalType": "address",
          "name": "",
          "type": "address"
        }
      ],
      "stateMutability": "view",
      "type": "function"
    },
    {
      "inputs": [],
      "name": "renounceOwnership",
      "outputs": [],
      "stateMutability": "nonpayable",
      "type": "function"
    },
    {
      "inputs": [
        {
          "internalType": "uint256",
          "name": "amount",
          "type": "uint256"
        }
      ],
      "name": "rescue",
      "outputs": [],
      "stateMutability": "nonpayable",
      "type": "function"
    },
    {
      "inputs": [
        {
          "internalType": "address payable",
          "name": "_weth",
          "type": "address"
        }
      ],
      "name": "setWETHAddress",
      "outputs": [],
      "stateMutability": "nonpayable",
      "type": "function"
    },
    {
      "inputs": [
        {
          "internalType": "address",
          "name": "newOwner",
          "type": "address"
        }
      ],
      "name": "transferOwnership",
      "outputs": [],
      "stateMutability": "nonpayable",
      "type": "function"
    },
    {
      "inputs": [
        {
          "internalType": "uint256",
          "name": "amount",
          "type": "uint256"
        }
      ],
      "name": "withdrawToSelf",
      "outputs": [],
      "stateMutability": "nonpayable",
      "type": "function"
    },
    {
      "stateMutability": "payable",
      "type": "receive"
    }
  ],
  "transactionHash": "0xa90cb378969fa86cef453767c12fe969dc3e186ae536cfc1953e5a52d68f1ba5",
  "args": [],
  "solcInputHash": "220d316418e4dbe5eb7ab99d761e4f2e",
  "bytecode": "0x608060405234801561001057600080fd5b50610c27806100206000396000f3fe60806040526004361061007f5760003560e01c80638129fc1c1161004e5780638129fc1c146101365780638da5cb5b1461014b578063ad5c464814610189578063f2fde38b1461019e57610086565b80633847d7eb1461008b5780636a4234eb146100b75780636ac053ad146100f7578063715018a61461012157610086565b3661008657005b600080fd5b34801561009757600080fd5b506100b5600480360360208110156100ae57600080fd5b50356101de565b005b3480156100c357600080fd5b506100b5600480360360208110156100da57600080fd5b503573ffffffffffffffffffffffffffffffffffffffff1661026c565b34801561010357600080fd5b506100b56004803603602081101561011a57600080fd5b503561035b565b34801561012d57600080fd5b506100b56104ac565b34801561014257600080fd5b506100b56105c3565b34801561015757600080fd5b506101606106a5565b6040805173ffffffffffffffffffffffffffffffffffffffff9092168252519081900360200190f35b34801561019557600080fd5b506101606106c1565b3480156101aa57600080fd5b506100b5600480360360208110156101c157600080fd5b503573ffffffffffffffffffffffffffffffffffffffff166106dd565b606554604080517f2e1a7d4d00000000000000000000000000000000000000000000000000000000815260048101849052905173ffffffffffffffffffffffffffffffffffffffff90921691632e1a7d4d9160248082019260009290919082900301818387803b15801561025157600080fd5b505af1158015610265573d6000803e3d6000fd5b5050505050565b61027461087f565b73ffffffffffffffffffffffffffffffffffffffff166102926106a5565b73ffffffffffffffffffffffffffffffffffffffff161461031457604080517f08c379a000000000000000000000000000000000000000000000000000000000815260206004820181905260248201527f4f776e61626c653a2063616c6c6572206973206e6f7420746865206f776e6572604482015290519081900360640190fd5b606580547fffffffffffffffffffffffff00000000000000000000000000000000000000001673ffffffffffffffffffffffffffffffffffffffff92909216919091179055565b61036361087f565b73ffffffffffffffffffffffffffffffffffffffff166103816106a5565b73ffffffffffffffffffffffffffffffffffffffff161461040357604080517f08c379a000000000000000000000000000000000000000000000000000000000815260206004820181905260248201527f4f776e61626c653a2063616c6c6572206973206e6f7420746865206f776e6572604482015290519081900360640190fd5b60655473ffffffffffffffffffffffffffffffffffffffff1663a9059cbb6104296106a5565b836040518363ffffffff1660e01b8152600401808373ffffffffffffffffffffffffffffffffffffffff16815260200182815260200192505050602060405180830381600087803b15801561047d57600080fd5b505af1158015610491573d6000803e3d6000fd5b505050506040513d60208110156104a757600080fd5b505050565b6104b461087f565b73ffffffffffffffffffffffffffffffffffffffff166104d26106a5565b73ffffffffffffffffffffffffffffffffffffffff161461055457604080517f08c379a000000000000000000000000000000000000000000000000000000000815260206004820181905260248201527f4f776e61626c653a2063616c6c6572206973206e6f7420746865206f776e6572604482015290519081900360640190fd5b60335460405160009173ffffffffffffffffffffffffffffffffffffffff16907f8be0079c531659141344cd1fd0a4f28419497f9722a3daafe3b4186f6b6457e0908390a3603380547fffffffffffffffffffffffff0000000000000000000000000000000000000000169055565b600054610100900460ff16806105dc57506105dc610883565b806105ea575060005460ff16155b61063f576040517f08c379a000000000000000000000000000000000000000000000000000000000815260040180806020018281038252602e815260200180610bc4602e913960400191505060405180910390fd5b600054610100900460ff1615801561068857600080547fffffffffffffffffffffffffffffffffffffffffffffffffffffffffffffff0061ff0019909116610100171660011790555b610690610894565b80156106a2576000805461ff00191690555b50565b60335473ffffffffffffffffffffffffffffffffffffffff1690565b60655473ffffffffffffffffffffffffffffffffffffffff1681565b6106e561087f565b73ffffffffffffffffffffffffffffffffffffffff166107036106a5565b73ffffffffffffffffffffffffffffffffffffffff161461078557604080517f08c379a000000000000000000000000000000000000000000000000000000000815260206004820181905260248201527f4f776e61626c653a2063616c6c6572206973206e6f7420746865206f776e6572604482015290519081900360640190fd5b73ffffffffffffffffffffffffffffffffffffffff81166107f1576040517f08c379a0000000000000000000000000000000000000000000000000000000008152600401808060200182810382526026815260200180610b9e6026913960400191505060405180910390fd5b60335460405173ffffffffffffffffffffffffffffffffffffffff8084169216907f8be0079c531659141344cd1fd0a4f28419497f9722a3daafe3b4186f6b6457e090600090a3603380547fffffffffffffffffffffffff00000000000000000000000000000000000000001673ffffffffffffffffffffffffffffffffffffffff92909216919091179055565b3390565b600061088e30610969565b15905090565b600054610100900460ff16806108ad57506108ad610883565b806108bb575060005460ff16155b610910576040517f08c379a000000000000000000000000000000000000000000000000000000000815260040180806020018281038252602e815260200180610bc4602e913960400191505060405180910390fd5b600054610100900460ff1615801561095957600080547fffffffffffffffffffffffffffffffffffffffffffffffffffffffffffffff0061ff0019909116610100171660011790555b61096161096f565b610690610a47565b3b151590565b600054610100900460ff16806109885750610988610883565b80610996575060005460ff16155b6109eb576040517f08c379a000000000000000000000000000000000000000000000000000000000815260040180806020018281038252602e815260200180610bc4602e913960400191505060405180910390fd5b600054610100900460ff1615801561069057600080547fffffffffffffffffffffffffffffffffffffffffffffffffffffffffffffff0061ff00199091166101001716600117905580156106a2576000805461ff001916905550565b600054610100900460ff1680610a605750610a60610883565b80610a6e575060005460ff16155b610ac3576040517f08c379a000000000000000000000000000000000000000000000000000000000815260040180806020018281038252602e815260200180610bc4602e913960400191505060405180910390fd5b600054610100900460ff16158015610b0c57600080547fffffffffffffffffffffffffffffffffffffffffffffffffffffffffffffff0061ff0019909116610100171660011790555b6000610b1661087f565b603380547fffffffffffffffffffffffff00000000000000000000000000000000000000001673ffffffffffffffffffffffffffffffffffffffff8316908117909155604051919250906000907f8be0079c531659141344cd1fd0a4f28419497f9722a3daafe3b4186f6b6457e0908290a35080156106a2576000805461ff00191690555056fe4f776e61626c653a206e6577206f776e657220697320746865207a65726f2061646472657373496e697469616c697a61626c653a20636f6e747261637420697320616c726561647920696e697469616c697a6564a26469706673582212200ca58c99f1533bba907ae6443b132cb867b465c15b69b3ce694be0c81e1611be64736f6c634300060c0033",
  "devdoc": {
    "kind": "dev",
    "methods": {
      "owner()": {
        "details": "Returns the address of the current owner."
      },
      "renounceOwnership()": {
        "details": "Leaves the contract without owner. It will not be possible to call `onlyOwner` functions anymore. Can only be called by the current owner. NOTE: Renouncing ownership will leave the contract without an owner, thereby removing any functionality that is only available to the owner."
      },
      "transferOwnership(address)": {
        "details": "Transfers ownership of the contract to a new account (`newOwner`). Can only be called by the current owner."
      }
    },
    "version": 1
  },
  "userdoc": {
    "kind": "user",
    "methods": {},
    "version": 1
  },
  "storageLayout": {
    "storage": [
      {
        "astId": 1286,
        "contract": "contracts/auxiliary/DummyWethProxy.sol:DummyWethProxy",
        "label": "_initialized",
        "offset": 0,
        "slot": "0",
        "type": "t_bool"
      },
      {
        "astId": 1289,
        "contract": "contracts/auxiliary/DummyWethProxy.sol:DummyWethProxy",
        "label": "_initializing",
        "offset": 1,
        "slot": "0",
        "type": "t_bool"
      },
      {
        "astId": 2325,
        "contract": "contracts/auxiliary/DummyWethProxy.sol:DummyWethProxy",
        "label": "__gap",
        "offset": 0,
        "slot": "1",
        "type": "t_array(t_uint256)50_storage"
      },
      {
        "astId": 318,
        "contract": "contracts/auxiliary/DummyWethProxy.sol:DummyWethProxy",
        "label": "_owner",
        "offset": 0,
        "slot": "51",
        "type": "t_address"
      },
      {
        "astId": 437,
        "contract": "contracts/auxiliary/DummyWethProxy.sol:DummyWethProxy",
        "label": "__gap",
        "offset": 0,
        "slot": "52",
        "type": "t_array(t_uint256)49_storage"
      },
      {
        "astId": 18254,
        "contract": "contracts/auxiliary/DummyWethProxy.sol:DummyWethProxy",
        "label": "WETH",
        "offset": 0,
        "slot": "101",
        "type": "t_contract(IWETH9)18239"
      }
    ],
    "types": {
      "t_address": {
        "encoding": "inplace",
        "label": "address",
        "numberOfBytes": "20"
      },
      "t_array(t_uint256)49_storage": {
        "base": "t_uint256",
        "encoding": "inplace",
        "label": "uint256[49]",
        "numberOfBytes": "1568"
      },
      "t_array(t_uint256)50_storage": {
        "base": "t_uint256",
        "encoding": "inplace",
        "label": "uint256[50]",
        "numberOfBytes": "1600"
      },
      "t_bool": {
        "encoding": "inplace",
        "label": "bool",
        "numberOfBytes": "1"
      },
      "t_contract(IWETH9)18239": {
        "encoding": "inplace",
        "label": "contract IWETH9",
        "numberOfBytes": "20"
      },
      "t_uint256": {
        "encoding": "inplace",
        "label": "uint256",
        "numberOfBytes": "32"
      }
    }
  }
}