{
  "address": "0x8c7d5f8A8e154e1B59C92D8FB71314A43F32ef7B",
  "abi": [
    {
      "inputs": [
        {
          "internalType": "address payable",
          "name": "wethAddress",
          "type": "address"
        },
        {
          "internalType": "contract Swap",
          "name": "swap",
          "type": "address"
        },
        {
          "internalType": "address",
          "name": "owner",
          "type": "address"
        }
      ],
      "stateMutability": "nonpayable",
      "type": "constructor"
    },
    {
      "inputs": [],
      "name": "LP_TOKEN",
      "outputs": [
        {
          "internalType": "contract LPToken",
          "name": "",
          "type": "address"
        }
      ],
      "stateMutability": "view",
      "type": "function"
    },
    {
      "inputs": [],
      "name": "OWNER",
      "outputs": [
        {
          "internalType": "address",
          "name": "",
          "type": "address"
        }
      ],
      "stateMutability": "view",
      "type": "function"
    },
    {
      "inputs": [],
      "name": "SWAP",
      "outputs": [
        {
          "internalType": "contract Swap",
          "name": "",
          "type": "address"
        }
      ],
      "stateMutability": "view",
      "type": "function"
    },
    {
      "inputs": [],
      "name": "WETH_ADDRESS",
      "outputs": [
        {
          "internalType": "address payable",
          "name": "",
          "type": "address"
        }
      ],
      "stateMutability": "view",
      "type": "function"
    },
    {
      "inputs": [],
      "name": "WETH_INDEX",
      "outputs": [
        {
          "internalType": "uint8",
          "name": "",
          "type": "uint8"
        }
      ],
      "stateMutability": "view",
      "type": "function"
    },
    {
      "inputs": [
        {
          "internalType": "uint256[]",
          "name": "amounts",
          "type": "uint256[]"
        },
        {
          "internalType": "uint256",
          "name": "minToMint",
          "type": "uint256"
        },
        {
          "internalType": "uint256",
          "name": "deadline",
          "type": "uint256"
        }
      ],
      "name": "addLiquidity",
      "outputs": [
        {
          "internalType": "uint256",
          "name": "",
          "type": "uint256"
        }
      ],
      "stateMutability": "payable",
      "type": "function"
    },
    {
      "inputs": [
        {
          "internalType": "uint256",
          "name": "amount",
          "type": "uint256"
        }
      ],
      "name": "calculateRemoveLiquidity",
      "outputs": [
        {
          "internalType": "uint256[]",
          "name": "",
          "type": "uint256[]"
        }
      ],
      "stateMutability": "view",
      "type": "function"
    },
    {
      "inputs": [
        {
          "internalType": "uint256",
          "name": "tokenAmount",
          "type": "uint256"
        },
        {
          "internalType": "uint8",
          "name": "tokenIndex",
          "type": "uint8"
        }
      ],
      "name": "calculateRemoveLiquidityOneToken",
      "outputs": [
        {
          "internalType": "uint256",
          "name": "availableTokenAmount",
          "type": "uint256"
        }
      ],
      "stateMutability": "view",
      "type": "function"
    },
    {
      "inputs": [
        {
          "internalType": "uint256[]",
          "name": "amounts",
          "type": "uint256[]"
        },
        {
          "internalType": "bool",
          "name": "deposit",
          "type": "bool"
        }
      ],
      "name": "calculateTokenAmount",
      "outputs": [
        {
          "internalType": "uint256",
          "name": "",
          "type": "uint256"
        }
      ],
      "stateMutability": "view",
      "type": "function"
    },
    {
      "inputs": [
        {
          "internalType": "uint256",
          "name": "",
          "type": "uint256"
        }
      ],
      "name": "pooledTokens",
      "outputs": [
        {
          "internalType": "contract IERC20",
          "name": "",
          "type": "address"
        }
      ],
      "stateMutability": "view",
      "type": "function"
    },
    {
      "inputs": [
        {
          "internalType": "uint256",
          "name": "amount",
          "type": "uint256"
        },
        {
          "internalType": "uint256[]",
          "name": "minAmounts",
          "type": "uint256[]"
        },
        {
          "internalType": "uint256",
          "name": "deadline",
          "type": "uint256"
        }
      ],
      "name": "removeLiquidity",
      "outputs": [
        {
          "internalType": "uint256[]",
          "name": "",
          "type": "uint256[]"
        }
      ],
      "stateMutability": "nonpayable",
      "type": "function"
    },
    {
      "inputs": [
        {
          "internalType": "uint256[]",
          "name": "amounts",
          "type": "uint256[]"
        },
        {
          "internalType": "uint256",
          "name": "maxBurnAmount",
          "type": "uint256"
        },
        {
          "internalType": "uint256",
          "name": "deadline",
          "type": "uint256"
        }
      ],
      "name": "removeLiquidityImbalance",
      "outputs": [
        {
          "internalType": "uint256",
          "name": "",
          "type": "uint256"
        }
      ],
      "stateMutability": "nonpayable",
      "type": "function"
    },
    {
      "inputs": [
        {
          "internalType": "uint256",
          "name": "tokenAmount",
          "type": "uint256"
        },
        {
          "internalType": "uint8",
          "name": "tokenIndex",
          "type": "uint8"
        },
        {
          "internalType": "uint256",
          "name": "minAmount",
          "type": "uint256"
        },
        {
          "internalType": "uint256",
          "name": "deadline",
          "type": "uint256"
        }
      ],
      "name": "removeLiquidityOneToken",
      "outputs": [
        {
          "internalType": "uint256",
          "name": "",
          "type": "uint256"
        }
      ],
      "stateMutability": "nonpayable",
      "type": "function"
    },
    {
      "inputs": [],
      "name": "rescue",
      "outputs": [],
      "stateMutability": "nonpayable",
      "type": "function"
    },
    {
      "inputs": [
        {
          "internalType": "uint8",
          "name": "tokenIndexFrom",
          "type": "uint8"
        },
        {
          "internalType": "uint8",
          "name": "tokenIndexTo",
          "type": "uint8"
        },
        {
          "internalType": "uint256",
          "name": "dx",
          "type": "uint256"
        },
        {
          "internalType": "uint256",
          "name": "minDy",
          "type": "uint256"
        },
        {
          "internalType": "uint256",
          "name": "deadline",
          "type": "uint256"
        }
      ],
      "name": "swap",
      "outputs": [
        {
          "internalType": "uint256",
          "name": "",
          "type": "uint256"
        }
      ],
      "stateMutability": "payable",
      "type": "function"
    },
    {
      "stateMutability": "payable",
      "type": "receive"
    }
  ],
  "transactionHash": "0xc073acd7bb2982ed578c0c9ab64e6e1a0462a43aefc17fe4e86bc7e08c6cb16c",
  "args": [
    "0x121ab82b49B2BC4c7901CA46B8277962b4350204",
    "0xE27BFf97CE92C3e1Ff7AA9f86781FDd6D48F5eE9",
    "0x2431CBdc0792F5485c4cb0a9bEf06C4f21541D52"
  ],
  "solcInputHash": "108b75f9b78ef8ef1e4f5166a1fea50e",
  "bytecode": "0x6101206040523480156200001257600080fd5b50604051620025b9380380620025b9833981810160405260608110156200003857600080fd5b50805160208201516040928301518351635fd65f0f60e01b815293519293919290916000916001600160a01b03851691635fd65f0f9160048083019260e0929190829003018186803b1580156200008e57600080fd5b505afa158015620000a3573d6000803e3d6000fd5b505050506040513d60e0811015620000ba57600080fd5b5060c00151905060ff60005b60ff81811610156200023857846001600160a01b03166382b86600826040518263ffffffff1660e01b8152600401808260ff16815260200191505060206040518083038186803b1580156200011a57600080fd5b505afa9250505080156200014157506040513d60208110156200013c57600080fd5b505160015b6200014c5762000238565b600080546001810182559080527f290decd9548b62a8d60345a988386fc84ba6bc95484008f6362f93160ef3e5630180546001600160a01b0319166001600160a01b038381169182179092559088161415620001a6578192505b806001600160a01b031663095ea7b3876000196040518363ffffffff1660e01b815260040180836001600160a01b0316815260200182815260200192505050602060405180830381600087803b1580156200020057600080fd5b505af115801562000215573d6000803e3d6000fd5b505050506040513d60208110156200022c57600080fd5b505050600101620000c6565b5060ff81811614156200027d5760405162461bcd60e51b8152600401808060200182810382526023815260200180620025966023913960400191505060405180910390fd5b7fff0000000000000000000000000000000000000000000000000000000000000060f882901b16610100526001600160601b0319606086811b821660c05285811b821660805283811b821660a05284901b1660e0526040805163095ea7b360e01b81526001600160a01b038681166004830152600019602483015291519184169163095ea7b3916044808201926020929091908290030181600087803b1580156200032757600080fd5b505af11580156200033c573d6000803e3d6000fd5b505050506040513d60208110156200035357600080fd5b5050505050505060805160601c60a05160601c60c05160601c60e05160601c6101005160f81c6121616200043560003980610b105280610eb95280611035528061116a52806114565280611671528061186e52806119ea52508061059352806105cd52508061054b5280610b8d5280610f0152806110c452806114a9528061170d52806118b65250806107a9528061093d5280610dd152806112f2528061133f52806116465280611a4252508061056f52806109695280610d085280610dfd52806111eb528061136b52806117f65280611a685280611b6652506121616000f3fe6080604052600436106100ec5760003560e01c80634d49e87d1161008a57806397fe9d801161005957806397fe9d8014610461578063bfd9041b1461048b578063e6ab2806146104a0578063f2fad2b61461051f576100f3565b80634d49e87d146102cf57806384cdd9bc1461037757806391695586146103fa5780639199c72214610436576100f3565b80631fbe1979116100c65780631fbe19791461016057806331cd52b014610177578063342a87a11461024b5780633e3a156014610290576100f3565b8063040141e5146100f857806304d8410814610136578063117803e31461014b576100f3565b366100f357005b600080fd5b34801561010457600080fd5b5061010d610549565b6040805173ffffffffffffffffffffffffffffffffffffffff9092168252519081900360200190f35b34801561014257600080fd5b5061010d61056d565b34801561015757600080fd5b5061010d610591565b34801561016c57600080fd5b506101756105b5565b005b34801561018357600080fd5b506101fb6004803603606081101561019a57600080fd5b813591908101906040810160208201356401000000008111156101bc57600080fd5b8201836020820111156101ce57600080fd5b803590602001918460208302840111640100000000831117156101f057600080fd5b919350915035610921565b60408051602080825283518183015283519192839290830191858101910280838360005b8381101561023757818101518382015260200161021f565b505050509050019250505060405180910390f35b34801561025757600080fd5b5061027e6004803603604081101561026e57600080fd5b508035906020013560ff16610d04565b60408051918252519081900360200190f35b34801561029c57600080fd5b5061027e600480360360808110156102b357600080fd5b5080359060ff6020820135169060408101359060600135610db5565b61027e600480360360608110156102e557600080fd5b81019060208101813564010000000081111561030057600080fd5b82018360208201111561031257600080fd5b8035906020019184602083028401116401000000008311171561033457600080fd5b9190808060200260200160405190810160405280939291908181526020018383602002808284376000920191909152509295505082359350505060200135611030565b34801561038357600080fd5b5061027e6004803603606081101561039a57600080fd5b8101906020810181356401000000008111156103b557600080fd5b8201836020820111156103c757600080fd5b803590602001918460208302840111640100000000831117156103e957600080fd5b919350915080359060200135611323565b61027e600480360360a081101561041057600080fd5b5060ff81358116916020810135909116906040810135906060810135906080013561166d565b34801561044257600080fd5b5061044b6119e8565b6040805160ff9092168252519081900360200190f35b34801561046d57600080fd5b5061010d6004803603602081101561048457600080fd5b5035611a0c565b34801561049757600080fd5b5061010d611a40565b3480156104ac57600080fd5b5061027e600480360360408110156104c357600080fd5b8101906020810181356401000000008111156104de57600080fd5b8201836020820111156104f057600080fd5b8035906020019184602083028401116401000000008311171561051257600080fd5b9193509150351515611a64565b34801561052b57600080fd5b506101fb6004803603602081101561054257600080fd5b5035611b62565b7f000000000000000000000000000000000000000000000000000000000000000081565b7f000000000000000000000000000000000000000000000000000000000000000081565b7f000000000000000000000000000000000000000000000000000000000000000081565b3373ffffffffffffffffffffffffffffffffffffffff7f0000000000000000000000000000000000000000000000000000000000000000161461063f576040805162461bcd60e51b815260206004820152601360248201527f43414c4c45445f42595f4e4f4e5f4f574e455200000000000000000000000000604482015290519081900360640190fd5b606060008054806020026020016040519081016040528092919081815260200182805480156106a457602002820191906000526020600020905b815473ffffffffffffffffffffffffffffffffffffffff168152600190910190602001808311610679575b5050505050905060005b81518110156107a45761079c338383815181106106c757fe5b602002602001015173ffffffffffffffffffffffffffffffffffffffff166370a08231306040518263ffffffff1660e01b8152600401808273ffffffffffffffffffffffffffffffffffffffff16815260200191505060206040518083038186803b15801561073557600080fd5b505afa158015610749573d6000803e3d6000fd5b505050506040513d602081101561075f57600080fd5b5051845185908590811061076f57fe5b602002602001015173ffffffffffffffffffffffffffffffffffffffff16611cc39092919063ffffffff16565b6001016106ae565b5060007f0000000000000000000000000000000000000000000000000000000000000000905061087f338273ffffffffffffffffffffffffffffffffffffffff166370a08231306040518263ffffffff1660e01b8152600401808273ffffffffffffffffffffffffffffffffffffffff16815260200191505060206040518083038186803b15801561083557600080fd5b505afa158015610849573d6000803e3d6000fd5b505050506040513d602081101561085f57600080fd5b505173ffffffffffffffffffffffffffffffffffffffff84169190611cc3565b604051600090339047908381818185875af1925050503d80600081146108c1576040519150601f19603f3d011682016040523d82523d6000602084013e6108c6565b606091505b505090508061091c576040805162461bcd60e51b815260206004820152601360248201527f4554485f5452414e534645525f4641494c454400000000000000000000000000604482015290519081900360640190fd5b505050565b606061096573ffffffffffffffffffffffffffffffffffffffff7f000000000000000000000000000000000000000000000000000000000000000016333088611d50565b60607f000000000000000000000000000000000000000000000000000000000000000073ffffffffffffffffffffffffffffffffffffffff166331cd52b0878787876040518563ffffffff1660e01b815260040180858152602001806020018381526020018281038252858582818152602001925060200280828437600081840152601f19601f82011690508083019250505095505050505050600060405180830381600087803b158015610a1957600080fd5b505af1158015610a2d573d6000803e3d6000fd5b505050506040513d6000823e601f3d9081017fffffffffffffffffffffffffffffffffffffffffffffffffffffffffffffffe01682016040526020811015610a7457600080fd5b8101908080516040519392919084640100000000821115610a9457600080fd5b908301906020820185811115610aa957600080fd5b8251866020820283011164010000000082111715610ac657600080fd5b82525081516020918201928201910280838360005b83811015610af3578181015183820152602001610adb565b50505050905001604052505050905060005b8151811015610cfa577f000000000000000000000000000000000000000000000000000000000000000060ff168114610b8b57610b8633838381518110610b4857fe5b602002602001015160008481548110610b5d57fe5b60009182526020909120015473ffffffffffffffffffffffffffffffffffffffff169190611cc3565b610cf2565b7f000000000000000000000000000000000000000000000000000000000000000073ffffffffffffffffffffffffffffffffffffffff16632e1a7d4d838381518110610bd357fe5b60200260200101516040518263ffffffff1660e01b815260040180828152602001915050600060405180830381600087803b158015610c1157600080fd5b505af1158015610c25573d6000803e3d6000fd5b5050505060003373ffffffffffffffffffffffffffffffffffffffff16838381518110610c4e57fe5b6020908102919091010151604051600081818185875af1925050503d8060008114610c95576040519150601f19603f3d011682016040523d82523d6000602084013e610c9a565b606091505b5050905080610cf0576040805162461bcd60e51b815260206004820152601360248201527f4554485f5452414e534645525f4641494c454400000000000000000000000000604482015290519081900360640190fd5b505b600101610b05565b5095945050505050565b60007f000000000000000000000000000000000000000000000000000000000000000073ffffffffffffffffffffffffffffffffffffffff1663342a87a184846040518363ffffffff1660e01b8152600401808381526020018260ff1681526020019250505060206040518083038186803b158015610d8257600080fd5b505afa158015610d96573d6000803e3d6000fd5b505050506040513d6020811015610dac57600080fd5b50519392505050565b6000610df973ffffffffffffffffffffffffffffffffffffffff7f000000000000000000000000000000000000000000000000000000000000000016333088611d50565b60007f000000000000000000000000000000000000000000000000000000000000000073ffffffffffffffffffffffffffffffffffffffff16633e3a1560878787876040518563ffffffff1660e01b8152600401808581526020018460ff168152602001838152602001828152602001945050505050602060405180830381600087803b158015610e8957600080fd5b505af1158015610e9d573d6000803e3d6000fd5b505050506040513d6020811015610eb357600080fd5b505190507f000000000000000000000000000000000000000000000000000000000000000060ff90811690861614610eff57610efa338260008860ff1681548110610b5d57fe5b611027565b7f000000000000000000000000000000000000000000000000000000000000000073ffffffffffffffffffffffffffffffffffffffff16632e1a7d4d826040518263ffffffff1660e01b815260040180828152602001915050600060405180830381600087803b158015610f7257600080fd5b505af1158015610f86573d6000803e3d6000fd5b50506040516000925033915083908381818185875af1925050503d8060008114610fcc576040519150601f19603f3d011682016040523d82523d6000602084013e610fd1565b606091505b5050905080610cfa576040805162461bcd60e51b815260206004820152601360248201527f4554485f5452414e534645525f4641494c454400000000000000000000000000604482015290519081900360640190fd5b95945050505050565b6000837f000000000000000000000000000000000000000000000000000000000000000060ff168151811061106157fe5b602002602001015134146110bc576040805162461bcd60e51b815260206004820152601360248201527f494e434f52524543545f4d53475f56414c554500000000000000000000000000604482015290519081900360640190fd5b3415611144577f000000000000000000000000000000000000000000000000000000000000000073ffffffffffffffffffffffffffffffffffffffff1663d0e30db0346040518263ffffffff1660e01b81526004016000604051808303818588803b15801561112a57600080fd5b505af115801561113e573d6000803e3d6000fd5b50505050505b60005b84518110156111e657600085828151811061115e57fe5b602002602001015190507f000000000000000000000000000000000000000000000000000000000000000060ff16821415801561119b5750600081115b156111dd576111dd333083600086815481106111b357fe5b60009182526020909120015473ffffffffffffffffffffffffffffffffffffffff16929190611d50565b50600101611147565b5060007f000000000000000000000000000000000000000000000000000000000000000073ffffffffffffffffffffffffffffffffffffffff16634d49e87d8686866040518463ffffffff1660e01b81526004018080602001848152602001838152602001828103825285818151815260200191508051906020019060200280838360005b8381101561128357818101518382015260200161126b565b50505050905001945050505050602060405180830381600087803b1580156112aa57600080fd5b505af11580156112be573d6000803e3d6000fd5b505050506040513d60208110156112d457600080fd5b5051905061131973ffffffffffffffffffffffffffffffffffffffff7f0000000000000000000000000000000000000000000000000000000000000000163383611cc3565b90505b9392505050565b600061136773ffffffffffffffffffffffffffffffffffffffff7f000000000000000000000000000000000000000000000000000000000000000016333086611d50565b60007f000000000000000000000000000000000000000000000000000000000000000073ffffffffffffffffffffffffffffffffffffffff166384cdd9bc878787876040518563ffffffff1660e01b815260040180806020018481526020018381526020018281038252868682818152602001925060200280828437600081840152601f19601f82011690508083019250505095505050505050602060405180830381600087803b15801561141b57600080fd5b505af115801561142f573d6000803e3d6000fd5b505050506040513d602081101561144557600080fd5b5051905060005b85811015611617577f000000000000000000000000000000000000000000000000000000000000000060ff1681146114a7576114a23388888481811061148e57fe5b9050602002013560008481548110610b5d57fe5b61160f565b7f000000000000000000000000000000000000000000000000000000000000000073ffffffffffffffffffffffffffffffffffffffff16632e1a7d4d8888848181106114ef57fe5b905060200201356040518263ffffffff1660e01b815260040180828152602001915050600060405180830381600087803b15801561152c57600080fd5b505af1158015611540573d6000803e3d6000fd5b5050505060003373ffffffffffffffffffffffffffffffffffffffff1688888481811061156957fe5b60405160209091029290920135919050600081818185875af1925050503d80600081146115b2576040519150601f19603f3d011682016040523d82523d6000602084013e6115b7565b606091505b505090508061160d576040805162461bcd60e51b815260206004820152601360248201527f4554485f5452414e534645525f4641494c454400000000000000000000000000604482015290519081900360640190fd5b505b60010161144c565b5060006116248583611deb565b90508015610cfa57610cfa73ffffffffffffffffffffffffffffffffffffffff7f0000000000000000000000000000000000000000000000000000000000000000163383611cc3565b60007f000000000000000000000000000000000000000000000000000000000000000060ff168660ff16146116b7576116b233308660008a60ff16815481106111b357fe5b61178d565b83341461170b576040805162461bcd60e51b815260206004820152601360248201527f494e434f52524543545f4d53475f56414c554500000000000000000000000000604482015290519081900360640190fd5b7f000000000000000000000000000000000000000000000000000000000000000073ffffffffffffffffffffffffffffffffffffffff1663d0e30db0346040518263ffffffff1660e01b81526004016000604051808303818588803b15801561177357600080fd5b505af1158015611787573d6000803e3d6000fd5b50505050505b604080517f9169558600000000000000000000000000000000000000000000000000000000815260ff808916600483015287166024820152604481018690526064810185905260848101849052905160009173ffffffffffffffffffffffffffffffffffffffff7f0000000000000000000000000000000000000000000000000000000000000000169163916955869160a48082019260209290919082900301818787803b15801561183e57600080fd5b505af1158015611852573d6000803e3d6000fd5b505050506040513d602081101561186857600080fd5b505190507f000000000000000000000000000000000000000000000000000000000000000060ff908116908716146118b4576118af338260008960ff1681548110610b5d57fe5b6119de565b7f000000000000000000000000000000000000000000000000000000000000000073ffffffffffffffffffffffffffffffffffffffff16632e1a7d4d826040518263ffffffff1660e01b815260040180828152602001915050600060405180830381600087803b15801561192757600080fd5b505af115801561193b573d6000803e3d6000fd5b50506040516000925033915083908381818185875af1925050503d8060008114611981576040519150601f19603f3d011682016040523d82523d6000602084013e611986565b606091505b50509050806119dc576040805162461bcd60e51b815260206004820152601360248201527f4554485f5452414e534645525f4641494c454400000000000000000000000000604482015290519081900360640190fd5b505b9695505050505050565b7f000000000000000000000000000000000000000000000000000000000000000081565b60008181548110611a1957fe5b60009182526020909120015473ffffffffffffffffffffffffffffffffffffffff16905081565b7f000000000000000000000000000000000000000000000000000000000000000081565b60007f000000000000000000000000000000000000000000000000000000000000000073ffffffffffffffffffffffffffffffffffffffff1663e6ab28068585856040518463ffffffff1660e01b8152600401808060200183151581526020018281038252858582818152602001925060200280828437600083820152604051601f9091017fffffffffffffffffffffffffffffffffffffffffffffffffffffffffffffffe016909201965060209550909350505081840390508186803b158015611b2e57600080fd5b505afa158015611b42573d6000803e3d6000fd5b505050506040513d6020811015611b5857600080fd5b5051949350505050565b60607f000000000000000000000000000000000000000000000000000000000000000073ffffffffffffffffffffffffffffffffffffffff1663f2fad2b6836040518263ffffffff1660e01b81526004018082815260200191505060006040518083038186803b158015611bd557600080fd5b505afa158015611be9573d6000803e3d6000fd5b505050506040513d6000823e601f3d9081017fffffffffffffffffffffffffffffffffffffffffffffffffffffffffffffffe01682016040526020811015611c3057600080fd5b8101908080516040519392919084640100000000821115611c5057600080fd5b908301906020820185811115611c6557600080fd5b8251866020820283011164010000000082111715611c8257600080fd5b82525081516020918201928201910280838360005b83811015611caf578181015183820152602001611c97565b505050509050016040525050509050919050565b6040805173ffffffffffffffffffffffffffffffffffffffff8416602482015260448082018490528251808303909101815260649091019091526020810180517bffffffffffffffffffffffffffffffffffffffffffffffffffffffff167fa9059cbb0000000000000000000000000000000000000000000000000000000017905261091c908490611e48565b6040805173ffffffffffffffffffffffffffffffffffffffff80861660248301528416604482015260648082018490528251808303909101815260849091019091526020810180517bffffffffffffffffffffffffffffffffffffffffffffffffffffffff167f23b872dd00000000000000000000000000000000000000000000000000000000179052611de5908590611e48565b50505050565b600082821115611e42576040805162461bcd60e51b815260206004820152601e60248201527f536166654d6174683a207375627472616374696f6e206f766572666c6f770000604482015290519081900360640190fd5b50900390565b6060611eaa826040518060400160405280602081526020017f5361666545524332303a206c6f772d6c6576656c2063616c6c206661696c65648152508573ffffffffffffffffffffffffffffffffffffffff16611f069092919063ffffffff16565b80519091501561091c57808060200190516020811015611ec957600080fd5b505161091c5760405162461bcd60e51b815260040180806020018281038252602a815260200180612102602a913960400191505060405180910390fd5b6060611319848460008585611f1a85612057565b611f6b576040805162461bcd60e51b815260206004820152601d60248201527f416464726573733a2063616c6c20746f206e6f6e2d636f6e7472616374000000604482015290519081900360640190fd5b600060608673ffffffffffffffffffffffffffffffffffffffff1685876040518082805190602001908083835b60208310611fd557805182527fffffffffffffffffffffffffffffffffffffffffffffffffffffffffffffffe09092019160209182019101611f98565b6001836020036101000a03801982511681845116808217855250505050505090500191505060006040518083038185875af1925050503d8060008114612037576040519150601f19603f3d011682016040523d82523d6000602084013e61203c565b606091505b509150915061204c82828661205d565b979650505050505050565b3b151590565b6060831561206c57508161131c565b82511561207c5782518084602001fd5b8160405162461bcd60e51b81526004018080602001828103825283818151815260200191508051906020019080838360005b838110156120c65781810151838201526020016120ae565b50505050905090810190601f1680156120f35780820380516001836020036101000a031916815260200191505b509250505060405180910390fdfe5361666545524332303a204552433230206f7065726174696f6e20646964206e6f742073756363656564a264697066735822122099223ace14a09a694691ba7425cba9f1f8c1558c093cd7e3cad6c2d66ef0ba0064736f6c634300060c00335745544820776173206e6f7420666f756e6420696e20746865207377617020706f6f6c",
  "devdoc": {
    "author": "Jongseung Lim (@weeb_mcgee)",
    "kind": "dev",
    "methods": {
      "addLiquidity(uint256[],uint256,uint256)": {
        "details": "The msg.value of this call should match the value in amounts array in position of WETH9.",
        "params": {
          "amounts": "the amounts of each token to add, in their native precision",
          "deadline": "latest timestamp to accept this transaction",
          "minToMint": "the minimum LP tokens adding this amount of liquidity should mint, otherwise revert. Handy for front-running mitigation"
        },
        "returns": {
          "_0": "amount of LP token user minted and received"
        }
      },
      "calculateRemoveLiquidity(uint256)": {
        "params": {
          "amount": "the amount of LP tokens that would be burned on withdrawal"
        },
        "returns": {
          "_0": "array of token balances that the user will receive"
        }
      },
      "calculateRemoveLiquidityOneToken(uint256,uint8)": {
        "params": {
          "tokenAmount": "the amount of LP token to burn",
          "tokenIndex": "index of which token will be withdrawn"
        },
        "returns": {
          "availableTokenAmount": "calculated amount of underlying token available to withdraw"
        }
      },
      "calculateTokenAmount(uint256[],bool)": {
        "details": "This shouldn't be used outside frontends for user estimates.",
        "params": {
          "amounts": "an array of token amounts to deposit or withdrawal, corresponding to pooledTokens. The amount should be in each pooled token's native precision. If a token charges a fee on transfers, use the amount that gets transferred after the fee.",
          "deposit": "whether this is a deposit or a withdrawal"
        },
        "returns": {
          "_0": "token amount the user will receive"
        }
      },
      "constructor": {
        "params": {
          "owner": "address that will be allowed to call `rescue()`",
          "swap": "address to the Swap contract that has WETH9 as one of the tokens",
          "wethAddress": "address to the WETH9 contract"
        }
      },
      "removeLiquidity(uint256,uint256[],uint256)": {
        "details": "Liquidity can always be removed, even when the pool is paused. Caller will receive ETH instead of WETH9.",
        "params": {
          "amount": "the amount of LP tokens to burn",
          "deadline": "latest timestamp to accept this transaction",
          "minAmounts": "the minimum amounts of each token in the pool        acceptable for this burn. Useful as a front-running mitigation"
        },
        "returns": {
          "_0": "amounts of tokens user received"
        }
      },
      "removeLiquidityImbalance(uint256[],uint256,uint256)": {
        "details": "Caller will receive ETH instead of WETH9.",
        "params": {
          "amounts": "how much of each token to withdraw",
          "deadline": "latest timestamp to accept this transaction",
          "maxBurnAmount": "the max LP token provider is willing to pay to remove liquidity. Useful as a front-running mitigation."
        },
        "returns": {
          "_0": "amount of LP tokens burned"
        }
      },
      "removeLiquidityOneToken(uint256,uint8,uint256,uint256)": {
        "details": "Caller will receive ETH instead of WETH9.",
        "params": {
          "deadline": "latest timestamp to accept this transaction",
          "minAmount": "the minimum amount to withdraw, otherwise revert",
          "tokenAmount": "the amount of the token you want to receive",
          "tokenIndex": "the index of the token you want to receive"
        },
        "returns": {
          "_0": "amount of chosen token user received"
        }
      },
      "swap(uint8,uint8,uint256,uint256,uint256)": {
        "params": {
          "deadline": "latest timestamp to accept this transaction",
          "dx": "the amount of tokens the user wants to swap from",
          "minDy": "the min amount the user would like to receive, or revert.",
          "tokenIndexFrom": "the token the user wants to swap from",
          "tokenIndexTo": "the token the user wants to swap to"
        }
      }
    },
    "title": "SwapEthWrapper",
    "version": 1
  },
  "userdoc": {
    "kind": "user",
    "methods": {
      "addLiquidity(uint256[],uint256,uint256)": {
        "notice": "Add liquidity to the pool with the given amounts of tokens."
      },
      "calculateRemoveLiquidity(uint256)": {
        "notice": "A simple method to calculate amount of each underlying tokens that is returned upon burning given amount of LP tokens"
      },
      "calculateRemoveLiquidityOneToken(uint256,uint8)": {
        "notice": "Calculate the amount of underlying token available to withdraw when withdrawing via only single token"
      },
      "calculateTokenAmount(uint256[],bool)": {
        "notice": "A simple method to calculate prices from deposits or withdrawals, excluding fees but including slippage. This is helpful as an input into the various \"min\" parameters on calls to fight front-running"
      },
      "constructor": "Deploys this contract with given WETH9 address and Swap address. It will attempt to fetch information about the given Swap pool. If the Swap pool does not contain WETH9, this call will be reverted. Owner address must be given so that `rescue()` function can be limited.",
      "removeLiquidity(uint256,uint256[],uint256)": {
        "notice": "Burn LP tokens to remove liquidity from the pool."
      },
      "removeLiquidityImbalance(uint256[],uint256,uint256)": {
        "notice": "Remove liquidity from the pool, weighted differently than the pool's current balances."
      },
      "removeLiquidityOneToken(uint256,uint8,uint256,uint256)": {
        "notice": "Remove liquidity from the pool all in one token."
      },
      "rescue()": {
        "notice": "Rescues any of the ETH, the pooled tokens, or the LPToken that may be stuck in this contract. Only the OWNER can call this function."
      },
      "swap(uint8,uint8,uint256,uint256,uint256)": {
        "notice": "Swap two tokens using the underlying pool. If tokenIndexFrom represents WETH9 in the pool, the caller must set msg.value equal to dx. If the user is swapping to WETH9 in the pool, the user will receive ETH instead."
      }
    },
    "notice": "A wrapper contract for Swap contracts that have WETH as one of the pooled tokens.",
    "version": 1
  },
  "storageLayout": {
    "storage": [
      {
        "astId": 7518,
        "contract": "contracts/amm/SwapEthWrapper.sol:SwapEthWrapper",
        "label": "pooledTokens",
        "offset": 0,
        "slot": "0",
        "type": "t_array(t_contract(IERC20)4954)dyn_storage"
      }
    ],
    "types": {
      "t_array(t_contract(IERC20)4954)dyn_storage": {
        "base": "t_contract(IERC20)4954",
        "encoding": "dynamic_array",
        "label": "contract IERC20[]",
        "numberOfBytes": "32"
      },
      "t_contract(IERC20)4954": {
        "encoding": "inplace",
        "label": "contract IERC20",
        "numberOfBytes": "20"
      }
    }
  }
}