{
  "address": "0x55A0D01a419471DBC0d118966b703e21799B6824",
  "abi": [
    {
      "inputs": [
        {
          "internalType": "address",
          "name": "_nodegroup",
          "type": "address"
        }
      ],
      "stateMutability": "nonpayable",
      "type": "constructor"
    },
    {
      "anonymous": false,
      "inputs": [
        {
          "indexed": true,
          "internalType": "address",
          "name": "previousOwner",
          "type": "address"
        },
        {
          "indexed": true,
          "internalType": "address",
          "name": "newOwner",
          "type": "address"
        }
      ],
      "name": "OwnershipTransferred",
      "type": "event"
    },
    {
      "inputs": [
        {
          "internalType": "bytes",
          "name": "_authData",
          "type": "bytes"
        }
      ],
      "name": "msgAuth",
      "outputs": [
        {
          "internalType": "bool",
          "name": "authenticated",
          "type": "bool"
        }
      ],
      "stateMutability": "view",
      "type": "function"
    },
    {
      "inputs": [],
      "name": "nodegroup",
      "outputs": [
        {
          "internalType": "address",
          "name": "",
          "type": "address"
        }
      ],
      "stateMutability": "view",
      "type": "function"
    },
    {
      "inputs": [],
      "name": "owner",
      "outputs": [
        {
          "internalType": "address",
          "name": "",
          "type": "address"
        }
      ],
      "stateMutability": "view",
      "type": "function"
    },
    {
      "inputs": [],
      "name": "renounceOwnership",
      "outputs": [],
      "stateMutability": "nonpayable",
      "type": "function"
    },
    {
      "inputs": [
        {
          "internalType": "address",
          "name": "_nodegroup",
          "type": "address"
        }
      ],
      "name": "setNodeGroup",
      "outputs": [],
      "stateMutability": "nonpayable",
      "type": "function"
    },
    {
      "inputs": [
        {
          "internalType": "address",
          "name": "newOwner",
          "type": "address"
        }
      ],
      "name": "transferOwnership",
      "outputs": [],
      "stateMutability": "nonpayable",
      "type": "function"
    }
  ],
  "transactionHash": "0x46eb498f8f7a0dedde730e7ca4d739eee304f23e8173f01be39793beee758232",
  "args": [
    "0x0AF91FA049A7e1894F480bFE5bBa20142C6c29a9"
  ],
  "solcInputHash": "2c99480c4b27fa6f3dfbf2224f6bc524",
  "bytecode": "0x608060405234801561001057600080fd5b50604051610ae1380380610ae1833981810160405281019061003291906101c4565b61004e61004361009560201b60201c565b61009d60201b60201c565b80600160006101000a81548173ffffffffffffffffffffffffffffffffffffffff021916908373ffffffffffffffffffffffffffffffffffffffff160217905550506101f1565b600033905090565b60008060009054906101000a900473ffffffffffffffffffffffffffffffffffffffff169050816000806101000a81548173ffffffffffffffffffffffffffffffffffffffff021916908373ffffffffffffffffffffffffffffffffffffffff1602179055508173ffffffffffffffffffffffffffffffffffffffff168173ffffffffffffffffffffffffffffffffffffffff167f8be0079c531659141344cd1fd0a4f28419497f9722a3daafe3b4186f6b6457e060405160405180910390a35050565b600080fd5b600073ffffffffffffffffffffffffffffffffffffffff82169050919050565b600061019182610166565b9050919050565b6101a181610186565b81146101ac57600080fd5b50565b6000815190506101be81610198565b92915050565b6000602082840312156101da576101d9610161565b5b60006101e8848285016101af565b91505092915050565b6108e1806102006000396000f3fe608060405234801561001057600080fd5b50600436106100625760003560e01c80632ed1a13414610067578063715018a6146100855780638b1b3a2d1461008f5780638da5cb5b146100bf578063f2fde38b146100dd578063f6ea2c90146100f9575b600080fd5b61006f610115565b60405161007c919061055f565b60405180910390f35b61008d61013b565b005b6100a960048036038101906100a491906105e9565b6101c3565b6040516100b69190610651565b60405180910390f35b6100c7610272565b6040516100d4919061055f565b60405180910390f35b6100f760048036038101906100f29190610698565b61029b565b005b610113600480360381019061010e9190610698565b610392565b005b600160009054906101000a900473ffffffffffffffffffffffffffffffffffffffff1681565b610143610452565b73ffffffffffffffffffffffffffffffffffffffff16610161610272565b73ffffffffffffffffffffffffffffffffffffffff16146101b7576040517f08c379a00000000000000000000000000000000000000000000000000000000081526004016101ae90610722565b60405180910390fd5b6101c1600061045a565b565b60008083838101906101d59190610780565b9050600160009054906101000a900473ffffffffffffffffffffffffffffffffffffffff1673ffffffffffffffffffffffffffffffffffffffff168173ffffffffffffffffffffffffffffffffffffffff1614610267576040517f08c379a000000000000000000000000000000000000000000000000000000000815260040161025e906107f9565b60405180910390fd5b600191505092915050565b60008060009054906101000a900473ffffffffffffffffffffffffffffffffffffffff16905090565b6102a3610452565b73ffffffffffffffffffffffffffffffffffffffff166102c1610272565b73ffffffffffffffffffffffffffffffffffffffff1614610317576040517f08c379a000000000000000000000000000000000000000000000000000000000815260040161030e90610722565b60405180910390fd5b600073ffffffffffffffffffffffffffffffffffffffff168173ffffffffffffffffffffffffffffffffffffffff1603610386576040517f08c379a000000000000000000000000000000000000000000000000000000000815260040161037d9061088b565b60405180910390fd5b61038f8161045a565b50565b61039a610452565b73ffffffffffffffffffffffffffffffffffffffff166103b8610272565b73ffffffffffffffffffffffffffffffffffffffff161461040e576040517f08c379a000000000000000000000000000000000000000000000000000000000815260040161040590610722565b60405180910390fd5b80600160006101000a81548173ffffffffffffffffffffffffffffffffffffffff021916908373ffffffffffffffffffffffffffffffffffffffff16021790555050565b600033905090565b60008060009054906101000a900473ffffffffffffffffffffffffffffffffffffffff169050816000806101000a81548173ffffffffffffffffffffffffffffffffffffffff021916908373ffffffffffffffffffffffffffffffffffffffff1602179055508173ffffffffffffffffffffffffffffffffffffffff168173ffffffffffffffffffffffffffffffffffffffff167f8be0079c531659141344cd1fd0a4f28419497f9722a3daafe3b4186f6b6457e060405160405180910390a35050565b600073ffffffffffffffffffffffffffffffffffffffff82169050919050565b60006105498261051e565b9050919050565b6105598161053e565b82525050565b60006020820190506105746000830184610550565b92915050565b600080fd5b600080fd5b600080fd5b600080fd5b600080fd5b60008083601f8401126105a9576105a8610584565b5b8235905067ffffffffffffffff8111156105c6576105c5610589565b5b6020830191508360018202830111156105e2576105e161058e565b5b9250929050565b60008060208385031215610600576105ff61057a565b5b600083013567ffffffffffffffff81111561061e5761061d61057f565b5b61062a85828601610593565b92509250509250929050565b60008115159050919050565b61064b81610636565b82525050565b60006020820190506106666000830184610642565b92915050565b6106758161053e565b811461068057600080fd5b50565b6000813590506106928161066c565b92915050565b6000602082840312156106ae576106ad61057a565b5b60006106bc84828501610683565b91505092915050565b600082825260208201905092915050565b7f4f776e61626c653a2063616c6c6572206973206e6f7420746865206f776e6572600082015250565b600061070c6020836106c5565b9150610717826106d6565b602082019050919050565b6000602082019050818103600083015261073b816106ff565b9050919050565b600061074d8261051e565b9050919050565b61075d81610742565b811461076857600080fd5b50565b60008135905061077a81610754565b92915050565b6000602082840312156107965761079561057a565b5b60006107a48482850161076b565b91505092915050565b7f556e61757468656e746963617465642063616c6c657200000000000000000000600082015250565b60006107e36016836106c5565b91506107ee826107ad565b602082019050919050565b60006020820190508181036000830152610812816107d6565b9050919050565b7f4f776e61626c653a206e6577206f776e657220697320746865207a65726f206160008201527f6464726573730000000000000000000000000000000000000000000000000000602082015250565b60006108756026836106c5565b915061088082610819565b604082019050919050565b600060208201905081810360008301526108a481610868565b905091905056fea2646970667358221220d8f7b2d191f1454e4dbf1047bef791a674641a37fe182376e05c8dbe85997a6164736f6c634300080d0033",
  "devdoc": {
    "kind": "dev",
    "methods": {
      "msgAuth(bytes)": {
        "params": {
          "_authData": "A bytes32 address encoded via abi.encode(address)"
        },
        "returns": {
          "authenticated": "returns true if bytes data submitted and decoded to the address is correct. Reverts if check fails."
        }
      },
      "owner()": {
        "details": "Returns the address of the current owner."
      },
      "renounceOwnership()": {
        "details": "Leaves the contract without owner. It will not be possible to call `onlyOwner` functions anymore. Can only be called by the current owner. NOTE: Renouncing ownership will leave the contract without an owner, thereby removing any functionality that is only available to the owner."
      },
      "setNodeGroup(address)": {
        "params": {
          "_nodegroup": "address which has authentication to execute messages"
        }
      },
      "transferOwnership(address)": {
        "details": "Transfers ownership of the contract to a new account (`newOwner`). Can only be called by the current owner."
      }
    },
    "version": 1
  },
  "userdoc": {
    "kind": "user",
    "methods": {
      "msgAuth(bytes)": {
        "notice": "Authentication library to allow the validator network to execute cross-chain messages."
      },
      "setNodeGroup(address)": {
        "notice": "Permissioned method to support upgrades to the library"
      }
    },
    "version": 1
  },
  "storageLayout": {
    "storage": [
      {
        "astId": 962,
        "contract": "contracts/messaging/AuthVerifier.sol:AuthVerifier",
        "label": "_owner",
        "offset": 0,
        "slot": "0",
        "type": "t_address"
      },
      {
        "astId": 4908,
        "contract": "contracts/messaging/AuthVerifier.sol:AuthVerifier",
        "label": "nodegroup",
        "offset": 0,
        "slot": "1",
        "type": "t_address"
      }
    ],
    "types": {
      "t_address": {
        "encoding": "inplace",
        "label": "address",
        "numberOfBytes": "20"
      }
    }
  }
}