{
  "address": "0x303b049e69b035f85403BF3bfAe6b13974068A6D",
  "abi": [
    {
      "inputs": [],
      "stateMutability": "nonpayable",
      "type": "constructor"
    },
    {
      "anonymous": false,
      "inputs": [
        {
          "indexed": true,
          "internalType": "address",
          "name": "previousOwner",
          "type": "address"
        },
        {
          "indexed": true,
          "internalType": "address",
          "name": "newOwner",
          "type": "address"
        }
      ],
      "name": "OwnershipTransferred",
      "type": "event"
    },
    {
      "inputs": [
        {
          "internalType": "uint256",
          "name": "amount",
          "type": "uint256"
        }
      ],
      "name": "migrate",
      "outputs": [],
      "stateMutability": "nonpayable",
      "type": "function"
    },
    {
      "inputs": [
        {
          "internalType": "uint256",
          "name": "amount",
          "type": "uint256"
        },
        {
          "internalType": "address",
          "name": "to",
          "type": "address"
        },
        {
          "internalType": "uint256",
          "name": "chainId",
          "type": "uint256"
        }
      ],
      "name": "migrateAndBridge",
      "outputs": [],
      "stateMutability": "nonpayable",
      "type": "function"
    },
    {
      "inputs": [],
      "name": "owner",
      "outputs": [
        {
          "internalType": "address",
          "name": "",
          "type": "address"
        }
      ],
      "stateMutability": "view",
      "type": "function"
    },
    {
      "inputs": [],
      "name": "redeemLegacy",
      "outputs": [],
      "stateMutability": "nonpayable",
      "type": "function"
    },
    {
      "inputs": [],
      "name": "renounceOwnership",
      "outputs": [],
      "stateMutability": "nonpayable",
      "type": "function"
    },
    {
      "inputs": [
        {
          "internalType": "address",
          "name": "newOwner",
          "type": "address"
        }
      ],
      "name": "transferOwnership",
      "outputs": [],
      "stateMutability": "nonpayable",
      "type": "function"
    }
  ],
  "transactionHash": "0x5b70e7e7da57eebcfe140c0f1bc07bf3fed2342461c3c6fadafb5bc2fe532feb",
  "args": [],
  "solcInputHash": "f830a0c701b69b2055ae5caebfbd7bc2",
  "bytecode": "0x60806040523480156200001157600080fd5b5060006200001e620000b1565b600080546001600160a01b0319166001600160a01b0383169081178255604051929350917f8be0079c531659141344cd1fd0a4f28419497f9722a3daafe3b4186f6b6457e0908290a350620000ab73997ddaa07d716995de90577c123db411584e5e4673c05e61d0e7a63d27546389b7ad62fdff5a91aace600019620000b5602090811b6200070717901c565b620004c8565b3390565b8015806200013f575060408051636eb1769f60e11b81523060048201526001600160a01b03848116602483015291519185169163dd62ed3e91604480820192602092909190829003018186803b1580156200010f57600080fd5b505afa15801562000124573d6000803e3d6000fd5b505050506040513d60208110156200013b57600080fd5b5051155b6200017c5760405162461bcd60e51b81526004018080602001828103825260368152602001806200133c6036913960400191505060405180910390fd5b604080516001600160a01b038416602482015260448082018490528251808303909101815260649091019091526020810180516001600160e01b0390811663095ea7b360e01b17909152620001d4918591620001d916565b505050565b606062000235826040518060400160405280602081526020017f5361666545524332303a206c6f772d6c6576656c2063616c6c206661696c6564815250856001600160a01b03166200029560201b6200089a179092919060201c565b805190915015620001d4578080602001905160208110156200025657600080fd5b5051620001d45760405162461bcd60e51b815260040180806020018281038252602a81526020018062001312602a913960400191505060405180910390fd5b6060620002a68484600085620002b0565b90505b9392505050565b606082471015620002f35760405162461bcd60e51b8152600401808060200182810382526026815260200180620012ec6026913960400191505060405180910390fd5b620002fe8562000418565b62000350576040805162461bcd60e51b815260206004820152601d60248201527f416464726573733a2063616c6c20746f206e6f6e2d636f6e7472616374000000604482015290519081900360640190fd5b60006060866001600160a01b031685876040518082805190602001908083835b60208310620003915780518252601f19909201916020918201910162000370565b6001836020036101000a03801982511681845116808217855250505050505090500191505060006040518083038185875af1925050503d8060008114620003f5576040519150601f19603f3d011682016040523d82523d6000602084013e620003fa565b606091505b5090925090506200040d8282866200041e565b979650505050505050565b3b151590565b606083156200042f575081620002a9565b825115620004405782518084602001fd5b8160405162461bcd60e51b81526004018080602001828103825283818151815260200191508051906020019080838360005b838110156200048c57818101518382015260200162000472565b50505050905090810190601f168015620004ba5780820380516001836020036101000a031916815260200191505b509250505060405180910390fd5b610e1480620004d86000396000f3fe608060405234801561001057600080fd5b50600436106100725760003560e01c8063ccd9461911610050578063ccd94619146100cf578063f2fde38b1461010e578063f8b57f421461014157610072565b8063454b060814610077578063715018a6146100965780638da5cb5b1461009e575b600080fd5b6100946004803603602081101561008d57600080fd5b5035610149565b005b6100946101f6565b6100a661030d565b6040805173ffffffffffffffffffffffffffffffffffffffff9092168252519081900360200190f35b610094600480360360608110156100e557600080fd5b5080359073ffffffffffffffffffffffffffffffffffffffff6020820135169060400135610329565b6100946004803603602081101561012457600080fd5b503573ffffffffffffffffffffffffffffffffffffffff166103f8565b610094610599565b610169734f60a160d8c2dddaafe16fcc57566db84d674bd63330846108b3565b604080517f40c10f1900000000000000000000000000000000000000000000000000000000815233600482015260248101839052905173997ddaa07d716995de90577c123db411584e5e46916340c10f1991604480830192600092919082900301818387803b1580156101db57600080fd5b505af11580156101ef573d6000803e3d6000fd5b5050505050565b6101fe61094e565b73ffffffffffffffffffffffffffffffffffffffff1661021c61030d565b73ffffffffffffffffffffffffffffffffffffffff161461029e57604080517f08c379a000000000000000000000000000000000000000000000000000000000815260206004820181905260248201527f4f776e61626c653a2063616c6c6572206973206e6f7420746865206f776e6572604482015290519081900360640190fd5b6000805460405173ffffffffffffffffffffffffffffffffffffffff909116907f8be0079c531659141344cd1fd0a4f28419497f9722a3daafe3b4186f6b6457e0908390a3600080547fffffffffffffffffffffffff0000000000000000000000000000000000000000169055565b60005473ffffffffffffffffffffffffffffffffffffffff1690565b61033283610149565b604080517ff3f094a100000000000000000000000000000000000000000000000000000000815273ffffffffffffffffffffffffffffffffffffffff841660048201526024810183905273997ddaa07d716995de90577c123db411584e5e46604482015260648101859052905173c05e61d0e7a63d27546389b7ad62fdff5a91aace9163f3f094a191608480830192600092919082900301818387803b1580156103db57600080fd5b505af11580156103ef573d6000803e3d6000fd5b50505050505050565b61040061094e565b73ffffffffffffffffffffffffffffffffffffffff1661041e61030d565b73ffffffffffffffffffffffffffffffffffffffff16146104a057604080517f08c379a000000000000000000000000000000000000000000000000000000000815260206004820181905260248201527f4f776e61626c653a2063616c6c6572206973206e6f7420746865206f776e6572604482015290519081900360640190fd5b73ffffffffffffffffffffffffffffffffffffffff811661050c576040517f08c379a0000000000000000000000000000000000000000000000000000000008152600401808060200182810382526026815260200180610d336026913960400191505060405180910390fd5b6000805460405173ffffffffffffffffffffffffffffffffffffffff808516939216917f8be0079c531659141344cd1fd0a4f28419497f9722a3daafe3b4186f6b6457e091a3600080547fffffffffffffffffffffffff00000000000000000000000000000000000000001673ffffffffffffffffffffffffffffffffffffffff92909216919091179055565b6105a161094e565b73ffffffffffffffffffffffffffffffffffffffff166105bf61030d565b73ffffffffffffffffffffffffffffffffffffffff161461064157604080517f08c379a000000000000000000000000000000000000000000000000000000000815260206004820181905260248201527f4f776e61626c653a2063616c6c6572206973206e6f7420746865206f776e6572604482015290519081900360640190fd5b604080517f70a082310000000000000000000000000000000000000000000000000000000081523060048201529051600091734f60a160d8c2dddaafe16fcc57566db84d674bd6916370a0823191602480820192602092909190829003018186803b1580156106af57600080fd5b505afa1580156106c3573d6000803e3d6000fd5b505050506040513d60208110156106d957600080fd5b505190506107046106e861030d565b734f60a160d8c2dddaafe16fcc57566db84d674bd69083610952565b50565b8015806107b35750604080517fdd62ed3e00000000000000000000000000000000000000000000000000000000815230600482015273ffffffffffffffffffffffffffffffffffffffff848116602483015291519185169163dd62ed3e91604480820192602092909190829003018186803b15801561078557600080fd5b505afa158015610799573d6000803e3d6000fd5b505050506040513d60208110156107af57600080fd5b5051155b610808576040517f08c379a0000000000000000000000000000000000000000000000000000000008152600401808060200182810382526036815260200180610da96036913960400191505060405180910390fd5b6040805173ffffffffffffffffffffffffffffffffffffffff8416602482015260448082018490528251808303909101815260649091019091526020810180517bffffffffffffffffffffffffffffffffffffffffffffffffffffffff167f095ea7b3000000000000000000000000000000000000000000000000000000001790526108959084906109db565b505050565b60606108a98484600085610ab3565b90505b9392505050565b6040805173ffffffffffffffffffffffffffffffffffffffff80861660248301528416604482015260648082018490528251808303909101815260849091019091526020810180517bffffffffffffffffffffffffffffffffffffffffffffffffffffffff167f23b872dd000000000000000000000000000000000000000000000000000000001790526109489085906109db565b50505050565b3390565b6040805173ffffffffffffffffffffffffffffffffffffffff8416602482015260448082018490528251808303909101815260649091019091526020810180517bffffffffffffffffffffffffffffffffffffffffffffffffffffffff167fa9059cbb000000000000000000000000000000000000000000000000000000001790526108959084905b6060610a3d826040518060400160405280602081526020017f5361666545524332303a206c6f772d6c6576656c2063616c6c206661696c65648152508573ffffffffffffffffffffffffffffffffffffffff1661089a9092919063ffffffff16565b80519091501561089557808060200190516020811015610a5c57600080fd5b5051610895576040517f08c379a000000000000000000000000000000000000000000000000000000000815260040180806020018281038252602a815260200180610d7f602a913960400191505060405180910390fd5b606082471015610b0e576040517f08c379a0000000000000000000000000000000000000000000000000000000008152600401808060200182810382526026815260200180610d596026913960400191505060405180910390fd5b610b1785610c6e565b610b8257604080517f08c379a000000000000000000000000000000000000000000000000000000000815260206004820152601d60248201527f416464726573733a2063616c6c20746f206e6f6e2d636f6e7472616374000000604482015290519081900360640190fd5b600060608673ffffffffffffffffffffffffffffffffffffffff1685876040518082805190602001908083835b60208310610bec57805182527fffffffffffffffffffffffffffffffffffffffffffffffffffffffffffffffe09092019160209182019101610baf565b6001836020036101000a03801982511681845116808217855250505050505090500191505060006040518083038185875af1925050503d8060008114610c4e576040519150601f19603f3d011682016040523d82523d6000602084013e610c53565b606091505b5091509150610c63828286610c74565b979650505050505050565b3b151590565b60608315610c835750816108ac565b825115610c935782518084602001fd5b816040517f08c379a00000000000000000000000000000000000000000000000000000000081526004018080602001828103825283818151815260200191508051906020019080838360005b83811015610cf7578181015183820152602001610cdf565b50505050905090810190601f168015610d245780820380516001836020036101000a031916815260200191505b509250505060405180910390fdfe4f776e61626c653a206e6577206f776e657220697320746865207a65726f2061646472657373416464726573733a20696e73756666696369656e742062616c616e636520666f722063616c6c5361666545524332303a204552433230206f7065726174696f6e20646964206e6f7420737563636565645361666545524332303a20617070726f76652066726f6d206e6f6e2d7a65726f20746f206e6f6e2d7a65726f20616c6c6f77616e6365a2646970667358221220a1a505b8a712bb87a627d7152abaee7d6e5392b2313fdbd27d1e7f0eb8dd1f5864736f6c634300060c0033416464726573733a20696e73756666696369656e742062616c616e636520666f722063616c6c5361666545524332303a204552433230206f7065726174696f6e20646964206e6f7420737563636565645361666545524332303a20617070726f76652066726f6d206e6f6e2d7a65726f20746f206e6f6e2d7a65726f20616c6c6f77616e6365",
  "devdoc": {
    "kind": "dev",
    "methods": {
      "owner()": {
        "details": "Returns the address of the current owner."
      },
      "renounceOwnership()": {
        "details": "Leaves the contract without owner. It will not be possible to call `onlyOwner` functions anymore. Can only be called by the current owner. NOTE: Renouncing ownership will leave the contract without an owner, thereby removing any functionality that is only available to the owner."
      },
      "transferOwnership(address)": {
        "details": "Transfers ownership of the contract to a new account (`newOwner`). Can only be called by the current owner."
      }
    },
    "version": 1
  },
  "userdoc": {
    "kind": "user",
    "methods": {},
    "version": 1
  },
  "storageLayout": {
    "storage": [
      {
        "astId": 3330,
        "contract": "contracts/bridge/wrappers/AvaxJewelMigration.sol:AvaxJewelMigration",
        "label": "_owner",
        "offset": 0,
        "slot": "0",
        "type": "t_address"
      }
    ],
    "types": {
      "t_address": {
        "encoding": "inplace",
        "label": "address",
        "numberOfBytes": "20"
      }
    }
  }
}