{
  "address": "0xbE4835FE6DeF2E9FA1487800657E0A2989f246b4",
  "abi": [
    {
      "inputs": [
        {
          "internalType": "string",
          "name": "_name",
          "type": "string"
        },
        {
          "internalType": "uint256",
          "name": "_swapGasEstimate",
          "type": "uint256"
        },
        {
          "internalType": "address",
          "name": "_pool",
          "type": "address"
        },
        {
          "internalType": "bool",
          "name": "_directSwapSupported",
          "type": "bool"
        },
        {
          "internalType": "address",
          "name": "_basePool",
          "type": "address"
        }
      ],
      "stateMutability": "nonpayable",
      "type": "constructor"
    },
    {
      "anonymous": false,
      "inputs": [
        {
          "indexed": true,
          "internalType": "address",
          "name": "previousOwner",
          "type": "address"
        },
        {
          "indexed": true,
          "internalType": "address",
          "name": "newOwner",
          "type": "address"
        }
      ],
      "name": "OwnershipTransferred",
      "type": "event"
    },
    {
      "anonymous": false,
      "inputs": [
        {
          "indexed": true,
          "internalType": "address",
          "name": "asset",
          "type": "address"
        },
        {
          "indexed": false,
          "internalType": "uint256",
          "name": "amount",
          "type": "uint256"
        }
      ],
      "name": "Recovered",
      "type": "event"
    },
    {
      "anonymous": false,
      "inputs": [
        {
          "indexed": true,
          "internalType": "address",
          "name": "adapter",
          "type": "address"
        },
        {
          "indexed": false,
          "internalType": "uint256",
          "name": "newEstimate",
          "type": "uint256"
        }
      ],
      "name": "UpdatedGasEstimate",
      "type": "event"
    },
    {
      "inputs": [
        {
          "internalType": "address",
          "name": "tokenIn",
          "type": "address"
        },
        {
          "internalType": "address",
          "name": "tokenOut",
          "type": "address"
        }
      ],
      "name": "depositAddress",
      "outputs": [
        {
          "internalType": "address",
          "name": "",
          "type": "address"
        }
      ],
      "stateMutability": "view",
      "type": "function"
    },
    {
      "inputs": [
        {
          "internalType": "address",
          "name": "",
          "type": "address"
        }
      ],
      "name": "isPoolToken",
      "outputs": [
        {
          "internalType": "bool",
          "name": "",
          "type": "bool"
        }
      ],
      "stateMutability": "view",
      "type": "function"
    },
    {
      "inputs": [],
      "name": "name",
      "outputs": [
        {
          "internalType": "string",
          "name": "",
          "type": "string"
        }
      ],
      "stateMutability": "view",
      "type": "function"
    },
    {
      "inputs": [],
      "name": "owner",
      "outputs": [
        {
          "internalType": "address",
          "name": "",
          "type": "address"
        }
      ],
      "stateMutability": "view",
      "type": "function"
    },
    {
      "inputs": [],
      "name": "pool",
      "outputs": [
        {
          "internalType": "contract ICurvePool",
          "name": "",
          "type": "address"
        }
      ],
      "stateMutability": "view",
      "type": "function"
    },
    {
      "inputs": [
        {
          "internalType": "uint256",
          "name": "amountIn",
          "type": "uint256"
        },
        {
          "internalType": "address",
          "name": "tokenIn",
          "type": "address"
        },
        {
          "internalType": "address",
          "name": "tokenOut",
          "type": "address"
        }
      ],
      "name": "query",
      "outputs": [
        {
          "internalType": "uint256",
          "name": "",
          "type": "uint256"
        }
      ],
      "stateMutability": "view",
      "type": "function"
    },
    {
      "inputs": [
        {
          "internalType": "contract IERC20",
          "name": "token",
          "type": "address"
        }
      ],
      "name": "recoverERC20",
      "outputs": [],
      "stateMutability": "nonpayable",
      "type": "function"
    },
    {
      "inputs": [],
      "name": "recoverGAS",
      "outputs": [],
      "stateMutability": "nonpayable",
      "type": "function"
    },
    {
      "inputs": [],
      "name": "renounceOwnership",
      "outputs": [],
      "stateMutability": "nonpayable",
      "type": "function"
    },
    {
      "inputs": [
        {
          "internalType": "contract IERC20",
          "name": "token",
          "type": "address"
        },
        {
          "internalType": "address",
          "name": "spender",
          "type": "address"
        }
      ],
      "name": "revokeTokenAllowance",
      "outputs": [],
      "stateMutability": "nonpayable",
      "type": "function"
    },
    {
      "inputs": [
        {
          "internalType": "contract IERC20",
          "name": "token",
          "type": "address"
        },
        {
          "internalType": "address",
          "name": "spender",
          "type": "address"
        }
      ],
      "name": "setInfiniteAllowance",
      "outputs": [],
      "stateMutability": "nonpayable",
      "type": "function"
    },
    {
      "inputs": [
        {
          "internalType": "uint256",
          "name": "_swapGasEstimate",
          "type": "uint256"
        }
      ],
      "name": "setSwapGasEstimate",
      "outputs": [],
      "stateMutability": "nonpayable",
      "type": "function"
    },
    {
      "inputs": [
        {
          "internalType": "uint256",
          "name": "amountIn",
          "type": "uint256"
        },
        {
          "internalType": "address",
          "name": "tokenIn",
          "type": "address"
        },
        {
          "internalType": "address",
          "name": "tokenOut",
          "type": "address"
        },
        {
          "internalType": "address",
          "name": "to",
          "type": "address"
        }
      ],
      "name": "swap",
      "outputs": [
        {
          "internalType": "uint256",
          "name": "amountOut",
          "type": "uint256"
        }
      ],
      "stateMutability": "nonpayable",
      "type": "function"
    },
    {
      "inputs": [],
      "name": "swapGasEstimate",
      "outputs": [
        {
          "internalType": "uint256",
          "name": "",
          "type": "uint256"
        }
      ],
      "stateMutability": "view",
      "type": "function"
    },
    {
      "inputs": [
        {
          "internalType": "address",
          "name": "",
          "type": "address"
        }
      ],
      "name": "tokenIndex",
      "outputs": [
        {
          "internalType": "uint256",
          "name": "",
          "type": "uint256"
        }
      ],
      "stateMutability": "view",
      "type": "function"
    },
    {
      "inputs": [
        {
          "internalType": "address",
          "name": "newOwner",
          "type": "address"
        }
      ],
      "name": "transferOwnership",
      "outputs": [],
      "stateMutability": "nonpayable",
      "type": "function"
    },
    {
      "stateMutability": "payable",
      "type": "receive"
    }
  ],
  "transactionHash": "0xb074de5dc886288c16e07107674b2079afdf9b21a4cbc16157bd21d46b7597ad",
  "args": [
    "Curve TriCrypto on Avalanche",
    0,
    "0x58e57cA18B7A47112b877E31929798Cd3D703b0f",
    true,
    "0x7f90122BF0700F9E7e1F688fe926940E8839F353"
  ],
  "solcInputHash": "981f38149fd49d3cec0cb27aa531a82e",
  "bytecode": "0x60e06040523480156200001157600080fd5b506040516200298e3803806200298e8339810160408190526200003491620008c1565b8484848483836200004533620000a9565b81516200005a906001906020850190620007a8565b506200006681620000f9565b50506001600160a01b03821660805280151560a0526200008562000196565b505050506200009a816200026860201b60201c565b60c0525062000af49350505050565b600080546001600160a01b038381166001600160a01b0319831681178455604051919092169283917f8be0079c531659141344cd1fd0a4f28419497f9722a3daafe3b4186f6b6457e09190a35050565b6000546001600160a01b03163314620001595760405162461bcd60e51b815260206004820181905260248201527f4f776e61626c653a2063616c6c6572206973206e6f7420746865206f776e657260448201526064015b60405180910390fd5b600281905560405181815230907ff43f23b7a28e6f8ce6843a21bd7b48bce778aa913b8c8cf459edf7d770e8d38a9060200160405180910390a250565b60005b608051604051630b9947eb60e41b815260ff831660048201526001600160a01b039091169063b9947eb090602401602060405180830381865afa92505050801562000203575060408051601f3d908101601f191682019092526200020091810190620009bd565b60015b6200020b5750565b6001600160a01b0381166000908152600360209081526040808320805460ff191660011790556004909152902060ff831690556200025281608051620002f760201b60201c565b50806200025f81620009f1565b91505062000199565b6000815b60405163c661065760e01b8152600481018390526001600160a01b0382169063c661065790602401602060405180830381865afa925050508015620002d0575060408051601f3d908101601f19168201909252620002cd91810190620009bd565b60015b620002db57620002f1565b5081620002e88162000a14565b9250506200026c565b50919050565b6200030682600019836200030a565b5050565b604051636eb1769f60e11b81523060048201526001600160a01b0382811660248301526000919085169063dd62ed3e90604401602060405180830381865afa1580156200035b573d6000803e3d6000fd5b505050506040513d601f19601f8201168201806040525081019062000381919062000a32565b905082811015620003e0578015620003b957620003b9826000866001600160a01b0316620003e660201b62000e33179092919060201c565b620003e082600019866001600160a01b0316620003e660201b62000e33179092919060201c565b50505050565b801580620004645750604051636eb1769f60e11b81523060048201526001600160a01b03838116602483015284169063dd62ed3e90604401602060405180830381865afa1580156200043c573d6000803e3d6000fd5b505050506040513d601f19601f8201168201806040525081019062000462919062000a32565b155b620004d85760405162461bcd60e51b815260206004820152603660248201527f5361666545524332303a20617070726f76652066726f6d206e6f6e2d7a65726f60448201527f20746f206e6f6e2d7a65726f20616c6c6f77616e636500000000000000000000606482015260840162000150565b604080516001600160a01b038416602482015260448082018490528251808303909101815260649091019091526020810180516001600160e01b0390811663095ea7b360e01b17909152620005309185916200053516565b505050565b600062000591826040518060400160405280602081526020017f5361666545524332303a206c6f772d6c6576656c2063616c6c206661696c6564815250856001600160a01b03166200061360201b62001038179092919060201c565b805190915015620005305780806020019051810190620005b2919062000a4c565b620005305760405162461bcd60e51b815260206004820152602a60248201527f5361666545524332303a204552433230206f7065726174696f6e20646964206e6044820152691bdd081cdd58d8d9595960b21b606482015260840162000150565b60606200062484846000856200062e565b90505b9392505050565b606082471015620006915760405162461bcd60e51b815260206004820152602660248201527f416464726573733a20696e73756666696369656e742062616c616e636520666f6044820152651c8818d85b1b60d21b606482015260840162000150565b6001600160a01b0385163b620006ea5760405162461bcd60e51b815260206004820152601d60248201527f416464726573733a2063616c6c20746f206e6f6e2d636f6e7472616374000000604482015260640162000150565b600080866001600160a01b0316858760405162000708919062000a6a565b60006040518083038185875af1925050503d806000811462000747576040519150601f19603f3d011682016040523d82523d6000602084013e6200074c565b606091505b5090925090506200075f8282866200076a565b979650505050505050565b606083156200077b57508162000627565b8251156200078c5782518084602001fd5b8160405162461bcd60e51b815260040162000150919062000a88565b828054620007b69062000abd565b90600052602060002090601f016020900481019282620007da576000855562000825565b82601f10620007f557805160ff191683800117855562000825565b8280016001018555821562000825579182015b828111156200082557825182559160200191906001019062000808565b506200083392915062000837565b5090565b5b8082111562000833576000815560010162000838565b634e487b7160e01b600052604160045260246000fd5b60005b838110156200088157818101518382015260200162000867565b83811115620003e05750506000910152565b80516001600160a01b0381168114620008ab57600080fd5b919050565b80518015158114620008ab57600080fd5b600080600080600060a08688031215620008da57600080fd5b85516001600160401b0380821115620008f257600080fd5b818801915088601f8301126200090757600080fd5b8151818111156200091c576200091c6200084e565b604051601f8201601f19908116603f011681019083821181831017156200094757620009476200084e565b816040528281528b60208487010111156200096157600080fd5b6200097483602083016020880162000864565b809950505050505060208601519350620009916040870162000893565b9250620009a160608701620008b0565b9150620009b16080870162000893565b90509295509295909350565b600060208284031215620009d057600080fd5b620006278262000893565b634e487b7160e01b600052601160045260246000fd5b600060ff821660ff81141562000a0b5762000a0b620009db565b60010192915050565b600060001982141562000a2b5762000a2b620009db565b5060010190565b60006020828403121562000a4557600080fd5b5051919050565b60006020828403121562000a5f57600080fd5b6200062782620008b0565b6000825162000a7e81846020870162000864565b9190910192915050565b602081526000825180602084015262000aa981604085016020870162000864565b601f01601f19169190910160400192915050565b600181811c9082168062000ad257607f821691505b60208210811415620002f157634e487b7160e01b600052602260045260246000fd5b60805160a05160c051611e5562000b3960003960006113290152600061111e0152600081816101400152818161125a0152818161171a01526118850152611e556000f3fe6080604052600436106100f75760003560e01c80638da5cb5b1161008a578063de260f3711610059578063de260f37146102cf578063e61cf1dc1461030f578063ef99893a1461032f578063f2fde38b1461034f57600080fd5b80638da5cb5b146102445780639e8c708e1461026f578063a9e40e071461028f578063bc881467146102af57600080fd5b806369cff80d116100c657806369cff80d146101d9578063715018a6146101ef57806384a33e631461020457806388156e651461022457600080fd5b806306fdde031461010357806316f0115b1461012e578063427f91a61461018757806366b866f6146101c257600080fd5b366100fe57005b600080fd5b34801561010f57600080fd5b5061011861036f565b6040516101259190611b3f565b60405180910390f35b34801561013a57600080fd5b506101627f000000000000000000000000000000000000000000000000000000000000000081565b60405173ffffffffffffffffffffffffffffffffffffffff9091168152602001610125565b34801561019357600080fd5b506101b46101a2366004611bb2565b60046020526000908152604090205481565b604051908152602001610125565b3480156101ce57600080fd5b506101d76103fd565b005b3480156101e557600080fd5b506101b460025481565b3480156101fb57600080fd5b506101d76105d7565b34801561021057600080fd5b506101d761021f366004611bcf565b610664565b34801561023057600080fd5b506101b461023f366004611be8565b610722565b34801561025057600080fd5b5060005473ffffffffffffffffffffffffffffffffffffffff16610162565b34801561027b57600080fd5b506101d761028a366004611bb2565b61096f565b34801561029b57600080fd5b506101626102aa366004611c3b565b610b5e565b3480156102bb57600080fd5b506101d76102ca366004611c3b565b610b69565b3480156102db57600080fd5b506102ff6102ea366004611bb2565b60036020526000908152604090205460ff1681565b6040519015158152602001610125565b34801561031b57600080fd5b506101d761032a366004611c3b565b610c0c565b34801561033b57600080fd5b506101b461034a366004611c74565b610c97565b34801561035b57600080fd5b506101d761036a366004611bb2565b610d03565b6001805461037c90611cb6565b80601f01602080910402602001604051908101604052809291908181526020018280546103a890611cb6565b80156103f55780601f106103ca576101008083540402835291602001916103f5565b820191906000526020600020905b8154815290600101906020018083116103d857829003601f168201915b505050505081565b60005473ffffffffffffffffffffffffffffffffffffffff163314610483576040517f08c379a000000000000000000000000000000000000000000000000000000000815260206004820181905260248201527f4f776e61626c653a2063616c6c6572206973206e6f7420746865206f776e657260448201526064015b60405180910390fd5b47806104eb576040517f08c379a000000000000000000000000000000000000000000000000000000000815260206004820152601b60248201527f416461707465723a204e6f7468696e6720746f207265636f7665720000000000604482015260640161047a565b6040518181526000907f8c1256b8896378cd5044f80c202f9772b9d77dc85c8a6eb51967210b09bfaa289060200160405180910390a2604051600090339083908381818185875af1925050503d8060008114610563576040519150601f19603f3d011682016040523d82523d6000602084013e610568565b606091505b50509050806105d3576040517f08c379a000000000000000000000000000000000000000000000000000000000815260206004820152601360248201527f474153207472616e73666572206661696c656400000000000000000000000000604482015260640161047a565b5050565b60005473ffffffffffffffffffffffffffffffffffffffff163314610658576040517f08c379a000000000000000000000000000000000000000000000000000000000815260206004820181905260248201527f4f776e61626c653a2063616c6c6572206973206e6f7420746865206f776e6572604482015260640161047a565b6106626000611047565b565b60005473ffffffffffffffffffffffffffffffffffffffff1633146106e5576040517f08c379a000000000000000000000000000000000000000000000000000000000815260206004820181905260248201527f4f776e61626c653a2063616c6c6572206973206e6f7420746865206f776e6572604482015260640161047a565b600281905560405181815230907ff43f23b7a28e6f8ce6843a21bd7b48bce778aa913b8c8cf459edf7d770e8d38a9060200160405180910390a250565b6000846107b1576040517f08c379a000000000000000000000000000000000000000000000000000000000815260206004820152602260248201527f416461707465723a20496e73756666696369656e7420696e70757420616d6f7560448201527f6e74000000000000000000000000000000000000000000000000000000000000606482015260840161047a565b73ffffffffffffffffffffffffffffffffffffffff8216610854576040517f08c379a000000000000000000000000000000000000000000000000000000000815260206004820152602260248201527f416461707465723a20746f2063616e6e6f74206265207a65726f20616464726560448201527f7373000000000000000000000000000000000000000000000000000000000000606482015260840161047a565b8273ffffffffffffffffffffffffffffffffffffffff168473ffffffffffffffffffffffffffffffffffffffff1614156108ea576040517f08c379a000000000000000000000000000000000000000000000000000000000815260206004820152601b60248201527f416461707465723a20546f6b656e73206d757374206469666665720000000000604482015260640161047a565b6108f484846110bc565b61095a576040517f08c379a000000000000000000000000000000000000000000000000000000000815260206004820152601760248201527f416461707465723a20756e6b6e6f776e20746f6b656e73000000000000000000604482015260640161047a565b6109668585858561111a565b95945050505050565b60005473ffffffffffffffffffffffffffffffffffffffff1633146109f0576040517f08c379a000000000000000000000000000000000000000000000000000000000815260206004820181905260248201527f4f776e61626c653a2063616c6c6572206973206e6f7420746865206f776e6572604482015260640161047a565b6040517f70a0823100000000000000000000000000000000000000000000000000000000815230600482015260009073ffffffffffffffffffffffffffffffffffffffff8316906370a0823190602401602060405180830381865afa158015610a5d573d6000803e3d6000fd5b505050506040513d601f19601f82011682018060405250810190610a819190611d0a565b905060008111610aed576040517f08c379a000000000000000000000000000000000000000000000000000000000815260206004820152601b60248201527f416461707465723a204e6f7468696e6720746f207265636f7665720000000000604482015260640161047a565b8173ffffffffffffffffffffffffffffffffffffffff167f8c1256b8896378cd5044f80c202f9772b9d77dc85c8a6eb51967210b09bfaa2882604051610b3591815260200190565b60405180910390a26105d373ffffffffffffffffffffffffffffffffffffffff8316338361116d565b6000305b9392505050565b60005473ffffffffffffffffffffffffffffffffffffffff163314610bea576040517f08c379a000000000000000000000000000000000000000000000000000000000815260206004820181905260248201527f4f776e61626c653a2063616c6c6572206973206e6f7420746865206f776e6572604482015260640161047a565b6105d373ffffffffffffffffffffffffffffffffffffffff8316826000610e33565b60005473ffffffffffffffffffffffffffffffffffffffff163314610c8d576040517f08c379a000000000000000000000000000000000000000000000000000000000815260206004820181905260248201527f4f776e61626c653a2063616c6c6572206973206e6f7420746865206f776e6572604482015260640161047a565b6105d382826111c3565b6000831580610cd157508173ffffffffffffffffffffffffffffffffffffffff168373ffffffffffffffffffffffffffffffffffffffff16145b80610ce35750610ce183836110bc565b155b15610cf057506000610b62565b610cfb8484846111ee565b949350505050565b60005473ffffffffffffffffffffffffffffffffffffffff163314610d84576040517f08c379a000000000000000000000000000000000000000000000000000000000815260206004820181905260248201527f4f776e61626c653a2063616c6c6572206973206e6f7420746865206f776e6572604482015260640161047a565b73ffffffffffffffffffffffffffffffffffffffff8116610e27576040517f08c379a000000000000000000000000000000000000000000000000000000000815260206004820152602660248201527f4f776e61626c653a206e6577206f776e657220697320746865207a65726f206160448201527f6464726573730000000000000000000000000000000000000000000000000000606482015260840161047a565b610e3081611047565b50565b801580610ed357506040517fdd62ed3e00000000000000000000000000000000000000000000000000000000815230600482015273ffffffffffffffffffffffffffffffffffffffff838116602483015284169063dd62ed3e90604401602060405180830381865afa158015610ead573d6000803e3d6000fd5b505050506040513d601f19601f82011682018060405250810190610ed19190611d0a565b155b610f5f576040517f08c379a000000000000000000000000000000000000000000000000000000000815260206004820152603660248201527f5361666545524332303a20617070726f76652066726f6d206e6f6e2d7a65726f60448201527f20746f206e6f6e2d7a65726f20616c6c6f77616e636500000000000000000000606482015260840161047a565b60405173ffffffffffffffffffffffffffffffffffffffff83166024820152604481018290526110339084907f095ea7b300000000000000000000000000000000000000000000000000000000906064015b604080517fffffffffffffffffffffffffffffffffffffffffffffffffffffffffffffffe08184030181529190526020810180517bffffffffffffffffffffffffffffffffffffffffffffffffffffffff167fffffffff0000000000000000000000000000000000000000000000000000000090931692909217909152611367565b505050565b6060610cfb8484600085611473565b6000805473ffffffffffffffffffffffffffffffffffffffff8381167fffffffffffffffffffffffff0000000000000000000000000000000000000000831681178455604051919092169283917f8be0079c531659141344cd1fd0a4f28419497f9722a3daafe3b4186f6b6457e09190a35050565b73ffffffffffffffffffffffffffffffffffffffff821660009081526003602052604081205460ff168015610b6257505073ffffffffffffffffffffffffffffffffffffffff1660009081526003602052604090205460ff16919050565b60007f0000000000000000000000000000000000000000000000000000000000000000156111555761114e85858585611609565b9050610cfb565b611160858585611812565b9050610cfb83828461196f565b60405173ffffffffffffffffffffffffffffffffffffffff83166024820152604481018290526110339084907fa9059cbb0000000000000000000000000000000000000000000000000000000090606401610fb1565b6105d3827fffffffffffffffffffffffffffffffffffffffffffffffffffffffffffffffff836119ad565b73ffffffffffffffffffffffffffffffffffffffff82811660009081526004602081905260408083205485851684528184205491517f85f11d1e0000000000000000000000000000000000000000000000000000000081529283015260248201526044810186905290917f000000000000000000000000000000000000000000000000000000000000000016906385f11d1e90606401602060405180830381865afa9250505080156112db575060408051601f3d9081017fffffffffffffffffffffffffffffffffffffffffffffffffffffffffffffffe01682019092526112d891810190611d0a565b60015b6112e757506000610b62565b806112f35760006112fe565b6112fe600182611d52565b91505073ffffffffffffffffffffffffffffffffffffffff83166000908152600460205260409020547f00000000000000000000000000000000000000000000000000000000000000001115610b625761271061135d8261270c611d69565b610cfb9190611da6565b60006113c9826040518060400160405280602081526020017f5361666545524332303a206c6f772d6c6576656c2063616c6c206661696c65648152508573ffffffffffffffffffffffffffffffffffffffff166110389092919063ffffffff16565b80519091501561103357808060200190518101906113e79190611de1565b611033576040517f08c379a000000000000000000000000000000000000000000000000000000000815260206004820152602a60248201527f5361666545524332303a204552433230206f7065726174696f6e20646964206e60448201527f6f74207375636365656400000000000000000000000000000000000000000000606482015260840161047a565b606082471015611505576040517f08c379a000000000000000000000000000000000000000000000000000000000815260206004820152602660248201527f416464726573733a20696e73756666696369656e742062616c616e636520666f60448201527f722063616c6c0000000000000000000000000000000000000000000000000000606482015260840161047a565b73ffffffffffffffffffffffffffffffffffffffff85163b611583576040517f08c379a000000000000000000000000000000000000000000000000000000000815260206004820152601d60248201527f416464726573733a2063616c6c20746f206e6f6e2d636f6e7472616374000000604482015260640161047a565b6000808673ffffffffffffffffffffffffffffffffffffffff1685876040516115ac9190611e03565b60006040518083038185875af1925050503d80600081146115e9576040519150601f19603f3d011682016040523d82523d6000602084013e6115ee565b606091505b50915091506115fe828286611ac0565b979650505050505050565b6040517f70a0823100000000000000000000000000000000000000000000000000000000815273ffffffffffffffffffffffffffffffffffffffff8281166004830152600091908416906370a0823190602401602060405180830381865afa158015611679573d6000803e3d6000fd5b505050506040513d601f19601f8201168201806040525081019061169d9190611d0a565b73ffffffffffffffffffffffffffffffffffffffff85811660009081526004602081905260408083205488851684528184205491517fe2ad025a00000000000000000000000000000000000000000000000000000000815292830152602482015260448101899052606481019190915284821660848201529192507f0000000000000000000000000000000000000000000000000000000000000000169063e2ad025a9060a401600060405180830381600087803b15801561175e57600080fd5b505af1158015611772573d6000803e3d6000fd5b50506040517f70a0823100000000000000000000000000000000000000000000000000000000815273ffffffffffffffffffffffffffffffffffffffff8581166004830152849350861691506370a0823190602401602060405180830381865afa1580156117e4573d6000803e3d6000fd5b505050506040513d601f19601f820116820180604052508101906118089190611d0a565b6109669190611d52565b73ffffffffffffffffffffffffffffffffffffffff82811660009081526004602081905260408083205485851684528184205491517f65b2489b000000000000000000000000000000000000000000000000000000008152928301526024820152604481018690526064810182905290917f000000000000000000000000000000000000000000000000000000000000000016906365b2489b90608401600060405180830381600087803b1580156118c957600080fd5b505af11580156118dd573d6000803e3d6000fd5b50506040517f70a0823100000000000000000000000000000000000000000000000000000000815230600482015273ffffffffffffffffffffffffffffffffffffffff851692506370a082319150602401602060405180830381865afa15801561194b573d6000803e3d6000fd5b505050506040513d601f19601f82011682018060405250810190610cfb9190611d0a565b3073ffffffffffffffffffffffffffffffffffffffff8216146110335761103373ffffffffffffffffffffffffffffffffffffffff8416828461116d565b6040517fdd62ed3e00000000000000000000000000000000000000000000000000000000815230600482015273ffffffffffffffffffffffffffffffffffffffff82811660248301526000919085169063dd62ed3e90604401602060405180830381865afa158015611a23573d6000803e3d6000fd5b505050506040513d601f19601f82011682018060405250810190611a479190611d0a565b905082811015611aba578015611a7957611a7973ffffffffffffffffffffffffffffffffffffffff8516836000610e33565b611aba73ffffffffffffffffffffffffffffffffffffffff8516837fffffffffffffffffffffffffffffffffffffffffffffffffffffffffffffffff610e33565b50505050565b60608315611acf575081610b62565b825115611adf5782518084602001fd5b816040517f08c379a000000000000000000000000000000000000000000000000000000000815260040161047a9190611b3f565b60005b83811015611b2e578181015183820152602001611b16565b83811115611aba5750506000910152565b6020815260008251806020840152611b5e816040850160208701611b13565b601f017fffffffffffffffffffffffffffffffffffffffffffffffffffffffffffffffe0169190910160400192915050565b73ffffffffffffffffffffffffffffffffffffffff81168114610e3057600080fd5b600060208284031215611bc457600080fd5b8135610b6281611b90565b600060208284031215611be157600080fd5b5035919050565b60008060008060808587031215611bfe57600080fd5b843593506020850135611c1081611b90565b92506040850135611c2081611b90565b91506060850135611c3081611b90565b939692955090935050565b60008060408385031215611c4e57600080fd5b8235611c5981611b90565b91506020830135611c6981611b90565b809150509250929050565b600080600060608486031215611c8957600080fd5b833592506020840135611c9b81611b90565b91506040840135611cab81611b90565b809150509250925092565b600181811c90821680611cca57607f821691505b60208210811415611d04577f4e487b7100000000000000000000000000000000000000000000000000000000600052602260045260246000fd5b50919050565b600060208284031215611d1c57600080fd5b5051919050565b7f4e487b7100000000000000000000000000000000000000000000000000000000600052601160045260246000fd5b600082821015611d6457611d64611d23565b500390565b6000817fffffffffffffffffffffffffffffffffffffffffffffffffffffffffffffffff0483118215151615611da157611da1611d23565b500290565b600082611ddc577f4e487b7100000000000000000000000000000000000000000000000000000000600052601260045260246000fd5b500490565b600060208284031215611df357600080fd5b81518015158114610b6257600080fd5b60008251611e15818460208701611b13565b919091019291505056fea264697066735822122016f734d9041f18a0a308a9dfabdae6b31ea7365d39e27465ec5c7e806cffba6f64736f6c634300080b0033",
  "devdoc": {
    "kind": "dev",
    "methods": {
      "depositAddress(address,address)": {
        "returns": {
          "_0": "Address to transfer tokens in order for swap() to work"
        }
      },
      "owner()": {
        "details": "Returns the address of the current owner."
      },
      "query(uint256,address,address)": {
        "params": {
          "amountIn": "input amount in starting token",
          "tokenIn": "ERC20 token being sold",
          "tokenOut": "ERC20 token being bought"
        }
      },
      "recoverERC20(address)": {
        "params": {
          "token": "token to recover"
        }
      },
      "renounceOwnership()": {
        "details": "Leaves the contract without owner. It will not be possible to call `onlyOwner` functions anymore. Can only be called by the current owner. NOTE: Renouncing ownership will leave the contract without an owner, thereby removing any functionality that is only available to the owner."
      },
      "revokeTokenAllowance(address,address)": {
        "params": {
          "spender": "address",
          "token": "address"
        }
      },
      "setSwapGasEstimate(uint256)": {
        "details": "this is estimated amount of gas that's used by swap() implementation"
      },
      "swap(uint256,address,address,address)": {
        "params": {
          "amountIn": "input amount in starting token",
          "to": "address where swapped funds should be sent to",
          "tokenIn": "ERC20 token being sold",
          "tokenOut": "ERC20 token being bought"
        },
        "returns": {
          "amountOut": "amount of tokenOut tokens received in swap"
        }
      },
      "transferOwnership(address)": {
        "details": "Transfers ownership of the contract to a new account (`newOwner`). Can only be called by the current owner."
      }
    },
    "stateVariables": {
      "numberStablecoins": {
        "details": "Lending TriCrypto Adapter is using uint256 for indexes and is using exchange_underlying() for swaps"
      }
    },
    "version": 1
  },
  "userdoc": {
    "kind": "user",
    "methods": {
      "query(uint256,address,address)": {
        "notice": "Get query for a swap through this adapter"
      },
      "recoverERC20(address)": {
        "notice": "Recover ERC20 from contract"
      },
      "recoverGAS()": {
        "notice": "Recover GAS from contract"
      },
      "revokeTokenAllowance(address,address)": {
        "notice": "Revoke token allowance"
      },
      "swap(uint256,address,address,address)": {
        "notice": "Execute a swap with given input amount of tokens from tokenIn to tokenOut,         assuming input tokens were transferred to depositAddress(tokenIn, tokenOut)"
      }
    },
    "version": 1
  },
  "storageLayout": {
    "storage": [
      {
        "astId": 389,
        "contract": "contracts/router/adapters/curve/CurveLendingTriCryptoAdapter.sol:CurveLendingTriCryptoAdapter",
        "label": "_owner",
        "offset": 0,
        "slot": "0",
        "type": "t_address"
      },
      {
        "astId": 4048,
        "contract": "contracts/router/adapters/curve/CurveLendingTriCryptoAdapter.sol:CurveLendingTriCryptoAdapter",
        "label": "name",
        "offset": 0,
        "slot": "1",
        "type": "t_string_storage"
      },
      {
        "astId": 4050,
        "contract": "contracts/router/adapters/curve/CurveLendingTriCryptoAdapter.sol:CurveLendingTriCryptoAdapter",
        "label": "swapGasEstimate",
        "offset": 0,
        "slot": "2",
        "type": "t_uint256"
      },
      {
        "astId": 7279,
        "contract": "contracts/router/adapters/curve/CurveLendingTriCryptoAdapter.sol:CurveLendingTriCryptoAdapter",
        "label": "isPoolToken",
        "offset": 0,
        "slot": "3",
        "type": "t_mapping(t_address,t_bool)"
      },
      {
        "astId": 7848,
        "contract": "contracts/router/adapters/curve/CurveLendingTriCryptoAdapter.sol:CurveLendingTriCryptoAdapter",
        "label": "tokenIndex",
        "offset": 0,
        "slot": "4",
        "type": "t_mapping(t_address,t_uint256)"
      }
    ],
    "types": {
      "t_address": {
        "encoding": "inplace",
        "label": "address",
        "numberOfBytes": "20"
      },
      "t_bool": {
        "encoding": "inplace",
        "label": "bool",
        "numberOfBytes": "1"
      },
      "t_mapping(t_address,t_bool)": {
        "encoding": "mapping",
        "key": "t_address",
        "label": "mapping(address => bool)",
        "numberOfBytes": "32",
        "value": "t_bool"
      },
      "t_mapping(t_address,t_uint256)": {
        "encoding": "mapping",
        "key": "t_address",
        "label": "mapping(address => uint256)",
        "numberOfBytes": "32",
        "value": "t_uint256"
      },
      "t_string_storage": {
        "encoding": "bytes",
        "label": "string",
        "numberOfBytes": "32"
      },
      "t_uint256": {
        "encoding": "inplace",
        "label": "uint256",
        "numberOfBytes": "32"
      }
    }
  }
}