{
  "address": "0x1010d6F1Af51e4699Da34ACAdb3E8E672EE02F1E",
  "abi": [
    {
      "inputs": [
        {
          "internalType": "string",
          "name": "_name",
          "type": "string"
        },
        {
          "internalType": "uint256",
          "name": "_swapGasEstimate",
          "type": "uint256"
        },
        {
          "internalType": "address",
          "name": "_pool",
          "type": "address"
        },
        {
          "internalType": "bool",
          "name": "_directSwapSupported",
          "type": "bool"
        }
      ],
      "stateMutability": "nonpayable",
      "type": "constructor"
    },
    {
      "anonymous": false,
      "inputs": [
        {
          "indexed": true,
          "internalType": "address",
          "name": "previousOwner",
          "type": "address"
        },
        {
          "indexed": true,
          "internalType": "address",
          "name": "newOwner",
          "type": "address"
        }
      ],
      "name": "OwnershipTransferred",
      "type": "event"
    },
    {
      "anonymous": false,
      "inputs": [
        {
          "indexed": true,
          "internalType": "address",
          "name": "asset",
          "type": "address"
        },
        {
          "indexed": false,
          "internalType": "uint256",
          "name": "amount",
          "type": "uint256"
        }
      ],
      "name": "Recovered",
      "type": "event"
    },
    {
      "anonymous": false,
      "inputs": [
        {
          "indexed": true,
          "internalType": "address",
          "name": "adapter",
          "type": "address"
        },
        {
          "indexed": false,
          "internalType": "uint256",
          "name": "newEstimate",
          "type": "uint256"
        }
      ],
      "name": "UpdatedGasEstimate",
      "type": "event"
    },
    {
      "inputs": [
        {
          "internalType": "address",
          "name": "tokenIn",
          "type": "address"
        },
        {
          "internalType": "address",
          "name": "tokenOut",
          "type": "address"
        }
      ],
      "name": "depositAddress",
      "outputs": [
        {
          "internalType": "address",
          "name": "",
          "type": "address"
        }
      ],
      "stateMutability": "view",
      "type": "function"
    },
    {
      "inputs": [
        {
          "internalType": "address",
          "name": "",
          "type": "address"
        }
      ],
      "name": "isPoolToken",
      "outputs": [
        {
          "internalType": "bool",
          "name": "",
          "type": "bool"
        }
      ],
      "stateMutability": "view",
      "type": "function"
    },
    {
      "inputs": [],
      "name": "name",
      "outputs": [
        {
          "internalType": "string",
          "name": "",
          "type": "string"
        }
      ],
      "stateMutability": "view",
      "type": "function"
    },
    {
      "inputs": [],
      "name": "owner",
      "outputs": [
        {
          "internalType": "address",
          "name": "",
          "type": "address"
        }
      ],
      "stateMutability": "view",
      "type": "function"
    },
    {
      "inputs": [],
      "name": "pool",
      "outputs": [
        {
          "internalType": "contract ICurvePool",
          "name": "",
          "type": "address"
        }
      ],
      "stateMutability": "view",
      "type": "function"
    },
    {
      "inputs": [
        {
          "internalType": "uint256",
          "name": "amountIn",
          "type": "uint256"
        },
        {
          "internalType": "address",
          "name": "tokenIn",
          "type": "address"
        },
        {
          "internalType": "address",
          "name": "tokenOut",
          "type": "address"
        }
      ],
      "name": "query",
      "outputs": [
        {
          "internalType": "uint256",
          "name": "",
          "type": "uint256"
        }
      ],
      "stateMutability": "view",
      "type": "function"
    },
    {
      "inputs": [
        {
          "internalType": "contract IERC20",
          "name": "token",
          "type": "address"
        }
      ],
      "name": "recoverERC20",
      "outputs": [],
      "stateMutability": "nonpayable",
      "type": "function"
    },
    {
      "inputs": [],
      "name": "recoverGAS",
      "outputs": [],
      "stateMutability": "nonpayable",
      "type": "function"
    },
    {
      "inputs": [],
      "name": "renounceOwnership",
      "outputs": [],
      "stateMutability": "nonpayable",
      "type": "function"
    },
    {
      "inputs": [
        {
          "internalType": "contract IERC20",
          "name": "token",
          "type": "address"
        },
        {
          "internalType": "address",
          "name": "spender",
          "type": "address"
        }
      ],
      "name": "revokeTokenAllowance",
      "outputs": [],
      "stateMutability": "nonpayable",
      "type": "function"
    },
    {
      "inputs": [
        {
          "internalType": "contract IERC20",
          "name": "token",
          "type": "address"
        },
        {
          "internalType": "address",
          "name": "spender",
          "type": "address"
        }
      ],
      "name": "setInfiniteAllowance",
      "outputs": [],
      "stateMutability": "nonpayable",
      "type": "function"
    },
    {
      "inputs": [
        {
          "internalType": "uint256",
          "name": "_swapGasEstimate",
          "type": "uint256"
        }
      ],
      "name": "setSwapGasEstimate",
      "outputs": [],
      "stateMutability": "nonpayable",
      "type": "function"
    },
    {
      "inputs": [
        {
          "internalType": "uint256",
          "name": "amountIn",
          "type": "uint256"
        },
        {
          "internalType": "address",
          "name": "tokenIn",
          "type": "address"
        },
        {
          "internalType": "address",
          "name": "tokenOut",
          "type": "address"
        },
        {
          "internalType": "address",
          "name": "to",
          "type": "address"
        }
      ],
      "name": "swap",
      "outputs": [
        {
          "internalType": "uint256",
          "name": "amountOut",
          "type": "uint256"
        }
      ],
      "stateMutability": "nonpayable",
      "type": "function"
    },
    {
      "inputs": [],
      "name": "swapGasEstimate",
      "outputs": [
        {
          "internalType": "uint256",
          "name": "",
          "type": "uint256"
        }
      ],
      "stateMutability": "view",
      "type": "function"
    },
    {
      "inputs": [
        {
          "internalType": "address",
          "name": "",
          "type": "address"
        }
      ],
      "name": "tokenIndex",
      "outputs": [
        {
          "internalType": "int128",
          "name": "",
          "type": "int128"
        }
      ],
      "stateMutability": "view",
      "type": "function"
    },
    {
      "inputs": [
        {
          "internalType": "address",
          "name": "newOwner",
          "type": "address"
        }
      ],
      "name": "transferOwnership",
      "outputs": [],
      "stateMutability": "nonpayable",
      "type": "function"
    },
    {
      "stateMutability": "payable",
      "type": "receive"
    }
  ],
  "transactionHash": "0x6a8bcb5e3a6d235ed3c6897a01917f23450abba85cd9ee48906477084f6a618a",
  "args": [
    "Curve USDC pool on Avalanche",
    0,
    "0x3a43A5851A3e3E0e25A3c1089670269786be1577",
    true
  ],
  "solcInputHash": "981f38149fd49d3cec0cb27aa531a82e",
  "bytecode": "0x60c06040523480156200001157600080fd5b5060405162002ac538038062002ac583398101604081905262000034916200096b565b838383838383620000453362000093565b81516200005a9060019060208501906200085c565b506200006681620000e3565b50506001600160a01b03821660805280151560a0526200008562000180565b505050505050505062000b69565b600080546001600160a01b038381166001600160a01b0319831681178455604051919092169283917f8be0079c531659141344cd1fd0a4f28419497f9722a3daafe3b4186f6b6457e09190a35050565b6000546001600160a01b03163314620001435760405162461bcd60e51b815260206004820181905260248201527f4f776e61626c653a2063616c6c6572206973206e6f7420746865206f776e657260448201526064015b60405180910390fd5b600281905560405181815230907ff43f23b7a28e6f8ce6843a21bd7b48bce778aa913b8c8cf459edf7d770e8d38a9060200160405180910390a250565b60005b60805160405163c661065760e01b815260ff831660048201526001600160a01b039091169063c661065790602401602060405180830381865afa925050508015620001ed575060408051601f3d908101601f19168201909252620001ea9181019062000a54565b60015b620001f55750565b6200020181836200022b565b6200021581608051620002bb60201b60201c565b5080620002228162000a72565b91505062000183565b6001600160a01b0382166000908152600360209081526040909120805460ff1916600117905562000280906200026f9060ff84169062000e49620002ce821b17901c565b6200033e60201b62000eff1760201c565b6001600160a01b0392909216600090815260046020526040902080546001600160801b0319166001600160801b039093169290921790915550565b620002ca8260001983620003be565b5050565b60006001600160ff1b038211156200033a5760405162461bcd60e51b815260206004820152602860248201527f53616665436173743a2076616c756520646f65736e27742066697420696e2061604482015267371034b73a191a9b60c11b60648201526084016200013a565b5090565b600060016001607f1b0319821280159062000360575060016001607f1b038213155b6200033a5760405162461bcd60e51b815260206004820152602760248201527f53616665436173743a2076616c756520646f65736e27742066697420696e20316044820152663238206269747360c81b60648201526084016200013a565b604051636eb1769f60e11b81523060048201526001600160a01b0382811660248301526000919085169063dd62ed3e90604401602060405180830381865afa1580156200040f573d6000803e3d6000fd5b505050506040513d601f19601f8201168201806040525081019062000435919062000aa1565b905082811015620004945780156200046d576200046d826000866001600160a01b03166200049a60201b62000fcd179092919060201c565b6200049482600019866001600160a01b03166200049a60201b62000fcd179092919060201c565b50505050565b801580620005185750604051636eb1769f60e11b81523060048201526001600160a01b03838116602483015284169063dd62ed3e90604401602060405180830381865afa158015620004f0573d6000803e3d6000fd5b505050506040513d601f19601f8201168201806040525081019062000516919062000aa1565b155b6200058c5760405162461bcd60e51b815260206004820152603660248201527f5361666545524332303a20617070726f76652066726f6d206e6f6e2d7a65726f60448201527f20746f206e6f6e2d7a65726f20616c6c6f77616e63650000000000000000000060648201526084016200013a565b604080516001600160a01b038416602482015260448082018490528251808303909101815260649091019091526020810180516001600160e01b0390811663095ea7b360e01b17909152620005e4918591620005e916565b505050565b600062000645826040518060400160405280602081526020017f5361666545524332303a206c6f772d6c6576656c2063616c6c206661696c6564815250856001600160a01b0316620006c760201b620011d2179092919060201c565b805190915015620005e4578080602001905181019062000666919062000abb565b620005e45760405162461bcd60e51b815260206004820152602a60248201527f5361666545524332303a204552433230206f7065726174696f6e20646964206e6044820152691bdd081cdd58d8d9595960b21b60648201526084016200013a565b6060620006d88484600085620006e2565b90505b9392505050565b606082471015620007455760405162461bcd60e51b815260206004820152602660248201527f416464726573733a20696e73756666696369656e742062616c616e636520666f6044820152651c8818d85b1b60d21b60648201526084016200013a565b6001600160a01b0385163b6200079e5760405162461bcd60e51b815260206004820152601d60248201527f416464726573733a2063616c6c20746f206e6f6e2d636f6e747261637400000060448201526064016200013a565b600080866001600160a01b03168587604051620007bc919062000ad9565b60006040518083038185875af1925050503d8060008114620007fb576040519150601f19603f3d011682016040523d82523d6000602084013e62000800565b606091505b509092509050620008138282866200081e565b979650505050505050565b606083156200082f575081620006db565b825115620008405782518084602001fd5b8160405162461bcd60e51b81526004016200013a919062000af7565b8280546200086a9062000b2c565b90600052602060002090601f0160209004810192826200088e5760008555620008d9565b82601f10620008a957805160ff1916838001178555620008d9565b82800160010185558215620008d9579182015b82811115620008d9578251825591602001919060010190620008bc565b506200033a9291505b808211156200033a5760008155600101620008e2565b634e487b7160e01b600052604160045260246000fd5b60005b838110156200092b57818101518382015260200162000911565b83811115620004945750506000910152565b80516001600160a01b03811681146200095557600080fd5b919050565b805180151581146200095557600080fd5b600080600080608085870312156200098257600080fd5b84516001600160401b03808211156200099a57600080fd5b818701915087601f830112620009af57600080fd5b815181811115620009c457620009c4620008f8565b604051601f8201601f19908116603f01168101908382118183101715620009ef57620009ef620008f8565b816040528281528a602084870101111562000a0957600080fd5b62000a1c8360208301602088016200090e565b80985050505050506020850151925062000a39604086016200093d565b915062000a49606086016200095a565b905092959194509250565b60006020828403121562000a6757600080fd5b620006db826200093d565b600060ff821660ff81141562000a9857634e487b7160e01b600052601160045260246000fd5b60010192915050565b60006020828403121562000ab457600080fd5b5051919050565b60006020828403121562000ace57600080fd5b620006db826200095a565b6000825162000aed8184602087016200090e565b9190910192915050565b602081526000825180602084015262000b188160408501602087016200090e565b601f01601f19169190910160400192915050565b600181811c9082168062000b4157607f821691505b6020821081141562000b6357634e487b7160e01b600052602260045260246000fd5b50919050565b60805160a051611f2162000ba460003960006112b8015260008181610140015281816113fd0152818161185d01526119d10152611f216000f3fe6080604052600436106100f75760003560e01c80638da5cb5b1161008a578063de260f3711610059578063de260f37146102e5578063e61cf1dc14610325578063ef99893a14610345578063f2fde38b1461036557600080fd5b80638da5cb5b1461025a5780639e8c708e14610285578063a9e40e07146102a5578063bc881467146102c557600080fd5b806369cff80d116100c657806369cff80d146101e1578063715018a61461020557806384a33e631461021a57806388156e651461023a57600080fd5b806306fdde031461010357806316f0115b1461012e578063427f91a61461018757806366b866f6146101ca57600080fd5b366100fe57005b600080fd5b34801561010f57600080fd5b50610118610385565b6040516101259190611c8b565b60405180910390f35b34801561013a57600080fd5b506101627f000000000000000000000000000000000000000000000000000000000000000081565b60405173ffffffffffffffffffffffffffffffffffffffff9091168152602001610125565b34801561019357600080fd5b506101b76101a2366004611cfe565b600460205260009081526040902054600f0b81565b604051600f9190910b8152602001610125565b3480156101d657600080fd5b506101df610413565b005b3480156101ed57600080fd5b506101f760025481565b604051908152602001610125565b34801561021157600080fd5b506101df6105ed565b34801561022657600080fd5b506101df610235366004611d1b565b61067a565b34801561024657600080fd5b506101f7610255366004611d34565b610738565b34801561026657600080fd5b5060005473ffffffffffffffffffffffffffffffffffffffff16610162565b34801561029157600080fd5b506101df6102a0366004611cfe565b610985565b3480156102b157600080fd5b506101626102c0366004611d87565b610b74565b3480156102d157600080fd5b506101df6102e0366004611d87565b610b7f565b3480156102f157600080fd5b50610315610300366004611cfe565b60036020526000908152604090205460ff1681565b6040519015158152602001610125565b34801561033157600080fd5b506101df610340366004611d87565b610c22565b34801561035157600080fd5b506101f7610360366004611dc0565b610cad565b34801561037157600080fd5b506101df610380366004611cfe565b610d19565b6001805461039290611e02565b80601f01602080910402602001604051908101604052809291908181526020018280546103be90611e02565b801561040b5780601f106103e05761010080835404028352916020019161040b565b820191906000526020600020905b8154815290600101906020018083116103ee57829003601f168201915b505050505081565b60005473ffffffffffffffffffffffffffffffffffffffff163314610499576040517f08c379a000000000000000000000000000000000000000000000000000000000815260206004820181905260248201527f4f776e61626c653a2063616c6c6572206973206e6f7420746865206f776e657260448201526064015b60405180910390fd5b4780610501576040517f08c379a000000000000000000000000000000000000000000000000000000000815260206004820152601b60248201527f416461707465723a204e6f7468696e6720746f207265636f76657200000000006044820152606401610490565b6040518181526000907f8c1256b8896378cd5044f80c202f9772b9d77dc85c8a6eb51967210b09bfaa289060200160405180910390a2604051600090339083908381818185875af1925050503d8060008114610579576040519150601f19603f3d011682016040523d82523d6000602084013e61057e565b606091505b50509050806105e9576040517f08c379a000000000000000000000000000000000000000000000000000000000815260206004820152601360248201527f474153207472616e73666572206661696c6564000000000000000000000000006044820152606401610490565b5050565b60005473ffffffffffffffffffffffffffffffffffffffff16331461066e576040517f08c379a000000000000000000000000000000000000000000000000000000000815260206004820181905260248201527f4f776e61626c653a2063616c6c6572206973206e6f7420746865206f776e65726044820152606401610490565b61067860006111e1565b565b60005473ffffffffffffffffffffffffffffffffffffffff1633146106fb576040517f08c379a000000000000000000000000000000000000000000000000000000000815260206004820181905260248201527f4f776e61626c653a2063616c6c6572206973206e6f7420746865206f776e65726044820152606401610490565b600281905560405181815230907ff43f23b7a28e6f8ce6843a21bd7b48bce778aa913b8c8cf459edf7d770e8d38a9060200160405180910390a250565b6000846107c7576040517f08c379a000000000000000000000000000000000000000000000000000000000815260206004820152602260248201527f416461707465723a20496e73756666696369656e7420696e70757420616d6f7560448201527f6e740000000000000000000000000000000000000000000000000000000000006064820152608401610490565b73ffffffffffffffffffffffffffffffffffffffff821661086a576040517f08c379a000000000000000000000000000000000000000000000000000000000815260206004820152602260248201527f416461707465723a20746f2063616e6e6f74206265207a65726f20616464726560448201527f73730000000000000000000000000000000000000000000000000000000000006064820152608401610490565b8273ffffffffffffffffffffffffffffffffffffffff168473ffffffffffffffffffffffffffffffffffffffff161415610900576040517f08c379a000000000000000000000000000000000000000000000000000000000815260206004820152601b60248201527f416461707465723a20546f6b656e73206d7573742064696666657200000000006044820152606401610490565b61090a8484611256565b610970576040517f08c379a000000000000000000000000000000000000000000000000000000000815260206004820152601760248201527f416461707465723a20756e6b6e6f776e20746f6b656e730000000000000000006044820152606401610490565b61097c858585856112b4565b95945050505050565b60005473ffffffffffffffffffffffffffffffffffffffff163314610a06576040517f08c379a000000000000000000000000000000000000000000000000000000000815260206004820181905260248201527f4f776e61626c653a2063616c6c6572206973206e6f7420746865206f776e65726044820152606401610490565b6040517f70a0823100000000000000000000000000000000000000000000000000000000815230600482015260009073ffffffffffffffffffffffffffffffffffffffff8316906370a0823190602401602060405180830381865afa158015610a73573d6000803e3d6000fd5b505050506040513d601f19601f82011682018060405250810190610a979190611e56565b905060008111610b03576040517f08c379a000000000000000000000000000000000000000000000000000000000815260206004820152601b60248201527f416461707465723a204e6f7468696e6720746f207265636f76657200000000006044820152606401610490565b8173ffffffffffffffffffffffffffffffffffffffff167f8c1256b8896378cd5044f80c202f9772b9d77dc85c8a6eb51967210b09bfaa2882604051610b4b91815260200190565b60405180910390a26105e973ffffffffffffffffffffffffffffffffffffffff83163383611307565b6000305b9392505050565b60005473ffffffffffffffffffffffffffffffffffffffff163314610c00576040517f08c379a000000000000000000000000000000000000000000000000000000000815260206004820181905260248201527f4f776e61626c653a2063616c6c6572206973206e6f7420746865206f776e65726044820152606401610490565b6105e973ffffffffffffffffffffffffffffffffffffffff8316826000610fcd565b60005473ffffffffffffffffffffffffffffffffffffffff163314610ca3576040517f08c379a000000000000000000000000000000000000000000000000000000000815260206004820181905260248201527f4f776e61626c653a2063616c6c6572206973206e6f7420746865206f776e65726044820152606401610490565b6105e9828261135d565b6000831580610ce757508173ffffffffffffffffffffffffffffffffffffffff168373ffffffffffffffffffffffffffffffffffffffff16145b80610cf95750610cf78383611256565b155b15610d0657506000610b78565b610d11848484611388565b949350505050565b60005473ffffffffffffffffffffffffffffffffffffffff163314610d9a576040517f08c379a000000000000000000000000000000000000000000000000000000000815260206004820181905260248201527f4f776e61626c653a2063616c6c6572206973206e6f7420746865206f776e65726044820152606401610490565b73ffffffffffffffffffffffffffffffffffffffff8116610e3d576040517f08c379a000000000000000000000000000000000000000000000000000000000815260206004820152602660248201527f4f776e61626c653a206e6577206f776e657220697320746865207a65726f206160448201527f64647265737300000000000000000000000000000000000000000000000000006064820152608401610490565b610e46816111e1565b50565b60007f7fffffffffffffffffffffffffffffffffffffffffffffffffffffffffffffff821115610efb576040517f08c379a000000000000000000000000000000000000000000000000000000000815260206004820152602860248201527f53616665436173743a2076616c756520646f65736e27742066697420696e206160448201527f6e20696e743235360000000000000000000000000000000000000000000000006064820152608401610490565b5090565b60007fffffffffffffffffffffffffffffffff800000000000000000000000000000008212801590610f4157506f7fffffffffffffffffffffffffffffff8213155b610efb576040517f08c379a000000000000000000000000000000000000000000000000000000000815260206004820152602760248201527f53616665436173743a2076616c756520646f65736e27742066697420696e203160448201527f32382062697473000000000000000000000000000000000000000000000000006064820152608401610490565b80158061106d57506040517fdd62ed3e00000000000000000000000000000000000000000000000000000000815230600482015273ffffffffffffffffffffffffffffffffffffffff838116602483015284169063dd62ed3e90604401602060405180830381865afa158015611047573d6000803e3d6000fd5b505050506040513d601f19601f8201168201806040525081019061106b9190611e56565b155b6110f9576040517f08c379a000000000000000000000000000000000000000000000000000000000815260206004820152603660248201527f5361666545524332303a20617070726f76652066726f6d206e6f6e2d7a65726f60448201527f20746f206e6f6e2d7a65726f20616c6c6f77616e6365000000000000000000006064820152608401610490565b60405173ffffffffffffffffffffffffffffffffffffffff83166024820152604481018290526111cd9084907f095ea7b300000000000000000000000000000000000000000000000000000000906064015b604080517fffffffffffffffffffffffffffffffffffffffffffffffffffffffffffffffe08184030181529190526020810180517bffffffffffffffffffffffffffffffffffffffffffffffffffffffff167fffffffff00000000000000000000000000000000000000000000000000000000909316929092179091526114a1565b505050565b6060610d1184846000856115ad565b6000805473ffffffffffffffffffffffffffffffffffffffff8381167fffffffffffffffffffffffff0000000000000000000000000000000000000000831681178455604051919092169283917f8be0079c531659141344cd1fd0a4f28419497f9722a3daafe3b4186f6b6457e09190a35050565b73ffffffffffffffffffffffffffffffffffffffff821660009081526003602052604081205460ff168015610b7857505073ffffffffffffffffffffffffffffffffffffffff1660009081526003602052604090205460ff16919050565b60007f0000000000000000000000000000000000000000000000000000000000000000156112ef576112e885858585611743565b9050610d11565b6112fa858585611955565b9050610d11838284611abb565b60405173ffffffffffffffffffffffffffffffffffffffff83166024820152604481018290526111cd9084907fa9059cbb000000000000000000000000000000000000000000000000000000009060640161114b565b6105e9827fffffffffffffffffffffffffffffffffffffffffffffffffffffffffffffffff83611af9565b73ffffffffffffffffffffffffffffffffffffffff82811660009081526004602081905260408083205485851684528184205491517f5e0d443f000000000000000000000000000000000000000000000000000000008152600f91820b938101939093520b60248201526044810186905290917f00000000000000000000000000000000000000000000000000000000000000001690635e0d443f90606401602060405180830381865afa92505050801561147e575060408051601f3d9081017fffffffffffffffffffffffffffffffffffffffffffffffffffffffffffffffe016820190925261147b91810190611e56565b60015b61148a57506000610b78565b8061149657600061097c565b61097c600182611e6f565b6000611503826040518060400160405280602081526020017f5361666545524332303a206c6f772d6c6576656c2063616c6c206661696c65648152508573ffffffffffffffffffffffffffffffffffffffff166111d29092919063ffffffff16565b8051909150156111cd57808060200190518101906115219190611ead565b6111cd576040517f08c379a000000000000000000000000000000000000000000000000000000000815260206004820152602a60248201527f5361666545524332303a204552433230206f7065726174696f6e20646964206e60448201527f6f742073756363656564000000000000000000000000000000000000000000006064820152608401610490565b60608247101561163f576040517f08c379a000000000000000000000000000000000000000000000000000000000815260206004820152602660248201527f416464726573733a20696e73756666696369656e742062616c616e636520666f60448201527f722063616c6c00000000000000000000000000000000000000000000000000006064820152608401610490565b73ffffffffffffffffffffffffffffffffffffffff85163b6116bd576040517f08c379a000000000000000000000000000000000000000000000000000000000815260206004820152601d60248201527f416464726573733a2063616c6c20746f206e6f6e2d636f6e74726163740000006044820152606401610490565b6000808673ffffffffffffffffffffffffffffffffffffffff1685876040516116e69190611ecf565b60006040518083038185875af1925050503d8060008114611723576040519150601f19603f3d011682016040523d82523d6000602084013e611728565b606091505b5091509150611738828286611c0c565b979650505050505050565b6040517f70a0823100000000000000000000000000000000000000000000000000000000815273ffffffffffffffffffffffffffffffffffffffff8281166004830152600091908416906370a0823190602401602060405180830381865afa1580156117b3573d6000803e3d6000fd5b505050506040513d601f19601f820116820180604052508101906117d79190611e56565b73ffffffffffffffffffffffffffffffffffffffff85811660009081526004602081905260408083205488851684528184205491517fddc1f59d000000000000000000000000000000000000000000000000000000008152600f91820b938101939093520b602482015260448101899052606481019190915284821660848201529192507f0000000000000000000000000000000000000000000000000000000000000000169063ddc1f59d9060a401600060405180830381600087803b1580156118a157600080fd5b505af11580156118b5573d6000803e3d6000fd5b50506040517f70a0823100000000000000000000000000000000000000000000000000000000815273ffffffffffffffffffffffffffffffffffffffff8581166004830152849350861691506370a0823190602401602060405180830381865afa158015611927573d6000803e3d6000fd5b505050506040513d601f19601f8201168201806040525081019061194b9190611e56565b61097c9190611e6f565b73ffffffffffffffffffffffffffffffffffffffff82811660009081526004602081905260408083205485851684528184205491517f3df02124000000000000000000000000000000000000000000000000000000008152600f91820b938101939093520b6024820152604481018690526064810182905290917f00000000000000000000000000000000000000000000000000000000000000001690633df0212490608401600060405180830381600087803b158015611a1557600080fd5b505af1158015611a29573d6000803e3d6000fd5b50506040517f70a0823100000000000000000000000000000000000000000000000000000000815230600482015273ffffffffffffffffffffffffffffffffffffffff851692506370a082319150602401602060405180830381865afa158015611a97573d6000803e3d6000fd5b505050506040513d601f19601f82011682018060405250810190610d119190611e56565b3073ffffffffffffffffffffffffffffffffffffffff8216146111cd576111cd73ffffffffffffffffffffffffffffffffffffffff84168284611307565b6040517fdd62ed3e00000000000000000000000000000000000000000000000000000000815230600482015273ffffffffffffffffffffffffffffffffffffffff82811660248301526000919085169063dd62ed3e90604401602060405180830381865afa158015611b6f573d6000803e3d6000fd5b505050506040513d601f19601f82011682018060405250810190611b939190611e56565b905082811015611c06578015611bc557611bc573ffffffffffffffffffffffffffffffffffffffff8516836000610fcd565b611c0673ffffffffffffffffffffffffffffffffffffffff8516837fffffffffffffffffffffffffffffffffffffffffffffffffffffffffffffffff610fcd565b50505050565b60608315611c1b575081610b78565b825115611c2b5782518084602001fd5b816040517f08c379a00000000000000000000000000000000000000000000000000000000081526004016104909190611c8b565b60005b83811015611c7a578181015183820152602001611c62565b83811115611c065750506000910152565b6020815260008251806020840152611caa816040850160208701611c5f565b601f017fffffffffffffffffffffffffffffffffffffffffffffffffffffffffffffffe0169190910160400192915050565b73ffffffffffffffffffffffffffffffffffffffff81168114610e4657600080fd5b600060208284031215611d1057600080fd5b8135610b7881611cdc565b600060208284031215611d2d57600080fd5b5035919050565b60008060008060808587031215611d4a57600080fd5b843593506020850135611d5c81611cdc565b92506040850135611d6c81611cdc565b91506060850135611d7c81611cdc565b939692955090935050565b60008060408385031215611d9a57600080fd5b8235611da581611cdc565b91506020830135611db581611cdc565b809150509250929050565b600080600060608486031215611dd557600080fd5b833592506020840135611de781611cdc565b91506040840135611df781611cdc565b809150509250925092565b600181811c90821680611e1657607f821691505b60208210811415611e50577f4e487b7100000000000000000000000000000000000000000000000000000000600052602260045260246000fd5b50919050565b600060208284031215611e6857600080fd5b5051919050565b600082821015611ea8577f4e487b7100000000000000000000000000000000000000000000000000000000600052601160045260246000fd5b500390565b600060208284031215611ebf57600080fd5b81518015158114610b7857600080fd5b60008251611ee1818460208701611c5f565b919091019291505056fea2646970667358221220a4af079a08194a9cb3b166dca60d91a7a8ab929add4152841d70e31856fd933364736f6c634300080b0033",
  "devdoc": {
    "kind": "dev",
    "methods": {
      "depositAddress(address,address)": {
        "returns": {
          "_0": "Address to transfer tokens in order for swap() to work"
        }
      },
      "owner()": {
        "details": "Returns the address of the current owner."
      },
      "query(uint256,address,address)": {
        "params": {
          "amountIn": "input amount in starting token",
          "tokenIn": "ERC20 token being sold",
          "tokenOut": "ERC20 token being bought"
        }
      },
      "recoverERC20(address)": {
        "params": {
          "token": "token to recover"
        }
      },
      "renounceOwnership()": {
        "details": "Leaves the contract without owner. It will not be possible to call `onlyOwner` functions anymore. Can only be called by the current owner. NOTE: Renouncing ownership will leave the contract without an owner, thereby removing any functionality that is only available to the owner."
      },
      "revokeTokenAllowance(address,address)": {
        "params": {
          "spender": "address",
          "token": "address"
        }
      },
      "setSwapGasEstimate(uint256)": {
        "details": "this is estimated amount of gas that's used by swap() implementation"
      },
      "swap(uint256,address,address,address)": {
        "params": {
          "amountIn": "input amount in starting token",
          "to": "address where swapped funds should be sent to",
          "tokenIn": "ERC20 token being sold",
          "tokenOut": "ERC20 token being bought"
        },
        "returns": {
          "amountOut": "amount of tokenOut tokens received in swap"
        }
      },
      "transferOwnership(address)": {
        "details": "Transfers ownership of the contract to a new account (`newOwner`). Can only be called by the current owner."
      }
    },
    "stateVariables": {
      "tokenIndex": {
        "details": "Base Adapter is using int128 for indexes and is using exchange() for swaps"
      }
    },
    "version": 1
  },
  "userdoc": {
    "kind": "user",
    "methods": {
      "query(uint256,address,address)": {
        "notice": "Get query for a swap through this adapter"
      },
      "recoverERC20(address)": {
        "notice": "Recover ERC20 from contract"
      },
      "recoverGAS()": {
        "notice": "Recover GAS from contract"
      },
      "revokeTokenAllowance(address,address)": {
        "notice": "Revoke token allowance"
      },
      "swap(uint256,address,address,address)": {
        "notice": "Execute a swap with given input amount of tokens from tokenIn to tokenOut,         assuming input tokens were transferred to depositAddress(tokenIn, tokenOut)"
      }
    },
    "version": 1
  },
  "storageLayout": {
    "storage": [
      {
        "astId": 389,
        "contract": "contracts/router/adapters/curve/CurveBaseAdapter.sol:CurveBaseAdapter",
        "label": "_owner",
        "offset": 0,
        "slot": "0",
        "type": "t_address"
      },
      {
        "astId": 4048,
        "contract": "contracts/router/adapters/curve/CurveBaseAdapter.sol:CurveBaseAdapter",
        "label": "name",
        "offset": 0,
        "slot": "1",
        "type": "t_string_storage"
      },
      {
        "astId": 4050,
        "contract": "contracts/router/adapters/curve/CurveBaseAdapter.sol:CurveBaseAdapter",
        "label": "swapGasEstimate",
        "offset": 0,
        "slot": "2",
        "type": "t_uint256"
      },
      {
        "astId": 7279,
        "contract": "contracts/router/adapters/curve/CurveBaseAdapter.sol:CurveBaseAdapter",
        "label": "isPoolToken",
        "offset": 0,
        "slot": "3",
        "type": "t_mapping(t_address,t_bool)"
      },
      {
        "astId": 7474,
        "contract": "contracts/router/adapters/curve/CurveBaseAdapter.sol:CurveBaseAdapter",
        "label": "tokenIndex",
        "offset": 0,
        "slot": "4",
        "type": "t_mapping(t_address,t_int128)"
      }
    ],
    "types": {
      "t_address": {
        "encoding": "inplace",
        "label": "address",
        "numberOfBytes": "20"
      },
      "t_bool": {
        "encoding": "inplace",
        "label": "bool",
        "numberOfBytes": "1"
      },
      "t_int128": {
        "encoding": "inplace",
        "label": "int128",
        "numberOfBytes": "16"
      },
      "t_mapping(t_address,t_bool)": {
        "encoding": "mapping",
        "key": "t_address",
        "label": "mapping(address => bool)",
        "numberOfBytes": "32",
        "value": "t_bool"
      },
      "t_mapping(t_address,t_int128)": {
        "encoding": "mapping",
        "key": "t_address",
        "label": "mapping(address => int128)",
        "numberOfBytes": "32",
        "value": "t_int128"
      },
      "t_string_storage": {
        "encoding": "bytes",
        "label": "string",
        "numberOfBytes": "32"
      },
      "t_uint256": {
        "encoding": "inplace",
        "label": "uint256",
        "numberOfBytes": "32"
      }
    }
  }
}