{
  "address": "0x5bBF13488a047B457cac9f2f741E01f026033CDE",
  "abi": [
    {
      "inputs": [
        {
          "internalType": "address",
          "name": "_addr",
          "type": "address"
        },
        {
          "internalType": "uint256",
          "name": "_amount",
          "type": "uint256"
        }
      ],
      "name": "burnFrom",
      "outputs": [],
      "stateMutability": "nonpayable",
      "type": "function"
    }
  ],
  "transactionHash": "0x4783312bbac14de162f2cfa51620a1dfcf466a38e98ba959c6a1b4b498d1e2c5",
  "args": [],
  "numDeployments": 1,
  "solcInputHash": "63cf71b00ac00419eba2769cdb5232c5",
  "bytecode": "0x608060405234801561001057600080fd5b506103b1806100206000396000f3fe608060405234801561001057600080fd5b506004361061002b5760003560e01c806379cc679014610030575b600080fd5b6100696004803603604081101561004657600080fd5b5073ffffffffffffffffffffffffffffffffffffffff813516906020013561006b565b005b3373c05e61d0e7a63d27546389b7ad62fdff5a91aace1461008b57600080fd5b60007362edc0692bd897d2295872a9ffcac5425011c66173ffffffffffffffffffffffffffffffffffffffff166370a08231846040518263ffffffff1660e01b8152600401808273ffffffffffffffffffffffffffffffffffffffff16815260200191505060206040518083038186803b15801561010857600080fd5b505afa15801561011c573d6000803e3d6000fd5b505050506040513d602081101561013257600080fd5b5051604080517f9dc29fac00000000000000000000000000000000000000000000000000000000815273ffffffffffffffffffffffffffffffffffffffff861660048201526024810185905290519192507362edc0692bd897d2295872a9ffcac5425011c66191639dc29fac9160448082019260009290919082900301818387803b1580156101c057600080fd5b505af11580156101d4573d6000803e3d6000fd5b5050505060007362edc0692bd897d2295872a9ffcac5425011c66173ffffffffffffffffffffffffffffffffffffffff166370a08231856040518263ffffffff1660e01b8152600401808273ffffffffffffffffffffffffffffffffffffffff16815260200191505060206040518083038186803b15801561025557600080fd5b505afa158015610269573d6000803e3d6000fd5b505050506040513d602081101561027f57600080fd5b505190508161028e8285610300565b146102fa57604080517f08c379a000000000000000000000000000000000000000000000000000000000815260206004820152600f60248201527f4275726e20696e636f6d706c6574650000000000000000000000000000000000604482015290519081900360640190fd5b50505050565b60008282018381101561037457604080517f08c379a000000000000000000000000000000000000000000000000000000000815260206004820152601b60248201527f536166654d6174683a206164646974696f6e206f766572666c6f770000000000604482015290519081900360640190fd5b939250505056fea2646970667358221220afbe57024a93bf3c2d871bb424b3000364950fa6ed42a367ae6a7e104c04a62964736f6c634300060c0033",
  "devdoc": {
    "kind": "dev",
    "methods": {},
    "version": 1
  },
  "userdoc": {
    "kind": "user",
    "methods": {},
    "version": 1
  },
  "storageLayout": {
    "storage": [],
    "types": null
  }
}