{
  "address": "0xAb325cDEc65823bA15d265cf68674aB7aFFd44c3",
  "abi": [
    {
      "inputs": [
        {
          "internalType": "address payable",
          "name": "_wethAddress",
          "type": "address"
        },
        {
          "internalType": "address",
          "name": "_swapOne",
          "type": "address"
        },
        {
          "internalType": "address",
          "name": "tokenOne",
          "type": "address"
        },
        {
          "internalType": "address",
          "name": "_swapTwo",
          "type": "address"
        },
        {
          "internalType": "address",
          "name": "tokenTwo",
          "type": "address"
        },
        {
          "internalType": "contract ISynapseBridge",
          "name": "_synapseBridge",
          "type": "address"
        }
      ],
      "stateMutability": "nonpayable",
      "type": "constructor"
    },
    {
      "inputs": [],
      "name": "WETH_ADDRESS",
      "outputs": [
        {
          "internalType": "address payable",
          "name": "",
          "type": "address"
        }
      ],
      "stateMutability": "view",
      "type": "function"
    },
    {
      "inputs": [
        {
          "internalType": "contract IERC20",
          "name": "token",
          "type": "address"
        },
        {
          "internalType": "uint8",
          "name": "tokenIndexFrom",
          "type": "uint8"
        },
        {
          "internalType": "uint8",
          "name": "tokenIndexTo",
          "type": "uint8"
        },
        {
          "internalType": "uint256",
          "name": "dx",
          "type": "uint256"
        }
      ],
      "name": "calculateSwap",
      "outputs": [
        {
          "internalType": "uint256",
          "name": "",
          "type": "uint256"
        }
      ],
      "stateMutability": "view",
      "type": "function"
    },
    {
      "inputs": [
        {
          "internalType": "address",
          "name": "to",
          "type": "address"
        },
        {
          "internalType": "uint256",
          "name": "chainId",
          "type": "uint256"
        },
        {
          "internalType": "contract IERC20",
          "name": "token",
          "type": "address"
        },
        {
          "internalType": "uint256",
          "name": "amount",
          "type": "uint256"
        }
      ],
      "name": "deposit",
      "outputs": [],
      "stateMutability": "nonpayable",
      "type": "function"
    },
    {
      "inputs": [
        {
          "internalType": "address",
          "name": "to",
          "type": "address"
        },
        {
          "internalType": "uint256",
          "name": "chainId",
          "type": "uint256"
        },
        {
          "internalType": "uint256",
          "name": "amount",
          "type": "uint256"
        }
      ],
      "name": "depositETH",
      "outputs": [],
      "stateMutability": "payable",
      "type": "function"
    },
    {
      "inputs": [
        {
          "internalType": "address",
          "name": "to",
          "type": "address"
        },
        {
          "internalType": "uint256",
          "name": "chainId",
          "type": "uint256"
        },
        {
          "internalType": "contract IERC20",
          "name": "token",
          "type": "address"
        },
        {
          "internalType": "uint256",
          "name": "amount",
          "type": "uint256"
        }
      ],
      "name": "redeem",
      "outputs": [],
      "stateMutability": "nonpayable",
      "type": "function"
    },
    {
      "inputs": [
        {
          "internalType": "address",
          "name": "to",
          "type": "address"
        },
        {
          "internalType": "uint256",
          "name": "chainId",
          "type": "uint256"
        },
        {
          "internalType": "contract IERC20",
          "name": "token",
          "type": "address"
        },
        {
          "internalType": "uint256",
          "name": "amount",
          "type": "uint256"
        },
        {
          "internalType": "uint8",
          "name": "liqTokenIndex",
          "type": "uint8"
        },
        {
          "internalType": "uint256",
          "name": "liqMinAmount",
          "type": "uint256"
        },
        {
          "internalType": "uint256",
          "name": "liqDeadline",
          "type": "uint256"
        }
      ],
      "name": "redeemAndRemove",
      "outputs": [],
      "stateMutability": "nonpayable",
      "type": "function"
    },
    {
      "inputs": [
        {
          "internalType": "address",
          "name": "to",
          "type": "address"
        },
        {
          "internalType": "uint256",
          "name": "chainId",
          "type": "uint256"
        },
        {
          "internalType": "contract IERC20",
          "name": "token",
          "type": "address"
        },
        {
          "internalType": "uint256",
          "name": "amount",
          "type": "uint256"
        },
        {
          "internalType": "uint8",
          "name": "tokenIndexFrom",
          "type": "uint8"
        },
        {
          "internalType": "uint8",
          "name": "tokenIndexTo",
          "type": "uint8"
        },
        {
          "internalType": "uint256",
          "name": "minDy",
          "type": "uint256"
        },
        {
          "internalType": "uint256",
          "name": "deadline",
          "type": "uint256"
        }
      ],
      "name": "redeemAndSwap",
      "outputs": [],
      "stateMutability": "nonpayable",
      "type": "function"
    },
    {
      "inputs": [
        {
          "internalType": "address",
          "name": "to",
          "type": "address"
        },
        {
          "internalType": "uint256",
          "name": "chainId",
          "type": "uint256"
        },
        {
          "internalType": "contract IERC20",
          "name": "token",
          "type": "address"
        },
        {
          "internalType": "uint8",
          "name": "tokenIndexFrom",
          "type": "uint8"
        },
        {
          "internalType": "uint8",
          "name": "tokenIndexTo",
          "type": "uint8"
        },
        {
          "internalType": "uint256",
          "name": "dx",
          "type": "uint256"
        },
        {
          "internalType": "uint256",
          "name": "minDy",
          "type": "uint256"
        },
        {
          "internalType": "uint256",
          "name": "deadline",
          "type": "uint256"
        }
      ],
      "name": "swapAndRedeem",
      "outputs": [],
      "stateMutability": "nonpayable",
      "type": "function"
    },
    {
      "inputs": [
        {
          "internalType": "address",
          "name": "to",
          "type": "address"
        },
        {
          "internalType": "uint256",
          "name": "chainId",
          "type": "uint256"
        },
        {
          "internalType": "contract IERC20",
          "name": "token",
          "type": "address"
        },
        {
          "internalType": "uint8",
          "name": "tokenIndexFrom",
          "type": "uint8"
        },
        {
          "internalType": "uint8",
          "name": "tokenIndexTo",
          "type": "uint8"
        },
        {
          "internalType": "uint256",
          "name": "dx",
          "type": "uint256"
        },
        {
          "internalType": "uint256",
          "name": "minDy",
          "type": "uint256"
        },
        {
          "internalType": "uint256",
          "name": "deadline",
          "type": "uint256"
        },
        {
          "internalType": "uint8",
          "name": "liqTokenIndex",
          "type": "uint8"
        },
        {
          "internalType": "uint256",
          "name": "liqMinAmount",
          "type": "uint256"
        },
        {
          "internalType": "uint256",
          "name": "liqDeadline",
          "type": "uint256"
        }
      ],
      "name": "swapAndRedeemAndRemove",
      "outputs": [],
      "stateMutability": "nonpayable",
      "type": "function"
    },
    {
      "inputs": [
        {
          "internalType": "address",
          "name": "to",
          "type": "address"
        },
        {
          "internalType": "uint256",
          "name": "chainId",
          "type": "uint256"
        },
        {
          "internalType": "contract IERC20",
          "name": "token",
          "type": "address"
        },
        {
          "internalType": "uint8",
          "name": "tokenIndexFrom",
          "type": "uint8"
        },
        {
          "internalType": "uint8",
          "name": "tokenIndexTo",
          "type": "uint8"
        },
        {
          "internalType": "uint256",
          "name": "dx",
          "type": "uint256"
        },
        {
          "internalType": "uint256",
          "name": "minDy",
          "type": "uint256"
        },
        {
          "internalType": "uint256",
          "name": "deadline",
          "type": "uint256"
        },
        {
          "internalType": "uint8",
          "name": "swapTokenIndexFrom",
          "type": "uint8"
        },
        {
          "internalType": "uint8",
          "name": "swapTokenIndexTo",
          "type": "uint8"
        },
        {
          "internalType": "uint256",
          "name": "swapMinDy",
          "type": "uint256"
        },
        {
          "internalType": "uint256",
          "name": "swapDeadline",
          "type": "uint256"
        }
      ],
      "name": "swapAndRedeemAndSwap",
      "outputs": [],
      "stateMutability": "nonpayable",
      "type": "function"
    },
    {
      "inputs": [
        {
          "internalType": "address",
          "name": "to",
          "type": "address"
        },
        {
          "internalType": "uint256",
          "name": "chainId",
          "type": "uint256"
        },
        {
          "internalType": "contract IERC20",
          "name": "token",
          "type": "address"
        },
        {
          "internalType": "uint8",
          "name": "tokenIndexFrom",
          "type": "uint8"
        },
        {
          "internalType": "uint8",
          "name": "tokenIndexTo",
          "type": "uint8"
        },
        {
          "internalType": "uint256",
          "name": "dx",
          "type": "uint256"
        },
        {
          "internalType": "uint256",
          "name": "minDy",
          "type": "uint256"
        },
        {
          "internalType": "uint256",
          "name": "deadline",
          "type": "uint256"
        }
      ],
      "name": "swapETHAndRedeem",
      "outputs": [],
      "stateMutability": "payable",
      "type": "function"
    },
    {
      "inputs": [
        {
          "internalType": "address",
          "name": "to",
          "type": "address"
        },
        {
          "internalType": "uint256",
          "name": "chainId",
          "type": "uint256"
        },
        {
          "internalType": "contract IERC20",
          "name": "token",
          "type": "address"
        },
        {
          "internalType": "uint8",
          "name": "tokenIndexFrom",
          "type": "uint8"
        },
        {
          "internalType": "uint8",
          "name": "tokenIndexTo",
          "type": "uint8"
        },
        {
          "internalType": "uint256",
          "name": "dx",
          "type": "uint256"
        },
        {
          "internalType": "uint256",
          "name": "minDy",
          "type": "uint256"
        },
        {
          "internalType": "uint256",
          "name": "deadline",
          "type": "uint256"
        },
        {
          "internalType": "uint8",
          "name": "swapTokenIndexFrom",
          "type": "uint8"
        },
        {
          "internalType": "uint8",
          "name": "swapTokenIndexTo",
          "type": "uint8"
        },
        {
          "internalType": "uint256",
          "name": "swapMinDy",
          "type": "uint256"
        },
        {
          "internalType": "uint256",
          "name": "swapDeadline",
          "type": "uint256"
        }
      ],
      "name": "swapETHAndRedeemAndSwap",
      "outputs": [],
      "stateMutability": "payable",
      "type": "function"
    },
    {
      "inputs": [
        {
          "internalType": "address",
          "name": "",
          "type": "address"
        }
      ],
      "name": "swapMap",
      "outputs": [
        {
          "internalType": "address",
          "name": "",
          "type": "address"
        }
      ],
      "stateMutability": "view",
      "type": "function"
    },
    {
      "inputs": [
        {
          "internalType": "address",
          "name": "",
          "type": "address"
        },
        {
          "internalType": "uint256",
          "name": "",
          "type": "uint256"
        }
      ],
      "name": "swapTokensMap",
      "outputs": [
        {
          "internalType": "contract IERC20",
          "name": "",
          "type": "address"
        }
      ],
      "stateMutability": "view",
      "type": "function"
    }
  ],
  "transactionHash": "0x5c10c24d2f5223a9fff395763138344f428253757f47fe44e8f7f15cb37ccd83",
  "args": [
    "0xb31f66aa3c1e785363f0875a1b74e27b85fd66c7",
    "0xdd60483Ace9B215a7c019A44Be2F22Aa9982652E",
    "0x19E1ae0eE35c0404f835521146206595d37981ae",
    "0xED2a7edd7413021d440b09D654f3b87712abAB66",
    "0xCFc37A6AB183dd4aED08C204D1c2773c0b1BDf46",
    "0xC05e61d0E7a63D27546389B7aD62FdFf5A91aACE"
  ],
  "solcInputHash": "5898fc830de549fd92a7017a9e7a5456",
  "bytecode": "0x60a06040523480156200001157600080fd5b5060405162002bec38038062002bec833981810160405260c08110156200003757600080fd5b50805160208083015160408085015160608087015160808089015160a0909901519288901b6001600160601b0319169052600080546001600160a01b03199081166001600160a01b038086169190911783558086168352600190985285822080548216898916908117909155888b168352959091208054909116968216969096179095559495929490939291156200022d5760005b60208160ff161015620001e357856001600160a01b03166382b86600826040518263ffffffff1660e01b8152600401808260ff16815260200191505060206040518083038186803b1580156200012157600080fd5b505afa9250505080156200014857506040513d60208110156200014357600080fd5b505160015b6200015357620001e3565b6001600160a01b038781166000908152600260209081526040822080546001810182559083529181902090910180546001600160a01b0319169284169283179055620001af9190899060001990620003ad811b62001db317901c565b600054620001d9906001600160a01b038381169116600019620003ad602090811b62001db317901c565b50600101620000cc565b60018160ff16116200022b576040805162461bcd60e51b8152602060048201819052602482015260008051602062002b6c833981519152604482015290519081900360640190fd5b505b6001600160a01b03831615620003a15760005b60208160ff1610156200035757836001600160a01b03166382b86600826040518263ffffffff1660e01b8152600401808260ff16815260200191505060206040518083038186803b1580156200029557600080fd5b505afa925050508015620002bc57506040513d6020811015620002b757600080fd5b505160015b620002c75762000357565b6001600160a01b038581166000908152600260209081526040822080546001810182559083529181902090910180546001600160a01b0319169284169283179055620003239190879060001990620003ad811b62001db317901c565b6000546200034d906001600160a01b038381169116600019620003ad602090811b62001db317901c565b5060010162000240565b60018160ff16116200039f576040805162461bcd60e51b8152602060048201819052602482015260008051602062002b6c833981519152604482015290519081900360640190fd5b505b505050505050620007c0565b80158062000437575060408051636eb1769f60e11b81523060048201526001600160a01b03848116602483015291519185169163dd62ed3e91604480820192602092909190829003018186803b1580156200040757600080fd5b505afa1580156200041c573d6000803e3d6000fd5b505050506040513d60208110156200043357600080fd5b5051155b620004745760405162461bcd60e51b815260040180806020018281038252603681526020018062002bb66036913960400191505060405180910390fd5b604080516001600160a01b038416602482015260448082018490528251808303909101815260649091019091526020810180516001600160e01b0390811663095ea7b360e01b17909152620004cc918591620004d116565b505050565b60606200052d826040518060400160405280602081526020017f5361666545524332303a206c6f772d6c6576656c2063616c6c206661696c6564815250856001600160a01b03166200058d60201b62001f12179092919060201c565b805190915015620004cc578080602001905160208110156200054e57600080fd5b5051620004cc5760405162461bcd60e51b815260040180806020018281038252602a81526020018062002b8c602a913960400191505060405180910390fd5b60606200059e8484600085620005a8565b90505b9392505050565b606082471015620005eb5760405162461bcd60e51b815260040180806020018281038252602681526020018062002b466026913960400191505060405180910390fd5b620005f68562000710565b62000648576040805162461bcd60e51b815260206004820152601d60248201527f416464726573733a2063616c6c20746f206e6f6e2d636f6e7472616374000000604482015290519081900360640190fd5b60006060866001600160a01b031685876040518082805190602001908083835b60208310620006895780518252601f19909201916020918201910162000668565b6001836020036101000a03801982511681845116808217855250505050505090500191505060006040518083038185875af1925050503d8060008114620006ed576040519150601f19603f3d011682016040523d82523d6000602084013e620006f2565b606091505b5090925090506200070582828662000716565b979650505050505050565b3b151590565b6060831562000727575081620005a1565b825115620007385782518084602001fd5b8160405162461bcd60e51b81526004018080602001828103825283818151815260200191508051906020019080838360005b83811015620007845781810151838201526020016200076a565b50505050905090810190601f168015620007b25780820380516001836020036101000a031916815260200191505b509250505060405180910390fd5b60805160601c61234a620007fc600039806105a05280610ac35280610c0b52806110d4528061121c5280611b405280611bf3525061234a6000f3fe6080604052600436106100dd5760003560e01c8063798af7201161007f57806390d250741161005957806390d25074146104595780639f330727146104a0578063ce0b63ce14610525578063f3f094a114610557576100dd565b8063798af72014610361578063839ed90a146103bf57806385528f0b14610426576100dd565b8063393494b8116100bb578063393494b8146101ef5780633d5da164146102285780634a517a55146102a057806365749c9d14610307576100dd565b8063040141e5146100e2578063174dc9521461011357806336e712ed14610193575b600080fd5b3480156100ee57600080fd5b506100f761059e565b604080516001600160a01b039092168252519081900360200190f35b34801561011f57600080fd5b50610191600480360361016081101561013757600080fd5b506001600160a01b0381358116916020810135916040820135169060ff6060820135811691608081013582169160a08201359160c08101359160e082013591610100810135909116906101208101359061014001356105c2565b005b34801561019f57600080fd5b50610191600480360360e08110156101b657600080fd5b506001600160a01b0381358116916020810135916040820135169060608101359060ff6080820135169060a08101359060c0013561090b565b3480156101fb57600080fd5b506100f76004803603604081101561021257600080fd5b506001600160a01b038135169060200135610a8c565b610191600480360361018081101561023f57600080fd5b506001600160a01b0381358116916020810135916040820135169060ff6060820135811691608081013582169160a08201359160c08101359160e0820135916101008101358216916101208201351690610140810135906101600135610ac1565b3480156102ac57600080fd5b5061019160048036036101008110156102c457600080fd5b506001600160a01b0381358116916020810135916040820135169060ff606082013581169160808101359091169060a08101359060c08101359060e00135610dd1565b610191600480360361010081101561031e57600080fd5b506001600160a01b0381358116916020810135916040820135169060ff606082013581169160808101359091169060a08101359060c08101359060e001356110d2565b34801561036d57600080fd5b506103ad6004803603608081101561038457600080fd5b506001600160a01b038135169060ff6020820135811691604081013590911690606001356113de565b60408051918252519081900360200190f35b3480156103cb57600080fd5b5061019160048036036101008110156103e357600080fd5b506001600160a01b0381358116916020810135916040820135169060608101359060ff608082013581169160a08101359091169060c08101359060e00135611497565b34801561043257600080fd5b506100f76004803603602081101561044957600080fd5b50356001600160a01b0316611622565b34801561046557600080fd5b506101916004803603608081101561047c57600080fd5b506001600160a01b038135811691602081013591604082013516906060013561163d565b3480156104ac57600080fd5b5061019160048036036101808110156104c457600080fd5b506001600160a01b0381358116916020810135916040820135169060ff6060820135811691608081013582169160a08201359160c08101359160e08201359161010081013582169161012082013516906101408101359061016001356117a4565b6101916004803603606081101561053b57600080fd5b506001600160a01b038135169060208101359060400135611ade565b34801561056357600080fd5b506101916004803603608081101561057a57600080fd5b506001600160a01b0381358116916020810135916040820135169060600135611c6a565b7f000000000000000000000000000000000000000000000000000000000000000081565b6001600160a01b03808a16600090815260016020526040902054168061062f576040805162461bcd60e51b815260206004820152600c60248201527f5377617020697320307830300000000000000000000000000000000000000000604482015290519081900360640190fd5b6001600160a01b03811660009081526002602090815260409182902080548351818402810184019094528084526060939283018282801561069957602002820191906000526020600020905b81546001600160a01b0316815260019091019060200180831161067b575b505050505090506106d633308a848e60ff16815181106106b557fe5b60200260200101516001600160a01b0316611f2b909392919063ffffffff16565b604080517f9169558600000000000000000000000000000000000000000000000000000000815260ff808d1660048301528b166024820152604481018a9052606481018990526084810188905290516000916001600160a01b0385169163916955869160a48082019260209290919082900301818787803b15801561075a57600080fd5b505af115801561076e573d6000803e3d6000fd5b505050506040513d602081101561078457600080fd5b5051600054604080517fdd62ed3e0000000000000000000000000000000000000000000000000000000081523060048201526001600160a01b03928316602482015290519293508392918f169163dd62ed3e91604480820192602092909190829003018186803b1580156107f757600080fd5b505afa15801561080b573d6000803e3d6000fd5b505050506040513d602081101561082157600080fd5b5051101561084557600054610845906001600160a01b038e81169116600019611db3565b60008054906101000a90046001600160a01b03166001600160a01b03166336e712ed8f8f8f858b8b8b6040518863ffffffff1660e01b815260040180886001600160a01b03168152602001878152602001866001600160a01b031681526020018581526020018460ff168152602001838152602001828152602001975050505050505050600060405180830381600087803b1580156108e357600080fd5b505af11580156108f7573d6000803e3d6000fd5b505050505050505050505050505050505050565b6109206001600160a01b038616333087611f2b565b600054604080517fdd62ed3e0000000000000000000000000000000000000000000000000000000081523060048201526001600160a01b0392831660248201529051869288169163dd62ed3e916044808301926020929190829003018186803b15801561098c57600080fd5b505afa1580156109a0573d6000803e3d6000fd5b505050506040513d60208110156109b657600080fd5b505110156109da576000546109da906001600160a01b038781169116600019611db3565b60008054604080517f36e712ed0000000000000000000000000000000000000000000000000000000081526001600160a01b038b81166004830152602482018b905289811660448301526064820189905260ff8816608483015260a4820187905260c48201869052915191909216926336e712ed9260e4808201939182900301818387803b158015610a6b57600080fd5b505af1158015610a7f573d6000803e3d6000fd5b5050505050505050505050565b60026020528160005260406000208181548110610aa557fe5b6000918252602090912001546001600160a01b03169150829050565b7f00000000000000000000000000000000000000000000000000000000000000006001600160a01b0316610b3c576040805162461bcd60e51b815260206004820152600660248201527f5745544820300000000000000000000000000000000000000000000000000000604482015290519081900360640190fd5b600034118015610b4b57508634145b610b9c576040805162461bcd60e51b815260206004820152601360248201527f494e434f5252454354204d53472056414c554500000000000000000000000000604482015290519081900360640190fd5b6001600160a01b03808b166000908152600160205260409020541680610c09576040805162461bcd60e51b815260206004820152600c60248201527f5377617020697320307830300000000000000000000000000000000000000000604482015290519081900360640190fd5b7f00000000000000000000000000000000000000000000000000000000000000006001600160a01b031663d0e30db0346040518263ffffffff1660e01b81526004016000604051808303818588803b158015610c6457600080fd5b505af1158015610c78573d6000803e3d6000fd5b50505050506000816001600160a01b031663916955868c8c8c8c8c6040518663ffffffff1660e01b8152600401808660ff1681526020018560ff16815260200184815260200183815260200182815260200195505050505050602060405180830381600087803b158015610ceb57600080fd5b505af1158015610cff573d6000803e3d6000fd5b505050506040513d6020811015610d1557600080fd5b8101908080519060200190929190505050905060008054906101000a90046001600160a01b03166001600160a01b031663839ed90a8f8f8f858b8b8b8b6040518963ffffffff1660e01b815260040180896001600160a01b03168152602001888152602001876001600160a01b031681526020018681526020018560ff1681526020018460ff16815260200183815260200182815260200198505050505050505050600060405180830381600087803b1580156108e357600080fd5b6001600160a01b038087166000908152600160205260409020541680610e3e576040805162461bcd60e51b815260206004820152600c60248201527f5377617020697320307830300000000000000000000000000000000000000000604482015290519081900360640190fd5b6001600160a01b038116600090815260026020908152604091829020805483518184028101840190945280845260609392830182828015610ea857602002820191906000526020600020905b81546001600160a01b03168152600190910190602001808311610e8a575b50505050509050610ec4333087848b60ff16815181106106b557fe5b604080517f9169558600000000000000000000000000000000000000000000000000000000815260ff808a1660048301528816602482015260448101879052606481018690526084810185905290516000916001600160a01b0385169163916955869160a48082019260209290919082900301818787803b158015610f4857600080fd5b505af1158015610f5c573d6000803e3d6000fd5b505050506040513d6020811015610f7257600080fd5b5051600054604080517fdd62ed3e0000000000000000000000000000000000000000000000000000000081523060048201526001600160a01b03928316602482015290519293508392918c169163dd62ed3e91604480820192602092909190829003018186803b158015610fe557600080fd5b505afa158015610ff9573d6000803e3d6000fd5b505050506040513d602081101561100f57600080fd5b5051101561103357600054611033906001600160a01b038b81169116600019611db3565b60008054604080517ff3f094a10000000000000000000000000000000000000000000000000000000081526001600160a01b038f81166004830152602482018f90528d81166044830152606482018690529151919092169263f3f094a1926084808201939182900301818387803b1580156110ad57600080fd5b505af11580156110c1573d6000803e3d6000fd5b505050505050505050505050505050565b7f00000000000000000000000000000000000000000000000000000000000000006001600160a01b031661114d576040805162461bcd60e51b815260206004820152600660248201527f5745544820300000000000000000000000000000000000000000000000000000604482015290519081900360640190fd5b60003411801561115c57508234145b6111ad576040805162461bcd60e51b815260206004820152601360248201527f494e434f5252454354204d53472056414c554500000000000000000000000000604482015290519081900360640190fd5b6001600160a01b03808716600090815260016020526040902054168061121a576040805162461bcd60e51b815260206004820152600c60248201527f5377617020697320307830300000000000000000000000000000000000000000604482015290519081900360640190fd5b7f00000000000000000000000000000000000000000000000000000000000000006001600160a01b031663d0e30db0346040518263ffffffff1660e01b81526004016000604051808303818588803b15801561127557600080fd5b505af1158015611289573d6000803e3d6000fd5b5050604080517f9169558600000000000000000000000000000000000000000000000000000000815260ff808c1660048301528a1660248201526044810189905260648101889052608481018790529051600094506001600160a01b03861693506391695586925060a480830192602092919082900301818787803b15801561131157600080fd5b505af1158015611325573d6000803e3d6000fd5b505050506040513d602081101561133b57600080fd5b505160008054604080517ff3f094a10000000000000000000000000000000000000000000000000000000081526001600160a01b038f81166004830152602482018f90528d8116604483015260648201869052915194955091169263f3f094a19260848084019391929182900301818387803b1580156113ba57600080fd5b505af11580156113ce573d6000803e3d6000fd5b5050505050505050505050505050565b6001600160a01b0380851660009081526001602090815260408083205481517fa95b089f00000000000000000000000000000000000000000000000000000000815260ff808a1660048301528816602482015260448101879052915193941692839263a95b089f9260648082019391829003018186803b15801561146157600080fd5b505afa158015611475573d6000803e3d6000fd5b505050506040513d602081101561148b57600080fd5b50519695505050505050565b6114ac6001600160a01b038716333088611f2b565b600054604080517fdd62ed3e0000000000000000000000000000000000000000000000000000000081523060048201526001600160a01b0392831660248201529051879289169163dd62ed3e916044808301926020929190829003018186803b15801561151857600080fd5b505afa15801561152c573d6000803e3d6000fd5b505050506040513d602081101561154257600080fd5b5051101561156657600054611566906001600160a01b038881169116600019611db3565b60008054604080517f839ed90a0000000000000000000000000000000000000000000000000000000081526001600160a01b038c81166004830152602482018c90528a81166044830152606482018a905260ff808a166084840152881660a483015260c4820187905260e482018690529151919092169263839ed90a92610104808201939182900301818387803b15801561160057600080fd5b505af1158015611614573d6000803e3d6000fd5b505050505050505050505050565b6001602052600090815260409020546001600160a01b031681565b6116526001600160a01b038316333084611f2b565b600054604080517fdd62ed3e0000000000000000000000000000000000000000000000000000000081523060048201526001600160a01b0392831660248201529051839285169163dd62ed3e916044808301926020929190829003018186803b1580156116be57600080fd5b505afa1580156116d2573d6000803e3d6000fd5b505050506040513d60208110156116e857600080fd5b5051101561170c5760005461170c906001600160a01b038481169116600019611db3565b60008054604080517f90d250740000000000000000000000000000000000000000000000000000000081526001600160a01b03888116600483015260248201889052868116604483015260648201869052915191909216926390d25074926084808201939182900301818387803b15801561178657600080fd5b505af115801561179a573d6000803e3d6000fd5b5050505050505050565b6001600160a01b038a811660009081526001602052604090205416611810576040805162461bcd60e51b815260206004820152600c60248201527f5377617020697320307830300000000000000000000000000000000000000000604482015290519081900360640190fd5b6001600160a01b03808b166000908152600160209081526040808320549093168252600281529082902080548351818402810184019094528084526060939283018282801561188857602002820191906000526020600020905b81546001600160a01b0316815260019091019060200180831161186a575b505050505090506118a433308a848e60ff16815181106106b557fe5b6000600160008d6001600160a01b03166001600160a01b0316815260200190815260200160002060009054906101000a90046001600160a01b03166001600160a01b031663916955868c8c8c8c8c6040518663ffffffff1660e01b8152600401808660ff1681526020018560ff16815260200184815260200183815260200182815260200195505050505050602060405180830381600087803b15801561194a57600080fd5b505af115801561195e573d6000803e3d6000fd5b505050506040513d602081101561197457600080fd5b5051600054604080517fdd62ed3e0000000000000000000000000000000000000000000000000000000081523060048201526001600160a01b03928316602482015290519293508392918f169163dd62ed3e91604480820192602092909190829003018186803b1580156119e757600080fd5b505afa1580156119fb573d6000803e3d6000fd5b505050506040513d6020811015611a1157600080fd5b50511015611a3557600054611a35906001600160a01b038e81169116600019611db3565b60008054906101000a90046001600160a01b03166001600160a01b031663839ed90a8f8f8f858b8b8b8b6040518963ffffffff1660e01b815260040180896001600160a01b03168152602001888152602001876001600160a01b031681526020018681526020018560ff1681526020018460ff16815260200183815260200182815260200198505050505050505050600060405180830381600087803b1580156108e357600080fd5b600034118015611aed57508034145b611b3e576040805162461bcd60e51b815260206004820152601360248201527f494e434f5252454354204d53472056414c554500000000000000000000000000604482015290519081900360640190fd5b7f00000000000000000000000000000000000000000000000000000000000000006001600160a01b031663d0e30db0346040518263ffffffff1660e01b81526004016000604051808303818588803b158015611b9957600080fd5b505af1158015611bad573d6000803e3d6000fd5b505060008054604080517f90d250740000000000000000000000000000000000000000000000000000000081526001600160a01b038a81166004830152602482018a90527f0000000000000000000000000000000000000000000000000000000000000000811660448301526064820189905291519190921695506390d25074945060848083019450909182900301818387803b158015611c4d57600080fd5b505af1158015611c61573d6000803e3d6000fd5b50505050505050565b611c7f6001600160a01b038316333084611f2b565b600054604080517fdd62ed3e0000000000000000000000000000000000000000000000000000000081523060048201526001600160a01b0392831660248201529051839285169163dd62ed3e916044808301926020929190829003018186803b158015611ceb57600080fd5b505afa158015611cff573d6000803e3d6000fd5b505050506040513d6020811015611d1557600080fd5b50511015611d3957600054611d39906001600160a01b038481169116600019611db3565b60008054604080517ff3f094a10000000000000000000000000000000000000000000000000000000081526001600160a01b038881166004830152602482018890528681166044830152606482018690529151919092169263f3f094a1926084808201939182900301818387803b15801561178657600080fd5b801580611e525750604080517fdd62ed3e0000000000000000000000000000000000000000000000000000000081523060048201526001600160a01b03848116602483015291519185169163dd62ed3e91604480820192602092909190829003018186803b158015611e2457600080fd5b505afa158015611e38573d6000803e3d6000fd5b505050506040513d6020811015611e4e57600080fd5b5051155b611e8d5760405162461bcd60e51b81526004018080602001828103825260368152602001806122df6036913960400191505060405180910390fd5b604080516001600160a01b038416602482015260448082018490528251808303909101815260649091019091526020810180517bffffffffffffffffffffffffffffffffffffffffffffffffffffffff167f095ea7b300000000000000000000000000000000000000000000000000000000179052611f0d908490611fb9565b505050565b6060611f21848460008561206a565b90505b9392505050565b604080516001600160a01b0380861660248301528416604482015260648082018490528251808303909101815260849091019091526020810180517bffffffffffffffffffffffffffffffffffffffffffffffffffffffff167f23b872dd00000000000000000000000000000000000000000000000000000000179052611fb3908590611fb9565b50505050565b606061200e826040518060400160405280602081526020017f5361666545524332303a206c6f772d6c6576656c2063616c6c206661696c6564815250856001600160a01b0316611f129092919063ffffffff16565b805190915015611f0d5780806020019051602081101561202d57600080fd5b5051611f0d5760405162461bcd60e51b815260040180806020018281038252602a8152602001806122b5602a913960400191505060405180910390fd5b6060824710156120ab5760405162461bcd60e51b815260040180806020018281038252602681526020018061228f6026913960400191505060405180910390fd5b6120b4856121e4565b612105576040805162461bcd60e51b815260206004820152601d60248201527f416464726573733a2063616c6c20746f206e6f6e2d636f6e7472616374000000604482015290519081900360640190fd5b60006060866001600160a01b031685876040518082805190602001908083835b6020831061216257805182527fffffffffffffffffffffffffffffffffffffffffffffffffffffffffffffffe09092019160209182019101612125565b6001836020036101000a03801982511681845116808217855250505050505090500191505060006040518083038185875af1925050503d80600081146121c4576040519150601f19603f3d011682016040523d82523d6000602084013e6121c9565b606091505b50915091506121d98282866121ea565b979650505050505050565b3b151590565b606083156121f9575081611f24565b8251156122095782518084602001fd5b8160405162461bcd60e51b81526004018080602001828103825283818151815260200191508051906020019080838360005b8381101561225357818101518382015260200161223b565b50505050905090810190601f1680156122805780820380516001836020036101000a031916815260200191505b509250505060405180910390fdfe416464726573733a20696e73756666696369656e742062616c616e636520666f722063616c6c5361666545524332303a204552433230206f7065726174696f6e20646964206e6f7420737563636565645361666545524332303a20617070726f76652066726f6d206e6f6e2d7a65726f20746f206e6f6e2d7a65726f20616c6c6f77616e6365a2646970667358221220c9d629b1ac1b74d790fab04dc16bdacc0ada3d03d9356e22b6ffc56965bd270764736f6c634300060c0033416464726573733a20696e73756666696369656e742062616c616e636520666f722063616c6c73776170206d7573742068617665206174206c65617374203220746f6b656e735361666545524332303a204552433230206f7065726174696f6e20646964206e6f7420737563636565645361666545524332303a20617070726f76652066726f6d206e6f6e2d7a65726f20746f206e6f6e2d7a65726f20616c6c6f77616e6365",
  "devdoc": {
    "kind": "dev",
    "methods": {
      "calculateSwap(address,uint8,uint8,uint256)": {
        "params": {
          "dx": "the amount of tokens the user wants to sell. If the token charges a fee on transfers, use the amount that gets transferred after the fee.",
          "tokenIndexFrom": "the token the user wants to sell",
          "tokenIndexTo": "the token the user wants to buy"
        },
        "returns": {
          "_0": "amount of tokens the user will receive"
        }
      },
      "deposit(address,uint256,address,uint256)": {
        "params": {
          "amount": "Amount in native token decimals to transfer cross-chain pre-fees*",
          "chainId": "which underlying chain to bridge assets onto",
          "to": "address on other chain to redeem underlying assets to",
          "token": "ERC20 compatible token to deposit into the bridge"
        }
      },
      "depositETH(address,uint256,uint256)": {
        "params": {
          "amount": "Amount in native token decimals to transfer cross-chain pre-fees*",
          "chainId": "which chain to bridge assets onto",
          "to": "address on other chain to bridge assets to"
        }
      },
      "redeem(address,uint256,address,uint256)": {
        "params": {
          "amount": "Amount in native token decimals to transfer cross-chain pre-fees*",
          "chainId": "which underlying chain to bridge assets onto",
          "to": "address on other chain to redeem underlying assets to",
          "token": "ERC20 compatible token to deposit into the bridge"
        }
      },
      "redeemAndRemove(address,uint256,address,uint256,uint8,uint256,uint256)": {
        "params": {
          "amount": "Amount of (typically) LP token to pass to the nodes to attempt to removeLiquidity() with to redeem for the underlying assets of the LP token",
          "chainId": "which underlying chain to bridge assets onto",
          "liqDeadline": "Specificies the deadline that the nodes are allowed to try to redeem/swap the LP token*",
          "liqMinAmount": "Specifies the minimum amount of the underlying asset needed for the nodes to execute the redeem/swap",
          "liqTokenIndex": "Specifies which of the underlying LP assets the nodes should attempt to redeem for",
          "to": "address on other chain to redeem underlying assets to",
          "token": "ERC20 compatible token to deposit into the bridge"
        }
      },
      "redeemAndSwap(address,uint256,address,uint256,uint8,uint8,uint256,uint256)": {
        "params": {
          "amount": "Amount in native token decimals to transfer cross-chain pre-fees",
          "chainId": "which underlying chain to bridge assets onto",
          "deadline": "latest timestamp to accept this transaction*",
          "minDy": "the min amount the user would like to receive, or revert to only minting the SynERC20 token crosschain.",
          "to": "address on other chain to redeem underlying assets to",
          "token": "ERC20 compatible token to deposit into the bridge",
          "tokenIndexFrom": "the token the user wants to swap from",
          "tokenIndexTo": "the token the user wants to swap to"
        }
      }
    },
    "version": 1
  },
  "userdoc": {
    "kind": "user",
    "methods": {
      "calculateSwap(address,uint8,uint8,uint256)": {
        "notice": "Calculate amount of tokens you receive on swap"
      },
      "deposit(address,uint256,address,uint256)": {
        "notice": "wraps SynapseBridge redeem()"
      },
      "depositETH(address,uint256,uint256)": {
        "notice": "Wraps SynapseBridge deposit() function to make it compatible w/ ETH -> WETH conversions"
      },
      "redeem(address,uint256,address,uint256)": {
        "notice": "wraps SynapseBridge redeem()"
      },
      "redeemAndRemove(address,uint256,address,uint256,uint8,uint256,uint256)": {
        "notice": "Wraps redeemAndRemove on SynapseBridge Relays to nodes that (typically) a wrapped synAsset ERC20 token has been burned and the underlying needs to be redeeemed on the native chain. This function indicates to the nodes that they should attempt to redeem the LP token for the underlying assets (E.g \"swap\" out of the LP token)"
      },
      "redeemAndSwap(address,uint256,address,uint256,uint8,uint8,uint256,uint256)": {
        "notice": "Wraps redeemAndSwap on SynapseBridge.sol Relays to nodes that (typically) a wrapped synAsset ERC20 token has been burned and the underlying needs to be redeeemed on the native chain. This function indicates to the nodes that they should attempt to redeem the LP token for the underlying assets (E.g \"swap\" out of the LP token)"
      }
    },
    "version": 1
  },
  "storageLayout": {
    "storage": [
      {
        "astId": 28001,
        "contract": "contracts/bridge/wrappers/L2BridgeZap.sol:L2BridgeZap",
        "label": "synapseBridge",
        "offset": 0,
        "slot": "0",
        "type": "t_contract(ISynapseBridge)25574"
      },
      {
        "astId": 28007,
        "contract": "contracts/bridge/wrappers/L2BridgeZap.sol:L2BridgeZap",
        "label": "swapMap",
        "offset": 0,
        "slot": "1",
        "type": "t_mapping(t_address,t_address)"
      },
      {
        "astId": 28012,
        "contract": "contracts/bridge/wrappers/L2BridgeZap.sol:L2BridgeZap",
        "label": "swapTokensMap",
        "offset": 0,
        "slot": "2",
        "type": "t_mapping(t_address,t_array(t_contract(IERC20)4954)dyn_storage)"
      }
    ],
    "types": {
      "t_address": {
        "encoding": "inplace",
        "label": "address",
        "numberOfBytes": "20"
      },
      "t_array(t_contract(IERC20)4954)dyn_storage": {
        "base": "t_contract(IERC20)4954",
        "encoding": "dynamic_array",
        "label": "contract IERC20[]",
        "numberOfBytes": "32"
      },
      "t_contract(IERC20)4954": {
        "encoding": "inplace",
        "label": "contract IERC20",
        "numberOfBytes": "20"
      },
      "t_contract(ISynapseBridge)25574": {
        "encoding": "inplace",
        "label": "contract ISynapseBridge",
        "numberOfBytes": "20"
      },
      "t_mapping(t_address,t_address)": {
        "encoding": "mapping",
        "key": "t_address",
        "label": "mapping(address => address)",
        "numberOfBytes": "32",
        "value": "t_address"
      },
      "t_mapping(t_address,t_array(t_contract(IERC20)4954)dyn_storage)": {
        "encoding": "mapping",
        "key": "t_address",
        "label": "mapping(address => contract IERC20[])",
        "numberOfBytes": "32",
        "value": "t_array(t_contract(IERC20)4954)dyn_storage"
      }
    }
  }
}