{
  "address": "0xb7d731cF0882eC44820a02E18f2d73a04C160d00",
  "abi": [
    {
      "inputs": [
        {
          "internalType": "address payable",
          "name": "_wgas",
          "type": "address"
        }
      ],
      "stateMutability": "nonpayable",
      "type": "constructor"
    },
    {
      "anonymous": false,
      "inputs": [
        {
          "indexed": false,
          "internalType": "address",
          "name": "newTrustedAdapter",
          "type": "address"
        }
      ],
      "name": "AddedTrustedAdapter",
      "type": "event"
    },
    {
      "anonymous": false,
      "inputs": [
        {
          "indexed": true,
          "internalType": "address",
          "name": "asset",
          "type": "address"
        },
        {
          "indexed": false,
          "internalType": "uint256",
          "name": "amount",
          "type": "uint256"
        }
      ],
      "name": "Recovered",
      "type": "event"
    },
    {
      "anonymous": false,
      "inputs": [
        {
          "indexed": false,
          "internalType": "address",
          "name": "removedAdapter",
          "type": "address"
        }
      ],
      "name": "RemovedAdapter",
      "type": "event"
    },
    {
      "anonymous": false,
      "inputs": [
        {
          "indexed": true,
          "internalType": "bytes32",
          "name": "role",
          "type": "bytes32"
        },
        {
          "indexed": true,
          "internalType": "bytes32",
          "name": "previousAdminRole",
          "type": "bytes32"
        },
        {
          "indexed": true,
          "internalType": "bytes32",
          "name": "newAdminRole",
          "type": "bytes32"
        }
      ],
      "name": "RoleAdminChanged",
      "type": "event"
    },
    {
      "anonymous": false,
      "inputs": [
        {
          "indexed": true,
          "internalType": "bytes32",
          "name": "role",
          "type": "bytes32"
        },
        {
          "indexed": true,
          "internalType": "address",
          "name": "account",
          "type": "address"
        },
        {
          "indexed": true,
          "internalType": "address",
          "name": "sender",
          "type": "address"
        }
      ],
      "name": "RoleGranted",
      "type": "event"
    },
    {
      "anonymous": false,
      "inputs": [
        {
          "indexed": true,
          "internalType": "bytes32",
          "name": "role",
          "type": "bytes32"
        },
        {
          "indexed": true,
          "internalType": "address",
          "name": "account",
          "type": "address"
        },
        {
          "indexed": true,
          "internalType": "address",
          "name": "sender",
          "type": "address"
        }
      ],
      "name": "RoleRevoked",
      "type": "event"
    },
    {
      "anonymous": false,
      "inputs": [
        {
          "indexed": true,
          "internalType": "address",
          "name": "tokenIn",
          "type": "address"
        },
        {
          "indexed": true,
          "internalType": "address",
          "name": "tokenOut",
          "type": "address"
        },
        {
          "indexed": false,
          "internalType": "uint256",
          "name": "amountIn",
          "type": "uint256"
        },
        {
          "indexed": false,
          "internalType": "uint256",
          "name": "amountOut",
          "type": "uint256"
        }
      ],
      "name": "Swap",
      "type": "event"
    },
    {
      "anonymous": false,
      "inputs": [
        {
          "indexed": false,
          "internalType": "address[]",
          "name": "adapters",
          "type": "address[]"
        },
        {
          "indexed": false,
          "internalType": "bool",
          "name": "isTrusted",
          "type": "bool"
        }
      ],
      "name": "UpdatedAdapters",
      "type": "event"
    },
    {
      "inputs": [],
      "name": "ADAPTERS_STORAGE_ROLE",
      "outputs": [
        {
          "internalType": "bytes32",
          "name": "",
          "type": "bytes32"
        }
      ],
      "stateMutability": "view",
      "type": "function"
    },
    {
      "inputs": [],
      "name": "DEFAULT_ADMIN_ROLE",
      "outputs": [
        {
          "internalType": "bytes32",
          "name": "",
          "type": "bytes32"
        }
      ],
      "stateMutability": "view",
      "type": "function"
    },
    {
      "inputs": [],
      "name": "GOVERNANCE_ROLE",
      "outputs": [
        {
          "internalType": "bytes32",
          "name": "",
          "type": "bytes32"
        }
      ],
      "stateMutability": "view",
      "type": "function"
    },
    {
      "inputs": [],
      "name": "WGAS",
      "outputs": [
        {
          "internalType": "address payable",
          "name": "",
          "type": "address"
        }
      ],
      "stateMutability": "view",
      "type": "function"
    },
    {
      "inputs": [
        {
          "internalType": "address",
          "name": "adapter",
          "type": "address"
        }
      ],
      "name": "addTrustedAdapter",
      "outputs": [],
      "stateMutability": "nonpayable",
      "type": "function"
    },
    {
      "inputs": [
        {
          "internalType": "bytes32",
          "name": "role",
          "type": "bytes32"
        }
      ],
      "name": "getRoleAdmin",
      "outputs": [
        {
          "internalType": "bytes32",
          "name": "",
          "type": "bytes32"
        }
      ],
      "stateMutability": "view",
      "type": "function"
    },
    {
      "inputs": [
        {
          "internalType": "bytes32",
          "name": "role",
          "type": "bytes32"
        },
        {
          "internalType": "address",
          "name": "account",
          "type": "address"
        }
      ],
      "name": "grantRole",
      "outputs": [],
      "stateMutability": "nonpayable",
      "type": "function"
    },
    {
      "inputs": [
        {
          "internalType": "bytes32",
          "name": "role",
          "type": "bytes32"
        },
        {
          "internalType": "address",
          "name": "account",
          "type": "address"
        }
      ],
      "name": "hasRole",
      "outputs": [
        {
          "internalType": "bool",
          "name": "",
          "type": "bool"
        }
      ],
      "stateMutability": "view",
      "type": "function"
    },
    {
      "inputs": [
        {
          "internalType": "address",
          "name": "",
          "type": "address"
        }
      ],
      "name": "isTrustedAdapter",
      "outputs": [
        {
          "internalType": "bool",
          "name": "",
          "type": "bool"
        }
      ],
      "stateMutability": "view",
      "type": "function"
    },
    {
      "inputs": [
        {
          "internalType": "contract IERC20",
          "name": "token",
          "type": "address"
        }
      ],
      "name": "recoverERC20",
      "outputs": [],
      "stateMutability": "nonpayable",
      "type": "function"
    },
    {
      "inputs": [],
      "name": "recoverGAS",
      "outputs": [],
      "stateMutability": "nonpayable",
      "type": "function"
    },
    {
      "inputs": [
        {
          "internalType": "address",
          "name": "adapter",
          "type": "address"
        }
      ],
      "name": "removeAdapter",
      "outputs": [],
      "stateMutability": "nonpayable",
      "type": "function"
    },
    {
      "inputs": [
        {
          "internalType": "bytes32",
          "name": "role",
          "type": "bytes32"
        },
        {
          "internalType": "address",
          "name": "account",
          "type": "address"
        }
      ],
      "name": "renounceRole",
      "outputs": [],
      "stateMutability": "nonpayable",
      "type": "function"
    },
    {
      "inputs": [
        {
          "internalType": "bytes32",
          "name": "role",
          "type": "bytes32"
        },
        {
          "internalType": "address",
          "name": "account",
          "type": "address"
        }
      ],
      "name": "revokeRole",
      "outputs": [],
      "stateMutability": "nonpayable",
      "type": "function"
    },
    {
      "inputs": [
        {
          "internalType": "address[]",
          "name": "adapters",
          "type": "address[]"
        },
        {
          "internalType": "bool",
          "name": "status",
          "type": "bool"
        }
      ],
      "name": "setAdapters",
      "outputs": [],
      "stateMutability": "nonpayable",
      "type": "function"
    },
    {
      "inputs": [
        {
          "internalType": "bytes4",
          "name": "interfaceId",
          "type": "bytes4"
        }
      ],
      "name": "supportsInterface",
      "outputs": [
        {
          "internalType": "bool",
          "name": "",
          "type": "bool"
        }
      ],
      "stateMutability": "view",
      "type": "function"
    },
    {
      "inputs": [
        {
          "internalType": "address",
          "name": "to",
          "type": "address"
        },
        {
          "internalType": "address[]",
          "name": "path",
          "type": "address[]"
        },
        {
          "internalType": "address[]",
          "name": "adapters",
          "type": "address[]"
        },
        {
          "internalType": "uint256",
          "name": "amountIn",
          "type": "uint256"
        },
        {
          "internalType": "uint256",
          "name": "minAmountOut",
          "type": "uint256"
        },
        {
          "internalType": "uint256",
          "name": "deadline",
          "type": "uint256"
        }
      ],
      "name": "swap",
      "outputs": [
        {
          "internalType": "uint256",
          "name": "amountOut",
          "type": "uint256"
        }
      ],
      "stateMutability": "nonpayable",
      "type": "function"
    },
    {
      "inputs": [
        {
          "internalType": "address",
          "name": "to",
          "type": "address"
        },
        {
          "internalType": "address[]",
          "name": "path",
          "type": "address[]"
        },
        {
          "internalType": "address[]",
          "name": "adapters",
          "type": "address[]"
        },
        {
          "internalType": "uint256",
          "name": "amountIn",
          "type": "uint256"
        },
        {
          "internalType": "uint256",
          "name": "minAmountOut",
          "type": "uint256"
        },
        {
          "internalType": "uint256",
          "name": "deadline",
          "type": "uint256"
        }
      ],
      "name": "swapFromGAS",
      "outputs": [
        {
          "internalType": "uint256",
          "name": "amountOut",
          "type": "uint256"
        }
      ],
      "stateMutability": "payable",
      "type": "function"
    },
    {
      "inputs": [
        {
          "internalType": "address",
          "name": "to",
          "type": "address"
        },
        {
          "internalType": "address[]",
          "name": "path",
          "type": "address[]"
        },
        {
          "internalType": "address[]",
          "name": "adapters",
          "type": "address[]"
        },
        {
          "internalType": "uint256",
          "name": "amountIn",
          "type": "uint256"
        },
        {
          "internalType": "uint256",
          "name": "minAmountOut",
          "type": "uint256"
        },
        {
          "internalType": "uint256",
          "name": "deadline",
          "type": "uint256"
        }
      ],
      "name": "swapToGAS",
      "outputs": [
        {
          "internalType": "uint256",
          "name": "amountOut",
          "type": "uint256"
        }
      ],
      "stateMutability": "nonpayable",
      "type": "function"
    },
    {
      "stateMutability": "payable",
      "type": "receive"
    }
  ],
  "transactionHash": "0x4c4396e1450ed9e2fc2a2baf58fa3d2c9b7cc13328a2185d62efc78a5d801731",
  "args": [
    "0xb31f66aa3c1e785363f0875a1b74e27b85fd66c7"
  ],
  "solcInputHash": "981f38149fd49d3cec0cb27aa531a82e",
  "bytecode": "0x60a06040523480156200001157600080fd5b5060405162002edc38038062002edc833981016040819052620000349162000122565b600160009081556001600160a01b03821660805281906200005690336200008a565b620000827f71840dc4906352362b0cdaf79870196c8e42acafade72d5d5a6d59291253ceb1336200008a565b505062000154565b6200009682826200009a565b5050565b60008281526001602090815260408083206001600160a01b038516845290915290205460ff16620000965760008281526001602081815260408084206001600160a01b0386168086529252808420805460ff19169093179092559051339285917f2f8788117e7eff1d82e926ec794901d17c78024a50270940304540a733656f0d9190a45050565b6000602082840312156200013557600080fd5b81516001600160a01b03811681146200014d57600080fd5b9392505050565b608051612d426200019a6000396000818161019b0152818161099401528181610d5301528181610e5e01528181611212015281816116bd01526125260152612d426000f3fe6080604052600436106101485760003560e01c8063946a2610116100c0578063ad29b28111610074578063e1a5275d11610059578063e1a5275d146103e3578063e74725dd14610417578063f36c8f5c1461043757600080fd5b8063ad29b281146103a3578063d547741f146103c357600080fd5b80639e5953c2116100a55780639e5953c21461034e5780639e8c708e1461036e578063a217fddf1461038e57600080fd5b8063946a26101461030b5780639bfbd66f1461033b57600080fd5b806336568abe1161011757806366b866f6116100fc57806366b866f61461028357806385537dc51461029857806391d14854146102b857600080fd5b806336568abe14610243578063585cd34b1461026357600080fd5b806301ffc9a7146101545780631d987be714610189578063248a9ca3146101e25780632f2ff15d1461022157600080fd5b3661014f57005b600080fd5b34801561016057600080fd5b5061017461016f36600461279a565b61046b565b60405190151581526020015b60405180910390f35b34801561019557600080fd5b506101bd7f000000000000000000000000000000000000000000000000000000000000000081565b60405173ffffffffffffffffffffffffffffffffffffffff9091168152602001610180565b3480156101ee57600080fd5b506102136101fd3660046127dc565b6000908152600160208190526040909120015490565b604051908152602001610180565b34801561022d57600080fd5b5061024161023c36600461281a565b610504565b005b34801561024f57600080fd5b5061024161025e36600461281a565b610530565b34801561026f57600080fd5b5061024161027e36600461284a565b6105e8565b34801561028f57600080fd5b50610241610697565b3480156102a457600080fd5b506102416102b336600461284a565b610812565b3480156102c457600080fd5b506101746102d336600461281a565b600091825260016020908152604080842073ffffffffffffffffffffffffffffffffffffffff93909316845291905290205460ff1690565b34801561031757600080fd5b5061017461032636600461284a565b60026020526000908152604090205460ff1681565b6102136103493660046128b3565b6108bc565b34801561035a57600080fd5b506102136103693660046128b3565b610aba565b34801561037a57600080fd5b5061024161038936600461284a565b610b36565b34801561039a57600080fd5b50610213600081565b3480156103af57600080fd5b506102136103be3660046128b3565b610ccf565b3480156103cf57600080fd5b506102416103de36600461281a565b610e90565b3480156103ef57600080fd5b506102137f6fa7d50eae2b98630deda644add9ac623a25d55bd34ec1aa2a3254f2d1dbecb981565b34801561042357600080fd5b5061024161043236600461295b565b610eb7565b34801561044357600080fd5b506102137f71840dc4906352362b0cdaf79870196c8e42acafade72d5d5a6d59291253ceb181565b60007fffffffff0000000000000000000000000000000000000000000000000000000082167f7965db0b0000000000000000000000000000000000000000000000000000000014806104fe57507f01ffc9a7000000000000000000000000000000000000000000000000000000007fffffffff000000000000000000000000000000000000000000000000000000008316145b92915050565b600082815260016020819052604090912001546105218133610fc4565b61052b8383611096565b505050565b73ffffffffffffffffffffffffffffffffffffffff811633146105da576040517f08c379a000000000000000000000000000000000000000000000000000000000815260206004820152602f60248201527f416363657373436f6e74726f6c3a2063616e206f6e6c792072656e6f756e636560448201527f20726f6c657320666f722073656c66000000000000000000000000000000000060648201526084015b60405180910390fd5b6105e48282611155565b5050565b7f6fa7d50eae2b98630deda644add9ac623a25d55bd34ec1aa2a3254f2d1dbecb96106138133610fc4565b73ffffffffffffffffffffffffffffffffffffffff821660008181526002602090815260409182902080547fffffffffffffffffffffffffffffffffffffffffffffffffffffffffffffff0016905590519182527ff036b3ebb61d6b8a954fd5c61f0995e5d62c0ab76cd4a17ba12f68a359cde05d91015b60405180910390a15050565b7f71840dc4906352362b0cdaf79870196c8e42acafade72d5d5a6d59291253ceb16106c28133610fc4565b478061072a576040517f08c379a000000000000000000000000000000000000000000000000000000000815260206004820152601b60248201527f416461707465723a204e6f7468696e6720746f207265636f766572000000000060448201526064016105d1565b6040518181526000907f8c1256b8896378cd5044f80c202f9772b9d77dc85c8a6eb51967210b09bfaa289060200160405180910390a2604051600090339083908381818185875af1925050503d80600081146107a2576040519150601f19603f3d011682016040523d82523d6000602084013e6107a7565b606091505b505090508061052b576040517f08c379a000000000000000000000000000000000000000000000000000000000815260206004820152601360248201527f474153207472616e73666572206661696c65640000000000000000000000000060448201526064016105d1565b7f6fa7d50eae2b98630deda644add9ac623a25d55bd34ec1aa2a3254f2d1dbecb961083d8133610fc4565b73ffffffffffffffffffffffffffffffffffffffff821660008181526002602090815260409182902080547fffffffffffffffffffffffffffffffffffffffffffffffffffffffffffffff0016600117905590519182527f3765ea7069a8cd781bde7e8e5a39b4e43c4d8fadf08b28f1947bc8acf42db03c910161068b565b60008180421115610929576040517f08c379a000000000000000000000000000000000000000000000000000000000815260206004820152601560248201527f526f757465723a207061737420646561646c696e65000000000000000000000060448201526064016105d1565b843414610992576040517f08c379a000000000000000000000000000000000000000000000000000000000815260206004820152601f60248201527f526f757465723a20696e636f727265637420616d6f756e74206f66204741530060448201526064016105d1565b7f000000000000000000000000000000000000000000000000000000000000000073ffffffffffffffffffffffffffffffffffffffff16898960008181106109dc576109dc6129b2565b90506020020160208101906109f1919061284a565b73ffffffffffffffffffffffffffffffffffffffff1614610a94576040517f08c379a000000000000000000000000000000000000000000000000000000000815260206004820152602560248201527f526f757465723a2050617468206e6565647320746f20626567696e207769746860448201527f205747415300000000000000000000000000000000000000000000000000000060648201526084016105d1565b610a9d85611210565b610aac8a8a8a8a8a8a8a611294565b9a9950505050505050505050565b60008180421115610b27576040517f08c379a000000000000000000000000000000000000000000000000000000000815260206004820152601560248201527f526f757465723a207061737420646561646c696e65000000000000000000000060448201526064016105d1565b610aac8a8a8a8a8a8a8a61143f565b7f71840dc4906352362b0cdaf79870196c8e42acafade72d5d5a6d59291253ceb1610b618133610fc4565b6040517f70a0823100000000000000000000000000000000000000000000000000000000815230600482015260009073ffffffffffffffffffffffffffffffffffffffff8416906370a0823190602401602060405180830381865afa158015610bce573d6000803e3d6000fd5b505050506040513d601f19601f82011682018060405250810190610bf291906129e1565b905060008111610c5e576040517f08c379a000000000000000000000000000000000000000000000000000000000815260206004820152601b60248201527f416461707465723a204e6f7468696e6720746f207265636f766572000000000060448201526064016105d1565b8273ffffffffffffffffffffffffffffffffffffffff167f8c1256b8896378cd5044f80c202f9772b9d77dc85c8a6eb51967210b09bfaa2882604051610ca691815260200190565b60405180910390a261052b73ffffffffffffffffffffffffffffffffffffffff841633836115ca565b60008180421115610d3c576040517f08c379a000000000000000000000000000000000000000000000000000000000815260206004820152601560248201527f526f757465723a207061737420646561646c696e65000000000000000000000060448201526064016105d1565b73ffffffffffffffffffffffffffffffffffffffff7f0000000000000000000000000000000000000000000000000000000000000000168989610d80600182612a29565b818110610d8f57610d8f6129b2565b9050602002016020810190610da4919061284a565b73ffffffffffffffffffffffffffffffffffffffff1614610e47576040517f08c379a000000000000000000000000000000000000000000000000000000000815260206004820152602360248201527f526f757465723a2050617468206e6565647320746f20656e642077697468205760448201527f474153000000000000000000000000000000000000000000000000000000000060648201526084016105d1565b610e56308a8a8a8a8a8a61143f565b9150610e838a7f00000000000000000000000000000000000000000000000000000000000000008461169e565b5098975050505050505050565b60008281526001602081905260409091200154610ead8133610fc4565b61052b8383611155565b7f6fa7d50eae2b98630deda644add9ac623a25d55bd34ec1aa2a3254f2d1dbecb9610ee28133610fc4565b60005b60ff8116841115610f8257826002600087878560ff16818110610f0a57610f0a6129b2565b9050602002016020810190610f1f919061284a565b73ffffffffffffffffffffffffffffffffffffffff168152602081019190915260400160002080547fffffffffffffffffffffffffffffffffffffffffffffffffffffffffffffff0016911515919091179055610f7b81612a40565b9050610ee5565b507ffb116b1d6255f1c3b6885d011e433c60ef3723cf17c31929baaf3d43d56c226a848484604051610fb693929190612a60565b60405180910390a150505050565b600082815260016020908152604080832073ffffffffffffffffffffffffffffffffffffffff8516845290915290205460ff166105e45761101c8173ffffffffffffffffffffffffffffffffffffffff166014611809565b611027836020611809565b604051602001611038929190612af2565b604080517fffffffffffffffffffffffffffffffffffffffffffffffffffffffffffffffe0818403018152908290527f08c379a00000000000000000000000000000000000000000000000000000000082526105d191600401612b73565b600082815260016020908152604080832073ffffffffffffffffffffffffffffffffffffffff8516845290915290205460ff166105e457600082815260016020818152604080842073ffffffffffffffffffffffffffffffffffffffff8616808652925280842080547fffffffffffffffffffffffffffffffffffffffffffffffffffffffffffffff00169093179092559051339285917f2f8788117e7eff1d82e926ec794901d17c78024a50270940304540a733656f0d9190a45050565b600082815260016020908152604080832073ffffffffffffffffffffffffffffffffffffffff8516845290915290205460ff16156105e457600082815260016020908152604080832073ffffffffffffffffffffffffffffffffffffffff8516808552925280832080547fffffffffffffffffffffffffffffffffffffffffffffffffffffffffffffff0016905551339285917ff6391f5c32d9c69d2a47ea670b442974b53935d1edc7fd64eb21e047a839171b9190a45050565b7f000000000000000000000000000000000000000000000000000000000000000073ffffffffffffffffffffffffffffffffffffffff1663d0e30db0826040518263ffffffff1660e01b81526004016000604051808303818588803b15801561127857600080fd5b505af115801561128c573d6000803e3d6000fd5b505050505050565b600060026000541415611303576040517f08c379a000000000000000000000000000000000000000000000000000000000815260206004820152601f60248201527f5265656e7472616e637947756172643a207265656e7472616e742063616c6c0060448201526064016105d1565b600260005560018611611372576040517f08c379a000000000000000000000000000000000000000000000000000000000815260206004820152601660248201527f526f757465723a207061746820746f6f2073686f72740000000000000000000060448201526064016105d1565b600087876000818110611387576113876129b2565b905060200201602081019061139c919061284a565b90506000888860018181106113b3576113b36129b2565b90506020020160208101906113c8919061284a565b905061141d6113ff888860008181106113e3576113e36129b2565b90506020020160208101906113f8919061284a565b8484611a53565b73ffffffffffffffffffffffffffffffffffffffff841690876115ca565b61142c8a8a8a8a8a8a8a611b6e565b60016000559a9950505050505050505050565b6000600260005414156114ae576040517f08c379a000000000000000000000000000000000000000000000000000000000815260206004820152601f60248201527f5265656e7472616e637947756172643a207265656e7472616e742063616c6c0060448201526064016105d1565b60026000556001861161151d576040517f08c379a000000000000000000000000000000000000000000000000000000000815260206004820152601660248201527f526f757465723a207061746820746f6f2073686f72740000000000000000000060448201526064016105d1565b600087876000818110611532576115326129b2565b9050602002016020810190611547919061284a565b905060008888600181811061155e5761155e6129b2565b9050602002016020810190611573919061284a565b905061141d336115ab8989600081811061158f5761158f6129b2565b90506020020160208101906115a4919061284a565b8585611a53565b73ffffffffffffffffffffffffffffffffffffffff851691908861238d565b60405173ffffffffffffffffffffffffffffffffffffffff831660248201526044810182905261052b9084907fa9059cbb00000000000000000000000000000000000000000000000000000000906064015b604080517fffffffffffffffffffffffffffffffffffffffffffffffffffffffffffffffe08184030181529190526020810180517bffffffffffffffffffffffffffffffffffffffffffffffffffffffff167fffffffff00000000000000000000000000000000000000000000000000000000909316929092179091526123eb565b3073ffffffffffffffffffffffffffffffffffffffff84161461052b577f000000000000000000000000000000000000000000000000000000000000000073ffffffffffffffffffffffffffffffffffffffff168273ffffffffffffffffffffffffffffffffffffffff1614156117e857611718816124f7565b60008373ffffffffffffffffffffffffffffffffffffffff168260405160006040518083038185875af1925050503d8060008114611772576040519150601f19603f3d011682016040523d82523d6000602084013e611777565b606091505b50509050806117e2576040517f08c379a000000000000000000000000000000000000000000000000000000000815260206004820152601360248201527f474153207472616e73666572206661696c65640000000000000000000000000060448201526064016105d1565b50505050565b61052b73ffffffffffffffffffffffffffffffffffffffff831684836115ca565b60606000611818836002612bc4565b611823906002612c01565b67ffffffffffffffff81111561183b5761183b612c19565b6040519080825280601f01601f191660200182016040528015611865576020820181803683370190505b5090507f30000000000000000000000000000000000000000000000000000000000000008160008151811061189c5761189c6129b2565b60200101907effffffffffffffffffffffffffffffffffffffffffffffffffffffffffffff1916908160001a9053507f7800000000000000000000000000000000000000000000000000000000000000816001815181106118ff576118ff6129b2565b60200101907effffffffffffffffffffffffffffffffffffffffffffffffffffffffffffff1916908160001a905350600061193b846002612bc4565b611946906001612c01565b90505b60018111156119e3577f303132333435363738396162636465660000000000000000000000000000000085600f1660108110611987576119876129b2565b1a60f81b82828151811061199d5761199d6129b2565b60200101907effffffffffffffffffffffffffffffffffffffffffffffffffffffffffffff1916908160001a90535060049490941c936119dc81612c48565b9050611949565b508315611a4c576040517f08c379a000000000000000000000000000000000000000000000000000000000815260206004820181905260248201527f537472696e67733a20686578206c656e67746820696e73756666696369656e7460448201526064016105d1565b9392505050565b6040517fa9e40e0700000000000000000000000000000000000000000000000000000000815273ffffffffffffffffffffffffffffffffffffffff838116600483015282811660248301526000919085169063a9e40e0790604401602060405180830381865afa158015611acb573d6000803e3d6000fd5b505050506040513d601f19601f82011682018060405250810190611aef9190612c7d565b905073ffffffffffffffffffffffffffffffffffffffff8116611a4c576040517f08c379a000000000000000000000000000000000000000000000000000000000815260206004820152601760248201527f416461707465723a20756e6b6e6f776e20746f6b656e7300000000000000000060448201526064016105d1565b6000611b7b846001612c01565b8614611c09576040517f08c379a000000000000000000000000000000000000000000000000000000000815260206004820152602760248201527f526f757465723a2077726f6e6720616d6f756e74206f6620616461707465727360448201527f2f746f6b656e730000000000000000000000000000000000000000000000000060648201526084016105d1565b73ffffffffffffffffffffffffffffffffffffffff8816611cac576040517f08c379a000000000000000000000000000000000000000000000000000000000815260206004820152602160248201527f526f757465723a20746f2063616e6e6f74206265207a65726f2061646472657360448201527f730000000000000000000000000000000000000000000000000000000000000060648201526084016105d1565b60005b84811015611d825760026000878784818110611ccd57611ccd6129b2565b9050602002016020810190611ce2919061284a565b73ffffffffffffffffffffffffffffffffffffffff16815260208101919091526040016000205460ff16611d72576040517f08c379a000000000000000000000000000000000000000000000000000000000815260206004820152601760248201527f526f757465723a20756e6b6e6f776e206164617074657200000000000000000060448201526064016105d1565b611d7b81612c9a565b9050611caf565b506040805160a08101825260008082526020820181905291810182905260608101829052608081019190915287876000818110611dc157611dc16129b2565b9050602002016020810190611dd6919061284a565b73ffffffffffffffffffffffffffffffffffffffff16602082015287876001818110611e0457611e046129b2565b9050602002016020810190611e19919061284a565b73ffffffffffffffffffffffffffffffffffffffff1660408201528585600081611e4557611e456129b2565b9050602002016020810190611e5a919061284a565b73ffffffffffffffffffffffffffffffffffffffff1660608201528787611e82600182612a29565b818110611e9157611e916129b2565b9050602002016020810190611ea6919061284a565b6040517f70a0823100000000000000000000000000000000000000000000000000000000815273ffffffffffffffffffffffffffffffffffffffff8b8116600483015291909116906370a0823190602401602060405180830381865afa158015611f14573d6000803e3d6000fd5b505050506040513d601f19601f82011682018060405250810190611f3891906129e1565b915060005b858110156121b35760208201805173ffffffffffffffffffffffffffffffffffffffff908116845260408401511690526060820151611f7d600188612a29565b8210156120cd578787611f91846001612c01565b818110611fa057611fa06129b2565b9050602002016020810190611fb5919061284a565b73ffffffffffffffffffffffffffffffffffffffff1660608401528989611fdd846002612c01565b818110611fec57611fec6129b2565b9050602002016020810190612001919061284a565b73ffffffffffffffffffffffffffffffffffffffff90811660408581018290526060860151602087015191517fa9e40e070000000000000000000000000000000000000000000000000000000081529184166004830152602482019290925291169063a9e40e0790604401602060405180830381865afa158015612089573d6000803e3d6000fd5b505050506040513d601f19601f820116820180604052508101906120ad9190612c7d565b73ffffffffffffffffffffffffffffffffffffffff1660808401526120ea565b73ffffffffffffffffffffffffffffffffffffffff8b1660808401525b8251602084015160808501516040517f88156e65000000000000000000000000000000000000000000000000000000008152600481018a905273ffffffffffffffffffffffffffffffffffffffff9384166024820152918316604483015282166064820152908216906388156e65906084016020604051808303816000875af115801561217b573d6000803e3d6000fd5b505050506040513d601f19601f8201168201806040525081019061219f91906129e1565b955050806121ac90612c9a565b9050611f3d565b5060208101516040517f70a0823100000000000000000000000000000000000000000000000000000000815273ffffffffffffffffffffffffffffffffffffffff8b81166004830152849216906370a0823190602401602060405180830381865afa158015612226573d6000803e3d6000fd5b505050506040513d601f19601f8201168201806040525081019061224a91906129e1565b6122549190612a29565b9150828210156122e6576040517f08c379a000000000000000000000000000000000000000000000000000000000815260206004820152602260248201527f526f757465723a20496e73756666696369656e74206f757470757420616d6f7560448201527f6e7400000000000000000000000000000000000000000000000000000000000060648201526084016105d1565b806020015173ffffffffffffffffffffffffffffffffffffffff1688886000818110612314576123146129b2565b9050602002016020810190612329919061284a565b73ffffffffffffffffffffffffffffffffffffffff167ffa2dda1cc1b86e41239702756b13effbc1a092b5c57e3ad320fbe4f3b13fe2358685604051612379929190918252602082015260400190565b60405180910390a350979650505050505050565b60405173ffffffffffffffffffffffffffffffffffffffff808516602483015283166044820152606481018290526117e29085907f23b872dd000000000000000000000000000000000000000000000000000000009060840161161c565b600061244d826040518060400160405280602081526020017f5361666545524332303a206c6f772d6c6576656c2063616c6c206661696c65648152508573ffffffffffffffffffffffffffffffffffffffff1661259a9092919063ffffffff16565b80519091501561052b578080602001905181019061246b9190612cd3565b61052b576040517f08c379a000000000000000000000000000000000000000000000000000000000815260206004820152602a60248201527f5361666545524332303a204552433230206f7065726174696f6e20646964206e60448201527f6f7420737563636565640000000000000000000000000000000000000000000060648201526084016105d1565b6040517f2e1a7d4d000000000000000000000000000000000000000000000000000000008152600481018290527f000000000000000000000000000000000000000000000000000000000000000073ffffffffffffffffffffffffffffffffffffffff1690632e1a7d4d90602401600060405180830381600087803b15801561257f57600080fd5b505af1158015612593573d6000803e3d6000fd5b5050505050565b60606125a984846000856125b1565b949350505050565b606082471015612643576040517f08c379a000000000000000000000000000000000000000000000000000000000815260206004820152602660248201527f416464726573733a20696e73756666696369656e742062616c616e636520666f60448201527f722063616c6c000000000000000000000000000000000000000000000000000060648201526084016105d1565b73ffffffffffffffffffffffffffffffffffffffff85163b6126c1576040517f08c379a000000000000000000000000000000000000000000000000000000000815260206004820152601d60248201527f416464726573733a2063616c6c20746f206e6f6e2d636f6e747261637400000060448201526064016105d1565b6000808673ffffffffffffffffffffffffffffffffffffffff1685876040516126ea9190612cf0565b60006040518083038185875af1925050503d8060008114612727576040519150601f19603f3d011682016040523d82523d6000602084013e61272c565b606091505b509150915061273c828286612747565b979650505050505050565b60608315612756575081611a4c565b8251156127665782518084602001fd5b816040517f08c379a00000000000000000000000000000000000000000000000000000000081526004016105d19190612b73565b6000602082840312156127ac57600080fd5b81357fffffffff0000000000000000000000000000000000000000000000000000000081168114611a4c57600080fd5b6000602082840312156127ee57600080fd5b5035919050565b73ffffffffffffffffffffffffffffffffffffffff8116811461281757600080fd5b50565b6000806040838503121561282d57600080fd5b82359150602083013561283f816127f5565b809150509250929050565b60006020828403121561285c57600080fd5b8135611a4c816127f5565b60008083601f84011261287957600080fd5b50813567ffffffffffffffff81111561289157600080fd5b6020830191508360208260051b85010111156128ac57600080fd5b9250929050565b60008060008060008060008060c0898b0312156128cf57600080fd5b88356128da816127f5565b9750602089013567ffffffffffffffff808211156128f757600080fd5b6129038c838d01612867565b909950975060408b013591508082111561291c57600080fd5b506129298b828c01612867565b999c989b5096999698976060880135976080810135975060a0013595509350505050565b801515811461281757600080fd5b60008060006040848603121561297057600080fd5b833567ffffffffffffffff81111561298757600080fd5b61299386828701612867565b90945092505060208401356129a78161294d565b809150509250925092565b7f4e487b7100000000000000000000000000000000000000000000000000000000600052603260045260246000fd5b6000602082840312156129f357600080fd5b5051919050565b7f4e487b7100000000000000000000000000000000000000000000000000000000600052601160045260246000fd5b600082821015612a3b57612a3b6129fa565b500390565b600060ff821660ff811415612a5757612a576129fa565b60010192915050565b6040808252810183905260008460608301825b86811015612ab0578235612a86816127f5565b73ffffffffffffffffffffffffffffffffffffffff16825260209283019290910190600101612a73565b5080925050508215156020830152949350505050565b60005b83811015612ae1578181015183820152602001612ac9565b838111156117e25750506000910152565b7f416363657373436f6e74726f6c3a206163636f756e7420000000000000000000815260008351612b2a816017850160208801612ac6565b7f206973206d697373696e6720726f6c65200000000000000000000000000000006017918401918201528351612b67816028840160208801612ac6565b01602801949350505050565b6020815260008251806020840152612b92816040850160208701612ac6565b601f017fffffffffffffffffffffffffffffffffffffffffffffffffffffffffffffffe0169190910160400192915050565b6000817fffffffffffffffffffffffffffffffffffffffffffffffffffffffffffffffff0483118215151615612bfc57612bfc6129fa565b500290565b60008219821115612c1457612c146129fa565b500190565b7f4e487b7100000000000000000000000000000000000000000000000000000000600052604160045260246000fd5b600081612c5757612c576129fa565b507fffffffffffffffffffffffffffffffffffffffffffffffffffffffffffffffff0190565b600060208284031215612c8f57600080fd5b8151611a4c816127f5565b60007fffffffffffffffffffffffffffffffffffffffffffffffffffffffffffffffff821415612ccc57612ccc6129fa565b5060010190565b600060208284031215612ce557600080fd5b8151611a4c8161294d565b60008251612d02818460208701612ac6565b919091019291505056fea26469706673582212201c664330f15be843d4789a7c0b2e5e6c1b945bfe963f25c3173fd5b4a8256cdf64736f6c634300080b0033",
  "devdoc": {
    "kind": "dev",
    "methods": {
      "getRoleAdmin(bytes32)": {
        "details": "Returns the admin role that controls `role`. See {grantRole} and {revokeRole}. To change a role's admin, use {_setRoleAdmin}."
      },
      "grantRole(bytes32,address)": {
        "details": "Grants `role` to `account`. If `account` had not been already granted `role`, emits a {RoleGranted} event. Requirements: - the caller must have ``role``'s admin role."
      },
      "hasRole(bytes32,address)": {
        "details": "Returns `true` if `account` has been granted `role`."
      },
      "renounceRole(bytes32,address)": {
        "details": "Revokes `role` from the calling account. Roles are often managed via {grantRole} and {revokeRole}: this function's purpose is to provide a mechanism for accounts to lose their privileges if they are compromised (such as when a trusted device is misplaced). If the calling account had been revoked `role`, emits a {RoleRevoked} event. Requirements: - the caller must be `account`."
      },
      "revokeRole(bytes32,address)": {
        "details": "Revokes `role` from `account`. If `account` had been granted `role`, emits a {RoleRevoked} event. Requirements: - the caller must have ``role``'s admin role."
      },
      "supportsInterface(bytes4)": {
        "details": "See {IERC165-supportsInterface}."
      },
      "swap(address,address[],address[],uint256,uint256,uint256)": {
        "details": "1. Tokens will be pulled from msg.sender, so make sure Router has enough allowance to  spend initial token.  2. Use Quoter.getTradeDataAmountOut() -> _tradeData to find best route with preset slippage. 3. len(path) = N, len(adapters) = N - 1",
        "params": {
          "adapters": "adapters that will be used for swap. adapters[i]: swap path[i] -> path[i + 1]",
          "amountIn": "amount of initial tokens to swap",
          "minAmountOut": "minimum amount of final tokens for a swap to be successful",
          "path": "token path for the swap, path[0] = initial token, path[N - 1] = final token",
          "to": "address to receive final tokens"
        },
        "returns": {
          "amountOut": "Final amount of tokens swapped"
        }
      },
      "swapFromGAS(address,address[],address[],uint256,uint256,uint256)": {
        "details": "1. Make sure to set amountIn = msg.value, path[0] = WGAS 2. Use Quoter.getTradeDataAmountOut() -> _tradeData to find best route with preset slippage. 3. len(path) = N, len(adapters) = N - 1",
        "params": {
          "adapters": "adapters that will be used for swap. adapters[i]: swap path[i] -> path[i + 1]",
          "amountIn": "amount of initial tokens to swap",
          "minAmountOut": "minimum amount of final tokens for a swap to be successful",
          "path": "token path for the swap, path[0] = initial token, path[N - 1] = final token",
          "to": "address to receive final tokens"
        },
        "returns": {
          "amountOut": "Final amount of tokens swapped"
        }
      },
      "swapToGAS(address,address[],address[],uint256,uint256,uint256)": {
        "details": "1. Tokens will be pulled from msg.sender, so make sure Router has enough allowance to  spend initial token. 2. Make sure to set path[N-1] = WGAS 3. Address to needs to be able to accept native GAS 4. Use Quoter.getTradeDataAmountOut() -> _tradeData to find best route with preset slippage. 5. len(path) = N, len(adapters) = N - 1",
        "params": {
          "adapters": "adapters that will be used for swap. adapters[i]: swap path[i] -> path[i + 1]",
          "amountIn": "amount of initial tokens to swap",
          "minAmountOut": "minimum amount of final tokens for a swap to be successful",
          "path": "token path for the swap, path[0] = initial token, path[N - 1] = final token",
          "to": "address to receive final tokens"
        },
        "returns": {
          "amountOut": "Final amount of tokens swapped"
        }
      }
    },
    "version": 1
  },
  "userdoc": {
    "kind": "user",
    "methods": {
      "ADAPTERS_STORAGE_ROLE()": {
        "notice": "Members of this role can add/remove trusted Adapters"
      },
      "GOVERNANCE_ROLE()": {
        "notice": "Members of this role can rescue funds from this contract"
      },
      "swap(address,address[],address[],uint256,uint256,uint256)": {
        "notice": "Perform a series of swaps along the token path, using the provided Adapters"
      },
      "swapFromGAS(address,address[],address[],uint256,uint256,uint256)": {
        "notice": "Perform a series of swaps along the token path, starting with chain's native currency (GAS), using the provided Adapters."
      },
      "swapToGAS(address,address[],address[],uint256,uint256,uint256)": {
        "notice": "Perform a series of swaps along the token path, ending with chain's native currency (GAS), using the provided Adapters."
      }
    },
    "version": 1
  },
  "storageLayout": {
    "storage": [
      {
        "astId": 497,
        "contract": "contracts/router/Router.sol:Router",
        "label": "_status",
        "offset": 0,
        "slot": "0",
        "type": "t_uint256"
      },
      {
        "astId": 24,
        "contract": "contracts/router/Router.sol:Router",
        "label": "_roles",
        "offset": 0,
        "slot": "1",
        "type": "t_mapping(t_bytes32,t_struct(RoleData)19_storage)"
      },
      {
        "astId": 4978,
        "contract": "contracts/router/Router.sol:Router",
        "label": "isTrustedAdapter",
        "offset": 0,
        "slot": "2",
        "type": "t_mapping(t_address,t_bool)"
      }
    ],
    "types": {
      "t_address": {
        "encoding": "inplace",
        "label": "address",
        "numberOfBytes": "20"
      },
      "t_bool": {
        "encoding": "inplace",
        "label": "bool",
        "numberOfBytes": "1"
      },
      "t_bytes32": {
        "encoding": "inplace",
        "label": "bytes32",
        "numberOfBytes": "32"
      },
      "t_mapping(t_address,t_bool)": {
        "encoding": "mapping",
        "key": "t_address",
        "label": "mapping(address => bool)",
        "numberOfBytes": "32",
        "value": "t_bool"
      },
      "t_mapping(t_bytes32,t_struct(RoleData)19_storage)": {
        "encoding": "mapping",
        "key": "t_bytes32",
        "label": "mapping(bytes32 => struct AccessControl.RoleData)",
        "numberOfBytes": "32",
        "value": "t_struct(RoleData)19_storage"
      },
      "t_struct(RoleData)19_storage": {
        "encoding": "inplace",
        "label": "struct AccessControl.RoleData",
        "members": [
          {
            "astId": 16,
            "contract": "contracts/router/Router.sol:Router",
            "label": "members",
            "offset": 0,
            "slot": "0",
            "type": "t_mapping(t_address,t_bool)"
          },
          {
            "astId": 18,
            "contract": "contracts/router/Router.sol:Router",
            "label": "adminRole",
            "offset": 0,
            "slot": "1",
            "type": "t_bytes32"
          }
        ],
        "numberOfBytes": "64"
      },
      "t_uint256": {
        "encoding": "inplace",
        "label": "uint256",
        "numberOfBytes": "32"
      }
    }
  }
}