{
  "address": "0xA370d7ebaba1df1b0e0cecCd67Fab9Ff1737C4a0",
  "abi": [
    {
      "inputs": [
        {
          "internalType": "string",
          "name": "_name",
          "type": "string"
        },
        {
          "internalType": "uint256",
          "name": "_swapGasEstimate",
          "type": "uint256"
        },
        {
          "internalType": "address",
          "name": "_pool",
          "type": "address"
        }
      ],
      "stateMutability": "nonpayable",
      "type": "constructor"
    },
    {
      "anonymous": false,
      "inputs": [
        {
          "indexed": true,
          "internalType": "address",
          "name": "previousOwner",
          "type": "address"
        },
        {
          "indexed": true,
          "internalType": "address",
          "name": "newOwner",
          "type": "address"
        }
      ],
      "name": "OwnershipTransferred",
      "type": "event"
    },
    {
      "anonymous": false,
      "inputs": [
        {
          "indexed": true,
          "internalType": "address",
          "name": "asset",
          "type": "address"
        },
        {
          "indexed": false,
          "internalType": "uint256",
          "name": "amount",
          "type": "uint256"
        }
      ],
      "name": "Recovered",
      "type": "event"
    },
    {
      "anonymous": false,
      "inputs": [
        {
          "indexed": true,
          "internalType": "address",
          "name": "adapter",
          "type": "address"
        },
        {
          "indexed": false,
          "internalType": "uint256",
          "name": "newEstimate",
          "type": "uint256"
        }
      ],
      "name": "UpdatedGasEstimate",
      "type": "event"
    },
    {
      "inputs": [
        {
          "internalType": "uint256[]",
          "name": "_amounts",
          "type": "uint256[]"
        }
      ],
      "name": "calculateAddLiquidity",
      "outputs": [
        {
          "internalType": "uint256",
          "name": "",
          "type": "uint256"
        }
      ],
      "stateMutability": "view",
      "type": "function"
    },
    {
      "inputs": [
        {
          "internalType": "address",
          "name": "tokenIn",
          "type": "address"
        },
        {
          "internalType": "address",
          "name": "tokenOut",
          "type": "address"
        }
      ],
      "name": "depositAddress",
      "outputs": [
        {
          "internalType": "address",
          "name": "",
          "type": "address"
        }
      ],
      "stateMutability": "view",
      "type": "function"
    },
    {
      "inputs": [
        {
          "internalType": "address",
          "name": "",
          "type": "address"
        }
      ],
      "name": "isPoolToken",
      "outputs": [
        {
          "internalType": "bool",
          "name": "",
          "type": "bool"
        }
      ],
      "stateMutability": "view",
      "type": "function"
    },
    {
      "inputs": [],
      "name": "lpToken",
      "outputs": [
        {
          "internalType": "contract IERC20",
          "name": "",
          "type": "address"
        }
      ],
      "stateMutability": "view",
      "type": "function"
    },
    {
      "inputs": [],
      "name": "name",
      "outputs": [
        {
          "internalType": "string",
          "name": "",
          "type": "string"
        }
      ],
      "stateMutability": "view",
      "type": "function"
    },
    {
      "inputs": [],
      "name": "numTokens",
      "outputs": [
        {
          "internalType": "uint256",
          "name": "",
          "type": "uint256"
        }
      ],
      "stateMutability": "view",
      "type": "function"
    },
    {
      "inputs": [],
      "name": "owner",
      "outputs": [
        {
          "internalType": "address",
          "name": "",
          "type": "address"
        }
      ],
      "stateMutability": "view",
      "type": "function"
    },
    {
      "inputs": [],
      "name": "pool",
      "outputs": [
        {
          "internalType": "contract ISynapse",
          "name": "",
          "type": "address"
        }
      ],
      "stateMutability": "view",
      "type": "function"
    },
    {
      "inputs": [
        {
          "internalType": "uint256",
          "name": "",
          "type": "uint256"
        }
      ],
      "name": "poolTokens",
      "outputs": [
        {
          "internalType": "contract IERC20",
          "name": "",
          "type": "address"
        }
      ],
      "stateMutability": "view",
      "type": "function"
    },
    {
      "inputs": [
        {
          "internalType": "uint256",
          "name": "amountIn",
          "type": "uint256"
        },
        {
          "internalType": "address",
          "name": "tokenIn",
          "type": "address"
        },
        {
          "internalType": "address",
          "name": "tokenOut",
          "type": "address"
        }
      ],
      "name": "query",
      "outputs": [
        {
          "internalType": "uint256",
          "name": "",
          "type": "uint256"
        }
      ],
      "stateMutability": "view",
      "type": "function"
    },
    {
      "inputs": [
        {
          "internalType": "contract IERC20",
          "name": "token",
          "type": "address"
        }
      ],
      "name": "recoverERC20",
      "outputs": [],
      "stateMutability": "nonpayable",
      "type": "function"
    },
    {
      "inputs": [],
      "name": "recoverGAS",
      "outputs": [],
      "stateMutability": "nonpayable",
      "type": "function"
    },
    {
      "inputs": [],
      "name": "renounceOwnership",
      "outputs": [],
      "stateMutability": "nonpayable",
      "type": "function"
    },
    {
      "inputs": [
        {
          "internalType": "contract IERC20",
          "name": "token",
          "type": "address"
        },
        {
          "internalType": "address",
          "name": "spender",
          "type": "address"
        }
      ],
      "name": "revokeTokenAllowance",
      "outputs": [],
      "stateMutability": "nonpayable",
      "type": "function"
    },
    {
      "inputs": [
        {
          "internalType": "contract IERC20",
          "name": "token",
          "type": "address"
        },
        {
          "internalType": "address",
          "name": "spender",
          "type": "address"
        }
      ],
      "name": "setInfiniteAllowance",
      "outputs": [],
      "stateMutability": "nonpayable",
      "type": "function"
    },
    {
      "inputs": [
        {
          "internalType": "uint256",
          "name": "_swapGasEstimate",
          "type": "uint256"
        }
      ],
      "name": "setSwapGasEstimate",
      "outputs": [],
      "stateMutability": "nonpayable",
      "type": "function"
    },
    {
      "inputs": [
        {
          "internalType": "uint256",
          "name": "amountIn",
          "type": "uint256"
        },
        {
          "internalType": "address",
          "name": "tokenIn",
          "type": "address"
        },
        {
          "internalType": "address",
          "name": "tokenOut",
          "type": "address"
        },
        {
          "internalType": "address",
          "name": "to",
          "type": "address"
        }
      ],
      "name": "swap",
      "outputs": [
        {
          "internalType": "uint256",
          "name": "amountOut",
          "type": "uint256"
        }
      ],
      "stateMutability": "nonpayable",
      "type": "function"
    },
    {
      "inputs": [],
      "name": "swapFee",
      "outputs": [
        {
          "internalType": "uint256",
          "name": "",
          "type": "uint256"
        }
      ],
      "stateMutability": "view",
      "type": "function"
    },
    {
      "inputs": [],
      "name": "swapGasEstimate",
      "outputs": [
        {
          "internalType": "uint256",
          "name": "",
          "type": "uint256"
        }
      ],
      "stateMutability": "view",
      "type": "function"
    },
    {
      "inputs": [
        {
          "internalType": "address",
          "name": "",
          "type": "address"
        }
      ],
      "name": "tokenIndex",
      "outputs": [
        {
          "internalType": "uint256",
          "name": "",
          "type": "uint256"
        }
      ],
      "stateMutability": "view",
      "type": "function"
    },
    {
      "inputs": [
        {
          "internalType": "address",
          "name": "newOwner",
          "type": "address"
        }
      ],
      "name": "transferOwnership",
      "outputs": [],
      "stateMutability": "nonpayable",
      "type": "function"
    },
    {
      "inputs": [],
      "name": "updateSwapFee",
      "outputs": [],
      "stateMutability": "nonpayable",
      "type": "function"
    },
    {
      "stateMutability": "payable",
      "type": "receive"
    }
  ],
  "transactionHash": "0xbea432f8a2f246e80701a5f1aba411a14250acdc5226713fa67ce7f2529aaf49",
  "args": [
    "Synapse USD on Avalanche",
    0,
    "0xED2a7edd7413021d440b09D654f3b87712abAB66"
  ],
  "solcInputHash": "981f38149fd49d3cec0cb27aa531a82e",
  "bytecode": "0x60e06040523480156200001157600080fd5b5060405162003bdb38038062003bdb833981016040819052620000349162000a24565b828282806001600160a01b03166080816001600160a01b031681525050600080826001600160a01b0316635fd65f0f6040518163ffffffff1660e01b815260040160e060405180830381865afa15801562000093573d6000803e3d6000fd5b505050506040513d601f19601f82011682018060405250810190620000b9919062000afa565b6001600160a01b03811660a052919750909550620000df94508793505062000136915050565b60c052620000ed82620001d9565b5050506200010a620001046200022060201b60201c565b62000224565b81516200011f9060059060208501906200090e565b506200012b8162000276565b505050505062000e3b565b6000805b60405162415c3360e91b815260ff821660048201526001600160a01b038416906382b8660090602401602060405180830381865afa9250505080156200019f575060408051601f3d908101601f191682019092526200019c9181019062000b5d565b60015b620001aa57620001cf565b620001b98160ff841662000313565b5080620001c68162000b93565b9150506200013a565b5050600354919050565b600081905560c051620001ef9060019062000bb6565b620001fc90600462000bd0565b60c0516000546200020e919062000bd0565b6200021a919062000bf2565b60015550565b3390565b600480546001600160a01b038381166001600160a01b0319831681179093556040519116919082907f8be0079c531659141344cd1fd0a4f28419497f9722a3daafe3b4186f6b6457e090600090a35050565b6004546001600160a01b03163314620002d65760405162461bcd60e51b815260206004820181905260248201527f4f776e61626c653a2063616c6c6572206973206e6f7420746865206f776e657260448201526064015b60405180910390fd5b600681905560405181815230907ff43f23b7a28e6f8ce6843a21bd7b48bce778aa913b8c8cf459edf7d770e8d38a9060200160405180910390a250565b6200032a82826200033a60201b620017331760201c565b6200033682826200042d565b5050565b60008290506003816001600160a01b031663313ce5676040518163ffffffff1660e01b8152600401602060405180830381865afa15801562000380573d6000803e3d6000fd5b505050506040513d601f19601f82011682018060405250810190620003a6919062000c15565b620003b390601262000c3a565b620003c39060ff16600a62000d5f565b815460018082018455600093845260208420909101919091556002805491820181559091527f405787fa12a823e0f2b7631cc41b3ba8828b3321ca811111fa75cd3aa3bb5ace0180546001600160a01b0319166001600160a01b0394909416939093179092555050565b6001600160a01b0382166000908152600760209081526040808320805460ff191660011790556008909152902081905560805162000336908390620003368260001983604051636eb1769f60e11b81523060048201526001600160a01b0382811660248301526000919085169063dd62ed3e90604401602060405180830381865afa158015620004c1573d6000803e3d6000fd5b505050506040513d601f19601f82011682018060405250810190620004e7919062000d6d565b905082811015620005465780156200051f576200051f826000866001600160a01b03166200054c60201b62001851179092919060201c565b6200054682600019866001600160a01b03166200054c60201b62001851179092919060201c565b50505050565b801580620005ca5750604051636eb1769f60e11b81523060048201526001600160a01b03838116602483015284169063dd62ed3e90604401602060405180830381865afa158015620005a2573d6000803e3d6000fd5b505050506040513d601f19601f82011682018060405250810190620005c8919062000d6d565b155b6200063e5760405162461bcd60e51b815260206004820152603660248201527f5361666545524332303a20617070726f76652066726f6d206e6f6e2d7a65726f60448201527f20746f206e6f6e2d7a65726f20616c6c6f77616e6365000000000000000000006064820152608401620002cd565b604080516001600160a01b038416602482015260448082018490528251808303909101815260649091019091526020810180516001600160e01b0390811663095ea7b360e01b17909152620006969185916200069b16565b505050565b6000620006f7826040518060400160405280602081526020017f5361666545524332303a206c6f772d6c6576656c2063616c6c206661696c6564815250856001600160a01b03166200077960201b62001a56179092919060201c565b80519091501562000696578080602001905181019062000718919062000d87565b620006965760405162461bcd60e51b815260206004820152602a60248201527f5361666545524332303a204552433230206f7065726174696f6e20646964206e6044820152691bdd081cdd58d8d9595960b21b6064820152608401620002cd565b60606200078a848460008562000794565b90505b9392505050565b606082471015620007f75760405162461bcd60e51b815260206004820152602660248201527f416464726573733a20696e73756666696369656e742062616c616e636520666f6044820152651c8818d85b1b60d21b6064820152608401620002cd565b6001600160a01b0385163b620008505760405162461bcd60e51b815260206004820152601d60248201527f416464726573733a2063616c6c20746f206e6f6e2d636f6e74726163740000006044820152606401620002cd565b600080866001600160a01b031685876040516200086e919062000dab565b60006040518083038185875af1925050503d8060008114620008ad576040519150601f19603f3d011682016040523d82523d6000602084013e620008b2565b606091505b509092509050620008c5828286620008d0565b979650505050505050565b60608315620008e15750816200078d565b825115620008f25782518084602001fd5b8160405162461bcd60e51b8152600401620002cd919062000dc9565b8280546200091c9062000dfe565b90600052602060002090601f0160209004810192826200094057600085556200098b565b82601f106200095b57805160ff19168380011785556200098b565b828001600101855582156200098b579182015b828111156200098b5782518255916020019190600101906200096e565b50620009999291506200099d565b5090565b5b808211156200099957600081556001016200099e565b634e487b7160e01b600052604160045260246000fd5b60005b83811015620009e7578181015183820152602001620009cd565b83811115620005465750506000910152565b6001600160a01b038116811462000a0f57600080fd5b50565b805162000a1f81620009f9565b919050565b60008060006060848603121562000a3a57600080fd5b83516001600160401b038082111562000a5257600080fd5b818601915086601f83011262000a6757600080fd5b81518181111562000a7c5762000a7c620009b4565b604051601f8201601f19908116603f0116810190838211818310171562000aa75762000aa7620009b4565b8160405282815289602084870101111562000ac157600080fd5b62000ad4836020830160208801620009ca565b80975050505050506020840151915062000af16040850162000a12565b90509250925092565b600080600080600080600060e0888a03121562000b1657600080fd5b875196506020880151955060408801519450606088015193506080880151925060a0880151915060c088015162000b4d81620009f9565b8091505092959891949750929550565b60006020828403121562000b7057600080fd5b81516200078d81620009f9565b634e487b7160e01b600052601160045260246000fd5b600060ff821660ff81141562000bad5762000bad62000b7d565b60010192915050565b60008282101562000bcb5762000bcb62000b7d565b500390565b600081600019048311821515161562000bed5762000bed62000b7d565b500290565b60008262000c1057634e487b7160e01b600052601260045260246000fd5b500490565b60006020828403121562000c2857600080fd5b815160ff811681146200078d57600080fd5b600060ff821660ff84168082101562000c575762000c5762000b7d565b90039392505050565b600181815b8085111562000ca157816000190482111562000c855762000c8562000b7d565b8085161562000c9357918102915b93841c939080029062000c65565b509250929050565b60008262000cba5750600162000d59565b8162000cc95750600062000d59565b816001811462000ce2576002811462000ced5762000d0d565b600191505062000d59565b60ff84111562000d015762000d0162000b7d565b50506001821b62000d59565b5060208310610133831016604e8410600b841016171562000d32575081810a62000d59565b62000d3e838362000c60565b806000190482111562000d555762000d5562000b7d565b0290505b92915050565b60006200078d838362000ca9565b60006020828403121562000d8057600080fd5b5051919050565b60006020828403121562000d9a57600080fd5b815180151581146200078d57600080fd5b6000825162000dbf818460208701620009ca565b9190910192915050565b602081526000825180602084015262000dea816040850160208701620009ca565b601f01601f19169190910160400192915050565b600181811c9082168062000e1357607f821691505b6020821081141562000e3557634e487b7160e01b600052602260045260246000fd5b50919050565b60805160a05160c051612d2362000eb860003960008181610382015281816105fb0152818161068c01528181611a710152611aa20152600081816102a3015261075e01526000818161020701528181610556015281816106ca0152818161091401528181611f7d01528181612084015261218f0152612d236000f3fe6080604052600436106101795760003560e01c806388156e65116100cb578063bc8814671161007f578063e61cf1dc11610059578063e61cf1dc14610464578063ef99893a14610484578063f2fde38b146104a457600080fd5b8063bc881467146103e4578063dced1a5a14610404578063de260f371461042457600080fd5b80638e499bcf116100b05780638e499bcf146103705780639e8c708e146103a4578063a9e40e07146103c457600080fd5b806388156e65146103255780638da5cb5b1461034557600080fd5b806354cf2aeb1161012d57806369cff80d1161010757806369cff80d146102da578063715018a6146102f057806384a33e631461030557600080fd5b806354cf2aeb1461027b5780635fcbd2851461029157806366b866f6146102c557600080fd5b80630dcaea9d1161015e5780630dcaea9d146101c757806316f0115b146101f5578063427f91a61461024e57600080fd5b806306fdde03146101855780630c472afd146101b057600080fd5b3661018057005b600080fd5b34801561019157600080fd5b5061019a6104c4565b6040516101a79190612690565b60405180910390f35b3480156101bc57600080fd5b506101c5610552565b005b3480156101d357600080fd5b506101e76101e2366004612710565b6105f7565b6040519081526020016101a7565b34801561020157600080fd5b506102297f000000000000000000000000000000000000000000000000000000000000000081565b60405173ffffffffffffffffffffffffffffffffffffffff90911681526020016101a7565b34801561025a57600080fd5b506101e761026936600461280e565b60086020526000908152604090205481565b34801561028757600080fd5b506101e760005481565b34801561029d57600080fd5b506102297f000000000000000000000000000000000000000000000000000000000000000081565b3480156102d157600080fd5b506101c5610cd3565b3480156102e657600080fd5b506101e760065481565b3480156102fc57600080fd5b506101c5610ea8565b34801561031157600080fd5b506101c561032036600461282b565b610f35565b34801561033157600080fd5b506101e7610340366004612844565b610ff3565b34801561035157600080fd5b5060045473ffffffffffffffffffffffffffffffffffffffff16610229565b34801561037c57600080fd5b506101e77f000000000000000000000000000000000000000000000000000000000000000081565b3480156103b057600080fd5b506101c56103bf36600461280e565b611237565b3480156103d057600080fd5b506102296103df366004612897565b611426565b3480156103f057600080fd5b506101c56103ff366004612897565b611433565b34801561041057600080fd5b5061022961041f36600461282b565b6114d6565b34801561043057600080fd5b5061045461043f36600461280e565b60076020526000908152604090205460ff1681565b60405190151581526020016101a7565b34801561047057600080fd5b506101c561047f366004612897565b61150d565b34801561049057600080fd5b506101e761049f3660046128d0565b611598565b3480156104b057600080fd5b506101c56104bf36600461280e565b611606565b600580546104d190612912565b80601f01602080910402602001604051908101604052809291908181526020018280546104fd90612912565b801561054a5780601f1061051f5761010080835404028352916020019161054a565b820191906000526020600020905b81548152906001019060200180831161052d57829003601f168201915b505050505081565b60007f000000000000000000000000000000000000000000000000000000000000000073ffffffffffffffffffffffffffffffffffffffff16635fd65f0f6040518163ffffffff1660e01b815260040160e060405180830381865afa1580156105bf573d6000803e3d6000fd5b505050506040513d601f19601f820116820180604052508101906105e39190612966565b50509450505050506105f481611a65565b50565b60007f0000000000000000000000000000000000000000000000000000000000000000825114610688576040517f08c379a000000000000000000000000000000000000000000000000000000000815260206004820181905260248201527f416d6f756e7473206d757374206d6174636820706f6f6c656420746f6b656e7360448201526064015b60405180910390fd5b60007f0000000000000000000000000000000000000000000000000000000000000000905060006040518060c0016040528060008152602001600081526020017f000000000000000000000000000000000000000000000000000000000000000073ffffffffffffffffffffffffffffffffffffffff16630ba819596040518163ffffffff1660e01b8152600401602060405180830381865afa158015610733573d6000803e3d6000fd5b505050506040513d601f19601f8201168201806040525081019061075791906129c6565b81526020017f000000000000000000000000000000000000000000000000000000000000000073ffffffffffffffffffffffffffffffffffffffff166318160ddd6040518163ffffffff1660e01b8152600401602060405180830381865afa1580156107c7573d6000803e3d6000fd5b505050506040513d601f19601f820116820180604052508101906107eb91906129c6565b81526020018367ffffffffffffffff811115610809576108096126e1565b604051908082528060200260200182016040528015610832578160200160208202803683370190505b508152602001600380548060200260200160405190810160405280929190818152602001828054801561088457602002820191906000526020600020905b815481526020019060010190808311610870575b5050505050815250905060008267ffffffffffffffff8111156108a9576108a96126e1565b6040519080825280602002602001820160405280156108d2578160200160208202803683370190505b50905060005b838160ff161015610a33576040517f91ceb3eb00000000000000000000000000000000000000000000000000000000815260ff821660048201527f000000000000000000000000000000000000000000000000000000000000000073ffffffffffffffffffffffffffffffffffffffff16906391ceb3eb90602401602060405180830381865afa158015610970573d6000803e3d6000fd5b505050506040513d601f19601f8201168201806040525081019061099491906129c6565b83608001518260ff16815181106109ad576109ad6129df565b602002602001018181525050858160ff16815181106109ce576109ce6129df565b602002602001015183608001518260ff16815181106109ef576109ef6129df565b6020026020010151610a019190612a3d565b828260ff1681518110610a1657610a166129df565b602090810291909101015280610a2b81612a55565b9150506108d8565b50606082015115610a6457610a5d610a5383608001518460a00151611ade565b8360400151611c16565b8252610b0c565b60005b838160ff161015610b0a576000868260ff1681518110610a8957610a896129df565b602002602001015111610af8576040517f08c379a000000000000000000000000000000000000000000000000000000000815260206004820152601e60248201527f4d75737420737570706c7920616c6c20746f6b656e7320696e20706f6f6c0000604482015260640161067f565b80610b0281612a55565b915050610a67565b505b610b1d610a53828460a00151611ade565b60208301819052825110610b8d576040517f08c379a000000000000000000000000000000000000000000000000000000000815260206004820152601160248201527f442073686f756c6420696e637265617365000000000000000000000000000000604482015260640161067f565b6060820151610ba25750602001519392505050565b60005b83811015610c89576000836000015184608001518381518110610bca57610bca6129df565b60200260200101518560200151610be19190612a75565b610beb9190612ab2565b905060006402540be400610c18858581518110610c0a57610c0a6129df565b602002602001015184611e04565b600154610c259190612a75565b610c2f9190612ab2565b905080848481518110610c4457610c446129df565b6020026020010151610c569190612aed565b848481518110610c6857610c686129df565b60200260200101818152505050508080610c8190612b04565b915050610ba5565b50610c9b610a53828460a00151611ade565b60208301819052825160608401519091610cb6908390612aed565b610cc09190612a75565b610cca9190612ab2565b95945050505050565b60045473ffffffffffffffffffffffffffffffffffffffff163314610d54576040517f08c379a000000000000000000000000000000000000000000000000000000000815260206004820181905260248201527f4f776e61626c653a2063616c6c6572206973206e6f7420746865206f776e6572604482015260640161067f565b4780610dbc576040517f08c379a000000000000000000000000000000000000000000000000000000000815260206004820152601b60248201527f416461707465723a204e6f7468696e6720746f207265636f7665720000000000604482015260640161067f565b6040518181526000907f8c1256b8896378cd5044f80c202f9772b9d77dc85c8a6eb51967210b09bfaa289060200160405180910390a2604051600090339083908381818185875af1925050503d8060008114610e34576040519150601f19603f3d011682016040523d82523d6000602084013e610e39565b606091505b5050905080610ea4576040517f08c379a000000000000000000000000000000000000000000000000000000000815260206004820152601360248201527f474153207472616e73666572206661696c656400000000000000000000000000604482015260640161067f565b5050565b60045473ffffffffffffffffffffffffffffffffffffffff163314610f29576040517f08c379a000000000000000000000000000000000000000000000000000000000815260206004820181905260248201527f4f776e61626c653a2063616c6c6572206973206e6f7420746865206f776e6572604482015260640161067f565b610f336000611e29565b565b60045473ffffffffffffffffffffffffffffffffffffffff163314610fb6576040517f08c379a000000000000000000000000000000000000000000000000000000000815260206004820181905260248201527f4f776e61626c653a2063616c6c6572206973206e6f7420746865206f776e6572604482015260640161067f565b600681905560405181815230907ff43f23b7a28e6f8ce6843a21bd7b48bce778aa913b8c8cf459edf7d770e8d38a9060200160405180910390a250565b600084611082576040517f08c379a000000000000000000000000000000000000000000000000000000000815260206004820152602260248201527f416461707465723a20496e73756666696369656e7420696e70757420616d6f7560448201527f6e74000000000000000000000000000000000000000000000000000000000000606482015260840161067f565b73ffffffffffffffffffffffffffffffffffffffff8216611125576040517f08c379a000000000000000000000000000000000000000000000000000000000815260206004820152602260248201527f416461707465723a20746f2063616e6e6f74206265207a65726f20616464726560448201527f7373000000000000000000000000000000000000000000000000000000000000606482015260840161067f565b8273ffffffffffffffffffffffffffffffffffffffff168473ffffffffffffffffffffffffffffffffffffffff1614156111bb576040517f08c379a000000000000000000000000000000000000000000000000000000000815260206004820152601b60248201527f416461707465723a20546f6b656e73206d757374206469666665720000000000604482015260640161067f565b6111c58484611ea0565b61122b576040517f08c379a000000000000000000000000000000000000000000000000000000000815260206004820152601760248201527f416461707465723a20756e6b6e6f776e20746f6b656e73000000000000000000604482015260640161067f565b610cca85858585611efe565b60045473ffffffffffffffffffffffffffffffffffffffff1633146112b8576040517f08c379a000000000000000000000000000000000000000000000000000000000815260206004820181905260248201527f4f776e61626c653a2063616c6c6572206973206e6f7420746865206f776e6572604482015260640161067f565b6040517f70a0823100000000000000000000000000000000000000000000000000000000815230600482015260009073ffffffffffffffffffffffffffffffffffffffff8316906370a0823190602401602060405180830381865afa158015611325573d6000803e3d6000fd5b505050506040513d601f19601f8201168201806040525081019061134991906129c6565b9050600081116113b5576040517f08c379a000000000000000000000000000000000000000000000000000000000815260206004820152601b60248201527f416461707465723a204e6f7468696e6720746f207265636f7665720000000000604482015260640161067f565b8173ffffffffffffffffffffffffffffffffffffffff167f8c1256b8896378cd5044f80c202f9772b9d77dc85c8a6eb51967210b09bfaa28826040516113fd91815260200190565b60405180910390a2610ea473ffffffffffffffffffffffffffffffffffffffff83163383611fff565b6000305b90505b92915050565b60045473ffffffffffffffffffffffffffffffffffffffff1633146114b4576040517f08c379a000000000000000000000000000000000000000000000000000000000815260206004820181905260248201527f4f776e61626c653a2063616c6c6572206973206e6f7420746865206f776e6572604482015260640161067f565b610ea473ffffffffffffffffffffffffffffffffffffffff8316826000611851565b600281815481106114e657600080fd5b60009182526020909120015473ffffffffffffffffffffffffffffffffffffffff16905081565b60045473ffffffffffffffffffffffffffffffffffffffff16331461158e576040517f08c379a000000000000000000000000000000000000000000000000000000000815260206004820181905260248201527f4f776e61626c653a2063616c6c6572206973206e6f7420746865206f776e6572604482015260640161067f565b610ea48282612055565b60008315806115d257508173ffffffffffffffffffffffffffffffffffffffff168373ffffffffffffffffffffffffffffffffffffffff16145b806115e457506115e28383611ea0565b155b156115f1575060006115ff565b6115fc848484612080565b90505b9392505050565b60045473ffffffffffffffffffffffffffffffffffffffff163314611687576040517f08c379a000000000000000000000000000000000000000000000000000000000815260206004820181905260248201527f4f776e61626c653a2063616c6c6572206973206e6f7420746865206f776e6572604482015260640161067f565b73ffffffffffffffffffffffffffffffffffffffff811661172a576040517f08c379a000000000000000000000000000000000000000000000000000000000815260206004820152602660248201527f4f776e61626c653a206e6577206f776e657220697320746865207a65726f206160448201527f6464726573730000000000000000000000000000000000000000000000000000606482015260840161067f565b6105f481611e29565b600082905060038173ffffffffffffffffffffffffffffffffffffffff1663313ce5676040518163ffffffff1660e01b8152600401602060405180830381865afa158015611785573d6000803e3d6000fd5b505050506040513d601f19601f820116820180604052508101906117a99190612b3d565b6117b4906012612b60565b6117c29060ff16600a612ca3565b815460018082018455600093845260208420909101919091556002805491820181559091527f405787fa12a823e0f2b7631cc41b3ba8828b3321ca811111fa75cd3aa3bb5ace0180547fffffffffffffffffffffffff00000000000000000000000000000000000000001673ffffffffffffffffffffffffffffffffffffffff94909416939093179092555050565b8015806118f157506040517fdd62ed3e00000000000000000000000000000000000000000000000000000000815230600482015273ffffffffffffffffffffffffffffffffffffffff838116602483015284169063dd62ed3e90604401602060405180830381865afa1580156118cb573d6000803e3d6000fd5b505050506040513d601f19601f820116820180604052508101906118ef91906129c6565b155b61197d576040517f08c379a000000000000000000000000000000000000000000000000000000000815260206004820152603660248201527f5361666545524332303a20617070726f76652066726f6d206e6f6e2d7a65726f60448201527f20746f206e6f6e2d7a65726f20616c6c6f77616e636500000000000000000000606482015260840161067f565b60405173ffffffffffffffffffffffffffffffffffffffff8316602482015260448101829052611a519084907f095ea7b300000000000000000000000000000000000000000000000000000000906064015b604080517fffffffffffffffffffffffffffffffffffffffffffffffffffffffffffffffe08184030181529190526020810180517bffffffffffffffffffffffffffffffffffffffffffffffffffffffff167fffffffff000000000000000000000000000000000000000000000000000000009093169290921790915261221e565b505050565b60606115fc848460008561232a565b6000819055611a9560017f0000000000000000000000000000000000000000000000000000000000000000612aed565b611aa0906004612a75565b7f0000000000000000000000000000000000000000000000000000000000000000600054611ace9190612a75565b611ad89190612ab2565b60015550565b81518151606091908114611b4e576040517f08c379a000000000000000000000000000000000000000000000000000000000815260206004820152601f60248201527f42616c616e636573206d757374206d61746368206d756c7469706c6965727300604482015260640161067f565b60008167ffffffffffffffff811115611b6957611b696126e1565b604051908082528060200260200182016040528015611b92578160200160208202803683370190505b50905060005b82811015611c0d57848181518110611bb257611bb26129df565b6020026020010151868281518110611bcc57611bcc6129df565b6020026020010151611bde9190612a75565b828281518110611bf057611bf06129df565b602090810291909101015280611c0581612b04565b915050611b98565b50949350505050565b815160009081805b82811015611c5f57858181518110611c3857611c386129df565b602002602001015182611c4b9190612a3d565b915080611c5781612b04565b915050611c1e565b5080611c705760009250505061142d565b60008181611c7e8588612a75565b905060005b610100811015611da1578260005b87811015611ce657878b8281518110611cac57611cac6129df565b6020026020010151611cbe9190612a75565b611cc88684612a75565b611cd29190612ab2565b915080611cde81612b04565b915050611c91565b5083945080876001611cf89190612a3d565b611d029190612a75565b606485611d0f8287612aed565b611d199190612a75565b611d239190612ab2565b611d2d9190612a3d565b84611d388984612a75565b6064611d448a88612a75565b611d4e9190612ab2565b611d589190612a3d565b611d629190612a75565b611d6c9190612ab2565b93506001611d7a8587611e04565b11611d8e578397505050505050505061142d565b5080611d9981612b04565b915050611c83565b506040517f08c379a000000000000000000000000000000000000000000000000000000000815260206004820152601360248201527f4420646f6573206e6f7420636f6e766572676500000000000000000000000000604482015260640161067f565b600081831115611e1f57611e188284612aed565b905061142d565b611e188383612aed565b6004805473ffffffffffffffffffffffffffffffffffffffff8381167fffffffffffffffffffffffff0000000000000000000000000000000000000000831681179093556040519116919082907f8be0079c531659141344cd1fd0a4f28419497f9722a3daafe3b4186f6b6457e090600090a35050565b73ffffffffffffffffffffffffffffffffffffffff821660009081526007602052604081205460ff16801561142a57505073ffffffffffffffffffffffffffffffffffffffff1660009081526007602052604090205460ff16919050565b73ffffffffffffffffffffffffffffffffffffffff8381166000908152600860205260408082205485841683528183205491517f9169558600000000000000000000000000000000000000000000000000000000815260ff918216600482015291166024820152604481018790526064810182905242608482015290917f0000000000000000000000000000000000000000000000000000000000000000169063916955869060a4016020604051808303816000875af1158015611fc6573d6000803e3d6000fd5b505050506040513d601f19601f82011682018060405250810190611fea91906129c6565b9050611ff78382846124c0565b949350505050565b60405173ffffffffffffffffffffffffffffffffffffffff8316602482015260448101829052611a519084907fa9059cbb00000000000000000000000000000000000000000000000000000000906064016119cf565b610ea4827fffffffffffffffffffffffffffffffffffffffffffffffffffffffffffffffff836124fe565b60007f000000000000000000000000000000000000000000000000000000000000000073ffffffffffffffffffffffffffffffffffffffff16635c975abb6040518163ffffffff1660e01b8152600401602060405180830381865afa1580156120ed573d6000803e3d6000fd5b505050506040513d601f19601f820116820180604052508101906121119190612caf565b1561211e575060006115ff565b73ffffffffffffffffffffffffffffffffffffffff838116600090815260086020526040808220548584168352918190205490517fa95b089f00000000000000000000000000000000000000000000000000000000815260ff928316600482015291166024820152604481018690527f00000000000000000000000000000000000000000000000000000000000000009091169063a95b089f90606401602060405180830381865afa925050508015612212575060408051601f3d9081017fffffffffffffffffffffffffffffffffffffffffffffffffffffffffffffffe016820190925261220f918101906129c6565b60015b6115fc575060006115ff565b6000612280826040518060400160405280602081526020017f5361666545524332303a206c6f772d6c6576656c2063616c6c206661696c65648152508573ffffffffffffffffffffffffffffffffffffffff16611a569092919063ffffffff16565b805190915015611a51578080602001905181019061229e9190612caf565b611a51576040517f08c379a000000000000000000000000000000000000000000000000000000000815260206004820152602a60248201527f5361666545524332303a204552433230206f7065726174696f6e20646964206e60448201527f6f74207375636365656400000000000000000000000000000000000000000000606482015260840161067f565b6060824710156123bc576040517f08c379a000000000000000000000000000000000000000000000000000000000815260206004820152602660248201527f416464726573733a20696e73756666696369656e742062616c616e636520666f60448201527f722063616c6c0000000000000000000000000000000000000000000000000000606482015260840161067f565b73ffffffffffffffffffffffffffffffffffffffff85163b61243a576040517f08c379a000000000000000000000000000000000000000000000000000000000815260206004820152601d60248201527f416464726573733a2063616c6c20746f206e6f6e2d636f6e7472616374000000604482015260640161067f565b6000808673ffffffffffffffffffffffffffffffffffffffff1685876040516124639190612cd1565b60006040518083038185875af1925050503d80600081146124a0576040519150601f19603f3d011682016040523d82523d6000602084013e6124a5565b606091505b50915091506124b5828286612611565b979650505050505050565b3073ffffffffffffffffffffffffffffffffffffffff821614611a5157611a5173ffffffffffffffffffffffffffffffffffffffff84168284611fff565b6040517fdd62ed3e00000000000000000000000000000000000000000000000000000000815230600482015273ffffffffffffffffffffffffffffffffffffffff82811660248301526000919085169063dd62ed3e90604401602060405180830381865afa158015612574573d6000803e3d6000fd5b505050506040513d601f19601f8201168201806040525081019061259891906129c6565b90508281101561260b5780156125ca576125ca73ffffffffffffffffffffffffffffffffffffffff8516836000611851565b61260b73ffffffffffffffffffffffffffffffffffffffff8516837fffffffffffffffffffffffffffffffffffffffffffffffffffffffffffffffff611851565b50505050565b606083156126205750816115ff565b8251156126305782518084602001fd5b816040517f08c379a000000000000000000000000000000000000000000000000000000000815260040161067f9190612690565b60005b8381101561267f578181015183820152602001612667565b8381111561260b5750506000910152565b60208152600082518060208401526126af816040850160208701612664565b601f017fffffffffffffffffffffffffffffffffffffffffffffffffffffffffffffffe0169190910160400192915050565b7f4e487b7100000000000000000000000000000000000000000000000000000000600052604160045260246000fd5b6000602080838503121561272357600080fd5b823567ffffffffffffffff8082111561273b57600080fd5b818501915085601f83011261274f57600080fd5b813581811115612761576127616126e1565b8060051b6040517fffffffffffffffffffffffffffffffffffffffffffffffffffffffffffffffe0603f830116810181811085821117156127a4576127a46126e1565b6040529182528482019250838101850191888311156127c257600080fd5b938501935b828510156127e0578435845293850193928501926127c7565b98975050505050505050565b73ffffffffffffffffffffffffffffffffffffffff811681146105f457600080fd5b60006020828403121561282057600080fd5b81356115ff816127ec565b60006020828403121561283d57600080fd5b5035919050565b6000806000806080858703121561285a57600080fd5b84359350602085013561286c816127ec565b9250604085013561287c816127ec565b9150606085013561288c816127ec565b939692955090935050565b600080604083850312156128aa57600080fd5b82356128b5816127ec565b915060208301356128c5816127ec565b809150509250929050565b6000806000606084860312156128e557600080fd5b8335925060208401356128f7816127ec565b91506040840135612907816127ec565b809150509250925092565b600181811c9082168061292657607f821691505b60208210811415612960577f4e487b7100000000000000000000000000000000000000000000000000000000600052602260045260246000fd5b50919050565b600080600080600080600060e0888a03121561298157600080fd5b875196506020880151955060408801519450606088015193506080880151925060a0880151915060c08801516129b6816127ec565b8091505092959891949750929550565b6000602082840312156129d857600080fd5b5051919050565b7f4e487b7100000000000000000000000000000000000000000000000000000000600052603260045260246000fd5b7f4e487b7100000000000000000000000000000000000000000000000000000000600052601160045260246000fd5b60008219821115612a5057612a50612a0e565b500190565b600060ff821660ff811415612a6c57612a6c612a0e565b60010192915050565b6000817fffffffffffffffffffffffffffffffffffffffffffffffffffffffffffffffff0483118215151615612aad57612aad612a0e565b500290565b600082612ae8577f4e487b7100000000000000000000000000000000000000000000000000000000600052601260045260246000fd5b500490565b600082821015612aff57612aff612a0e565b500390565b60007fffffffffffffffffffffffffffffffffffffffffffffffffffffffffffffffff821415612b3657612b36612a0e565b5060010190565b600060208284031215612b4f57600080fd5b815160ff811681146115ff57600080fd5b600060ff821660ff841680821015612b7a57612b7a612a0e565b90039392505050565b600181815b80851115612bdc57817fffffffffffffffffffffffffffffffffffffffffffffffffffffffffffffffff04821115612bc257612bc2612a0e565b80851615612bcf57918102915b93841c9390800290612b88565b509250929050565b600082612bf35750600161142d565b81612c005750600061142d565b8160018114612c165760028114612c2057612c3c565b600191505061142d565b60ff841115612c3157612c31612a0e565b50506001821b61142d565b5060208310610133831016604e8410600b8410161715612c5f575081810a61142d565b612c698383612b83565b807fffffffffffffffffffffffffffffffffffffffffffffffffffffffffffffffff04821115612c9b57612c9b612a0e565b029392505050565b600061142a8383612be4565b600060208284031215612cc157600080fd5b815180151581146115ff57600080fd5b60008251612ce3818460208701612664565b919091019291505056fea26469706673582212209f7f88a6bc20294e6507c32f1e79675852f79789fcae23d4571f746920ca5f6e64736f6c634300080b0033",
  "devdoc": {
    "kind": "dev",
    "methods": {
      "depositAddress(address,address)": {
        "returns": {
          "_0": "Address to transfer tokens in order for swap() to work"
        }
      },
      "owner()": {
        "details": "Returns the address of the current owner."
      },
      "query(uint256,address,address)": {
        "params": {
          "amountIn": "input amount in starting token",
          "tokenIn": "ERC20 token being sold",
          "tokenOut": "ERC20 token being bought"
        }
      },
      "recoverERC20(address)": {
        "params": {
          "token": "token to recover"
        }
      },
      "renounceOwnership()": {
        "details": "Leaves the contract without owner. It will not be possible to call `onlyOwner` functions anymore. Can only be called by the current owner. NOTE: Renouncing ownership will leave the contract without an owner, thereby removing any functionality that is only available to the owner."
      },
      "revokeTokenAllowance(address,address)": {
        "params": {
          "spender": "address",
          "token": "address"
        }
      },
      "setSwapGasEstimate(uint256)": {
        "details": "this is estimated amount of gas that's used by swap() implementation"
      },
      "swap(uint256,address,address,address)": {
        "params": {
          "amountIn": "input amount in starting token",
          "to": "address where swapped funds should be sent to",
          "tokenIn": "ERC20 token being sold",
          "tokenOut": "ERC20 token being bought"
        },
        "returns": {
          "amountOut": "amount of tokenOut tokens received in swap"
        }
      },
      "transferOwnership(address)": {
        "details": "Transfers ownership of the contract to a new account (`newOwner`). Can only be called by the current owner."
      }
    },
    "version": 1
  },
  "userdoc": {
    "kind": "user",
    "methods": {
      "query(uint256,address,address)": {
        "notice": "Get query for a swap through this adapter"
      },
      "recoverERC20(address)": {
        "notice": "Recover ERC20 from contract"
      },
      "recoverGAS()": {
        "notice": "Recover GAS from contract"
      },
      "revokeTokenAllowance(address,address)": {
        "notice": "Revoke token allowance"
      },
      "swap(uint256,address,address,address)": {
        "notice": "Execute a swap with given input amount of tokens from tokenIn to tokenOut,         assuming input tokens were transferred to depositAddress(tokenIn, tokenOut)"
      }
    },
    "version": 1
  },
  "storageLayout": {
    "storage": [
      {
        "astId": 11928,
        "contract": "contracts/router/adapters/synapse/SynapseBaseAdapter.sol:SynapseBaseAdapter",
        "label": "swapFee",
        "offset": 0,
        "slot": "0",
        "type": "t_uint256"
      },
      {
        "astId": 11930,
        "contract": "contracts/router/adapters/synapse/SynapseBaseAdapter.sol:SynapseBaseAdapter",
        "label": "swapFeePerToken",
        "offset": 0,
        "slot": "1",
        "type": "t_uint256"
      },
      {
        "astId": 11934,
        "contract": "contracts/router/adapters/synapse/SynapseBaseAdapter.sol:SynapseBaseAdapter",
        "label": "poolTokens",
        "offset": 0,
        "slot": "2",
        "type": "t_array(t_contract(IERC20)3461)dyn_storage"
      },
      {
        "astId": 11937,
        "contract": "contracts/router/adapters/synapse/SynapseBaseAdapter.sol:SynapseBaseAdapter",
        "label": "tokenPrecisionMultipliers",
        "offset": 0,
        "slot": "3",
        "type": "t_array(t_uint256)dyn_storage"
      },
      {
        "astId": 389,
        "contract": "contracts/router/adapters/synapse/SynapseBaseAdapter.sol:SynapseBaseAdapter",
        "label": "_owner",
        "offset": 0,
        "slot": "4",
        "type": "t_address"
      },
      {
        "astId": 4048,
        "contract": "contracts/router/adapters/synapse/SynapseBaseAdapter.sol:SynapseBaseAdapter",
        "label": "name",
        "offset": 0,
        "slot": "5",
        "type": "t_string_storage"
      },
      {
        "astId": 4050,
        "contract": "contracts/router/adapters/synapse/SynapseBaseAdapter.sol:SynapseBaseAdapter",
        "label": "swapGasEstimate",
        "offset": 0,
        "slot": "6",
        "type": "t_uint256"
      },
      {
        "astId": 10306,
        "contract": "contracts/router/adapters/synapse/SynapseBaseAdapter.sol:SynapseBaseAdapter",
        "label": "isPoolToken",
        "offset": 0,
        "slot": "7",
        "type": "t_mapping(t_address,t_bool)"
      },
      {
        "astId": 10310,
        "contract": "contracts/router/adapters/synapse/SynapseBaseAdapter.sol:SynapseBaseAdapter",
        "label": "tokenIndex",
        "offset": 0,
        "slot": "8",
        "type": "t_mapping(t_address,t_uint256)"
      }
    ],
    "types": {
      "t_address": {
        "encoding": "inplace",
        "label": "address",
        "numberOfBytes": "20"
      },
      "t_array(t_contract(IERC20)3461)dyn_storage": {
        "base": "t_contract(IERC20)3461",
        "encoding": "dynamic_array",
        "label": "contract IERC20[]",
        "numberOfBytes": "32"
      },
      "t_array(t_uint256)dyn_storage": {
        "base": "t_uint256",
        "encoding": "dynamic_array",
        "label": "uint256[]",
        "numberOfBytes": "32"
      },
      "t_bool": {
        "encoding": "inplace",
        "label": "bool",
        "numberOfBytes": "1"
      },
      "t_contract(IERC20)3461": {
        "encoding": "inplace",
        "label": "contract IERC20",
        "numberOfBytes": "20"
      },
      "t_mapping(t_address,t_bool)": {
        "encoding": "mapping",
        "key": "t_address",
        "label": "mapping(address => bool)",
        "numberOfBytes": "32",
        "value": "t_bool"
      },
      "t_mapping(t_address,t_uint256)": {
        "encoding": "mapping",
        "key": "t_address",
        "label": "mapping(address => uint256)",
        "numberOfBytes": "32",
        "value": "t_uint256"
      },
      "t_string_storage": {
        "encoding": "bytes",
        "label": "string",
        "numberOfBytes": "32"
      },
      "t_uint256": {
        "encoding": "inplace",
        "label": "uint256",
        "numberOfBytes": "32"
      }
    }
  }
}