{
  "address": "0x27440DC7BC9BA0B13279F161FaB3D6316f795E70",
  "abi": [
    {
      "inputs": [
        {
          "internalType": "string",
          "name": "_name",
          "type": "string"
        },
        {
          "internalType": "uint256",
          "name": "_swapGasEstimate",
          "type": "uint256"
        },
        {
          "internalType": "address",
          "name": "_uniswapV2FactoryAddress",
          "type": "address"
        },
        {
          "internalType": "bytes32",
          "name": "_initCodeHash",
          "type": "bytes32"
        },
        {
          "internalType": "uint256",
          "name": "_fee",
          "type": "uint256"
        }
      ],
      "stateMutability": "nonpayable",
      "type": "constructor"
    },
    {
      "anonymous": false,
      "inputs": [
        {
          "indexed": true,
          "internalType": "address",
          "name": "previousOwner",
          "type": "address"
        },
        {
          "indexed": true,
          "internalType": "address",
          "name": "newOwner",
          "type": "address"
        }
      ],
      "name": "OwnershipTransferred",
      "type": "event"
    },
    {
      "anonymous": false,
      "inputs": [
        {
          "indexed": true,
          "internalType": "address",
          "name": "asset",
          "type": "address"
        },
        {
          "indexed": false,
          "internalType": "uint256",
          "name": "amount",
          "type": "uint256"
        }
      ],
      "name": "Recovered",
      "type": "event"
    },
    {
      "anonymous": false,
      "inputs": [
        {
          "indexed": true,
          "internalType": "address",
          "name": "adapter",
          "type": "address"
        },
        {
          "indexed": false,
          "internalType": "uint256",
          "name": "newEstimate",
          "type": "uint256"
        }
      ],
      "name": "UpdatedGasEstimate",
      "type": "event"
    },
    {
      "inputs": [
        {
          "internalType": "address",
          "name": "tokenIn",
          "type": "address"
        },
        {
          "internalType": "address",
          "name": "tokenOut",
          "type": "address"
        }
      ],
      "name": "depositAddress",
      "outputs": [
        {
          "internalType": "address",
          "name": "",
          "type": "address"
        }
      ],
      "stateMutability": "view",
      "type": "function"
    },
    {
      "inputs": [],
      "name": "name",
      "outputs": [
        {
          "internalType": "string",
          "name": "",
          "type": "string"
        }
      ],
      "stateMutability": "view",
      "type": "function"
    },
    {
      "inputs": [],
      "name": "owner",
      "outputs": [
        {
          "internalType": "address",
          "name": "",
          "type": "address"
        }
      ],
      "stateMutability": "view",
      "type": "function"
    },
    {
      "inputs": [
        {
          "internalType": "uint256",
          "name": "amountIn",
          "type": "uint256"
        },
        {
          "internalType": "address",
          "name": "tokenIn",
          "type": "address"
        },
        {
          "internalType": "address",
          "name": "tokenOut",
          "type": "address"
        }
      ],
      "name": "query",
      "outputs": [
        {
          "internalType": "uint256",
          "name": "",
          "type": "uint256"
        }
      ],
      "stateMutability": "view",
      "type": "function"
    },
    {
      "inputs": [
        {
          "internalType": "contract IERC20",
          "name": "token",
          "type": "address"
        }
      ],
      "name": "recoverERC20",
      "outputs": [],
      "stateMutability": "nonpayable",
      "type": "function"
    },
    {
      "inputs": [],
      "name": "recoverGAS",
      "outputs": [],
      "stateMutability": "nonpayable",
      "type": "function"
    },
    {
      "inputs": [],
      "name": "renounceOwnership",
      "outputs": [],
      "stateMutability": "nonpayable",
      "type": "function"
    },
    {
      "inputs": [
        {
          "internalType": "contract IERC20",
          "name": "token",
          "type": "address"
        },
        {
          "internalType": "address",
          "name": "spender",
          "type": "address"
        }
      ],
      "name": "revokeTokenAllowance",
      "outputs": [],
      "stateMutability": "nonpayable",
      "type": "function"
    },
    {
      "inputs": [
        {
          "internalType": "contract IERC20",
          "name": "token",
          "type": "address"
        },
        {
          "internalType": "address",
          "name": "spender",
          "type": "address"
        }
      ],
      "name": "setInfiniteAllowance",
      "outputs": [],
      "stateMutability": "nonpayable",
      "type": "function"
    },
    {
      "inputs": [
        {
          "internalType": "uint256",
          "name": "_swapGasEstimate",
          "type": "uint256"
        }
      ],
      "name": "setSwapGasEstimate",
      "outputs": [],
      "stateMutability": "nonpayable",
      "type": "function"
    },
    {
      "inputs": [
        {
          "internalType": "uint256",
          "name": "amountIn",
          "type": "uint256"
        },
        {
          "internalType": "address",
          "name": "tokenIn",
          "type": "address"
        },
        {
          "internalType": "address",
          "name": "tokenOut",
          "type": "address"
        },
        {
          "internalType": "address",
          "name": "to",
          "type": "address"
        }
      ],
      "name": "swap",
      "outputs": [
        {
          "internalType": "uint256",
          "name": "amountOut",
          "type": "uint256"
        }
      ],
      "stateMutability": "nonpayable",
      "type": "function"
    },
    {
      "inputs": [],
      "name": "swapGasEstimate",
      "outputs": [
        {
          "internalType": "uint256",
          "name": "",
          "type": "uint256"
        }
      ],
      "stateMutability": "view",
      "type": "function"
    },
    {
      "inputs": [
        {
          "internalType": "address",
          "name": "newOwner",
          "type": "address"
        }
      ],
      "name": "transferOwnership",
      "outputs": [],
      "stateMutability": "nonpayable",
      "type": "function"
    },
    {
      "inputs": [],
      "name": "uniswapV2Factory",
      "outputs": [
        {
          "internalType": "address",
          "name": "",
          "type": "address"
        }
      ],
      "stateMutability": "view",
      "type": "function"
    },
    {
      "stateMutability": "payable",
      "type": "receive"
    }
  ],
  "transactionHash": "0xd448968dc92f92844bcdd7e1a4ad7b2188854a88cab862f1510e128512f6f31d",
  "args": [
    "TraderJoe on Avalanche",
    0,
    "0x9Ad6C38BE94206cA50bb0d90783181662f0Cfa10",
    "0x0bbca9af0511ad1a1da383135cf3a8d2ac620e549ef9f6ae3a4c33c2fed0af91",
    30
  ],
  "solcInputHash": "981f38149fd49d3cec0cb27aa531a82e",
  "bytecode": "0x60e06040523480156200001157600080fd5b50604051620021f1380380620021f18339810160408190526200003491620002c8565b8484620000413362000106565b815162000056906001906020850190620001ef565b50620000628162000156565b50506127108110620000d15760405162461bcd60e51b815260206004820152602d60248201527f46656520697320746f6f20686967682e204d757374206265206c65737320746860448201526c30b71036bab63a34b83634b2b960991b60648201526084015b60405180910390fd5b620000df81612710620003d6565b6001600160801b0316608052506001600160a01b0390911660a05260c05250620004399050565b600080546001600160a01b038381166001600160a01b0319831681178455604051919092169283917f8be0079c531659141344cd1fd0a4f28419497f9722a3daafe3b4186f6b6457e09190a35050565b6000546001600160a01b03163314620001b25760405162461bcd60e51b815260206004820181905260248201527f4f776e61626c653a2063616c6c6572206973206e6f7420746865206f776e65726044820152606401620000c8565b600281905560405181815230907ff43f23b7a28e6f8ce6843a21bd7b48bce778aa913b8c8cf459edf7d770e8d38a9060200160405180910390a250565b828054620001fd90620003fc565b90600052602060002090601f0160209004810192826200022157600085556200026c565b82601f106200023c57805160ff19168380011785556200026c565b828001600101855582156200026c579182015b828111156200026c5782518255916020019190600101906200024f565b506200027a9291506200027e565b5090565b5b808211156200027a57600081556001016200027f565b634e487b7160e01b600052604160045260246000fd5b80516001600160a01b0381168114620002c357600080fd5b919050565b600080600080600060a08688031215620002e157600080fd5b85516001600160401b0380821115620002f957600080fd5b818801915088601f8301126200030e57600080fd5b81518181111562000323576200032362000295565b604051601f8201601f19908116603f011681019083821181831017156200034e576200034e62000295565b81604052828152602093508b848487010111156200036b57600080fd5b600091505b828210156200038f578482018401518183018501529083019062000370565b82821115620003a15760008484830101525b8099505050508088015195505050620003bd60408701620002ab565b6060870151608090970151959894975095949392505050565b600082821015620003f757634e487b7160e01b600052601160045260246000fd5b500390565b600181811c908216806200041157607f821691505b602082108114156200043357634e487b7160e01b600052602260045260246000fd5b50919050565b60805160a05160c051611d8162000470600039600061120701526000818161012a01526111d6015260006117d00152611d816000f3fe6080604052600436106100e15760003560e01c80638da5cb5b1161007f578063bc88146711610059578063bc8814671461026c578063e61cf1dc1461028c578063ef99893a146102ac578063f2fde38b146102cc57600080fd5b80638da5cb5b146102015780639e8c708e1461022c578063a9e40e071461024c57600080fd5b806369cff80d116100bb57806369cff80d14610188578063715018a6146101ac57806384a33e63146101c157806388156e65146101e157600080fd5b806306fdde03146100ed57806359d0f7131461011857806366b866f61461017157600080fd5b366100e857005b600080fd5b3480156100f957600080fd5b506101026102ec565b60405161010f91906119fb565b60405180910390f35b34801561012457600080fd5b5061014c7f000000000000000000000000000000000000000000000000000000000000000081565b60405173ffffffffffffffffffffffffffffffffffffffff909116815260200161010f565b34801561017d57600080fd5b5061018661037a565b005b34801561019457600080fd5b5061019e60025481565b60405190815260200161010f565b3480156101b857600080fd5b50610186610554565b3480156101cd57600080fd5b506101866101dc366004611a0e565b6105e1565b3480156101ed57600080fd5b5061019e6101fc366004611a49565b61069f565b34801561020d57600080fd5b5060005473ffffffffffffffffffffffffffffffffffffffff1661014c565b34801561023857600080fd5b50610186610247366004611a9c565b61087c565b34801561025857600080fd5b5061014c610267366004611ab9565b610a6b565b34801561027857600080fd5b50610186610287366004611ab9565b610a7e565b34801561029857600080fd5b506101866102a7366004611ab9565b610b21565b3480156102b857600080fd5b5061019e6102c7366004611af2565b610bac565b3480156102d857600080fd5b506101866102e7366004611a9c565b610c0f565b600180546102f990611b34565b80601f016020809104026020016040519081016040528092919081815260200182805461032590611b34565b80156103725780601f1061034757610100808354040283529160200191610372565b820191906000526020600020905b81548152906001019060200180831161035557829003601f168201915b505050505081565b60005473ffffffffffffffffffffffffffffffffffffffff163314610400576040517f08c379a000000000000000000000000000000000000000000000000000000000815260206004820181905260248201527f4f776e61626c653a2063616c6c6572206973206e6f7420746865206f776e657260448201526064015b60405180910390fd5b4780610468576040517f08c379a000000000000000000000000000000000000000000000000000000000815260206004820152601b60248201527f416461707465723a204e6f7468696e6720746f207265636f766572000000000060448201526064016103f7565b6040518181526000907f8c1256b8896378cd5044f80c202f9772b9d77dc85c8a6eb51967210b09bfaa289060200160405180910390a2604051600090339083908381818185875af1925050503d80600081146104e0576040519150601f19603f3d011682016040523d82523d6000602084013e6104e5565b606091505b5050905080610550576040517f08c379a000000000000000000000000000000000000000000000000000000000815260206004820152601360248201527f474153207472616e73666572206661696c65640000000000000000000000000060448201526064016103f7565b5050565b60005473ffffffffffffffffffffffffffffffffffffffff1633146105d5576040517f08c379a000000000000000000000000000000000000000000000000000000000815260206004820181905260248201527f4f776e61626c653a2063616c6c6572206973206e6f7420746865206f776e657260448201526064016103f7565b6105df6000610d3f565b565b60005473ffffffffffffffffffffffffffffffffffffffff163314610662576040517f08c379a000000000000000000000000000000000000000000000000000000000815260206004820181905260248201527f4f776e61626c653a2063616c6c6572206973206e6f7420746865206f776e657260448201526064016103f7565b600281905560405181815230907ff43f23b7a28e6f8ce6843a21bd7b48bce778aa913b8c8cf459edf7d770e8d38a9060200160405180910390a250565b60008461072e576040517f08c379a000000000000000000000000000000000000000000000000000000000815260206004820152602260248201527f416461707465723a20496e73756666696369656e7420696e70757420616d6f7560448201527f6e7400000000000000000000000000000000000000000000000000000000000060648201526084016103f7565b73ffffffffffffffffffffffffffffffffffffffff82166107d1576040517f08c379a000000000000000000000000000000000000000000000000000000000815260206004820152602260248201527f416461707465723a20746f2063616e6e6f74206265207a65726f20616464726560448201527f737300000000000000000000000000000000000000000000000000000000000060648201526084016103f7565b8273ffffffffffffffffffffffffffffffffffffffff168473ffffffffffffffffffffffffffffffffffffffff161415610867576040517f08c379a000000000000000000000000000000000000000000000000000000000815260206004820152601b60248201527f416461707465723a20546f6b656e73206d75737420646966666572000000000060448201526064016103f7565b61087385858585610db4565b95945050505050565b60005473ffffffffffffffffffffffffffffffffffffffff1633146108fd576040517f08c379a000000000000000000000000000000000000000000000000000000000815260206004820181905260248201527f4f776e61626c653a2063616c6c6572206973206e6f7420746865206f776e657260448201526064016103f7565b6040517f70a0823100000000000000000000000000000000000000000000000000000000815230600482015260009073ffffffffffffffffffffffffffffffffffffffff8316906370a0823190602401602060405180830381865afa15801561096a573d6000803e3d6000fd5b505050506040513d601f19601f8201168201806040525081019061098e9190611b88565b9050600081116109fa576040517f08c379a000000000000000000000000000000000000000000000000000000000815260206004820152601b60248201527f416461707465723a204e6f7468696e6720746f207265636f766572000000000060448201526064016103f7565b8173ffffffffffffffffffffffffffffffffffffffff167f8c1256b8896378cd5044f80c202f9772b9d77dc85c8a6eb51967210b09bfaa2882604051610a4291815260200190565b60405180910390a261055073ffffffffffffffffffffffffffffffffffffffff83163383610fd1565b6000610a7783836110aa565b9392505050565b60005473ffffffffffffffffffffffffffffffffffffffff163314610aff576040517f08c379a000000000000000000000000000000000000000000000000000000000815260206004820181905260248201527f4f776e61626c653a2063616c6c6572206973206e6f7420746865206f776e657260448201526064016103f7565b61055073ffffffffffffffffffffffffffffffffffffffff831682600061126f565b60005473ffffffffffffffffffffffffffffffffffffffff163314610ba2576040517f08c379a000000000000000000000000000000000000000000000000000000000815260206004820181905260248201527f4f776e61626c653a2063616c6c6572206973206e6f7420746865206f776e657260448201526064016103f7565b61055082826113f1565b6000831580610be657508173ffffffffffffffffffffffffffffffffffffffff168373ffffffffffffffffffffffffffffffffffffffff16145b80610bef575060005b15610bfc57506000610a77565b610c0784848461141c565b949350505050565b60005473ffffffffffffffffffffffffffffffffffffffff163314610c90576040517f08c379a000000000000000000000000000000000000000000000000000000000815260206004820181905260248201527f4f776e61626c653a2063616c6c6572206973206e6f7420746865206f776e657260448201526064016103f7565b73ffffffffffffffffffffffffffffffffffffffff8116610d33576040517f08c379a000000000000000000000000000000000000000000000000000000000815260206004820152602660248201527f4f776e61626c653a206e6577206f776e657220697320746865207a65726f206160448201527f646472657373000000000000000000000000000000000000000000000000000060648201526084016103f7565b610d3c81610d3f565b50565b6000805473ffffffffffffffffffffffffffffffffffffffff8381167fffffffffffffffffffffffff0000000000000000000000000000000000000000831681178455604051919092169283917f8be0079c531659141344cd1fd0a4f28419497f9722a3daafe3b4186f6b6457e09190a35050565b600080610dc185856110aa565b9050610dcf81868689611433565b915060008211610e61576040517f08c379a000000000000000000000000000000000000000000000000000000000815260206004820152602360248201527f416461707465723a20496e73756666696369656e74206f757470757420616d6f60448201527f756e74000000000000000000000000000000000000000000000000000000000060648201526084016103f7565b8373ffffffffffffffffffffffffffffffffffffffff168573ffffffffffffffffffffffffffffffffffffffff161015610f315760408051600080825260208201928390527f022c0d9f0000000000000000000000000000000000000000000000000000000090925273ffffffffffffffffffffffffffffffffffffffff83169163022c0d9f91610efa91908690889060248101611ba1565b600060405180830381600087803b158015610f1457600080fd5b505af1158015610f28573d6000803e3d6000fd5b50505050610fc8565b60408051600080825260208201928390527f022c0d9f0000000000000000000000000000000000000000000000000000000090925273ffffffffffffffffffffffffffffffffffffffff83169163022c0d9f91610f95918691889060248101611ba1565b600060405180830381600087803b158015610faf57600080fd5b505af1158015610fc3573d6000803e3d6000fd5b505050505b50949350505050565b60405173ffffffffffffffffffffffffffffffffffffffff83166024820152604481018290526110a59084907fa9059cbb00000000000000000000000000000000000000000000000000000000906064015b604080517fffffffffffffffffffffffffffffffffffffffffffffffffffffffffffffffe08184030181529190526020810180517bffffffffffffffffffffffffffffffffffffffffffffffffffffffff167fffffffff000000000000000000000000000000000000000000000000000000009093169290921790915261157f565b505050565b6000808273ffffffffffffffffffffffffffffffffffffffff168473ffffffffffffffffffffffffffffffffffffffff1610611137576040517fffffffffffffffffffffffffffffffffffffffff000000000000000000000000606085811b8216602084015286901b1660348201526048016040516020818303038152906040528051906020012061118a565b6040517fffffffffffffffffffffffffffffffffffffffff000000000000000000000000606086811b8216602084015285901b166034820152604801604051602081830303815290604052805190602001205b6040517fff0000000000000000000000000000000000000000000000000000000000000060208201527fffffffffffffffffffffffffffffffffffffffff0000000000000000000000007f000000000000000000000000000000000000000000000000000000000000000060601b166021820152603581018290527f00000000000000000000000000000000000000000000000000000000000000006055820152909150607501604080517fffffffffffffffffffffffffffffffffffffffffffffffffffffffffffffffe08184030181529190528051602090910120949350505050565b80158061130f57506040517fdd62ed3e00000000000000000000000000000000000000000000000000000000815230600482015273ffffffffffffffffffffffffffffffffffffffff838116602483015284169063dd62ed3e90604401602060405180830381865afa1580156112e9573d6000803e3d6000fd5b505050506040513d601f19601f8201168201806040525081019061130d9190611b88565b155b61139b576040517f08c379a000000000000000000000000000000000000000000000000000000000815260206004820152603660248201527f5361666545524332303a20617070726f76652066726f6d206e6f6e2d7a65726f60448201527f20746f206e6f6e2d7a65726f20616c6c6f77616e63650000000000000000000060648201526084016103f7565b60405173ffffffffffffffffffffffffffffffffffffffff83166024820152604481018290526110a59084907f095ea7b30000000000000000000000000000000000000000000000000000000090606401611023565b610550827fffffffffffffffffffffffffffffffffffffffffffffffffffffffffffffffff8361168b565b60008061142984846110aa565b9050610873818585885b600073ffffffffffffffffffffffffffffffffffffffff85163b15610c07578473ffffffffffffffffffffffffffffffffffffffff16630902f1ac6040518163ffffffff1660e01b8152600401606060405180830381865afa9250505080156114d7575060408051601f3d9081017fffffffffffffffffffffffffffffffffffffffffffffffffffffffffffffffe01682019092526114d491810190611c09565b60015b6114e057610c07565b8573ffffffffffffffffffffffffffffffffffffffff168773ffffffffffffffffffffffffffffffffffffffff1610156115465761153f85846dffffffffffffffffffffffffffff16846dffffffffffffffffffffffffffff1661179e565b9350611574565b61157185836dffffffffffffffffffffffffffff16856dffffffffffffffffffffffffffff1661179e565b93505b505050949350505050565b60006115e1826040518060400160405280602081526020017f5361666545524332303a206c6f772d6c6576656c2063616c6c206661696c65648152508573ffffffffffffffffffffffffffffffffffffffff166118239092919063ffffffff16565b8051909150156110a557808060200190518101906115ff9190611c4e565b6110a5576040517f08c379a000000000000000000000000000000000000000000000000000000000815260206004820152602a60248201527f5361666545524332303a204552433230206f7065726174696f6e20646964206e60448201527f6f7420737563636565640000000000000000000000000000000000000000000060648201526084016103f7565b6040517fdd62ed3e00000000000000000000000000000000000000000000000000000000815230600482015273ffffffffffffffffffffffffffffffffffffffff82811660248301526000919085169063dd62ed3e90604401602060405180830381865afa158015611701573d6000803e3d6000fd5b505050506040513d601f19601f820116820180604052508101906117259190611b88565b9050828110156117985780156117575761175773ffffffffffffffffffffffffffffffffffffffff851683600061126f565b61179873ffffffffffffffffffffffffffffffffffffffff8516837fffffffffffffffffffffffffffffffffffffffffffffffffffffffffffffffff61126f565b50505050565b60008215806117ab575081155b156117b857506000610a77565b60006117f66fffffffffffffffffffffffffffffffff7f00000000000000000000000000000000000000000000000000000000000000001686611c9f565b90508061180561271086611c9f565b61180f9190611cdc565b6118198483611c9f565b6108739190611cf4565b6060610c0784846000858573ffffffffffffffffffffffffffffffffffffffff85163b6118ac576040517f08c379a000000000000000000000000000000000000000000000000000000000815260206004820152601d60248201527f416464726573733a2063616c6c20746f206e6f6e2d636f6e747261637400000060448201526064016103f7565b6000808673ffffffffffffffffffffffffffffffffffffffff1685876040516118d59190611d2f565b60006040518083038185875af1925050503d8060008114611912576040519150601f19603f3d011682016040523d82523d6000602084013e611917565b606091505b5091509150611927828286611932565b979650505050505050565b60608315611941575081610a77565b8251156119515782518084602001fd5b816040517f08c379a00000000000000000000000000000000000000000000000000000000081526004016103f791906119fb565b60005b838110156119a0578181015183820152602001611988565b838111156117985750506000910152565b600081518084526119c9816020860160208601611985565b601f017fffffffffffffffffffffffffffffffffffffffffffffffffffffffffffffffe0169290920160200192915050565b602081526000610a7760208301846119b1565b600060208284031215611a2057600080fd5b5035919050565b73ffffffffffffffffffffffffffffffffffffffff81168114610d3c57600080fd5b60008060008060808587031215611a5f57600080fd5b843593506020850135611a7181611a27565b92506040850135611a8181611a27565b91506060850135611a9181611a27565b939692955090935050565b600060208284031215611aae57600080fd5b8135610a7781611a27565b60008060408385031215611acc57600080fd5b8235611ad781611a27565b91506020830135611ae781611a27565b809150509250929050565b600080600060608486031215611b0757600080fd5b833592506020840135611b1981611a27565b91506040840135611b2981611a27565b809150509250925092565b600181811c90821680611b4857607f821691505b60208210811415611b82577f4e487b7100000000000000000000000000000000000000000000000000000000600052602260045260246000fd5b50919050565b600060208284031215611b9a57600080fd5b5051919050565b84815283602082015273ffffffffffffffffffffffffffffffffffffffff83166040820152608060608201526000611bdc60808301846119b1565b9695505050505050565b80516dffffffffffffffffffffffffffff81168114611c0457600080fd5b919050565b600080600060608486031215611c1e57600080fd5b611c2784611be6565b9250611c3560208501611be6565b9150604084015163ffffffff81168114611b2957600080fd5b600060208284031215611c6057600080fd5b81518015158114610a7757600080fd5b7f4e487b7100000000000000000000000000000000000000000000000000000000600052601160045260246000fd5b6000817fffffffffffffffffffffffffffffffffffffffffffffffffffffffffffffffff0483118215151615611cd757611cd7611c70565b500290565b60008219821115611cef57611cef611c70565b500190565b600082611d2a577f4e487b7100000000000000000000000000000000000000000000000000000000600052601260045260246000fd5b500490565b60008251611d41818460208701611985565b919091019291505056fea26469706673582212203e8116cfa7e9f6700b9b1ff85a1ae9b83b59693f77f0a3ecf1f150e0517815ee64736f6c634300080b0033",
  "devdoc": {
    "kind": "dev",
    "methods": {
      "constructor": {
        "details": "Default UniSwap fee is 0.3% = 30bp",
        "params": {
          "_fee": "swap fee, in base points"
        }
      },
      "depositAddress(address,address)": {
        "returns": {
          "_0": "Address to transfer tokens in order for swap() to work"
        }
      },
      "owner()": {
        "details": "Returns the address of the current owner."
      },
      "query(uint256,address,address)": {
        "params": {
          "amountIn": "input amount in starting token",
          "tokenIn": "ERC20 token being sold",
          "tokenOut": "ERC20 token being bought"
        }
      },
      "recoverERC20(address)": {
        "params": {
          "token": "token to recover"
        }
      },
      "renounceOwnership()": {
        "details": "Leaves the contract without owner. It will not be possible to call `onlyOwner` functions anymore. Can only be called by the current owner. NOTE: Renouncing ownership will leave the contract without an owner, thereby removing any functionality that is only available to the owner."
      },
      "revokeTokenAllowance(address,address)": {
        "params": {
          "spender": "address",
          "token": "address"
        }
      },
      "setSwapGasEstimate(uint256)": {
        "details": "this is estimated amount of gas that's used by swap() implementation"
      },
      "swap(uint256,address,address,address)": {
        "params": {
          "amountIn": "input amount in starting token",
          "to": "address where swapped funds should be sent to",
          "tokenIn": "ERC20 token being sold",
          "tokenOut": "ERC20 token being bought"
        },
        "returns": {
          "amountOut": "amount of tokenOut tokens received in swap"
        }
      },
      "transferOwnership(address)": {
        "details": "Transfers ownership of the contract to a new account (`newOwner`). Can only be called by the current owner."
      }
    },
    "version": 1
  },
  "userdoc": {
    "kind": "user",
    "methods": {
      "query(uint256,address,address)": {
        "notice": "Get query for a swap through this adapter"
      },
      "recoverERC20(address)": {
        "notice": "Recover ERC20 from contract"
      },
      "recoverGAS()": {
        "notice": "Recover GAS from contract"
      },
      "revokeTokenAllowance(address,address)": {
        "notice": "Revoke token allowance"
      },
      "swap(uint256,address,address,address)": {
        "notice": "Execute a swap with given input amount of tokens from tokenIn to tokenOut,         assuming input tokens were transferred to depositAddress(tokenIn, tokenOut)"
      }
    },
    "version": 1
  },
  "storageLayout": {
    "storage": [
      {
        "astId": 389,
        "contract": "contracts/router/adapters/uniswap/UniswapV2Adapter.sol:UniswapV2Adapter",
        "label": "_owner",
        "offset": 0,
        "slot": "0",
        "type": "t_address"
      },
      {
        "astId": 4048,
        "contract": "contracts/router/adapters/uniswap/UniswapV2Adapter.sol:UniswapV2Adapter",
        "label": "name",
        "offset": 0,
        "slot": "1",
        "type": "t_string_storage"
      },
      {
        "astId": 4050,
        "contract": "contracts/router/adapters/uniswap/UniswapV2Adapter.sol:UniswapV2Adapter",
        "label": "swapGasEstimate",
        "offset": 0,
        "slot": "2",
        "type": "t_uint256"
      }
    ],
    "types": {
      "t_address": {
        "encoding": "inplace",
        "label": "address",
        "numberOfBytes": "20"
      },
      "t_string_storage": {
        "encoding": "bytes",
        "label": "string",
        "numberOfBytes": "32"
      },
      "t_uint256": {
        "encoding": "inplace",
        "label": "uint256",
        "numberOfBytes": "32"
      }
    }
  }
}