{
  "address": "0xB34C67DB5F0Fd8D3D4238FD0A1cBbfD50a72e177",
  "abi": [
    {
      "inputs": [],
      "stateMutability": "nonpayable",
      "type": "constructor"
    },
    {
      "anonymous": false,
      "inputs": [
        {
          "indexed": true,
          "internalType": "bytes32",
          "name": "role",
          "type": "bytes32"
        },
        {
          "indexed": true,
          "internalType": "bytes32",
          "name": "previousAdminRole",
          "type": "bytes32"
        },
        {
          "indexed": true,
          "internalType": "bytes32",
          "name": "newAdminRole",
          "type": "bytes32"
        }
      ],
      "name": "RoleAdminChanged",
      "type": "event"
    },
    {
      "anonymous": false,
      "inputs": [
        {
          "indexed": true,
          "internalType": "bytes32",
          "name": "role",
          "type": "bytes32"
        },
        {
          "indexed": true,
          "internalType": "address",
          "name": "account",
          "type": "address"
        },
        {
          "indexed": true,
          "internalType": "address",
          "name": "sender",
          "type": "address"
        }
      ],
      "name": "RoleGranted",
      "type": "event"
    },
    {
      "anonymous": false,
      "inputs": [
        {
          "indexed": true,
          "internalType": "bytes32",
          "name": "role",
          "type": "bytes32"
        },
        {
          "indexed": true,
          "internalType": "address",
          "name": "account",
          "type": "address"
        },
        {
          "indexed": true,
          "internalType": "address",
          "name": "sender",
          "type": "address"
        }
      ],
      "name": "RoleRevoked",
      "type": "event"
    },
    {
      "inputs": [],
      "name": "BRIDGEMANAGER_ROLE",
      "outputs": [
        {
          "internalType": "bytes32",
          "name": "",
          "type": "bytes32"
        }
      ],
      "stateMutability": "view",
      "type": "function"
    },
    {
      "inputs": [],
      "name": "DEFAULT_ADMIN_ROLE",
      "outputs": [
        {
          "internalType": "bytes32",
          "name": "",
          "type": "bytes32"
        }
      ],
      "stateMutability": "view",
      "type": "function"
    },
    {
      "inputs": [
        {
          "internalType": "address",
          "name": "tokenAddress",
          "type": "address"
        },
        {
          "internalType": "uint256",
          "name": "chainID",
          "type": "uint256"
        }
      ],
      "name": "getPoolConfig",
      "outputs": [
        {
          "components": [
            {
              "internalType": "address",
              "name": "tokenAddress",
              "type": "address"
            },
            {
              "internalType": "uint256",
              "name": "chainId",
              "type": "uint256"
            },
            {
              "internalType": "address",
              "name": "poolAddress",
              "type": "address"
            },
            {
              "internalType": "bool",
              "name": "metaswap",
              "type": "bool"
            }
          ],
          "internalType": "struct PoolConfig.Pool",
          "name": "",
          "type": "tuple"
        }
      ],
      "stateMutability": "view",
      "type": "function"
    },
    {
      "inputs": [
        {
          "internalType": "bytes32",
          "name": "role",
          "type": "bytes32"
        }
      ],
      "name": "getRoleAdmin",
      "outputs": [
        {
          "internalType": "bytes32",
          "name": "",
          "type": "bytes32"
        }
      ],
      "stateMutability": "view",
      "type": "function"
    },
    {
      "inputs": [
        {
          "internalType": "bytes32",
          "name": "role",
          "type": "bytes32"
        },
        {
          "internalType": "uint256",
          "name": "index",
          "type": "uint256"
        }
      ],
      "name": "getRoleMember",
      "outputs": [
        {
          "internalType": "address",
          "name": "",
          "type": "address"
        }
      ],
      "stateMutability": "view",
      "type": "function"
    },
    {
      "inputs": [
        {
          "internalType": "bytes32",
          "name": "role",
          "type": "bytes32"
        }
      ],
      "name": "getRoleMemberCount",
      "outputs": [
        {
          "internalType": "uint256",
          "name": "",
          "type": "uint256"
        }
      ],
      "stateMutability": "view",
      "type": "function"
    },
    {
      "inputs": [
        {
          "internalType": "bytes32",
          "name": "role",
          "type": "bytes32"
        },
        {
          "internalType": "address",
          "name": "account",
          "type": "address"
        }
      ],
      "name": "grantRole",
      "outputs": [],
      "stateMutability": "nonpayable",
      "type": "function"
    },
    {
      "inputs": [
        {
          "internalType": "bytes32",
          "name": "role",
          "type": "bytes32"
        },
        {
          "internalType": "address",
          "name": "account",
          "type": "address"
        }
      ],
      "name": "hasRole",
      "outputs": [
        {
          "internalType": "bool",
          "name": "",
          "type": "bool"
        }
      ],
      "stateMutability": "view",
      "type": "function"
    },
    {
      "inputs": [
        {
          "internalType": "bytes32",
          "name": "role",
          "type": "bytes32"
        },
        {
          "internalType": "address",
          "name": "account",
          "type": "address"
        }
      ],
      "name": "renounceRole",
      "outputs": [],
      "stateMutability": "nonpayable",
      "type": "function"
    },
    {
      "inputs": [
        {
          "internalType": "bytes32",
          "name": "role",
          "type": "bytes32"
        },
        {
          "internalType": "address",
          "name": "account",
          "type": "address"
        }
      ],
      "name": "revokeRole",
      "outputs": [],
      "stateMutability": "nonpayable",
      "type": "function"
    },
    {
      "inputs": [
        {
          "internalType": "address",
          "name": "tokenAddress",
          "type": "address"
        },
        {
          "internalType": "uint256",
          "name": "chainID",
          "type": "uint256"
        },
        {
          "internalType": "address",
          "name": "poolAddress",
          "type": "address"
        },
        {
          "internalType": "bool",
          "name": "metaswap",
          "type": "bool"
        }
      ],
      "name": "setPoolConfig",
      "outputs": [
        {
          "components": [
            {
              "internalType": "address",
              "name": "tokenAddress",
              "type": "address"
            },
            {
              "internalType": "uint256",
              "name": "chainId",
              "type": "uint256"
            },
            {
              "internalType": "address",
              "name": "poolAddress",
              "type": "address"
            },
            {
              "internalType": "bool",
              "name": "metaswap",
              "type": "bool"
            }
          ],
          "internalType": "struct PoolConfig.Pool",
          "name": "",
          "type": "tuple"
        }
      ],
      "stateMutability": "nonpayable",
      "type": "function"
    }
  ],
  "transactionHash": "0xf1de67166c87bed64c0eff09898ad85efffc215021a322e31595ef764b1a5ac5",
  "args": [],
  "solcInputHash": "5b293b85b7356ac66375f4be5883a415",
  "bytecode": "0x60806040523480156200001157600080fd5b506200001f60003362000051565b6200004b7f4370dcf3e42e4d5b773a451bb8390ee8e7308f47681d1414cff87c2ad0512c853362000051565b62000165565b6200005d828262000061565b5050565b6000828152602081815260409091206200008691839062000576620000da821b17901c565b156200005d5762000096620000fa565b6001600160a01b0316816001600160a01b0316837f2f8788117e7eff1d82e926ec794901d17c78024a50270940304540a733656f0d60405160405180910390a45050565b6000620000f1836001600160a01b038416620000fe565b90505b92915050565b3390565b60006200010c83836200014d565b6200014457508154600181810184556000848152602080822090930184905584548482528286019093526040902091909155620000f4565b506000620000f4565b60009081526001919091016020526040902054151590565b610c5180620001756000396000f3fe608060405234801561001057600080fd5b50600436106100c95760003560e01c80639010d07c11610081578063ca15c8731161005b578063ca15c8731461019a578063d547741f146101ad578063ff9106c7146101c0576100c9565b80639010d07c1461015257806391d1485414610172578063a217fddf14610192576100c9565b806336568abe116100b257806336568abe1461010c57806372fb43d91461011f5780637e355e5e1461013f576100c9565b8063248a9ca3146100ce5780632f2ff15d146100f7575b600080fd5b6100e16100dc36600461096f565b6101c8565b6040516100ee9190610a1b565b60405180910390f35b61010a610105366004610987565b6101dd565b005b61010a61011a366004610987565b610248565b61013261012d3660046108f1565b6102be565b6040516100ee9190610bcf565b61013261014d36600461091b565b61034a565b6101656101603660046109ce565b6104ab565b6040516100ee91906109ef565b610185610180366004610987565b6104ca565b6040516100ee9190610a10565b6100e16104e2565b6100e16101a836600461096f565b6104e7565b61010a6101bb366004610987565b6104fe565b6100e1610552565b60009081526020819052604090206002015490565b6000828152602081905260409020600201546101fb90610180610598565b61023a576040517f08c379a000000000000000000000000000000000000000000000000000000000815260040161023190610a81565b60405180910390fd5b610244828261059c565b5050565b610250610598565b73ffffffffffffffffffffffffffffffffffffffff168173ffffffffffffffffffffffffffffffffffffffff16146102b4576040517f08c379a000000000000000000000000000000000000000000000000000000000815260040161023190610b72565b610244828261061f565b6102c66108a6565b5073ffffffffffffffffffffffffffffffffffffffff82811660009081526001602081815260408084208685528252928390208351608081018552815486168152928101549183019190915260020154928316918101919091527401000000000000000000000000000000000000000090910460ff16151560608201525b92915050565b6103526108a6565b61037c7f4370dcf3e42e4d5b773a451bb8390ee8e7308f47681d1414cff87c2ad0512c85336104ca565b6103b2576040517f08c379a000000000000000000000000000000000000000000000000000000000815260040161023190610b3b565b6103ba6108a6565b50506040805160808101825273ffffffffffffffffffffffffffffffffffffffff808716808352602080840188815287841685870190815287151560608701908152600094855260018085528886208c875290945296909320855181549086167fffffffffffffffffffffffff00000000000000000000000000000000000000009182161782559151928101929092559151600290910180549551151574010000000000000000000000000000000000000000027fffffffffffffffffffffff00ffffffffffffffffffffffffffffffffffffffff9290941695909216949094179390931617909155949350505050565b60008281526020819052604081206104c390836106a2565b9392505050565b60008281526020819052604081206104c390836106ae565b600081565b6000818152602081905260408120610344906106d0565b60008281526020819052604090206002015461051c90610180610598565b6102b4576040517f08c379a000000000000000000000000000000000000000000000000000000000815260040161023190610ade565b7f4370dcf3e42e4d5b773a451bb8390ee8e7308f47681d1414cff87c2ad0512c8581565b60006104c38373ffffffffffffffffffffffffffffffffffffffff84166106db565b3390565b60008281526020819052604090206105b49082610576565b15610244576105c1610598565b73ffffffffffffffffffffffffffffffffffffffff168173ffffffffffffffffffffffffffffffffffffffff16837f2f8788117e7eff1d82e926ec794901d17c78024a50270940304540a733656f0d60405160405180910390a45050565b60008281526020819052604090206106379082610725565b1561024457610644610598565b73ffffffffffffffffffffffffffffffffffffffff168173ffffffffffffffffffffffffffffffffffffffff16837ff6391f5c32d9c69d2a47ea670b442974b53935d1edc7fd64eb21e047a839171b60405160405180910390a45050565b60006104c38383610747565b60006104c38373ffffffffffffffffffffffffffffffffffffffff84166107a6565b6000610344826107be565b60006106e783836107a6565b61071d57508154600181810184556000848152602080822090930184905584548482528286019093526040902091909155610344565b506000610344565b60006104c38373ffffffffffffffffffffffffffffffffffffffff84166107c2565b81546000908210610784576040517f08c379a000000000000000000000000000000000000000000000000000000000815260040161023190610a24565b82600001828154811061079357fe5b9060005260206000200154905092915050565b60009081526001919091016020526040902054151590565b5490565b6000818152600183016020526040812054801561089c5783547fffffffffffffffffffffffffffffffffffffffffffffffffffffffffffffffff808301919081019060009087908390811061081357fe5b906000526020600020015490508087600001848154811061083057fe5b60009182526020808320909101929092558281526001898101909252604090209084019055865487908061086057fe5b60019003818190600052602060002001600090559055866001016000878152602001908152602001600020600090556001945050505050610344565b6000915050610344565b60408051608081018252600080825260208201819052918101829052606081019190915290565b803573ffffffffffffffffffffffffffffffffffffffff8116811461034457600080fd5b60008060408385031215610903578182fd5b61090d84846108cd565b946020939093013593505050565b60008060008060808587031215610930578182fd5b61093a86866108cd565b93506020850135925061095086604087016108cd565b915060608501358015158114610964578182fd5b939692955090935050565b600060208284031215610980578081fd5b5035919050565b60008060408385031215610999578182fd5b82359150602083013573ffffffffffffffffffffffffffffffffffffffff811681146109c3578182fd5b809150509250929050565b600080604083850312156109e0578182fd5b50508035926020909101359150565b73ffffffffffffffffffffffffffffffffffffffff91909116815260200190565b901515815260200190565b90815260200190565b60208082526022908201527f456e756d657261626c655365743a20696e646578206f7574206f6620626f756e60408201527f6473000000000000000000000000000000000000000000000000000000000000606082015260800190565b6020808252602f908201527f416363657373436f6e74726f6c3a2073656e646572206d75737420626520616e60408201527f2061646d696e20746f206772616e740000000000000000000000000000000000606082015260800190565b60208082526030908201527f416363657373436f6e74726f6c3a2073656e646572206d75737420626520616e60408201527f2061646d696e20746f207265766f6b6500000000000000000000000000000000606082015260800190565b6020808252601c908201527f43616c6c6572206973206e6f7420427269646765204d616e6167657200000000604082015260600190565b6020808252602f908201527f416363657373436f6e74726f6c3a2063616e206f6e6c792072656e6f756e636560408201527f20726f6c657320666f722073656c660000000000000000000000000000000000606082015260800190565b600060808201905073ffffffffffffffffffffffffffffffffffffffff80845116835260208401516020840152806040850151166040840152506060830151151560608301529291505056fea2646970667358221220d901d578a57dd4bedd7dab00fbbb7f42604930324edc708c1a1283810516894064736f6c634300060c0033",
  "devdoc": {
    "kind": "dev",
    "methods": {
      "getRoleAdmin(bytes32)": {
        "details": "Returns the admin role that controls `role`. See {grantRole} and {revokeRole}. To change a role's admin, use {_setRoleAdmin}."
      },
      "getRoleMember(bytes32,uint256)": {
        "details": "Returns one of the accounts that have `role`. `index` must be a value between 0 and {getRoleMemberCount}, non-inclusive. Role bearers are not sorted in any particular way, and their ordering may change at any point. WARNING: When using {getRoleMember} and {getRoleMemberCount}, make sure you perform all queries on the same block. See the following https://forum.openzeppelin.com/t/iterating-over-elements-on-enumerableset-in-openzeppelin-contracts/2296[forum post] for more information."
      },
      "getRoleMemberCount(bytes32)": {
        "details": "Returns the number of accounts that have `role`. Can be used together with {getRoleMember} to enumerate all bearers of a role."
      },
      "grantRole(bytes32,address)": {
        "details": "Grants `role` to `account`. If `account` had not been already granted `role`, emits a {RoleGranted} event. Requirements: - the caller must have ``role``'s admin role."
      },
      "hasRole(bytes32,address)": {
        "details": "Returns `true` if `account` has been granted `role`."
      },
      "renounceRole(bytes32,address)": {
        "details": "Revokes `role` from the calling account. Roles are often managed via {grantRole} and {revokeRole}: this function's purpose is to provide a mechanism for accounts to lose their privileges if they are compromised (such as when a trusted device is misplaced). If the calling account had been granted `role`, emits a {RoleRevoked} event. Requirements: - the caller must be `account`."
      },
      "revokeRole(bytes32,address)": {
        "details": "Revokes `role` from `account`. If `account` had been granted `role`, emits a {RoleRevoked} event. Requirements: - the caller must have ``role``'s admin role."
      }
    },
    "version": 1
  },
  "userdoc": {
    "kind": "user",
    "methods": {},
    "version": 1
  },
  "storageLayout": {
    "storage": [
      {
        "astId": 2760,
        "contract": "contracts/synapse/PoolConfig.sol:PoolConfig",
        "label": "_roles",
        "offset": 0,
        "slot": "0",
        "type": "t_mapping(t_bytes32,t_struct(RoleData)2756_storage)"
      },
      {
        "astId": 6838,
        "contract": "contracts/synapse/PoolConfig.sol:PoolConfig",
        "label": "_pool",
        "offset": 0,
        "slot": "1",
        "type": "t_mapping(t_address,t_mapping(t_uint256,t_struct(Pool)6847_storage))"
      }
    ],
    "types": {
      "t_address": {
        "encoding": "inplace",
        "label": "address",
        "numberOfBytes": "20"
      },
      "t_array(t_bytes32)dyn_storage": {
        "base": "t_bytes32",
        "encoding": "dynamic_array",
        "label": "bytes32[]",
        "numberOfBytes": "32"
      },
      "t_bool": {
        "encoding": "inplace",
        "label": "bool",
        "numberOfBytes": "1"
      },
      "t_bytes32": {
        "encoding": "inplace",
        "label": "bytes32",
        "numberOfBytes": "32"
      },
      "t_mapping(t_address,t_mapping(t_uint256,t_struct(Pool)6847_storage))": {
        "encoding": "mapping",
        "key": "t_address",
        "label": "mapping(address => mapping(uint256 => struct PoolConfig.Pool))",
        "numberOfBytes": "32",
        "value": "t_mapping(t_uint256,t_struct(Pool)6847_storage)"
      },
      "t_mapping(t_bytes32,t_struct(RoleData)2756_storage)": {
        "encoding": "mapping",
        "key": "t_bytes32",
        "label": "mapping(bytes32 => struct AccessControl.RoleData)",
        "numberOfBytes": "32",
        "value": "t_struct(RoleData)2756_storage"
      },
      "t_mapping(t_bytes32,t_uint256)": {
        "encoding": "mapping",
        "key": "t_bytes32",
        "label": "mapping(bytes32 => uint256)",
        "numberOfBytes": "32",
        "value": "t_uint256"
      },
      "t_mapping(t_uint256,t_struct(Pool)6847_storage)": {
        "encoding": "mapping",
        "key": "t_uint256",
        "label": "mapping(uint256 => struct PoolConfig.Pool)",
        "numberOfBytes": "32",
        "value": "t_struct(Pool)6847_storage"
      },
      "t_struct(AddressSet)5510_storage": {
        "encoding": "inplace",
        "label": "struct EnumerableSet.AddressSet",
        "members": [
          {
            "astId": 5509,
            "contract": "contracts/synapse/PoolConfig.sol:PoolConfig",
            "label": "_inner",
            "offset": 0,
            "slot": "0",
            "type": "t_struct(Set)5245_storage"
          }
        ],
        "numberOfBytes": "64"
      },
      "t_struct(Pool)6847_storage": {
        "encoding": "inplace",
        "label": "struct PoolConfig.Pool",
        "members": [
          {
            "astId": 6840,
            "contract": "contracts/synapse/PoolConfig.sol:PoolConfig",
            "label": "tokenAddress",
            "offset": 0,
            "slot": "0",
            "type": "t_address"
          },
          {
            "astId": 6842,
            "contract": "contracts/synapse/PoolConfig.sol:PoolConfig",
            "label": "chainId",
            "offset": 0,
            "slot": "1",
            "type": "t_uint256"
          },
          {
            "astId": 6844,
            "contract": "contracts/synapse/PoolConfig.sol:PoolConfig",
            "label": "poolAddress",
            "offset": 0,
            "slot": "2",
            "type": "t_address"
          },
          {
            "astId": 6846,
            "contract": "contracts/synapse/PoolConfig.sol:PoolConfig",
            "label": "metaswap",
            "offset": 20,
            "slot": "2",
            "type": "t_bool"
          }
        ],
        "numberOfBytes": "96"
      },
      "t_struct(RoleData)2756_storage": {
        "encoding": "inplace",
        "label": "struct AccessControl.RoleData",
        "members": [
          {
            "astId": 2753,
            "contract": "contracts/synapse/PoolConfig.sol:PoolConfig",
            "label": "members",
            "offset": 0,
            "slot": "0",
            "type": "t_struct(AddressSet)5510_storage"
          },
          {
            "astId": 2755,
            "contract": "contracts/synapse/PoolConfig.sol:PoolConfig",
            "label": "adminRole",
            "offset": 0,
            "slot": "2",
            "type": "t_bytes32"
          }
        ],
        "numberOfBytes": "96"
      },
      "t_struct(Set)5245_storage": {
        "encoding": "inplace",
        "label": "struct EnumerableSet.Set",
        "members": [
          {
            "astId": 5240,
            "contract": "contracts/synapse/PoolConfig.sol:PoolConfig",
            "label": "_values",
            "offset": 0,
            "slot": "0",
            "type": "t_array(t_bytes32)dyn_storage"
          },
          {
            "astId": 5244,
            "contract": "contracts/synapse/PoolConfig.sol:PoolConfig",
            "label": "_indexes",
            "offset": 0,
            "slot": "1",
            "type": "t_mapping(t_bytes32,t_uint256)"
          }
        ],
        "numberOfBytes": "64"
      },
      "t_uint256": {
        "encoding": "inplace",
        "label": "uint256",
        "numberOfBytes": "32"
      }
    }
  }
}