{
  "address": "0x2D8Ee8d6951cB4Eecfe4a79eb9C2F973C02596Ed",
  "abi": [
    {
      "anonymous": false,
      "inputs": [
        {
          "indexed": false,
          "internalType": "address",
          "name": "account",
          "type": "address"
        }
      ],
      "name": "Paused",
      "type": "event"
    },
    {
      "anonymous": false,
      "inputs": [
        {
          "indexed": true,
          "internalType": "bytes32",
          "name": "role",
          "type": "bytes32"
        },
        {
          "indexed": true,
          "internalType": "bytes32",
          "name": "previousAdminRole",
          "type": "bytes32"
        },
        {
          "indexed": true,
          "internalType": "bytes32",
          "name": "newAdminRole",
          "type": "bytes32"
        }
      ],
      "name": "RoleAdminChanged",
      "type": "event"
    },
    {
      "anonymous": false,
      "inputs": [
        {
          "indexed": true,
          "internalType": "bytes32",
          "name": "role",
          "type": "bytes32"
        },
        {
          "indexed": true,
          "internalType": "address",
          "name": "account",
          "type": "address"
        },
        {
          "indexed": true,
          "internalType": "address",
          "name": "sender",
          "type": "address"
        }
      ],
      "name": "RoleGranted",
      "type": "event"
    },
    {
      "anonymous": false,
      "inputs": [
        {
          "indexed": true,
          "internalType": "bytes32",
          "name": "role",
          "type": "bytes32"
        },
        {
          "indexed": true,
          "internalType": "address",
          "name": "account",
          "type": "address"
        },
        {
          "indexed": true,
          "internalType": "address",
          "name": "sender",
          "type": "address"
        }
      ],
      "name": "RoleRevoked",
      "type": "event"
    },
    {
      "anonymous": false,
      "inputs": [
        {
          "indexed": true,
          "internalType": "address",
          "name": "to",
          "type": "address"
        },
        {
          "indexed": false,
          "internalType": "uint256",
          "name": "chainId",
          "type": "uint256"
        },
        {
          "indexed": false,
          "internalType": "contract IERC20",
          "name": "token",
          "type": "address"
        },
        {
          "indexed": false,
          "internalType": "uint256",
          "name": "amount",
          "type": "uint256"
        }
      ],
      "name": "TokenDeposit",
      "type": "event"
    },
    {
      "anonymous": false,
      "inputs": [
        {
          "indexed": true,
          "internalType": "address",
          "name": "to",
          "type": "address"
        },
        {
          "indexed": false,
          "internalType": "uint256",
          "name": "chainId",
          "type": "uint256"
        },
        {
          "indexed": false,
          "internalType": "contract IERC20",
          "name": "token",
          "type": "address"
        },
        {
          "indexed": false,
          "internalType": "uint256",
          "name": "amount",
          "type": "uint256"
        },
        {
          "indexed": false,
          "internalType": "uint8",
          "name": "tokenIndexFrom",
          "type": "uint8"
        },
        {
          "indexed": false,
          "internalType": "uint8",
          "name": "tokenIndexTo",
          "type": "uint8"
        },
        {
          "indexed": false,
          "internalType": "uint256",
          "name": "minDy",
          "type": "uint256"
        },
        {
          "indexed": false,
          "internalType": "uint256",
          "name": "deadline",
          "type": "uint256"
        }
      ],
      "name": "TokenDepositAndSwap",
      "type": "event"
    },
    {
      "anonymous": false,
      "inputs": [
        {
          "indexed": true,
          "internalType": "address",
          "name": "to",
          "type": "address"
        },
        {
          "indexed": false,
          "internalType": "contract IERC20Mintable",
          "name": "token",
          "type": "address"
        },
        {
          "indexed": false,
          "internalType": "uint256",
          "name": "amount",
          "type": "uint256"
        },
        {
          "indexed": false,
          "internalType": "uint256",
          "name": "fee",
          "type": "uint256"
        },
        {
          "indexed": true,
          "internalType": "bytes32",
          "name": "kappa",
          "type": "bytes32"
        }
      ],
      "name": "TokenMint",
      "type": "event"
    },
    {
      "anonymous": false,
      "inputs": [
        {
          "indexed": true,
          "internalType": "address",
          "name": "to",
          "type": "address"
        },
        {
          "indexed": false,
          "internalType": "contract IERC20Mintable",
          "name": "token",
          "type": "address"
        },
        {
          "indexed": false,
          "internalType": "uint256",
          "name": "amount",
          "type": "uint256"
        },
        {
          "indexed": false,
          "internalType": "uint256",
          "name": "fee",
          "type": "uint256"
        },
        {
          "indexed": false,
          "internalType": "uint8",
          "name": "tokenIndexFrom",
          "type": "uint8"
        },
        {
          "indexed": false,
          "internalType": "uint8",
          "name": "tokenIndexTo",
          "type": "uint8"
        },
        {
          "indexed": false,
          "internalType": "uint256",
          "name": "minDy",
          "type": "uint256"
        },
        {
          "indexed": false,
          "internalType": "uint256",
          "name": "deadline",
          "type": "uint256"
        },
        {
          "indexed": false,
          "internalType": "bool",
          "name": "swapSuccess",
          "type": "bool"
        },
        {
          "indexed": true,
          "internalType": "bytes32",
          "name": "kappa",
          "type": "bytes32"
        }
      ],
      "name": "TokenMintAndSwap",
      "type": "event"
    },
    {
      "anonymous": false,
      "inputs": [
        {
          "indexed": true,
          "internalType": "address",
          "name": "to",
          "type": "address"
        },
        {
          "indexed": false,
          "internalType": "uint256",
          "name": "chainId",
          "type": "uint256"
        },
        {
          "indexed": false,
          "internalType": "contract IERC20",
          "name": "token",
          "type": "address"
        },
        {
          "indexed": false,
          "internalType": "uint256",
          "name": "amount",
          "type": "uint256"
        }
      ],
      "name": "TokenRedeem",
      "type": "event"
    },
    {
      "anonymous": false,
      "inputs": [
        {
          "indexed": true,
          "internalType": "address",
          "name": "to",
          "type": "address"
        },
        {
          "indexed": false,
          "internalType": "uint256",
          "name": "chainId",
          "type": "uint256"
        },
        {
          "indexed": false,
          "internalType": "contract IERC20",
          "name": "token",
          "type": "address"
        },
        {
          "indexed": false,
          "internalType": "uint256",
          "name": "amount",
          "type": "uint256"
        },
        {
          "indexed": false,
          "internalType": "uint8",
          "name": "swapTokenIndex",
          "type": "uint8"
        },
        {
          "indexed": false,
          "internalType": "uint256",
          "name": "swapMinAmount",
          "type": "uint256"
        },
        {
          "indexed": false,
          "internalType": "uint256",
          "name": "swapDeadline",
          "type": "uint256"
        }
      ],
      "name": "TokenRedeemAndRemove",
      "type": "event"
    },
    {
      "anonymous": false,
      "inputs": [
        {
          "indexed": true,
          "internalType": "address",
          "name": "to",
          "type": "address"
        },
        {
          "indexed": false,
          "internalType": "uint256",
          "name": "chainId",
          "type": "uint256"
        },
        {
          "indexed": false,
          "internalType": "contract IERC20",
          "name": "token",
          "type": "address"
        },
        {
          "indexed": false,
          "internalType": "uint256",
          "name": "amount",
          "type": "uint256"
        },
        {
          "indexed": false,
          "internalType": "uint8",
          "name": "tokenIndexFrom",
          "type": "uint8"
        },
        {
          "indexed": false,
          "internalType": "uint8",
          "name": "tokenIndexTo",
          "type": "uint8"
        },
        {
          "indexed": false,
          "internalType": "uint256",
          "name": "minDy",
          "type": "uint256"
        },
        {
          "indexed": false,
          "internalType": "uint256",
          "name": "deadline",
          "type": "uint256"
        }
      ],
      "name": "TokenRedeemAndSwap",
      "type": "event"
    },
    {
      "anonymous": false,
      "inputs": [
        {
          "indexed": true,
          "internalType": "address",
          "name": "to",
          "type": "address"
        },
        {
          "indexed": false,
          "internalType": "contract IERC20",
          "name": "token",
          "type": "address"
        },
        {
          "indexed": false,
          "internalType": "uint256",
          "name": "amount",
          "type": "uint256"
        },
        {
          "indexed": false,
          "internalType": "uint256",
          "name": "fee",
          "type": "uint256"
        },
        {
          "indexed": true,
          "internalType": "bytes32",
          "name": "kappa",
          "type": "bytes32"
        }
      ],
      "name": "TokenWithdraw",
      "type": "event"
    },
    {
      "anonymous": false,
      "inputs": [
        {
          "indexed": true,
          "internalType": "address",
          "name": "to",
          "type": "address"
        },
        {
          "indexed": false,
          "internalType": "contract IERC20",
          "name": "token",
          "type": "address"
        },
        {
          "indexed": false,
          "internalType": "uint256",
          "name": "amount",
          "type": "uint256"
        },
        {
          "indexed": false,
          "internalType": "uint256",
          "name": "fee",
          "type": "uint256"
        },
        {
          "indexed": false,
          "internalType": "uint8",
          "name": "swapTokenIndex",
          "type": "uint8"
        },
        {
          "indexed": false,
          "internalType": "uint256",
          "name": "swapMinAmount",
          "type": "uint256"
        },
        {
          "indexed": false,
          "internalType": "uint256",
          "name": "swapDeadline",
          "type": "uint256"
        },
        {
          "indexed": false,
          "internalType": "bool",
          "name": "swapSuccess",
          "type": "bool"
        },
        {
          "indexed": true,
          "internalType": "bytes32",
          "name": "kappa",
          "type": "bytes32"
        }
      ],
      "name": "TokenWithdrawAndRemove",
      "type": "event"
    },
    {
      "anonymous": false,
      "inputs": [
        {
          "indexed": false,
          "internalType": "address",
          "name": "account",
          "type": "address"
        }
      ],
      "name": "Unpaused",
      "type": "event"
    },
    {
      "inputs": [],
      "name": "DEFAULT_ADMIN_ROLE",
      "outputs": [
        {
          "internalType": "bytes32",
          "name": "",
          "type": "bytes32"
        }
      ],
      "stateMutability": "view",
      "type": "function"
    },
    {
      "inputs": [],
      "name": "GOVERNANCE_ROLE",
      "outputs": [
        {
          "internalType": "bytes32",
          "name": "",
          "type": "bytes32"
        }
      ],
      "stateMutability": "view",
      "type": "function"
    },
    {
      "inputs": [],
      "name": "NODEGROUP_ROLE",
      "outputs": [
        {
          "internalType": "bytes32",
          "name": "",
          "type": "bytes32"
        }
      ],
      "stateMutability": "view",
      "type": "function"
    },
    {
      "inputs": [],
      "name": "WETH_ADDRESS",
      "outputs": [
        {
          "internalType": "address payable",
          "name": "",
          "type": "address"
        }
      ],
      "stateMutability": "view",
      "type": "function"
    },
    {
      "inputs": [
        {
          "internalType": "bytes32[]",
          "name": "kappas",
          "type": "bytes32[]"
        }
      ],
      "name": "addKappas",
      "outputs": [],
      "stateMutability": "nonpayable",
      "type": "function"
    },
    {
      "inputs": [],
      "name": "bridgeVersion",
      "outputs": [
        {
          "internalType": "uint256",
          "name": "",
          "type": "uint256"
        }
      ],
      "stateMutability": "view",
      "type": "function"
    },
    {
      "inputs": [],
      "name": "chainGasAmount",
      "outputs": [
        {
          "internalType": "uint256",
          "name": "",
          "type": "uint256"
        }
      ],
      "stateMutability": "view",
      "type": "function"
    },
    {
      "inputs": [
        {
          "internalType": "address",
          "name": "to",
          "type": "address"
        },
        {
          "internalType": "uint256",
          "name": "chainId",
          "type": "uint256"
        },
        {
          "internalType": "contract IERC20",
          "name": "token",
          "type": "address"
        },
        {
          "internalType": "uint256",
          "name": "amount",
          "type": "uint256"
        }
      ],
      "name": "deposit",
      "outputs": [],
      "stateMutability": "nonpayable",
      "type": "function"
    },
    {
      "inputs": [
        {
          "internalType": "address",
          "name": "to",
          "type": "address"
        },
        {
          "internalType": "uint256",
          "name": "chainId",
          "type": "uint256"
        },
        {
          "internalType": "contract IERC20",
          "name": "token",
          "type": "address"
        },
        {
          "internalType": "uint256",
          "name": "amount",
          "type": "uint256"
        },
        {
          "internalType": "uint8",
          "name": "tokenIndexFrom",
          "type": "uint8"
        },
        {
          "internalType": "uint8",
          "name": "tokenIndexTo",
          "type": "uint8"
        },
        {
          "internalType": "uint256",
          "name": "minDy",
          "type": "uint256"
        },
        {
          "internalType": "uint256",
          "name": "deadline",
          "type": "uint256"
        }
      ],
      "name": "depositAndSwap",
      "outputs": [],
      "stateMutability": "nonpayable",
      "type": "function"
    },
    {
      "inputs": [
        {
          "internalType": "address",
          "name": "tokenAddress",
          "type": "address"
        }
      ],
      "name": "getFeeBalance",
      "outputs": [
        {
          "internalType": "uint256",
          "name": "",
          "type": "uint256"
        }
      ],
      "stateMutability": "view",
      "type": "function"
    },
    {
      "inputs": [
        {
          "internalType": "bytes32",
          "name": "role",
          "type": "bytes32"
        }
      ],
      "name": "getRoleAdmin",
      "outputs": [
        {
          "internalType": "bytes32",
          "name": "",
          "type": "bytes32"
        }
      ],
      "stateMutability": "view",
      "type": "function"
    },
    {
      "inputs": [
        {
          "internalType": "bytes32",
          "name": "role",
          "type": "bytes32"
        },
        {
          "internalType": "uint256",
          "name": "index",
          "type": "uint256"
        }
      ],
      "name": "getRoleMember",
      "outputs": [
        {
          "internalType": "address",
          "name": "",
          "type": "address"
        }
      ],
      "stateMutability": "view",
      "type": "function"
    },
    {
      "inputs": [
        {
          "internalType": "bytes32",
          "name": "role",
          "type": "bytes32"
        }
      ],
      "name": "getRoleMemberCount",
      "outputs": [
        {
          "internalType": "uint256",
          "name": "",
          "type": "uint256"
        }
      ],
      "stateMutability": "view",
      "type": "function"
    },
    {
      "inputs": [
        {
          "internalType": "bytes32",
          "name": "role",
          "type": "bytes32"
        },
        {
          "internalType": "address",
          "name": "account",
          "type": "address"
        }
      ],
      "name": "grantRole",
      "outputs": [],
      "stateMutability": "nonpayable",
      "type": "function"
    },
    {
      "inputs": [
        {
          "internalType": "bytes32",
          "name": "role",
          "type": "bytes32"
        },
        {
          "internalType": "address",
          "name": "account",
          "type": "address"
        }
      ],
      "name": "hasRole",
      "outputs": [
        {
          "internalType": "bool",
          "name": "",
          "type": "bool"
        }
      ],
      "stateMutability": "view",
      "type": "function"
    },
    {
      "inputs": [],
      "name": "initialize",
      "outputs": [],
      "stateMutability": "nonpayable",
      "type": "function"
    },
    {
      "inputs": [
        {
          "internalType": "bytes32",
          "name": "kappa",
          "type": "bytes32"
        }
      ],
      "name": "kappaExists",
      "outputs": [
        {
          "internalType": "bool",
          "name": "",
          "type": "bool"
        }
      ],
      "stateMutability": "view",
      "type": "function"
    },
    {
      "inputs": [
        {
          "internalType": "address payable",
          "name": "to",
          "type": "address"
        },
        {
          "internalType": "contract IERC20Mintable",
          "name": "token",
          "type": "address"
        },
        {
          "internalType": "uint256",
          "name": "amount",
          "type": "uint256"
        },
        {
          "internalType": "uint256",
          "name": "fee",
          "type": "uint256"
        },
        {
          "internalType": "bytes32",
          "name": "kappa",
          "type": "bytes32"
        }
      ],
      "name": "mint",
      "outputs": [],
      "stateMutability": "nonpayable",
      "type": "function"
    },
    {
      "inputs": [
        {
          "internalType": "address payable",
          "name": "to",
          "type": "address"
        },
        {
          "internalType": "contract IERC20Mintable",
          "name": "token",
          "type": "address"
        },
        {
          "internalType": "uint256",
          "name": "amount",
          "type": "uint256"
        },
        {
          "internalType": "uint256",
          "name": "fee",
          "type": "uint256"
        },
        {
          "internalType": "contract ISwap",
          "name": "pool",
          "type": "address"
        },
        {
          "internalType": "uint8",
          "name": "tokenIndexFrom",
          "type": "uint8"
        },
        {
          "internalType": "uint8",
          "name": "tokenIndexTo",
          "type": "uint8"
        },
        {
          "internalType": "uint256",
          "name": "minDy",
          "type": "uint256"
        },
        {
          "internalType": "uint256",
          "name": "deadline",
          "type": "uint256"
        },
        {
          "internalType": "bytes32",
          "name": "kappa",
          "type": "bytes32"
        }
      ],
      "name": "mintAndSwap",
      "outputs": [],
      "stateMutability": "nonpayable",
      "type": "function"
    },
    {
      "inputs": [],
      "name": "pause",
      "outputs": [],
      "stateMutability": "nonpayable",
      "type": "function"
    },
    {
      "inputs": [],
      "name": "paused",
      "outputs": [
        {
          "internalType": "bool",
          "name": "",
          "type": "bool"
        }
      ],
      "stateMutability": "view",
      "type": "function"
    },
    {
      "inputs": [
        {
          "internalType": "address",
          "name": "to",
          "type": "address"
        },
        {
          "internalType": "uint256",
          "name": "chainId",
          "type": "uint256"
        },
        {
          "internalType": "contract ERC20Burnable",
          "name": "token",
          "type": "address"
        },
        {
          "internalType": "uint256",
          "name": "amount",
          "type": "uint256"
        }
      ],
      "name": "redeem",
      "outputs": [],
      "stateMutability": "nonpayable",
      "type": "function"
    },
    {
      "inputs": [
        {
          "internalType": "address",
          "name": "to",
          "type": "address"
        },
        {
          "internalType": "uint256",
          "name": "chainId",
          "type": "uint256"
        },
        {
          "internalType": "contract ERC20Burnable",
          "name": "token",
          "type": "address"
        },
        {
          "internalType": "uint256",
          "name": "amount",
          "type": "uint256"
        },
        {
          "internalType": "uint8",
          "name": "swapTokenIndex",
          "type": "uint8"
        },
        {
          "internalType": "uint256",
          "name": "swapMinAmount",
          "type": "uint256"
        },
        {
          "internalType": "uint256",
          "name": "swapDeadline",
          "type": "uint256"
        }
      ],
      "name": "redeemAndRemove",
      "outputs": [],
      "stateMutability": "nonpayable",
      "type": "function"
    },
    {
      "inputs": [
        {
          "internalType": "address",
          "name": "to",
          "type": "address"
        },
        {
          "internalType": "uint256",
          "name": "chainId",
          "type": "uint256"
        },
        {
          "internalType": "contract ERC20Burnable",
          "name": "token",
          "type": "address"
        },
        {
          "internalType": "uint256",
          "name": "amount",
          "type": "uint256"
        },
        {
          "internalType": "uint8",
          "name": "tokenIndexFrom",
          "type": "uint8"
        },
        {
          "internalType": "uint8",
          "name": "tokenIndexTo",
          "type": "uint8"
        },
        {
          "internalType": "uint256",
          "name": "minDy",
          "type": "uint256"
        },
        {
          "internalType": "uint256",
          "name": "deadline",
          "type": "uint256"
        }
      ],
      "name": "redeemAndSwap",
      "outputs": [],
      "stateMutability": "nonpayable",
      "type": "function"
    },
    {
      "inputs": [
        {
          "internalType": "bytes32",
          "name": "role",
          "type": "bytes32"
        },
        {
          "internalType": "address",
          "name": "account",
          "type": "address"
        }
      ],
      "name": "renounceRole",
      "outputs": [],
      "stateMutability": "nonpayable",
      "type": "function"
    },
    {
      "inputs": [
        {
          "internalType": "bytes32",
          "name": "role",
          "type": "bytes32"
        },
        {
          "internalType": "address",
          "name": "account",
          "type": "address"
        }
      ],
      "name": "revokeRole",
      "outputs": [],
      "stateMutability": "nonpayable",
      "type": "function"
    },
    {
      "inputs": [
        {
          "internalType": "uint256",
          "name": "amount",
          "type": "uint256"
        }
      ],
      "name": "setChainGasAmount",
      "outputs": [],
      "stateMutability": "nonpayable",
      "type": "function"
    },
    {
      "inputs": [
        {
          "internalType": "address payable",
          "name": "_wethAddress",
          "type": "address"
        }
      ],
      "name": "setWethAddress",
      "outputs": [],
      "stateMutability": "nonpayable",
      "type": "function"
    },
    {
      "inputs": [],
      "name": "startBlockNumber",
      "outputs": [
        {
          "internalType": "uint256",
          "name": "",
          "type": "uint256"
        }
      ],
      "stateMutability": "view",
      "type": "function"
    },
    {
      "inputs": [],
      "name": "unpause",
      "outputs": [],
      "stateMutability": "nonpayable",
      "type": "function"
    },
    {
      "inputs": [
        {
          "internalType": "address",
          "name": "to",
          "type": "address"
        },
        {
          "internalType": "contract IERC20",
          "name": "token",
          "type": "address"
        },
        {
          "internalType": "uint256",
          "name": "amount",
          "type": "uint256"
        },
        {
          "internalType": "uint256",
          "name": "fee",
          "type": "uint256"
        },
        {
          "internalType": "bytes32",
          "name": "kappa",
          "type": "bytes32"
        }
      ],
      "name": "withdraw",
      "outputs": [],
      "stateMutability": "nonpayable",
      "type": "function"
    },
    {
      "inputs": [
        {
          "internalType": "address",
          "name": "to",
          "type": "address"
        },
        {
          "internalType": "contract IERC20",
          "name": "token",
          "type": "address"
        },
        {
          "internalType": "uint256",
          "name": "amount",
          "type": "uint256"
        },
        {
          "internalType": "uint256",
          "name": "fee",
          "type": "uint256"
        },
        {
          "internalType": "contract ISwap",
          "name": "pool",
          "type": "address"
        },
        {
          "internalType": "uint8",
          "name": "swapTokenIndex",
          "type": "uint8"
        },
        {
          "internalType": "uint256",
          "name": "swapMinAmount",
          "type": "uint256"
        },
        {
          "internalType": "uint256",
          "name": "swapDeadline",
          "type": "uint256"
        },
        {
          "internalType": "bytes32",
          "name": "kappa",
          "type": "bytes32"
        }
      ],
      "name": "withdrawAndRemove",
      "outputs": [],
      "stateMutability": "nonpayable",
      "type": "function"
    },
    {
      "inputs": [
        {
          "internalType": "contract IERC20",
          "name": "token",
          "type": "address"
        },
        {
          "internalType": "address",
          "name": "to",
          "type": "address"
        }
      ],
      "name": "withdrawFees",
      "outputs": [],
      "stateMutability": "nonpayable",
      "type": "function"
    },
    {
      "stateMutability": "payable",
      "type": "receive"
    }
  ],
  "transactionHash": "0x2d62890549dbfbb7bf6acbdefee301bb9f82c0707f66d2898046901b3b08fbb8",
  "args": [],
  "solcInputHash": "a75f7d902a8c35448d5e7c8d02a1cc0f",
  "bytecode": "0x608060405234801561001057600080fd5b50613d20806100206000396000f3fe6080604052600436106102025760003560e01c806390d250741161011d578063ca15c873116100b0578063e7a599981161007f578063f36c8f5c11610064578063f36c8f5c146108db578063f3befd01146108f0578063f3f094a11461090557610209565b8063e7a5999814610823578063f2555278146108a057610209565b8063ca15c8731461073f578063d547741f14610769578063d57eafac146107a2578063e00a83e01461080e57610209565b8063a96e2423116100ec578063a96e24231461069a578063ac865626146106cd578063b250fe6b146106e2578063c78f68031461070c57610209565b806390d250741461059e57806391d14854146105e5578063a217fddf1461061e578063a2a2af0b1461063357610209565b806336e712ed116101955780638129fc1c116101645780638129fc1c146104dd578063839ed90a146104f25780638456cb59146105595780639010d07c1461056e57610209565b806336e712ed146104425780633f4ba83a1461049e578063498a4c2d146104b35780635c975abb146104c857610209565b8063248a9ca3116101d1578063248a9ca3146103565780632f2ff15d146103925780632fe87b95146103cb57806336568abe1461040957610209565b8063040141e51461020e578063173578921461023f5780631cf5f07f146102b857806320d7b3271461030757610209565b3661020957005b600080fd5b34801561021a57600080fd5b5061022361094c565b604080516001600160a01b039092168252519081900360200190f35b34801561024b57600080fd5b506102b6600480360361014081101561026357600080fd5b506001600160a01b03813581169160208101358216916040820135916060810135916080820135169060ff60a082013581169160c08101359091169060e08101359061010081013590610120013561095b565b005b3480156102c457600080fd5b506102b6600480360360a08110156102db57600080fd5b506001600160a01b038135811691602081013590911690604081013590606081013590608001356112b5565b34801561031357600080fd5b506102b6600480360360a081101561032a57600080fd5b506001600160a01b038135811691602081013590911690604081013590606081013590608001356116fe565b34801561036257600080fd5b506103806004803603602081101561037957600080fd5b5035611bc0565b60408051918252519081900360200190f35b34801561039e57600080fd5b506102b6600480360360408110156103b557600080fd5b50803590602001356001600160a01b0316611bd5565b3480156103d757600080fd5b506103f5600480360360208110156103ee57600080fd5b5035611c41565b604080519115158252519081900360200190f35b34801561041557600080fd5b506102b66004803603604081101561042c57600080fd5b50803590602001356001600160a01b0316611c56565b34801561044e57600080fd5b506102b6600480360360e081101561046557600080fd5b506001600160a01b0381358116916020810135916040820135169060608101359060ff6080820135169060a08101359060c00135611cb7565b3480156104aa57600080fd5b506102b6611e4d565b3480156104bf57600080fd5b50610380611ed2565b3480156104d457600080fd5b506103f5611ed8565b3480156104e957600080fd5b506102b6611ee1565b3480156104fe57600080fd5b506102b6600480360361010081101561051657600080fd5b506001600160a01b0381358116916020810135916040820135169060608101359060ff608082013581169160a08101359091169060c08101359060e00135611fd4565b34801561056557600080fd5b506102b6612185565b34801561057a57600080fd5b506102236004803603604081101561059157600080fd5b5080359060200135612208565b3480156105aa57600080fd5b506102b6600480360360808110156105c157600080fd5b506001600160a01b0381358116916020810135916040820135169060600135612229565b3480156105f157600080fd5b506103f56004803603604081101561060857600080fd5b50803590602001356001600160a01b031661234d565b34801561062a57600080fd5b50610380612365565b34801561063f57600080fd5b506102b6600480360361010081101561065757600080fd5b506001600160a01b0381358116916020810135916040820135169060608101359060ff608082013581169160a08101359091169060c08101359060e0013561236a565b3480156106a657600080fd5b506102b6600480360360208110156106bd57600080fd5b50356001600160a01b03166124b1565b3480156106d957600080fd5b50610380612547565b3480156106ee57600080fd5b506102b66004803603602081101561070557600080fd5b503561254c565b34801561071857600080fd5b506103806004803603602081101561072f57600080fd5b50356001600160a01b03166125cc565b34801561074b57600080fd5b506103806004803603602081101561076257600080fd5b50356125e7565b34801561077557600080fd5b506102b66004803603604081101561078c57600080fd5b50803590602001356001600160a01b03166125fe565b3480156107ae57600080fd5b506102b660048036036101208110156107c657600080fd5b506001600160a01b03813581169160208101358216916040820135916060810135916080820135169060ff60a0820135169060c08101359060e0810135906101000135612657565b34801561081a57600080fd5b50610380612c10565b34801561082f57600080fd5b506102b66004803603602081101561084657600080fd5b81019060208101813564010000000081111561086157600080fd5b82018360208201111561087357600080fd5b8035906020019184602083028401116401000000008311171561089557600080fd5b509092509050612c16565b3480156108ac57600080fd5b506102b6600480360360408110156108c357600080fd5b506001600160a01b0381358116916020013516612ce3565b3480156108e757600080fd5b50610380612e71565b3480156108fc57600080fd5b50610380612e95565b34801561091157600080fd5b506102b66004803603608081101561092857600080fd5b506001600160a01b0381358116916020810135916040820135169060600135612eb9565b60cc546001600160a01b031681565b600260655414156109b3576040805162461bcd60e51b815260206004820152601f60248201527f5265656e7472616e637947756172643a207265656e7472616e742063616c6c00604482015290519081900360640190fd5b60026065556109c0611ed8565b15610a12576040805162461bcd60e51b815260206004820152601060248201527f5061757361626c653a2070617573656400000000000000000000000000000000604482015290519081900360640190fd5b610a3c7fb5c00e6706c3d213edd70ff33717fac657eacc5fe161f07180cf1fcab13cc4cd3361234d565b610a8d576040805162461bcd60e51b815260206004820152601a60248201527f43616c6c6572206973206e6f742061206e6f64652067726f7570000000000000604482015290519081900360640190fd5b868811610ae1576040805162461bcd60e51b815260206004820152601f60248201527f416d6f756e74206d7573742062652067726561746572207468616e2066656500604482015290519081900360640190fd5b600081815260cd602052604090205460ff1615610b45576040805162461bcd60e51b815260206004820152601860248201527f4b6170706120697320616c72656164792070726573656e740000000000000000604482015290519081900360640190fd5b600081815260cd60209081526040808320805460ff191660011790556001600160a01b038c16835260c9909152902054610b7f9088613038565b6001600160a01b038a16600090815260c9602052604090205560cb5415801590610baa575060cb5447115b15610c035760cb546040516001600160a01b038c169190600081818185875af1925050503d8060008114610bfa576040519150601f19603f3d011682016040523d82523d6000602084013e610bff565b606091505b5050505b60006001600160a01b03871663a95b089f8787610c208d8d613092565b6040518463ffffffff1660e01b8152600401808460ff1681526020018360ff168152602001828152602001935050505060206040518083038186803b158015610c6857600080fd5b505afa158015610c7c573d6000803e3d6000fd5b505050506040513d6020811015610c9257600080fd5b5051905083811061118557604080517f40c10f19000000000000000000000000000000000000000000000000000000008152306004820152602481018b905290516001600160a01b038c16916340c10f1991604480830192600092919082900301818387803b158015610d0457600080fd5b505af1158015610d18573d6000803e3d6000fd5b50610d31925050506001600160a01b038b16888b6130ef565b6001600160a01b03871663916955868787610d4c8d8d613092565b88886040518663ffffffff1660e01b8152600401808660ff1681526020018560ff16815260200184815260200183815260200182815260200195505050505050602060405180830381600087803b158015610da657600080fd5b505af1925050508015610dcb57506040513d6020811015610dc657600080fd5b505160015b610e7a57610dee8b610ddd8b8b613092565b6001600160a01b038d16919061320e565b816001600160a01b038c167f4f56ec39e98539920503fd54ee56ae0cbebe9eb15aa778f18de67701eeae7c658c610e258d8d613092565b604080516001600160a01b03909316835260208301919091528181018d905260ff808c1660608401528a16608083015260a0820189905260c08201889052600060e083015251908190036101000190a3611180565b6000886001600160a01b03166382b86600886040518263ffffffff1660e01b8152600401808260ff16815260200191505060206040518083038186803b158015610ec357600080fd5b505afa158015610ed7573d6000803e3d6000fd5b505050506040513d6020811015610eed57600080fd5b505160cc549091506001600160a01b038083169116148015610f19575060cc546001600160a01b031615155b156110dc5760cc54604080517f2e1a7d4d0000000000000000000000000000000000000000000000000000000081526004810185905290516001600160a01b0390921691632e1a7d4d9160248082019260009290919082900301818387803b158015610f8457600080fd5b505af1158015610f98573d6000803e3d6000fd5b5050505060008d6001600160a01b03168360405180600001905060006040518083038185875af1925050503d8060008114610fef576040519150601f19603f3d011682016040523d82523d6000602084013e610ff4565b606091505b505090508061104a576040805162461bcd60e51b815260206004820152601360248201527f4554485f5452414e534645525f4641494c454400000000000000000000000000604482015290519081900360640190fd5b848e6001600160a01b03167f4f56ec39e98539920503fd54ee56ae0cbebe9eb15aa778f18de67701eeae7c658f868f8e8e8e8e600160405180896001600160a01b031681526020018881526020018781526020018660ff1681526020018560ff16815260200184815260200183815260200182151581526020019850505050505050505060405180910390a35061117d565b6110f06001600160a01b0382168e8461320e565b838d6001600160a01b03167f4f56ec39e98539920503fd54ee56ae0cbebe9eb15aa778f18de67701eeae7c658e858e8d8d8d8d600160405180896001600160a01b031681526020018881526020018781526020018660ff1681526020018560ff16815260200184815260200183815260200182151581526020019850505050505050505060405180910390a35b50505b6112a3565b604080517f40c10f19000000000000000000000000000000000000000000000000000000008152306004820152602481018b905290516001600160a01b038c16916340c10f1991604480830192600092919082900301818387803b1580156111ec57600080fd5b505af1158015611200573d6000803e3d6000fd5b5050505061121b8b610ddd8a8c61309290919063ffffffff16565b816001600160a01b038c167f4f56ec39e98539920503fd54ee56ae0cbebe9eb15aa778f18de67701eeae7c658c6112528d8d613092565b604080516001600160a01b03909316835260208301919091528181018d905260ff808c1660608401528a16608083015260a0820189905260c08201889052600060e083015251908190036101000190a35b50506001606555505050505050505050565b6002606554141561130d576040805162461bcd60e51b815260206004820152601f60248201527f5265656e7472616e637947756172643a207265656e7472616e742063616c6c00604482015290519081900360640190fd5b600260655561131a611ed8565b1561136c576040805162461bcd60e51b815260206004820152601060248201527f5061757361626c653a2070617573656400000000000000000000000000000000604482015290519081900360640190fd5b6113967fb5c00e6706c3d213edd70ff33717fac657eacc5fe161f07180cf1fcab13cc4cd3361234d565b6113e7576040805162461bcd60e51b815260206004820152601a60248201527f43616c6c6572206973206e6f742061206e6f64652067726f7570000000000000604482015290519081900360640190fd5b81831161143b576040805162461bcd60e51b815260206004820152601f60248201527f416d6f756e74206d7573742062652067726561746572207468616e2066656500604482015290519081900360640190fd5b600081815260cd602052604090205460ff161561149f576040805162461bcd60e51b815260206004820152601860248201527f4b6170706120697320616c72656164792070726573656e740000000000000000604482015290519081900360640190fd5b600081815260cd60209081526040808320805460ff191660011790556001600160a01b038716835260c99091529020546114d99083613038565b6001600160a01b03808616600081815260c9602052604090209290925560cc5416148015611511575060cc546001600160a01b031615155b156116835760cc546001600160a01b0316632e1a7d4d6115318585613092565b6040518263ffffffff1660e01b815260040180828152602001915050600060405180830381600087803b15801561156757600080fd5b505af115801561157b573d6000803e3d6000fd5b506000925050506001600160a01b0386166115968585613092565b604051600081818185875af1925050503d80600081146115d2576040519150601f19603f3d011682016040523d82523d6000602084013e6115d7565b606091505b505090508061162d576040805162461bcd60e51b815260206004820152601360248201527f4554485f5452414e534645525f4641494c454400000000000000000000000000604482015290519081900360640190fd5b604080516001600160a01b03878116825260208201879052818301869052915184928916917f8b0afdc777af6946e53045a4a75212769075d30455a212ac51c9b16f9c5c9b26919081900360600190a3506116f2565b604080516001600160a01b03868116825260208201869052818301859052915183928816917f8b0afdc777af6946e53045a4a75212769075d30455a212ac51c9b16f9c5c9b26919081900360600190a36116f2856116e18585613092565b6001600160a01b038716919061320e565b50506001606555505050565b60026065541415611756576040805162461bcd60e51b815260206004820152601f60248201527f5265656e7472616e637947756172643a207265656e7472616e742063616c6c00604482015290519081900360640190fd5b6002606555611763611ed8565b156117b5576040805162461bcd60e51b815260206004820152601060248201527f5061757361626c653a2070617573656400000000000000000000000000000000604482015290519081900360640190fd5b6117df7fb5c00e6706c3d213edd70ff33717fac657eacc5fe161f07180cf1fcab13cc4cd3361234d565b611830576040805162461bcd60e51b815260206004820152601a60248201527f43616c6c6572206973206e6f742061206e6f64652067726f7570000000000000604482015290519081900360640190fd5b818311611884576040805162461bcd60e51b815260206004820152601f60248201527f416d6f756e74206d7573742062652067726561746572207468616e2066656500604482015290519081900360640190fd5b600081815260cd602052604090205460ff16156118e8576040805162461bcd60e51b815260206004820152601860248201527f4b6170706120697320616c72656164792070726573656e740000000000000000604482015290519081900360640190fd5b600081815260cd60209081526040808320805460ff191660011790556001600160a01b038716835260c99091529020546119229083613038565b6001600160a01b03808616600090815260c96020526040902091909155819086167fbf14b9fde87f6e1c29a7e0787ad1d0d64b4648d8ae63da21524d9fd0f283dd388661196f8787613092565b604080516001600160a01b0390931683526020830191909152818101879052519081900360600190a3604080517f40c10f190000000000000000000000000000000000000000000000000000000081523060048201526024810185905290516001600160a01b038616916340c10f1991604480830192600092919082900301818387803b1580156119ff57600080fd5b505af1158015611a13573d6000803e3d6000fd5b505050506001600160a01b03841673e96ac70907fff3efee79f502c985a7a21bce407d1415611b3c57611a6f731a93b23281cc1cde4c4741353f3064709a16197d611a5e8585613092565b6001600160a01b03871691906130ef565b731a93b23281cc1cde4c4741353f3064709a16197d639006a50f85611a948686613092565b6040518363ffffffff1660e01b815260040180836001600160a01b0316815260200182815260200192505050602060405180830381600087803b158015611ada57600080fd5b505af1925050508015611aff57506040513d6020811015611afa57600080fd5b505160015b611b1657611b11856116e18585613092565b611b37565b611b35731a93b23281cc1cde4c4741353f3064709a16197d878361320e565b505b611b4a565b611b4a856116e18585613092565b60cb5415801590611b5c575060cb5447115b156116f25760cb546040516001600160a01b0387169190600081818185875af1925050503d8060008114611bac576040519150601f19603f3d011682016040523d82523d6000602084013e611bb1565b606091505b50505050506001606555505050565b60009081526033602052604090206002015490565b600082815260336020526040902060020154611bf890611bf361328e565b61234d565b611c335760405162461bcd60e51b815260040180806020018281038252602f815260200180613bdf602f913960400191505060405180910390fd5b611c3d8282613292565b5050565b600090815260cd602052604090205460ff1690565b611c5e61328e565b6001600160a01b0316816001600160a01b031614611cad5760405162461bcd60e51b815260040180806020018281038252602f815260200180613cbc602f913960400191505060405180910390fd5b611c3d82826132fb565b60026065541415611d0f576040805162461bcd60e51b815260206004820152601f60248201527f5265656e7472616e637947756172643a207265656e7472616e742063616c6c00604482015290519081900360640190fd5b6002606555611d1c611ed8565b15611d6e576040805162461bcd60e51b815260206004820152601060248201527f5061757361626c653a2070617573656400000000000000000000000000000000604482015290519081900360640190fd5b604080518781526001600160a01b03878116602083015281830187905260ff861660608301526080820185905260a082018490529151918916917f9a7024cde1920aa50cdde09ca396229e8c4d530d5cfdc6233590def70a94408c9181900360c00190a2604080517f79cc67900000000000000000000000000000000000000000000000000000000081523360048201526024810186905290516001600160a01b038716916379cc679091604480830192600092919082900301818387803b158015611e3957600080fd5b505af11580156112a3573d6000803e3d6000fd5b611e777f71840dc4906352362b0cdaf79870196c8e42acafade72d5d5a6d59291253ceb13361234d565b611ec8576040805162461bcd60e51b815260206004820152600e60248201527f4e6f7420676f7665726e616e6365000000000000000000000000000000000000604482015290519081900360640190fd5b611ed0613364565b565b60ca5481565b60975460ff1690565b600054610100900460ff1680611efa5750611efa61340d565b80611f08575060005460ff16155b611f435760405162461bcd60e51b815260040180806020018281038252602e815260200180613c64602e913960400191505060405180910390fd5b600054610100900460ff16158015611f8b576000805460ff197fffffffffffffffffffffffffffffffffffffffffffffffffffffffffffff00ff909116610100171660011790555b4360ca55611f9a600033611c33565b611fa261341e565b8015611fd157600080547fffffffffffffffffffffffffffffffffffffffffffffffffffffffffffff00ff1690555b50565b6002606554141561202c576040805162461bcd60e51b815260206004820152601f60248201527f5265656e7472616e637947756172643a207265656e7472616e742063616c6c00604482015290519081900360640190fd5b6002606555612039611ed8565b1561208b576040805162461bcd60e51b815260206004820152601060248201527f5061757361626c653a2070617573656400000000000000000000000000000000604482015290519081900360640190fd5b604080518881526001600160a01b03888116602083015281830188905260ff80881660608401528616608083015260a0820185905260c082018490529151918a16917f91f25e9be0134ec851830e0e76dc71e06f9dade75a9b84e9524071dbbc3194259181900360e00190a2604080517f79cc67900000000000000000000000000000000000000000000000000000000081523360048201526024810187905290516001600160a01b038816916379cc679091604480830192600092919082900301818387803b15801561215e57600080fd5b505af1158015612172573d6000803e3d6000fd5b5050600160655550505050505050505050565b6121af7f71840dc4906352362b0cdaf79870196c8e42acafade72d5d5a6d59291253ceb13361234d565b612200576040805162461bcd60e51b815260206004820152600e60248201527f4e6f7420676f7665726e616e6365000000000000000000000000000000000000604482015290519081900360640190fd5b611ed06134d8565b60008281526033602052604081206122209083613568565b90505b92915050565b60026065541415612281576040805162461bcd60e51b815260206004820152601f60248201527f5265656e7472616e637947756172643a207265656e7472616e742063616c6c00604482015290519081900360640190fd5b600260655561228e611ed8565b156122e0576040805162461bcd60e51b815260206004820152601060248201527f5061757361626c653a2070617573656400000000000000000000000000000000604482015290519081900360640190fd5b604080518481526001600160a01b0384811660208301528183018490529151918616917fda5273705dbef4bf1b902a131c2eac086b7e1476a8ab0cb4da08af1fe1bd8e3b9181900360600190a26123426001600160a01b038316333084613574565b505060016065555050565b600082815260336020526040812061222090836135fc565b600081565b600260655414156123c2576040805162461bcd60e51b815260206004820152601f60248201527f5265656e7472616e637947756172643a207265656e7472616e742063616c6c00604482015290519081900360640190fd5b60026065556123cf611ed8565b15612421576040805162461bcd60e51b815260206004820152601060248201527f5061757361626c653a2070617573656400000000000000000000000000000000604482015290519081900360640190fd5b604080518881526001600160a01b03888116602083015281830188905260ff80881660608401528616608083015260a0820185905260c082018490529151918a16917f79c15604b92ef54d3f61f0c40caab8857927ca3d5092367163b4562c1699eb5f9181900360e00190a26124a26001600160a01b038716333088613574565b50506001606555505050505050565b6124bc60003361234d565b61250d576040805162461bcd60e51b815260206004820152600960248201527f4e6f742061646d696e0000000000000000000000000000000000000000000000604482015290519081900360640190fd5b60cc80547fffffffffffffffffffffffff0000000000000000000000000000000000000000166001600160a01b0392909216919091179055565b600681565b6125767f71840dc4906352362b0cdaf79870196c8e42acafade72d5d5a6d59291253ceb13361234d565b6125c7576040805162461bcd60e51b815260206004820152600e60248201527f4e6f7420676f7665726e616e6365000000000000000000000000000000000000604482015290519081900360640190fd5b60cb55565b6001600160a01b0316600090815260c9602052604090205490565b600081815260336020526040812061222390613611565b60008281526033602052604090206002015461261c90611bf361328e565b611cad5760405162461bcd60e51b8152600401808060200182810382526030815260200180613c346030913960400191505060405180910390fd5b600260655414156126af576040805162461bcd60e51b815260206004820152601f60248201527f5265656e7472616e637947756172643a207265656e7472616e742063616c6c00604482015290519081900360640190fd5b60026065556126bc611ed8565b1561270e576040805162461bcd60e51b815260206004820152601060248201527f5061757361626c653a2070617573656400000000000000000000000000000000604482015290519081900360640190fd5b6127387fb5c00e6706c3d213edd70ff33717fac657eacc5fe161f07180cf1fcab13cc4cd3361234d565b612789576040805162461bcd60e51b815260206004820152601a60248201527f43616c6c6572206973206e6f742061206e6f64652067726f7570000000000000604482015290519081900360640190fd5b8587116127dd576040805162461bcd60e51b815260206004820152601f60248201527f416d6f756e74206d7573742062652067726561746572207468616e2066656500604482015290519081900360640190fd5b600081815260cd602052604090205460ff1615612841576040805162461bcd60e51b815260206004820152601860248201527f4b6170706120697320616c72656164792070726573656e740000000000000000604482015290519081900360640190fd5b600081815260cd60209081526040808320805460ff191660011790556001600160a01b038b16835260c990915290205461287b9087613038565b6001600160a01b03808a16600090815260c96020526040812092909255861663342a87a16128a98a8a613092565b876040518363ffffffff1660e01b8152600401808381526020018260ff1681526020019250505060206040518083038186803b1580156128e857600080fd5b505afa1580156128fc573d6000803e3d6000fd5b505050506040513d602081101561291257600080fd5b50519050838110612b725761293c8661292b8a8a613092565b6001600160a01b038c1691906130ef565b6001600160a01b038616633e3a15606129558a8a613092565b8787876040518563ffffffff1660e01b8152600401808581526020018460ff168152602001838152602001828152602001945050505050602060405180830381600087803b1580156129a657600080fd5b505af19250505080156129cb57506040513d60208110156129c657600080fd5b505160015b612a71576129ee8a6129dd8a8a613092565b6001600160a01b038c16919061320e565b816001600160a01b038b167fc1a608d0f8122d014d03cc915a91d98cef4ebaf31ea3552320430cba05211b6d8b612a258c8c613092565b604080516001600160a01b03909316835260208301919091528181018c905260ff8a1660608301526080820189905260a08201889052600060c0830152519081900360e00190a3612b6d565b6000876001600160a01b03166382b86600886040518263ffffffff1660e01b8152600401808260ff16815260200191505060206040518083038186803b158015612aba57600080fd5b505afa158015612ace573d6000803e3d6000fd5b505050506040513d6020811015612ae457600080fd5b50519050612afc6001600160a01b0382168d8461320e565b604080516001600160a01b038d81168252602082018590528183018c905260ff8a1660608301526080820189905260a08201889052600160c0830152915186928f16917fc1a608d0f8122d014d03cc915a91d98cef4ebaf31ea3552320430cba05211b6d919081900360e00190a350505b612bff565b612b808a6129dd8a8a613092565b816001600160a01b038b167fc1a608d0f8122d014d03cc915a91d98cef4ebaf31ea3552320430cba05211b6d8b612bb78c8c613092565b604080516001600160a01b03909316835260208301919091528181018c905260ff8a1660608301526080820189905260a08201889052600060c0830152519081900360e00190a35b505060016065555050505050505050565b60cb5481565b612c407f71840dc4906352362b0cdaf79870196c8e42acafade72d5d5a6d59291253ceb13361234d565b612c91576040805162461bcd60e51b815260206004820152600e60248201527f4e6f7420676f7665726e616e6365000000000000000000000000000000000000604482015290519081900360640190fd5b60005b81811015612cde57600160cd6000858585818110612cae57fe5b60209081029290920135835250810191909152604001600020805460ff1916911515919091179055600101612c94565b505050565b612ceb611ed8565b15612d3d576040805162461bcd60e51b815260206004820152601060248201527f5061757361626c653a2070617573656400000000000000000000000000000000604482015290519081900360640190fd5b612d677f71840dc4906352362b0cdaf79870196c8e42acafade72d5d5a6d59291253ceb13361234d565b612db8576040805162461bcd60e51b815260206004820152600e60248201527f4e6f7420676f7665726e616e6365000000000000000000000000000000000000604482015290519081900360640190fd5b6001600160a01b038116612e13576040805162461bcd60e51b815260206004820152601060248201527f4164647265737320697320307830303000000000000000000000000000000000604482015290519081900360640190fd5b6001600160a01b038216600090815260c9602052604090205415611c3d576001600160a01b038216600081815260c96020526040902054612e569190839061320e565b506001600160a01b0316600090815260c96020526040812055565b7f71840dc4906352362b0cdaf79870196c8e42acafade72d5d5a6d59291253ceb181565b7fb5c00e6706c3d213edd70ff33717fac657eacc5fe161f07180cf1fcab13cc4cd81565b60026065541415612f11576040805162461bcd60e51b815260206004820152601f60248201527f5265656e7472616e637947756172643a207265656e7472616e742063616c6c00604482015290519081900360640190fd5b6002606555612f1e611ed8565b15612f70576040805162461bcd60e51b815260206004820152601060248201527f5061757361626c653a2070617573656400000000000000000000000000000000604482015290519081900360640190fd5b604080518481526001600160a01b0384811660208301528183018490529151918616917fdc5bad4651c5fbe9977a696aadc65996c468cde1448dd468ec0d83bf61c4b57c9181900360600190a2604080517f79cc67900000000000000000000000000000000000000000000000000000000081523360048201526024810183905290516001600160a01b038416916379cc679091604480830192600092919082900301818387803b15801561302457600080fd5b505af11580156124a2573d6000803e3d6000fd5b600082820183811015612220576040805162461bcd60e51b815260206004820152601b60248201527f536166654d6174683a206164646974696f6e206f766572666c6f770000000000604482015290519081900360640190fd5b6000828211156130e9576040805162461bcd60e51b815260206004820152601e60248201527f536166654d6174683a207375627472616374696f6e206f766572666c6f770000604482015290519081900360640190fd5b50900390565b600061318582856001600160a01b031663dd62ed3e30876040518363ffffffff1660e01b815260040180836001600160a01b03168152602001826001600160a01b031681526020019250505060206040518083038186803b15801561315357600080fd5b505afa158015613167573d6000803e3d6000fd5b505050506040513d602081101561317d57600080fd5b505190613038565b604080516001600160a01b038616602482015260448082018490528251808303909101815260649091019091526020810180517bffffffffffffffffffffffffffffffffffffffffffffffffffffffff167f095ea7b30000000000000000000000000000000000000000000000000000000017905290915061320890859061361c565b50505050565b604080516001600160a01b038416602482015260448082018490528251808303909101815260649091019091526020810180517bffffffffffffffffffffffffffffffffffffffffffffffffffffffff167fa9059cbb00000000000000000000000000000000000000000000000000000000179052612cde90849061361c565b3390565b60008281526033602052604090206132aa90826136cd565b15611c3d576132b761328e565b6001600160a01b0316816001600160a01b0316837f2f8788117e7eff1d82e926ec794901d17c78024a50270940304540a733656f0d60405160405180910390a45050565b600082815260336020526040902061331390826136e2565b15611c3d5761332061328e565b6001600160a01b0316816001600160a01b0316837ff6391f5c32d9c69d2a47ea670b442974b53935d1edc7fd64eb21e047a839171b60405160405180910390a45050565b61336c611ed8565b6133bd576040805162461bcd60e51b815260206004820152601460248201527f5061757361626c653a206e6f7420706175736564000000000000000000000000604482015290519081900360640190fd5b6097805460ff191690557f5db9ee0a495bf2e6ff9c91a7834c1ba4fdd244a5e8aa4e537bd38aeae4b073aa6133f061328e565b604080516001600160a01b039092168252519081900360200190a1565b6000613418306136f7565b15905090565b600054610100900460ff1680613437575061343761340d565b80613445575060005460ff16155b6134805760405162461bcd60e51b815260040180806020018281038252602e815260200180613c64602e913960400191505060405180910390fd5b600054610100900460ff161580156134c8576000805460ff197fffffffffffffffffffffffffffffffffffffffffffffffffffffffffffff00ff909116610100171660011790555b6134d06136fd565b611fa26136fd565b6134e0611ed8565b15613532576040805162461bcd60e51b815260206004820152601060248201527f5061757361626c653a2070617573656400000000000000000000000000000000604482015290519081900360640190fd5b6097805460ff191660011790557f62e78cea01bee320cd4e420270b5ea74000d11b0c9f74754ebdbfc544b05a2586133f061328e565b600061222083836137d7565b604080516001600160a01b0380861660248301528416604482015260648082018490528251808303909101815260849091019091526020810180517bffffffffffffffffffffffffffffffffffffffffffffffffffffffff167f23b872dd0000000000000000000000000000000000000000000000000000000017905261320890859061361c565b6000612220836001600160a01b03841661383b565b600061222382613853565b6060613671826040518060400160405280602081526020017f5361666545524332303a206c6f772d6c6576656c2063616c6c206661696c6564815250856001600160a01b03166138579092919063ffffffff16565b805190915015612cde5780806020019051602081101561369057600080fd5b5051612cde5760405162461bcd60e51b815260040180806020018281038252602a815260200180613c92602a913960400191505060405180910390fd5b6000612220836001600160a01b038416613870565b6000612220836001600160a01b0384166138ba565b3b151590565b600054610100900460ff1680613716575061371661340d565b80613724575060005460ff16155b61375f5760405162461bcd60e51b815260040180806020018281038252602e815260200180613c64602e913960400191505060405180910390fd5b600054610100900460ff16158015611fa2576000805460ff197fffffffffffffffffffffffffffffffffffffffffffffffffffffffffffff00ff909116610100171660011790558015611fd157600080547fffffffffffffffffffffffffffffffffffffffffffffffffffffffffffff00ff16905550565b815460009082106138195760405162461bcd60e51b8152600401808060200182810382526022815260200180613bbd6022913960400191505060405180910390fd5b82600001828154811061382857fe5b9060005260206000200154905092915050565b60009081526001919091016020526040902054151590565b5490565b6060613866848460008561399e565b90505b9392505050565b600061387c838361383b565b6138b257508154600181810184556000848152602080822090930184905584548482528286019093526040902091909155612223565b506000612223565b600081815260018301602052604081205480156139945783547fffffffffffffffffffffffffffffffffffffffffffffffffffffffffffffffff808301919081019060009087908390811061390b57fe5b906000526020600020015490508087600001848154811061392857fe5b60009182526020808320909101929092558281526001898101909252604090209084019055865487908061395857fe5b60019003818190600052602060002001600090559055866001016000878152602001908152602001600020600090556001945050505050612223565b6000915050612223565b6060824710156139df5760405162461bcd60e51b8152600401808060200182810382526026815260200180613c0e6026913960400191505060405180910390fd5b6139e8856136f7565b613a39576040805162461bcd60e51b815260206004820152601d60248201527f416464726573733a2063616c6c20746f206e6f6e2d636f6e7472616374000000604482015290519081900360640190fd5b60006060866001600160a01b031685876040518082805190602001908083835b60208310613a9657805182527fffffffffffffffffffffffffffffffffffffffffffffffffffffffffffffffe09092019160209182019101613a59565b6001836020036101000a03801982511681845116808217855250505050505090500191505060006040518083038185875af1925050503d8060008114613af8576040519150601f19603f3d011682016040523d82523d6000602084013e613afd565b606091505b5091509150613b0d828286613b18565b979650505050505050565b60608315613b27575081613869565b825115613b375782518084602001fd5b8160405162461bcd60e51b81526004018080602001828103825283818151815260200191508051906020019080838360005b83811015613b81578181015183820152602001613b69565b50505050905090810190601f168015613bae5780820380516001836020036101000a031916815260200191505b509250505060405180910390fdfe456e756d657261626c655365743a20696e646578206f7574206f6620626f756e6473416363657373436f6e74726f6c3a2073656e646572206d75737420626520616e2061646d696e20746f206772616e74416464726573733a20696e73756666696369656e742062616c616e636520666f722063616c6c416363657373436f6e74726f6c3a2073656e646572206d75737420626520616e2061646d696e20746f207265766f6b65496e697469616c697a61626c653a20636f6e747261637420697320616c726561647920696e697469616c697a65645361666545524332303a204552433230206f7065726174696f6e20646964206e6f742073756363656564416363657373436f6e74726f6c3a2063616e206f6e6c792072656e6f756e636520726f6c657320666f722073656c66a2646970667358221220107a0b1b6416304f9aff3749b4efed9580882212bc553cc327a53b7b8615750c64736f6c634300060c0033",
  "devdoc": {
    "kind": "dev",
    "methods": {
      "deposit(address,uint256,address,uint256)": {
        "params": {
          "amount": "Amount in native token decimals to transfer cross-chain pre-fees*",
          "chainId": "which chain to bridge assets onto",
          "to": "address on other chain to bridge assets to",
          "token": "ERC20 compatible token to deposit into the bridge"
        }
      },
      "depositAndSwap(address,uint256,address,uint256,uint8,uint8,uint256,uint256)": {
        "params": {
          "amount": "Amount in native token decimals to transfer cross-chain pre-fees",
          "chainId": "which chain to bridge assets onto",
          "deadline": "latest timestamp to accept this transaction*",
          "minDy": "the min amount the user would like to receive, or revert to only minting the SynERC20 token crosschain.",
          "to": "address on other chain to bridge assets to",
          "token": "ERC20 compatible token to deposit into the bridge",
          "tokenIndexFrom": "the token the user wants to swap from",
          "tokenIndexTo": "the token the user wants to swap to"
        }
      },
      "getRoleAdmin(bytes32)": {
        "details": "Returns the admin role that controls `role`. See {grantRole} and {revokeRole}. To change a role's admin, use {_setRoleAdmin}."
      },
      "getRoleMember(bytes32,uint256)": {
        "details": "Returns one of the accounts that have `role`. `index` must be a value between 0 and {getRoleMemberCount}, non-inclusive. Role bearers are not sorted in any particular way, and their ordering may change at any point. WARNING: When using {getRoleMember} and {getRoleMemberCount}, make sure you perform all queries on the same block. See the following https://forum.openzeppelin.com/t/iterating-over-elements-on-enumerableset-in-openzeppelin-contracts/2296[forum post] for more information."
      },
      "getRoleMemberCount(bytes32)": {
        "details": "Returns the number of accounts that have `role`. Can be used together with {getRoleMember} to enumerate all bearers of a role."
      },
      "grantRole(bytes32,address)": {
        "details": "Grants `role` to `account`. If `account` had not been already granted `role`, emits a {RoleGranted} event. Requirements: - the caller must have ``role``'s admin role."
      },
      "hasRole(bytes32,address)": {
        "details": "Returns `true` if `account` has been granted `role`."
      },
      "mint(address,address,uint256,uint256,bytes32)": {
        "details": "This means the SynapseBridge.sol contract must have minter access to the token attempting to be minted",
        "params": {
          "amount": "Amount in native token decimals to transfer cross-chain post-fees",
          "fee": "Amount in native token decimals to save to the contract as fees",
          "kappa": "kappa*",
          "to": "address on other chain to redeem underlying assets to",
          "token": "ERC20 compatible token to deposit into the bridge"
        }
      },
      "mintAndSwap(address,address,uint256,uint256,address,uint8,uint8,uint256,uint256,bytes32)": {
        "details": "This means the BridgeDeposit.sol contract must have minter access to the token attempting to be minted",
        "params": {
          "amount": "Amount in native token decimals to transfer cross-chain post-fees",
          "deadline": "Epoch time of the deadline that the swap is allowed to be executed.",
          "fee": "Amount in native token decimals to save to the contract as fees",
          "kappa": "kappa*",
          "minDy": "Minumum amount (in final asset decimals) that must be swapped for, otherwise the user will receive the SynERC20.",
          "pool": "Destination chain's pool to use to swap SynERC20 -> Asset. The nodes determine this by using PoolConfig.sol.",
          "to": "address on other chain to redeem underlying assets to",
          "token": "ERC20 compatible token to deposit into the bridge",
          "tokenIndexFrom": "Index of the SynERC20 asset in the pool",
          "tokenIndexTo": "Index of the desired final asset"
        }
      },
      "paused()": {
        "details": "Returns true if the contract is paused, and false otherwise."
      },
      "redeem(address,uint256,address,uint256)": {
        "params": {
          "amount": "Amount in native token decimals to transfer cross-chain pre-fees*",
          "chainId": "which underlying chain to bridge assets onto",
          "to": "address on other chain to redeem underlying assets to",
          "token": "ERC20 compatible token to deposit into the bridge"
        }
      },
      "redeemAndRemove(address,uint256,address,uint256,uint8,uint256,uint256)": {
        "params": {
          "amount": "Amount in native token decimals to transfer cross-chain pre-fees",
          "chainId": "which underlying chain to bridge assets onto",
          "swapDeadline": "Specificies the deadline that the nodes are allowed to try to redeem/swap the LP token*",
          "swapMinAmount": "Specifies the minimum amount of the underlying asset needed for the nodes to execute the redeem/swap",
          "swapTokenIndex": "Specifies which of the underlying LP assets the nodes should attempt to redeem for",
          "to": "address on other chain to redeem underlying assets to",
          "token": "ERC20 compatible token to deposit into the bridge"
        }
      },
      "redeemAndSwap(address,uint256,address,uint256,uint8,uint8,uint256,uint256)": {
        "params": {
          "amount": "Amount in native token decimals to transfer cross-chain pre-fees",
          "chainId": "which underlying chain to bridge assets onto",
          "deadline": "latest timestamp to accept this transaction*",
          "minDy": "the min amount the user would like to receive, or revert to only minting the SynERC20 token crosschain.",
          "to": "address on other chain to redeem underlying assets to",
          "token": "ERC20 compatible token to deposit into the bridge",
          "tokenIndexFrom": "the token the user wants to swap from",
          "tokenIndexTo": "the token the user wants to swap to"
        }
      },
      "renounceRole(bytes32,address)": {
        "details": "Revokes `role` from the calling account. Roles are often managed via {grantRole} and {revokeRole}: this function's purpose is to provide a mechanism for accounts to lose their privileges if they are compromised (such as when a trusted device is misplaced). If the calling account had been granted `role`, emits a {RoleRevoked} event. Requirements: - the caller must be `account`."
      },
      "revokeRole(bytes32,address)": {
        "details": "Revokes `role` from `account`. If `account` had been granted `role`, emits a {RoleRevoked} event. Requirements: - the caller must have ``role``'s admin role."
      },
      "withdraw(address,address,uint256,uint256,bytes32)": {
        "params": {
          "amount": "Amount in native token decimals to withdraw",
          "fee": "Amount in native token decimals to save to the contract as fees",
          "kappa": "kappa*",
          "to": "address on chain to send underlying assets to",
          "token": "ERC20 compatible token to withdraw from the bridge"
        }
      },
      "withdrawAndRemove(address,address,uint256,uint256,address,uint8,uint256,uint256,bytes32)": {
        "params": {
          "amount": "Amount in native token decimals to withdraw",
          "fee": "Amount in native token decimals to save to the contract as fees",
          "kappa": "kappa*",
          "pool": "Destination chain's pool to use to swap SynERC20 -> Asset. The nodes determine this by using PoolConfig.sol.",
          "swapDeadline": "Specificies the deadline that the nodes are allowed to try to redeem/swap the LP token",
          "swapMinAmount": "Specifies the minimum amount of the underlying asset needed for the nodes to execute the redeem/swap",
          "swapTokenIndex": "Specifies which of the underlying LP assets the nodes should attempt to redeem for",
          "to": "address on chain to send underlying assets to",
          "token": "ERC20 compatible token to withdraw from the bridge"
        }
      },
      "withdrawFees(address,address)": {
        "params": {
          "to": "Address to send the fees to",
          "token": "ERC20 token in which fees acccumulated to transfer"
        }
      }
    },
    "version": 1
  },
  "userdoc": {
    "kind": "user",
    "methods": {
      "deposit(address,uint256,address,uint256)": {
        "notice": "Relays to nodes to transfers an ERC20 token cross-chain"
      },
      "depositAndSwap(address,uint256,address,uint256,uint8,uint8,uint256,uint256)": {
        "notice": "Relays to nodes to both transfer an ERC20 token cross-chain, and then have the nodes execute a swap through a liquidity pool on behalf of the user."
      },
      "mint(address,address,uint256,uint256,bytes32)": {
        "notice": "Nodes call this function to mint a SynERC20 (or any asset that the bridge is given minter access to). This is called by the nodes after a TokenDeposit event is emitted."
      },
      "mintAndSwap(address,address,uint256,uint256,address,uint8,uint8,uint256,uint256,bytes32)": {
        "notice": "Nodes call this function to mint a SynERC20 (or any asset that the bridge is given minter access to), and then attempt to swap the SynERC20 into the desired destination asset. This is called by the nodes after a TokenDepositAndSwap event is emitted."
      },
      "redeem(address,uint256,address,uint256)": {
        "notice": "Relays to nodes that (typically) a wrapped synAsset ERC20 token has been burned and the underlying needs to be redeeemed on the native chain"
      },
      "redeemAndRemove(address,uint256,address,uint256,uint8,uint256,uint256)": {
        "notice": "Relays to nodes that (typically) a wrapped synAsset ERC20 token has been burned and the underlying needs to be redeeemed on the native chain. This function indicates to the nodes that they should attempt to redeem the LP token for the underlying assets (E.g \"swap\" out of the LP token)"
      },
      "redeemAndSwap(address,uint256,address,uint256,uint8,uint8,uint256,uint256)": {
        "notice": "Relays to nodes that (typically) a wrapped synAsset ERC20 token has been burned and the underlying needs to be redeeemed on the native chain. This function indicates to the nodes that they should attempt to redeem the LP token for the underlying assets (E.g \"swap\" out of the LP token)"
      },
      "withdraw(address,address,uint256,uint256,bytes32)": {
        "notice": "Function to be called by the node group to withdraw the underlying assets from the contract"
      },
      "withdrawAndRemove(address,address,uint256,uint256,address,uint8,uint256,uint256,bytes32)": {
        "notice": "Function to be called by the node group to withdraw the underlying assets from the contract"
      },
      "withdrawFees(address,address)": {
        "notice": "withdraw specified ERC20 token fees to a given address"
      }
    },
    "version": 1
  },
  "storageLayout": {
    "storage": [
      {
        "astId": 1286,
        "contract": "contracts/bridge/SynapseBridge.sol:SynapseBridge",
        "label": "_initialized",
        "offset": 0,
        "slot": "0",
        "type": "t_bool"
      },
      {
        "astId": 1289,
        "contract": "contracts/bridge/SynapseBridge.sol:SynapseBridge",
        "label": "_initializing",
        "offset": 1,
        "slot": "0",
        "type": "t_bool"
      },
      {
        "astId": 2325,
        "contract": "contracts/bridge/SynapseBridge.sol:SynapseBridge",
        "label": "__gap",
        "offset": 0,
        "slot": "1",
        "type": "t_array(t_uint256)50_storage"
      },
      {
        "astId": 43,
        "contract": "contracts/bridge/SynapseBridge.sol:SynapseBridge",
        "label": "_roles",
        "offset": 0,
        "slot": "51",
        "type": "t_mapping(t_bytes32,t_struct(RoleData)39_storage)"
      },
      {
        "astId": 306,
        "contract": "contracts/bridge/SynapseBridge.sol:SynapseBridge",
        "label": "__gap",
        "offset": 0,
        "slot": "52",
        "type": "t_array(t_uint256)49_storage"
      },
      {
        "astId": 2995,
        "contract": "contracts/bridge/SynapseBridge.sol:SynapseBridge",
        "label": "_status",
        "offset": 0,
        "slot": "101",
        "type": "t_uint256"
      },
      {
        "astId": 3038,
        "contract": "contracts/bridge/SynapseBridge.sol:SynapseBridge",
        "label": "__gap",
        "offset": 0,
        "slot": "102",
        "type": "t_array(t_uint256)49_storage"
      },
      {
        "astId": 2889,
        "contract": "contracts/bridge/SynapseBridge.sol:SynapseBridge",
        "label": "_paused",
        "offset": 0,
        "slot": "151",
        "type": "t_bool"
      },
      {
        "astId": 2980,
        "contract": "contracts/bridge/SynapseBridge.sol:SynapseBridge",
        "label": "__gap",
        "offset": 0,
        "slot": "152",
        "type": "t_array(t_uint256)49_storage"
      },
      {
        "astId": 19471,
        "contract": "contracts/bridge/SynapseBridge.sol:SynapseBridge",
        "label": "fees",
        "offset": 0,
        "slot": "201",
        "type": "t_mapping(t_address,t_uint256)"
      },
      {
        "astId": 19473,
        "contract": "contracts/bridge/SynapseBridge.sol:SynapseBridge",
        "label": "startBlockNumber",
        "offset": 0,
        "slot": "202",
        "type": "t_uint256"
      },
      {
        "astId": 19478,
        "contract": "contracts/bridge/SynapseBridge.sol:SynapseBridge",
        "label": "chainGasAmount",
        "offset": 0,
        "slot": "203",
        "type": "t_uint256"
      },
      {
        "astId": 19480,
        "contract": "contracts/bridge/SynapseBridge.sol:SynapseBridge",
        "label": "WETH_ADDRESS",
        "offset": 0,
        "slot": "204",
        "type": "t_address_payable"
      },
      {
        "astId": 19484,
        "contract": "contracts/bridge/SynapseBridge.sol:SynapseBridge",
        "label": "kappaMap",
        "offset": 0,
        "slot": "205",
        "type": "t_mapping(t_bytes32,t_bool)"
      }
    ],
    "types": {
      "t_address": {
        "encoding": "inplace",
        "label": "address",
        "numberOfBytes": "20"
      },
      "t_address_payable": {
        "encoding": "inplace",
        "label": "address payable",
        "numberOfBytes": "20"
      },
      "t_array(t_bytes32)dyn_storage": {
        "base": "t_bytes32",
        "encoding": "dynamic_array",
        "label": "bytes32[]",
        "numberOfBytes": "32"
      },
      "t_array(t_uint256)49_storage": {
        "base": "t_uint256",
        "encoding": "inplace",
        "label": "uint256[49]",
        "numberOfBytes": "1568"
      },
      "t_array(t_uint256)50_storage": {
        "base": "t_uint256",
        "encoding": "inplace",
        "label": "uint256[50]",
        "numberOfBytes": "1600"
      },
      "t_bool": {
        "encoding": "inplace",
        "label": "bool",
        "numberOfBytes": "1"
      },
      "t_bytes32": {
        "encoding": "inplace",
        "label": "bytes32",
        "numberOfBytes": "32"
      },
      "t_mapping(t_address,t_uint256)": {
        "encoding": "mapping",
        "key": "t_address",
        "label": "mapping(address => uint256)",
        "numberOfBytes": "32",
        "value": "t_uint256"
      },
      "t_mapping(t_bytes32,t_bool)": {
        "encoding": "mapping",
        "key": "t_bytes32",
        "label": "mapping(bytes32 => bool)",
        "numberOfBytes": "32",
        "value": "t_bool"
      },
      "t_mapping(t_bytes32,t_struct(RoleData)39_storage)": {
        "encoding": "mapping",
        "key": "t_bytes32",
        "label": "mapping(bytes32 => struct AccessControlUpgradeable.RoleData)",
        "numberOfBytes": "32",
        "value": "t_struct(RoleData)39_storage"
      },
      "t_mapping(t_bytes32,t_uint256)": {
        "encoding": "mapping",
        "key": "t_bytes32",
        "label": "mapping(bytes32 => uint256)",
        "numberOfBytes": "32",
        "value": "t_uint256"
      },
      "t_struct(AddressSet)2652_storage": {
        "encoding": "inplace",
        "label": "struct EnumerableSetUpgradeable.AddressSet",
        "members": [
          {
            "astId": 2651,
            "contract": "contracts/bridge/SynapseBridge.sol:SynapseBridge",
            "label": "_inner",
            "offset": 0,
            "slot": "0",
            "type": "t_struct(Set)2387_storage"
          }
        ],
        "numberOfBytes": "64"
      },
      "t_struct(RoleData)39_storage": {
        "encoding": "inplace",
        "label": "struct AccessControlUpgradeable.RoleData",
        "members": [
          {
            "astId": 36,
            "contract": "contracts/bridge/SynapseBridge.sol:SynapseBridge",
            "label": "members",
            "offset": 0,
            "slot": "0",
            "type": "t_struct(AddressSet)2652_storage"
          },
          {
            "astId": 38,
            "contract": "contracts/bridge/SynapseBridge.sol:SynapseBridge",
            "label": "adminRole",
            "offset": 0,
            "slot": "2",
            "type": "t_bytes32"
          }
        ],
        "numberOfBytes": "96"
      },
      "t_struct(Set)2387_storage": {
        "encoding": "inplace",
        "label": "struct EnumerableSetUpgradeable.Set",
        "members": [
          {
            "astId": 2382,
            "contract": "contracts/bridge/SynapseBridge.sol:SynapseBridge",
            "label": "_values",
            "offset": 0,
            "slot": "0",
            "type": "t_array(t_bytes32)dyn_storage"
          },
          {
            "astId": 2386,
            "contract": "contracts/bridge/SynapseBridge.sol:SynapseBridge",
            "label": "_indexes",
            "offset": 0,
            "slot": "1",
            "type": "t_mapping(t_bytes32,t_uint256)"
          }
        ],
        "numberOfBytes": "64"
      },
      "t_uint256": {
        "encoding": "inplace",
        "label": "uint256",
        "numberOfBytes": "32"
      }
    }
  }
}