{
  "address": "0x22cdc93F53Ee3F6b8Ad66faD6f98915a5349950E",
  "abi": [
    {
      "inputs": [],
      "stateMutability": "nonpayable",
      "type": "constructor"
    },
    {
      "anonymous": false,
      "inputs": [
        {
          "indexed": true,
          "internalType": "address",
          "name": "previousOwner",
          "type": "address"
        },
        {
          "indexed": true,
          "internalType": "address",
          "name": "newOwner",
          "type": "address"
        }
      ],
      "name": "OwnershipTransferred",
      "type": "event"
    },
    {
      "inputs": [
        {
          "internalType": "bytes",
          "name": "_options",
          "type": "bytes"
        }
      ],
      "name": "decodeOptions",
      "outputs": [
        {
          "internalType": "uint16",
          "name": "",
          "type": "uint16"
        },
        {
          "internalType": "uint256",
          "name": "",
          "type": "uint256"
        },
        {
          "internalType": "uint256",
          "name": "",
          "type": "uint256"
        },
        {
          "internalType": "bytes32",
          "name": "",
          "type": "bytes32"
        }
      ],
      "stateMutability": "pure",
      "type": "function"
    },
    {
      "inputs": [
        {
          "internalType": "uint256",
          "name": "",
          "type": "uint256"
        }
      ],
      "name": "dstGasPriceInWei",
      "outputs": [
        {
          "internalType": "uint256",
          "name": "",
          "type": "uint256"
        }
      ],
      "stateMutability": "view",
      "type": "function"
    },
    {
      "inputs": [
        {
          "internalType": "uint256",
          "name": "",
          "type": "uint256"
        }
      ],
      "name": "dstGasTokenRatio",
      "outputs": [
        {
          "internalType": "uint256",
          "name": "",
          "type": "uint256"
        }
      ],
      "stateMutability": "view",
      "type": "function"
    },
    {
      "inputs": [
        {
          "internalType": "uint16",
          "name": "txType",
          "type": "uint16"
        },
        {
          "internalType": "uint256",
          "name": "gasLimit",
          "type": "uint256"
        }
      ],
      "name": "encodeOptions",
      "outputs": [
        {
          "internalType": "bytes",
          "name": "",
          "type": "bytes"
        }
      ],
      "stateMutability": "pure",
      "type": "function"
    },
    {
      "inputs": [
        {
          "internalType": "uint16",
          "name": "txType",
          "type": "uint16"
        },
        {
          "internalType": "uint256",
          "name": "gasLimit",
          "type": "uint256"
        },
        {
          "internalType": "uint256",
          "name": "dstNativeAmt",
          "type": "uint256"
        },
        {
          "internalType": "bytes32",
          "name": "dstAddress",
          "type": "bytes32"
        }
      ],
      "name": "encodeOptions",
      "outputs": [
        {
          "internalType": "bytes",
          "name": "",
          "type": "bytes"
        }
      ],
      "stateMutability": "pure",
      "type": "function"
    },
    {
      "inputs": [
        {
          "internalType": "uint256",
          "name": "_dstChainId",
          "type": "uint256"
        },
        {
          "internalType": "bytes",
          "name": "_options",
          "type": "bytes"
        }
      ],
      "name": "estimateGasFee",
      "outputs": [
        {
          "internalType": "uint256",
          "name": "",
          "type": "uint256"
        }
      ],
      "stateMutability": "view",
      "type": "function"
    },
    {
      "inputs": [],
      "name": "owner",
      "outputs": [
        {
          "internalType": "address",
          "name": "",
          "type": "address"
        }
      ],
      "stateMutability": "view",
      "type": "function"
    },
    {
      "inputs": [],
      "name": "renounceOwnership",
      "outputs": [],
      "stateMutability": "nonpayable",
      "type": "function"
    },
    {
      "inputs": [
        {
          "internalType": "uint256",
          "name": "_dstChainId",
          "type": "uint256"
        },
        {
          "internalType": "uint256",
          "name": "_gasUnitPrice",
          "type": "uint256"
        },
        {
          "internalType": "uint256",
          "name": "_gasTokenPriceRatio",
          "type": "uint256"
        }
      ],
      "name": "setCostPerChain",
      "outputs": [],
      "stateMutability": "nonpayable",
      "type": "function"
    },
    {
      "inputs": [
        {
          "internalType": "address",
          "name": "newOwner",
          "type": "address"
        }
      ],
      "name": "transferOwnership",
      "outputs": [],
      "stateMutability": "nonpayable",
      "type": "function"
    }
  ],
  "transactionHash": "0xd763a13af7b74ca37dfdbb6f016d729e1e19461cd2432c864e8f06793d154d92",
  "args": [],
  "solcInputHash": "4ddcccadbcdae7d71bc0538657cbc078",
  "bytecode": "0x608060405234801561001057600080fd5b5061002d61002261003260201b60201c565b61003a60201b60201c565b6100fe565b600033905090565b60008060009054906101000a900473ffffffffffffffffffffffffffffffffffffffff169050816000806101000a81548173ffffffffffffffffffffffffffffffffffffffff021916908373ffffffffffffffffffffffffffffffffffffffff1602179055508173ffffffffffffffffffffffffffffffffffffffff168173ffffffffffffffffffffffffffffffffffffffff167f8be0079c531659141344cd1fd0a4f28419497f9722a3daafe3b4186f6b6457e060405160405180910390a35050565b6111ab8061010d6000396000f3fe608060405234801561001057600080fd5b506004361061009e5760003560e01c8063d5e788a011610066578063d5e788a01461015b578063e0e162a51461018e578063e32192b7146101be578063f2fde38b146101da578063f7b9872a146101f65761009e565b806347feadc1146100a357806368e0a685146100d3578063715018a6146101035780638da5cb5b1461010d578063957976581461012b575b600080fd5b6100bd60048036038101906100b8919061091f565b610226565b6040516100ca919061098a565b60405180910390f35b6100ed60048036038101906100e891906109a5565b6102b8565b6040516100fa919061098a565b60405180910390f35b61010b6102d0565b005b610115610358565b6040516101229190610a13565b60405180910390f35b61014560048036038101906101409190610a68565b610381565b6040516101529190610b30565b60405180910390f35b61017560048036038101906101709190610b52565b6103ad565b6040516101859493929190610bc3565b60405180910390f35b6101a860048036038101906101a39190610c34565b6104d1565b6040516101b59190610b30565b60405180910390f35b6101d860048036038101906101d39190610c9b565b610503565b005b6101f460048036038101906101ef9190610d1a565b6105b4565b005b610210600480360381019061020b91906109a5565b6106ab565b60405161021d919061098a565b60405180910390f35b600080600083511461025257600080600080610241876103ad565b935093509350935050505050610259565b62030d4090505b6000670de0b6b3a764000082600260008881526020019081526020016000205460016000898152602001908152602001600020546102979190610d76565b6102a19190610d76565b6102ab9190610dff565b9050809250505092915050565b60016020528060005260406000206000915090505481565b6102d86106c3565b73ffffffffffffffffffffffffffffffffffffffff166102f6610358565b73ffffffffffffffffffffffffffffffffffffffff161461034c576040517f08c379a000000000000000000000000000000000000000000000000000000000815260040161034390610e8d565b60405180910390fd5b61035660006106cb565b565b60008060009054906101000a900473ffffffffffffffffffffffffffffffffffffffff16905090565b60608282604051602001610396929190610f04565b604051602081830303815290604052905092915050565b6000806000806022855114806103c4575060428551115b610403576040517f08c379a00000000000000000000000000000000000000000000000000000000081526004016103fa90610f7c565b60405180910390fd5b600080600080600289015193506022890151925060028461ffff16036104ba57604289015191506062890151905060008203610474576040517f08c379a000000000000000000000000000000000000000000000000000000000815260040161046b90610fe8565b60405180910390fd5b6000801b81036104b9576040517f08c379a00000000000000000000000000000000000000000000000000000000081526004016104b090611054565b60405180910390fd5b5b838383839750975097509750505050509193509193565b6060848484846040516020016104ea9493929190611095565b6040516020818303038152906040529050949350505050565b61050b6106c3565b73ffffffffffffffffffffffffffffffffffffffff16610529610358565b73ffffffffffffffffffffffffffffffffffffffff161461057f576040517f08c379a000000000000000000000000000000000000000000000000000000000815260040161057690610e8d565b60405180910390fd5b816001600085815260200190815260200160002081905550806002600085815260200190815260200160002081905550505050565b6105bc6106c3565b73ffffffffffffffffffffffffffffffffffffffff166105da610358565b73ffffffffffffffffffffffffffffffffffffffff1614610630576040517f08c379a000000000000000000000000000000000000000000000000000000000815260040161062790610e8d565b60405180910390fd5b600073ffffffffffffffffffffffffffffffffffffffff168173ffffffffffffffffffffffffffffffffffffffff160361069f576040517f08c379a000000000000000000000000000000000000000000000000000000000815260040161069690611155565b60405180910390fd5b6106a8816106cb565b50565b60026020528060005260406000206000915090505481565b600033905090565b60008060009054906101000a900473ffffffffffffffffffffffffffffffffffffffff169050816000806101000a81548173ffffffffffffffffffffffffffffffffffffffff021916908373ffffffffffffffffffffffffffffffffffffffff1602179055508173ffffffffffffffffffffffffffffffffffffffff168173ffffffffffffffffffffffffffffffffffffffff167f8be0079c531659141344cd1fd0a4f28419497f9722a3daafe3b4186f6b6457e060405160405180910390a35050565b6000604051905090565b600080fd5b600080fd5b6000819050919050565b6107b6816107a3565b81146107c157600080fd5b50565b6000813590506107d3816107ad565b92915050565b600080fd5b600080fd5b6000601f19601f8301169050919050565b7f4e487b7100000000000000000000000000000000000000000000000000000000600052604160045260246000fd5b61082c826107e3565b810181811067ffffffffffffffff8211171561084b5761084a6107f4565b5b80604052505050565b600061085e61078f565b905061086a8282610823565b919050565b600067ffffffffffffffff82111561088a576108896107f4565b5b610893826107e3565b9050602081019050919050565b82818337600083830152505050565b60006108c26108bd8461086f565b610854565b9050828152602081018484840111156108de576108dd6107de565b5b6108e98482856108a0565b509392505050565b600082601f830112610906576109056107d9565b5b81356109168482602086016108af565b91505092915050565b6000806040838503121561093657610935610799565b5b6000610944858286016107c4565b925050602083013567ffffffffffffffff8111156109655761096461079e565b5b610971858286016108f1565b9150509250929050565b610984816107a3565b82525050565b600060208201905061099f600083018461097b565b92915050565b6000602082840312156109bb576109ba610799565b5b60006109c9848285016107c4565b91505092915050565b600073ffffffffffffffffffffffffffffffffffffffff82169050919050565b60006109fd826109d2565b9050919050565b610a0d816109f2565b82525050565b6000602082019050610a286000830184610a04565b92915050565b600061ffff82169050919050565b610a4581610a2e565b8114610a5057600080fd5b50565b600081359050610a6281610a3c565b92915050565b60008060408385031215610a7f57610a7e610799565b5b6000610a8d85828601610a53565b9250506020610a9e858286016107c4565b9150509250929050565b600081519050919050565b600082825260208201905092915050565b60005b83811015610ae2578082015181840152602081019050610ac7565b83811115610af1576000848401525b50505050565b6000610b0282610aa8565b610b0c8185610ab3565b9350610b1c818560208601610ac4565b610b25816107e3565b840191505092915050565b60006020820190508181036000830152610b4a8184610af7565b905092915050565b600060208284031215610b6857610b67610799565b5b600082013567ffffffffffffffff811115610b8657610b8561079e565b5b610b92848285016108f1565b91505092915050565b610ba481610a2e565b82525050565b6000819050919050565b610bbd81610baa565b82525050565b6000608082019050610bd86000830187610b9b565b610be5602083018661097b565b610bf2604083018561097b565b610bff6060830184610bb4565b95945050505050565b610c1181610baa565b8114610c1c57600080fd5b50565b600081359050610c2e81610c08565b92915050565b60008060008060808587031215610c4e57610c4d610799565b5b6000610c5c87828801610a53565b9450506020610c6d878288016107c4565b9350506040610c7e878288016107c4565b9250506060610c8f87828801610c1f565b91505092959194509250565b600080600060608486031215610cb457610cb3610799565b5b6000610cc2868287016107c4565b9350506020610cd3868287016107c4565b9250506040610ce4868287016107c4565b9150509250925092565b610cf7816109f2565b8114610d0257600080fd5b50565b600081359050610d1481610cee565b92915050565b600060208284031215610d3057610d2f610799565b5b6000610d3e84828501610d05565b91505092915050565b7f4e487b7100000000000000000000000000000000000000000000000000000000600052601160045260246000fd5b6000610d81826107a3565b9150610d8c836107a3565b9250817fffffffffffffffffffffffffffffffffffffffffffffffffffffffffffffffff0483118215151615610dc557610dc4610d47565b5b828202905092915050565b7f4e487b7100000000000000000000000000000000000000000000000000000000600052601260045260246000fd5b6000610e0a826107a3565b9150610e15836107a3565b925082610e2557610e24610dd0565b5b828204905092915050565b600082825260208201905092915050565b7f4f776e61626c653a2063616c6c6572206973206e6f7420746865206f776e6572600082015250565b6000610e77602083610e30565b9150610e8282610e41565b602082019050919050565b60006020820190508181036000830152610ea681610e6a565b9050919050565b60008160f01b9050919050565b6000610ec582610ead565b9050919050565b610edd610ed882610a2e565b610eba565b82525050565b6000819050919050565b610efe610ef9826107a3565b610ee3565b82525050565b6000610f108285610ecc565b600282019150610f208284610eed565b6020820191508190509392505050565b7f57726f6e67205f61646170746572506172616d65746572732073697a65000000600082015250565b6000610f66601d83610e30565b9150610f7182610f30565b602082019050919050565b60006020820190508181036000830152610f9581610f59565b9050919050565b7f6473744e6174697665416d7420656d7074790000000000000000000000000000600082015250565b6000610fd2601283610e30565b9150610fdd82610f9c565b602082019050919050565b6000602082019050818103600083015261100181610fc5565b9050919050565b7f6473744e61746976654164647265737320656d70747900000000000000000000600082015250565b600061103e601683610e30565b915061104982611008565b602082019050919050565b6000602082019050818103600083015261106d81611031565b9050919050565b6000819050919050565b61108f61108a82610baa565b611074565b82525050565b60006110a18287610ecc565b6002820191506110b18286610eed565b6020820191506110c18285610eed565b6020820191506110d1828461107e565b60208201915081905095945050505050565b7f4f776e61626c653a206e6577206f776e657220697320746865207a65726f206160008201527f6464726573730000000000000000000000000000000000000000000000000000602082015250565b600061113f602683610e30565b915061114a826110e3565b604082019050919050565b6000602082019050818103600083015261116e81611132565b905091905056fea264697066735822122065a1cf2b82e3575feb49e43ece0f92690589150232cd004f8c8f2c4d052936fa64736f6c634300080d0033",
  "devdoc": {
    "kind": "dev",
    "methods": {
      "estimateGasFee(uint256,bytes)": {
        "params": {
          "_options": "Versioned struct used to instruct relayer on how to proceed with gas limits. Contains data on gas limit to submit tx with."
        }
      },
      "owner()": {
        "details": "Returns the address of the current owner."
      },
      "renounceOwnership()": {
        "details": "Leaves the contract without owner. It will not be possible to call `onlyOwner` functions anymore. Can only be called by the current owner. NOTE: Renouncing ownership will leave the contract without an owner, thereby removing any functionality that is only available to the owner."
      },
      "setCostPerChain(uint256,uint256,uint256)": {
        "params": {
          "_dstChainId": "The destination chain ID - typically, standard EVM chain ID, but differs on nonEVM chains",
          "_gasTokenPriceRatio": "USD gas ratio of dstGasToken / srcGasToken",
          "_gasUnitPrice": "The estimated current gas price in wei of the destination chain"
        }
      },
      "transferOwnership(address)": {
        "details": "Transfers ownership of the contract to a new account (`newOwner`). Can only be called by the current owner."
      }
    },
    "version": 1
  },
  "userdoc": {
    "kind": "user",
    "methods": {
      "estimateGasFee(uint256,bytes)": {
        "notice": "Returns srcGasToken fee to charge in wei for the cross-chain message based on the gas limit"
      },
      "setCostPerChain(uint256,uint256,uint256)": {
        "notice": "Permissioned method to allow an off-chain party to set what each dstChain's gas cost is priced in the srcChain's native gas currency. Example: call on ETH, setCostPerChain(43114, 30000000000, 25180000000000000) chain ID 43114 Average of 30 gwei cost to transaction on 43114 AVAX/ETH = 0.02518, scaled to gas in wei = 25180000000000000"
      }
    },
    "version": 1
  },
  "storageLayout": {
    "storage": [
      {
        "astId": 7,
        "contract": "contracts/messaging/GasFeePricing.sol:GasFeePricing",
        "label": "_owner",
        "offset": 0,
        "slot": "0",
        "type": "t_address"
      },
      {
        "astId": 135,
        "contract": "contracts/messaging/GasFeePricing.sol:GasFeePricing",
        "label": "dstGasPriceInWei",
        "offset": 0,
        "slot": "1",
        "type": "t_mapping(t_uint256,t_uint256)"
      },
      {
        "astId": 139,
        "contract": "contracts/messaging/GasFeePricing.sol:GasFeePricing",
        "label": "dstGasTokenRatio",
        "offset": 0,
        "slot": "2",
        "type": "t_mapping(t_uint256,t_uint256)"
      }
    ],
    "types": {
      "t_address": {
        "encoding": "inplace",
        "label": "address",
        "numberOfBytes": "20"
      },
      "t_mapping(t_uint256,t_uint256)": {
        "encoding": "mapping",
        "key": "t_uint256",
        "label": "mapping(uint256 => uint256)",
        "numberOfBytes": "32",
        "value": "t_uint256"
      },
      "t_uint256": {
        "encoding": "inplace",
        "label": "uint256",
        "numberOfBytes": "32"
      }
    }
  }
}