{
  "address": "0xd5609cD0e1675331E4Fb1d43207C8d9D83AAb17C",
  "abi": [
    {
      "inputs": [
        {
          "internalType": "address",
          "name": "_messageBus",
          "type": "address"
        },
        {
          "internalType": "address",
          "name": "_heroes",
          "type": "address"
        },
        {
          "internalType": "address",
          "name": "_assistingAuction",
          "type": "address"
        }
      ],
      "stateMutability": "nonpayable",
      "type": "constructor"
    },
    {
      "anonymous": false,
      "inputs": [
        {
          "indexed": true,
          "internalType": "address",
          "name": "previousOwner",
          "type": "address"
        },
        {
          "indexed": true,
          "internalType": "address",
          "name": "newOwner",
          "type": "address"
        }
      ],
      "name": "OwnershipTransferred",
      "type": "event"
    },
    {
      "anonymous": false,
      "inputs": [
        {
          "indexed": false,
          "internalType": "uint256",
          "name": "_srcChainId",
          "type": "uint256"
        },
        {
          "indexed": false,
          "internalType": "bytes32",
          "name": "_srcAddress",
          "type": "bytes32"
        }
      ],
      "name": "SetTrustedRemote",
      "type": "event"
    },
    {
      "inputs": [],
      "name": "_createOptions",
      "outputs": [
        {
          "internalType": "bytes",
          "name": "",
          "type": "bytes"
        }
      ],
      "stateMutability": "nonpayable",
      "type": "function"
    },
    {
      "inputs": [],
      "name": "assistingAuction",
      "outputs": [
        {
          "internalType": "address",
          "name": "",
          "type": "address"
        }
      ],
      "stateMutability": "view",
      "type": "function"
    },
    {
      "inputs": [
        {
          "internalType": "bytes32",
          "name": "_srcAddress",
          "type": "bytes32"
        },
        {
          "internalType": "uint256",
          "name": "_srcChainId",
          "type": "uint256"
        },
        {
          "internalType": "bytes",
          "name": "_message",
          "type": "bytes"
        },
        {
          "internalType": "address",
          "name": "_executor",
          "type": "address"
        }
      ],
      "name": "executeMessage",
      "outputs": [
        {
          "internalType": "enum ISynMessagingReceiver.MsgExecutionStatus",
          "name": "",
          "type": "uint8"
        }
      ],
      "stateMutability": "nonpayable",
      "type": "function"
    },
    {
      "inputs": [
        {
          "internalType": "uint256",
          "name": "_chainId",
          "type": "uint256"
        }
      ],
      "name": "getTrustedRemote",
      "outputs": [
        {
          "internalType": "bytes32",
          "name": "trustedRemote",
          "type": "bytes32"
        }
      ],
      "stateMutability": "view",
      "type": "function"
    },
    {
      "inputs": [],
      "name": "heroes",
      "outputs": [
        {
          "internalType": "address",
          "name": "",
          "type": "address"
        }
      ],
      "stateMutability": "view",
      "type": "function"
    },
    {
      "inputs": [],
      "name": "messageBus",
      "outputs": [
        {
          "internalType": "address",
          "name": "",
          "type": "address"
        }
      ],
      "stateMutability": "view",
      "type": "function"
    },
    {
      "inputs": [],
      "name": "msgGasLimit",
      "outputs": [
        {
          "internalType": "uint256",
          "name": "",
          "type": "uint256"
        }
      ],
      "stateMutability": "view",
      "type": "function"
    },
    {
      "inputs": [
        {
          "internalType": "address",
          "name": "operator",
          "type": "address"
        },
        {
          "internalType": "address",
          "name": "from",
          "type": "address"
        },
        {
          "internalType": "uint256",
          "name": "tokenId",
          "type": "uint256"
        },
        {
          "internalType": "bytes",
          "name": "data",
          "type": "bytes"
        }
      ],
      "name": "onERC721Received",
      "outputs": [
        {
          "internalType": "bytes4",
          "name": "",
          "type": "bytes4"
        }
      ],
      "stateMutability": "nonpayable",
      "type": "function"
    },
    {
      "inputs": [],
      "name": "owner",
      "outputs": [
        {
          "internalType": "address",
          "name": "",
          "type": "address"
        }
      ],
      "stateMutability": "view",
      "type": "function"
    },
    {
      "inputs": [],
      "name": "renounceOwnership",
      "outputs": [],
      "stateMutability": "nonpayable",
      "type": "function"
    },
    {
      "inputs": [
        {
          "internalType": "uint256",
          "name": "_heroId",
          "type": "uint256"
        },
        {
          "internalType": "uint256",
          "name": "_dstChainId",
          "type": "uint256"
        }
      ],
      "name": "sendHero",
      "outputs": [],
      "stateMutability": "payable",
      "type": "function"
    },
    {
      "inputs": [
        {
          "internalType": "address",
          "name": "_assistingAuction",
          "type": "address"
        }
      ],
      "name": "setAssistingAuctionAddress",
      "outputs": [],
      "stateMutability": "nonpayable",
      "type": "function"
    },
    {
      "inputs": [
        {
          "internalType": "address",
          "name": "_messageBus",
          "type": "address"
        }
      ],
      "name": "setMessageBus",
      "outputs": [],
      "stateMutability": "nonpayable",
      "type": "function"
    },
    {
      "inputs": [
        {
          "internalType": "uint256",
          "name": "_msgGasLimit",
          "type": "uint256"
        }
      ],
      "name": "setMsgGasLimit",
      "outputs": [],
      "stateMutability": "nonpayable",
      "type": "function"
    },
    {
      "inputs": [
        {
          "internalType": "uint256",
          "name": "_srcChainId",
          "type": "uint256"
        },
        {
          "internalType": "bytes32",
          "name": "_srcAddress",
          "type": "bytes32"
        }
      ],
      "name": "setTrustedRemote",
      "outputs": [],
      "stateMutability": "nonpayable",
      "type": "function"
    },
    {
      "inputs": [
        {
          "internalType": "address",
          "name": "newOwner",
          "type": "address"
        }
      ],
      "name": "transferOwnership",
      "outputs": [],
      "stateMutability": "nonpayable",
      "type": "function"
    }
  ],
  "transactionHash": "0x532934546e7a754e5b5bf60caeb38c31ee32942792d26843c8812db197e386ec",
  "args": [
    "0x809DC529f07651bD43A172e8dB6f4a7a0d771036",
    "0xC57971c3EC0Fc2450FC5CC9c4398ac08ff09e6ED",
    "0x5f5a567140A4b7A0406f568B152aA4bc3aCda8Ed"
  ],
  "solcInputHash": "eb7e55f1a3b2e54ccb5aab1075126bce",
  "bytecode": "0x60806040523480156200001157600080fd5b506040516200323c3803806200323c833981810160405281019062000037919062000259565b620000576200004b6200012360201b60201c565b6200012b60201b60201c565b82600160006101000a81548173ffffffffffffffffffffffffffffffffffffffff021916908373ffffffffffffffffffffffffffffffffffffffff16021790555081600360006101000a81548173ffffffffffffffffffffffffffffffffffffffff021916908373ffffffffffffffffffffffffffffffffffffffff16021790555080600460006101000a81548173ffffffffffffffffffffffffffffffffffffffff021916908373ffffffffffffffffffffffffffffffffffffffff160217905550505050620002b5565b600033905090565b60008060009054906101000a900473ffffffffffffffffffffffffffffffffffffffff169050816000806101000a81548173ffffffffffffffffffffffffffffffffffffffff021916908373ffffffffffffffffffffffffffffffffffffffff1602179055508173ffffffffffffffffffffffffffffffffffffffff168173ffffffffffffffffffffffffffffffffffffffff167f8be0079c531659141344cd1fd0a4f28419497f9722a3daafe3b4186f6b6457e060405160405180910390a35050565b600080fd5b600073ffffffffffffffffffffffffffffffffffffffff82169050919050565b60006200022182620001f4565b9050919050565b620002338162000214565b81146200023f57600080fd5b50565b600081519050620002538162000228565b92915050565b600080600060608486031215620002755762000274620001ef565b5b6000620002858682870162000242565b9350506020620002988682870162000242565b9250506040620002ab8682870162000242565b9150509250925092565b612f7780620002c56000396000f3fe6080604052600436106100f35760003560e01c806384a12b0f1161008a578063bd3583ae11610059578063bd3583ae1461030b578063c0e07f2814610334578063f2fde38b1461035f578063f9ecc6f514610388576100f3565b806384a12b0f1461023b5780638da5cb5b14610278578063a1a227fa146102a3578063a6060871146102ce576100f3565b80635c9c7c73116100c65780635c9c7c73146101a5578063659877d3146101ce578063715018a6146101f95780637246a94814610210576100f3565b8063150b7a02146100f85780631efedbe514610135578063230bb9f614610151578063547cad121461017c575b600080fd5b34801561010457600080fd5b5061011f600480360381019061011a9190611664565b6103b1565b60405161012c9190611727565b60405180910390f35b61014f600480360381019061014a9190611742565b6103c6565b005b34801561015d57600080fd5b50610166610694565b6040516101739190611791565b60405180910390f35b34801561018857600080fd5b506101a3600480360381019061019e91906117ac565b6106ba565b005b3480156101b157600080fd5b506101cc60048036038101906101c791906117ac565b61077a565b005b3480156101da57600080fd5b506101e361083a565b6040516101f09190611872565b60405180910390f35b34801561020557600080fd5b5061020e610865565b005b34801561021c57600080fd5b506102256108ed565b6040516102329190611791565b60405180910390f35b34801561024757600080fd5b50610262600480360381019061025d9190611894565b610913565b60405161026f91906118da565b60405180910390f35b34801561028457600080fd5b5061028d610930565b60405161029a9190611791565b60405180910390f35b3480156102af57600080fd5b506102b8610959565b6040516102c59190611791565b60405180910390f35b3480156102da57600080fd5b506102f560048036038101906102f09190611921565b61097f565b6040516103029190611a20565b60405180910390f35b34801561031757600080fd5b50610332600480360381019061032d9190611a3b565b610ac1565b005b34801561034057600080fd5b50610349610b92565b6040516103569190611a8a565b60405180910390f35b34801561036b57600080fd5b50610386600480360381019061038191906117ac565b610b98565b005b34801561039457600080fd5b506103af60048036038101906103aa9190611894565b610c8f565b005b600063150b7a0260e01b905095945050505050565b6000600360009054906101000a900473ffffffffffffffffffffffffffffffffffffffff1673ffffffffffffffffffffffffffffffffffffffff166321d80111846040518263ffffffff1660e01b81526004016104239190611a8a565b61088060405180830381865afa158015610441573d6000803e3d6000fd5b505050506040513d601f19601f8201168201806040525081019061046591906122c1565b9050600060026000848152602001908152602001600020549050600061048c853385610d15565b9050600061049861083a565b9050600073ffffffffffffffffffffffffffffffffffffffff16846060015160a0015173ffffffffffffffffffffffffffffffffffffffff1614610511576040517f08c379a00000000000000000000000000000000000000000000000000000000081526004016105089061234c565b60405180910390fd5b600460009054906101000a900473ffffffffffffffffffffffffffffffffffffffff1673ffffffffffffffffffffffffffffffffffffffff166337e246ad876040518263ffffffff1660e01b815260040161056c9190611a8a565b6020604051808303816000875af115801561058b573d6000803e3d6000fd5b505050506040513d601f19601f820116820180604052508101906105af919061236c565b156105ef576040517f08c379a00000000000000000000000000000000000000000000000000000000081526004016105e6906123e5565b60405180910390fd5b600360009054906101000a900473ffffffffffffffffffffffffffffffffffffffff1673ffffffffffffffffffffffffffffffffffffffff166342842e0e3330896040518463ffffffff1660e01b815260040161064e93929190612405565b600060405180830381600087803b15801561066857600080fd5b505af115801561067c573d6000803e3d6000fd5b5050505061068c83868484610d76565b505050505050565b600360009054906101000a900473ffffffffffffffffffffffffffffffffffffffff1681565b6106c2610e57565b73ffffffffffffffffffffffffffffffffffffffff166106e0610930565b73ffffffffffffffffffffffffffffffffffffffff1614610736576040517f08c379a000000000000000000000000000000000000000000000000000000000815260040161072d90612488565b60405180910390fd5b80600160006101000a81548173ffffffffffffffffffffffffffffffffffffffff021916908373ffffffffffffffffffffffffffffffffffffffff16021790555050565b610782610e57565b73ffffffffffffffffffffffffffffffffffffffff166107a0610930565b73ffffffffffffffffffffffffffffffffffffffff16146107f6576040517f08c379a00000000000000000000000000000000000000000000000000000000081526004016107ed90612488565b60405180910390fd5b80600460006101000a81548173ffffffffffffffffffffffffffffffffffffffff021916908373ffffffffffffffffffffffffffffffffffffffff16021790555050565b606060016005546040516020016108529291906124ff565b6040516020818303038152906040525090565b61086d610e57565b73ffffffffffffffffffffffffffffffffffffffff1661088b610930565b73ffffffffffffffffffffffffffffffffffffffff16146108e1576040517f08c379a00000000000000000000000000000000000000000000000000000000081526004016108d890612488565b60405180910390fd5b6108eb6000610e5f565b565b600460009054906101000a900473ffffffffffffffffffffffffffffffffffffffff1681565b600060026000838152602001908152602001600020549050919050565b60008060009054906101000a900473ffffffffffffffffffffffffffffffffffffffff16905090565b600160009054906101000a900473ffffffffffffffffffffffffffffffffffffffff1681565b6000600160009054906101000a900473ffffffffffffffffffffffffffffffffffffffff1673ffffffffffffffffffffffffffffffffffffffff163373ffffffffffffffffffffffffffffffffffffffff1614610a11576040517f08c379a0000000000000000000000000000000000000000000000000000000008152600401610a0890612577565b60405180910390fd5b60026000868152602001908152602001600020548614610a66576040517f08c379a0000000000000000000000000000000000000000000000000000000008152600401610a5d906125e3565b60405180910390fd5b610ab6868686868080601f016020809104026020016040519081016040528093929190818152602001838380828437600081840152601f19601f8201169050808301925050505050505085610f23565b905095945050505050565b610ac9610e57565b73ffffffffffffffffffffffffffffffffffffffff16610ae7610930565b73ffffffffffffffffffffffffffffffffffffffff1614610b3d576040517f08c379a0000000000000000000000000000000000000000000000000000000008152600401610b3490612488565b60405180910390fd5b8060026000848152602001908152602001600020819055507f642e74356c0610a9f944fb1a2d88d2fb82c6b74921566eee8bc0f9bb30f74f038282604051610b86929190612603565b60405180910390a15050565b60055481565b610ba0610e57565b73ffffffffffffffffffffffffffffffffffffffff16610bbe610930565b73ffffffffffffffffffffffffffffffffffffffff1614610c14576040517f08c379a0000000000000000000000000000000000000000000000000000000008152600401610c0b90612488565b60405180910390fd5b600073ffffffffffffffffffffffffffffffffffffffff168173ffffffffffffffffffffffffffffffffffffffff1603610c83576040517f08c379a0000000000000000000000000000000000000000000000000000000008152600401610c7a9061269e565b60405180910390fd5b610c8c81610e5f565b50565b610c97610e57565b73ffffffffffffffffffffffffffffffffffffffff16610cb5610930565b73ffffffffffffffffffffffffffffffffffffffff1614610d0b576040517f08c379a0000000000000000000000000000000000000000000000000000000008152600401610d0290612488565b60405180910390fd5b8060058190555050565b6060600060405180606001604052808481526020018573ffffffffffffffffffffffffffffffffffffffff16815260200186815250905080604051602001610d5d9190612ce2565b6040516020818303038152906040529150509392505050565b6000801b600260008781526020019081526020016000205403610d9857600080fd5b85600260008781526020019081526020016000205414610db757600080fd5b600160009054906101000a900473ffffffffffffffffffffffffffffffffffffffff1673ffffffffffffffffffffffffffffffffffffffff1663ac8a4c1b348888888888886040518863ffffffff1660e01b8152600401610e1d96959493929190612d3a565b6000604051808303818588803b158015610e3657600080fd5b505af1158015610e4a573d6000803e3d6000fd5b5050505050505050505050565b600033905090565b60008060009054906101000a900473ffffffffffffffffffffffffffffffffffffffff169050816000806101000a81548173ffffffffffffffffffffffffffffffffffffffff021916908373ffffffffffffffffffffffffffffffffffffffff1602179055508173ffffffffffffffffffffffffffffffffffffffff168173ffffffffffffffffffffffffffffffffffffffff167f8be0079c531659141344cd1fd0a4f28419497f9722a3daafe3b4186f6b6457e060405160405180910390a35050565b600080610f2f846111dd565b9050600081600001519050600082602001519050600083604001519050600360009054906101000a900473ffffffffffffffffffffffffffffffffffffffff1673ffffffffffffffffffffffffffffffffffffffff16636352211e826040518263ffffffff1660e01b8152600401610fa79190611a8a565b602060405180830381865afa925050508015610fe157506040513d601f19601f82011682018060405250810190610fde9190612d91565b60015b61107957600360009054906101000a900473ffffffffffffffffffffffffffffffffffffffff1673ffffffffffffffffffffffffffffffffffffffff1663b6855d6884846040518363ffffffff1660e01b8152600401611042929190612e65565b600060405180830381600087803b15801561105c57600080fd5b505af1158015611070573d6000803e3d6000fd5b50505050611140565b3073ffffffffffffffffffffffffffffffffffffffff168173ffffffffffffffffffffffffffffffffffffffff160361113e57600360009054906101000a900473ffffffffffffffffffffffffffffffffffffffff1673ffffffffffffffffffffffffffffffffffffffff166342842e0e3085856040518463ffffffff1660e01b815260040161110b93929190612405565b600060405180830381600087803b15801561112557600080fd5b505af1158015611139573d6000803e3d6000fd5b505050505b505b600360009054906101000a900473ffffffffffffffffffffffffffffffffffffffff1673ffffffffffffffffffffffffffffffffffffffff1663b0064103846040518263ffffffff1660e01b815260040161119b9190612e90565b600060405180830381600087803b1580156111b557600080fd5b505af11580156111c9573d6000803e3d6000fd5b505050506000945050505050949350505050565b6111e5611206565b6000828060200190518101906111fb9190612f13565b905080915050919050565b6040518060600160405280611219611243565b8152602001600073ffffffffffffffffffffffffffffffffffffffff168152602001600081525090565b6040518061010001604052806000815260200161125e6112b2565b815260200161126b6112f4565b8152602001611278611374565b81526020016112856113f2565b8152602001611292611478565b815260200161129f611478565b81526020016112ac61151f565b81525090565b6040518060c0016040528060008152602001600081526020016000815260200160008152602001600063ffffffff168152602001600063ffffffff1681525090565b604051806101400160405280600081526020016000815260200160006004811115611322576113216119a9565b5b8152602001600015158152602001600061ffff168152602001600063ffffffff168152602001600063ffffffff168152602001600060ff168152602001600060ff168152602001600060ff1681525090565b604051806101000160405280600081526020016000815260200160008152602001600061ffff168152602001600067ffffffffffffffff168152602001600073ffffffffffffffffffffffffffffffffffffffff168152602001600060ff168152602001600060018111156113ec576113eb6119a9565b5b81525090565b604051806101600160405280600061ffff168152602001600061ffff168152602001600061ffff168152602001600061ffff168152602001600061ffff168152602001600061ffff168152602001600061ffff168152602001600061ffff168152602001600061ffff168152602001600061ffff168152602001600061ffff1681525090565b604051806101c00160405280600061ffff168152602001600061ffff168152602001600061ffff168152602001600061ffff168152602001600061ffff168152602001600061ffff168152602001600061ffff168152602001600061ffff168152602001600061ffff168152602001600061ffff168152602001600061ffff168152602001600061ffff168152602001600061ffff168152602001600061ffff1681525090565b6040518060800160405280600061ffff168152602001600061ffff168152602001600061ffff168152602001600061ffff1681525090565b6000604051905090565b600080fd5b600080fd5b600073ffffffffffffffffffffffffffffffffffffffff82169050919050565b60006115968261156b565b9050919050565b6115a68161158b565b81146115b157600080fd5b50565b6000813590506115c38161159d565b92915050565b6000819050919050565b6115dc816115c9565b81146115e757600080fd5b50565b6000813590506115f9816115d3565b92915050565b600080fd5b600080fd5b600080fd5b60008083601f840112611624576116236115ff565b5b8235905067ffffffffffffffff81111561164157611640611604565b5b60208301915083600182028301111561165d5761165c611609565b5b9250929050565b6000806000806000608086880312156116805761167f611561565b5b600061168e888289016115b4565b955050602061169f888289016115b4565b94505060406116b0888289016115ea565b935050606086013567ffffffffffffffff8111156116d1576116d0611566565b5b6116dd8882890161160e565b92509250509295509295909350565b60007fffffffff0000000000000000000000000000000000000000000000000000000082169050919050565b611721816116ec565b82525050565b600060208201905061173c6000830184611718565b92915050565b6000806040838503121561175957611758611561565b5b6000611767858286016115ea565b9250506020611778858286016115ea565b9150509250929050565b61178b8161158b565b82525050565b60006020820190506117a66000830184611782565b92915050565b6000602082840312156117c2576117c1611561565b5b60006117d0848285016115b4565b91505092915050565b600081519050919050565b600082825260208201905092915050565b60005b838110156118135780820151818401526020810190506117f8565b83811115611822576000848401525b50505050565b6000601f19601f8301169050919050565b6000611844826117d9565b61184e81856117e4565b935061185e8185602086016117f5565b61186781611828565b840191505092915050565b6000602082019050818103600083015261188c8184611839565b905092915050565b6000602082840312156118aa576118a9611561565b5b60006118b8848285016115ea565b91505092915050565b6000819050919050565b6118d4816118c1565b82525050565b60006020820190506118ef60008301846118cb565b92915050565b6118fe816118c1565b811461190957600080fd5b50565b60008135905061191b816118f5565b92915050565b60008060008060006080868803121561193d5761193c611561565b5b600061194b8882890161190c565b955050602061195c888289016115ea565b945050604086013567ffffffffffffffff81111561197d5761197c611566565b5b6119898882890161160e565b9350935050606061199c888289016115b4565b9150509295509295909350565b7f4e487b7100000000000000000000000000000000000000000000000000000000600052602160045260246000fd5b600281106119e9576119e86119a9565b5b50565b60008190506119fa826119d8565b919050565b6000611a0a826119ec565b9050919050565b611a1a816119ff565b82525050565b6000602082019050611a356000830184611a11565b92915050565b60008060408385031215611a5257611a51611561565b5b6000611a60858286016115ea565b9250506020611a718582860161190c565b9150509250929050565b611a84816115c9565b82525050565b6000602082019050611a9f6000830184611a7b565b92915050565b600080fd5b7f4e487b7100000000000000000000000000000000000000000000000000000000600052604160045260246000fd5b611ae282611828565b810181811067ffffffffffffffff82111715611b0157611b00611aaa565b5b80604052505050565b6000611b14611557565b9050611b208282611ad9565b919050565b600081519050611b34816115d3565b92915050565b600063ffffffff82169050919050565b611b5381611b3a565b8114611b5e57600080fd5b50565b600081519050611b7081611b4a565b92915050565b600060c08284031215611b8c57611b8b611aa5565b5b611b9660c0611b0a565b90506000611ba684828501611b25565b6000830152506020611bba84828501611b25565b6020830152506040611bce84828501611b25565b6040830152506060611be284828501611b25565b6060830152506080611bf684828501611b61565b60808301525060a0611c0a84828501611b61565b60a08301525092915050565b60058110611c2357600080fd5b50565b600081519050611c3581611c16565b92915050565b60008115159050919050565b611c5081611c3b565b8114611c5b57600080fd5b50565b600081519050611c6d81611c47565b92915050565b600061ffff82169050919050565b611c8a81611c73565b8114611c9557600080fd5b50565b600081519050611ca781611c81565b92915050565b600060ff82169050919050565b611cc381611cad565b8114611cce57600080fd5b50565b600081519050611ce081611cba565b92915050565b60006101408284031215611cfd57611cfc611aa5565b5b611d08610140611b0a565b90506000611d1884828501611b25565b6000830152506020611d2c84828501611b25565b6020830152506040611d4084828501611c26565b6040830152506060611d5484828501611c5e565b6060830152506080611d6884828501611c98565b60808301525060a0611d7c84828501611b61565b60a08301525060c0611d9084828501611b61565b60c08301525060e0611da484828501611cd1565b60e083015250610100611db984828501611cd1565b61010083015250610120611dcf84828501611cd1565b6101208301525092915050565b600067ffffffffffffffff82169050919050565b611df981611ddc565b8114611e0457600080fd5b50565b600081519050611e1681611df0565b92915050565b600081519050611e2b8161159d565b92915050565b60028110611e3e57600080fd5b50565b600081519050611e5081611e31565b92915050565b60006101008284031215611e6d57611e6c611aa5565b5b611e78610100611b0a565b90506000611e8884828501611b25565b6000830152506020611e9c84828501611b25565b6020830152506040611eb084828501611b25565b6040830152506060611ec484828501611c98565b6060830152506080611ed884828501611e07565b60808301525060a0611eec84828501611e1c565b60a08301525060c0611f0084828501611cd1565b60c08301525060e0611f1484828501611e41565b60e08301525092915050565b60006101608284031215611f3757611f36611aa5565b5b611f42610160611b0a565b90506000611f5284828501611c98565b6000830152506020611f6684828501611c98565b6020830152506040611f7a84828501611c98565b6040830152506060611f8e84828501611c98565b6060830152506080611fa284828501611c98565b60808301525060a0611fb684828501611c98565b60a08301525060c0611fca84828501611c98565b60c08301525060e0611fde84828501611c98565b60e083015250610100611ff384828501611c98565b6101008301525061012061200984828501611c98565b6101208301525061014061201f84828501611c98565b6101408301525092915050565b60006101c0828403121561204357612042611aa5565b5b61204e6101c0611b0a565b9050600061205e84828501611c98565b600083015250602061207284828501611c98565b602083015250604061208684828501611c98565b604083015250606061209a84828501611c98565b60608301525060806120ae84828501611c98565b60808301525060a06120c284828501611c98565b60a08301525060c06120d684828501611c98565b60c08301525060e06120ea84828501611c98565b60e0830152506101006120ff84828501611c98565b6101008301525061012061211584828501611c98565b6101208301525061014061212b84828501611c98565b6101408301525061016061214184828501611c98565b6101608301525061018061215784828501611c98565b610180830152506101a061216d84828501611c98565b6101a08301525092915050565b6000608082840312156121905761218f611aa5565b5b61219a6080611b0a565b905060006121aa84828501611c98565b60008301525060206121be84828501611c98565b60208301525060406121d284828501611c98565b60408301525060606121e684828501611c98565b60608301525092915050565b6000610880828403121561220957612208611aa5565b5b612214610100611b0a565b9050600061222484828501611b25565b600083015250602061223884828501611b76565b60208301525060e061224c84828501611ce6565b60408301525061022061226184828501611e56565b60608301525061032061227684828501611f20565b60808301525061048061228b8482850161202c565b60a0830152506106406122a08482850161202c565b60c0830152506108006122b58482850161217a565b60e08301525092915050565b600061088082840312156122d8576122d7611561565b5b60006122e6848285016121f2565b91505092915050565b600082825260208201905092915050565b7f6865726f206973207175657374696e6700000000000000000000000000000000600082015250565b60006123366010836122ef565b915061234182612300565b602082019050919050565b6000602082019050818103600083015261236581612329565b9050919050565b60006020828403121561238257612381611561565b5b600061239084828501611c5e565b91505092915050565b7f617373697374696e672061756374696f6e000000000000000000000000000000600082015250565b60006123cf6011836122ef565b91506123da82612399565b602082019050919050565b600060208201905081810360008301526123fe816123c2565b9050919050565b600060608201905061241a6000830186611782565b6124276020830185611782565b6124346040830184611a7b565b949350505050565b7f4f776e61626c653a2063616c6c6572206973206e6f7420746865206f776e6572600082015250565b60006124726020836122ef565b915061247d8261243c565b602082019050919050565b600060208201905081810360008301526124a181612465565b9050919050565b60008160f01b9050919050565b60006124c0826124a8565b9050919050565b6124d86124d382611c73565b6124b5565b82525050565b6000819050919050565b6124f96124f4826115c9565b6124de565b82525050565b600061250b82856124c7565b60028201915061251b82846124e8565b6020820191508190509392505050565b7f63616c6c6572206973206e6f74206d6573736167652062757300000000000000600082015250565b60006125616019836122ef565b915061256c8261252b565b602082019050919050565b6000602082019050818103600083015261259081612554565b9050919050565b7f496e76616c696420736f757263652073656e64696e6720617070000000000000600082015250565b60006125cd601a836122ef565b91506125d882612597565b602082019050919050565b600060208201905081810360008301526125fc816125c0565b9050919050565b60006040820190506126186000830185611a7b565b61262560208301846118cb565b9392505050565b7f4f776e61626c653a206e6577206f776e657220697320746865207a65726f206160008201527f6464726573730000000000000000000000000000000000000000000000000000602082015250565b60006126886026836122ef565b91506126938261262c565b604082019050919050565b600060208201905081810360008301526126b78161267b565b9050919050565b6126c7816115c9565b82525050565b6126d681611b3a565b82525050565b60c0820160008201516126f260008501826126be565b50602082015161270560208501826126be565b50604082015161271860408501826126be565b50606082015161272b60608501826126be565b50608082015161273e60808501826126cd565b5060a082015161275160a08501826126cd565b50505050565b60058110612768576127676119a9565b5b50565b600081905061277982612757565b919050565b60006127898261276b565b9050919050565b6127998161277e565b82525050565b6127a881611c3b565b82525050565b6127b781611c73565b82525050565b6127c681611cad565b82525050565b610140820160008201516127e360008501826126be565b5060208201516127f660208501826126be565b5060408201516128096040850182612790565b50606082015161281c606085018261279f565b50608082015161282f60808501826127ae565b5060a082015161284260a08501826126cd565b5060c082015161285560c08501826126cd565b5060e082015161286860e08501826127bd565b5061010082015161287d6101008501826127bd565b506101208201516128926101208501826127bd565b50505050565b6128a181611ddc565b82525050565b6128b08161158b565b82525050565b600281106128c7576128c66119a9565b5b50565b60008190506128d8826128b6565b919050565b60006128e8826128ca565b9050919050565b6128f8816128dd565b82525050565b6101008201600082015161291560008501826126be565b50602082015161292860208501826126be565b50604082015161293b60408501826126be565b50606082015161294e60608501826127ae565b5060808201516129616080850182612898565b5060a082015161297460a08501826128a7565b5060c082015161298760c08501826127bd565b5060e082015161299a60e08501826128ef565b50505050565b610160820160008201516129b760008501826127ae565b5060208201516129ca60208501826127ae565b5060408201516129dd60408501826127ae565b5060608201516129f060608501826127ae565b506080820151612a0360808501826127ae565b5060a0820151612a1660a08501826127ae565b5060c0820151612a2960c08501826127ae565b5060e0820151612a3c60e08501826127ae565b50610100820151612a516101008501826127ae565b50610120820151612a666101208501826127ae565b50610140820151612a7b6101408501826127ae565b50505050565b6101c082016000820151612a9860008501826127ae565b506020820151612aab60208501826127ae565b506040820151612abe60408501826127ae565b506060820151612ad160608501826127ae565b506080820151612ae460808501826127ae565b5060a0820151612af760a08501826127ae565b5060c0820151612b0a60c08501826127ae565b5060e0820151612b1d60e08501826127ae565b50610100820151612b326101008501826127ae565b50610120820151612b476101208501826127ae565b50610140820151612b5c6101408501826127ae565b50610160820151612b716101608501826127ae565b50610180820151612b866101808501826127ae565b506101a0820151612b9b6101a08501826127ae565b50505050565b608082016000820151612bb760008501826127ae565b506020820151612bca60208501826127ae565b506040820151612bdd60408501826127ae565b506060820151612bf060608501826127ae565b50505050565b61088082016000820151612c0d60008501826126be565b506020820151612c2060208501826126dc565b506040820151612c3360e08501826127cc565b506060820151612c476102208501826128fe565b506080820151612c5b6103208501826129a0565b5060a0820151612c6f610480850182612a81565b5060c0820151612c83610640850182612a81565b5060e0820151612c97610800850182612ba1565b50505050565b6108c082016000820151612cb46000850182612bf6565b506020820151612cc86108808501826128a7565b506040820151612cdc6108a08501826126be565b50505050565b60006108c082019050612cf86000830184612c9d565b92915050565b82818337600083830152505050565b6000612d1983856117e4565b9350612d26838584612cfe565b612d2f83611828565b840190509392505050565b6000608082019050612d4f60008301896118cb565b612d5c6020830188611a7b565b8181036040830152612d6f818688612d0d565b90508181036060830152612d84818486612d0d565b9050979650505050505050565b600060208284031215612da757612da6611561565b5b6000612db584828501611e1c565b91505092915050565b61088082016000820151612dd560008501826126be565b506020820151612de860208501826126dc565b506040820151612dfb60e08501826127cc565b506060820151612e0f6102208501826128fe565b506080820151612e236103208501826129a0565b5060a0820151612e37610480850182612a81565b5060c0820151612e4b610640850182612a81565b5060e0820151612e5f610800850182612ba1565b50505050565b60006108a082019050612e7b6000830185612dbe565b612e89610880830184611782565b9392505050565b600061088082019050612ea66000830184612dbe565b92915050565b60006108c08284031215612ec357612ec2611aa5565b5b612ecd6060611b0a565b90506000612edd848285016121f2565b600083015250610880612ef284828501611e1c565b6020830152506108a0612f0784828501611b25565b60408301525092915050565b60006108c08284031215612f2a57612f29611561565b5b6000612f3884828501612eac565b9150509291505056fea264697066735822122064bf91ccfd156aebc538bb788387cc23a93ea8e3f9a1173a3c015fd9069a928664736f6c634300080d0033",
  "devdoc": {
    "kind": "dev",
    "methods": {
      "executeMessage(bytes32,uint256,bytes,address)": {
        "details": "Must be called by MessageBug & sent from src chain by a trusted srcApp",
        "params": {
          "_executor": "Address who called the MessageBus execution function",
          "_message": "Arbitrary message bytes originated from and encoded by the source app contract",
          "_srcAddress": "The bytes32 address of the source app contract",
          "_srcChainId": "The source chain ID where the transfer is originated from"
        },
        "returns": {
          "_0": "status Enum containing options of Success, Fail, Retry"
        }
      },
      "onERC721Received(address,address,uint256,bytes)": {
        "details": "Whenever an {IERC721} `tokenId` token is transferred to this contract via {IERC721-safeTransferFrom} by `operator` from `from`, this function is called. It must return its Solidity selector to confirm the token transfer. If any other value is returned or the interface is not implemented by the recipient, the transfer will be reverted. The selector can be obtained in Solidity with `onERC721Received.selector`."
      },
      "owner()": {
        "details": "Returns the address of the current owner."
      },
      "renounceOwnership()": {
        "details": "Leaves the contract without owner. It will not be possible to call `onlyOwner` functions anymore. Can only be called by the current owner. NOTE: Renouncing ownership will leave the contract without an owner, thereby removing any functionality that is only available to the owner."
      },
      "sendHero(uint256,uint256)": {
        "params": {
          "_dstChainId": "The destination chain ID - typically, standard EVM chain ID, but differs on nonEVM chains",
          "_heroId": "specifics which hero msg.sender already holds and will transfer to the bridge contract"
        }
      },
      "transferOwnership(address)": {
        "details": "Transfers ownership of the contract to a new account (`newOwner`). Can only be called by the current owner."
      }
    },
    "title": "Core app for handling cross chain messaging passing to bridge Hero NFTs",
    "version": 1
  },
  "userdoc": {
    "kind": "user",
    "methods": {
      "executeMessage(bytes32,uint256,bytes,address)": {
        "notice": "Executes a message called by MessageBus (MessageBusReceiver)"
      },
      "sendHero(uint256,uint256)": {
        "notice": "User must have an existing hero minted to bridge it."
      }
    },
    "version": 1
  },
  "storageLayout": {
    "storage": [
      {
        "astId": 7,
        "contract": "contracts/messaging/dfk/bridge/HeroBridge.sol:HeroBridge",
        "label": "_owner",
        "offset": 0,
        "slot": "0",
        "type": "t_address"
      },
      {
        "astId": 1931,
        "contract": "contracts/messaging/dfk/bridge/HeroBridge.sol:HeroBridge",
        "label": "messageBus",
        "offset": 0,
        "slot": "1",
        "type": "t_address"
      },
      {
        "astId": 1935,
        "contract": "contracts/messaging/dfk/bridge/HeroBridge.sol:HeroBridge",
        "label": "trustedRemoteLookup",
        "offset": 0,
        "slot": "2",
        "type": "t_mapping(t_uint256,t_bytes32)"
      },
      {
        "astId": 1381,
        "contract": "contracts/messaging/dfk/bridge/HeroBridge.sol:HeroBridge",
        "label": "heroes",
        "offset": 0,
        "slot": "3",
        "type": "t_address"
      },
      {
        "astId": 1383,
        "contract": "contracts/messaging/dfk/bridge/HeroBridge.sol:HeroBridge",
        "label": "assistingAuction",
        "offset": 0,
        "slot": "4",
        "type": "t_address"
      },
      {
        "astId": 1385,
        "contract": "contracts/messaging/dfk/bridge/HeroBridge.sol:HeroBridge",
        "label": "msgGasLimit",
        "offset": 0,
        "slot": "5",
        "type": "t_uint256"
      }
    ],
    "types": {
      "t_address": {
        "encoding": "inplace",
        "label": "address",
        "numberOfBytes": "20"
      },
      "t_bytes32": {
        "encoding": "inplace",
        "label": "bytes32",
        "numberOfBytes": "32"
      },
      "t_mapping(t_uint256,t_bytes32)": {
        "encoding": "mapping",
        "key": "t_uint256",
        "label": "mapping(uint256 => bytes32)",
        "numberOfBytes": "32",
        "value": "t_bytes32"
      },
      "t_uint256": {
        "encoding": "inplace",
        "label": "uint256",
        "numberOfBytes": "32"
      }
    }
  }
}