{
  "address": "0x8745773CC6e70577819BB76f51FA7640cece505F",
  "abi": [
    {
      "inputs": [
        {
          "internalType": "address",
          "name": "_gasFeePricing",
          "type": "address"
        },
        {
          "internalType": "address",
          "name": "_authVerifier",
          "type": "address"
        }
      ],
      "stateMutability": "nonpayable",
      "type": "constructor"
    },
    {
      "anonymous": false,
      "inputs": [
        {
          "indexed": false,
          "internalType": "string",
          "name": "reason",
          "type": "string"
        }
      ],
      "name": "CallReverted",
      "type": "event"
    },
    {
      "anonymous": false,
      "inputs": [
        {
          "indexed": false,
          "internalType": "bytes32",
          "name": "msgId",
          "type": "bytes32"
        },
        {
          "indexed": false,
          "internalType": "enum MessageBusReceiver.TxStatus",
          "name": "status",
          "type": "uint8"
        },
        {
          "indexed": true,
          "internalType": "address",
          "name": "_dstAddress",
          "type": "address"
        },
        {
          "indexed": false,
          "internalType": "uint64",
          "name": "srcChainId",
          "type": "uint64"
        },
        {
          "indexed": false,
          "internalType": "uint64",
          "name": "srcNonce",
          "type": "uint64"
        }
      ],
      "name": "Executed",
      "type": "event"
    },
    {
      "anonymous": false,
      "inputs": [
        {
          "indexed": true,
          "internalType": "address",
          "name": "sender",
          "type": "address"
        },
        {
          "indexed": false,
          "internalType": "uint256",
          "name": "srcChainID",
          "type": "uint256"
        },
        {
          "indexed": false,
          "internalType": "bytes32",
          "name": "receiver",
          "type": "bytes32"
        },
        {
          "indexed": true,
          "internalType": "uint256",
          "name": "dstChainId",
          "type": "uint256"
        },
        {
          "indexed": false,
          "internalType": "bytes",
          "name": "message",
          "type": "bytes"
        },
        {
          "indexed": true,
          "internalType": "uint64",
          "name": "nonce",
          "type": "uint64"
        },
        {
          "indexed": false,
          "internalType": "bytes",
          "name": "options",
          "type": "bytes"
        },
        {
          "indexed": false,
          "internalType": "uint256",
          "name": "fee",
          "type": "uint256"
        }
      ],
      "name": "MessageSent",
      "type": "event"
    },
    {
      "anonymous": false,
      "inputs": [
        {
          "indexed": true,
          "internalType": "bytes32",
          "name": "msgId",
          "type": "bytes32"
        },
        {
          "indexed": false,
          "internalType": "uint64",
          "name": "srcChainId",
          "type": "uint64"
        },
        {
          "indexed": false,
          "internalType": "uint64",
          "name": "srcNonce",
          "type": "uint64"
        }
      ],
      "name": "NeedRetry",
      "type": "event"
    },
    {
      "anonymous": false,
      "inputs": [
        {
          "indexed": true,
          "internalType": "address",
          "name": "previousOwner",
          "type": "address"
        },
        {
          "indexed": true,
          "internalType": "address",
          "name": "newOwner",
          "type": "address"
        }
      ],
      "name": "OwnershipTransferred",
      "type": "event"
    },
    {
      "inputs": [],
      "name": "authVerifier",
      "outputs": [
        {
          "internalType": "address",
          "name": "",
          "type": "address"
        }
      ],
      "stateMutability": "view",
      "type": "function"
    },
    {
      "inputs": [
        {
          "internalType": "uint256",
          "name": "_srcChainId",
          "type": "uint256"
        },
        {
          "internalType": "bytes32",
          "name": "_srcAddress",
          "type": "bytes32"
        },
        {
          "internalType": "address",
          "name": "_dstAddress",
          "type": "address"
        },
        {
          "internalType": "uint256",
          "name": "_nonce",
          "type": "uint256"
        },
        {
          "internalType": "bytes",
          "name": "_message",
          "type": "bytes"
        }
      ],
      "name": "computeMessageId",
      "outputs": [
        {
          "internalType": "bytes32",
          "name": "",
          "type": "bytes32"
        }
      ],
      "stateMutability": "view",
      "type": "function"
    },
    {
      "inputs": [
        {
          "internalType": "uint256",
          "name": "_dstChainId",
          "type": "uint256"
        },
        {
          "internalType": "bytes",
          "name": "_options",
          "type": "bytes"
        }
      ],
      "name": "estimateFee",
      "outputs": [
        {
          "internalType": "uint256",
          "name": "",
          "type": "uint256"
        }
      ],
      "stateMutability": "nonpayable",
      "type": "function"
    },
    {
      "inputs": [
        {
          "internalType": "uint256",
          "name": "_srcChainId",
          "type": "uint256"
        },
        {
          "internalType": "bytes32",
          "name": "_srcAddress",
          "type": "bytes32"
        },
        {
          "internalType": "address",
          "name": "_dstAddress",
          "type": "address"
        },
        {
          "internalType": "uint256",
          "name": "_gasLimit",
          "type": "uint256"
        },
        {
          "internalType": "uint256",
          "name": "_nonce",
          "type": "uint256"
        },
        {
          "internalType": "bytes",
          "name": "_message",
          "type": "bytes"
        },
        {
          "internalType": "bytes32",
          "name": "_messageId",
          "type": "bytes32"
        }
      ],
      "name": "executeMessage",
      "outputs": [],
      "stateMutability": "nonpayable",
      "type": "function"
    },
    {
      "inputs": [],
      "name": "gasFeePricing",
      "outputs": [
        {
          "internalType": "address",
          "name": "",
          "type": "address"
        }
      ],
      "stateMutability": "view",
      "type": "function"
    },
    {
      "inputs": [
        {
          "internalType": "bytes32",
          "name": "_messageId",
          "type": "bytes32"
        }
      ],
      "name": "getExecutedMessage",
      "outputs": [
        {
          "internalType": "enum MessageBusReceiver.TxStatus",
          "name": "",
          "type": "uint8"
        }
      ],
      "stateMutability": "view",
      "type": "function"
    },
    {
      "inputs": [],
      "name": "nonce",
      "outputs": [
        {
          "internalType": "uint64",
          "name": "",
          "type": "uint64"
        }
      ],
      "stateMutability": "view",
      "type": "function"
    },
    {
      "inputs": [],
      "name": "owner",
      "outputs": [
        {
          "internalType": "address",
          "name": "",
          "type": "address"
        }
      ],
      "stateMutability": "view",
      "type": "function"
    },
    {
      "inputs": [],
      "name": "renounceOwnership",
      "outputs": [],
      "stateMutability": "nonpayable",
      "type": "function"
    },
    {
      "inputs": [
        {
          "internalType": "bytes32",
          "name": "_receiver",
          "type": "bytes32"
        },
        {
          "internalType": "uint256",
          "name": "_dstChainId",
          "type": "uint256"
        },
        {
          "internalType": "bytes",
          "name": "_message",
          "type": "bytes"
        },
        {
          "internalType": "bytes",
          "name": "_options",
          "type": "bytes"
        }
      ],
      "name": "sendMessage",
      "outputs": [],
      "stateMutability": "payable",
      "type": "function"
    },
    {
      "inputs": [
        {
          "internalType": "address",
          "name": "newOwner",
          "type": "address"
        }
      ],
      "name": "transferOwnership",
      "outputs": [],
      "stateMutability": "nonpayable",
      "type": "function"
    },
    {
      "inputs": [
        {
          "internalType": "address",
          "name": "_authVerifier",
          "type": "address"
        }
      ],
      "name": "updateAuthVerifier",
      "outputs": [],
      "stateMutability": "nonpayable",
      "type": "function"
    },
    {
      "inputs": [
        {
          "internalType": "bytes32",
          "name": "_messageId",
          "type": "bytes32"
        },
        {
          "internalType": "enum MessageBusReceiver.TxStatus",
          "name": "_status",
          "type": "uint8"
        }
      ],
      "name": "updateMessageStatus",
      "outputs": [],
      "stateMutability": "nonpayable",
      "type": "function"
    },
    {
      "inputs": [
        {
          "internalType": "address payable",
          "name": "to",
          "type": "address"
        }
      ],
      "name": "withdrawGasFees",
      "outputs": [],
      "stateMutability": "nonpayable",
      "type": "function"
    }
  ],
  "transactionHash": "0xf096afd948077d893af54df5cb8ec6765cfe1e46ab5c70ed867e480eef472583",
  "args": [
    "0x003107B3aeee133804eaBE7D1df200DdFbb51dCE",
    "0x266557A864680A1401A3506c0eb72934BD13Bf59"
  ],
  "solcInputHash": "2c99480c4b27fa6f3dfbf2224f6bc524",
  "bytecode": "0x60806040523480156200001157600080fd5b50604051620023a2380380620023a283398181016040528101906200003791906200021b565b8082620000596200004d620000e560201b60201c565b620000ed60201b60201c565b80600160006101000a81548173ffffffffffffffffffffffffffffffffffffffff021916908373ffffffffffffffffffffffffffffffffffffffff1602179055505080600360006101000a81548173ffffffffffffffffffffffffffffffffffffffff021916908373ffffffffffffffffffffffffffffffffffffffff16021790555050505062000262565b600033905090565b60008060009054906101000a900473ffffffffffffffffffffffffffffffffffffffff169050816000806101000a81548173ffffffffffffffffffffffffffffffffffffffff021916908373ffffffffffffffffffffffffffffffffffffffff1602179055508173ffffffffffffffffffffffffffffffffffffffff168173ffffffffffffffffffffffffffffffffffffffff167f8be0079c531659141344cd1fd0a4f28419497f9722a3daafe3b4186f6b6457e060405160405180910390a35050565b600080fd5b600073ffffffffffffffffffffffffffffffffffffffff82169050919050565b6000620001e382620001b6565b9050919050565b620001f581620001d6565b81146200020157600080fd5b50565b6000815190506200021581620001ea565b92915050565b60008060408385031215620002355762000234620001b1565b5b6000620002458582860162000204565b9250506020620002588582860162000204565b9150509250929050565b61213080620002726000396000f3fe6080604052600436106100dd5760003560e01c8063aa70fc0e1161007f578063c408733511610059578063c40873351461028b578063d6417b82146102b6578063d6b457b9146102f3578063f2fde38b1461031c576100dd565b8063aa70fc0e14610219578063ac8a4c1b14610244578063affed0e014610260576100dd565b80638da5cb5b116100bb5780638da5cb5b146101735780639b11079c1461019e578063a1b058d8146101c7578063a5c0edf3146101f0576100dd565b806325b19fa3146100e25780635da6d2c41461011f578063715018a61461015c575b600080fd5b3480156100ee57600080fd5b50610109600480360381019061010491906110ab565b610345565b604051610116919061114f565b60405180910390f35b34801561012b57600080fd5b5061014660048036038101906101419190611205565b61036f565b6040516101539190611274565b60405180910390f35b34801561016857600080fd5b50610171610464565b005b34801561017f57600080fd5b506101886104ec565b60405161019591906112d0565b60405180910390f35b3480156101aa57600080fd5b506101c560048036038101906101c09190611310565b610515565b005b3480156101d357600080fd5b506101ee60048036038101906101e9919061137c565b6105d0565b005b3480156101fc57600080fd5b506102176004803603810190610212919061143e565b6109af565b005b34801561022557600080fd5b5061022e610ade565b60405161023b91906112d0565b60405180910390f35b61025e6004803603810190610259919061146b565b610b04565b005b34801561026c57600080fd5b50610275610c7e565b6040516102829190611535565b60405180910390f35b34801561029757600080fd5b506102a0610c98565b6040516102ad91906112d0565b60405180910390f35b3480156102c257600080fd5b506102dd60048036038101906102d89190611550565b610cbe565b6040516102ea91906115f9565b60405180910390f35b3480156102ff57600080fd5b5061031a60048036038101906103159190611652565b610cff565b005b34801561032857600080fd5b50610343600480360381019061033e919061143e565b610e33565b005b60006004600083815260200190815260200160002060009054906101000a900460ff169050919050565b600080600160009054906101000a900473ffffffffffffffffffffffffffffffffffffffff1673ffffffffffffffffffffffffffffffffffffffff166347feadc18686866040518463ffffffff1660e01b81526004016103d1939291906116dd565b6020604051808303816000875af11580156103f0573d6000803e3d6000fd5b505050506040513d601f19601f820116820180604052508101906104149190611724565b905060008103610459576040517f08c379a0000000000000000000000000000000000000000000000000000000008152600401610450906117ae565b60405180910390fd5b809150509392505050565b61046c610f2a565b73ffffffffffffffffffffffffffffffffffffffff1661048a6104ec565b73ffffffffffffffffffffffffffffffffffffffff16146104e0576040517f08c379a00000000000000000000000000000000000000000000000000000000081526004016104d79061181a565b60405180910390fd5b6104ea6000610f32565b565b60008060009054906101000a900473ffffffffffffffffffffffffffffffffffffffff16905090565b61051d610f2a565b73ffffffffffffffffffffffffffffffffffffffff1661053b6104ec565b73ffffffffffffffffffffffffffffffffffffffff1614610591576040517f08c379a00000000000000000000000000000000000000000000000000000000081526004016105889061181a565b60405180910390fd5b806004600084815260200190815260200160002060006101000a81548160ff021916908360038111156105c7576105c66110d8565b5b02179055505050565b60006105e0898989888888610cbe565b9050818114610624576040517f08c379a000000000000000000000000000000000000000000000000000000000815260040161061b90611886565b60405180910390fd5b60006003811115610638576106376110d8565b5b6004600083815260200190815260200160002060009054906101000a900460ff16600381111561066b5761066a6110d8565b5b146106ab576040517f08c379a00000000000000000000000000000000000000000000000000000000081526004016106a2906118f2565b60405180910390fd5b600360009054906101000a900473ffffffffffffffffffffffffffffffffffffffff1673ffffffffffffffffffffffffffffffffffffffff16638b1b3a2d336040516020016106fa91906112d0565b6040516020818303038152906040526040518263ffffffff1660e01b81526004016107259190611989565b602060405180830381865afa158015610742573d6000803e3d6000fd5b505050506040513d601f19601f8201168201806040525081019061076691906119e3565b5060008773ffffffffffffffffffffffffffffffffffffffff1663a6060871888b8d8989336040518763ffffffff1660e01b81526004016107ab959493929190611a10565b60206040518083038160008887f1935050505080156107e857506040513d601f19601f820116820180604052508101906107e59190611a83565b60015b610867573d8060008114610818576040519150601f19603f3d011682016040523d82523d6000602084013e61081d565b606091505b507fffdd6142bbb721f3400e3908b04b86f60649b2e4d191e3f4c50c32c3e6471d2f61084882610ff6565b6040516108559190611af4565b60405180910390a16002915050610914565b60028081111561087a576108796110d8565b5b81600281111561088d5761088c6110d8565b5b0361090d5760006004600085815260200190815260200160002060006101000a81548160ff021916908360038111156108c9576108c86110d8565b5b0217905550827faed431377e805298c69fdb285e6085eb9a813485981c5abec146c967ac424d5b8c89604051610900929190611b16565b60405180910390a2610912565b600191505b505b806004600084815260200190815260200160002060006101000a81548160ff0219169083600381111561094a576109496110d8565b5b02179055508773ffffffffffffffffffffffffffffffffffffffff167f04214a849019ea3548afcedee810b5bc1680cfb64e22fdf9051a823f3cdfea6583838d8a60405161099b9493929190611b3f565b60405180910390a250505050505050505050565b6109b7610f2a565b73ffffffffffffffffffffffffffffffffffffffff166109d56104ec565b73ffffffffffffffffffffffffffffffffffffffff1614610a2b576040517f08c379a0000000000000000000000000000000000000000000000000000000008152600401610a229061181a565b60405180910390fd5b600073ffffffffffffffffffffffffffffffffffffffff168173ffffffffffffffffffffffffffffffffffffffff1603610a9a576040517f08c379a0000000000000000000000000000000000000000000000000000000008152600401610a9190611bd0565b60405180910390fd5b80600360006101000a81548173ffffffffffffffffffffffffffffffffffffffff021916908373ffffffffffffffffffffffffffffffffffffffff16021790555050565b600160009054906101000a900473ffffffffffffffffffffffffffffffffffffffff1681565b468503610b46576040517f08c379a0000000000000000000000000000000000000000000000000000000008152600401610b3d90611c3c565b60405180910390fd5b6000610b5386848461036f565b905080341015610b98576040517f08c379a0000000000000000000000000000000000000000000000000000000008152600401610b8f90611ca8565b60405180910390fd5b600160149054906101000a900467ffffffffffffffff1667ffffffffffffffff16863373ffffffffffffffffffffffffffffffffffffffff167f4679cb14e22de98156c0e8896d3d05a0ae587315dfbb2abcbeec6ae4f0144549468b8a8a8a8a34604051610c0c9796959493929190611cc8565b60405180910390a43460026000828254610c269190611d5c565b925050819055506001601481819054906101000a900467ffffffffffffffff16610c4f90611db2565b91906101000a81548167ffffffffffffffff021916908367ffffffffffffffff16021790555050505050505050565b600160149054906101000a900467ffffffffffffffff1681565b600360009054906101000a900473ffffffffffffffffffffffffffffffffffffffff1681565b600086864687878787604051602001610cdd9796959493929190611de2565b6040516020818303038152906040528051906020012090509695505050505050565b610d07610f2a565b73ffffffffffffffffffffffffffffffffffffffff16610d256104ec565b73ffffffffffffffffffffffffffffffffffffffff1614610d7b576040517f08c379a0000000000000000000000000000000000000000000000000000000008152600401610d729061181a565b60405180910390fd5b60008173ffffffffffffffffffffffffffffffffffffffff16600254604051610da390611e7d565b60006040518083038185875af1925050503d8060008114610de0576040519150601f19603f3d011682016040523d82523d6000602084013e610de5565b606091505b5050905080610e29576040517f08c379a0000000000000000000000000000000000000000000000000000000008152600401610e2090611ede565b60405180910390fd5b6002600090555050565b610e3b610f2a565b73ffffffffffffffffffffffffffffffffffffffff16610e596104ec565b73ffffffffffffffffffffffffffffffffffffffff1614610eaf576040517f08c379a0000000000000000000000000000000000000000000000000000000008152600401610ea69061181a565b60405180910390fd5b600073ffffffffffffffffffffffffffffffffffffffff168173ffffffffffffffffffffffffffffffffffffffff1603610f1e576040517f08c379a0000000000000000000000000000000000000000000000000000000008152600401610f1590611f70565b60405180910390fd5b610f2781610f32565b50565b600033905090565b60008060009054906101000a900473ffffffffffffffffffffffffffffffffffffffff169050816000806101000a81548173ffffffffffffffffffffffffffffffffffffffff021916908373ffffffffffffffffffffffffffffffffffffffff1602179055508173ffffffffffffffffffffffffffffffffffffffff168173ffffffffffffffffffffffffffffffffffffffff167f8be0079c531659141344cd1fd0a4f28419497f9722a3daafe3b4186f6b6457e060405160405180910390a35050565b606060448251101561103f576040518060400160405280601d81526020017f5472616e73616374696f6e2072657665727465642073696c656e746c79000000815250905061105c565b6004820191508180602001905181019061105991906120b1565b90505b919050565b6000604051905090565b600080fd5b600080fd5b6000819050919050565b61108881611075565b811461109357600080fd5b50565b6000813590506110a58161107f565b92915050565b6000602082840312156110c1576110c061106b565b5b60006110cf84828501611096565b91505092915050565b7f4e487b7100000000000000000000000000000000000000000000000000000000600052602160045260246000fd5b60048110611118576111176110d8565b5b50565b600081905061112982611107565b919050565b60006111398261111b565b9050919050565b6111498161112e565b82525050565b60006020820190506111646000830184611140565b92915050565b6000819050919050565b61117d8161116a565b811461118857600080fd5b50565b60008135905061119a81611174565b92915050565b600080fd5b600080fd5b600080fd5b60008083601f8401126111c5576111c46111a0565b5b8235905067ffffffffffffffff8111156111e2576111e16111a5565b5b6020830191508360018202830111156111fe576111fd6111aa565b5b9250929050565b60008060006040848603121561121e5761121d61106b565b5b600061122c8682870161118b565b935050602084013567ffffffffffffffff81111561124d5761124c611070565b5b611259868287016111af565b92509250509250925092565b61126e8161116a565b82525050565b60006020820190506112896000830184611265565b92915050565b600073ffffffffffffffffffffffffffffffffffffffff82169050919050565b60006112ba8261128f565b9050919050565b6112ca816112af565b82525050565b60006020820190506112e560008301846112c1565b92915050565b600481106112f857600080fd5b50565b60008135905061130a816112eb565b92915050565b600080604083850312156113275761132661106b565b5b600061133585828601611096565b9250506020611346858286016112fb565b9150509250929050565b611359816112af565b811461136457600080fd5b50565b60008135905061137681611350565b92915050565b60008060008060008060008060e0898b03121561139c5761139b61106b565b5b60006113aa8b828c0161118b565b98505060206113bb8b828c01611096565b97505060406113cc8b828c01611367565b96505060606113dd8b828c0161118b565b95505060806113ee8b828c0161118b565b94505060a089013567ffffffffffffffff81111561140f5761140e611070565b5b61141b8b828c016111af565b935093505060c061142e8b828c01611096565b9150509295985092959890939650565b6000602082840312156114545761145361106b565b5b600061146284828501611367565b91505092915050565b600080600080600080608087890312156114885761148761106b565b5b600061149689828a01611096565b96505060206114a789828a0161118b565b955050604087013567ffffffffffffffff8111156114c8576114c7611070565b5b6114d489828a016111af565b9450945050606087013567ffffffffffffffff8111156114f7576114f6611070565b5b61150389828a016111af565b92509250509295509295509295565b600067ffffffffffffffff82169050919050565b61152f81611512565b82525050565b600060208201905061154a6000830184611526565b92915050565b60008060008060008060a0878903121561156d5761156c61106b565b5b600061157b89828a0161118b565b965050602061158c89828a01611096565b955050604061159d89828a01611367565b94505060606115ae89828a0161118b565b935050608087013567ffffffffffffffff8111156115cf576115ce611070565b5b6115db89828a016111af565b92509250509295509295509295565b6115f381611075565b82525050565b600060208201905061160e60008301846115ea565b92915050565b600061161f8261128f565b9050919050565b61162f81611614565b811461163a57600080fd5b50565b60008135905061164c81611626565b92915050565b6000602082840312156116685761166761106b565b5b60006116768482850161163d565b91505092915050565b600082825260208201905092915050565b82818337600083830152505050565b6000601f19601f8301169050919050565b60006116bc838561167f565b93506116c9838584611690565b6116d28361169f565b840190509392505050565b60006040820190506116f26000830186611265565b81810360208301526117058184866116b0565b9050949350505050565b60008151905061171e81611174565b92915050565b60006020828403121561173a5761173961106b565b5b60006117488482850161170f565b91505092915050565b600082825260208201905092915050565b7f466565206e6f7420736574000000000000000000000000000000000000000000600082015250565b6000611798600b83611751565b91506117a382611762565b602082019050919050565b600060208201905081810360008301526117c78161178b565b9050919050565b7f4f776e61626c653a2063616c6c6572206973206e6f7420746865206f776e6572600082015250565b6000611804602083611751565b915061180f826117ce565b602082019050919050565b60006020820190508181036000830152611833816117f7565b9050919050565b7f496e636f7272656374206d6573736167654964207375626d6974746564000000600082015250565b6000611870601d83611751565b915061187b8261183a565b602082019050919050565b6000602082019050818103600083015261189f81611863565b9050919050565b7f4d65737361676520616c72656164792065786563757465640000000000000000600082015250565b60006118dc601883611751565b91506118e7826118a6565b602082019050919050565b6000602082019050818103600083015261190b816118cf565b9050919050565b600081519050919050565b60005b8381101561193b578082015181840152602081019050611920565b8381111561194a576000848401525b50505050565b600061195b82611912565b611965818561167f565b935061197581856020860161191d565b61197e8161169f565b840191505092915050565b600060208201905081810360008301526119a38184611950565b905092915050565b60008115159050919050565b6119c0816119ab565b81146119cb57600080fd5b50565b6000815190506119dd816119b7565b92915050565b6000602082840312156119f9576119f861106b565b5b6000611a07848285016119ce565b91505092915050565b6000608082019050611a2560008301886115ea565b611a326020830187611265565b8181036040830152611a458185876116b0565b9050611a5460608301846112c1565b9695505050505050565b60038110611a6b57600080fd5b50565b600081519050611a7d81611a5e565b92915050565b600060208284031215611a9957611a9861106b565b5b6000611aa784828501611a6e565b91505092915050565b600081519050919050565b6000611ac682611ab0565b611ad08185611751565b9350611ae081856020860161191d565b611ae98161169f565b840191505092915050565b60006020820190508181036000830152611b0e8184611abb565b905092915050565b6000604082019050611b2b6000830185611526565b611b386020830184611526565b9392505050565b6000608082019050611b5460008301876115ea565b611b616020830186611140565b611b6e6040830185611526565b611b7b6060830184611526565b95945050505050565b7f43616e6e6f742073657420746f20300000000000000000000000000000000000600082015250565b6000611bba600f83611751565b9150611bc582611b84565b602082019050919050565b60006020820190508181036000830152611be981611bad565b9050919050565b7f496e76616c696420636861696e49640000000000000000000000000000000000600082015250565b6000611c26600f83611751565b9150611c3182611bf0565b602082019050919050565b60006020820190508181036000830152611c5581611c19565b9050919050565b7f496e7375666669656e7420676173206665650000000000000000000000000000600082015250565b6000611c92601283611751565b9150611c9d82611c5c565b602082019050919050565b60006020820190508181036000830152611cc181611c85565b9050919050565b600060a082019050611cdd600083018a611265565b611cea60208301896115ea565b8181036040830152611cfd8187896116b0565b90508181036060830152611d128185876116b0565b9050611d216080830184611265565b98975050505050505050565b7f4e487b7100000000000000000000000000000000000000000000000000000000600052601160045260246000fd5b6000611d678261116a565b9150611d728361116a565b9250827fffffffffffffffffffffffffffffffffffffffffffffffffffffffffffffffff03821115611da757611da6611d2d565b5b828201905092915050565b6000611dbd82611512565b915067ffffffffffffffff8203611dd757611dd6611d2d565b5b600182019050919050565b600060c082019050611df7600083018a611265565b611e0460208301896115ea565b611e116040830188611265565b611e1e60608301876112c1565b611e2b6080830186611265565b81810360a0830152611e3e8184866116b0565b905098975050505050505050565b600081905092915050565b50565b6000611e67600083611e4c565b9150611e7282611e57565b600082019050919050565b6000611e8882611e5a565b9150819050919050565b7f5472616e73666572204661696c65640000000000000000000000000000000000600082015250565b6000611ec8600f83611751565b9150611ed382611e92565b602082019050919050565b60006020820190508181036000830152611ef781611ebb565b9050919050565b7f4f776e61626c653a206e6577206f776e657220697320746865207a65726f206160008201527f6464726573730000000000000000000000000000000000000000000000000000602082015250565b6000611f5a602683611751565b9150611f6582611efe565b604082019050919050565b60006020820190508181036000830152611f8981611f4d565b9050919050565b600080fd5b7f4e487b7100000000000000000000000000000000000000000000000000000000600052604160045260246000fd5b611fcd8261169f565b810181811067ffffffffffffffff82111715611fec57611feb611f95565b5b80604052505050565b6000611fff611061565b905061200b8282611fc4565b919050565b600067ffffffffffffffff82111561202b5761202a611f95565b5b6120348261169f565b9050602081019050919050565b600061205461204f84612010565b611ff5565b9050828152602081018484840111156120705761206f611f90565b5b61207b84828561191d565b509392505050565b600082601f830112612098576120976111a0565b5b81516120a8848260208601612041565b91505092915050565b6000602082840312156120c7576120c661106b565b5b600082015167ffffffffffffffff8111156120e5576120e4611070565b5b6120f184828501612083565b9150509291505056fea26469706673582212205b7be9ddc13bf5794612ad157cb8ba934cf8317c1081dad9017c3b0a0467c27964736f6c634300080d0033",
  "devdoc": {
    "kind": "dev",
    "methods": {
      "executeMessage(uint256,bytes32,address,uint256,uint256,bytes,bytes32)": {
        "params": {
          "_dstAddress": "Destination address that the arbitrary message will be passed to",
          "_gasLimit": "Gas limit to be passed alongside the message, depending on the fee paid on srcChain",
          "_message": "Arbitrary message payload to pass to the destination chain receiver",
          "_srcAddress": "Originating bytes32 address of the message sender on the srcChain",
          "_srcChainId": "Originating chain ID - typically a standard EVM chain ID, but may refer to a Synapse-specific chain ID on nonEVM chains"
        }
      },
      "owner()": {
        "details": "Returns the address of the current owner."
      },
      "renounceOwnership()": {
        "details": "Leaves the contract without owner. It will not be possible to call `onlyOwner` functions anymore. Can only be called by the current owner. NOTE: Renouncing ownership will leave the contract without an owner, thereby removing any functionality that is only available to the owner."
      },
      "sendMessage(bytes32,uint256,bytes,bytes)": {
        "params": {
          "_dstChainId": "The destination chain ID - typically, standard EVM chain ID, but differs on nonEVM chains",
          "_message": "The arbitrary payload to pass to the destination chain receiver",
          "_options": "Versioned struct used to instruct relayer on how to proceed with gas limits",
          "_receiver": "The bytes32 address of the destination contract to be called"
        }
      },
      "transferOwnership(address)": {
        "details": "Transfers ownership of the contract to a new account (`newOwner`). Can only be called by the current owner."
      },
      "withdrawGasFees(address)": {
        "params": {
          "to": "Address to withdraw gas fees to, which can be specified in the event owner() can't receive native gas"
        }
      }
    },
    "version": 1
  },
  "userdoc": {
    "kind": "user",
    "methods": {
      "executeMessage(uint256,bytes32,address,uint256,uint256,bytes,bytes32)": {
        "notice": "Relayer executes messages through an authenticated method to the destination receiver based on the originating transaction on source chain"
      },
      "sendMessage(bytes32,uint256,bytes,bytes)": {
        "notice": "Sends a message to a receiving contract address on another chain. Sender must make sure that the message is unique and not a duplicate message."
      },
      "updateMessageStatus(bytes32,uint8)": {
        "notice": "CONTRACT CONFIG "
      },
      "withdrawGasFees(address)": {
        "notice": "Withdraws accumulated fees in native gas token, based on fees variable."
      }
    },
    "version": 1
  },
  "storageLayout": {
    "storage": [
      {
        "astId": 962,
        "contract": "contracts/messaging/MessageBus.sol:MessageBus",
        "label": "_owner",
        "offset": 0,
        "slot": "0",
        "type": "t_address"
      },
      {
        "astId": 5376,
        "contract": "contracts/messaging/MessageBus.sol:MessageBus",
        "label": "gasFeePricing",
        "offset": 0,
        "slot": "1",
        "type": "t_address"
      },
      {
        "astId": 5378,
        "contract": "contracts/messaging/MessageBus.sol:MessageBus",
        "label": "nonce",
        "offset": 20,
        "slot": "1",
        "type": "t_uint64"
      },
      {
        "astId": 5380,
        "contract": "contracts/messaging/MessageBus.sol:MessageBus",
        "label": "fees",
        "offset": 0,
        "slot": "2",
        "type": "t_uint256"
      },
      {
        "astId": 5067,
        "contract": "contracts/messaging/MessageBus.sol:MessageBus",
        "label": "authVerifier",
        "offset": 0,
        "slot": "3",
        "type": "t_address"
      },
      {
        "astId": 5077,
        "contract": "contracts/messaging/MessageBus.sol:MessageBus",
        "label": "executedMessages",
        "offset": 0,
        "slot": "4",
        "type": "t_mapping(t_bytes32,t_enum(TxStatus)5072)"
      }
    ],
    "types": {
      "t_address": {
        "encoding": "inplace",
        "label": "address",
        "numberOfBytes": "20"
      },
      "t_bytes32": {
        "encoding": "inplace",
        "label": "bytes32",
        "numberOfBytes": "32"
      },
      "t_enum(TxStatus)5072": {
        "encoding": "inplace",
        "label": "enum MessageBusReceiver.TxStatus",
        "numberOfBytes": "1"
      },
      "t_mapping(t_bytes32,t_enum(TxStatus)5072)": {
        "encoding": "mapping",
        "key": "t_bytes32",
        "label": "mapping(bytes32 => enum MessageBusReceiver.TxStatus)",
        "numberOfBytes": "32",
        "value": "t_enum(TxStatus)5072"
      },
      "t_uint256": {
        "encoding": "inplace",
        "label": "uint256",
        "numberOfBytes": "32"
      },
      "t_uint64": {
        "encoding": "inplace",
        "label": "uint64",
        "numberOfBytes": "8"
      }
    }
  }
}