{
  "address": "0xf7e6214E1f2b03b54f1594ECfa3834148aB26888",
  "abi": [
    {
      "anonymous": false,
      "inputs": [
        {
          "indexed": false,
          "internalType": "address",
          "name": "account",
          "type": "address"
        }
      ],
      "name": "Paused",
      "type": "event"
    },
    {
      "anonymous": false,
      "inputs": [
        {
          "indexed": true,
          "internalType": "bytes32",
          "name": "role",
          "type": "bytes32"
        },
        {
          "indexed": true,
          "internalType": "bytes32",
          "name": "previousAdminRole",
          "type": "bytes32"
        },
        {
          "indexed": true,
          "internalType": "bytes32",
          "name": "newAdminRole",
          "type": "bytes32"
        }
      ],
      "name": "RoleAdminChanged",
      "type": "event"
    },
    {
      "anonymous": false,
      "inputs": [
        {
          "indexed": true,
          "internalType": "bytes32",
          "name": "role",
          "type": "bytes32"
        },
        {
          "indexed": true,
          "internalType": "address",
          "name": "account",
          "type": "address"
        },
        {
          "indexed": true,
          "internalType": "address",
          "name": "sender",
          "type": "address"
        }
      ],
      "name": "RoleGranted",
      "type": "event"
    },
    {
      "anonymous": false,
      "inputs": [
        {
          "indexed": true,
          "internalType": "bytes32",
          "name": "role",
          "type": "bytes32"
        },
        {
          "indexed": true,
          "internalType": "address",
          "name": "account",
          "type": "address"
        },
        {
          "indexed": true,
          "internalType": "address",
          "name": "sender",
          "type": "address"
        }
      ],
      "name": "RoleRevoked",
      "type": "event"
    },
    {
      "anonymous": false,
      "inputs": [
        {
          "indexed": true,
          "internalType": "address",
          "name": "to",
          "type": "address"
        },
        {
          "indexed": false,
          "internalType": "uint256",
          "name": "chainId",
          "type": "uint256"
        },
        {
          "indexed": false,
          "internalType": "contract IERC20",
          "name": "token",
          "type": "address"
        },
        {
          "indexed": false,
          "internalType": "uint256",
          "name": "amount",
          "type": "uint256"
        }
      ],
      "name": "TokenDeposit",
      "type": "event"
    },
    {
      "anonymous": false,
      "inputs": [
        {
          "indexed": true,
          "internalType": "address",
          "name": "to",
          "type": "address"
        },
        {
          "indexed": false,
          "internalType": "uint256",
          "name": "chainId",
          "type": "uint256"
        },
        {
          "indexed": false,
          "internalType": "contract IERC20",
          "name": "token",
          "type": "address"
        },
        {
          "indexed": false,
          "internalType": "uint256",
          "name": "amount",
          "type": "uint256"
        },
        {
          "indexed": false,
          "internalType": "uint8",
          "name": "tokenIndexFrom",
          "type": "uint8"
        },
        {
          "indexed": false,
          "internalType": "uint8",
          "name": "tokenIndexTo",
          "type": "uint8"
        },
        {
          "indexed": false,
          "internalType": "uint256",
          "name": "minDy",
          "type": "uint256"
        },
        {
          "indexed": false,
          "internalType": "uint256",
          "name": "deadline",
          "type": "uint256"
        }
      ],
      "name": "TokenDepositAndSwap",
      "type": "event"
    },
    {
      "anonymous": false,
      "inputs": [
        {
          "indexed": true,
          "internalType": "address",
          "name": "to",
          "type": "address"
        },
        {
          "indexed": false,
          "internalType": "uint256",
          "name": "chainId",
          "type": "uint256"
        },
        {
          "indexed": false,
          "internalType": "contract IERC20",
          "name": "token",
          "type": "address"
        },
        {
          "indexed": false,
          "internalType": "uint256",
          "name": "amount",
          "type": "uint256"
        },
        {
          "indexed": false,
          "internalType": "bytes",
          "name": "routeraction",
          "type": "bytes"
        }
      ],
      "name": "TokenDepositAndSwapV2",
      "type": "event"
    },
    {
      "anonymous": false,
      "inputs": [
        {
          "indexed": true,
          "internalType": "address",
          "name": "to",
          "type": "address"
        },
        {
          "indexed": false,
          "internalType": "contract IERC20Mintable",
          "name": "token",
          "type": "address"
        },
        {
          "indexed": false,
          "internalType": "uint256",
          "name": "amount",
          "type": "uint256"
        },
        {
          "indexed": false,
          "internalType": "uint256",
          "name": "fee",
          "type": "uint256"
        },
        {
          "indexed": true,
          "internalType": "bytes32",
          "name": "kappa",
          "type": "bytes32"
        }
      ],
      "name": "TokenMint",
      "type": "event"
    },
    {
      "anonymous": false,
      "inputs": [
        {
          "indexed": true,
          "internalType": "address",
          "name": "to",
          "type": "address"
        },
        {
          "indexed": false,
          "internalType": "contract IERC20Mintable",
          "name": "token",
          "type": "address"
        },
        {
          "indexed": false,
          "internalType": "uint256",
          "name": "amount",
          "type": "uint256"
        },
        {
          "indexed": false,
          "internalType": "uint256",
          "name": "fee",
          "type": "uint256"
        },
        {
          "indexed": false,
          "internalType": "uint8",
          "name": "tokenIndexFrom",
          "type": "uint8"
        },
        {
          "indexed": false,
          "internalType": "uint8",
          "name": "tokenIndexTo",
          "type": "uint8"
        },
        {
          "indexed": false,
          "internalType": "uint256",
          "name": "minDy",
          "type": "uint256"
        },
        {
          "indexed": false,
          "internalType": "uint256",
          "name": "deadline",
          "type": "uint256"
        },
        {
          "indexed": false,
          "internalType": "bool",
          "name": "swapSuccess",
          "type": "bool"
        },
        {
          "indexed": true,
          "internalType": "bytes32",
          "name": "kappa",
          "type": "bytes32"
        }
      ],
      "name": "TokenMintAndSwap",
      "type": "event"
    },
    {
      "anonymous": false,
      "inputs": [
        {
          "indexed": true,
          "internalType": "address",
          "name": "to",
          "type": "address"
        },
        {
          "indexed": false,
          "internalType": "contract IERC20Mintable",
          "name": "token",
          "type": "address"
        },
        {
          "indexed": false,
          "internalType": "uint256",
          "name": "amount",
          "type": "uint256"
        },
        {
          "indexed": false,
          "internalType": "uint256",
          "name": "fee",
          "type": "uint256"
        },
        {
          "indexed": false,
          "internalType": "bytes",
          "name": "routeraction",
          "type": "bytes"
        },
        {
          "indexed": false,
          "internalType": "bool",
          "name": "swapSuccess",
          "type": "bool"
        },
        {
          "indexed": true,
          "internalType": "bytes32",
          "name": "kappa",
          "type": "bytes32"
        }
      ],
      "name": "TokenMintAndSwapV2",
      "type": "event"
    },
    {
      "anonymous": false,
      "inputs": [
        {
          "indexed": true,
          "internalType": "address",
          "name": "to",
          "type": "address"
        },
        {
          "indexed": false,
          "internalType": "uint256",
          "name": "chainId",
          "type": "uint256"
        },
        {
          "indexed": false,
          "internalType": "contract IERC20",
          "name": "token",
          "type": "address"
        },
        {
          "indexed": false,
          "internalType": "uint256",
          "name": "amount",
          "type": "uint256"
        }
      ],
      "name": "TokenRedeem",
      "type": "event"
    },
    {
      "anonymous": false,
      "inputs": [
        {
          "indexed": true,
          "internalType": "address",
          "name": "to",
          "type": "address"
        },
        {
          "indexed": false,
          "internalType": "uint256",
          "name": "chainId",
          "type": "uint256"
        },
        {
          "indexed": false,
          "internalType": "contract IERC20",
          "name": "token",
          "type": "address"
        },
        {
          "indexed": false,
          "internalType": "uint256",
          "name": "amount",
          "type": "uint256"
        },
        {
          "indexed": false,
          "internalType": "uint8",
          "name": "swapTokenIndex",
          "type": "uint8"
        },
        {
          "indexed": false,
          "internalType": "uint256",
          "name": "swapMinAmount",
          "type": "uint256"
        },
        {
          "indexed": false,
          "internalType": "uint256",
          "name": "swapDeadline",
          "type": "uint256"
        }
      ],
      "name": "TokenRedeemAndRemove",
      "type": "event"
    },
    {
      "anonymous": false,
      "inputs": [
        {
          "indexed": true,
          "internalType": "address",
          "name": "to",
          "type": "address"
        },
        {
          "indexed": false,
          "internalType": "uint256",
          "name": "chainId",
          "type": "uint256"
        },
        {
          "indexed": false,
          "internalType": "contract IERC20",
          "name": "token",
          "type": "address"
        },
        {
          "indexed": false,
          "internalType": "uint256",
          "name": "amount",
          "type": "uint256"
        },
        {
          "indexed": false,
          "internalType": "uint8",
          "name": "tokenIndexFrom",
          "type": "uint8"
        },
        {
          "indexed": false,
          "internalType": "uint8",
          "name": "tokenIndexTo",
          "type": "uint8"
        },
        {
          "indexed": false,
          "internalType": "uint256",
          "name": "minDy",
          "type": "uint256"
        },
        {
          "indexed": false,
          "internalType": "uint256",
          "name": "deadline",
          "type": "uint256"
        }
      ],
      "name": "TokenRedeemAndSwap",
      "type": "event"
    },
    {
      "anonymous": false,
      "inputs": [
        {
          "indexed": true,
          "internalType": "address",
          "name": "to",
          "type": "address"
        },
        {
          "indexed": false,
          "internalType": "uint256",
          "name": "chainId",
          "type": "uint256"
        },
        {
          "indexed": false,
          "internalType": "contract IERC20",
          "name": "token",
          "type": "address"
        },
        {
          "indexed": false,
          "internalType": "uint256",
          "name": "amount",
          "type": "uint256"
        },
        {
          "indexed": false,
          "internalType": "bytes",
          "name": "routeraction",
          "type": "bytes"
        }
      ],
      "name": "TokenRedeemAndSwapV2",
      "type": "event"
    },
    {
      "anonymous": false,
      "inputs": [
        {
          "indexed": true,
          "internalType": "address",
          "name": "to",
          "type": "address"
        },
        {
          "indexed": false,
          "internalType": "contract IERC20",
          "name": "token",
          "type": "address"
        },
        {
          "indexed": false,
          "internalType": "uint256",
          "name": "amount",
          "type": "uint256"
        },
        {
          "indexed": false,
          "internalType": "uint256",
          "name": "fee",
          "type": "uint256"
        },
        {
          "indexed": true,
          "internalType": "bytes32",
          "name": "kappa",
          "type": "bytes32"
        }
      ],
      "name": "TokenWithdraw",
      "type": "event"
    },
    {
      "anonymous": false,
      "inputs": [
        {
          "indexed": true,
          "internalType": "address",
          "name": "to",
          "type": "address"
        },
        {
          "indexed": false,
          "internalType": "contract IERC20",
          "name": "token",
          "type": "address"
        },
        {
          "indexed": false,
          "internalType": "uint256",
          "name": "amount",
          "type": "uint256"
        },
        {
          "indexed": false,
          "internalType": "uint256",
          "name": "fee",
          "type": "uint256"
        },
        {
          "indexed": false,
          "internalType": "uint8",
          "name": "swapTokenIndex",
          "type": "uint8"
        },
        {
          "indexed": false,
          "internalType": "uint256",
          "name": "swapMinAmount",
          "type": "uint256"
        },
        {
          "indexed": false,
          "internalType": "uint256",
          "name": "swapDeadline",
          "type": "uint256"
        },
        {
          "indexed": false,
          "internalType": "bool",
          "name": "swapSuccess",
          "type": "bool"
        },
        {
          "indexed": true,
          "internalType": "bytes32",
          "name": "kappa",
          "type": "bytes32"
        }
      ],
      "name": "TokenWithdrawAndRemove",
      "type": "event"
    },
    {
      "anonymous": false,
      "inputs": [
        {
          "indexed": true,
          "internalType": "address",
          "name": "to",
          "type": "address"
        },
        {
          "indexed": false,
          "internalType": "contract IERC20",
          "name": "token",
          "type": "address"
        },
        {
          "indexed": false,
          "internalType": "uint256",
          "name": "amount",
          "type": "uint256"
        },
        {
          "indexed": false,
          "internalType": "uint256",
          "name": "fee",
          "type": "uint256"
        },
        {
          "indexed": false,
          "internalType": "bytes",
          "name": "routeraction",
          "type": "bytes"
        },
        {
          "indexed": false,
          "internalType": "bool",
          "name": "swapSuccess",
          "type": "bool"
        },
        {
          "indexed": true,
          "internalType": "bytes32",
          "name": "kappa",
          "type": "bytes32"
        }
      ],
      "name": "TokenWithdrawAndSwapV2",
      "type": "event"
    },
    {
      "anonymous": false,
      "inputs": [
        {
          "indexed": false,
          "internalType": "address",
          "name": "account",
          "type": "address"
        }
      ],
      "name": "Unpaused",
      "type": "event"
    },
    {
      "inputs": [],
      "name": "DEFAULT_ADMIN_ROLE",
      "outputs": [
        {
          "internalType": "bytes32",
          "name": "",
          "type": "bytes32"
        }
      ],
      "stateMutability": "view",
      "type": "function"
    },
    {
      "inputs": [],
      "name": "GOVERNANCE_ROLE",
      "outputs": [
        {
          "internalType": "bytes32",
          "name": "",
          "type": "bytes32"
        }
      ],
      "stateMutability": "view",
      "type": "function"
    },
    {
      "inputs": [],
      "name": "NODEGROUP_ROLE",
      "outputs": [
        {
          "internalType": "bytes32",
          "name": "",
          "type": "bytes32"
        }
      ],
      "stateMutability": "view",
      "type": "function"
    },
    {
      "inputs": [],
      "name": "ROUTER",
      "outputs": [
        {
          "internalType": "address",
          "name": "",
          "type": "address"
        }
      ],
      "stateMutability": "view",
      "type": "function"
    },
    {
      "inputs": [],
      "name": "WETH_ADDRESS",
      "outputs": [
        {
          "internalType": "address payable",
          "name": "",
          "type": "address"
        }
      ],
      "stateMutability": "view",
      "type": "function"
    },
    {
      "inputs": [
        {
          "internalType": "bytes32[]",
          "name": "kappas",
          "type": "bytes32[]"
        }
      ],
      "name": "addKappas",
      "outputs": [],
      "stateMutability": "nonpayable",
      "type": "function"
    },
    {
      "inputs": [],
      "name": "bridgeVersion",
      "outputs": [
        {
          "internalType": "uint256",
          "name": "",
          "type": "uint256"
        }
      ],
      "stateMutability": "view",
      "type": "function"
    },
    {
      "inputs": [],
      "name": "chainGasAmount",
      "outputs": [
        {
          "internalType": "uint256",
          "name": "",
          "type": "uint256"
        }
      ],
      "stateMutability": "view",
      "type": "function"
    },
    {
      "inputs": [
        {
          "internalType": "address",
          "name": "to",
          "type": "address"
        },
        {
          "internalType": "uint256",
          "name": "chainId",
          "type": "uint256"
        },
        {
          "internalType": "contract IERC20",
          "name": "token",
          "type": "address"
        },
        {
          "internalType": "uint256",
          "name": "amount",
          "type": "uint256"
        }
      ],
      "name": "deposit",
      "outputs": [],
      "stateMutability": "nonpayable",
      "type": "function"
    },
    {
      "inputs": [
        {
          "internalType": "address",
          "name": "to",
          "type": "address"
        },
        {
          "internalType": "uint256",
          "name": "chainId",
          "type": "uint256"
        },
        {
          "internalType": "contract IERC20",
          "name": "token",
          "type": "address"
        },
        {
          "internalType": "uint256",
          "name": "amount",
          "type": "uint256"
        },
        {
          "internalType": "uint8",
          "name": "tokenIndexFrom",
          "type": "uint8"
        },
        {
          "internalType": "uint8",
          "name": "tokenIndexTo",
          "type": "uint8"
        },
        {
          "internalType": "uint256",
          "name": "minDy",
          "type": "uint256"
        },
        {
          "internalType": "uint256",
          "name": "deadline",
          "type": "uint256"
        }
      ],
      "name": "depositAndSwap",
      "outputs": [],
      "stateMutability": "nonpayable",
      "type": "function"
    },
    {
      "inputs": [
        {
          "internalType": "address",
          "name": "to",
          "type": "address"
        },
        {
          "internalType": "uint256",
          "name": "chainId",
          "type": "uint256"
        },
        {
          "internalType": "contract IERC20",
          "name": "token",
          "type": "address"
        }
      ],
      "name": "depositMax",
      "outputs": [],
      "stateMutability": "nonpayable",
      "type": "function"
    },
    {
      "inputs": [
        {
          "internalType": "address",
          "name": "to",
          "type": "address"
        },
        {
          "internalType": "uint256",
          "name": "chainId",
          "type": "uint256"
        },
        {
          "internalType": "contract IERC20",
          "name": "token",
          "type": "address"
        },
        {
          "internalType": "bytes",
          "name": "routeraction",
          "type": "bytes"
        }
      ],
      "name": "depositMaxAndSwapV2",
      "outputs": [],
      "stateMutability": "nonpayable",
      "type": "function"
    },
    {
      "inputs": [
        {
          "internalType": "address",
          "name": "tokenAddress",
          "type": "address"
        }
      ],
      "name": "getFeeBalance",
      "outputs": [
        {
          "internalType": "uint256",
          "name": "",
          "type": "uint256"
        }
      ],
      "stateMutability": "view",
      "type": "function"
    },
    {
      "inputs": [
        {
          "internalType": "bytes32",
          "name": "role",
          "type": "bytes32"
        }
      ],
      "name": "getRoleAdmin",
      "outputs": [
        {
          "internalType": "bytes32",
          "name": "",
          "type": "bytes32"
        }
      ],
      "stateMutability": "view",
      "type": "function"
    },
    {
      "inputs": [
        {
          "internalType": "bytes32",
          "name": "role",
          "type": "bytes32"
        },
        {
          "internalType": "uint256",
          "name": "index",
          "type": "uint256"
        }
      ],
      "name": "getRoleMember",
      "outputs": [
        {
          "internalType": "address",
          "name": "",
          "type": "address"
        }
      ],
      "stateMutability": "view",
      "type": "function"
    },
    {
      "inputs": [
        {
          "internalType": "bytes32",
          "name": "role",
          "type": "bytes32"
        }
      ],
      "name": "getRoleMemberCount",
      "outputs": [
        {
          "internalType": "uint256",
          "name": "",
          "type": "uint256"
        }
      ],
      "stateMutability": "view",
      "type": "function"
    },
    {
      "inputs": [
        {
          "internalType": "bytes32",
          "name": "role",
          "type": "bytes32"
        },
        {
          "internalType": "address",
          "name": "account",
          "type": "address"
        }
      ],
      "name": "grantRole",
      "outputs": [],
      "stateMutability": "nonpayable",
      "type": "function"
    },
    {
      "inputs": [
        {
          "internalType": "bytes32",
          "name": "role",
          "type": "bytes32"
        },
        {
          "internalType": "address",
          "name": "account",
          "type": "address"
        }
      ],
      "name": "hasRole",
      "outputs": [
        {
          "internalType": "bool",
          "name": "",
          "type": "bool"
        }
      ],
      "stateMutability": "view",
      "type": "function"
    },
    {
      "inputs": [],
      "name": "initialize",
      "outputs": [],
      "stateMutability": "nonpayable",
      "type": "function"
    },
    {
      "inputs": [
        {
          "internalType": "bytes32",
          "name": "kappa",
          "type": "bytes32"
        }
      ],
      "name": "kappaExists",
      "outputs": [
        {
          "internalType": "bool",
          "name": "",
          "type": "bool"
        }
      ],
      "stateMutability": "view",
      "type": "function"
    },
    {
      "inputs": [
        {
          "internalType": "address payable",
          "name": "to",
          "type": "address"
        },
        {
          "internalType": "contract IERC20Mintable",
          "name": "token",
          "type": "address"
        },
        {
          "internalType": "uint256",
          "name": "amount",
          "type": "uint256"
        },
        {
          "internalType": "uint256",
          "name": "fee",
          "type": "uint256"
        },
        {
          "internalType": "bytes32",
          "name": "kappa",
          "type": "bytes32"
        }
      ],
      "name": "mint",
      "outputs": [],
      "stateMutability": "nonpayable",
      "type": "function"
    },
    {
      "inputs": [
        {
          "internalType": "address payable",
          "name": "to",
          "type": "address"
        },
        {
          "internalType": "contract IERC20Mintable",
          "name": "token",
          "type": "address"
        },
        {
          "internalType": "uint256",
          "name": "amount",
          "type": "uint256"
        },
        {
          "internalType": "uint256",
          "name": "fee",
          "type": "uint256"
        },
        {
          "internalType": "contract IMetaSwapDeposit",
          "name": "pool",
          "type": "address"
        },
        {
          "internalType": "uint8",
          "name": "tokenIndexFrom",
          "type": "uint8"
        },
        {
          "internalType": "uint8",
          "name": "tokenIndexTo",
          "type": "uint8"
        },
        {
          "internalType": "uint256",
          "name": "minDy",
          "type": "uint256"
        },
        {
          "internalType": "uint256",
          "name": "deadline",
          "type": "uint256"
        },
        {
          "internalType": "bytes32",
          "name": "kappa",
          "type": "bytes32"
        }
      ],
      "name": "mintAndSwap",
      "outputs": [],
      "stateMutability": "nonpayable",
      "type": "function"
    },
    {
      "inputs": [
        {
          "internalType": "address payable",
          "name": "to",
          "type": "address"
        },
        {
          "internalType": "contract IERC20Mintable",
          "name": "token",
          "type": "address"
        },
        {
          "internalType": "uint256",
          "name": "amount",
          "type": "uint256"
        },
        {
          "internalType": "uint256",
          "name": "fee",
          "type": "uint256"
        },
        {
          "internalType": "bytes",
          "name": "routeraction",
          "type": "bytes"
        },
        {
          "internalType": "bytes32",
          "name": "kappa",
          "type": "bytes32"
        }
      ],
      "name": "mintAndSwapV2",
      "outputs": [],
      "stateMutability": "nonpayable",
      "type": "function"
    },
    {
      "inputs": [],
      "name": "pause",
      "outputs": [],
      "stateMutability": "nonpayable",
      "type": "function"
    },
    {
      "inputs": [],
      "name": "paused",
      "outputs": [
        {
          "internalType": "bool",
          "name": "",
          "type": "bool"
        }
      ],
      "stateMutability": "view",
      "type": "function"
    },
    {
      "inputs": [
        {
          "internalType": "address",
          "name": "to",
          "type": "address"
        },
        {
          "internalType": "uint256",
          "name": "chainId",
          "type": "uint256"
        },
        {
          "internalType": "contract ERC20Burnable",
          "name": "token",
          "type": "address"
        },
        {
          "internalType": "uint256",
          "name": "amount",
          "type": "uint256"
        }
      ],
      "name": "redeem",
      "outputs": [],
      "stateMutability": "nonpayable",
      "type": "function"
    },
    {
      "inputs": [
        {
          "internalType": "address",
          "name": "to",
          "type": "address"
        },
        {
          "internalType": "uint256",
          "name": "chainId",
          "type": "uint256"
        },
        {
          "internalType": "contract ERC20Burnable",
          "name": "token",
          "type": "address"
        },
        {
          "internalType": "uint256",
          "name": "amount",
          "type": "uint256"
        },
        {
          "internalType": "uint8",
          "name": "swapTokenIndex",
          "type": "uint8"
        },
        {
          "internalType": "uint256",
          "name": "swapMinAmount",
          "type": "uint256"
        },
        {
          "internalType": "uint256",
          "name": "swapDeadline",
          "type": "uint256"
        }
      ],
      "name": "redeemAndRemove",
      "outputs": [],
      "stateMutability": "nonpayable",
      "type": "function"
    },
    {
      "inputs": [
        {
          "internalType": "address",
          "name": "to",
          "type": "address"
        },
        {
          "internalType": "uint256",
          "name": "chainId",
          "type": "uint256"
        },
        {
          "internalType": "contract ERC20Burnable",
          "name": "token",
          "type": "address"
        },
        {
          "internalType": "uint256",
          "name": "amount",
          "type": "uint256"
        },
        {
          "internalType": "uint8",
          "name": "tokenIndexFrom",
          "type": "uint8"
        },
        {
          "internalType": "uint8",
          "name": "tokenIndexTo",
          "type": "uint8"
        },
        {
          "internalType": "uint256",
          "name": "minDy",
          "type": "uint256"
        },
        {
          "internalType": "uint256",
          "name": "deadline",
          "type": "uint256"
        }
      ],
      "name": "redeemAndSwap",
      "outputs": [],
      "stateMutability": "nonpayable",
      "type": "function"
    },
    {
      "inputs": [
        {
          "internalType": "address",
          "name": "to",
          "type": "address"
        },
        {
          "internalType": "uint256",
          "name": "chainId",
          "type": "uint256"
        },
        {
          "internalType": "contract ERC20Burnable",
          "name": "token",
          "type": "address"
        }
      ],
      "name": "redeemMax",
      "outputs": [],
      "stateMutability": "nonpayable",
      "type": "function"
    },
    {
      "inputs": [
        {
          "internalType": "address",
          "name": "to",
          "type": "address"
        },
        {
          "internalType": "uint256",
          "name": "chainId",
          "type": "uint256"
        },
        {
          "internalType": "contract ERC20Burnable",
          "name": "token",
          "type": "address"
        },
        {
          "internalType": "bytes",
          "name": "routeraction",
          "type": "bytes"
        }
      ],
      "name": "redeemMaxAndSwapV2",
      "outputs": [],
      "stateMutability": "nonpayable",
      "type": "function"
    },
    {
      "inputs": [
        {
          "internalType": "bytes32",
          "name": "role",
          "type": "bytes32"
        },
        {
          "internalType": "address",
          "name": "account",
          "type": "address"
        }
      ],
      "name": "renounceRole",
      "outputs": [],
      "stateMutability": "nonpayable",
      "type": "function"
    },
    {
      "inputs": [
        {
          "internalType": "bytes32",
          "name": "role",
          "type": "bytes32"
        },
        {
          "internalType": "address",
          "name": "account",
          "type": "address"
        }
      ],
      "name": "revokeRole",
      "outputs": [],
      "stateMutability": "nonpayable",
      "type": "function"
    },
    {
      "inputs": [
        {
          "internalType": "uint256",
          "name": "amount",
          "type": "uint256"
        }
      ],
      "name": "setChainGasAmount",
      "outputs": [],
      "stateMutability": "nonpayable",
      "type": "function"
    },
    {
      "inputs": [
        {
          "internalType": "address",
          "name": "_router",
          "type": "address"
        }
      ],
      "name": "setRouterAddress",
      "outputs": [],
      "stateMutability": "nonpayable",
      "type": "function"
    },
    {
      "inputs": [
        {
          "internalType": "address payable",
          "name": "_wethAddress",
          "type": "address"
        }
      ],
      "name": "setWethAddress",
      "outputs": [],
      "stateMutability": "nonpayable",
      "type": "function"
    },
    {
      "inputs": [],
      "name": "startBlockNumber",
      "outputs": [
        {
          "internalType": "uint256",
          "name": "",
          "type": "uint256"
        }
      ],
      "stateMutability": "view",
      "type": "function"
    },
    {
      "inputs": [],
      "name": "unpause",
      "outputs": [],
      "stateMutability": "nonpayable",
      "type": "function"
    },
    {
      "inputs": [
        {
          "internalType": "address",
          "name": "to",
          "type": "address"
        },
        {
          "internalType": "contract IERC20",
          "name": "token",
          "type": "address"
        },
        {
          "internalType": "uint256",
          "name": "amount",
          "type": "uint256"
        },
        {
          "internalType": "uint256",
          "name": "fee",
          "type": "uint256"
        },
        {
          "internalType": "bytes32",
          "name": "kappa",
          "type": "bytes32"
        }
      ],
      "name": "withdraw",
      "outputs": [],
      "stateMutability": "nonpayable",
      "type": "function"
    },
    {
      "inputs": [
        {
          "internalType": "address",
          "name": "to",
          "type": "address"
        },
        {
          "internalType": "contract IERC20",
          "name": "token",
          "type": "address"
        },
        {
          "internalType": "uint256",
          "name": "amount",
          "type": "uint256"
        },
        {
          "internalType": "uint256",
          "name": "fee",
          "type": "uint256"
        },
        {
          "internalType": "contract ISwap",
          "name": "pool",
          "type": "address"
        },
        {
          "internalType": "uint8",
          "name": "swapTokenIndex",
          "type": "uint8"
        },
        {
          "internalType": "uint256",
          "name": "swapMinAmount",
          "type": "uint256"
        },
        {
          "internalType": "uint256",
          "name": "swapDeadline",
          "type": "uint256"
        },
        {
          "internalType": "bytes32",
          "name": "kappa",
          "type": "bytes32"
        }
      ],
      "name": "withdrawAndRemove",
      "outputs": [],
      "stateMutability": "nonpayable",
      "type": "function"
    },
    {
      "inputs": [
        {
          "internalType": "address",
          "name": "to",
          "type": "address"
        },
        {
          "internalType": "contract IERC20",
          "name": "token",
          "type": "address"
        },
        {
          "internalType": "uint256",
          "name": "amount",
          "type": "uint256"
        },
        {
          "internalType": "uint256",
          "name": "fee",
          "type": "uint256"
        },
        {
          "internalType": "bytes",
          "name": "routeraction",
          "type": "bytes"
        },
        {
          "internalType": "bytes32",
          "name": "kappa",
          "type": "bytes32"
        }
      ],
      "name": "withdrawAndSwapV2",
      "outputs": [],
      "stateMutability": "nonpayable",
      "type": "function"
    },
    {
      "inputs": [
        {
          "internalType": "contract IERC20",
          "name": "token",
          "type": "address"
        },
        {
          "internalType": "address",
          "name": "to",
          "type": "address"
        }
      ],
      "name": "withdrawFees",
      "outputs": [],
      "stateMutability": "nonpayable",
      "type": "function"
    },
    {
      "stateMutability": "payable",
      "type": "receive"
    }
  ],
  "transactionHash": "0xd715254a754fd91389e7e901ac38e53b8d731773c36bc41151ac6804d493dcb2",
  "args": [],
  "solcInputHash": "91ea4fb72c08b5e32818ff95cc165493",
  "bytecode": "0x608060405234801561001057600080fd5b50615443806100206000396000f3fe6080604052600436106102ca5760003560e01c80639010d07c11610179578063ca15c873116100d6578063e7a599981161008a578063f3befd0111610064578063f3befd0114610c60578063f3f094a114610c75578063f4fdfe4a14610cbc576102d1565b8063e7a5999814610b93578063f255527814610c10578063f36c8f5c14610c4b576102d1565b8063d547741f116100bb578063d547741f14610ad9578063d57eafac14610b12578063e00a83e014610b7e576102d1565b8063ca15c87314610a13578063ca2c890814610a3d576102d1565b8063a96e24231161012d578063b250fe6b11610112578063b250fe6b14610973578063bcaeea5e1461099d578063c78f6803146109e0576102d1565b8063a96e24231461092b578063ac8656261461095e576102d1565b806391d148541161015e57806391d1485414610876578063a217fddf146108af578063a2a2af0b146108c4576102d1565b80639010d07c146107ff57806390d250741461082f576102d1565b806336e712ed116102275780635c975abb116101db5780638129fc1c116101c05780638129fc1c1461076e578063839ed90a146107835780638456cb59146107ea576102d1565b80635c975abb146106bd578063618495b0146106d2576102d1565b806341cb87fc1161020c57806341cb87fc14610632578063498a4c2d146106655780635198c3661461067a576102d1565b806336e712ed146105c15780633f4ba83a1461061d576102d1565b8063248a9ca31161027e5780632fe87b95116102635780632fe87b951461053557806332fe7b261461057357806336568abe14610588576102d1565b8063248a9ca3146104c05780632f2ff15d146104fc576102d1565b80631bcec027116102af5780631bcec027146103805780631cf5f07f1461042257806320d7b32714610471576102d1565b8063040141e5146102d65780631735789214610307576102d1565b366102d157005b600080fd5b3480156102e257600080fd5b506102eb610d5e565b604080516001600160a01b039092168252519081900360200190f35b34801561031357600080fd5b5061037e600480360361014081101561032b57600080fd5b506001600160a01b03813581169160208101358216916040820135916060810135916080820135169060ff60a082013581169160c08101359091169060e081013590610100810135906101200135610d6d565b005b34801561038c57600080fd5b5061037e600480360360c08110156103a357600080fd5b6001600160a01b03823581169260208101359091169160408201359160608101359181019060a0810160808201356401000000008111156103e357600080fd5b8201836020820111156103f557600080fd5b8035906020019184600183028401116401000000008311171561041757600080fd5b9193509150356116ac565b34801561042e57600080fd5b5061037e600480360360a081101561044557600080fd5b506001600160a01b03813581169160208101359091169060408101359060608101359060800135611c17565b34801561047d57600080fd5b5061037e600480360360a081101561049457600080fd5b506001600160a01b03813581169160208101359091169060408101359060608101359060800135612060565b3480156104cc57600080fd5b506104ea600480360360208110156104e357600080fd5b5035612406565b60408051918252519081900360200190f35b34801561050857600080fd5b5061037e6004803603604081101561051f57600080fd5b50803590602001356001600160a01b031661241b565b34801561054157600080fd5b5061055f6004803603602081101561055857600080fd5b5035612487565b604080519115158252519081900360200190f35b34801561057f57600080fd5b506102eb61249c565b34801561059457600080fd5b5061037e600480360360408110156105ab57600080fd5b50803590602001356001600160a01b03166124ab565b3480156105cd57600080fd5b5061037e600480360360e08110156105e457600080fd5b506001600160a01b0381358116916020810135916040820135169060608101359060ff6080820135169060a08101359060c0013561250c565b34801561062957600080fd5b5061037e6126a2565b34801561063e57600080fd5b5061037e6004803603602081101561065557600080fd5b50356001600160a01b0316612727565b34801561067157600080fd5b506104ea6127bd565b34801561068657600080fd5b5061037e6004803603606081101561069d57600080fd5b506001600160a01b038135811691602081013591604090910135166127c3565b3480156106c957600080fd5b5061055f612a25565b3480156106de57600080fd5b5061037e600480360360808110156106f557600080fd5b6001600160a01b03823581169260208101359260408201359092169181019060808101606082013564010000000081111561072f57600080fd5b82018360208201111561074157600080fd5b8035906020019184600183028401116401000000008311171561076357600080fd5b509092509050612a2e565b34801561077a57600080fd5b5061037e612d57565b34801561078f57600080fd5b5061037e60048036036101008110156107a757600080fd5b506001600160a01b0381358116916020810135916040820135169060608101359060ff608082013581169160a08101359091169060c08101359060e00135612e4a565b3480156107f657600080fd5b5061037e612fd4565b34801561080b57600080fd5b506102eb6004803603604081101561082257600080fd5b5080359060200135613057565b34801561083b57600080fd5b5061037e6004803603608081101561085257600080fd5b506001600160a01b0381358116916020810135916040820135169060600135613078565b34801561088257600080fd5b5061055f6004803603604081101561089957600080fd5b50803590602001356001600160a01b031661319c565b3480156108bb57600080fd5b506104ea6131b4565b3480156108d057600080fd5b5061037e60048036036101008110156108e857600080fd5b506001600160a01b0381358116916020810135916040820135169060608101359060ff608082013581169160a08101359091169060c08101359060e001356131b9565b34801561093757600080fd5b5061037e6004803603602081101561094e57600080fd5b50356001600160a01b0316613300565b34801561096a57600080fd5b506104ea613396565b34801561097f57600080fd5b5061037e6004803603602081101561099657600080fd5b503561339b565b3480156109a957600080fd5b5061037e600480360360608110156109c057600080fd5b506001600160a01b0381358116916020810135916040909101351661341b565b3480156109ec57600080fd5b506104ea60048036036020811015610a0357600080fd5b50356001600160a01b03166136e7565b348015610a1f57600080fd5b506104ea60048036036020811015610a3657600080fd5b5035613702565b348015610a4957600080fd5b5061037e60048036036080811015610a6057600080fd5b6001600160a01b038235811692602081013592604082013590921691810190608081016060820135640100000000811115610a9a57600080fd5b820183602082011115610aac57600080fd5b80359060200191846001830284011164010000000083111715610ace57600080fd5b509092509050613719565b348015610ae557600080fd5b5061037e60048036036040811015610afc57600080fd5b50803590602001356001600160a01b03166139c9565b348015610b1e57600080fd5b5061037e6004803603610120811015610b3657600080fd5b506001600160a01b03813581169160208101358216916040820135916060810135916080820135169060ff60a0820135169060c08101359060e0810135906101000135613a22565b348015610b8a57600080fd5b506104ea613fda565b348015610b9f57600080fd5b5061037e60048036036020811015610bb657600080fd5b810190602081018135640100000000811115610bd157600080fd5b820183602082011115610be357600080fd5b80359060200191846020830284011164010000000083111715610c0557600080fd5b509092509050613fe0565b348015610c1c57600080fd5b5061037e60048036036040811015610c3357600080fd5b506001600160a01b03813581169160200135166140ad565b348015610c5757600080fd5b506104ea61423b565b348015610c6c57600080fd5b506104ea61425f565b348015610c8157600080fd5b5061037e60048036036080811015610c9857600080fd5b506001600160a01b0381358116916020810135916040820135169060600135614283565b348015610cc857600080fd5b5061037e600480360360c0811015610cdf57600080fd5b6001600160a01b03823581169260208101359091169160408201359160608101359181019060a081016080820135640100000000811115610d1f57600080fd5b820183602082011115610d3157600080fd5b80359060200191846001830284011164010000000083111715610d5357600080fd5b919350915035614402565b60cc546001600160a01b031681565b60026065541415610dc5576040805162461bcd60e51b815260206004820152601f60248201527f5265656e7472616e637947756172643a207265656e7472616e742063616c6c00604482015290519081900360640190fd5b6002606555610dd2612a25565b15610e24576040805162461bcd60e51b815260206004820152601060248201527f5061757361626c653a2070617573656400000000000000000000000000000000604482015290519081900360640190fd5b610e4e7fb5c00e6706c3d213edd70ff33717fac657eacc5fe161f07180cf1fcab13cc4cd3361319c565b610e9f576040805162461bcd60e51b815260206004820152601a60248201527f43616c6c6572206973206e6f742061206e6f64652067726f7570000000000000604482015290519081900360640190fd5b868811610ef3576040805162461bcd60e51b815260206004820152601f60248201527f416d6f756e74206d7573742062652067726561746572207468616e2066656500604482015290519081900360640190fd5b600081815260ce602052604090205460ff1615610f57576040805162461bcd60e51b815260206004820152601860248201527f4b6170706120697320616c72656164792070726573656e740000000000000000604482015290519081900360640190fd5b600081815260ce60209081526040808320805460ff191660011790556001600160a01b038c16835260c9909152902054610f91908861475b565b6001600160a01b038a16600090815260c9602052604090205560cb5415801590610fbc575060cb5447115b15610ffa5760cb546040516001600160a01b038c169180156108fc02916000818181858888f19350505050158015610ff8573d6000803e3d6000fd5b505b60006001600160a01b03871663a95b089f87876110178d8d6147b5565b6040518463ffffffff1660e01b8152600401808460ff1681526020018360ff168152602001828152602001935050505060206040518083038186803b15801561105f57600080fd5b505afa158015611073573d6000803e3d6000fd5b505050506040513d602081101561108957600080fd5b5051905083811061157c57604080517f40c10f19000000000000000000000000000000000000000000000000000000008152306004820152602481018b905290516001600160a01b038c16916340c10f1991604480830192600092919082900301818387803b1580156110fb57600080fd5b505af115801561110f573d6000803e3d6000fd5b50611128925050506001600160a01b038b16888b614812565b6001600160a01b038716639169558687876111438d8d6147b5565b88886040518663ffffffff1660e01b8152600401808660ff1681526020018560ff16815260200184815260200183815260200182815260200195505050505050602060405180830381600087803b15801561119d57600080fd5b505af19250505080156111c257506040513d60208110156111bd57600080fd5b505160015b611271576111e58b6111d48b8b6147b5565b6001600160a01b038d169190614931565b816001600160a01b038c167f4f56ec39e98539920503fd54ee56ae0cbebe9eb15aa778f18de67701eeae7c658c61121c8d8d6147b5565b604080516001600160a01b03909316835260208301919091528181018d905260ff808c1660608401528a16608083015260a0820189905260c08201889052600060e083015251908190036101000190a3611577565b6000886001600160a01b031663e4b50cb8886040518263ffffffff1660e01b8152600401808260ff16815260200191505060206040518083038186803b1580156112ba57600080fd5b505afa1580156112ce573d6000803e3d6000fd5b505050506040513d60208110156112e457600080fd5b505160cc549091506001600160a01b038083169116148015611310575060cc546001600160a01b031615155b156114d35760cc54604080517f2e1a7d4d0000000000000000000000000000000000000000000000000000000081526004810185905290516001600160a01b0390921691632e1a7d4d9160248082019260009290919082900301818387803b15801561137b57600080fd5b505af115801561138f573d6000803e3d6000fd5b5050505060008d6001600160a01b03168360405180600001905060006040518083038185875af1925050503d80600081146113e6576040519150601f19603f3d011682016040523d82523d6000602084013e6113eb565b606091505b5050905080611441576040805162461bcd60e51b815260206004820152601360248201527f4554485f5452414e534645525f4641494c454400000000000000000000000000604482015290519081900360640190fd5b848e6001600160a01b03167f4f56ec39e98539920503fd54ee56ae0cbebe9eb15aa778f18de67701eeae7c658f868f8e8e8e8e600160405180896001600160a01b031681526020018881526020018781526020018660ff1681526020018560ff16815260200184815260200183815260200182151581526020019850505050505050505060405180910390a350611574565b6114e76001600160a01b0382168e84614931565b838d6001600160a01b03167f4f56ec39e98539920503fd54ee56ae0cbebe9eb15aa778f18de67701eeae7c658e858e8d8d8d8d600160405180896001600160a01b031681526020018881526020018781526020018660ff1681526020018560ff16815260200184815260200183815260200182151581526020019850505050505050505060405180910390a35b50505b61169a565b604080517f40c10f19000000000000000000000000000000000000000000000000000000008152306004820152602481018b905290516001600160a01b038c16916340c10f1991604480830192600092919082900301818387803b1580156115e357600080fd5b505af11580156115f7573d6000803e3d6000fd5b505050506116128b6111d48a8c6147b590919063ffffffff16565b816001600160a01b038c167f4f56ec39e98539920503fd54ee56ae0cbebe9eb15aa778f18de67701eeae7c658c6116498d8d6147b5565b604080516001600160a01b03909316835260208301919091528181018d905260ff808c1660608401528a16608083015260a0820189905260c08201889052600060e083015251908190036101000190a35b50506001606555505050505050505050565b60026065541415611704576040805162461bcd60e51b815260206004820152601f60248201527f5265656e7472616e637947756172643a207265656e7472616e742063616c6c00604482015290519081900360640190fd5b6002606555611711612a25565b15611763576040805162461bcd60e51b815260206004820152601060248201527f5061757361626c653a2070617573656400000000000000000000000000000000604482015290519081900360640190fd5b61178d7fb5c00e6706c3d213edd70ff33717fac657eacc5fe161f07180cf1fcab13cc4cd3361319c565b6117de576040805162461bcd60e51b815260206004820152601a60248201527f43616c6c6572206973206e6f742061206e6f64652067726f7570000000000000604482015290519081900360640190fd5b838511611832576040805162461bcd60e51b815260206004820152601f60248201527f416d6f756e74206d7573742062652067726561746572207468616e2066656500604482015290519081900360640190fd5b600081815260ce602052604090205460ff1615611896576040805162461bcd60e51b815260206004820152601860248201527f4b6170706120697320616c72656164792070726573656e740000000000000000604482015290519081900360640190fd5b600081815260ce60209081526040808320805460ff191660011790556001600160a01b038916835260c99091529020546118d0908561475b565b6001600160a01b038716600090815260c9602052604090205560cb54158015906118fb575060cb5447115b156119545760cb546040516001600160a01b0389169190600081818185875af1925050503d806000811461194b576040519150601f19603f3d011682016040523d82523d6000602084013e611950565b606091505b5050505b604080517f40c10f190000000000000000000000000000000000000000000000000000000081523060048201526024810187905290516001600160a01b038816916340c10f1991604480830192600092919082900301818387803b1580156119bb57600080fd5b505af11580156119cf573d6000803e3d6000fd5b505060cd546119ed92506001600160a01b0389811692501687614812565b60cd546040516000916060916001600160a01b039091169086908690808383808284376040519201945060009350909150508083038183865af19150503d8060008114611a56576040519150601f19603f3d011682016040523d82523d6000602084013e611a5b565b606091505b50915091508115611b2957826001600160a01b038a167fe0f1d935d0aa903e102bb4bc4cdd52521b12f6c34d8c9642986ca850bc8650eb8a611a9d8b8b6147b5565b8a8a8a600160405180876001600160a01b031681526020018681526020018581526020018060200183151581526020018281038252858582818152602001925080828437600083820152604051601f9091017fffffffffffffffffffffffffffffffffffffffffffffffffffffffffffffffe016909201829003995090975050505050505050a3611c07565b611b4889611b3789896147b5565b6001600160a01b038b169190614931565b826001600160a01b038a167fe0f1d935d0aa903e102bb4bc4cdd52521b12f6c34d8c9642986ca850bc8650eb8a611b7f8b8b6147b5565b8a8a8a600060405180876001600160a01b031681526020018681526020018581526020018060200183151581526020018281038252858582818152602001925080828437600083820152604051601f9091017fffffffffffffffffffffffffffffffffffffffffffffffffffffffffffffffe016909201829003995090975050505050505050a35b5050600160655550505050505050565b60026065541415611c6f576040805162461bcd60e51b815260206004820152601f60248201527f5265656e7472616e637947756172643a207265656e7472616e742063616c6c00604482015290519081900360640190fd5b6002606555611c7c612a25565b15611cce576040805162461bcd60e51b815260206004820152601060248201527f5061757361626c653a2070617573656400000000000000000000000000000000604482015290519081900360640190fd5b611cf87fb5c00e6706c3d213edd70ff33717fac657eacc5fe161f07180cf1fcab13cc4cd3361319c565b611d49576040805162461bcd60e51b815260206004820152601a60248201527f43616c6c6572206973206e6f742061206e6f64652067726f7570000000000000604482015290519081900360640190fd5b818311611d9d576040805162461bcd60e51b815260206004820152601f60248201527f416d6f756e74206d7573742062652067726561746572207468616e2066656500604482015290519081900360640190fd5b600081815260ce602052604090205460ff1615611e01576040805162461bcd60e51b815260206004820152601860248201527f4b6170706120697320616c72656164792070726573656e740000000000000000604482015290519081900360640190fd5b600081815260ce60209081526040808320805460ff191660011790556001600160a01b038716835260c9909152902054611e3b908361475b565b6001600160a01b03808616600081815260c9602052604090209290925560cc5416148015611e73575060cc546001600160a01b031615155b15611fe55760cc546001600160a01b0316632e1a7d4d611e9385856147b5565b6040518263ffffffff1660e01b815260040180828152602001915050600060405180830381600087803b158015611ec957600080fd5b505af1158015611edd573d6000803e3d6000fd5b506000925050506001600160a01b038616611ef885856147b5565b604051600081818185875af1925050503d8060008114611f34576040519150601f19603f3d011682016040523d82523d6000602084013e611f39565b606091505b5050905080611f8f576040805162461bcd60e51b815260206004820152601360248201527f4554485f5452414e534645525f4641494c454400000000000000000000000000604482015290519081900360640190fd5b604080516001600160a01b03878116825260208201879052818301869052915184928916917f8b0afdc777af6946e53045a4a75212769075d30455a212ac51c9b16f9c5c9b26919081900360600190a350612054565b604080516001600160a01b03868116825260208201869052818301859052915183928816917f8b0afdc777af6946e53045a4a75212769075d30455a212ac51c9b16f9c5c9b26919081900360600190a36120548561204385856147b5565b6001600160a01b0387169190614931565b50506001606555505050565b600260655414156120b8576040805162461bcd60e51b815260206004820152601f60248201527f5265656e7472616e637947756172643a207265656e7472616e742063616c6c00604482015290519081900360640190fd5b60026065556120c5612a25565b15612117576040805162461bcd60e51b815260206004820152601060248201527f5061757361626c653a2070617573656400000000000000000000000000000000604482015290519081900360640190fd5b6121417fb5c00e6706c3d213edd70ff33717fac657eacc5fe161f07180cf1fcab13cc4cd3361319c565b612192576040805162461bcd60e51b815260206004820152601a60248201527f43616c6c6572206973206e6f742061206e6f64652067726f7570000000000000604482015290519081900360640190fd5b8183116121e6576040805162461bcd60e51b815260206004820152601f60248201527f416d6f756e74206d7573742062652067726561746572207468616e2066656500604482015290519081900360640190fd5b600081815260ce602052604090205460ff161561224a576040805162461bcd60e51b815260206004820152601860248201527f4b6170706120697320616c72656164792070726573656e740000000000000000604482015290519081900360640190fd5b600081815260ce60209081526040808320805460ff191660011790556001600160a01b038716835260c9909152902054612284908361475b565b6001600160a01b03808616600090815260c96020526040902091909155819086167fbf14b9fde87f6e1c29a7e0787ad1d0d64b4648d8ae63da21524d9fd0f283dd38866122d187876147b5565b604080516001600160a01b0390931683526020830191909152818101879052519081900360600190a3604080517f40c10f190000000000000000000000000000000000000000000000000000000081523060048201526024810185905290516001600160a01b038616916340c10f1991604480830192600092919082900301818387803b15801561236157600080fd5b505af1158015612375573d6000803e3d6000fd5b505050506123908561204384866147b590919063ffffffff16565b60cb54158015906123a2575060cb5447115b156120545760cb546040516001600160a01b0387169190600081818185875af1925050503d80600081146123f2576040519150601f19603f3d011682016040523d82523d6000602084013e6123f7565b606091505b50505050506001606555505050565b60009081526033602052604090206002015490565b60008281526033602052604090206002015461243e906124396149b1565b61319c565b6124795760405162461bcd60e51b815260040180806020018281038252602f815260200180615302602f913960400191505060405180910390fd5b61248382826149b5565b5050565b600090815260ce602052604090205460ff1690565b60cd546001600160a01b031681565b6124b36149b1565b6001600160a01b0316816001600160a01b0316146125025760405162461bcd60e51b815260040180806020018281038252602f8152602001806153df602f913960400191505060405180910390fd5b6124838282614a1e565b60026065541415612564576040805162461bcd60e51b815260206004820152601f60248201527f5265656e7472616e637947756172643a207265656e7472616e742063616c6c00604482015290519081900360640190fd5b6002606555612571612a25565b156125c3576040805162461bcd60e51b815260206004820152601060248201527f5061757361626c653a2070617573656400000000000000000000000000000000604482015290519081900360640190fd5b604080518781526001600160a01b03878116602083015281830187905260ff861660608301526080820185905260a082018490529151918916917f9a7024cde1920aa50cdde09ca396229e8c4d530d5cfdc6233590def70a94408c9181900360c00190a2604080517f79cc67900000000000000000000000000000000000000000000000000000000081523360048201526024810186905290516001600160a01b038716916379cc679091604480830192600092919082900301818387803b15801561268e57600080fd5b505af115801561169a573d6000803e3d6000fd5b6126cc7f71840dc4906352362b0cdaf79870196c8e42acafade72d5d5a6d59291253ceb13361319c565b61271d576040805162461bcd60e51b815260206004820152600e60248201527f4e6f7420676f7665726e616e6365000000000000000000000000000000000000604482015290519081900360640190fd5b612725614a87565b565b61273260003361319c565b612783576040805162461bcd60e51b815260206004820152600960248201527f4e6f742061646d696e0000000000000000000000000000000000000000000000604482015290519081900360640190fd5b60cd80547fffffffffffffffffffffffff0000000000000000000000000000000000000000166001600160a01b0392909216919091179055565b60ca5481565b6002606554141561281b576040805162461bcd60e51b815260206004820152601f60248201527f5265656e7472616e637947756172643a207265656e7472616e742063616c6c00604482015290519081900360640190fd5b6002606555612828612a25565b1561287a576040805162461bcd60e51b815260206004820152601060248201527f5061757361626c653a2070617573656400000000000000000000000000000000604482015290519081900360640190fd5b604080517fdd62ed3e00000000000000000000000000000000000000000000000000000000815233600482015230602482015290516000916001600160a01b0384169163dd62ed3e91604480820192602092909190829003018186803b1580156128e357600080fd5b505afa1580156128f7573d6000803e3d6000fd5b505050506040513d602081101561290d57600080fd5b5051604080517f70a0823100000000000000000000000000000000000000000000000000000000815233600482015290519192506000916001600160a01b038516916370a08231916024808301926020929190829003018186803b15801561297457600080fd5b505afa158015612988573d6000803e3d6000fd5b505050506040513d602081101561299e57600080fd5b5051905060008183116129b157826129b3565b815b604080518781526001600160a01b0387811660208301528183018490529151929350908816917fda5273705dbef4bf1b902a131c2eac086b7e1476a8ab0cb4da08af1fe1bd8e3b9181900360600190a2612a186001600160a01b038516333084614b30565b5050600160655550505050565b60975460ff1690565b60026065541415612a86576040805162461bcd60e51b815260206004820152601f60248201527f5265656e7472616e637947756172643a207265656e7472616e742063616c6c00604482015290519081900360640190fd5b6002606555612a93612a25565b15612ae5576040805162461bcd60e51b815260206004820152601060248201527f5061757361626c653a2070617573656400000000000000000000000000000000604482015290519081900360640190fd5b604080517fdd62ed3e00000000000000000000000000000000000000000000000000000000815233600482015230602482015290516000916001600160a01b0386169163dd62ed3e91604480820192602092909190829003018186803b158015612b4e57600080fd5b505afa158015612b62573d6000803e3d6000fd5b505050506040513d6020811015612b7857600080fd5b5051604080517f70a0823100000000000000000000000000000000000000000000000000000000815233600482015290519192506000916001600160a01b038716916370a08231916024808301926020929190829003018186803b158015612bdf57600080fd5b505afa158015612bf3573d6000803e3d6000fd5b505050506040513d6020811015612c0957600080fd5b505190506000818311612c1c5782612c1e565b815b9050876001600160a01b03167f6e51ed0560ad7bd9e972843b386892bf88bb2733e5da172aa2d2e0183db80335888884898960405180868152602001856001600160a01b03168152602001848152602001806020018281038252848482818152602001925080828437600083820152604051601f9091017fffffffffffffffffffffffffffffffffffffffffffffffffffffffffffffffe0169092018290039850909650505050505050a2604080517f79cc67900000000000000000000000000000000000000000000000000000000081523360048201526024810183905290516001600160a01b038816916379cc679091604480830192600092919082900301818387803b158015612d3057600080fd5b505af1158015612d44573d6000803e3d6000fd5b5050600160655550505050505050505050565b600054610100900460ff1680612d705750612d70614bb8565b80612d7e575060005460ff16155b612db95760405162461bcd60e51b815260040180806020018281038252602e815260200180615387602e913960400191505060405180910390fd5b600054610100900460ff16158015612e01576000805460ff197fffffffffffffffffffffffffffffffffffffffffffffffffffffffffffff00ff909116610100171660011790555b4360ca55612e10600033612479565b612e18614bc9565b8015612e4757600080547fffffffffffffffffffffffffffffffffffffffffffffffffffffffffffff00ff1690555b50565b60026065541415612ea2576040805162461bcd60e51b815260206004820152601f60248201527f5265656e7472616e637947756172643a207265656e7472616e742063616c6c00604482015290519081900360640190fd5b6002606555612eaf612a25565b15612f01576040805162461bcd60e51b815260206004820152601060248201527f5061757361626c653a2070617573656400000000000000000000000000000000604482015290519081900360640190fd5b604080518881526001600160a01b03888116602083015281830188905260ff80881660608401528616608083015260a0820185905260c082018490529151918a16917f91f25e9be0134ec851830e0e76dc71e06f9dade75a9b84e9524071dbbc3194259181900360e00190a2604080517f79cc67900000000000000000000000000000000000000000000000000000000081523360048201526024810187905290516001600160a01b038816916379cc679091604480830192600092919082900301818387803b158015612d3057600080fd5b612ffe7f71840dc4906352362b0cdaf79870196c8e42acafade72d5d5a6d59291253ceb13361319c565b61304f576040805162461bcd60e51b815260206004820152600e60248201527f4e6f7420676f7665726e616e6365000000000000000000000000000000000000604482015290519081900360640190fd5b612725614c83565b600082815260336020526040812061306f9083614d13565b90505b92915050565b600260655414156130d0576040805162461bcd60e51b815260206004820152601f60248201527f5265656e7472616e637947756172643a207265656e7472616e742063616c6c00604482015290519081900360640190fd5b60026065556130dd612a25565b1561312f576040805162461bcd60e51b815260206004820152601060248201527f5061757361626c653a2070617573656400000000000000000000000000000000604482015290519081900360640190fd5b604080518481526001600160a01b0384811660208301528183018490529151918616917fda5273705dbef4bf1b902a131c2eac086b7e1476a8ab0cb4da08af1fe1bd8e3b9181900360600190a26131916001600160a01b038316333084614b30565b505060016065555050565b600082815260336020526040812061306f9083614d1f565b600081565b60026065541415613211576040805162461bcd60e51b815260206004820152601f60248201527f5265656e7472616e637947756172643a207265656e7472616e742063616c6c00604482015290519081900360640190fd5b600260655561321e612a25565b15613270576040805162461bcd60e51b815260206004820152601060248201527f5061757361626c653a2070617573656400000000000000000000000000000000604482015290519081900360640190fd5b604080518881526001600160a01b03888116602083015281830188905260ff80881660608401528616608083015260a0820185905260c082018490529151918a16917f79c15604b92ef54d3f61f0c40caab8857927ca3d5092367163b4562c1699eb5f9181900360e00190a26132f16001600160a01b038716333088614b30565b50506001606555505050505050565b61330b60003361319c565b61335c576040805162461bcd60e51b815260206004820152600960248201527f4e6f742061646d696e0000000000000000000000000000000000000000000000604482015290519081900360640190fd5b60cc80547fffffffffffffffffffffffff0000000000000000000000000000000000000000166001600160a01b0392909216919091179055565b600681565b6133c57f71840dc4906352362b0cdaf79870196c8e42acafade72d5d5a6d59291253ceb13361319c565b613416576040805162461bcd60e51b815260206004820152600e60248201527f4e6f7420676f7665726e616e6365000000000000000000000000000000000000604482015290519081900360640190fd5b60cb55565b60026065541415613473576040805162461bcd60e51b815260206004820152601f60248201527f5265656e7472616e637947756172643a207265656e7472616e742063616c6c00604482015290519081900360640190fd5b6002606555613480612a25565b156134d2576040805162461bcd60e51b815260206004820152601060248201527f5061757361626c653a2070617573656400000000000000000000000000000000604482015290519081900360640190fd5b604080517fdd62ed3e00000000000000000000000000000000000000000000000000000000815233600482015230602482015290516000916001600160a01b0384169163dd62ed3e91604480820192602092909190829003018186803b15801561353b57600080fd5b505afa15801561354f573d6000803e3d6000fd5b505050506040513d602081101561356557600080fd5b5051604080517f70a0823100000000000000000000000000000000000000000000000000000000815233600482015290519192506000916001600160a01b038516916370a08231916024808301926020929190829003018186803b1580156135cc57600080fd5b505afa1580156135e0573d6000803e3d6000fd5b505050506040513d60208110156135f657600080fd5b505190506000818311613609578261360b565b815b604080518781526001600160a01b0387811660208301528183018490529151929350908816917fdc5bad4651c5fbe9977a696aadc65996c468cde1448dd468ec0d83bf61c4b57c9181900360600190a2604080517f79cc67900000000000000000000000000000000000000000000000000000000081523360048201526024810183905290516001600160a01b038616916379cc679091604480830192600092919082900301818387803b1580156136c257600080fd5b505af11580156136d6573d6000803e3d6000fd5b505060016065555050505050505050565b6001600160a01b0316600090815260c9602052604090205490565b600081815260336020526040812061307290614d34565b60026065541415613771576040805162461bcd60e51b815260206004820152601f60248201527f5265656e7472616e637947756172643a207265656e7472616e742063616c6c00604482015290519081900360640190fd5b600260655561377e612a25565b156137d0576040805162461bcd60e51b815260206004820152601060248201527f5061757361626c653a2070617573656400000000000000000000000000000000604482015290519081900360640190fd5b604080517fdd62ed3e00000000000000000000000000000000000000000000000000000000815233600482015230602482015290516000916001600160a01b0386169163dd62ed3e91604480820192602092909190829003018186803b15801561383957600080fd5b505afa15801561384d573d6000803e3d6000fd5b505050506040513d602081101561386357600080fd5b5051604080517f70a0823100000000000000000000000000000000000000000000000000000000815233600482015290519192506000916001600160a01b038716916370a08231916024808301926020929190829003018186803b1580156138ca57600080fd5b505afa1580156138de573d6000803e3d6000fd5b505050506040513d60208110156138f457600080fd5b5051905060008183116139075782613909565b815b9050876001600160a01b03167f638eeca983cadf8be0e2b4cb30b5c98580a266e81c8829448b0073509aeb3c36888884898960405180868152602001856001600160a01b03168152602001848152602001806020018281038252848482818152602001925080828437600083820152604051601f9091017fffffffffffffffffffffffffffffffffffffffffffffffffffffffffffffffe0169092018290039850909650505050505050a26123f76001600160a01b038716333084614b30565b6000828152603360205260409020600201546139e7906124396149b1565b6125025760405162461bcd60e51b81526004018080602001828103825260308152602001806153576030913960400191505060405180910390fd5b60026065541415613a7a576040805162461bcd60e51b815260206004820152601f60248201527f5265656e7472616e637947756172643a207265656e7472616e742063616c6c00604482015290519081900360640190fd5b6002606555613a87612a25565b15613ad9576040805162461bcd60e51b815260206004820152601060248201527f5061757361626c653a2070617573656400000000000000000000000000000000604482015290519081900360640190fd5b613b037fb5c00e6706c3d213edd70ff33717fac657eacc5fe161f07180cf1fcab13cc4cd3361319c565b613b54576040805162461bcd60e51b815260206004820152601a60248201527f43616c6c6572206973206e6f742061206e6f64652067726f7570000000000000604482015290519081900360640190fd5b858711613ba8576040805162461bcd60e51b815260206004820152601f60248201527f416d6f756e74206d7573742062652067726561746572207468616e2066656500604482015290519081900360640190fd5b600081815260ce602052604090205460ff1615613c0c576040805162461bcd60e51b815260206004820152601860248201527f4b6170706120697320616c72656164792070726573656e740000000000000000604482015290519081900360640190fd5b600081815260ce60209081526040808320805460ff191660011790556001600160a01b038b16835260c9909152902054613c46908761475b565b6001600160a01b03808a16600090815260c96020526040812092909255861663342a87a1613c748a8a6147b5565b876040518363ffffffff1660e01b8152600401808381526020018260ff1681526020019250505060206040518083038186803b158015613cb357600080fd5b505afa158015613cc7573d6000803e3d6000fd5b505050506040513d6020811015613cdd57600080fd5b50519050838110613f3d57613d0786613cf68a8a6147b5565b6001600160a01b038c169190614812565b6001600160a01b038616633e3a1560613d208a8a6147b5565b8787876040518563ffffffff1660e01b8152600401808581526020018460ff168152602001838152602001828152602001945050505050602060405180830381600087803b158015613d7157600080fd5b505af1925050508015613d9657506040513d6020811015613d9157600080fd5b505160015b613e3c57613db98a613da88a8a6147b5565b6001600160a01b038c169190614931565b816001600160a01b038b167fc1a608d0f8122d014d03cc915a91d98cef4ebaf31ea3552320430cba05211b6d8b613df08c8c6147b5565b604080516001600160a01b03909316835260208301919091528181018c905260ff8a1660608301526080820189905260a08201889052600060c0830152519081900360e00190a3613f38565b6000876001600160a01b03166382b86600886040518263ffffffff1660e01b8152600401808260ff16815260200191505060206040518083038186803b158015613e8557600080fd5b505afa158015613e99573d6000803e3d6000fd5b505050506040513d6020811015613eaf57600080fd5b50519050613ec76001600160a01b0382168d84614931565b604080516001600160a01b038d81168252602082018590528183018c905260ff8a1660608301526080820189905260a08201889052600160c0830152915186928f16917fc1a608d0f8122d014d03cc915a91d98cef4ebaf31ea3552320430cba05211b6d919081900360e00190a350505b6136d6565b613f4b8a613da88a8a6147b5565b816001600160a01b038b167fc1a608d0f8122d014d03cc915a91d98cef4ebaf31ea3552320430cba05211b6d8b613f828c8c6147b5565b604080516001600160a01b03909316835260208301919091528181018c905260ff8a1660608301526080820189905260a08201889052600060c0830152519081900360e00190a3505060016065555050505050505050565b60cb5481565b61400a7f71840dc4906352362b0cdaf79870196c8e42acafade72d5d5a6d59291253ceb13361319c565b61405b576040805162461bcd60e51b815260206004820152600e60248201527f4e6f7420676f7665726e616e6365000000000000000000000000000000000000604482015290519081900360640190fd5b60005b818110156140a857600160ce600085858581811061407857fe5b60209081029290920135835250810191909152604001600020805460ff191691151591909117905560010161405e565b505050565b6140b5612a25565b15614107576040805162461bcd60e51b815260206004820152601060248201527f5061757361626c653a2070617573656400000000000000000000000000000000604482015290519081900360640190fd5b6141317f71840dc4906352362b0cdaf79870196c8e42acafade72d5d5a6d59291253ceb13361319c565b614182576040805162461bcd60e51b815260206004820152600e60248201527f4e6f7420676f7665726e616e6365000000000000000000000000000000000000604482015290519081900360640190fd5b6001600160a01b0381166141dd576040805162461bcd60e51b815260206004820152601060248201527f4164647265737320697320307830303000000000000000000000000000000000604482015290519081900360640190fd5b6001600160a01b038216600090815260c9602052604090205415612483576001600160a01b038216600081815260c9602052604090205461422091908390614931565b506001600160a01b0316600090815260c96020526040812055565b7f71840dc4906352362b0cdaf79870196c8e42acafade72d5d5a6d59291253ceb181565b7fb5c00e6706c3d213edd70ff33717fac657eacc5fe161f07180cf1fcab13cc4cd81565b600260655414156142db576040805162461bcd60e51b815260206004820152601f60248201527f5265656e7472616e637947756172643a207265656e7472616e742063616c6c00604482015290519081900360640190fd5b60026065556142e8612a25565b1561433a576040805162461bcd60e51b815260206004820152601060248201527f5061757361626c653a2070617573656400000000000000000000000000000000604482015290519081900360640190fd5b604080518481526001600160a01b0384811660208301528183018490529151918616917fdc5bad4651c5fbe9977a696aadc65996c468cde1448dd468ec0d83bf61c4b57c9181900360600190a2604080517f79cc67900000000000000000000000000000000000000000000000000000000081523360048201526024810183905290516001600160a01b038416916379cc679091604480830192600092919082900301818387803b1580156143ee57600080fd5b505af11580156132f1573d6000803e3d6000fd5b6002606554141561445a576040805162461bcd60e51b815260206004820152601f60248201527f5265656e7472616e637947756172643a207265656e7472616e742063616c6c00604482015290519081900360640190fd5b6002606555614467612a25565b156144b9576040805162461bcd60e51b815260206004820152601060248201527f5061757361626c653a2070617573656400000000000000000000000000000000604482015290519081900360640190fd5b6144e37fb5c00e6706c3d213edd70ff33717fac657eacc5fe161f07180cf1fcab13cc4cd3361319c565b614534576040805162461bcd60e51b815260206004820152601a60248201527f43616c6c6572206973206e6f742061206e6f64652067726f7570000000000000604482015290519081900360640190fd5b838511614588576040805162461bcd60e51b815260206004820152601f60248201527f416d6f756e74206d7573742062652067726561746572207468616e2066656500604482015290519081900360640190fd5b600081815260ce602052604090205460ff16156145ec576040805162461bcd60e51b815260206004820152601860248201527f4b6170706120697320616c72656164792070726573656e740000000000000000604482015290519081900360640190fd5b600081815260ce60209081526040808320805460ff191660011790556001600160a01b038916835260c9909152902054614626908561475b565b6001600160a01b03808816600090815260c9602052604090209190915560cd54614666911661465587876147b5565b6001600160a01b0389169190614812565b60cd546040516000916060916001600160a01b039091169086908690808383808284376040519201945060009350909150508083038183865af19150503d80600081146146cf576040519150601f19603f3d011682016040523d82523d6000602084013e6146d4565b606091505b5091509150811561471657826001600160a01b038a167f7b9a2613fdac28737eb364f5865c1de719fc4e174b44c4f8c8f5f965edfb88c88a611a9d8b8b6147b5565b61472489611b3789896147b5565b826001600160a01b038a167f7b9a2613fdac28737eb364f5865c1de719fc4e174b44c4f8c8f5f965edfb88c88a611b7f8b8b6147b5565b60008282018381101561306f576040805162461bcd60e51b815260206004820152601b60248201527f536166654d6174683a206164646974696f6e206f766572666c6f770000000000604482015290519081900360640190fd5b60008282111561480c576040805162461bcd60e51b815260206004820152601e60248201527f536166654d6174683a207375627472616374696f6e206f766572666c6f770000604482015290519081900360640190fd5b50900390565b60006148a882856001600160a01b031663dd62ed3e30876040518363ffffffff1660e01b815260040180836001600160a01b03168152602001826001600160a01b031681526020019250505060206040518083038186803b15801561487657600080fd5b505afa15801561488a573d6000803e3d6000fd5b505050506040513d60208110156148a057600080fd5b50519061475b565b604080516001600160a01b038616602482015260448082018490528251808303909101815260649091019091526020810180517bffffffffffffffffffffffffffffffffffffffffffffffffffffffff167f095ea7b30000000000000000000000000000000000000000000000000000000017905290915061492b908590614d3f565b50505050565b604080516001600160a01b038416602482015260448082018490528251808303909101815260649091019091526020810180517bffffffffffffffffffffffffffffffffffffffffffffffffffffffff167fa9059cbb000000000000000000000000000000000000000000000000000000001790526140a8908490614d3f565b3390565b60008281526033602052604090206149cd9082614df0565b15612483576149da6149b1565b6001600160a01b0316816001600160a01b0316837f2f8788117e7eff1d82e926ec794901d17c78024a50270940304540a733656f0d60405160405180910390a45050565b6000828152603360205260409020614a369082614e05565b1561248357614a436149b1565b6001600160a01b0316816001600160a01b0316837ff6391f5c32d9c69d2a47ea670b442974b53935d1edc7fd64eb21e047a839171b60405160405180910390a45050565b614a8f612a25565b614ae0576040805162461bcd60e51b815260206004820152601460248201527f5061757361626c653a206e6f7420706175736564000000000000000000000000604482015290519081900360640190fd5b6097805460ff191690557f5db9ee0a495bf2e6ff9c91a7834c1ba4fdd244a5e8aa4e537bd38aeae4b073aa614b136149b1565b604080516001600160a01b039092168252519081900360200190a1565b604080516001600160a01b0380861660248301528416604482015260648082018490528251808303909101815260849091019091526020810180517bffffffffffffffffffffffffffffffffffffffffffffffffffffffff167f23b872dd0000000000000000000000000000000000000000000000000000000017905261492b908590614d3f565b6000614bc330614e1a565b15905090565b600054610100900460ff1680614be25750614be2614bb8565b80614bf0575060005460ff16155b614c2b5760405162461bcd60e51b815260040180806020018281038252602e815260200180615387602e913960400191505060405180910390fd5b600054610100900460ff16158015614c73576000805460ff197fffffffffffffffffffffffffffffffffffffffffffffffffffffffffffff00ff909116610100171660011790555b614c7b614e20565b612e18614e20565b614c8b612a25565b15614cdd576040805162461bcd60e51b815260206004820152601060248201527f5061757361626c653a2070617573656400000000000000000000000000000000604482015290519081900360640190fd5b6097805460ff191660011790557f62e78cea01bee320cd4e420270b5ea74000d11b0c9f74754ebdbfc544b05a258614b136149b1565b600061306f8383614efa565b600061306f836001600160a01b038416614f5e565b600061307282614f76565b6060614d94826040518060400160405280602081526020017f5361666545524332303a206c6f772d6c6576656c2063616c6c206661696c6564815250856001600160a01b0316614f7a9092919063ffffffff16565b8051909150156140a857808060200190516020811015614db357600080fd5b50516140a85760405162461bcd60e51b815260040180806020018281038252602a8152602001806153b5602a913960400191505060405180910390fd5b600061306f836001600160a01b038416614f93565b600061306f836001600160a01b038416614fdd565b3b151590565b600054610100900460ff1680614e395750614e39614bb8565b80614e47575060005460ff16155b614e825760405162461bcd60e51b815260040180806020018281038252602e815260200180615387602e913960400191505060405180910390fd5b600054610100900460ff16158015612e18576000805460ff197fffffffffffffffffffffffffffffffffffffffffffffffffffffffffffff00ff909116610100171660011790558015612e4757600080547fffffffffffffffffffffffffffffffffffffffffffffffffffffffffffff00ff16905550565b81546000908210614f3c5760405162461bcd60e51b81526004018080602001828103825260228152602001806152e06022913960400191505060405180910390fd5b826000018281548110614f4b57fe5b9060005260206000200154905092915050565b60009081526001919091016020526040902054151590565b5490565b6060614f8984846000856150c1565b90505b9392505050565b6000614f9f8383614f5e565b614fd557508154600181810184556000848152602080822090930184905584548482528286019093526040902091909155613072565b506000613072565b600081815260018301602052604081205480156150b75783547fffffffffffffffffffffffffffffffffffffffffffffffffffffffffffffffff808301919081019060009087908390811061502e57fe5b906000526020600020015490508087600001848154811061504b57fe5b60009182526020808320909101929092558281526001898101909252604090209084019055865487908061507b57fe5b60019003818190600052602060002001600090559055866001016000878152602001908152602001600020600090556001945050505050613072565b6000915050613072565b6060824710156151025760405162461bcd60e51b81526004018080602001828103825260268152602001806153316026913960400191505060405180910390fd5b61510b85614e1a565b61515c576040805162461bcd60e51b815260206004820152601d60248201527f416464726573733a2063616c6c20746f206e6f6e2d636f6e7472616374000000604482015290519081900360640190fd5b60006060866001600160a01b031685876040518082805190602001908083835b602083106151b957805182527fffffffffffffffffffffffffffffffffffffffffffffffffffffffffffffffe0909201916020918201910161517c565b6001836020036101000a03801982511681845116808217855250505050505090500191505060006040518083038185875af1925050503d806000811461521b576040519150601f19603f3d011682016040523d82523d6000602084013e615220565b606091505b509150915061523082828661523b565b979650505050505050565b6060831561524a575081614f8c565b82511561525a5782518084602001fd5b8160405162461bcd60e51b81526004018080602001828103825283818151815260200191508051906020019080838360005b838110156152a457818101518382015260200161528c565b50505050905090810190601f1680156152d15780820380516001836020036101000a031916815260200191505b509250505060405180910390fdfe456e756d657261626c655365743a20696e646578206f7574206f6620626f756e6473416363657373436f6e74726f6c3a2073656e646572206d75737420626520616e2061646d696e20746f206772616e74416464726573733a20696e73756666696369656e742062616c616e636520666f722063616c6c416363657373436f6e74726f6c3a2073656e646572206d75737420626520616e2061646d696e20746f207265766f6b65496e697469616c697a61626c653a20636f6e747261637420697320616c726561647920696e697469616c697a65645361666545524332303a204552433230206f7065726174696f6e20646964206e6f742073756363656564416363657373436f6e74726f6c3a2063616e206f6e6c792072656e6f756e636520726f6c657320666f722073656c66a26469706673582212208219155ad1f02d61b350510a43cb373b91461abb343ac5b4c8f2f7dd321584c564736f6c634300060c0033",
  "devdoc": {
    "kind": "dev",
    "methods": {
      "deposit(address,uint256,address,uint256)": {
        "params": {
          "amount": "Amount in native token decimals to transfer cross-chain pre-fees*",
          "chainId": "which chain to bridge assets onto",
          "to": "address on other chain to bridge assets to",
          "token": "ERC20 compatible token to deposit into the bridge"
        }
      },
      "depositAndSwap(address,uint256,address,uint256,uint8,uint8,uint256,uint256)": {
        "params": {
          "amount": "Amount in native token decimals to transfer cross-chain pre-fees",
          "chainId": "which chain to bridge assets onto",
          "deadline": "latest timestamp to accept this transaction*",
          "minDy": "the min amount the user would like to receive, or revert to only minting the SynERC20 token crosschain.",
          "to": "address on other chain to bridge assets to",
          "token": "ERC20 compatible token to deposit into the bridge",
          "tokenIndexFrom": "the token the user wants to swap from",
          "tokenIndexTo": "the token the user wants to swap to"
        }
      },
      "depositMax(address,uint256,address)": {
        "params": {
          "chainId": "which chain to bridge assets onto",
          "to": "address on other chain to bridge assets to",
          "token": "ERC20 compatible token to deposit into the bridge*"
        }
      },
      "depositMaxAndSwapV2(address,uint256,address,bytes)": {
        "params": {
          "chainId": "which chain to bridge assets onto",
          "routeraction": "tx data to call router with on dest chain*",
          "to": "address on other chain to bridge assets to",
          "token": "ERC20 compatible token to deposit into the bridge"
        }
      },
      "getRoleAdmin(bytes32)": {
        "details": "Returns the admin role that controls `role`. See {grantRole} and {revokeRole}. To change a role's admin, use {_setRoleAdmin}."
      },
      "getRoleMember(bytes32,uint256)": {
        "details": "Returns one of the accounts that have `role`. `index` must be a value between 0 and {getRoleMemberCount}, non-inclusive. Role bearers are not sorted in any particular way, and their ordering may change at any point. WARNING: When using {getRoleMember} and {getRoleMemberCount}, make sure you perform all queries on the same block. See the following https://forum.openzeppelin.com/t/iterating-over-elements-on-enumerableset-in-openzeppelin-contracts/2296[forum post] for more information."
      },
      "getRoleMemberCount(bytes32)": {
        "details": "Returns the number of accounts that have `role`. Can be used together with {getRoleMember} to enumerate all bearers of a role."
      },
      "grantRole(bytes32,address)": {
        "details": "Grants `role` to `account`. If `account` had not been already granted `role`, emits a {RoleGranted} event. Requirements: - the caller must have ``role``'s admin role."
      },
      "hasRole(bytes32,address)": {
        "details": "Returns `true` if `account` has been granted `role`."
      },
      "mint(address,address,uint256,uint256,bytes32)": {
        "details": "This means the SynapseBridge.sol contract must have minter access to the token attempting to be minted",
        "params": {
          "amount": "Amount in native token decimals to transfer cross-chain post-fees",
          "fee": "Amount in native token decimals to save to the contract as fees",
          "kappa": "kappa*",
          "to": "address on other chain to redeem underlying assets to",
          "token": "ERC20 compatible token to deposit into the bridge"
        }
      },
      "mintAndSwap(address,address,uint256,uint256,address,uint8,uint8,uint256,uint256,bytes32)": {
        "details": "This means the BridgeDeposit.sol contract must have minter access to the token attempting to be minted",
        "params": {
          "amount": "Amount in native token decimals to transfer cross-chain post-fees",
          "deadline": "Epoch time of the deadline that the swap is allowed to be executed.",
          "fee": "Amount in native token decimals to save to the contract as fees",
          "kappa": "kappa*",
          "minDy": "Minumum amount (in final asset decimals) that must be swapped for, otherwise the user will receive the SynERC20.",
          "pool": "Destination chain's pool to use to swap SynERC20 -> Asset. The nodes determine this by using PoolConfig.sol.",
          "to": "address on other chain to redeem underlying assets to",
          "token": "ERC20 compatible token to deposit into the bridge",
          "tokenIndexFrom": "Index of the SynERC20 asset in the pool",
          "tokenIndexTo": "Index of the desired final asset"
        }
      },
      "mintAndSwapV2(address,address,uint256,uint256,bytes,bytes32)": {
        "details": "This means the BridgeDeposit.sol contract must have minter access to the token attempting to be minted",
        "params": {
          "amount": "Amount in native token decimals to transfer cross-chain post-fees",
          "fee": "Amount in native token decimals to save to the contract as fees",
          "kappa": "kappa*",
          "routeraction": "calldata from origin transaction to call router with",
          "to": "address on other chain to redeem underlying assets to",
          "token": "ERC20 compatible token to deposit into the bridge"
        }
      },
      "paused()": {
        "details": "Returns true if the contract is paused, and false otherwise."
      },
      "redeem(address,uint256,address,uint256)": {
        "params": {
          "amount": "Amount in native token decimals to transfer cross-chain pre-fees*",
          "chainId": "which underlying chain to bridge assets onto",
          "to": "address on other chain to redeem underlying assets to",
          "token": "ERC20 compatible token to deposit into the bridge"
        }
      },
      "redeemAndRemove(address,uint256,address,uint256,uint8,uint256,uint256)": {
        "params": {
          "amount": "Amount in native token decimals to transfer cross-chain pre-fees",
          "chainId": "which underlying chain to bridge assets onto",
          "swapDeadline": "Specificies the deadline that the nodes are allowed to try to redeem/swap the LP token*",
          "swapMinAmount": "Specifies the minimum amount of the underlying asset needed for the nodes to execute the redeem/swap",
          "swapTokenIndex": "Specifies which of the underlying LP assets the nodes should attempt to redeem for",
          "to": "address on other chain to redeem underlying assets to",
          "token": "ERC20 compatible token to deposit into the bridge"
        }
      },
      "redeemAndSwap(address,uint256,address,uint256,uint8,uint8,uint256,uint256)": {
        "params": {
          "amount": "Amount in native token decimals to transfer cross-chain pre-fees",
          "chainId": "which underlying chain to bridge assets onto",
          "deadline": "latest timestamp to accept this transaction*",
          "minDy": "the min amount the user would like to receive, or revert to only minting the SynERC20 token crosschain.",
          "to": "address on other chain to redeem underlying assets to",
          "token": "ERC20 compatible token to deposit into the bridge",
          "tokenIndexFrom": "the token the user wants to swap from",
          "tokenIndexTo": "the token the user wants to swap to"
        }
      },
      "redeemMax(address,uint256,address)": {
        "params": {
          "chainId": "which underlying chain to bridge assets onto",
          "to": "address on other chain to redeem underlying assets to",
          "token": "ERC20 compatible token to deposit into the bridge*"
        }
      },
      "redeemMaxAndSwapV2(address,uint256,address,bytes)": {
        "params": {
          "chainId": "which underlying chain to bridge assets onto",
          "to": "address on other chain to redeem underlying assets to",
          "token": "ERC20 compatible token to deposit into the bridge*"
        }
      },
      "renounceRole(bytes32,address)": {
        "details": "Revokes `role` from the calling account. Roles are often managed via {grantRole} and {revokeRole}: this function's purpose is to provide a mechanism for accounts to lose their privileges if they are compromised (such as when a trusted device is misplaced). If the calling account had been granted `role`, emits a {RoleRevoked} event. Requirements: - the caller must be `account`."
      },
      "revokeRole(bytes32,address)": {
        "details": "Revokes `role` from `account`. If `account` had been granted `role`, emits a {RoleRevoked} event. Requirements: - the caller must have ``role``'s admin role."
      },
      "withdraw(address,address,uint256,uint256,bytes32)": {
        "params": {
          "amount": "Amount in native token decimals to withdraw",
          "fee": "Amount in native token decimals to save to the contract as fees",
          "kappa": "kappa*",
          "to": "address on chain to send underlying assets to",
          "token": "ERC20 compatible token to withdraw from the bridge"
        }
      },
      "withdrawAndRemove(address,address,uint256,uint256,address,uint8,uint256,uint256,bytes32)": {
        "params": {
          "amount": "Amount in native token decimals to withdraw",
          "fee": "Amount in native token decimals to save to the contract as fees",
          "kappa": "kappa*",
          "pool": "Destination chain's pool to use to swap SynERC20 -> Asset. The nodes determine this by using PoolConfig.sol.",
          "swapDeadline": "Specificies the deadline that the nodes are allowed to try to redeem/swap the LP token",
          "swapMinAmount": "Specifies the minimum amount of the underlying asset needed for the nodes to execute the redeem/swap",
          "swapTokenIndex": "Specifies which of the underlying LP assets the nodes should attempt to redeem for",
          "to": "address on chain to send underlying assets to",
          "token": "ERC20 compatible token to withdraw from the bridge"
        }
      },
      "withdrawAndSwapV2(address,address,uint256,uint256,bytes,bytes32)": {
        "params": {
          "amount": "Amount in native token decimals to withdraw",
          "fee": "Amount in native token decimals to save to the contract as fees",
          "kappa": "kappa*",
          "routeraction": "calldata",
          "to": "address on chain to send underlying assets to",
          "token": "ERC20 compatible token to withdraw from the bridge"
        }
      },
      "withdrawFees(address,address)": {
        "params": {
          "to": "Address to send the fees to",
          "token": "ERC20 token in which fees acccumulated to transfer"
        }
      }
    },
    "version": 1
  },
  "userdoc": {
    "kind": "user",
    "methods": {
      "deposit(address,uint256,address,uint256)": {
        "notice": "Relays to nodes to transfers an ERC20 token cross-chain"
      },
      "depositAndSwap(address,uint256,address,uint256,uint8,uint8,uint256,uint256)": {
        "notice": "Relays to nodes to both transfer an ERC20 token cross-chain, and then have the nodes execute a swap through a liquidity pool on behalf of the user."
      },
      "depositMax(address,uint256,address)": {
        "notice": "Relays to nodes to transfers an ERC20 token cross-chain"
      },
      "depositMaxAndSwapV2(address,uint256,address,bytes)": {
        "notice": "Relays to nodes to both transfer an ERC20 token cross-chain, and then have the nodes execute a swap through a liquidity pool on behalf of the user."
      },
      "mint(address,address,uint256,uint256,bytes32)": {
        "notice": "Nodes call this function to mint a SynERC20 (or any asset that the bridge is given minter access to). This is called by the nodes after a TokenDepositV2 event is emitted."
      },
      "mintAndSwap(address,address,uint256,uint256,address,uint8,uint8,uint256,uint256,bytes32)": {
        "notice": "Nodes call this function to mint a SynERC20 (or any asset that the bridge is given minter access to), and then attempt to swap the SynERC20 into the desired destination asset. This is called by the nodes after a TokenDepositAndSwap event is emitted."
      },
      "mintAndSwapV2(address,address,uint256,uint256,bytes,bytes32)": {
        "notice": "Nodes call this function to mint a SynERC20 (or any asset that the bridge is given minter access to), and then attempt to swap the SynERC20 into the desired destination asset. This is called by the nodes after a TokenDepositAndSwapV2 event is emitted."
      },
      "redeem(address,uint256,address,uint256)": {
        "notice": "Relays to nodes that (typically) a wrapped synAsset ERC20 token has been burned and the underlying needs to be redeeemed on the native chain"
      },
      "redeemAndRemove(address,uint256,address,uint256,uint8,uint256,uint256)": {
        "notice": "Relays to nodes that (typically) a wrapped synAsset ERC20 token has been burned and the underlying needs to be redeeemed on the native chain. This function indicates to the nodes that they should attempt to redeem the LP token for the underlying assets (E.g \"swap\" out of the LP token)"
      },
      "redeemAndSwap(address,uint256,address,uint256,uint8,uint8,uint256,uint256)": {
        "notice": "Relays to nodes that (typically) a wrapped synAsset ERC20 token has been burned and the underlying needs to be redeeemed on the native chain. This function indicates to the nodes that they should attempt to redeem the LP token for the underlying assets (E.g \"swap\" out of the LP token)"
      },
      "redeemMax(address,uint256,address)": {
        "notice": "Relays to nodes that (typically) a wrapped synAsset ERC20 token has been burned and the underlying needs to be redeeemed on the native chain"
      },
      "redeemMaxAndSwapV2(address,uint256,address,bytes)": {
        "notice": "Relays to nodes that (typically) a wrapped synAsset ERC20 token has been burned and the underlying needs to be redeeemed on the native chain"
      },
      "withdraw(address,address,uint256,uint256,bytes32)": {
        "notice": "Function to be called by the node group to withdraw the underlying assets from the contract"
      },
      "withdrawAndRemove(address,address,uint256,uint256,address,uint8,uint256,uint256,bytes32)": {
        "notice": "Function to be called by the node group to withdraw the underlying assets from the contract"
      },
      "withdrawAndSwapV2(address,address,uint256,uint256,bytes,bytes32)": {
        "notice": "Function to be called by the node group to withdraw the underlying assets from the contract"
      },
      "withdrawFees(address,address)": {
        "notice": "withdraw specified ERC20 token fees to a given address"
      }
    },
    "version": 1
  },
  "storageLayout": {
    "storage": [
      {
        "astId": 1286,
        "contract": "contracts/bridge/SynapseBridge.sol:SynapseBridge",
        "label": "_initialized",
        "offset": 0,
        "slot": "0",
        "type": "t_bool"
      },
      {
        "astId": 1289,
        "contract": "contracts/bridge/SynapseBridge.sol:SynapseBridge",
        "label": "_initializing",
        "offset": 1,
        "slot": "0",
        "type": "t_bool"
      },
      {
        "astId": 2325,
        "contract": "contracts/bridge/SynapseBridge.sol:SynapseBridge",
        "label": "__gap",
        "offset": 0,
        "slot": "1",
        "type": "t_array(t_uint256)50_storage"
      },
      {
        "astId": 43,
        "contract": "contracts/bridge/SynapseBridge.sol:SynapseBridge",
        "label": "_roles",
        "offset": 0,
        "slot": "51",
        "type": "t_mapping(t_bytes32,t_struct(RoleData)39_storage)"
      },
      {
        "astId": 306,
        "contract": "contracts/bridge/SynapseBridge.sol:SynapseBridge",
        "label": "__gap",
        "offset": 0,
        "slot": "52",
        "type": "t_array(t_uint256)49_storage"
      },
      {
        "astId": 2995,
        "contract": "contracts/bridge/SynapseBridge.sol:SynapseBridge",
        "label": "_status",
        "offset": 0,
        "slot": "101",
        "type": "t_uint256"
      },
      {
        "astId": 3038,
        "contract": "contracts/bridge/SynapseBridge.sol:SynapseBridge",
        "label": "__gap",
        "offset": 0,
        "slot": "102",
        "type": "t_array(t_uint256)49_storage"
      },
      {
        "astId": 2889,
        "contract": "contracts/bridge/SynapseBridge.sol:SynapseBridge",
        "label": "_paused",
        "offset": 0,
        "slot": "151",
        "type": "t_bool"
      },
      {
        "astId": 2980,
        "contract": "contracts/bridge/SynapseBridge.sol:SynapseBridge",
        "label": "__gap",
        "offset": 0,
        "slot": "152",
        "type": "t_array(t_uint256)49_storage"
      },
      {
        "astId": 23797,
        "contract": "contracts/bridge/SynapseBridge.sol:SynapseBridge",
        "label": "fees",
        "offset": 0,
        "slot": "201",
        "type": "t_mapping(t_address,t_uint256)"
      },
      {
        "astId": 23799,
        "contract": "contracts/bridge/SynapseBridge.sol:SynapseBridge",
        "label": "startBlockNumber",
        "offset": 0,
        "slot": "202",
        "type": "t_uint256"
      },
      {
        "astId": 23804,
        "contract": "contracts/bridge/SynapseBridge.sol:SynapseBridge",
        "label": "chainGasAmount",
        "offset": 0,
        "slot": "203",
        "type": "t_uint256"
      },
      {
        "astId": 23806,
        "contract": "contracts/bridge/SynapseBridge.sol:SynapseBridge",
        "label": "WETH_ADDRESS",
        "offset": 0,
        "slot": "204",
        "type": "t_address_payable"
      },
      {
        "astId": 23808,
        "contract": "contracts/bridge/SynapseBridge.sol:SynapseBridge",
        "label": "ROUTER",
        "offset": 0,
        "slot": "205",
        "type": "t_address"
      },
      {
        "astId": 23812,
        "contract": "contracts/bridge/SynapseBridge.sol:SynapseBridge",
        "label": "kappaMap",
        "offset": 0,
        "slot": "206",
        "type": "t_mapping(t_bytes32,t_bool)"
      }
    ],
    "types": {
      "t_address": {
        "encoding": "inplace",
        "label": "address",
        "numberOfBytes": "20"
      },
      "t_address_payable": {
        "encoding": "inplace",
        "label": "address payable",
        "numberOfBytes": "20"
      },
      "t_array(t_bytes32)dyn_storage": {
        "base": "t_bytes32",
        "encoding": "dynamic_array",
        "label": "bytes32[]",
        "numberOfBytes": "32"
      },
      "t_array(t_uint256)49_storage": {
        "base": "t_uint256",
        "encoding": "inplace",
        "label": "uint256[49]",
        "numberOfBytes": "1568"
      },
      "t_array(t_uint256)50_storage": {
        "base": "t_uint256",
        "encoding": "inplace",
        "label": "uint256[50]",
        "numberOfBytes": "1600"
      },
      "t_bool": {
        "encoding": "inplace",
        "label": "bool",
        "numberOfBytes": "1"
      },
      "t_bytes32": {
        "encoding": "inplace",
        "label": "bytes32",
        "numberOfBytes": "32"
      },
      "t_mapping(t_address,t_uint256)": {
        "encoding": "mapping",
        "key": "t_address",
        "label": "mapping(address => uint256)",
        "numberOfBytes": "32",
        "value": "t_uint256"
      },
      "t_mapping(t_bytes32,t_bool)": {
        "encoding": "mapping",
        "key": "t_bytes32",
        "label": "mapping(bytes32 => bool)",
        "numberOfBytes": "32",
        "value": "t_bool"
      },
      "t_mapping(t_bytes32,t_struct(RoleData)39_storage)": {
        "encoding": "mapping",
        "key": "t_bytes32",
        "label": "mapping(bytes32 => struct AccessControlUpgradeable.RoleData)",
        "numberOfBytes": "32",
        "value": "t_struct(RoleData)39_storage"
      },
      "t_mapping(t_bytes32,t_uint256)": {
        "encoding": "mapping",
        "key": "t_bytes32",
        "label": "mapping(bytes32 => uint256)",
        "numberOfBytes": "32",
        "value": "t_uint256"
      },
      "t_struct(AddressSet)2652_storage": {
        "encoding": "inplace",
        "label": "struct EnumerableSetUpgradeable.AddressSet",
        "members": [
          {
            "astId": 2651,
            "contract": "contracts/bridge/SynapseBridge.sol:SynapseBridge",
            "label": "_inner",
            "offset": 0,
            "slot": "0",
            "type": "t_struct(Set)2387_storage"
          }
        ],
        "numberOfBytes": "64"
      },
      "t_struct(RoleData)39_storage": {
        "encoding": "inplace",
        "label": "struct AccessControlUpgradeable.RoleData",
        "members": [
          {
            "astId": 36,
            "contract": "contracts/bridge/SynapseBridge.sol:SynapseBridge",
            "label": "members",
            "offset": 0,
            "slot": "0",
            "type": "t_struct(AddressSet)2652_storage"
          },
          {
            "astId": 38,
            "contract": "contracts/bridge/SynapseBridge.sol:SynapseBridge",
            "label": "adminRole",
            "offset": 0,
            "slot": "2",
            "type": "t_bytes32"
          }
        ],
        "numberOfBytes": "96"
      },
      "t_struct(Set)2387_storage": {
        "encoding": "inplace",
        "label": "struct EnumerableSetUpgradeable.Set",
        "members": [
          {
            "astId": 2382,
            "contract": "contracts/bridge/SynapseBridge.sol:SynapseBridge",
            "label": "_values",
            "offset": 0,
            "slot": "0",
            "type": "t_array(t_bytes32)dyn_storage"
          },
          {
            "astId": 2386,
            "contract": "contracts/bridge/SynapseBridge.sol:SynapseBridge",
            "label": "_indexes",
            "offset": 0,
            "slot": "1",
            "type": "t_mapping(t_bytes32,t_uint256)"
          }
        ],
        "numberOfBytes": "64"
      },
      "t_uint256": {
        "encoding": "inplace",
        "label": "uint256",
        "numberOfBytes": "32"
      }
    }
  }
}