{
  "address": "0x0271984e4cfA2A0f02664baACD551CcFCC9920E8",
  "abi": [
    {
      "inputs": [],
      "stateMutability": "nonpayable",
      "type": "constructor"
    },
    {
      "inputs": [
        {
          "internalType": "uint8",
          "name": "tokenIndexFrom",
          "type": "uint8"
        },
        {
          "internalType": "uint8",
          "name": "tokenIndexTo",
          "type": "uint8"
        },
        {
          "internalType": "uint256",
          "name": "dx",
          "type": "uint256"
        }
      ],
      "name": "calculateSwap",
      "outputs": [
        {
          "internalType": "uint256",
          "name": "amountOut",
          "type": "uint256"
        }
      ],
      "stateMutability": "view",
      "type": "function"
    },
    {
      "inputs": [
        {
          "internalType": "uint8",
          "name": "index",
          "type": "uint8"
        }
      ],
      "name": "getToken",
      "outputs": [
        {
          "internalType": "contract IERC20",
          "name": "token",
          "type": "address"
        }
      ],
      "stateMutability": "pure",
      "type": "function"
    },
    {
      "inputs": [
        {
          "internalType": "uint8",
          "name": "tokenIndexFrom",
          "type": "uint8"
        },
        {
          "internalType": "uint8",
          "name": "tokenIndexTo",
          "type": "uint8"
        },
        {
          "internalType": "uint256",
          "name": "dx",
          "type": "uint256"
        },
        {
          "internalType": "uint256",
          "name": "minDy",
          "type": "uint256"
        },
        {
          "internalType": "uint256",
          "name": "deadline",
          "type": "uint256"
        }
      ],
      "name": "swap",
      "outputs": [
        {
          "internalType": "uint256",
          "name": "amountOut",
          "type": "uint256"
        }
      ],
      "stateMutability": "nonpayable",
      "type": "function"
    }
  ],
  "transactionHash": "0x5774b337b794999907737a7a04fc8c639568c31301f4ad97da3f62d0a546fd8b",
  "args": [],
  "solcInputHash": "f1adafc72c261aa32aeaf7d3f567028e",
  "bytecode": "0x60806040523480156200001157600080fd5b506200005573d8836af2e565d3befce7d906af63ee45a57e8f807307379565cd8b0cae7c60dc78e7f601b34af2a21c6000196200009e602090811b620004f917901c565b62000098734e71a2e537b7f9d9413d3991d37958c0b5e1e5037307379565cd8b0cae7c60dc78e7f601b34af2a21c6000196200009e602090811b620004f917901c565b6200051b565b8015806200011c5750604051636eb1769f60e11b81523060048201526001600160a01b03838116602483015284169063dd62ed3e90604401602060405180830381865afa158015620000f4573d6000803e3d6000fd5b505050506040513d601f19601f820116820180604052508101906200011a919062000464565b155b620001945760405162461bcd60e51b815260206004820152603660248201527f5361666545524332303a20617070726f76652066726f6d206e6f6e2d7a65726f60448201527f20746f206e6f6e2d7a65726f20616c6c6f77616e63650000000000000000000060648201526084015b60405180910390fd5b604080516001600160a01b038416602482015260448082018490528251808303909101815260649091019091526020810180516001600160e01b0390811663095ea7b360e01b17909152620001ec918591620001f116565b505050565b60006200024d826040518060400160405280602081526020017f5361666545524332303a206c6f772d6c6576656c2063616c6c206661696c6564815250856001600160a01b0316620002cf60201b620006fe179092919060201c565b805190915015620001ec57808060200190518101906200026e91906200047e565b620001ec5760405162461bcd60e51b815260206004820152602a60248201527f5361666545524332303a204552433230206f7065726174696f6e20646964206e6044820152691bdd081cdd58d8d9595960b21b60648201526084016200018b565b6060620002e08484600085620002ea565b90505b9392505050565b6060824710156200034d5760405162461bcd60e51b815260206004820152602660248201527f416464726573733a20696e73756666696369656e742062616c616e636520666f6044820152651c8818d85b1b60d21b60648201526084016200018b565b6001600160a01b0385163b620003a65760405162461bcd60e51b815260206004820152601d60248201527f416464726573733a2063616c6c20746f206e6f6e2d636f6e747261637400000060448201526064016200018b565b600080866001600160a01b03168587604051620003c49190620004c8565b60006040518083038185875af1925050503d806000811462000403576040519150601f19603f3d011682016040523d82523d6000602084013e62000408565b606091505b5090925090506200041b82828662000426565b979650505050505050565b6060831562000437575081620002e3565b825115620004485782518084602001fd5b8160405162461bcd60e51b81526004016200018b9190620004e6565b6000602082840312156200047757600080fd5b5051919050565b6000602082840312156200049157600080fd5b81518015158114620002e357600080fd5b60005b83811015620004bf578181015183820152602001620004a5565b50506000910152565b60008251620004dc818460208701620004a2565b9190910192915050565b602081526000825180602084015262000507816040850160208701620004a2565b601f01601f19169190910160400192915050565b611417806200052b6000396000f3fe608060405234801561001057600080fd5b50600436106100415760003560e01c806382b86600146100465780639169558614610083578063a95b089f146100a4575b600080fd5b6100596100543660046111c1565b6100b7565b60405173ffffffffffffffffffffffffffffffffffffffff90911681526020015b60405180910390f35b6100966100913660046111dc565b61014e565b60405190815260200161007a565b6100966100b2366004611229565b61044b565b60006100c58260ff16610715565b905073ffffffffffffffffffffffffffffffffffffffff8116610149576040517f08c379a000000000000000000000000000000000000000000000000000000000815260206004820152600c60248201527f4f7574206f662072616e6765000000000000000000000000000000000000000060448201526064015b60405180910390fd5b919050565b6000814211156101ba576040517f08c379a000000000000000000000000000000000000000000000000000000000815260206004820152601060248201527f446561646c696e65206e6f74206d6574000000000000000000000000000000006044820152606401610140565b60048660ff161080156101d0575060048560ff16105b80156101e257508460ff168660ff1614155b610248576040517f08c379a000000000000000000000000000000000000000000000000000000000815260206004820152601260248201527f53776170206e6f7420737570706f7274656400000000000000000000000000006044820152606401610140565b60006102568760ff16610715565b6040517f70a0823100000000000000000000000000000000000000000000000000000000815230600482015290915060009073ffffffffffffffffffffffffffffffffffffffff8316906370a0823190602401602060405180830381865afa1580156102c6573d6000803e3d6000fd5b505050506040513d601f19601f820116820180604052508101906102ea9190611265565b905061030e73ffffffffffffffffffffffffffffffffffffffff83163330896107a0565b6040517f70a08231000000000000000000000000000000000000000000000000000000008152306004820152819073ffffffffffffffffffffffffffffffffffffffff8416906370a0823190602401602060405180830381865afa15801561037a573d6000803e3d6000fd5b505050506040513d601f19601f8201168201806040525081019061039e9190611265565b6103a8919061127e565b955060006103bc8960ff168960ff16610804565b905073ffffffffffffffffffffffffffffffffffffffff8116156103f5576103ee818a60ff168a60ff168a8a33610838565b935061043f565b6104038960ff166001610804565b9050610418818a60ff1660018a600030610838565b935061042860018960ff16610804565b905061043c8160018a60ff16878a33610838565b93505b50505095945050505050565b60008260ff168460ff1603610462575060006104f2565b60006104748560ff168560ff16610804565b905073ffffffffffffffffffffffffffffffffffffffff8116156104ab576104a4818660ff168660ff1686610bfb565b91506104f0565b6104b98560ff166001610804565b90506104cb818660ff16600186610bfb565b91506104db60018560ff16610804565b90506104ed8160018660ff1685610bfb565b91505b505b9392505050565b80158061059957506040517fdd62ed3e00000000000000000000000000000000000000000000000000000000815230600482015273ffffffffffffffffffffffffffffffffffffffff838116602483015284169063dd62ed3e90604401602060405180830381865afa158015610573573d6000803e3d6000fd5b505050506040513d601f19601f820116820180604052508101906105979190611265565b155b610625576040517f08c379a000000000000000000000000000000000000000000000000000000000815260206004820152603660248201527f5361666545524332303a20617070726f76652066726f6d206e6f6e2d7a65726f60448201527f20746f206e6f6e2d7a65726f20616c6c6f77616e6365000000000000000000006064820152608401610140565b60405173ffffffffffffffffffffffffffffffffffffffff83166024820152604481018290526106f99084907f095ea7b300000000000000000000000000000000000000000000000000000000906064015b604080517fffffffffffffffffffffffffffffffffffffffffffffffffffffffffffffffe08184030181529190526020810180517bffffffffffffffffffffffffffffffffffffffffffffffffffffffff167fffffffff0000000000000000000000000000000000000000000000000000000090931692909217909152610dfd565b505050565b606061070d8484600085610f09565b949350505050565b600081610737575073d8836af2e565d3befce7d906af63ee45a57e8f80919050565b6001820361075a5750734e71a2e537b7f9d9413d3991d37958c0b5e1e503919050565b6002820361077d57507380b5a32e4f032b2a058b4f29ec95eefeeb87adcd919050565b60038203610149575073d567b3d7b8fe3c79a1ad8da978812cfc4fa05e75919050565b60405173ffffffffffffffffffffffffffffffffffffffff808516602483015283166044820152606481018290526107fe9085907f23b872dd0000000000000000000000000000000000000000000000000000000090608401610677565b50505050565b60006001830361081e576108178261109f565b9050610832565b600182036108325761082f8361109f565b90505b92915050565b60007ffffffffffffffffffffffffff8c86a9a3274f351839f23871809fe4cb50d5de473ffffffffffffffffffffffffffffffffffffffff881601610995576040517f9169558600000000000000000000000000000000000000000000000000000000815260ff80881660048301528616602482015260448101859052606481018490527fffffffffffffffffffffffffffffffffffffffffffffffffffffffffffffffff608482015273ffffffffffffffffffffffffffffffffffffffff88169063916955869060a4016020604051808303816000875af1158015610922573d6000803e3d6000fd5b505050506040513d601f19601f820116820180604052508101906109469190611265565b905073ffffffffffffffffffffffffffffffffffffffff8216301461099057610990828261097388610715565b73ffffffffffffffffffffffffffffffffffffffff169190611107565b610bf1565b73ffffffffffffffffffffffffffffffffffffffff8716739571997a66d63958e1b3de9647c22bd6b9e7228c14806109f6575073ffffffffffffffffffffffffffffffffffffffff87167335db1f3a6a6f07f82c76fcc415db6cfb1a7df833145b15610be9576000610a0687610715565b6040517ff140a35a0000000000000000000000000000000000000000000000000000000081526004810187905273ffffffffffffffffffffffffffffffffffffffff80831660248301529192509089169063f140a35a90604401602060405180830381865afa158015610a7d573d6000803e3d6000fd5b505050506040513d601f19601f82011682018060405250810190610aa19190611265565b915083821015610b0d576040517f08c379a000000000000000000000000000000000000000000000000000000000815260206004820181905260248201527f53776170206469646e277420726573756c7420696e206d696e20746f6b656e736044820152606401610140565b610b2e73ffffffffffffffffffffffffffffffffffffffff82168987611107565b60008060018914610b4157836000610b45565b6000845b604080516020810182526000815290517f022c0d9f00000000000000000000000000000000000000000000000000000000815292945090925073ffffffffffffffffffffffffffffffffffffffff8c169163022c0d9f91610baf91869186918b9190600401611326565b600060405180830381600087803b158015610bc957600080fd5b505af1158015610bdd573d6000803e3d6000fd5b50505050505050610bf1565b610bf1611361565b9695505050505050565b600081600003610c0d5750600061070d565b7ffffffffffffffffffffffffff8c86a9a3274f351839f23871809fe4cb50d5de473ffffffffffffffffffffffffffffffffffffffff861601610cf1576040517fa95b089f00000000000000000000000000000000000000000000000000000000815260ff8086166004830152841660248201526044810183905273ffffffffffffffffffffffffffffffffffffffff86169063a95b089f90606401602060405180830381865afa158015610cc6573d6000803e3d6000fd5b505050506040513d601f19601f82011682018060405250810190610cea9190611265565b905061070d565b73ffffffffffffffffffffffffffffffffffffffff8516739571997a66d63958e1b3de9647c22bd6b9e7228c1480610d52575073ffffffffffffffffffffffffffffffffffffffff85167335db1f3a6a6f07f82c76fcc415db6cfb1a7df833145b1561070d576000610d6285610715565b6040517ff140a35a0000000000000000000000000000000000000000000000000000000081526004810185905273ffffffffffffffffffffffffffffffffffffffff80831660248301529192509087169063f140a35a90604401602060405180830381865afa158015610dd9573d6000803e3d6000fd5b505050506040513d601f19601f82011682018060405250810190610bf19190611265565b6000610e5f826040518060400160405280602081526020017f5361666545524332303a206c6f772d6c6576656c2063616c6c206661696c65648152508573ffffffffffffffffffffffffffffffffffffffff166106fe9092919063ffffffff16565b8051909150156106f95780806020019051810190610e7d9190611390565b6106f9576040517f08c379a000000000000000000000000000000000000000000000000000000000815260206004820152602a60248201527f5361666545524332303a204552433230206f7065726174696f6e20646964206e60448201527f6f742073756363656564000000000000000000000000000000000000000000006064820152608401610140565b606082471015610f9b576040517f08c379a000000000000000000000000000000000000000000000000000000000815260206004820152602660248201527f416464726573733a20696e73756666696369656e742062616c616e636520666f60448201527f722063616c6c00000000000000000000000000000000000000000000000000006064820152608401610140565b73ffffffffffffffffffffffffffffffffffffffff85163b611019576040517f08c379a000000000000000000000000000000000000000000000000000000000815260206004820152601d60248201527f416464726573733a2063616c6c20746f206e6f6e2d636f6e74726163740000006044820152606401610140565b6000808673ffffffffffffffffffffffffffffffffffffffff16858760405161104291906113b2565b60006040518083038185875af1925050503d806000811461107f576040519150601f19603f3d011682016040523d82523d6000602084013e611084565b606091505b509150915061109482828661115d565b979650505050505050565b6000816110c157507307379565cd8b0cae7c60dc78e7f601b34af2a21c919050565b600282036110e45750739571997a66d63958e1b3de9647c22bd6b9e7228c919050565b6003820361014957507335db1f3a6a6f07f82c76fcc415db6cfb1a7df833919050565b60405173ffffffffffffffffffffffffffffffffffffffff83166024820152604481018290526106f99084907fa9059cbb0000000000000000000000000000000000000000000000000000000090606401610677565b6060831561116c5750816104f2565b82511561117c5782518084602001fd5b816040517f08c379a000000000000000000000000000000000000000000000000000000000815260040161014091906113ce565b803560ff8116811461014957600080fd5b6000602082840312156111d357600080fd5b61082f826111b0565b600080600080600060a086880312156111f457600080fd5b6111fd866111b0565b945061120b602087016111b0565b94979496505050506040830135926060810135926080909101359150565b60008060006060848603121561123e57600080fd5b611247846111b0565b9250611255602085016111b0565b9150604084013590509250925092565b60006020828403121561127757600080fd5b5051919050565b81810381811115610832577f4e487b7100000000000000000000000000000000000000000000000000000000600052601160045260246000fd5b60005b838110156112d35781810151838201526020016112bb565b50506000910152565b600081518084526112f48160208601602086016112b8565b601f017fffffffffffffffffffffffffffffffffffffffffffffffffffffffffffffffe0169290920160200192915050565b84815283602082015273ffffffffffffffffffffffffffffffffffffffff83166040820152608060608201526000610bf160808301846112dc565b7f4e487b7100000000000000000000000000000000000000000000000000000000600052600160045260246000fd5b6000602082840312156113a257600080fd5b815180151581146104f257600080fd5b600082516113c48184602087016112b8565b9190910192915050565b60208152600061082f60208301846112dc56fea2646970667358221220877c71b1d0a10779fa0c11bc5dc1c3f03bf55deba9d110cfa4adeb9500aee8dd64736f6c63430008110033",
  "devdoc": {
    "kind": "dev",
    "methods": {
      "calculateSwap(uint8,uint8,uint256)": {
        "params": {
          "dx": "the amount of tokens the user wants to sell. If the token charges                          a fee on transfers, use the amount that gets transferred after the fee.",
          "tokenIndexFrom": "the token the user wants to sell",
          "tokenIndexTo": "the token the user wants to buy"
        },
        "returns": {
          "amountOut": "       amount of tokens the user will receive"
        }
      },
      "getToken(uint8)": {
        "params": {
          "index": "the index of the token"
        },
        "returns": {
          "token": "   address of the token at given index"
        }
      },
      "swap(uint8,uint8,uint256,uint256,uint256)": {
        "params": {
          "deadline": "latest timestamp to accept this transaction",
          "dx": "the amount of tokens the user wants to swap from",
          "minDy": "the min amount the user would like to receive, or revert.",
          "tokenIndexFrom": "the token the user wants to swap from",
          "tokenIndexTo": "the token the user wants to swap to"
        },
        "returns": {
          "amountOut": "       amount of tokens bought"
        }
      }
    },
    "version": 1
  },
  "userdoc": {
    "kind": "user",
    "methods": {
      "calculateSwap(uint8,uint8,uint256)": {
        "notice": "Wrapper for ISaddle.calculateSwap()"
      },
      "getToken(uint8)": {
        "notice": "Wrapper for ISaddle.getToken()"
      },
      "swap(uint8,uint8,uint256,uint256,uint256)": {
        "notice": "Wrapper for ISaddle.swap()"
      }
    },
    "notice": "Contract mimicking Saddle swap interface to connect following pools: - Synapse    nUSD/NOTE - CantoDex   NOTE/USDC - CantoDex   NOTE/USDT Swaps between \"disconnected\" coins are routed through NOTE.",
    "version": 1
  },
  "storageLayout": {
    "storage": [],
    "types": null
  }
}