{
  "address": "0x5Ab02EE8fb4f73a83eD2B2f63A54F8aa78460714",
  "abi": [
    {
      "inputs": [],
      "stateMutability": "nonpayable",
      "type": "constructor"
    },
    {
      "anonymous": false,
      "inputs": [
        {
          "indexed": true,
          "internalType": "bytes32",
          "name": "role",
          "type": "bytes32"
        },
        {
          "indexed": true,
          "internalType": "bytes32",
          "name": "previousAdminRole",
          "type": "bytes32"
        },
        {
          "indexed": true,
          "internalType": "bytes32",
          "name": "newAdminRole",
          "type": "bytes32"
        }
      ],
      "name": "RoleAdminChanged",
      "type": "event"
    },
    {
      "anonymous": false,
      "inputs": [
        {
          "indexed": true,
          "internalType": "bytes32",
          "name": "role",
          "type": "bytes32"
        },
        {
          "indexed": true,
          "internalType": "address",
          "name": "account",
          "type": "address"
        },
        {
          "indexed": true,
          "internalType": "address",
          "name": "sender",
          "type": "address"
        }
      ],
      "name": "RoleGranted",
      "type": "event"
    },
    {
      "anonymous": false,
      "inputs": [
        {
          "indexed": true,
          "internalType": "bytes32",
          "name": "role",
          "type": "bytes32"
        },
        {
          "indexed": true,
          "internalType": "address",
          "name": "account",
          "type": "address"
        },
        {
          "indexed": true,
          "internalType": "address",
          "name": "sender",
          "type": "address"
        }
      ],
      "name": "RoleRevoked",
      "type": "event"
    },
    {
      "inputs": [],
      "name": "BRIDGEMANAGER_ROLE",
      "outputs": [
        {
          "internalType": "bytes32",
          "name": "",
          "type": "bytes32"
        }
      ],
      "stateMutability": "view",
      "type": "function"
    },
    {
      "inputs": [],
      "name": "DEFAULT_ADMIN_ROLE",
      "outputs": [
        {
          "internalType": "bytes32",
          "name": "",
          "type": "bytes32"
        }
      ],
      "stateMutability": "view",
      "type": "function"
    },
    {
      "inputs": [
        {
          "internalType": "uint256",
          "name": "chainId",
          "type": "uint256"
        },
        {
          "internalType": "address",
          "name": "tokenAddress",
          "type": "address"
        },
        {
          "internalType": "uint256",
          "name": "amount",
          "type": "uint256"
        }
      ],
      "name": "calculateSwapFee",
      "outputs": [
        {
          "internalType": "uint256",
          "name": "",
          "type": "uint256"
        }
      ],
      "stateMutability": "view",
      "type": "function"
    },
    {
      "inputs": [],
      "name": "getAllTokenIDs",
      "outputs": [
        {
          "internalType": "string[]",
          "name": "result",
          "type": "string[]"
        }
      ],
      "stateMutability": "view",
      "type": "function"
    },
    {
      "inputs": [
        {
          "internalType": "string",
          "name": "tokenID",
          "type": "string"
        },
        {
          "internalType": "uint256",
          "name": "chainID",
          "type": "uint256"
        }
      ],
      "name": "getMultichainToken",
      "outputs": [
        {
          "internalType": "address",
          "name": "",
          "type": "address"
        }
      ],
      "stateMutability": "view",
      "type": "function"
    },
    {
      "inputs": [
        {
          "internalType": "bytes32",
          "name": "role",
          "type": "bytes32"
        }
      ],
      "name": "getRoleAdmin",
      "outputs": [
        {
          "internalType": "bytes32",
          "name": "",
          "type": "bytes32"
        }
      ],
      "stateMutability": "view",
      "type": "function"
    },
    {
      "inputs": [
        {
          "internalType": "bytes32",
          "name": "role",
          "type": "bytes32"
        },
        {
          "internalType": "uint256",
          "name": "index",
          "type": "uint256"
        }
      ],
      "name": "getRoleMember",
      "outputs": [
        {
          "internalType": "address",
          "name": "",
          "type": "address"
        }
      ],
      "stateMutability": "view",
      "type": "function"
    },
    {
      "inputs": [
        {
          "internalType": "bytes32",
          "name": "role",
          "type": "bytes32"
        }
      ],
      "name": "getRoleMemberCount",
      "outputs": [
        {
          "internalType": "uint256",
          "name": "",
          "type": "uint256"
        }
      ],
      "stateMutability": "view",
      "type": "function"
    },
    {
      "inputs": [
        {
          "internalType": "string",
          "name": "tokenID",
          "type": "string"
        },
        {
          "internalType": "uint256",
          "name": "chainID",
          "type": "uint256"
        }
      ],
      "name": "getTokenConfig",
      "outputs": [
        {
          "components": [
            {
              "internalType": "uint256",
              "name": "chainId",
              "type": "uint256"
            },
            {
              "internalType": "address",
              "name": "tokenAddress",
              "type": "address"
            },
            {
              "internalType": "uint8",
              "name": "tokenDecimals",
              "type": "uint8"
            },
            {
              "internalType": "uint256",
              "name": "maxSwap",
              "type": "uint256"
            },
            {
              "internalType": "uint256",
              "name": "minSwap",
              "type": "uint256"
            },
            {
              "internalType": "uint256",
              "name": "swapFee",
              "type": "uint256"
            },
            {
              "internalType": "uint256",
              "name": "maxSwapFee",
              "type": "uint256"
            },
            {
              "internalType": "uint256",
              "name": "minSwapFee",
              "type": "uint256"
            }
          ],
          "internalType": "struct BridgeConfig.TokenConfig",
          "name": "",
          "type": "tuple"
        }
      ],
      "stateMutability": "view",
      "type": "function"
    },
    {
      "inputs": [
        {
          "internalType": "uint256",
          "name": "chainID",
          "type": "uint256"
        },
        {
          "internalType": "address",
          "name": "tokenAddress",
          "type": "address"
        }
      ],
      "name": "getTokenID",
      "outputs": [
        {
          "internalType": "string",
          "name": "",
          "type": "string"
        }
      ],
      "stateMutability": "view",
      "type": "function"
    },
    {
      "inputs": [
        {
          "internalType": "bytes32",
          "name": "role",
          "type": "bytes32"
        },
        {
          "internalType": "address",
          "name": "account",
          "type": "address"
        }
      ],
      "name": "grantRole",
      "outputs": [],
      "stateMutability": "nonpayable",
      "type": "function"
    },
    {
      "inputs": [
        {
          "internalType": "bytes32",
          "name": "role",
          "type": "bytes32"
        },
        {
          "internalType": "address",
          "name": "account",
          "type": "address"
        }
      ],
      "name": "hasRole",
      "outputs": [
        {
          "internalType": "bool",
          "name": "",
          "type": "bool"
        }
      ],
      "stateMutability": "view",
      "type": "function"
    },
    {
      "inputs": [
        {
          "internalType": "string",
          "name": "tokenID",
          "type": "string"
        }
      ],
      "name": "isTokenIDExist",
      "outputs": [
        {
          "internalType": "bool",
          "name": "",
          "type": "bool"
        }
      ],
      "stateMutability": "view",
      "type": "function"
    },
    {
      "inputs": [
        {
          "internalType": "bytes32",
          "name": "role",
          "type": "bytes32"
        },
        {
          "internalType": "address",
          "name": "account",
          "type": "address"
        }
      ],
      "name": "renounceRole",
      "outputs": [],
      "stateMutability": "nonpayable",
      "type": "function"
    },
    {
      "inputs": [
        {
          "internalType": "bytes32",
          "name": "role",
          "type": "bytes32"
        },
        {
          "internalType": "address",
          "name": "account",
          "type": "address"
        }
      ],
      "name": "revokeRole",
      "outputs": [],
      "stateMutability": "nonpayable",
      "type": "function"
    },
    {
      "inputs": [
        {
          "internalType": "string",
          "name": "tokenID",
          "type": "string"
        },
        {
          "internalType": "uint256",
          "name": "chainID",
          "type": "uint256"
        },
        {
          "components": [
            {
              "internalType": "uint256",
              "name": "chainId",
              "type": "uint256"
            },
            {
              "internalType": "address",
              "name": "tokenAddress",
              "type": "address"
            },
            {
              "internalType": "uint8",
              "name": "tokenDecimals",
              "type": "uint8"
            },
            {
              "internalType": "uint256",
              "name": "maxSwap",
              "type": "uint256"
            },
            {
              "internalType": "uint256",
              "name": "minSwap",
              "type": "uint256"
            },
            {
              "internalType": "uint256",
              "name": "swapFee",
              "type": "uint256"
            },
            {
              "internalType": "uint256",
              "name": "maxSwapFee",
              "type": "uint256"
            },
            {
              "internalType": "uint256",
              "name": "minSwapFee",
              "type": "uint256"
            }
          ],
          "internalType": "struct BridgeConfig.TokenConfig",
          "name": "config",
          "type": "tuple"
        }
      ],
      "name": "setTokenConfig",
      "outputs": [
        {
          "internalType": "bool",
          "name": "",
          "type": "bool"
        }
      ],
      "stateMutability": "nonpayable",
      "type": "function"
    }
  ],
  "transactionHash": "0xeaef5d37fc1656493394ef423df278a47fd70a90c83d1bc130f90ef1d12881d9",
  "args": [],
  "solcInputHash": "a2357e27eeee6ac4e6ccf7d126eb78c7",
  "bytecode": "0x60806040523480156200001157600080fd5b506200001f60003362000051565b6200004b7f4370dcf3e42e4d5b773a451bb8390ee8e7308f47681d1414cff87c2ad0512c853362000051565b62000165565b6200005d828262000061565b5050565b60008281526020818152604090912062000086918390620007ac620000da821b17901c565b156200005d5762000096620000fa565b6001600160a01b0316816001600160a01b0316837f2f8788117e7eff1d82e926ec794901d17c78024a50270940304540a733656f0d60405160405180910390a45050565b6000620000f1836001600160a01b038416620000fe565b90505b92915050565b3390565b60006200010c83836200014d565b6200014457508154600181810184556000848152602080822090930184905584548482528286019093526040902091909155620000f4565b506000620000f4565b60009081526001919091016020526040902054151590565b611a3680620001756000396000f3fe608060405234801561001057600080fd5b50600436106101005760003560e01c8063a217fddf11610097578063c4fb2e4b11610066578063c4fb2e4b1461021f578063ca15c8731461023f578063d547741f14610252578063ff9106c71461026557610100565b8063a217fddf146101de578063ae9172d3146101e6578063af611ca0146101f9578063b735ab5a1461020c57610100565b8063459511d1116100d3578063459511d114610176578063684a10b3146101965780639010d07c146101ab57806391d14854146101cb57610100565b8063248a9ca3146101055780632f2ff15d1461012e57806336568abe1461014357806345262f3e14610156575b600080fd5b610118610113366004611187565b61026d565b60405161012591906115c2565b60405180910390f35b61014161013c36600461119f565b610285565b005b61014161015136600461119f565b6102d6565b610169610164366004611291565b610332565b60405161012591906115b7565b610189610184366004611315565b6103c7565b6040516101259190611967565b61019e610486565b6040516101259190611539565b6101be6101b93660046111e6565b610529565b6040516101259190611518565b6101696101d936600461119f565b610548565b610118610560565b6101186101f436600461147a565b610565565b610169610207366004611207565b6105d7565b6101be61021a366004611247565b610620565b61023261022d36600461144e565b6106fb565b60405161012591906115cb565b61011861024d366004611187565b610737565b61014161026036600461119f565b61074e565b610118610788565b6000818152602081905260409020600201545b919050565b6000828152602081905260409020600201546102a3906101d96107ce565b6102c85760405162461bcd60e51b81526004016102bf9061163b565b60405180910390fd5b6102d282826107d2565b5050565b6102de6107ce565b73ffffffffffffffffffffffffffffffffffffffff168173ffffffffffffffffffffffffffffffffffffffff16146103285760405162461bcd60e51b81526004016102bf9061190a565b6102d28282610855565b600061035e7f4370dcf3e42e4d5b773a451bb8390ee8e7308f47681d1414cff87c2ad0512c8533610548565b61036757600080fd5b6103be6103a986868080601f0160208091040260200160405190810160405280939291908181526020018383808284376000920191909152506108d892505050565b846103b9368690038601866113c4565b6108df565b95945050505050565b6103cf6110be565b600460006103dc856108d8565b815260208082019290925260409081016000908120858252835281902081516101008101835281548152600182015473ffffffffffffffffffffffffffffffffffffffff8116948201949094527401000000000000000000000000000000000000000090930460ff16918301919091526002810154606083015260038101546080830152600481015460a0830152600581015460c08301526006015460e082015290505b92915050565b6001546060908067ffffffffffffffff811180156104a357600080fd5b506040519080825280602002602001820160405280156104d757816020015b60608152602001906001900390816104c25790505b50915060005b8181101561052457610505600182815481106104f557fe5b9060005260206000200154610b1f565b83828151811061051157fe5b60209081029190910101526001016104dd565b505090565b60008281526020819052604081206105419083610c33565b9392505050565b60008281526020819052604081206105419083610c3f565b600081565b6000606061057385856106fb565b905061057d6110be565b61058782876103c7565b905060006105b16402540be4006105ab8460a0015188610c6190919063ffffffff16565b90610c9b565b90508160e001518111156105c9579250610541915050565b5060e0015191506105419050565b600061054161061b84848080601f0160208091040260200160405190810160405280939291908181526020018383808284376000920191909152506108d892505050565b610ccd565b6000806002600061066687878080601f0160208091040260200160405190810160405280939291908181526020018383808284376000920191909152506108d892505050565b8152602001908152602001600020905060005b81548110156106ef578382828154811061068f57fe5b90600052602060002090600202016000015414156106e7578181815481106106b357fe5b600091825260209091206001600290920201015473ffffffffffffffffffffffffffffffffffffffff169250610541915050565b600101610679565b50600095945050505050565b600082815260036020908152604080832073ffffffffffffffffffffffffffffffffffffffff8516845290915290205460609061054190610b1f565b600081815260208190526040812061048090610d15565b60008281526020819052604090206002015461076c906101d96107ce565b6103285760405162461bcd60e51b81526004016102bf90611706565b7f4370dcf3e42e4d5b773a451bb8390ee8e7308f47681d1414cff87c2ad0512c8581565b60006105418373ffffffffffffffffffffffffffffffffffffffff8416610d20565b3390565b60008281526020819052604090206107ea90826107ac565b156102d2576107f76107ce565b73ffffffffffffffffffffffffffffffffffffffff168173ffffffffffffffffffffffffffffffffffffffff16837f2f8788117e7eff1d82e926ec794901d17c78024a50270940304540a733656f0d60405160405180910390a45050565b600082815260208190526040902061086d9082610d6a565b156102d25761087a6107ce565b73ffffffffffffffffffffffffffffffffffffffff168173ffffffffffffffffffffffffffffffffffffffff16837ff6391f5c32d9c69d2a47ea670b442974b53935d1edc7fd64eb21e047a839171b60405160405180910390a45050565b6020015190565b60008160008160600151116109065760405162461bcd60e51b81526004016102bf906116cf565b600081608001511161092a5760405162461bcd60e51b81526004016102bf906118d3565b8060800151816060015110156109525760405162461bcd60e51b81526004016102bf9061189c565b8060e001518160c00151101561097a5760405162461bcd60e51b81526004016102bf906117d1565b8060e001518160c0015110156109a25760405162461bcd60e51b81526004016102bf9061179a565b846109bf5760405162461bcd60e51b81526004016102bf90611763565b600084116109df5760405162461bcd60e51b81526004016102bf90611865565b600085815260046020818152604080842088855282529283902086518155908601516001820180549488015160ff1674010000000000000000000000000000000000000000027fffffffffffffffffffffff00ffffffffffffffffffffffffffffffffffffffff73ffffffffffffffffffffffffffffffffffffffff9093167fffffffffffffffffffffffff0000000000000000000000000000000000000000909616959095179190911693909317909255606085015160028301556080850151600383015560a08501519082015560c0840151600582015560e0840151600690910155610acc85610ccd565b610b05576001805480820182556000919091527fb10e2d527612073b26eecdfd717e6a320cf44b4afac2b0732d9fcbe2b7fa0cf6018590555b610b1485858560200151610d8c565b506001949350505050565b606060005b60208160ff16108015610b6a5750828160ff1660208110610b4157fe5b1a60f81b7fff000000000000000000000000000000000000000000000000000000000000001615155b15610b7757600101610b24565b60608160ff1667ffffffffffffffff81118015610b9357600080fd5b506040519080825280601f01601f191660200182016040528015610bbe576020820181803683370190505b50905060005b8260ff168160ff161015610c2b57848160ff1660208110610be157fe5b1a60f81b828260ff1681518110610bf457fe5b60200101907effffffffffffffffffffffffffffffffffffffffffffffffffffffffffffff1916908160001a905350600101610bc4565b509392505050565b60006105418383610f79565b60006105418373ffffffffffffffffffffffffffffffffffffffff8416610fbe565b600082610c7057506000610480565b82820282848281610c7d57fe5b04146105415760405162461bcd60e51b81526004016102bf90611808565b6000808211610cbc5760405162461bcd60e51b81526004016102bf90611698565b818381610cc557fe5b049392505050565b6000805b600154811015610d0c578260018281548110610ce957fe5b90600052602060002001541415610d04576001915050610280565b600101610cd1565b50600092915050565b600061048082610fd6565b6000610d2c8383610fbe565b610d6257508154600181810184556000848152602080822090930184905584548482528286019093526040902091909155610480565b506000610480565b60006105418373ffffffffffffffffffffffffffffffffffffffff8416610fda565b82610da95760405162461bcd60e51b81526004016102bf90611763565b60008211610dc95760405162461bcd60e51b81526004016102bf90611865565b6000838152600260205260408120905b8154811015610ee15783828281548110610def57fe5b9060005260206000209060020201600001541415610ed9576000828281548110610e1557fe5b600091825260209091206001600290920201015473ffffffffffffffffffffffffffffffffffffffff908116915084168114610ed15783838381548110610e5857fe5b6000918252602080832060029290920290910160010180547fffffffffffffffffffffffff00000000000000000000000000000000000000001673ffffffffffffffffffffffffffffffffffffffff94851617905587825260038152604080832085851684529091528082208290559186168152208690555b505050610f74565b600101610dd9565b5060408051808201825284815273ffffffffffffffffffffffffffffffffffffffff84811660208084018281528654600180820189556000988952838920965160029092029096019081559051940180547fffffffffffffffffffffffff000000000000000000000000000000000000000016949093169390931790915585845260038252828420908452905290208390555b505050565b81546000908210610f9c5760405162461bcd60e51b81526004016102bf906115de565b826000018281548110610fab57fe5b9060005260206000200154905092915050565b60009081526001919091016020526040902054151590565b5490565b600081815260018301602052604081205480156110b45783547fffffffffffffffffffffffffffffffffffffffffffffffffffffffffffffffff808301919081019060009087908390811061102b57fe5b906000526020600020015490508087600001848154811061104857fe5b60009182526020808320909101929092558281526001898101909252604090209084019055865487908061107857fe5b60019003818190600052602060002001600090559055866001016000878152602001908152602001600020600090556001945050505050610480565b6000915050610480565b60405180610100016040528060008152602001600073ffffffffffffffffffffffffffffffffffffffff168152602001600060ff16815260200160008152602001600081526020016000815260200160008152602001600081525090565b803573ffffffffffffffffffffffffffffffffffffffff8116811461048057600080fd5b60008083601f840112611151578182fd5b50813567ffffffffffffffff811115611168578182fd5b60208301915083602082850101111561118057600080fd5b9250929050565b600060208284031215611198578081fd5b5035919050565b600080604083850312156111b1578081fd5b82359150602083013573ffffffffffffffffffffffffffffffffffffffff811681146111db578182fd5b809150509250929050565b600080604083850312156111f8578182fd5b50508035926020909101359150565b60008060208385031215611219578182fd5b823567ffffffffffffffff81111561122f578283fd5b61123b85828601611140565b90969095509350505050565b60008060006040848603121561125b578081fd5b833567ffffffffffffffff811115611271578182fd5b61127d86828701611140565b909790965060209590950135949350505050565b6000806000808486036101408112156112a8578182fd5b853567ffffffffffffffff8111156112be578283fd5b6112ca88828901611140565b909650945050602086013592506101007fffffffffffffffffffffffffffffffffffffffffffffffffffffffffffffffc082011215611307578182fd5b509295919450926040019150565b60008060408385031215611327578182fd5b823567ffffffffffffffff8082111561133e578384fd5b818501915085601f830112611351578384fd5b81358181111561135f578485fd5b60209150611393827fffffffffffffffffffffffffffffffffffffffffffffffffffffffffffffffe0601f840116016119d9565b81815287838386010111156113a6578586fd5b81838501848301379081018201949094529295939092013593505050565b60006101008083850312156113d7578182fd5b6113e0816119d9565b9050823581526113f3846020850161111c565b6020820152604083013560ff8116811461140b578283fd5b80604083015250606083013560608201526080830135608082015260a083013560a082015260c083013560c082015260e083013560e08201528091505092915050565b60008060408385031215611460578182fd5b82359150611471846020850161111c565b90509250929050565b60008060006060848603121561148e578283fd5b8335925061149f856020860161111c565b9150604084013590509250925092565b60008151808452815b818110156114d4576020818501810151868301820152016114b8565b818111156114e55782602083870101525b50601f017fffffffffffffffffffffffffffffffffffffffffffffffffffffffffffffffe0169290920160200192915050565b73ffffffffffffffffffffffffffffffffffffffff91909116815260200190565b6000602080830181845280855180835260408601915060408482028701019250838701855b828110156115aa577fffffffffffffffffffffffffffffffffffffffffffffffffffffffffffffffc08886030184526115988583516114af565b9450928501929085019060010161155e565b5092979650505050505050565b901515815260200190565b90815260200190565b60006020825261054160208301846114af565b60208082526022908201527f456e756d657261626c655365743a20696e646578206f7574206f6620626f756e60408201527f6473000000000000000000000000000000000000000000000000000000000000606082015260800190565b6020808252602f908201527f416363657373436f6e74726f6c3a2073656e646572206d75737420626520616e60408201527f2061646d696e20746f206772616e740000000000000000000000000000000000606082015260800190565b6020808252601a908201527f536166654d6174683a206469766973696f6e206279207a65726f000000000000604082015260600190565b60208082526010908201527f7a65726f204d6178696d756d5377617000000000000000000000000000000000604082015260600190565b60208082526030908201527f416363657373436f6e74726f6c3a2073656e646572206d75737420626520616e60408201527f2061646d696e20746f207265766f6b6500000000000000000000000000000000606082015260800190565b6020808252600d908201527f656d70747920746f6b656e494400000000000000000000000000000000000000604082015260600190565b6020808252601c908201527f4d696e696d756d53776170203c204d696e696d756d5377617046656500000000604082015260600190565b6020808252601f908201527f4d6178696d756d53776170466565203c204d696e696d756d5377617046656500604082015260600190565b60208082526021908201527f536166654d6174683a206d756c7469706c69636174696f6e206f766572666c6f60408201527f7700000000000000000000000000000000000000000000000000000000000000606082015260800190565b6020808252600c908201527f7a65726f20636861696e49440000000000000000000000000000000000000000604082015260600190565b60208082526019908201527f4d6178696d756d53776170203c204d696e696d756d5377617000000000000000604082015260600190565b60208082526010908201527f7a65726f204d696e696d756d5377617000000000000000000000000000000000604082015260600190565b6020808252602f908201527f416363657373436f6e74726f6c3a2063616e206f6e6c792072656e6f756e636560408201527f20726f6c657320666f722073656c660000000000000000000000000000000000606082015260800190565b6000610100820190508251825273ffffffffffffffffffffffffffffffffffffffff602084015116602083015260ff6040840151166040830152606083015160608301526080830151608083015260a083015160a083015260c083015160c083015260e083015160e083015292915050565b60405181810167ffffffffffffffff811182821017156119f857600080fd5b60405291905056fea2646970667358221220c48f7bfe6e9c0fcd7a6fb986f76faf2a8b83dd74eb09748a40c90bff873d8a7864736f6c634300060c0033",
  "devdoc": {
    "kind": "dev",
    "methods": {
      "getRoleAdmin(bytes32)": {
        "details": "Returns the admin role that controls `role`. See {grantRole} and {revokeRole}. To change a role's admin, use {_setRoleAdmin}."
      },
      "getRoleMember(bytes32,uint256)": {
        "details": "Returns one of the accounts that have `role`. `index` must be a value between 0 and {getRoleMemberCount}, non-inclusive. Role bearers are not sorted in any particular way, and their ordering may change at any point. WARNING: When using {getRoleMember} and {getRoleMemberCount}, make sure you perform all queries on the same block. See the following https://forum.openzeppelin.com/t/iterating-over-elements-on-enumerableset-in-openzeppelin-contracts/2296[forum post] for more information."
      },
      "getRoleMemberCount(bytes32)": {
        "details": "Returns the number of accounts that have `role`. Can be used together with {getRoleMember} to enumerate all bearers of a role."
      },
      "grantRole(bytes32,address)": {
        "details": "Grants `role` to `account`. If `account` had not been already granted `role`, emits a {RoleGranted} event. Requirements: - the caller must have ``role``'s admin role."
      },
      "hasRole(bytes32,address)": {
        "details": "Returns `true` if `account` has been granted `role`."
      },
      "renounceRole(bytes32,address)": {
        "details": "Revokes `role` from the calling account. Roles are often managed via {grantRole} and {revokeRole}: this function's purpose is to provide a mechanism for accounts to lose their privileges if they are compromised (such as when a trusted device is misplaced). If the calling account had been granted `role`, emits a {RoleRevoked} event. Requirements: - the caller must be `account`."
      },
      "revokeRole(bytes32,address)": {
        "details": "Revokes `role` from `account`. If `account` had been granted `role`, emits a {RoleRevoked} event. Requirements: - the caller must have ``role``'s admin role."
      }
    },
    "version": 1
  },
  "userdoc": {
    "kind": "user",
    "methods": {},
    "version": 1
  },
  "storageLayout": {
    "storage": [
      {
        "astId": 2760,
        "contract": "contracts/synapse/BridgeConfig.sol:BridgeConfig",
        "label": "_roles",
        "offset": 0,
        "slot": "0",
        "type": "t_mapping(t_bytes32,t_struct(RoleData)2756_storage)"
      },
      {
        "astId": 5741,
        "contract": "contracts/synapse/BridgeConfig.sol:BridgeConfig",
        "label": "_allTokenIDs",
        "offset": 0,
        "slot": "1",
        "type": "t_array(t_bytes32)dyn_storage"
      },
      {
        "astId": 5749,
        "contract": "contracts/synapse/BridgeConfig.sol:BridgeConfig",
        "label": "_allMultichainTokens",
        "offset": 0,
        "slot": "2",
        "type": "t_mapping(t_bytes32,t_array(t_struct(MultichainToken)5837_storage)dyn_storage)"
      },
      {
        "astId": 5755,
        "contract": "contracts/synapse/BridgeConfig.sol:BridgeConfig",
        "label": "_tokenIDMap",
        "offset": 0,
        "slot": "3",
        "type": "t_mapping(t_uint256,t_mapping(t_address,t_bytes32))"
      },
      {
        "astId": 5761,
        "contract": "contracts/synapse/BridgeConfig.sol:BridgeConfig",
        "label": "_tokenConfig",
        "offset": 0,
        "slot": "4",
        "type": "t_mapping(t_bytes32,t_mapping(t_uint256,t_struct(TokenConfig)5832_storage))"
      }
    ],
    "types": {
      "t_address": {
        "encoding": "inplace",
        "label": "address",
        "numberOfBytes": "20"
      },
      "t_array(t_bytes32)dyn_storage": {
        "base": "t_bytes32",
        "encoding": "dynamic_array",
        "label": "bytes32[]",
        "numberOfBytes": "32"
      },
      "t_array(t_struct(MultichainToken)5837_storage)dyn_storage": {
        "base": "t_struct(MultichainToken)5837_storage",
        "encoding": "dynamic_array",
        "label": "struct BridgeConfig.MultichainToken[]",
        "numberOfBytes": "32"
      },
      "t_bytes32": {
        "encoding": "inplace",
        "label": "bytes32",
        "numberOfBytes": "32"
      },
      "t_mapping(t_address,t_bytes32)": {
        "encoding": "mapping",
        "key": "t_address",
        "label": "mapping(address => bytes32)",
        "numberOfBytes": "32",
        "value": "t_bytes32"
      },
      "t_mapping(t_bytes32,t_array(t_struct(MultichainToken)5837_storage)dyn_storage)": {
        "encoding": "mapping",
        "key": "t_bytes32",
        "label": "mapping(bytes32 => struct BridgeConfig.MultichainToken[])",
        "numberOfBytes": "32",
        "value": "t_array(t_struct(MultichainToken)5837_storage)dyn_storage"
      },
      "t_mapping(t_bytes32,t_mapping(t_uint256,t_struct(TokenConfig)5832_storage))": {
        "encoding": "mapping",
        "key": "t_bytes32",
        "label": "mapping(bytes32 => mapping(uint256 => struct BridgeConfig.TokenConfig))",
        "numberOfBytes": "32",
        "value": "t_mapping(t_uint256,t_struct(TokenConfig)5832_storage)"
      },
      "t_mapping(t_bytes32,t_struct(RoleData)2756_storage)": {
        "encoding": "mapping",
        "key": "t_bytes32",
        "label": "mapping(bytes32 => struct AccessControl.RoleData)",
        "numberOfBytes": "32",
        "value": "t_struct(RoleData)2756_storage"
      },
      "t_mapping(t_bytes32,t_uint256)": {
        "encoding": "mapping",
        "key": "t_bytes32",
        "label": "mapping(bytes32 => uint256)",
        "numberOfBytes": "32",
        "value": "t_uint256"
      },
      "t_mapping(t_uint256,t_mapping(t_address,t_bytes32))": {
        "encoding": "mapping",
        "key": "t_uint256",
        "label": "mapping(uint256 => mapping(address => bytes32))",
        "numberOfBytes": "32",
        "value": "t_mapping(t_address,t_bytes32)"
      },
      "t_mapping(t_uint256,t_struct(TokenConfig)5832_storage)": {
        "encoding": "mapping",
        "key": "t_uint256",
        "label": "mapping(uint256 => struct BridgeConfig.TokenConfig)",
        "numberOfBytes": "32",
        "value": "t_struct(TokenConfig)5832_storage"
      },
      "t_struct(AddressSet)5510_storage": {
        "encoding": "inplace",
        "label": "struct EnumerableSet.AddressSet",
        "members": [
          {
            "astId": 5509,
            "contract": "contracts/synapse/BridgeConfig.sol:BridgeConfig",
            "label": "_inner",
            "offset": 0,
            "slot": "0",
            "type": "t_struct(Set)5245_storage"
          }
        ],
        "numberOfBytes": "64"
      },
      "t_struct(MultichainToken)5837_storage": {
        "encoding": "inplace",
        "label": "struct BridgeConfig.MultichainToken",
        "members": [
          {
            "astId": 5834,
            "contract": "contracts/synapse/BridgeConfig.sol:BridgeConfig",
            "label": "chainId",
            "offset": 0,
            "slot": "0",
            "type": "t_uint256"
          },
          {
            "astId": 5836,
            "contract": "contracts/synapse/BridgeConfig.sol:BridgeConfig",
            "label": "tokenAddress",
            "offset": 0,
            "slot": "1",
            "type": "t_address"
          }
        ],
        "numberOfBytes": "64"
      },
      "t_struct(RoleData)2756_storage": {
        "encoding": "inplace",
        "label": "struct AccessControl.RoleData",
        "members": [
          {
            "astId": 2753,
            "contract": "contracts/synapse/BridgeConfig.sol:BridgeConfig",
            "label": "members",
            "offset": 0,
            "slot": "0",
            "type": "t_struct(AddressSet)5510_storage"
          },
          {
            "astId": 2755,
            "contract": "contracts/synapse/BridgeConfig.sol:BridgeConfig",
            "label": "adminRole",
            "offset": 0,
            "slot": "2",
            "type": "t_bytes32"
          }
        ],
        "numberOfBytes": "96"
      },
      "t_struct(Set)5245_storage": {
        "encoding": "inplace",
        "label": "struct EnumerableSet.Set",
        "members": [
          {
            "astId": 5240,
            "contract": "contracts/synapse/BridgeConfig.sol:BridgeConfig",
            "label": "_values",
            "offset": 0,
            "slot": "0",
            "type": "t_array(t_bytes32)dyn_storage"
          },
          {
            "astId": 5244,
            "contract": "contracts/synapse/BridgeConfig.sol:BridgeConfig",
            "label": "_indexes",
            "offset": 0,
            "slot": "1",
            "type": "t_mapping(t_bytes32,t_uint256)"
          }
        ],
        "numberOfBytes": "64"
      },
      "t_struct(TokenConfig)5832_storage": {
        "encoding": "inplace",
        "label": "struct BridgeConfig.TokenConfig",
        "members": [
          {
            "astId": 5817,
            "contract": "contracts/synapse/BridgeConfig.sol:BridgeConfig",
            "label": "chainId",
            "offset": 0,
            "slot": "0",
            "type": "t_uint256"
          },
          {
            "astId": 5819,
            "contract": "contracts/synapse/BridgeConfig.sol:BridgeConfig",
            "label": "tokenAddress",
            "offset": 0,
            "slot": "1",
            "type": "t_address"
          },
          {
            "astId": 5821,
            "contract": "contracts/synapse/BridgeConfig.sol:BridgeConfig",
            "label": "tokenDecimals",
            "offset": 20,
            "slot": "1",
            "type": "t_uint8"
          },
          {
            "astId": 5823,
            "contract": "contracts/synapse/BridgeConfig.sol:BridgeConfig",
            "label": "maxSwap",
            "offset": 0,
            "slot": "2",
            "type": "t_uint256"
          },
          {
            "astId": 5825,
            "contract": "contracts/synapse/BridgeConfig.sol:BridgeConfig",
            "label": "minSwap",
            "offset": 0,
            "slot": "3",
            "type": "t_uint256"
          },
          {
            "astId": 5827,
            "contract": "contracts/synapse/BridgeConfig.sol:BridgeConfig",
            "label": "swapFee",
            "offset": 0,
            "slot": "4",
            "type": "t_uint256"
          },
          {
            "astId": 5829,
            "contract": "contracts/synapse/BridgeConfig.sol:BridgeConfig",
            "label": "maxSwapFee",
            "offset": 0,
            "slot": "5",
            "type": "t_uint256"
          },
          {
            "astId": 5831,
            "contract": "contracts/synapse/BridgeConfig.sol:BridgeConfig",
            "label": "minSwapFee",
            "offset": 0,
            "slot": "6",
            "type": "t_uint256"
          }
        ],
        "numberOfBytes": "224"
      },
      "t_uint256": {
        "encoding": "inplace",
        "label": "uint256",
        "numberOfBytes": "32"
      },
      "t_uint8": {
        "encoding": "inplace",
        "label": "uint8",
        "numberOfBytes": "1"
      }
    }
  }
}