{
  "address": "0x7bE461cce1501f07969BCE24Ccb2140fCA0a35b3",
  "abi": [
    {
      "inputs": [
        {
          "internalType": "contract IERC20",
          "name": "tokenA",
          "type": "address"
        },
        {
          "internalType": "contract IERC20",
          "name": "mintableTokenB",
          "type": "address"
        }
      ],
      "stateMutability": "nonpayable",
      "type": "constructor"
    },
    {
      "inputs": [
        {
          "internalType": "uint8",
          "name": "tokenIndexFrom",
          "type": "uint8"
        },
        {
          "internalType": "uint8",
          "name": "tokenIndexTo",
          "type": "uint8"
        },
        {
          "internalType": "uint256",
          "name": "dx",
          "type": "uint256"
        }
      ],
      "name": "calculateSwap",
      "outputs": [
        {
          "internalType": "uint256",
          "name": "",
          "type": "uint256"
        }
      ],
      "stateMutability": "view",
      "type": "function"
    },
    {
      "inputs": [
        {
          "internalType": "uint8",
          "name": "index",
          "type": "uint8"
        }
      ],
      "name": "getToken",
      "outputs": [
        {
          "internalType": "contract IERC20",
          "name": "",
          "type": "address"
        }
      ],
      "stateMutability": "view",
      "type": "function"
    },
    {
      "inputs": [
        {
          "internalType": "address",
          "name": "tokenAddress",
          "type": "address"
        }
      ],
      "name": "getTokenIndex",
      "outputs": [
        {
          "internalType": "uint8",
          "name": "",
          "type": "uint8"
        }
      ],
      "stateMutability": "view",
      "type": "function"
    },
    {
      "inputs": [
        {
          "internalType": "uint8",
          "name": "tokenIndexFrom",
          "type": "uint8"
        },
        {
          "internalType": "uint8",
          "name": "tokenIndexTo",
          "type": "uint8"
        },
        {
          "internalType": "uint256",
          "name": "dx",
          "type": "uint256"
        },
        {
          "internalType": "uint256",
          "name": "minDy",
          "type": "uint256"
        },
        {
          "internalType": "uint256",
          "name": "deadline",
          "type": "uint256"
        }
      ],
      "name": "swap",
      "outputs": [
        {
          "internalType": "uint256",
          "name": "",
          "type": "uint256"
        }
      ],
      "stateMutability": "nonpayable",
      "type": "function"
    }
  ],
  "transactionHash": "0x3f6974c3375eb055d4b3115895e42321897f162eabab0e2be1df48f07e3a9384",
  "args": [
    "0x72Cb10C6bfA5624dD07Ef608027E366bd690048F",
    "0x28b42698Caf46B4B012CF38b6C75867E0762186D"
  ],
  "solcInputHash": "95380060a7ec73498bb886cdc300b807",
  "bytecode": "0x608060405234801561001057600080fd5b50604051610da0380380610da08339818101604052604081101561003357600080fd5b508051602091820151600180546001600160a01b039384166001600160a01b03199182168117835560028054959094169490911684179092556000918252928190526040808220805460ff19908116909155928252812080549092169092179055610cfc9081906100a490396000f3fe608060405234801561001057600080fd5b506004361061004c5760003560e01c806366c0bd241461005157806382b866001461009a57806391695586146100e3578063a95b089f14610131575b600080fd5b6100846004803603602081101561006757600080fd5b503573ffffffffffffffffffffffffffffffffffffffff16610161565b6040805160ff9092168252519081900360200190f35b6100ba600480360360208110156100b057600080fd5b503560ff16610220565b6040805173ffffffffffffffffffffffffffffffffffffffff9092168252519081900360200190f35b61011f600480360360a08110156100f957600080fd5b5060ff8135811691602081013590911690604081013590606081013590608001356102c2565b60408051918252519081900360200190f35b61011f6004803603606081101561014757600080fd5b5060ff81358116916020810135909116906040013561075b565b73ffffffffffffffffffffffffffffffffffffffff8116600081815260208190526040812054909160ff9091169061019882610220565b73ffffffffffffffffffffffffffffffffffffffff161461021a57604080517f08c379a000000000000000000000000000000000000000000000000000000000815260206004820152601460248201527f546f6b656e20646f6573206e6f74206578697374000000000000000000000000604482015290519081900360640190fd5b92915050565b600060028260ff161061029457604080517f08c379a000000000000000000000000000000000000000000000000000000000815260206004820152600c60248201527f4f7574206f662072616e67650000000000000000000000000000000000000000604482015290519081900360640190fd5b60018260ff16600281106102a457fe5b015473ffffffffffffffffffffffffffffffffffffffff1692915050565b60008060018760ff16600281106102d557fe5b0154604080517f70a08231000000000000000000000000000000000000000000000000000000008152336004820152905173ffffffffffffffffffffffffffffffffffffffff909216925082916370a0823191602480820192602092909190829003018186803b15801561034857600080fd5b505afa15801561035c573d6000803e3d6000fd5b505050506040513d602081101561037257600080fd5b50518511156103e257604080517f08c379a000000000000000000000000000000000000000000000000000000000815260206004820152601d60248201527f43616e6e6f742073776170206d6f7265207468616e20796f75206f776e000000604482015290519081900360640190fd5b60008173ffffffffffffffffffffffffffffffffffffffff166370a08231306040518263ffffffff1660e01b8152600401808273ffffffffffffffffffffffffffffffffffffffff16815260200191505060206040518083038186803b15801561044b57600080fd5b505afa15801561045f573d6000803e3d6000fd5b505050506040513d602081101561047557600080fd5b5051905061049b73ffffffffffffffffffffffffffffffffffffffff8316333089610764565b610538818373ffffffffffffffffffffffffffffffffffffffff166370a08231306040518263ffffffff1660e01b8152600401808273ffffffffffffffffffffffffffffffffffffffff16815260200191505060206040518083038186803b15801561050657600080fd5b505afa15801561051a573d6000803e3d6000fd5b505050506040513d602081101561053057600080fd5b5051906107ff565b9550505060ff861615801561055057508460ff166001145b156105fd5760018560ff166002811061056557fe5b0154604080517f40c10f1900000000000000000000000000000000000000000000000000000000815233600482015260248101879052905173ffffffffffffffffffffffffffffffffffffffff909216916340c10f199160448082019260009290919082900301818387803b1580156105dd57600080fd5b505af11580156105f1573d6000803e3d6000fd5b50505050839050610752565b8560ff166001148015610611575060ff8516155b156106eb5760018660ff166002811061062657fe5b0154604080517f42966c6800000000000000000000000000000000000000000000000000000000815260048101879052905173ffffffffffffffffffffffffffffffffffffffff909216916342966c689160248082019260009290919082900301818387803b15801561069857600080fd5b505af11580156106ac573d6000803e3d6000fd5b505050506106e4338560018860ff16600281106106c557fe5b015473ffffffffffffffffffffffffffffffffffffffff169190610876565b5082610752565b604080517f08c379a000000000000000000000000000000000000000000000000000000000815260206004820152601360248201527f556e737570706f7274656420696e646578657300000000000000000000000000604482015290519081900360640190fd5b95945050505050565b805b9392505050565b6040805173ffffffffffffffffffffffffffffffffffffffff80861660248301528416604482015260648082018490528251808303909101815260849091019091526020810180517bffffffffffffffffffffffffffffffffffffffffffffffffffffffff167f23b872dd000000000000000000000000000000000000000000000000000000001790526107f9908590610908565b50505050565b60008282111561087057604080517f08c379a000000000000000000000000000000000000000000000000000000000815260206004820152601e60248201527f536166654d6174683a207375627472616374696f6e206f766572666c6f770000604482015290519081900360640190fd5b50900390565b6040805173ffffffffffffffffffffffffffffffffffffffff8416602482015260448082018490528251808303909101815260649091019091526020810180517bffffffffffffffffffffffffffffffffffffffffffffffffffffffff167fa9059cbb00000000000000000000000000000000000000000000000000000000179052610903908490610908565b505050565b606061096a826040518060400160405280602081526020017f5361666545524332303a206c6f772d6c6576656c2063616c6c206661696c65648152508573ffffffffffffffffffffffffffffffffffffffff166109e09092919063ffffffff16565b8051909150156109035780806020019051602081101561098957600080fd5b5051610903576040517f08c379a000000000000000000000000000000000000000000000000000000000815260040180806020018281038252602a815260200180610c9d602a913960400191505060405180910390fd5b60606109ef84846000856109f7565b949350505050565b606082471015610a52576040517f08c379a0000000000000000000000000000000000000000000000000000000008152600401808060200182810382526026815260200180610c776026913960400191505060405180910390fd5b610a5b85610bb2565b610ac657604080517f08c379a000000000000000000000000000000000000000000000000000000000815260206004820152601d60248201527f416464726573733a2063616c6c20746f206e6f6e2d636f6e7472616374000000604482015290519081900360640190fd5b600060608673ffffffffffffffffffffffffffffffffffffffff1685876040518082805190602001908083835b60208310610b3057805182527fffffffffffffffffffffffffffffffffffffffffffffffffffffffffffffffe09092019160209182019101610af3565b6001836020036101000a03801982511681845116808217855250505050505090500191505060006040518083038185875af1925050503d8060008114610b92576040519150601f19603f3d011682016040523d82523d6000602084013e610b97565b606091505b5091509150610ba7828286610bb8565b979650505050505050565b3b151590565b60608315610bc757508161075d565b825115610bd75782518084602001fd5b816040517f08c379a00000000000000000000000000000000000000000000000000000000081526004018080602001828103825283818151815260200191508051906020019080838360005b83811015610c3b578181015183820152602001610c23565b50505050905090810190601f168015610c685780820380516001836020036101000a031916815260200191505b509250505060405180910390fdfe416464726573733a20696e73756666696369656e742062616c616e636520666f722063616c6c5361666545524332303a204552433230206f7065726174696f6e20646964206e6f742073756363656564a26469706673582212208d61e042f830e58f0680a2a6fb9a207cb685c0ce5979198456d025d18002398f64736f6c634300060c0033",
  "devdoc": {
    "kind": "dev",
    "methods": {
      "calculateSwap(uint8,uint8,uint256)": {
        "params": {
          "dx": "the amount of tokens the user wants to swap. ",
          "tokenIndexFrom": "the token the user wants to sell",
          "tokenIndexTo": "the token the user wants to buy"
        },
        "returns": {
          "_0": "amount of tokens the user will receive"
        }
      },
      "getToken(uint8)": {
        "params": {
          "index": "the index of the token"
        },
        "returns": {
          "_0": "address of the token at given index"
        }
      },
      "getTokenIndex(address)": {
        "params": {
          "tokenAddress": "address of the token"
        },
        "returns": {
          "_0": "the index of the given token address"
        }
      },
      "swap(uint8,uint8,uint256,uint256,uint256)": {
        "params": {
          "deadline": "latest timestamp to accept this transaction",
          "dx": "the amount of tokens the user wants to swap from",
          "minDy": "the min amount the user would like to receive, or revert.",
          "tokenIndexFrom": "the token the user wants to swap from",
          "tokenIndexTo": "the token the user wants to swap to"
        }
      }
    },
    "version": 1
  },
  "userdoc": {
    "kind": "user",
    "methods": {
      "calculateSwap(uint8,uint8,uint256)": {
        "notice": "Calculate amount of tokens you receive on swap"
      },
      "getToken(uint8)": {
        "notice": "Return address of the pooled token at given index. Reverts if tokenIndex is out of range."
      },
      "getTokenIndex(address)": {
        "notice": "Return the index of the given token address. Reverts if no matching token is found."
      },
      "swap(uint8,uint8,uint256,uint256,uint256)": {
        "notice": "Swap two tokens using this pool"
      }
    },
    "version": 1
  },
  "storageLayout": {
    "storage": [
      {
        "astId": 24454,
        "contract": "contracts/bridge/wrappers/JewelBridgeSwap.sol:JewelBridgeSwap",
        "label": "tokenIndexes",
        "offset": 0,
        "slot": "0",
        "type": "t_mapping(t_address,t_uint8)"
      },
      {
        "astId": 24458,
        "contract": "contracts/bridge/wrappers/JewelBridgeSwap.sol:JewelBridgeSwap",
        "label": "pooledTokens",
        "offset": 0,
        "slot": "1",
        "type": "t_array(t_contract(IERC20)4954)2_storage"
      }
    ],
    "types": {
      "t_address": {
        "encoding": "inplace",
        "label": "address",
        "numberOfBytes": "20"
      },
      "t_array(t_contract(IERC20)4954)2_storage": {
        "base": "t_contract(IERC20)4954",
        "encoding": "inplace",
        "label": "contract IERC20[2]",
        "numberOfBytes": "64"
      },
      "t_contract(IERC20)4954": {
        "encoding": "inplace",
        "label": "contract IERC20",
        "numberOfBytes": "20"
      },
      "t_mapping(t_address,t_uint8)": {
        "encoding": "mapping",
        "key": "t_address",
        "label": "mapping(address => uint8)",
        "numberOfBytes": "32",
        "value": "t_uint8"
      },
      "t_uint8": {
        "encoding": "inplace",
        "label": "uint8",
        "numberOfBytes": "1"
      }
    }
  }
}