{
  "address": "0x31193D020c1d2404f9C7ed7DAea86174f35D25F2",
  "abi": [
    {
      "anonymous": false,
      "inputs": [
        {
          "indexed": false,
          "internalType": "address",
          "name": "account",
          "type": "address"
        }
      ],
      "name": "Paused",
      "type": "event"
    },
    {
      "anonymous": false,
      "inputs": [
        {
          "indexed": true,
          "internalType": "bytes32",
          "name": "role",
          "type": "bytes32"
        },
        {
          "indexed": true,
          "internalType": "bytes32",
          "name": "previousAdminRole",
          "type": "bytes32"
        },
        {
          "indexed": true,
          "internalType": "bytes32",
          "name": "newAdminRole",
          "type": "bytes32"
        }
      ],
      "name": "RoleAdminChanged",
      "type": "event"
    },
    {
      "anonymous": false,
      "inputs": [
        {
          "indexed": true,
          "internalType": "bytes32",
          "name": "role",
          "type": "bytes32"
        },
        {
          "indexed": true,
          "internalType": "address",
          "name": "account",
          "type": "address"
        },
        {
          "indexed": true,
          "internalType": "address",
          "name": "sender",
          "type": "address"
        }
      ],
      "name": "RoleGranted",
      "type": "event"
    },
    {
      "anonymous": false,
      "inputs": [
        {
          "indexed": true,
          "internalType": "bytes32",
          "name": "role",
          "type": "bytes32"
        },
        {
          "indexed": true,
          "internalType": "address",
          "name": "account",
          "type": "address"
        },
        {
          "indexed": true,
          "internalType": "address",
          "name": "sender",
          "type": "address"
        }
      ],
      "name": "RoleRevoked",
      "type": "event"
    },
    {
      "anonymous": false,
      "inputs": [
        {
          "indexed": true,
          "internalType": "address",
          "name": "to",
          "type": "address"
        },
        {
          "indexed": false,
          "internalType": "uint256",
          "name": "chainId",
          "type": "uint256"
        },
        {
          "indexed": false,
          "internalType": "contract IERC20",
          "name": "token",
          "type": "address"
        },
        {
          "indexed": false,
          "internalType": "uint256",
          "name": "amount",
          "type": "uint256"
        }
      ],
      "name": "TokenDeposit",
      "type": "event"
    },
    {
      "anonymous": false,
      "inputs": [
        {
          "indexed": true,
          "internalType": "address",
          "name": "to",
          "type": "address"
        },
        {
          "indexed": false,
          "internalType": "uint256",
          "name": "chainId",
          "type": "uint256"
        },
        {
          "indexed": false,
          "internalType": "contract IERC20",
          "name": "token",
          "type": "address"
        },
        {
          "indexed": false,
          "internalType": "uint256",
          "name": "amount",
          "type": "uint256"
        },
        {
          "indexed": false,
          "internalType": "uint8",
          "name": "tokenIndexFrom",
          "type": "uint8"
        },
        {
          "indexed": false,
          "internalType": "uint8",
          "name": "tokenIndexTo",
          "type": "uint8"
        },
        {
          "indexed": false,
          "internalType": "uint256",
          "name": "minDy",
          "type": "uint256"
        },
        {
          "indexed": false,
          "internalType": "uint256",
          "name": "deadline",
          "type": "uint256"
        }
      ],
      "name": "TokenDepositAndSwap",
      "type": "event"
    },
    {
      "anonymous": false,
      "inputs": [
        {
          "indexed": true,
          "internalType": "address",
          "name": "to",
          "type": "address"
        },
        {
          "indexed": false,
          "internalType": "contract IERC20Mintable",
          "name": "token",
          "type": "address"
        },
        {
          "indexed": false,
          "internalType": "uint256",
          "name": "amount",
          "type": "uint256"
        },
        {
          "indexed": false,
          "internalType": "uint256",
          "name": "fee",
          "type": "uint256"
        },
        {
          "indexed": true,
          "internalType": "bytes32",
          "name": "kappa",
          "type": "bytes32"
        }
      ],
      "name": "TokenMint",
      "type": "event"
    },
    {
      "anonymous": false,
      "inputs": [
        {
          "indexed": true,
          "internalType": "address",
          "name": "to",
          "type": "address"
        },
        {
          "indexed": false,
          "internalType": "contract IERC20Mintable",
          "name": "token",
          "type": "address"
        },
        {
          "indexed": false,
          "internalType": "uint256",
          "name": "amount",
          "type": "uint256"
        },
        {
          "indexed": false,
          "internalType": "uint256",
          "name": "fee",
          "type": "uint256"
        },
        {
          "indexed": false,
          "internalType": "uint8",
          "name": "tokenIndexFrom",
          "type": "uint8"
        },
        {
          "indexed": false,
          "internalType": "uint8",
          "name": "tokenIndexTo",
          "type": "uint8"
        },
        {
          "indexed": false,
          "internalType": "uint256",
          "name": "minDy",
          "type": "uint256"
        },
        {
          "indexed": false,
          "internalType": "uint256",
          "name": "deadline",
          "type": "uint256"
        },
        {
          "indexed": false,
          "internalType": "bool",
          "name": "swapSuccess",
          "type": "bool"
        },
        {
          "indexed": true,
          "internalType": "bytes32",
          "name": "kappa",
          "type": "bytes32"
        }
      ],
      "name": "TokenMintAndSwap",
      "type": "event"
    },
    {
      "anonymous": false,
      "inputs": [
        {
          "indexed": true,
          "internalType": "address",
          "name": "to",
          "type": "address"
        },
        {
          "indexed": false,
          "internalType": "uint256",
          "name": "chainId",
          "type": "uint256"
        },
        {
          "indexed": false,
          "internalType": "contract IERC20",
          "name": "token",
          "type": "address"
        },
        {
          "indexed": false,
          "internalType": "uint256",
          "name": "amount",
          "type": "uint256"
        }
      ],
      "name": "TokenRedeem",
      "type": "event"
    },
    {
      "anonymous": false,
      "inputs": [
        {
          "indexed": true,
          "internalType": "address",
          "name": "to",
          "type": "address"
        },
        {
          "indexed": false,
          "internalType": "uint256",
          "name": "chainId",
          "type": "uint256"
        },
        {
          "indexed": false,
          "internalType": "contract IERC20",
          "name": "token",
          "type": "address"
        },
        {
          "indexed": false,
          "internalType": "uint256",
          "name": "amount",
          "type": "uint256"
        },
        {
          "indexed": false,
          "internalType": "uint8",
          "name": "swapTokenIndex",
          "type": "uint8"
        },
        {
          "indexed": false,
          "internalType": "uint256",
          "name": "swapMinAmount",
          "type": "uint256"
        },
        {
          "indexed": false,
          "internalType": "uint256",
          "name": "swapDeadline",
          "type": "uint256"
        }
      ],
      "name": "TokenRedeemAndRemove",
      "type": "event"
    },
    {
      "anonymous": false,
      "inputs": [
        {
          "indexed": true,
          "internalType": "address",
          "name": "to",
          "type": "address"
        },
        {
          "indexed": false,
          "internalType": "uint256",
          "name": "chainId",
          "type": "uint256"
        },
        {
          "indexed": false,
          "internalType": "contract IERC20",
          "name": "token",
          "type": "address"
        },
        {
          "indexed": false,
          "internalType": "uint256",
          "name": "amount",
          "type": "uint256"
        },
        {
          "indexed": false,
          "internalType": "uint8",
          "name": "tokenIndexFrom",
          "type": "uint8"
        },
        {
          "indexed": false,
          "internalType": "uint8",
          "name": "tokenIndexTo",
          "type": "uint8"
        },
        {
          "indexed": false,
          "internalType": "uint256",
          "name": "minDy",
          "type": "uint256"
        },
        {
          "indexed": false,
          "internalType": "uint256",
          "name": "deadline",
          "type": "uint256"
        }
      ],
      "name": "TokenRedeemAndSwap",
      "type": "event"
    },
    {
      "anonymous": false,
      "inputs": [
        {
          "indexed": true,
          "internalType": "address",
          "name": "to",
          "type": "address"
        },
        {
          "indexed": false,
          "internalType": "contract IERC20",
          "name": "token",
          "type": "address"
        },
        {
          "indexed": false,
          "internalType": "uint256",
          "name": "amount",
          "type": "uint256"
        },
        {
          "indexed": false,
          "internalType": "uint256",
          "name": "fee",
          "type": "uint256"
        },
        {
          "indexed": true,
          "internalType": "bytes32",
          "name": "kappa",
          "type": "bytes32"
        }
      ],
      "name": "TokenWithdraw",
      "type": "event"
    },
    {
      "anonymous": false,
      "inputs": [
        {
          "indexed": true,
          "internalType": "address",
          "name": "to",
          "type": "address"
        },
        {
          "indexed": false,
          "internalType": "contract IERC20",
          "name": "token",
          "type": "address"
        },
        {
          "indexed": false,
          "internalType": "uint256",
          "name": "amount",
          "type": "uint256"
        },
        {
          "indexed": false,
          "internalType": "uint256",
          "name": "fee",
          "type": "uint256"
        },
        {
          "indexed": false,
          "internalType": "uint8",
          "name": "swapTokenIndex",
          "type": "uint8"
        },
        {
          "indexed": false,
          "internalType": "uint256",
          "name": "swapMinAmount",
          "type": "uint256"
        },
        {
          "indexed": false,
          "internalType": "uint256",
          "name": "swapDeadline",
          "type": "uint256"
        },
        {
          "indexed": false,
          "internalType": "bool",
          "name": "swapSuccess",
          "type": "bool"
        },
        {
          "indexed": true,
          "internalType": "bytes32",
          "name": "kappa",
          "type": "bytes32"
        }
      ],
      "name": "TokenWithdrawAndRemove",
      "type": "event"
    },
    {
      "anonymous": false,
      "inputs": [
        {
          "indexed": false,
          "internalType": "address",
          "name": "account",
          "type": "address"
        }
      ],
      "name": "Unpaused",
      "type": "event"
    },
    {
      "inputs": [],
      "name": "DEFAULT_ADMIN_ROLE",
      "outputs": [
        {
          "internalType": "bytes32",
          "name": "",
          "type": "bytes32"
        }
      ],
      "stateMutability": "view",
      "type": "function"
    },
    {
      "inputs": [],
      "name": "GOVERNANCE_ROLE",
      "outputs": [
        {
          "internalType": "bytes32",
          "name": "",
          "type": "bytes32"
        }
      ],
      "stateMutability": "view",
      "type": "function"
    },
    {
      "inputs": [],
      "name": "NODEGROUP_ROLE",
      "outputs": [
        {
          "internalType": "bytes32",
          "name": "",
          "type": "bytes32"
        }
      ],
      "stateMutability": "view",
      "type": "function"
    },
    {
      "inputs": [],
      "name": "WETH_ADDRESS",
      "outputs": [
        {
          "internalType": "address payable",
          "name": "",
          "type": "address"
        }
      ],
      "stateMutability": "view",
      "type": "function"
    },
    {
      "inputs": [
        {
          "internalType": "bytes32[]",
          "name": "kappas",
          "type": "bytes32[]"
        }
      ],
      "name": "addKappas",
      "outputs": [],
      "stateMutability": "nonpayable",
      "type": "function"
    },
    {
      "inputs": [],
      "name": "bridgeVersion",
      "outputs": [
        {
          "internalType": "uint256",
          "name": "",
          "type": "uint256"
        }
      ],
      "stateMutability": "view",
      "type": "function"
    },
    {
      "inputs": [],
      "name": "chainGasAmount",
      "outputs": [
        {
          "internalType": "uint256",
          "name": "",
          "type": "uint256"
        }
      ],
      "stateMutability": "view",
      "type": "function"
    },
    {
      "inputs": [
        {
          "internalType": "address",
          "name": "to",
          "type": "address"
        },
        {
          "internalType": "uint256",
          "name": "chainId",
          "type": "uint256"
        },
        {
          "internalType": "contract IERC20",
          "name": "token",
          "type": "address"
        },
        {
          "internalType": "uint256",
          "name": "amount",
          "type": "uint256"
        }
      ],
      "name": "deposit",
      "outputs": [],
      "stateMutability": "nonpayable",
      "type": "function"
    },
    {
      "inputs": [
        {
          "internalType": "address",
          "name": "to",
          "type": "address"
        },
        {
          "internalType": "uint256",
          "name": "chainId",
          "type": "uint256"
        },
        {
          "internalType": "contract IERC20",
          "name": "token",
          "type": "address"
        },
        {
          "internalType": "uint256",
          "name": "amount",
          "type": "uint256"
        },
        {
          "internalType": "uint8",
          "name": "tokenIndexFrom",
          "type": "uint8"
        },
        {
          "internalType": "uint8",
          "name": "tokenIndexTo",
          "type": "uint8"
        },
        {
          "internalType": "uint256",
          "name": "minDy",
          "type": "uint256"
        },
        {
          "internalType": "uint256",
          "name": "deadline",
          "type": "uint256"
        }
      ],
      "name": "depositAndSwap",
      "outputs": [],
      "stateMutability": "nonpayable",
      "type": "function"
    },
    {
      "inputs": [
        {
          "internalType": "address",
          "name": "tokenAddress",
          "type": "address"
        }
      ],
      "name": "getFeeBalance",
      "outputs": [
        {
          "internalType": "uint256",
          "name": "",
          "type": "uint256"
        }
      ],
      "stateMutability": "view",
      "type": "function"
    },
    {
      "inputs": [
        {
          "internalType": "bytes32",
          "name": "role",
          "type": "bytes32"
        }
      ],
      "name": "getRoleAdmin",
      "outputs": [
        {
          "internalType": "bytes32",
          "name": "",
          "type": "bytes32"
        }
      ],
      "stateMutability": "view",
      "type": "function"
    },
    {
      "inputs": [
        {
          "internalType": "bytes32",
          "name": "role",
          "type": "bytes32"
        },
        {
          "internalType": "uint256",
          "name": "index",
          "type": "uint256"
        }
      ],
      "name": "getRoleMember",
      "outputs": [
        {
          "internalType": "address",
          "name": "",
          "type": "address"
        }
      ],
      "stateMutability": "view",
      "type": "function"
    },
    {
      "inputs": [
        {
          "internalType": "bytes32",
          "name": "role",
          "type": "bytes32"
        }
      ],
      "name": "getRoleMemberCount",
      "outputs": [
        {
          "internalType": "uint256",
          "name": "",
          "type": "uint256"
        }
      ],
      "stateMutability": "view",
      "type": "function"
    },
    {
      "inputs": [
        {
          "internalType": "bytes32",
          "name": "role",
          "type": "bytes32"
        },
        {
          "internalType": "address",
          "name": "account",
          "type": "address"
        }
      ],
      "name": "grantRole",
      "outputs": [],
      "stateMutability": "nonpayable",
      "type": "function"
    },
    {
      "inputs": [
        {
          "internalType": "bytes32",
          "name": "role",
          "type": "bytes32"
        },
        {
          "internalType": "address",
          "name": "account",
          "type": "address"
        }
      ],
      "name": "hasRole",
      "outputs": [
        {
          "internalType": "bool",
          "name": "",
          "type": "bool"
        }
      ],
      "stateMutability": "view",
      "type": "function"
    },
    {
      "inputs": [],
      "name": "initialize",
      "outputs": [],
      "stateMutability": "nonpayable",
      "type": "function"
    },
    {
      "inputs": [
        {
          "internalType": "bytes32",
          "name": "kappa",
          "type": "bytes32"
        }
      ],
      "name": "kappaExists",
      "outputs": [
        {
          "internalType": "bool",
          "name": "",
          "type": "bool"
        }
      ],
      "stateMutability": "view",
      "type": "function"
    },
    {
      "inputs": [
        {
          "internalType": "address payable",
          "name": "to",
          "type": "address"
        },
        {
          "internalType": "contract IERC20Mintable",
          "name": "token",
          "type": "address"
        },
        {
          "internalType": "uint256",
          "name": "amount",
          "type": "uint256"
        },
        {
          "internalType": "uint256",
          "name": "fee",
          "type": "uint256"
        },
        {
          "internalType": "bytes32",
          "name": "kappa",
          "type": "bytes32"
        }
      ],
      "name": "mint",
      "outputs": [],
      "stateMutability": "nonpayable",
      "type": "function"
    },
    {
      "inputs": [
        {
          "internalType": "address payable",
          "name": "to",
          "type": "address"
        },
        {
          "internalType": "contract IERC20Mintable",
          "name": "token",
          "type": "address"
        },
        {
          "internalType": "uint256",
          "name": "amount",
          "type": "uint256"
        },
        {
          "internalType": "uint256",
          "name": "fee",
          "type": "uint256"
        },
        {
          "internalType": "contract ISwap",
          "name": "pool",
          "type": "address"
        },
        {
          "internalType": "uint8",
          "name": "tokenIndexFrom",
          "type": "uint8"
        },
        {
          "internalType": "uint8",
          "name": "tokenIndexTo",
          "type": "uint8"
        },
        {
          "internalType": "uint256",
          "name": "minDy",
          "type": "uint256"
        },
        {
          "internalType": "uint256",
          "name": "deadline",
          "type": "uint256"
        },
        {
          "internalType": "bytes32",
          "name": "kappa",
          "type": "bytes32"
        }
      ],
      "name": "mintAndSwap",
      "outputs": [],
      "stateMutability": "nonpayable",
      "type": "function"
    },
    {
      "inputs": [],
      "name": "pause",
      "outputs": [],
      "stateMutability": "nonpayable",
      "type": "function"
    },
    {
      "inputs": [],
      "name": "paused",
      "outputs": [
        {
          "internalType": "bool",
          "name": "",
          "type": "bool"
        }
      ],
      "stateMutability": "view",
      "type": "function"
    },
    {
      "inputs": [
        {
          "internalType": "address",
          "name": "to",
          "type": "address"
        },
        {
          "internalType": "uint256",
          "name": "chainId",
          "type": "uint256"
        },
        {
          "internalType": "contract ERC20Burnable",
          "name": "token",
          "type": "address"
        },
        {
          "internalType": "uint256",
          "name": "amount",
          "type": "uint256"
        }
      ],
      "name": "redeem",
      "outputs": [],
      "stateMutability": "nonpayable",
      "type": "function"
    },
    {
      "inputs": [
        {
          "internalType": "address",
          "name": "to",
          "type": "address"
        },
        {
          "internalType": "uint256",
          "name": "chainId",
          "type": "uint256"
        },
        {
          "internalType": "contract ERC20Burnable",
          "name": "token",
          "type": "address"
        },
        {
          "internalType": "uint256",
          "name": "amount",
          "type": "uint256"
        },
        {
          "internalType": "uint8",
          "name": "swapTokenIndex",
          "type": "uint8"
        },
        {
          "internalType": "uint256",
          "name": "swapMinAmount",
          "type": "uint256"
        },
        {
          "internalType": "uint256",
          "name": "swapDeadline",
          "type": "uint256"
        }
      ],
      "name": "redeemAndRemove",
      "outputs": [],
      "stateMutability": "nonpayable",
      "type": "function"
    },
    {
      "inputs": [
        {
          "internalType": "address",
          "name": "to",
          "type": "address"
        },
        {
          "internalType": "uint256",
          "name": "chainId",
          "type": "uint256"
        },
        {
          "internalType": "contract ERC20Burnable",
          "name": "token",
          "type": "address"
        },
        {
          "internalType": "uint256",
          "name": "amount",
          "type": "uint256"
        },
        {
          "internalType": "uint8",
          "name": "tokenIndexFrom",
          "type": "uint8"
        },
        {
          "internalType": "uint8",
          "name": "tokenIndexTo",
          "type": "uint8"
        },
        {
          "internalType": "uint256",
          "name": "minDy",
          "type": "uint256"
        },
        {
          "internalType": "uint256",
          "name": "deadline",
          "type": "uint256"
        }
      ],
      "name": "redeemAndSwap",
      "outputs": [],
      "stateMutability": "nonpayable",
      "type": "function"
    },
    {
      "inputs": [
        {
          "internalType": "bytes32",
          "name": "role",
          "type": "bytes32"
        },
        {
          "internalType": "address",
          "name": "account",
          "type": "address"
        }
      ],
      "name": "renounceRole",
      "outputs": [],
      "stateMutability": "nonpayable",
      "type": "function"
    },
    {
      "inputs": [
        {
          "internalType": "bytes32",
          "name": "role",
          "type": "bytes32"
        },
        {
          "internalType": "address",
          "name": "account",
          "type": "address"
        }
      ],
      "name": "revokeRole",
      "outputs": [],
      "stateMutability": "nonpayable",
      "type": "function"
    },
    {
      "inputs": [
        {
          "internalType": "uint256",
          "name": "amount",
          "type": "uint256"
        }
      ],
      "name": "setChainGasAmount",
      "outputs": [],
      "stateMutability": "nonpayable",
      "type": "function"
    },
    {
      "inputs": [
        {
          "internalType": "address payable",
          "name": "_wethAddress",
          "type": "address"
        }
      ],
      "name": "setWethAddress",
      "outputs": [],
      "stateMutability": "nonpayable",
      "type": "function"
    },
    {
      "inputs": [],
      "name": "startBlockNumber",
      "outputs": [
        {
          "internalType": "uint256",
          "name": "",
          "type": "uint256"
        }
      ],
      "stateMutability": "view",
      "type": "function"
    },
    {
      "inputs": [],
      "name": "unpause",
      "outputs": [],
      "stateMutability": "nonpayable",
      "type": "function"
    },
    {
      "inputs": [
        {
          "internalType": "address",
          "name": "to",
          "type": "address"
        },
        {
          "internalType": "contract IERC20",
          "name": "token",
          "type": "address"
        },
        {
          "internalType": "uint256",
          "name": "amount",
          "type": "uint256"
        },
        {
          "internalType": "uint256",
          "name": "fee",
          "type": "uint256"
        },
        {
          "internalType": "bytes32",
          "name": "kappa",
          "type": "bytes32"
        }
      ],
      "name": "withdraw",
      "outputs": [],
      "stateMutability": "nonpayable",
      "type": "function"
    },
    {
      "inputs": [
        {
          "internalType": "address",
          "name": "to",
          "type": "address"
        },
        {
          "internalType": "contract IERC20",
          "name": "token",
          "type": "address"
        },
        {
          "internalType": "uint256",
          "name": "amount",
          "type": "uint256"
        },
        {
          "internalType": "uint256",
          "name": "fee",
          "type": "uint256"
        },
        {
          "internalType": "contract ISwap",
          "name": "pool",
          "type": "address"
        },
        {
          "internalType": "uint8",
          "name": "swapTokenIndex",
          "type": "uint8"
        },
        {
          "internalType": "uint256",
          "name": "swapMinAmount",
          "type": "uint256"
        },
        {
          "internalType": "uint256",
          "name": "swapDeadline",
          "type": "uint256"
        },
        {
          "internalType": "bytes32",
          "name": "kappa",
          "type": "bytes32"
        }
      ],
      "name": "withdrawAndRemove",
      "outputs": [],
      "stateMutability": "nonpayable",
      "type": "function"
    },
    {
      "inputs": [
        {
          "internalType": "contract IERC20",
          "name": "token",
          "type": "address"
        },
        {
          "internalType": "address",
          "name": "to",
          "type": "address"
        }
      ],
      "name": "withdrawFees",
      "outputs": [],
      "stateMutability": "nonpayable",
      "type": "function"
    },
    {
      "stateMutability": "payable",
      "type": "receive"
    }
  ],
  "transactionHash": "0x3353314fb5948ca12ead551d1a579efac786ccdbe1d57babaf058edfe38e8bbe",
  "args": [],
  "solcInputHash": "e079823e2f019853d4052118dbef6ca2",
  "bytecode": "0x608060405234801561001057600080fd5b50613fa3806100206000396000f3fe6080604052600436106102025760003560e01c806390d250741161011d578063ca15c873116100b0578063e7a599981161007f578063f36c8f5c11610064578063f36c8f5c146108db578063f3befd01146108f0578063f3f094a11461090557610209565b8063e7a5999814610823578063f2555278146108a057610209565b8063ca15c8731461073f578063d547741f14610769578063d57eafac146107a2578063e00a83e01461080e57610209565b8063a96e2423116100ec578063a96e24231461069a578063ac865626146106cd578063b250fe6b146106e2578063c78f68031461070c57610209565b806390d250741461059e57806391d14854146105e5578063a217fddf1461061e578063a2a2af0b1461063357610209565b806336e712ed116101955780638129fc1c116101645780638129fc1c146104dd578063839ed90a146104f25780638456cb59146105595780639010d07c1461056e57610209565b806336e712ed146104425780633f4ba83a1461049e578063498a4c2d146104b35780635c975abb146104c857610209565b8063248a9ca3116101d1578063248a9ca3146103565780632f2ff15d146103925780632fe87b95146103cb57806336568abe1461040957610209565b8063040141e51461020e578063173578921461023f5780631cf5f07f146102b857806320d7b3271461030757610209565b3661020957005b600080fd5b34801561021a57600080fd5b5061022361094c565b604080516001600160a01b039092168252519081900360200190f35b34801561024b57600080fd5b506102b6600480360361014081101561026357600080fd5b506001600160a01b03813581169160208101358216916040820135916060810135916080820135169060ff60a082013581169160c08101359091169060e08101359061010081013590610120013561095b565b005b3480156102c457600080fd5b506102b6600480360360a08110156102db57600080fd5b506001600160a01b038135811691602081013590911690604081013590606081013590608001356112b5565b34801561031357600080fd5b506102b6600480360360a081101561032a57600080fd5b506001600160a01b038135811691602081013590911690604081013590606081013590608001356116fe565b34801561036257600080fd5b506103806004803603602081101561037957600080fd5b5035611cb3565b60408051918252519081900360200190f35b34801561039e57600080fd5b506102b6600480360360408110156103b557600080fd5b50803590602001356001600160a01b0316611cc8565b3480156103d757600080fd5b506103f5600480360360208110156103ee57600080fd5b5035611d34565b604080519115158252519081900360200190f35b34801561041557600080fd5b506102b66004803603604081101561042c57600080fd5b50803590602001356001600160a01b0316611d49565b34801561044e57600080fd5b506102b6600480360360e081101561046557600080fd5b506001600160a01b0381358116916020810135916040820135169060608101359060ff6080820135169060a08101359060c00135611daa565b3480156104aa57600080fd5b506102b6611f40565b3480156104bf57600080fd5b50610380611fc5565b3480156104d457600080fd5b506103f5611fcb565b3480156104e957600080fd5b506102b6611fd4565b3480156104fe57600080fd5b506102b6600480360361010081101561051657600080fd5b506001600160a01b0381358116916020810135916040820135169060608101359060ff608082013581169160a08101359091169060c08101359060e001356120c7565b34801561056557600080fd5b506102b6612278565b34801561057a57600080fd5b506102236004803603604081101561059157600080fd5b50803590602001356122fb565b3480156105aa57600080fd5b506102b6600480360360808110156105c157600080fd5b506001600160a01b038135811691602081013591604082013516906060013561231c565b3480156105f157600080fd5b506103f56004803603604081101561060857600080fd5b50803590602001356001600160a01b0316612440565b34801561062a57600080fd5b50610380612458565b34801561063f57600080fd5b506102b6600480360361010081101561065757600080fd5b506001600160a01b0381358116916020810135916040820135169060608101359060ff608082013581169160a08101359091169060c08101359060e0013561245d565b3480156106a657600080fd5b506102b6600480360360208110156106bd57600080fd5b50356001600160a01b03166125a4565b3480156106d957600080fd5b5061038061263a565b3480156106ee57600080fd5b506102b66004803603602081101561070557600080fd5b503561263f565b34801561071857600080fd5b506103806004803603602081101561072f57600080fd5b50356001600160a01b03166126bf565b34801561074b57600080fd5b506103806004803603602081101561076257600080fd5b50356126da565b34801561077557600080fd5b506102b66004803603604081101561078c57600080fd5b50803590602001356001600160a01b03166126f1565b3480156107ae57600080fd5b506102b660048036036101208110156107c657600080fd5b506001600160a01b03813581169160208101358216916040820135916060810135916080820135169060ff60a0820135169060c08101359060e081013590610100013561274a565b34801561081a57600080fd5b50610380612d03565b34801561082f57600080fd5b506102b66004803603602081101561084657600080fd5b81019060208101813564010000000081111561086157600080fd5b82018360208201111561087357600080fd5b8035906020019184602083028401116401000000008311171561089557600080fd5b509092509050612d09565b3480156108ac57600080fd5b506102b6600480360360408110156108c357600080fd5b506001600160a01b0381358116916020013516612dd6565b3480156108e757600080fd5b50610380612f64565b3480156108fc57600080fd5b50610380612f88565b34801561091157600080fd5b506102b66004803603608081101561092857600080fd5b506001600160a01b0381358116916020810135916040820135169060600135612fac565b60cc546001600160a01b031681565b600260655414156109b3576040805162461bcd60e51b815260206004820152601f60248201527f5265656e7472616e637947756172643a207265656e7472616e742063616c6c00604482015290519081900360640190fd5b60026065556109c0611fcb565b15610a12576040805162461bcd60e51b815260206004820152601060248201527f5061757361626c653a2070617573656400000000000000000000000000000000604482015290519081900360640190fd5b610a3c7fb5c00e6706c3d213edd70ff33717fac657eacc5fe161f07180cf1fcab13cc4cd33612440565b610a8d576040805162461bcd60e51b815260206004820152601a60248201527f43616c6c6572206973206e6f742061206e6f64652067726f7570000000000000604482015290519081900360640190fd5b868811610ae1576040805162461bcd60e51b815260206004820152601f60248201527f416d6f756e74206d7573742062652067726561746572207468616e2066656500604482015290519081900360640190fd5b600081815260cd602052604090205460ff1615610b45576040805162461bcd60e51b815260206004820152601860248201527f4b6170706120697320616c72656164792070726573656e740000000000000000604482015290519081900360640190fd5b600081815260cd60209081526040808320805460ff191660011790556001600160a01b038c16835260c9909152902054610b7f908861312b565b6001600160a01b038a16600090815260c9602052604090205560cb5415801590610baa575060cb5447115b15610c035760cb546040516001600160a01b038c169190600081818185875af1925050503d8060008114610bfa576040519150601f19603f3d011682016040523d82523d6000602084013e610bff565b606091505b5050505b60006001600160a01b03871663a95b089f8787610c208d8d613185565b6040518463ffffffff1660e01b8152600401808460ff1681526020018360ff168152602001828152602001935050505060206040518083038186803b158015610c6857600080fd5b505afa158015610c7c573d6000803e3d6000fd5b505050506040513d6020811015610c9257600080fd5b5051905083811061118557604080517f40c10f19000000000000000000000000000000000000000000000000000000008152306004820152602481018b905290516001600160a01b038c16916340c10f1991604480830192600092919082900301818387803b158015610d0457600080fd5b505af1158015610d18573d6000803e3d6000fd5b50610d31925050506001600160a01b038b16888b6131e2565b6001600160a01b03871663916955868787610d4c8d8d613185565b88886040518663ffffffff1660e01b8152600401808660ff1681526020018560ff16815260200184815260200183815260200182815260200195505050505050602060405180830381600087803b158015610da657600080fd5b505af1925050508015610dcb57506040513d6020811015610dc657600080fd5b505160015b610e7a57610dee8b610ddd8b8b613185565b6001600160a01b038d169190613301565b816001600160a01b038c167f4f56ec39e98539920503fd54ee56ae0cbebe9eb15aa778f18de67701eeae7c658c610e258d8d613185565b604080516001600160a01b03909316835260208301919091528181018d905260ff808c1660608401528a16608083015260a0820189905260c08201889052600060e083015251908190036101000190a3611180565b6000886001600160a01b03166382b86600886040518263ffffffff1660e01b8152600401808260ff16815260200191505060206040518083038186803b158015610ec357600080fd5b505afa158015610ed7573d6000803e3d6000fd5b505050506040513d6020811015610eed57600080fd5b505160cc549091506001600160a01b038083169116148015610f19575060cc546001600160a01b031615155b156110dc5760cc54604080517f2e1a7d4d0000000000000000000000000000000000000000000000000000000081526004810185905290516001600160a01b0390921691632e1a7d4d9160248082019260009290919082900301818387803b158015610f8457600080fd5b505af1158015610f98573d6000803e3d6000fd5b5050505060008d6001600160a01b03168360405180600001905060006040518083038185875af1925050503d8060008114610fef576040519150601f19603f3d011682016040523d82523d6000602084013e610ff4565b606091505b505090508061104a576040805162461bcd60e51b815260206004820152601360248201527f4554485f5452414e534645525f4641494c454400000000000000000000000000604482015290519081900360640190fd5b848e6001600160a01b03167f4f56ec39e98539920503fd54ee56ae0cbebe9eb15aa778f18de67701eeae7c658f868f8e8e8e8e600160405180896001600160a01b031681526020018881526020018781526020018660ff1681526020018560ff16815260200184815260200183815260200182151581526020019850505050505050505060405180910390a35061117d565b6110f06001600160a01b0382168e84613301565b838d6001600160a01b03167f4f56ec39e98539920503fd54ee56ae0cbebe9eb15aa778f18de67701eeae7c658e858e8d8d8d8d600160405180896001600160a01b031681526020018881526020018781526020018660ff1681526020018560ff16815260200184815260200183815260200182151581526020019850505050505050505060405180910390a35b50505b6112a3565b604080517f40c10f19000000000000000000000000000000000000000000000000000000008152306004820152602481018b905290516001600160a01b038c16916340c10f1991604480830192600092919082900301818387803b1580156111ec57600080fd5b505af1158015611200573d6000803e3d6000fd5b5050505061121b8b610ddd8a8c61318590919063ffffffff16565b816001600160a01b038c167f4f56ec39e98539920503fd54ee56ae0cbebe9eb15aa778f18de67701eeae7c658c6112528d8d613185565b604080516001600160a01b03909316835260208301919091528181018d905260ff808c1660608401528a16608083015260a0820189905260c08201889052600060e083015251908190036101000190a35b50506001606555505050505050505050565b6002606554141561130d576040805162461bcd60e51b815260206004820152601f60248201527f5265656e7472616e637947756172643a207265656e7472616e742063616c6c00604482015290519081900360640190fd5b600260655561131a611fcb565b1561136c576040805162461bcd60e51b815260206004820152601060248201527f5061757361626c653a2070617573656400000000000000000000000000000000604482015290519081900360640190fd5b6113967fb5c00e6706c3d213edd70ff33717fac657eacc5fe161f07180cf1fcab13cc4cd33612440565b6113e7576040805162461bcd60e51b815260206004820152601a60248201527f43616c6c6572206973206e6f742061206e6f64652067726f7570000000000000604482015290519081900360640190fd5b81831161143b576040805162461bcd60e51b815260206004820152601f60248201527f416d6f756e74206d7573742062652067726561746572207468616e2066656500604482015290519081900360640190fd5b600081815260cd602052604090205460ff161561149f576040805162461bcd60e51b815260206004820152601860248201527f4b6170706120697320616c72656164792070726573656e740000000000000000604482015290519081900360640190fd5b600081815260cd60209081526040808320805460ff191660011790556001600160a01b038716835260c99091529020546114d9908361312b565b6001600160a01b03808616600081815260c9602052604090209290925560cc5416148015611511575060cc546001600160a01b031615155b156116835760cc546001600160a01b0316632e1a7d4d6115318585613185565b6040518263ffffffff1660e01b815260040180828152602001915050600060405180830381600087803b15801561156757600080fd5b505af115801561157b573d6000803e3d6000fd5b506000925050506001600160a01b0386166115968585613185565b604051600081818185875af1925050503d80600081146115d2576040519150601f19603f3d011682016040523d82523d6000602084013e6115d7565b606091505b505090508061162d576040805162461bcd60e51b815260206004820152601360248201527f4554485f5452414e534645525f4641494c454400000000000000000000000000604482015290519081900360640190fd5b604080516001600160a01b03878116825260208201879052818301869052915184928916917f8b0afdc777af6946e53045a4a75212769075d30455a212ac51c9b16f9c5c9b26919081900360600190a3506116f2565b604080516001600160a01b03868116825260208201869052818301859052915183928816917f8b0afdc777af6946e53045a4a75212769075d30455a212ac51c9b16f9c5c9b26919081900360600190a36116f2856116e18585613185565b6001600160a01b0387169190613301565b50506001606555505050565b60026065541415611756576040805162461bcd60e51b815260206004820152601f60248201527f5265656e7472616e637947756172643a207265656e7472616e742063616c6c00604482015290519081900360640190fd5b6002606555611763611fcb565b156117b5576040805162461bcd60e51b815260206004820152601060248201527f5061757361626c653a2070617573656400000000000000000000000000000000604482015290519081900360640190fd5b6117df7fb5c00e6706c3d213edd70ff33717fac657eacc5fe161f07180cf1fcab13cc4cd33612440565b611830576040805162461bcd60e51b815260206004820152601a60248201527f43616c6c6572206973206e6f742061206e6f64652067726f7570000000000000604482015290519081900360640190fd5b818311611884576040805162461bcd60e51b815260206004820152601f60248201527f416d6f756e74206d7573742062652067726561746572207468616e2066656500604482015290519081900360640190fd5b600081815260cd602052604090205460ff16156118e8576040805162461bcd60e51b815260206004820152601860248201527f4b6170706120697320616c72656164792070726573656e740000000000000000604482015290519081900360640190fd5b600081815260cd60209081526040808320805460ff191660011790556001600160a01b038716835260c9909152902054611922908361312b565b6001600160a01b03808616600090815260c96020526040902091909155819086167fbf14b9fde87f6e1c29a7e0787ad1d0d64b4648d8ae63da21524d9fd0f283dd388661196f8787613185565b604080516001600160a01b0390931683526020830191909152818101879052519081900360600190a3604080517f40c10f190000000000000000000000000000000000000000000000000000000081523060048201526024810185905290516001600160a01b038616916340c10f1991604480830192600092919082900301818387803b1580156119ff57600080fd5b505af1158015611a13573d6000803e3d6000fd5b505050506001600160a01b038416731852f70512298d56e9c8fdd905e02581e04ddb2a1415611c2f57611a468383613185565b604080517fdd62ed3e00000000000000000000000000000000000000000000000000000000815230600482015273fa7191d292d5633f702b0bd7e3e3bccc0e633200602482015290516001600160a01b0387169163dd62ed3e916044808301926020929190829003018186803b158015611abf57600080fd5b505afa158015611ad3573d6000803e3d6000fd5b505050506040513d6020811015611ae957600080fd5b50511015611b6257611b1a6001600160a01b03851673fa7191d292d5633f702b0bd7e3e3bccc0e6332006000613381565b611b626001600160a01b03851673fa7191d292d5633f702b0bd7e3e3bccc0e6332007fffffffffffffffffffffffffffffffffffffffffffffffffffffffffffffffff613381565b73fa7191d292d5633f702b0bd7e3e3bccc0e633200639006a50f85611b878686613185565b6040518363ffffffff1660e01b815260040180836001600160a01b0316815260200182815260200192505050602060405180830381600087803b158015611bcd57600080fd5b505af1925050508015611bf257506040513d6020811015611bed57600080fd5b505160015b611c0957611c04856116e18585613185565b611c2a565b611c2873fa7191d292d5633f702b0bd7e3e3bccc0e6332008783613301565b505b611c3d565b611c3d856116e18585613185565b60cb5415801590611c4f575060cb5447115b156116f25760cb546040516001600160a01b0387169190600081818185875af1925050503d8060008114611c9f576040519150601f19603f3d011682016040523d82523d6000602084013e611ca4565b606091505b50505050506001606555505050565b60009081526033602052604090206002015490565b600082815260336020526040902060020154611ceb90611ce66134db565b612440565b611d265760405162461bcd60e51b815260040180806020018281038252602f815260200180613e2c602f913960400191505060405180910390fd5b611d3082826134df565b5050565b600090815260cd602052604090205460ff1690565b611d516134db565b6001600160a01b0316816001600160a01b031614611da05760405162461bcd60e51b815260040180806020018281038252602f815260200180613f3f602f913960400191505060405180910390fd5b611d308282613548565b60026065541415611e02576040805162461bcd60e51b815260206004820152601f60248201527f5265656e7472616e637947756172643a207265656e7472616e742063616c6c00604482015290519081900360640190fd5b6002606555611e0f611fcb565b15611e61576040805162461bcd60e51b815260206004820152601060248201527f5061757361626c653a2070617573656400000000000000000000000000000000604482015290519081900360640190fd5b604080518781526001600160a01b03878116602083015281830187905260ff861660608301526080820185905260a082018490529151918916917f9a7024cde1920aa50cdde09ca396229e8c4d530d5cfdc6233590def70a94408c9181900360c00190a2604080517f79cc67900000000000000000000000000000000000000000000000000000000081523360048201526024810186905290516001600160a01b038716916379cc679091604480830192600092919082900301818387803b158015611f2c57600080fd5b505af11580156112a3573d6000803e3d6000fd5b611f6a7f71840dc4906352362b0cdaf79870196c8e42acafade72d5d5a6d59291253ceb133612440565b611fbb576040805162461bcd60e51b815260206004820152600e60248201527f4e6f7420676f7665726e616e6365000000000000000000000000000000000000604482015290519081900360640190fd5b611fc36135b1565b565b60ca5481565b60975460ff1690565b600054610100900460ff1680611fed5750611fed61365a565b80611ffb575060005460ff16155b6120365760405162461bcd60e51b815260040180806020018281038252602e815260200180613eb1602e913960400191505060405180910390fd5b600054610100900460ff1615801561207e576000805460ff197fffffffffffffffffffffffffffffffffffffffffffffffffffffffffffff00ff909116610100171660011790555b4360ca5561208d600033611d26565b61209561366b565b80156120c457600080547fffffffffffffffffffffffffffffffffffffffffffffffffffffffffffff00ff1690555b50565b6002606554141561211f576040805162461bcd60e51b815260206004820152601f60248201527f5265656e7472616e637947756172643a207265656e7472616e742063616c6c00604482015290519081900360640190fd5b600260655561212c611fcb565b1561217e576040805162461bcd60e51b815260206004820152601060248201527f5061757361626c653a2070617573656400000000000000000000000000000000604482015290519081900360640190fd5b604080518881526001600160a01b03888116602083015281830188905260ff80881660608401528616608083015260a0820185905260c082018490529151918a16917f91f25e9be0134ec851830e0e76dc71e06f9dade75a9b84e9524071dbbc3194259181900360e00190a2604080517f79cc67900000000000000000000000000000000000000000000000000000000081523360048201526024810187905290516001600160a01b038816916379cc679091604480830192600092919082900301818387803b15801561225157600080fd5b505af1158015612265573d6000803e3d6000fd5b5050600160655550505050505050505050565b6122a27f71840dc4906352362b0cdaf79870196c8e42acafade72d5d5a6d59291253ceb133612440565b6122f3576040805162461bcd60e51b815260206004820152600e60248201527f4e6f7420676f7665726e616e6365000000000000000000000000000000000000604482015290519081900360640190fd5b611fc3613725565b600082815260336020526040812061231390836137b5565b90505b92915050565b60026065541415612374576040805162461bcd60e51b815260206004820152601f60248201527f5265656e7472616e637947756172643a207265656e7472616e742063616c6c00604482015290519081900360640190fd5b6002606555612381611fcb565b156123d3576040805162461bcd60e51b815260206004820152601060248201527f5061757361626c653a2070617573656400000000000000000000000000000000604482015290519081900360640190fd5b604080518481526001600160a01b0384811660208301528183018490529151918616917fda5273705dbef4bf1b902a131c2eac086b7e1476a8ab0cb4da08af1fe1bd8e3b9181900360600190a26124356001600160a01b0383163330846137c1565b505060016065555050565b60008281526033602052604081206123139083613849565b600081565b600260655414156124b5576040805162461bcd60e51b815260206004820152601f60248201527f5265656e7472616e637947756172643a207265656e7472616e742063616c6c00604482015290519081900360640190fd5b60026065556124c2611fcb565b15612514576040805162461bcd60e51b815260206004820152601060248201527f5061757361626c653a2070617573656400000000000000000000000000000000604482015290519081900360640190fd5b604080518881526001600160a01b03888116602083015281830188905260ff80881660608401528616608083015260a0820185905260c082018490529151918a16917f79c15604b92ef54d3f61f0c40caab8857927ca3d5092367163b4562c1699eb5f9181900360e00190a26125956001600160a01b0387163330886137c1565b50506001606555505050505050565b6125af600033612440565b612600576040805162461bcd60e51b815260206004820152600960248201527f4e6f742061646d696e0000000000000000000000000000000000000000000000604482015290519081900360640190fd5b60cc80547fffffffffffffffffffffffff0000000000000000000000000000000000000000166001600160a01b0392909216919091179055565b600681565b6126697f71840dc4906352362b0cdaf79870196c8e42acafade72d5d5a6d59291253ceb133612440565b6126ba576040805162461bcd60e51b815260206004820152600e60248201527f4e6f7420676f7665726e616e6365000000000000000000000000000000000000604482015290519081900360640190fd5b60cb55565b6001600160a01b0316600090815260c9602052604090205490565b60008181526033602052604081206123169061385e565b60008281526033602052604090206002015461270f90611ce66134db565b611da05760405162461bcd60e51b8152600401808060200182810382526030815260200180613e816030913960400191505060405180910390fd5b600260655414156127a2576040805162461bcd60e51b815260206004820152601f60248201527f5265656e7472616e637947756172643a207265656e7472616e742063616c6c00604482015290519081900360640190fd5b60026065556127af611fcb565b15612801576040805162461bcd60e51b815260206004820152601060248201527f5061757361626c653a2070617573656400000000000000000000000000000000604482015290519081900360640190fd5b61282b7fb5c00e6706c3d213edd70ff33717fac657eacc5fe161f07180cf1fcab13cc4cd33612440565b61287c576040805162461bcd60e51b815260206004820152601a60248201527f43616c6c6572206973206e6f742061206e6f64652067726f7570000000000000604482015290519081900360640190fd5b8587116128d0576040805162461bcd60e51b815260206004820152601f60248201527f416d6f756e74206d7573742062652067726561746572207468616e2066656500604482015290519081900360640190fd5b600081815260cd602052604090205460ff1615612934576040805162461bcd60e51b815260206004820152601860248201527f4b6170706120697320616c72656164792070726573656e740000000000000000604482015290519081900360640190fd5b600081815260cd60209081526040808320805460ff191660011790556001600160a01b038b16835260c990915290205461296e908761312b565b6001600160a01b03808a16600090815260c96020526040812092909255861663342a87a161299c8a8a613185565b876040518363ffffffff1660e01b8152600401808381526020018260ff1681526020019250505060206040518083038186803b1580156129db57600080fd5b505afa1580156129ef573d6000803e3d6000fd5b505050506040513d6020811015612a0557600080fd5b50519050838110612c6557612a2f86612a1e8a8a613185565b6001600160a01b038c1691906131e2565b6001600160a01b038616633e3a1560612a488a8a613185565b8787876040518563ffffffff1660e01b8152600401808581526020018460ff168152602001838152602001828152602001945050505050602060405180830381600087803b158015612a9957600080fd5b505af1925050508015612abe57506040513d6020811015612ab957600080fd5b505160015b612b6457612ae18a612ad08a8a613185565b6001600160a01b038c169190613301565b816001600160a01b038b167fc1a608d0f8122d014d03cc915a91d98cef4ebaf31ea3552320430cba05211b6d8b612b188c8c613185565b604080516001600160a01b03909316835260208301919091528181018c905260ff8a1660608301526080820189905260a08201889052600060c0830152519081900360e00190a3612c60565b6000876001600160a01b03166382b86600886040518263ffffffff1660e01b8152600401808260ff16815260200191505060206040518083038186803b158015612bad57600080fd5b505afa158015612bc1573d6000803e3d6000fd5b505050506040513d6020811015612bd757600080fd5b50519050612bef6001600160a01b0382168d84613301565b604080516001600160a01b038d81168252602082018590528183018c905260ff8a1660608301526080820189905260a08201889052600160c0830152915186928f16917fc1a608d0f8122d014d03cc915a91d98cef4ebaf31ea3552320430cba05211b6d919081900360e00190a350505b612cf2565b612c738a612ad08a8a613185565b816001600160a01b038b167fc1a608d0f8122d014d03cc915a91d98cef4ebaf31ea3552320430cba05211b6d8b612caa8c8c613185565b604080516001600160a01b03909316835260208301919091528181018c905260ff8a1660608301526080820189905260a08201889052600060c0830152519081900360e00190a35b505060016065555050505050505050565b60cb5481565b612d337f71840dc4906352362b0cdaf79870196c8e42acafade72d5d5a6d59291253ceb133612440565b612d84576040805162461bcd60e51b815260206004820152600e60248201527f4e6f7420676f7665726e616e6365000000000000000000000000000000000000604482015290519081900360640190fd5b60005b81811015612dd157600160cd6000858585818110612da157fe5b60209081029290920135835250810191909152604001600020805460ff1916911515919091179055600101612d87565b505050565b612dde611fcb565b15612e30576040805162461bcd60e51b815260206004820152601060248201527f5061757361626c653a2070617573656400000000000000000000000000000000604482015290519081900360640190fd5b612e5a7f71840dc4906352362b0cdaf79870196c8e42acafade72d5d5a6d59291253ceb133612440565b612eab576040805162461bcd60e51b815260206004820152600e60248201527f4e6f7420676f7665726e616e6365000000000000000000000000000000000000604482015290519081900360640190fd5b6001600160a01b038116612f06576040805162461bcd60e51b815260206004820152601060248201527f4164647265737320697320307830303000000000000000000000000000000000604482015290519081900360640190fd5b6001600160a01b038216600090815260c9602052604090205415611d30576001600160a01b038216600081815260c96020526040902054612f4991908390613301565b506001600160a01b0316600090815260c96020526040812055565b7f71840dc4906352362b0cdaf79870196c8e42acafade72d5d5a6d59291253ceb181565b7fb5c00e6706c3d213edd70ff33717fac657eacc5fe161f07180cf1fcab13cc4cd81565b60026065541415613004576040805162461bcd60e51b815260206004820152601f60248201527f5265656e7472616e637947756172643a207265656e7472616e742063616c6c00604482015290519081900360640190fd5b6002606555613011611fcb565b15613063576040805162461bcd60e51b815260206004820152601060248201527f5061757361626c653a2070617573656400000000000000000000000000000000604482015290519081900360640190fd5b604080518481526001600160a01b0384811660208301528183018490529151918616917fdc5bad4651c5fbe9977a696aadc65996c468cde1448dd468ec0d83bf61c4b57c9181900360600190a2604080517f79cc67900000000000000000000000000000000000000000000000000000000081523360048201526024810183905290516001600160a01b038416916379cc679091604480830192600092919082900301818387803b15801561311757600080fd5b505af1158015612595573d6000803e3d6000fd5b600082820183811015612313576040805162461bcd60e51b815260206004820152601b60248201527f536166654d6174683a206164646974696f6e206f766572666c6f770000000000604482015290519081900360640190fd5b6000828211156131dc576040805162461bcd60e51b815260206004820152601e60248201527f536166654d6174683a207375627472616374696f6e206f766572666c6f770000604482015290519081900360640190fd5b50900390565b600061327882856001600160a01b031663dd62ed3e30876040518363ffffffff1660e01b815260040180836001600160a01b03168152602001826001600160a01b031681526020019250505060206040518083038186803b15801561324657600080fd5b505afa15801561325a573d6000803e3d6000fd5b505050506040513d602081101561327057600080fd5b50519061312b565b604080516001600160a01b038616602482015260448082018490528251808303909101815260649091019091526020810180517bffffffffffffffffffffffffffffffffffffffffffffffffffffffff167f095ea7b3000000000000000000000000000000000000000000000000000000001790529091506132fb908590613869565b50505050565b604080516001600160a01b038416602482015260448082018490528251808303909101815260649091019091526020810180517bffffffffffffffffffffffffffffffffffffffffffffffffffffffff167fa9059cbb00000000000000000000000000000000000000000000000000000000179052612dd1908490613869565b8015806134205750604080517fdd62ed3e0000000000000000000000000000000000000000000000000000000081523060048201526001600160a01b03848116602483015291519185169163dd62ed3e91604480820192602092909190829003018186803b1580156133f257600080fd5b505afa158015613406573d6000803e3d6000fd5b505050506040513d602081101561341c57600080fd5b5051155b61345b5760405162461bcd60e51b8152600401808060200182810382526036815260200180613f096036913960400191505060405180910390fd5b604080516001600160a01b038416602482015260448082018490528251808303909101815260649091019091526020810180517bffffffffffffffffffffffffffffffffffffffffffffffffffffffff167f095ea7b300000000000000000000000000000000000000000000000000000000179052612dd1908490613869565b3390565b60008281526033602052604090206134f7908261391a565b15611d30576135046134db565b6001600160a01b0316816001600160a01b0316837f2f8788117e7eff1d82e926ec794901d17c78024a50270940304540a733656f0d60405160405180910390a45050565b6000828152603360205260409020613560908261392f565b15611d305761356d6134db565b6001600160a01b0316816001600160a01b0316837ff6391f5c32d9c69d2a47ea670b442974b53935d1edc7fd64eb21e047a839171b60405160405180910390a45050565b6135b9611fcb565b61360a576040805162461bcd60e51b815260206004820152601460248201527f5061757361626c653a206e6f7420706175736564000000000000000000000000604482015290519081900360640190fd5b6097805460ff191690557f5db9ee0a495bf2e6ff9c91a7834c1ba4fdd244a5e8aa4e537bd38aeae4b073aa61363d6134db565b604080516001600160a01b039092168252519081900360200190a1565b600061366530613944565b15905090565b600054610100900460ff1680613684575061368461365a565b80613692575060005460ff16155b6136cd5760405162461bcd60e51b815260040180806020018281038252602e815260200180613eb1602e913960400191505060405180910390fd5b600054610100900460ff16158015613715576000805460ff197fffffffffffffffffffffffffffffffffffffffffffffffffffffffffffff00ff909116610100171660011790555b61371d61394a565b61209561394a565b61372d611fcb565b1561377f576040805162461bcd60e51b815260206004820152601060248201527f5061757361626c653a2070617573656400000000000000000000000000000000604482015290519081900360640190fd5b6097805460ff191660011790557f62e78cea01bee320cd4e420270b5ea74000d11b0c9f74754ebdbfc544b05a25861363d6134db565b60006123138383613a24565b604080516001600160a01b0380861660248301528416604482015260648082018490528251808303909101815260849091019091526020810180517bffffffffffffffffffffffffffffffffffffffffffffffffffffffff167f23b872dd000000000000000000000000000000000000000000000000000000001790526132fb908590613869565b6000612313836001600160a01b038416613a88565b600061231682613aa0565b60606138be826040518060400160405280602081526020017f5361666545524332303a206c6f772d6c6576656c2063616c6c206661696c6564815250856001600160a01b0316613aa49092919063ffffffff16565b805190915015612dd1578080602001905160208110156138dd57600080fd5b5051612dd15760405162461bcd60e51b815260040180806020018281038252602a815260200180613edf602a913960400191505060405180910390fd5b6000612313836001600160a01b038416613abd565b6000612313836001600160a01b038416613b07565b3b151590565b600054610100900460ff1680613963575061396361365a565b80613971575060005460ff16155b6139ac5760405162461bcd60e51b815260040180806020018281038252602e815260200180613eb1602e913960400191505060405180910390fd5b600054610100900460ff16158015612095576000805460ff197fffffffffffffffffffffffffffffffffffffffffffffffffffffffffffff00ff9091166101001716600117905580156120c457600080547fffffffffffffffffffffffffffffffffffffffffffffffffffffffffffff00ff16905550565b81546000908210613a665760405162461bcd60e51b8152600401808060200182810382526022815260200180613e0a6022913960400191505060405180910390fd5b826000018281548110613a7557fe5b9060005260206000200154905092915050565b60009081526001919091016020526040902054151590565b5490565b6060613ab38484600085613beb565b90505b9392505050565b6000613ac98383613a88565b613aff57508154600181810184556000848152602080822090930184905584548482528286019093526040902091909155612316565b506000612316565b60008181526001830160205260408120548015613be15783547fffffffffffffffffffffffffffffffffffffffffffffffffffffffffffffffff8083019190810190600090879083908110613b5857fe5b9060005260206000200154905080876000018481548110613b7557fe5b600091825260208083209091019290925582815260018981019092526040902090840190558654879080613ba557fe5b60019003818190600052602060002001600090559055866001016000878152602001908152602001600020600090556001945050505050612316565b6000915050612316565b606082471015613c2c5760405162461bcd60e51b8152600401808060200182810382526026815260200180613e5b6026913960400191505060405180910390fd5b613c3585613944565b613c86576040805162461bcd60e51b815260206004820152601d60248201527f416464726573733a2063616c6c20746f206e6f6e2d636f6e7472616374000000604482015290519081900360640190fd5b60006060866001600160a01b031685876040518082805190602001908083835b60208310613ce357805182527fffffffffffffffffffffffffffffffffffffffffffffffffffffffffffffffe09092019160209182019101613ca6565b6001836020036101000a03801982511681845116808217855250505050505090500191505060006040518083038185875af1925050503d8060008114613d45576040519150601f19603f3d011682016040523d82523d6000602084013e613d4a565b606091505b5091509150613d5a828286613d65565b979650505050505050565b60608315613d74575081613ab6565b825115613d845782518084602001fd5b8160405162461bcd60e51b81526004018080602001828103825283818151815260200191508051906020019080838360005b83811015613dce578181015183820152602001613db6565b50505050905090810190601f168015613dfb5780820380516001836020036101000a031916815260200191505b509250505060405180910390fdfe456e756d657261626c655365743a20696e646578206f7574206f6620626f756e6473416363657373436f6e74726f6c3a2073656e646572206d75737420626520616e2061646d696e20746f206772616e74416464726573733a20696e73756666696369656e742062616c616e636520666f722063616c6c416363657373436f6e74726f6c3a2073656e646572206d75737420626520616e2061646d696e20746f207265766f6b65496e697469616c697a61626c653a20636f6e747261637420697320616c726561647920696e697469616c697a65645361666545524332303a204552433230206f7065726174696f6e20646964206e6f7420737563636565645361666545524332303a20617070726f76652066726f6d206e6f6e2d7a65726f20746f206e6f6e2d7a65726f20616c6c6f77616e6365416363657373436f6e74726f6c3a2063616e206f6e6c792072656e6f756e636520726f6c657320666f722073656c66a264697066735822122052b91fb3afeeef581c8d5a918f0e782569a6bf634252432f0cd242e983a43aea64736f6c634300060c0033",
  "devdoc": {
    "kind": "dev",
    "methods": {
      "deposit(address,uint256,address,uint256)": {
        "params": {
          "amount": "Amount in native token decimals to transfer cross-chain pre-fees*",
          "chainId": "which chain to bridge assets onto",
          "to": "address on other chain to bridge assets to",
          "token": "ERC20 compatible token to deposit into the bridge"
        }
      },
      "depositAndSwap(address,uint256,address,uint256,uint8,uint8,uint256,uint256)": {
        "params": {
          "amount": "Amount in native token decimals to transfer cross-chain pre-fees",
          "chainId": "which chain to bridge assets onto",
          "deadline": "latest timestamp to accept this transaction*",
          "minDy": "the min amount the user would like to receive, or revert to only minting the SynERC20 token crosschain.",
          "to": "address on other chain to bridge assets to",
          "token": "ERC20 compatible token to deposit into the bridge",
          "tokenIndexFrom": "the token the user wants to swap from",
          "tokenIndexTo": "the token the user wants to swap to"
        }
      },
      "getRoleAdmin(bytes32)": {
        "details": "Returns the admin role that controls `role`. See {grantRole} and {revokeRole}. To change a role's admin, use {_setRoleAdmin}."
      },
      "getRoleMember(bytes32,uint256)": {
        "details": "Returns one of the accounts that have `role`. `index` must be a value between 0 and {getRoleMemberCount}, non-inclusive. Role bearers are not sorted in any particular way, and their ordering may change at any point. WARNING: When using {getRoleMember} and {getRoleMemberCount}, make sure you perform all queries on the same block. See the following https://forum.openzeppelin.com/t/iterating-over-elements-on-enumerableset-in-openzeppelin-contracts/2296[forum post] for more information."
      },
      "getRoleMemberCount(bytes32)": {
        "details": "Returns the number of accounts that have `role`. Can be used together with {getRoleMember} to enumerate all bearers of a role."
      },
      "grantRole(bytes32,address)": {
        "details": "Grants `role` to `account`. If `account` had not been already granted `role`, emits a {RoleGranted} event. Requirements: - the caller must have ``role``'s admin role."
      },
      "hasRole(bytes32,address)": {
        "details": "Returns `true` if `account` has been granted `role`."
      },
      "mint(address,address,uint256,uint256,bytes32)": {
        "details": "This means the SynapseBridge.sol contract must have minter access to the token attempting to be minted",
        "params": {
          "amount": "Amount in native token decimals to transfer cross-chain post-fees",
          "fee": "Amount in native token decimals to save to the contract as fees",
          "kappa": "kappa*",
          "to": "address on other chain to redeem underlying assets to",
          "token": "ERC20 compatible token to deposit into the bridge"
        }
      },
      "mintAndSwap(address,address,uint256,uint256,address,uint8,uint8,uint256,uint256,bytes32)": {
        "details": "This means the BridgeDeposit.sol contract must have minter access to the token attempting to be minted",
        "params": {
          "amount": "Amount in native token decimals to transfer cross-chain post-fees",
          "deadline": "Epoch time of the deadline that the swap is allowed to be executed.",
          "fee": "Amount in native token decimals to save to the contract as fees",
          "kappa": "kappa*",
          "minDy": "Minumum amount (in final asset decimals) that must be swapped for, otherwise the user will receive the SynERC20.",
          "pool": "Destination chain's pool to use to swap SynERC20 -> Asset. The nodes determine this by using PoolConfig.sol.",
          "to": "address on other chain to redeem underlying assets to",
          "token": "ERC20 compatible token to deposit into the bridge",
          "tokenIndexFrom": "Index of the SynERC20 asset in the pool",
          "tokenIndexTo": "Index of the desired final asset"
        }
      },
      "paused()": {
        "details": "Returns true if the contract is paused, and false otherwise."
      },
      "redeem(address,uint256,address,uint256)": {
        "params": {
          "amount": "Amount in native token decimals to transfer cross-chain pre-fees*",
          "chainId": "which underlying chain to bridge assets onto",
          "to": "address on other chain to redeem underlying assets to",
          "token": "ERC20 compatible token to deposit into the bridge"
        }
      },
      "redeemAndRemove(address,uint256,address,uint256,uint8,uint256,uint256)": {
        "params": {
          "amount": "Amount in native token decimals to transfer cross-chain pre-fees",
          "chainId": "which underlying chain to bridge assets onto",
          "swapDeadline": "Specificies the deadline that the nodes are allowed to try to redeem/swap the LP token*",
          "swapMinAmount": "Specifies the minimum amount of the underlying asset needed for the nodes to execute the redeem/swap",
          "swapTokenIndex": "Specifies which of the underlying LP assets the nodes should attempt to redeem for",
          "to": "address on other chain to redeem underlying assets to",
          "token": "ERC20 compatible token to deposit into the bridge"
        }
      },
      "redeemAndSwap(address,uint256,address,uint256,uint8,uint8,uint256,uint256)": {
        "params": {
          "amount": "Amount in native token decimals to transfer cross-chain pre-fees",
          "chainId": "which underlying chain to bridge assets onto",
          "deadline": "latest timestamp to accept this transaction*",
          "minDy": "the min amount the user would like to receive, or revert to only minting the SynERC20 token crosschain.",
          "to": "address on other chain to redeem underlying assets to",
          "token": "ERC20 compatible token to deposit into the bridge",
          "tokenIndexFrom": "the token the user wants to swap from",
          "tokenIndexTo": "the token the user wants to swap to"
        }
      },
      "renounceRole(bytes32,address)": {
        "details": "Revokes `role` from the calling account. Roles are often managed via {grantRole} and {revokeRole}: this function's purpose is to provide a mechanism for accounts to lose their privileges if they are compromised (such as when a trusted device is misplaced). If the calling account had been granted `role`, emits a {RoleRevoked} event. Requirements: - the caller must be `account`."
      },
      "revokeRole(bytes32,address)": {
        "details": "Revokes `role` from `account`. If `account` had been granted `role`, emits a {RoleRevoked} event. Requirements: - the caller must have ``role``'s admin role."
      },
      "withdraw(address,address,uint256,uint256,bytes32)": {
        "params": {
          "amount": "Amount in native token decimals to withdraw",
          "fee": "Amount in native token decimals to save to the contract as fees",
          "kappa": "kappa*",
          "to": "address on chain to send underlying assets to",
          "token": "ERC20 compatible token to withdraw from the bridge"
        }
      },
      "withdrawAndRemove(address,address,uint256,uint256,address,uint8,uint256,uint256,bytes32)": {
        "params": {
          "amount": "Amount in native token decimals to withdraw",
          "fee": "Amount in native token decimals to save to the contract as fees",
          "kappa": "kappa*",
          "pool": "Destination chain's pool to use to swap SynERC20 -> Asset. The nodes determine this by using PoolConfig.sol.",
          "swapDeadline": "Specificies the deadline that the nodes are allowed to try to redeem/swap the LP token",
          "swapMinAmount": "Specifies the minimum amount of the underlying asset needed for the nodes to execute the redeem/swap",
          "swapTokenIndex": "Specifies which of the underlying LP assets the nodes should attempt to redeem for",
          "to": "address on chain to send underlying assets to",
          "token": "ERC20 compatible token to withdraw from the bridge"
        }
      },
      "withdrawFees(address,address)": {
        "params": {
          "to": "Address to send the fees to",
          "token": "ERC20 token in which fees acccumulated to transfer"
        }
      }
    },
    "version": 1
  },
  "userdoc": {
    "kind": "user",
    "methods": {
      "deposit(address,uint256,address,uint256)": {
        "notice": "Relays to nodes to transfers an ERC20 token cross-chain"
      },
      "depositAndSwap(address,uint256,address,uint256,uint8,uint8,uint256,uint256)": {
        "notice": "Relays to nodes to both transfer an ERC20 token cross-chain, and then have the nodes execute a swap through a liquidity pool on behalf of the user."
      },
      "mint(address,address,uint256,uint256,bytes32)": {
        "notice": "Nodes call this function to mint a SynERC20 (or any asset that the bridge is given minter access to). This is called by the nodes after a TokenDeposit event is emitted."
      },
      "mintAndSwap(address,address,uint256,uint256,address,uint8,uint8,uint256,uint256,bytes32)": {
        "notice": "Nodes call this function to mint a SynERC20 (or any asset that the bridge is given minter access to), and then attempt to swap the SynERC20 into the desired destination asset. This is called by the nodes after a TokenDepositAndSwap event is emitted."
      },
      "redeem(address,uint256,address,uint256)": {
        "notice": "Relays to nodes that (typically) a wrapped synAsset ERC20 token has been burned and the underlying needs to be redeeemed on the native chain"
      },
      "redeemAndRemove(address,uint256,address,uint256,uint8,uint256,uint256)": {
        "notice": "Relays to nodes that (typically) a wrapped synAsset ERC20 token has been burned and the underlying needs to be redeeemed on the native chain. This function indicates to the nodes that they should attempt to redeem the LP token for the underlying assets (E.g \"swap\" out of the LP token)"
      },
      "redeemAndSwap(address,uint256,address,uint256,uint8,uint8,uint256,uint256)": {
        "notice": "Relays to nodes that (typically) a wrapped synAsset ERC20 token has been burned and the underlying needs to be redeeemed on the native chain. This function indicates to the nodes that they should attempt to redeem the LP token for the underlying assets (E.g \"swap\" out of the LP token)"
      },
      "withdraw(address,address,uint256,uint256,bytes32)": {
        "notice": "Function to be called by the node group to withdraw the underlying assets from the contract"
      },
      "withdrawAndRemove(address,address,uint256,uint256,address,uint8,uint256,uint256,bytes32)": {
        "notice": "Function to be called by the node group to withdraw the underlying assets from the contract"
      },
      "withdrawFees(address,address)": {
        "notice": "withdraw specified ERC20 token fees to a given address"
      }
    },
    "version": 1
  },
  "storageLayout": {
    "storage": [
      {
        "astId": 1286,
        "contract": "contracts/bridge/HarmonySynapseBridge.sol:SynapseBridge",
        "label": "_initialized",
        "offset": 0,
        "slot": "0",
        "type": "t_bool"
      },
      {
        "astId": 1289,
        "contract": "contracts/bridge/HarmonySynapseBridge.sol:SynapseBridge",
        "label": "_initializing",
        "offset": 1,
        "slot": "0",
        "type": "t_bool"
      },
      {
        "astId": 2325,
        "contract": "contracts/bridge/HarmonySynapseBridge.sol:SynapseBridge",
        "label": "__gap",
        "offset": 0,
        "slot": "1",
        "type": "t_array(t_uint256)50_storage"
      },
      {
        "astId": 43,
        "contract": "contracts/bridge/HarmonySynapseBridge.sol:SynapseBridge",
        "label": "_roles",
        "offset": 0,
        "slot": "51",
        "type": "t_mapping(t_bytes32,t_struct(RoleData)39_storage)"
      },
      {
        "astId": 306,
        "contract": "contracts/bridge/HarmonySynapseBridge.sol:SynapseBridge",
        "label": "__gap",
        "offset": 0,
        "slot": "52",
        "type": "t_array(t_uint256)49_storage"
      },
      {
        "astId": 2995,
        "contract": "contracts/bridge/HarmonySynapseBridge.sol:SynapseBridge",
        "label": "_status",
        "offset": 0,
        "slot": "101",
        "type": "t_uint256"
      },
      {
        "astId": 3038,
        "contract": "contracts/bridge/HarmonySynapseBridge.sol:SynapseBridge",
        "label": "__gap",
        "offset": 0,
        "slot": "102",
        "type": "t_array(t_uint256)49_storage"
      },
      {
        "astId": 2889,
        "contract": "contracts/bridge/HarmonySynapseBridge.sol:SynapseBridge",
        "label": "_paused",
        "offset": 0,
        "slot": "151",
        "type": "t_bool"
      },
      {
        "astId": 2980,
        "contract": "contracts/bridge/HarmonySynapseBridge.sol:SynapseBridge",
        "label": "__gap",
        "offset": 0,
        "slot": "152",
        "type": "t_array(t_uint256)49_storage"
      },
      {
        "astId": 20526,
        "contract": "contracts/bridge/HarmonySynapseBridge.sol:SynapseBridge",
        "label": "fees",
        "offset": 0,
        "slot": "201",
        "type": "t_mapping(t_address,t_uint256)"
      },
      {
        "astId": 20528,
        "contract": "contracts/bridge/HarmonySynapseBridge.sol:SynapseBridge",
        "label": "startBlockNumber",
        "offset": 0,
        "slot": "202",
        "type": "t_uint256"
      },
      {
        "astId": 20533,
        "contract": "contracts/bridge/HarmonySynapseBridge.sol:SynapseBridge",
        "label": "chainGasAmount",
        "offset": 0,
        "slot": "203",
        "type": "t_uint256"
      },
      {
        "astId": 20535,
        "contract": "contracts/bridge/HarmonySynapseBridge.sol:SynapseBridge",
        "label": "WETH_ADDRESS",
        "offset": 0,
        "slot": "204",
        "type": "t_address_payable"
      },
      {
        "astId": 20539,
        "contract": "contracts/bridge/HarmonySynapseBridge.sol:SynapseBridge",
        "label": "kappaMap",
        "offset": 0,
        "slot": "205",
        "type": "t_mapping(t_bytes32,t_bool)"
      }
    ],
    "types": {
      "t_address": {
        "encoding": "inplace",
        "label": "address",
        "numberOfBytes": "20"
      },
      "t_address_payable": {
        "encoding": "inplace",
        "label": "address payable",
        "numberOfBytes": "20"
      },
      "t_array(t_bytes32)dyn_storage": {
        "base": "t_bytes32",
        "encoding": "dynamic_array",
        "label": "bytes32[]",
        "numberOfBytes": "32"
      },
      "t_array(t_uint256)49_storage": {
        "base": "t_uint256",
        "encoding": "inplace",
        "label": "uint256[49]",
        "numberOfBytes": "1568"
      },
      "t_array(t_uint256)50_storage": {
        "base": "t_uint256",
        "encoding": "inplace",
        "label": "uint256[50]",
        "numberOfBytes": "1600"
      },
      "t_bool": {
        "encoding": "inplace",
        "label": "bool",
        "numberOfBytes": "1"
      },
      "t_bytes32": {
        "encoding": "inplace",
        "label": "bytes32",
        "numberOfBytes": "32"
      },
      "t_mapping(t_address,t_uint256)": {
        "encoding": "mapping",
        "key": "t_address",
        "label": "mapping(address => uint256)",
        "numberOfBytes": "32",
        "value": "t_uint256"
      },
      "t_mapping(t_bytes32,t_bool)": {
        "encoding": "mapping",
        "key": "t_bytes32",
        "label": "mapping(bytes32 => bool)",
        "numberOfBytes": "32",
        "value": "t_bool"
      },
      "t_mapping(t_bytes32,t_struct(RoleData)39_storage)": {
        "encoding": "mapping",
        "key": "t_bytes32",
        "label": "mapping(bytes32 => struct AccessControlUpgradeable.RoleData)",
        "numberOfBytes": "32",
        "value": "t_struct(RoleData)39_storage"
      },
      "t_mapping(t_bytes32,t_uint256)": {
        "encoding": "mapping",
        "key": "t_bytes32",
        "label": "mapping(bytes32 => uint256)",
        "numberOfBytes": "32",
        "value": "t_uint256"
      },
      "t_struct(AddressSet)2652_storage": {
        "encoding": "inplace",
        "label": "struct EnumerableSetUpgradeable.AddressSet",
        "members": [
          {
            "astId": 2651,
            "contract": "contracts/bridge/HarmonySynapseBridge.sol:SynapseBridge",
            "label": "_inner",
            "offset": 0,
            "slot": "0",
            "type": "t_struct(Set)2387_storage"
          }
        ],
        "numberOfBytes": "64"
      },
      "t_struct(RoleData)39_storage": {
        "encoding": "inplace",
        "label": "struct AccessControlUpgradeable.RoleData",
        "members": [
          {
            "astId": 36,
            "contract": "contracts/bridge/HarmonySynapseBridge.sol:SynapseBridge",
            "label": "members",
            "offset": 0,
            "slot": "0",
            "type": "t_struct(AddressSet)2652_storage"
          },
          {
            "astId": 38,
            "contract": "contracts/bridge/HarmonySynapseBridge.sol:SynapseBridge",
            "label": "adminRole",
            "offset": 0,
            "slot": "2",
            "type": "t_bytes32"
          }
        ],
        "numberOfBytes": "96"
      },
      "t_struct(Set)2387_storage": {
        "encoding": "inplace",
        "label": "struct EnumerableSetUpgradeable.Set",
        "members": [
          {
            "astId": 2382,
            "contract": "contracts/bridge/HarmonySynapseBridge.sol:SynapseBridge",
            "label": "_values",
            "offset": 0,
            "slot": "0",
            "type": "t_array(t_bytes32)dyn_storage"
          },
          {
            "astId": 2386,
            "contract": "contracts/bridge/HarmonySynapseBridge.sol:SynapseBridge",
            "label": "_indexes",
            "offset": 0,
            "slot": "1",
            "type": "t_mapping(t_bytes32,t_uint256)"
          }
        ],
        "numberOfBytes": "64"
      },
      "t_uint256": {
        "encoding": "inplace",
        "label": "uint256",
        "numberOfBytes": "32"
      }
    }
  }
}