{
  "address": "0x57562B26C7B35053e2AdDd54888a6B571c04d3df",
  "abi": [
    {
      "inputs": [
        {
          "internalType": "address",
          "name": "_gasFeePricing",
          "type": "address"
        },
        {
          "internalType": "address",
          "name": "_authVerifier",
          "type": "address"
        }
      ],
      "stateMutability": "nonpayable",
      "type": "constructor"
    },
    {
      "anonymous": false,
      "inputs": [
        {
          "indexed": false,
          "internalType": "string",
          "name": "reason",
          "type": "string"
        }
      ],
      "name": "CallReverted",
      "type": "event"
    },
    {
      "anonymous": false,
      "inputs": [
        {
          "indexed": true,
          "internalType": "bytes32",
          "name": "messageId",
          "type": "bytes32"
        },
        {
          "indexed": false,
          "internalType": "enum MessageBusReceiver.TxStatus",
          "name": "status",
          "type": "uint8"
        },
        {
          "indexed": true,
          "internalType": "address",
          "name": "_dstAddress",
          "type": "address"
        },
        {
          "indexed": false,
          "internalType": "uint64",
          "name": "srcChainId",
          "type": "uint64"
        },
        {
          "indexed": false,
          "internalType": "uint64",
          "name": "srcNonce",
          "type": "uint64"
        }
      ],
      "name": "Executed",
      "type": "event"
    },
    {
      "anonymous": false,
      "inputs": [
        {
          "indexed": true,
          "internalType": "address",
          "name": "sender",
          "type": "address"
        },
        {
          "indexed": false,
          "internalType": "uint256",
          "name": "srcChainID",
          "type": "uint256"
        },
        {
          "indexed": false,
          "internalType": "bytes32",
          "name": "receiver",
          "type": "bytes32"
        },
        {
          "indexed": true,
          "internalType": "uint256",
          "name": "dstChainId",
          "type": "uint256"
        },
        {
          "indexed": false,
          "internalType": "bytes",
          "name": "message",
          "type": "bytes"
        },
        {
          "indexed": false,
          "internalType": "uint64",
          "name": "nonce",
          "type": "uint64"
        },
        {
          "indexed": false,
          "internalType": "bytes",
          "name": "options",
          "type": "bytes"
        },
        {
          "indexed": false,
          "internalType": "uint256",
          "name": "fee",
          "type": "uint256"
        },
        {
          "indexed": true,
          "internalType": "bytes32",
          "name": "messageId",
          "type": "bytes32"
        }
      ],
      "name": "MessageSent",
      "type": "event"
    },
    {
      "anonymous": false,
      "inputs": [
        {
          "indexed": true,
          "internalType": "address",
          "name": "previousOwner",
          "type": "address"
        },
        {
          "indexed": true,
          "internalType": "address",
          "name": "newOwner",
          "type": "address"
        }
      ],
      "name": "OwnershipTransferred",
      "type": "event"
    },
    {
      "inputs": [],
      "name": "authVerifier",
      "outputs": [
        {
          "internalType": "address",
          "name": "",
          "type": "address"
        }
      ],
      "stateMutability": "view",
      "type": "function"
    },
    {
      "inputs": [
        {
          "internalType": "uint256",
          "name": "_srcChainId",
          "type": "uint256"
        },
        {
          "internalType": "address",
          "name": "_srcAddress",
          "type": "address"
        },
        {
          "internalType": "uint256",
          "name": "_dstChainId",
          "type": "uint256"
        },
        {
          "internalType": "bytes32",
          "name": "_dstAddress",
          "type": "bytes32"
        },
        {
          "internalType": "uint256",
          "name": "_nonce",
          "type": "uint256"
        },
        {
          "internalType": "bytes",
          "name": "_message",
          "type": "bytes"
        }
      ],
      "name": "computeMessageIdSender",
      "outputs": [
        {
          "internalType": "bytes32",
          "name": "",
          "type": "bytes32"
        }
      ],
      "stateMutability": "view",
      "type": "function"
    },
    {
      "inputs": [
        {
          "internalType": "uint256",
          "name": "_dstChainId",
          "type": "uint256"
        },
        {
          "internalType": "bytes",
          "name": "_options",
          "type": "bytes"
        }
      ],
      "name": "estimateFee",
      "outputs": [
        {
          "internalType": "uint256",
          "name": "",
          "type": "uint256"
        }
      ],
      "stateMutability": "nonpayable",
      "type": "function"
    },
    {
      "inputs": [
        {
          "internalType": "uint256",
          "name": "_srcChainId",
          "type": "uint256"
        },
        {
          "internalType": "bytes32",
          "name": "_srcAddress",
          "type": "bytes32"
        },
        {
          "internalType": "address",
          "name": "_dstAddress",
          "type": "address"
        },
        {
          "internalType": "uint256",
          "name": "_gasLimit",
          "type": "uint256"
        },
        {
          "internalType": "uint256",
          "name": "_nonce",
          "type": "uint256"
        },
        {
          "internalType": "bytes",
          "name": "_message",
          "type": "bytes"
        },
        {
          "internalType": "bytes32",
          "name": "_messageId",
          "type": "bytes32"
        }
      ],
      "name": "executeMessage",
      "outputs": [],
      "stateMutability": "nonpayable",
      "type": "function"
    },
    {
      "inputs": [],
      "name": "gasFeePricing",
      "outputs": [
        {
          "internalType": "address",
          "name": "",
          "type": "address"
        }
      ],
      "stateMutability": "view",
      "type": "function"
    },
    {
      "inputs": [
        {
          "internalType": "bytes32",
          "name": "_messageId",
          "type": "bytes32"
        }
      ],
      "name": "getExecutedMessage",
      "outputs": [
        {
          "internalType": "enum MessageBusReceiver.TxStatus",
          "name": "",
          "type": "uint8"
        }
      ],
      "stateMutability": "view",
      "type": "function"
    },
    {
      "inputs": [],
      "name": "nonce",
      "outputs": [
        {
          "internalType": "uint64",
          "name": "",
          "type": "uint64"
        }
      ],
      "stateMutability": "view",
      "type": "function"
    },
    {
      "inputs": [],
      "name": "owner",
      "outputs": [
        {
          "internalType": "address",
          "name": "",
          "type": "address"
        }
      ],
      "stateMutability": "view",
      "type": "function"
    },
    {
      "inputs": [],
      "name": "renounceOwnership",
      "outputs": [],
      "stateMutability": "nonpayable",
      "type": "function"
    },
    {
      "inputs": [
        {
          "internalType": "bytes32",
          "name": "_receiver",
          "type": "bytes32"
        },
        {
          "internalType": "uint256",
          "name": "_dstChainId",
          "type": "uint256"
        },
        {
          "internalType": "bytes",
          "name": "_message",
          "type": "bytes"
        },
        {
          "internalType": "bytes",
          "name": "_options",
          "type": "bytes"
        }
      ],
      "name": "sendMessage",
      "outputs": [],
      "stateMutability": "payable",
      "type": "function"
    },
    {
      "inputs": [
        {
          "internalType": "address",
          "name": "newOwner",
          "type": "address"
        }
      ],
      "name": "transferOwnership",
      "outputs": [],
      "stateMutability": "nonpayable",
      "type": "function"
    },
    {
      "inputs": [
        {
          "internalType": "address",
          "name": "_authVerifier",
          "type": "address"
        }
      ],
      "name": "updateAuthVerifier",
      "outputs": [],
      "stateMutability": "nonpayable",
      "type": "function"
    },
    {
      "inputs": [
        {
          "internalType": "address",
          "name": "_gasFeePricing",
          "type": "address"
        }
      ],
      "name": "updateGasFeePricing",
      "outputs": [],
      "stateMutability": "nonpayable",
      "type": "function"
    },
    {
      "inputs": [
        {
          "internalType": "bytes32",
          "name": "_messageId",
          "type": "bytes32"
        },
        {
          "internalType": "enum MessageBusReceiver.TxStatus",
          "name": "_status",
          "type": "uint8"
        }
      ],
      "name": "updateMessageStatus",
      "outputs": [],
      "stateMutability": "nonpayable",
      "type": "function"
    },
    {
      "inputs": [
        {
          "internalType": "address payable",
          "name": "to",
          "type": "address"
        }
      ],
      "name": "withdrawGasFees",
      "outputs": [],
      "stateMutability": "nonpayable",
      "type": "function"
    }
  ],
  "transactionHash": "0xdc00706b2b3bd680d39fa3a3b2c6248b11ab0ee2e1b8e90cbcf16a41faa8dcb8",
  "args": [
    "0x9596A3C6a4B2597adCC5D6d69b281A7C49e3Fe6A",
    "0x4C5F47a539056141D55d754b2313A4e8A5a3dd68"
  ],
  "solcInputHash": "746538817e45487193396804d77ed137",
  "bytecode": "0x60806040523480156200001157600080fd5b50604051620018e2380380620018e28339810160408190526200003491620000e6565b8082620000413362000079565b600180546001600160a01b039283166001600160a01b03199182161790915560038054939092169216919091179055506200011e9050565b600080546001600160a01b038381166001600160a01b0319831681178455604051919092169283917f8be0079c531659141344cd1fd0a4f28419497f9722a3daafe3b4186f6b6457e09190a35050565b80516001600160a01b0381168114620000e157600080fd5b919050565b60008060408385031215620000fa57600080fd5b6200010583620000c9565b91506200011560208401620000c9565b90509250929050565b6117b4806200012e6000396000f3fe6080604052600436106100e85760003560e01c8063a5c0edf31161008a578063affed0e011610059578063affed0e0146102a0578063c4087335146102f2578063d6b457b91461031f578063f2fde38b1461033f57600080fd5b8063a5c0edf314610220578063a66dd38414610240578063aa70fc0e14610260578063ac8a4c1b1461028d57600080fd5b8063715018a6116100c6578063715018a61461017d5780638da5cb5b146101945780639b11079c146101e0578063a1b058d81461020057600080fd5b80630bb7e6aa146100ed57806325b19fa3146101205780635da6d2c41461015d575b600080fd5b3480156100f957600080fd5b5061010d6101083660046110e2565b61035f565b6040519081526020015b60405180910390f35b34801561012c57600080fd5b5061015061013b36600461115f565b60009081526004602052604090205460ff1690565b60405161011791906111e2565b34801561016957600080fd5b5061010d6101783660046111f0565b6103a1565b34801561018957600080fd5b506101926104bc565b005b3480156101a057600080fd5b5060005473ffffffffffffffffffffffffffffffffffffffff165b60405173ffffffffffffffffffffffffffffffffffffffff9091168152602001610117565b3480156101ec57600080fd5b506101926101fb36600461123c565b610549565b34801561020c57600080fd5b5061019261021b366004611270565b61061c565b34801561022c57600080fd5b5061019261023b3660046112f4565b610910565b34801561024c57600080fd5b5061019261025b3660046112f4565b610a55565b34801561026c57600080fd5b506001546101bb9073ffffffffffffffffffffffffffffffffffffffff1681565b61019261029b366004611318565b610b9a565b3480156102ac57600080fd5b506001546102d99074010000000000000000000000000000000000000000900467ffffffffffffffff1681565b60405167ffffffffffffffff9091168152602001610117565b3480156102fe57600080fd5b506003546101bb9073ffffffffffffffffffffffffffffffffffffffff1681565b34801561032b57600080fd5b5061019261033a3660046112f4565b610d9c565b34801561034b57600080fd5b5061019261035a3660046112f4565b610e6d565b60008787878787878760405160200161037e97969594939291906113e4565b604051602081830303815290604052805190602001209050979650505050505050565b6001546040517f47feadc1000000000000000000000000000000000000000000000000000000008152600091829173ffffffffffffffffffffffffffffffffffffffff909116906347feadc19061040090889088908890600401611439565b6020604051808303816000875af115801561041f573d6000803e3d6000fd5b505050506040513d601f19601f82011682018060405250810190610443919061145c565b9050806000036104b4576040517f08c379a000000000000000000000000000000000000000000000000000000000815260206004820152600b60248201527f466565206e6f742073657400000000000000000000000000000000000000000060448201526064015b60405180910390fd5b949350505050565b60005473ffffffffffffffffffffffffffffffffffffffff16331461053d576040517f08c379a000000000000000000000000000000000000000000000000000000000815260206004820181905260248201527f4f776e61626c653a2063616c6c6572206973206e6f7420746865206f776e657260448201526064016104ab565b6105476000610f9d565b565b60005473ffffffffffffffffffffffffffffffffffffffff1633146105ca576040517f08c379a000000000000000000000000000000000000000000000000000000000815260206004820181905260248201527f4f776e61626c653a2063616c6c6572206973206e6f7420746865206f776e657260448201526064016104ab565b600082815260046020526040902080548291907fffffffffffffffffffffffffffffffffffffffffffffffffffffffffffffff0016600183600281111561061357610613611178565b02179055505050565b806000808281526004602052604090205460ff16600281111561064157610641611178565b146106a8576040517f08c379a000000000000000000000000000000000000000000000000000000000815260206004820152601860248201527f4d65737361676520616c7265616479206578656375746564000000000000000060448201526064016104ab565b6003546040805133602082015273ffffffffffffffffffffffffffffffffffffffff90921691638b1b3a2d91016040516020818303038152906040526040518263ffffffff1660e01b815260040161070091906114ef565b602060405180830381865afa15801561071d573d6000803e3d6000fd5b505050506040513d601f19601f820116820180604052508101906107419190611502565b5060008773ffffffffffffffffffffffffffffffffffffffff1663a6060871888b8d8989336040518763ffffffff1660e01b8152600401610786959493929190611524565b60206040518083038160008887f1935050505080156107e0575060408051601f3d9081017fffffffffffffffffffffffffffffffffffffffffffffffffffffffffffffffe01682019092526107dd9181019061156c565b60015b61085d573d80801561080e576040519150601f19603f3d011682016040523d82523d6000602084013e610813565b606091505b507fffdd6142bbb721f3400e3908b04b86f60649b2e4d191e3f4c50c32c3e6471d2f61083e82611012565b60405161084b91906114ef565b60405180910390a16002915050610863565b50600190505b600082815260046020526040902080548291907fffffffffffffffffffffffffffffffffffffffffffffffffffffffffffffff001660018360028111156108ac576108ac611178565b02179055508773ffffffffffffffffffffffffffffffffffffffff16827f04214a849019ea3548afcedee810b5bc1680cfb64e22fdf9051a823f3cdfea65838d8a6040516108fc9392919061158d565b60405180910390a350505050505050505050565b60005473ffffffffffffffffffffffffffffffffffffffff163314610991576040517f08c379a000000000000000000000000000000000000000000000000000000000815260206004820181905260248201527f4f776e61626c653a2063616c6c6572206973206e6f7420746865206f776e657260448201526064016104ab565b73ffffffffffffffffffffffffffffffffffffffff8116610a0e576040517f08c379a000000000000000000000000000000000000000000000000000000000815260206004820152600f60248201527f43616e6e6f742073657420746f2030000000000000000000000000000000000060448201526064016104ab565b600380547fffffffffffffffffffffffff00000000000000000000000000000000000000001673ffffffffffffffffffffffffffffffffffffffff92909216919091179055565b60005473ffffffffffffffffffffffffffffffffffffffff163314610ad6576040517f08c379a000000000000000000000000000000000000000000000000000000000815260206004820181905260248201527f4f776e61626c653a2063616c6c6572206973206e6f7420746865206f776e657260448201526064016104ab565b73ffffffffffffffffffffffffffffffffffffffff8116610b53576040517f08c379a000000000000000000000000000000000000000000000000000000000815260206004820152600f60248201527f43616e6e6f742073657420746f2030000000000000000000000000000000000060448201526064016104ab565b600180547fffffffffffffffffffffffff00000000000000000000000000000000000000001673ffffffffffffffffffffffffffffffffffffffff92909216919091179055565b468503610c03576040517f08c379a000000000000000000000000000000000000000000000000000000000815260206004820152600f60248201527f496e76616c696420636861696e4964000000000000000000000000000000000060448201526064016104ab565b6000610c108684846103a1565b905080341015610c7c576040517f08c379a000000000000000000000000000000000000000000000000000000000815260206004820152601260248201527f496e7375666669656e742067617320666565000000000000000000000000000060448201526064016104ab565b6000610cad4633898b600160149054906101000a900467ffffffffffffffff1667ffffffffffffffff168b8b61035f565b905080873373ffffffffffffffffffffffffffffffffffffffff167f864ad5e86ed3626c9517260fbfe1eed395157fd938e459e9fb607a07129cdd2a468c8b8b600160149054906101000a900467ffffffffffffffff168c8c34604051610d1b9897969594939291906115bd565b60405180910390a43460026000828254610d359190611645565b909155505060018054601490610d6c9074010000000000000000000000000000000000000000900467ffffffffffffffff1661165d565b91906101000a81548167ffffffffffffffff021916908367ffffffffffffffff1602179055505050505050505050565b60005473ffffffffffffffffffffffffffffffffffffffff163314610e1d576040517f08c379a000000000000000000000000000000000000000000000000000000000815260206004820181905260248201527f4f776e61626c653a2063616c6c6572206973206e6f7420746865206f776e657260448201526064016104ab565b60025460405173ffffffffffffffffffffffffffffffffffffffff83169082156108fc029083906000818181858888f19350505050158015610e63573d6000803e3d6000fd5b5050600060025550565b60005473ffffffffffffffffffffffffffffffffffffffff163314610eee576040517f08c379a000000000000000000000000000000000000000000000000000000000815260206004820181905260248201527f4f776e61626c653a2063616c6c6572206973206e6f7420746865206f776e657260448201526064016104ab565b73ffffffffffffffffffffffffffffffffffffffff8116610f91576040517f08c379a000000000000000000000000000000000000000000000000000000000815260206004820152602660248201527f4f776e61626c653a206e6577206f776e657220697320746865207a65726f206160448201527f646472657373000000000000000000000000000000000000000000000000000060648201526084016104ab565b610f9a81610f9d565b50565b6000805473ffffffffffffffffffffffffffffffffffffffff8381167fffffffffffffffffffffffff0000000000000000000000000000000000000000831681178455604051919092169283917f8be0079c531659141344cd1fd0a4f28419497f9722a3daafe3b4186f6b6457e09190a35050565b606060448251101561105757505060408051808201909152601d81527f5472616e73616374696f6e2072657665727465642073696c656e746c79000000602082015290565b6004820191508180602001905181019061107191906116b3565b92915050565b73ffffffffffffffffffffffffffffffffffffffff81168114610f9a57600080fd5b60008083601f8401126110ab57600080fd5b50813567ffffffffffffffff8111156110c357600080fd5b6020830191508360208285010111156110db57600080fd5b9250929050565b600080600080600080600060c0888a0312156110fd57600080fd5b87359650602088013561110f81611077565b955060408801359450606088013593506080880135925060a088013567ffffffffffffffff81111561114057600080fd5b61114c8a828b01611099565b989b979a50959850939692959293505050565b60006020828403121561117157600080fd5b5035919050565b7f4e487b7100000000000000000000000000000000000000000000000000000000600052602160045260246000fd5b600381106111de577f4e487b7100000000000000000000000000000000000000000000000000000000600052602160045260246000fd5b9052565b6020810161107182846111a7565b60008060006040848603121561120557600080fd5b83359250602084013567ffffffffffffffff81111561122357600080fd5b61122f86828701611099565b9497909650939450505050565b6000806040838503121561124f57600080fd5b8235915060208301356003811061126557600080fd5b809150509250929050565b60008060008060008060008060e0898b03121561128c57600080fd5b883597506020890135965060408901356112a581611077565b9550606089013594506080890135935060a089013567ffffffffffffffff8111156112cf57600080fd5b6112db8b828c01611099565b999c989b50969995989497949560c00135949350505050565b60006020828403121561130657600080fd5b813561131181611077565b9392505050565b6000806000806000806080878903121561133157600080fd5b8635955060208701359450604087013567ffffffffffffffff8082111561135757600080fd5b6113638a838b01611099565b9096509450606089013591508082111561137c57600080fd5b5061138989828a01611099565b979a9699509497509295939492505050565b8183528181602085013750600060208284010152600060207fffffffffffffffffffffffffffffffffffffffffffffffffffffffffffffffe0601f840116840101905092915050565b87815273ffffffffffffffffffffffffffffffffffffffff8716602082015285604082015284606082015283608082015260c060a0820152600061142c60c08301848661139b565b9998505050505050505050565b83815260406020820152600061145360408301848661139b565b95945050505050565b60006020828403121561146e57600080fd5b5051919050565b60005b83811015611490578181015183820152602001611478565b8381111561149f576000848401525b50505050565b600081518084526114bd816020860160208601611475565b601f017fffffffffffffffffffffffffffffffffffffffffffffffffffffffffffffffe0169290920160200192915050565b60208152600061131160208301846114a5565b60006020828403121561151457600080fd5b8151801515811461131157600080fd5b85815284602082015260806040820152600061154460808301858761139b565b905073ffffffffffffffffffffffffffffffffffffffff831660608301529695505050505050565b60006020828403121561157e57600080fd5b81516002811061131157600080fd5b6060810161159b82866111a7565b67ffffffffffffffff8085166020840152808416604084015250949350505050565b88815287602082015260c0604082015260006115dd60c08301888a61139b565b67ffffffffffffffff87166060840152828103608084015261160081868861139b565b9150508260a08301529998505050505050505050565b7f4e487b7100000000000000000000000000000000000000000000000000000000600052601160045260246000fd5b6000821982111561165857611658611616565b500190565b600067ffffffffffffffff80831681810361167a5761167a611616565b6001019392505050565b7f4e487b7100000000000000000000000000000000000000000000000000000000600052604160045260246000fd5b6000602082840312156116c557600080fd5b815167ffffffffffffffff808211156116dd57600080fd5b818401915084601f8301126116f157600080fd5b81518181111561170357611703611684565b604051601f82017fffffffffffffffffffffffffffffffffffffffffffffffffffffffffffffffe0908116603f0116810190838211818310171561174957611749611684565b8160405282815287602084870101111561176257600080fd5b611773836020830160208801611475565b97965050505050505056fea26469706673582212207777fcb09c4e24ed2ff2e2c0e2450fe77f9bec523aeafa6b14686bedeb3fc9c164736f6c634300080d0033",
  "devdoc": {
    "kind": "dev",
    "methods": {
      "executeMessage(uint256,bytes32,address,uint256,uint256,bytes,bytes32)": {
        "params": {
          "_dstAddress": "Destination address that the arbitrary message will be passed to",
          "_gasLimit": "Gas limit to be passed alongside the message, depending on the fee paid on srcChain",
          "_message": "Arbitrary message payload to pass to the destination chain receiver",
          "_srcAddress": "Originating bytes32 address of the message sender on the srcChain",
          "_srcChainId": "Originating chain ID - typically a standard EVM chain ID, but may refer to a Synapse-specific chain ID on nonEVM chains"
        }
      },
      "owner()": {
        "details": "Returns the address of the current owner."
      },
      "renounceOwnership()": {
        "details": "Leaves the contract without owner. It will not be possible to call `onlyOwner` functions anymore. Can only be called by the current owner. NOTE: Renouncing ownership will leave the contract without an owner, thereby removing any functionality that is only available to the owner."
      },
      "sendMessage(bytes32,uint256,bytes,bytes)": {
        "params": {
          "_dstChainId": "The destination chain ID - typically, standard EVM chain ID, but differs on nonEVM chains",
          "_message": "The arbitrary payload to pass to the destination chain receiver",
          "_options": "Versioned struct used to instruct relayer on how to proceed with gas limits",
          "_receiver": "The bytes32 address of the destination contract to be called"
        }
      },
      "transferOwnership(address)": {
        "details": "Transfers ownership of the contract to a new account (`newOwner`). Can only be called by the current owner."
      },
      "withdrawGasFees(address)": {
        "params": {
          "to": "Address to withdraw gas fees to, which can be specified in the event owner() can't receive native gas"
        }
      }
    },
    "version": 1
  },
  "userdoc": {
    "kind": "user",
    "methods": {
      "executeMessage(uint256,bytes32,address,uint256,uint256,bytes,bytes32)": {
        "notice": "Relayer executes messages through an authenticated method to the destination receiver based on the originating transaction on source chain"
      },
      "sendMessage(bytes32,uint256,bytes,bytes)": {
        "notice": "Sends a message to a receiving contract address on another chain. Sender must make sure that the message is unique and not a duplicate message."
      },
      "updateMessageStatus(bytes32,uint8)": {
        "notice": "CONTRACT CONFIG "
      },
      "withdrawGasFees(address)": {
        "notice": "Withdraws accumulated fees in native gas token, based on fees variable."
      }
    },
    "version": 1
  },
  "storageLayout": {
    "storage": [
      {
        "astId": 7,
        "contract": "contracts/messaging/MessageBus.sol:MessageBus",
        "label": "_owner",
        "offset": 0,
        "slot": "0",
        "type": "t_address"
      },
      {
        "astId": 3306,
        "contract": "contracts/messaging/MessageBus.sol:MessageBus",
        "label": "gasFeePricing",
        "offset": 0,
        "slot": "1",
        "type": "t_address"
      },
      {
        "astId": 3308,
        "contract": "contracts/messaging/MessageBus.sol:MessageBus",
        "label": "nonce",
        "offset": 20,
        "slot": "1",
        "type": "t_uint64"
      },
      {
        "astId": 3310,
        "contract": "contracts/messaging/MessageBus.sol:MessageBus",
        "label": "fees",
        "offset": 0,
        "slot": "2",
        "type": "t_uint256"
      },
      {
        "astId": 3079,
        "contract": "contracts/messaging/MessageBus.sol:MessageBus",
        "label": "authVerifier",
        "offset": 0,
        "slot": "3",
        "type": "t_address"
      },
      {
        "astId": 3088,
        "contract": "contracts/messaging/MessageBus.sol:MessageBus",
        "label": "executedMessages",
        "offset": 0,
        "slot": "4",
        "type": "t_mapping(t_bytes32,t_enum(TxStatus)3083)"
      }
    ],
    "types": {
      "t_address": {
        "encoding": "inplace",
        "label": "address",
        "numberOfBytes": "20"
      },
      "t_bytes32": {
        "encoding": "inplace",
        "label": "bytes32",
        "numberOfBytes": "32"
      },
      "t_enum(TxStatus)3083": {
        "encoding": "inplace",
        "label": "enum MessageBusReceiver.TxStatus",
        "numberOfBytes": "1"
      },
      "t_mapping(t_bytes32,t_enum(TxStatus)3083)": {
        "encoding": "mapping",
        "key": "t_bytes32",
        "label": "mapping(bytes32 => enum MessageBusReceiver.TxStatus)",
        "numberOfBytes": "32",
        "value": "t_enum(TxStatus)3083"
      },
      "t_uint256": {
        "encoding": "inplace",
        "label": "uint256",
        "numberOfBytes": "32"
      },
      "t_uint64": {
        "encoding": "inplace",
        "label": "uint64",
        "numberOfBytes": "8"
      }
    }
  }
}