{
  "address": "0xF3A44CE48866F1583Bff891Df5CC4878eA164FEb",
  "abi": [
    {
      "inputs": [
        {
          "internalType": "address",
          "name": "_gasFeePricing",
          "type": "address"
        },
        {
          "internalType": "address",
          "name": "_authVerifier",
          "type": "address"
        }
      ],
      "stateMutability": "nonpayable",
      "type": "constructor"
    },
    {
      "anonymous": false,
      "inputs": [
        {
          "indexed": false,
          "internalType": "string",
          "name": "reason",
          "type": "string"
        }
      ],
      "name": "CallReverted",
      "type": "event"
    },
    {
      "anonymous": false,
      "inputs": [
        {
          "indexed": false,
          "internalType": "bytes32",
          "name": "msgId",
          "type": "bytes32"
        },
        {
          "indexed": false,
          "internalType": "enum MessageBusReceiver.TxStatus",
          "name": "status",
          "type": "uint8"
        },
        {
          "indexed": true,
          "internalType": "address",
          "name": "_dstAddress",
          "type": "address"
        },
        {
          "indexed": false,
          "internalType": "uint64",
          "name": "srcChainId",
          "type": "uint64"
        },
        {
          "indexed": false,
          "internalType": "uint64",
          "name": "srcNonce",
          "type": "uint64"
        }
      ],
      "name": "Executed",
      "type": "event"
    },
    {
      "anonymous": false,
      "inputs": [
        {
          "indexed": true,
          "internalType": "address",
          "name": "sender",
          "type": "address"
        },
        {
          "indexed": false,
          "internalType": "uint256",
          "name": "srcChainID",
          "type": "uint256"
        },
        {
          "indexed": false,
          "internalType": "bytes32",
          "name": "receiver",
          "type": "bytes32"
        },
        {
          "indexed": true,
          "internalType": "uint256",
          "name": "dstChainId",
          "type": "uint256"
        },
        {
          "indexed": false,
          "internalType": "bytes",
          "name": "message",
          "type": "bytes"
        },
        {
          "indexed": true,
          "internalType": "uint64",
          "name": "nonce",
          "type": "uint64"
        },
        {
          "indexed": false,
          "internalType": "bytes",
          "name": "options",
          "type": "bytes"
        },
        {
          "indexed": false,
          "internalType": "uint256",
          "name": "fee",
          "type": "uint256"
        }
      ],
      "name": "MessageSent",
      "type": "event"
    },
    {
      "anonymous": false,
      "inputs": [
        {
          "indexed": true,
          "internalType": "bytes32",
          "name": "msgId",
          "type": "bytes32"
        },
        {
          "indexed": false,
          "internalType": "uint64",
          "name": "srcChainId",
          "type": "uint64"
        },
        {
          "indexed": false,
          "internalType": "uint64",
          "name": "srcNonce",
          "type": "uint64"
        }
      ],
      "name": "NeedRetry",
      "type": "event"
    },
    {
      "anonymous": false,
      "inputs": [
        {
          "indexed": true,
          "internalType": "address",
          "name": "previousOwner",
          "type": "address"
        },
        {
          "indexed": true,
          "internalType": "address",
          "name": "newOwner",
          "type": "address"
        }
      ],
      "name": "OwnershipTransferred",
      "type": "event"
    },
    {
      "inputs": [],
      "name": "authVerifier",
      "outputs": [
        {
          "internalType": "address",
          "name": "",
          "type": "address"
        }
      ],
      "stateMutability": "view",
      "type": "function"
    },
    {
      "inputs": [
        {
          "internalType": "uint256",
          "name": "_srcChainId",
          "type": "uint256"
        },
        {
          "internalType": "bytes32",
          "name": "_srcAddress",
          "type": "bytes32"
        },
        {
          "internalType": "address",
          "name": "_dstAddress",
          "type": "address"
        },
        {
          "internalType": "uint256",
          "name": "_nonce",
          "type": "uint256"
        },
        {
          "internalType": "bytes",
          "name": "_message",
          "type": "bytes"
        }
      ],
      "name": "computeMessageId",
      "outputs": [
        {
          "internalType": "bytes32",
          "name": "",
          "type": "bytes32"
        }
      ],
      "stateMutability": "view",
      "type": "function"
    },
    {
      "inputs": [
        {
          "internalType": "uint256",
          "name": "_dstChainId",
          "type": "uint256"
        },
        {
          "internalType": "bytes",
          "name": "_options",
          "type": "bytes"
        }
      ],
      "name": "estimateFee",
      "outputs": [
        {
          "internalType": "uint256",
          "name": "",
          "type": "uint256"
        }
      ],
      "stateMutability": "nonpayable",
      "type": "function"
    },
    {
      "inputs": [
        {
          "internalType": "uint256",
          "name": "_srcChainId",
          "type": "uint256"
        },
        {
          "internalType": "bytes32",
          "name": "_srcAddress",
          "type": "bytes32"
        },
        {
          "internalType": "address",
          "name": "_dstAddress",
          "type": "address"
        },
        {
          "internalType": "uint256",
          "name": "_gasLimit",
          "type": "uint256"
        },
        {
          "internalType": "uint256",
          "name": "_nonce",
          "type": "uint256"
        },
        {
          "internalType": "bytes",
          "name": "_message",
          "type": "bytes"
        },
        {
          "internalType": "bytes32",
          "name": "_messageId",
          "type": "bytes32"
        }
      ],
      "name": "executeMessage",
      "outputs": [],
      "stateMutability": "nonpayable",
      "type": "function"
    },
    {
      "inputs": [],
      "name": "gasFeePricing",
      "outputs": [
        {
          "internalType": "address",
          "name": "",
          "type": "address"
        }
      ],
      "stateMutability": "view",
      "type": "function"
    },
    {
      "inputs": [
        {
          "internalType": "bytes32",
          "name": "_messageId",
          "type": "bytes32"
        }
      ],
      "name": "getExecutedMessage",
      "outputs": [
        {
          "internalType": "enum MessageBusReceiver.TxStatus",
          "name": "",
          "type": "uint8"
        }
      ],
      "stateMutability": "view",
      "type": "function"
    },
    {
      "inputs": [],
      "name": "nonce",
      "outputs": [
        {
          "internalType": "uint64",
          "name": "",
          "type": "uint64"
        }
      ],
      "stateMutability": "view",
      "type": "function"
    },
    {
      "inputs": [],
      "name": "owner",
      "outputs": [
        {
          "internalType": "address",
          "name": "",
          "type": "address"
        }
      ],
      "stateMutability": "view",
      "type": "function"
    },
    {
      "inputs": [],
      "name": "renounceOwnership",
      "outputs": [],
      "stateMutability": "nonpayable",
      "type": "function"
    },
    {
      "inputs": [
        {
          "internalType": "bytes32",
          "name": "_receiver",
          "type": "bytes32"
        },
        {
          "internalType": "uint256",
          "name": "_dstChainId",
          "type": "uint256"
        },
        {
          "internalType": "bytes",
          "name": "_message",
          "type": "bytes"
        },
        {
          "internalType": "bytes",
          "name": "_options",
          "type": "bytes"
        }
      ],
      "name": "sendMessage",
      "outputs": [],
      "stateMutability": "payable",
      "type": "function"
    },
    {
      "inputs": [
        {
          "internalType": "address",
          "name": "newOwner",
          "type": "address"
        }
      ],
      "name": "transferOwnership",
      "outputs": [],
      "stateMutability": "nonpayable",
      "type": "function"
    },
    {
      "inputs": [
        {
          "internalType": "address",
          "name": "_authVerifier",
          "type": "address"
        }
      ],
      "name": "updateAuthVerifier",
      "outputs": [],
      "stateMutability": "nonpayable",
      "type": "function"
    },
    {
      "inputs": [
        {
          "internalType": "bytes32",
          "name": "_messageId",
          "type": "bytes32"
        },
        {
          "internalType": "enum MessageBusReceiver.TxStatus",
          "name": "_status",
          "type": "uint8"
        }
      ],
      "name": "updateMessageStatus",
      "outputs": [],
      "stateMutability": "nonpayable",
      "type": "function"
    },
    {
      "inputs": [
        {
          "internalType": "address payable",
          "name": "to",
          "type": "address"
        }
      ],
      "name": "withdrawGasFees",
      "outputs": [],
      "stateMutability": "nonpayable",
      "type": "function"
    }
  ],
  "transactionHash": "0xedfa2eca3614242d42561dc3f6fefcc18f59f81026eb3b67cd88de1174c5ebfd",
  "args": [
    "0x786E7c65e67c476Bbef1b00E90f533d68af9165f",
    "0xC0384e730246c8e506b4b186DBa7893DBa35Fb37"
  ],
  "solcInputHash": "4ddcccadbcdae7d71bc0538657cbc078",
  "bytecode": "0x60806040523480156200001157600080fd5b50604051620022903803806200229083398181016040528101906200003791906200021b565b8082620000596200004d620000e560201b60201c565b620000ed60201b60201c565b80600160006101000a81548173ffffffffffffffffffffffffffffffffffffffff021916908373ffffffffffffffffffffffffffffffffffffffff1602179055505080600360006101000a81548173ffffffffffffffffffffffffffffffffffffffff021916908373ffffffffffffffffffffffffffffffffffffffff16021790555050505062000262565b600033905090565b60008060009054906101000a900473ffffffffffffffffffffffffffffffffffffffff169050816000806101000a81548173ffffffffffffffffffffffffffffffffffffffff021916908373ffffffffffffffffffffffffffffffffffffffff1602179055508173ffffffffffffffffffffffffffffffffffffffff168173ffffffffffffffffffffffffffffffffffffffff167f8be0079c531659141344cd1fd0a4f28419497f9722a3daafe3b4186f6b6457e060405160405180910390a35050565b600080fd5b600073ffffffffffffffffffffffffffffffffffffffff82169050919050565b6000620001e382620001b6565b9050919050565b620001f581620001d6565b81146200020157600080fd5b50565b6000815190506200021581620001ea565b92915050565b60008060408385031215620002355762000234620001b1565b5b6000620002458582860162000204565b9250506020620002588582860162000204565b9150509250929050565b61201e80620002726000396000f3fe6080604052600436106100dd5760003560e01c8063aa70fc0e1161007f578063c408733511610059578063c40873351461028b578063d6417b82146102b6578063d6b457b9146102f3578063f2fde38b1461031c576100dd565b8063aa70fc0e14610219578063ac8a4c1b14610244578063affed0e014610260576100dd565b80638da5cb5b116100bb5780638da5cb5b146101735780639b11079c1461019e578063a1b058d8146101c7578063a5c0edf3146101f0576100dd565b806325b19fa3146100e25780635da6d2c41461011f578063715018a61461015c575b600080fd5b3480156100ee57600080fd5b506101096004803603810190610104919061104b565b610345565b60405161011691906110ef565b60405180910390f35b34801561012b57600080fd5b50610146600480360381019061014191906111a5565b61036f565b6040516101539190611214565b60405180910390f35b34801561016857600080fd5b50610171610464565b005b34801561017f57600080fd5b506101886104ec565b6040516101959190611270565b60405180910390f35b3480156101aa57600080fd5b506101c560048036038101906101c091906112b0565b610515565b005b3480156101d357600080fd5b506101ee60048036038101906101e9919061131c565b6105d0565b005b3480156101fc57600080fd5b50610217600480360381019061021291906113de565b6109af565b005b34801561022557600080fd5b5061022e610ade565b60405161023b9190611270565b60405180910390f35b61025e6004803603810190610259919061140b565b610b04565b005b34801561026c57600080fd5b50610275610c7e565b60405161028291906114d5565b60405180910390f35b34801561029757600080fd5b506102a0610c98565b6040516102ad9190611270565b60405180910390f35b3480156102c257600080fd5b506102dd60048036038101906102d891906114f0565b610cbe565b6040516102ea9190611599565b60405180910390f35b3480156102ff57600080fd5b5061031a600480360381019061031591906115f2565b610cff565b005b34801561032857600080fd5b50610343600480360381019061033e91906113de565b610dd3565b005b60006004600083815260200190815260200160002060009054906101000a900460ff169050919050565b600080600160009054906101000a900473ffffffffffffffffffffffffffffffffffffffff1673ffffffffffffffffffffffffffffffffffffffff166347feadc18686866040518463ffffffff1660e01b81526004016103d19392919061167d565b6020604051808303816000875af11580156103f0573d6000803e3d6000fd5b505050506040513d601f19601f8201168201806040525081019061041491906116c4565b905060008103610459576040517f08c379a00000000000000000000000000000000000000000000000000000000081526004016104509061174e565b60405180910390fd5b809150509392505050565b61046c610eca565b73ffffffffffffffffffffffffffffffffffffffff1661048a6104ec565b73ffffffffffffffffffffffffffffffffffffffff16146104e0576040517f08c379a00000000000000000000000000000000000000000000000000000000081526004016104d7906117ba565b60405180910390fd5b6104ea6000610ed2565b565b60008060009054906101000a900473ffffffffffffffffffffffffffffffffffffffff16905090565b61051d610eca565b73ffffffffffffffffffffffffffffffffffffffff1661053b6104ec565b73ffffffffffffffffffffffffffffffffffffffff1614610591576040517f08c379a0000000000000000000000000000000000000000000000000000000008152600401610588906117ba565b60405180910390fd5b806004600084815260200190815260200160002060006101000a81548160ff021916908360038111156105c7576105c6611078565b5b02179055505050565b60006105e0898989888888610cbe565b9050818114610624576040517f08c379a000000000000000000000000000000000000000000000000000000000815260040161061b90611826565b60405180910390fd5b6000600381111561063857610637611078565b5b6004600083815260200190815260200160002060009054906101000a900460ff16600381111561066b5761066a611078565b5b146106ab576040517f08c379a00000000000000000000000000000000000000000000000000000000081526004016106a290611892565b60405180910390fd5b600360009054906101000a900473ffffffffffffffffffffffffffffffffffffffff1673ffffffffffffffffffffffffffffffffffffffff16638b1b3a2d336040516020016106fa9190611270565b6040516020818303038152906040526040518263ffffffff1660e01b81526004016107259190611929565b602060405180830381865afa158015610742573d6000803e3d6000fd5b505050506040513d601f19601f820116820180604052508101906107669190611983565b5060008773ffffffffffffffffffffffffffffffffffffffff1663a6060871888b8d8989336040518763ffffffff1660e01b81526004016107ab9594939291906119b0565b60206040518083038160008887f1935050505080156107e857506040513d601f19601f820116820180604052508101906107e59190611a23565b60015b610867573d8060008114610818576040519150601f19603f3d011682016040523d82523d6000602084013e61081d565b606091505b507fffdd6142bbb721f3400e3908b04b86f60649b2e4d191e3f4c50c32c3e6471d2f61084882610f96565b6040516108559190611a94565b60405180910390a16002915050610914565b60028081111561087a57610879611078565b5b81600281111561088d5761088c611078565b5b0361090d5760006004600085815260200190815260200160002060006101000a81548160ff021916908360038111156108c9576108c8611078565b5b0217905550827faed431377e805298c69fdb285e6085eb9a813485981c5abec146c967ac424d5b8c89604051610900929190611ab6565b60405180910390a2610912565b600191505b505b806004600084815260200190815260200160002060006101000a81548160ff0219169083600381111561094a57610949611078565b5b02179055508773ffffffffffffffffffffffffffffffffffffffff167f04214a849019ea3548afcedee810b5bc1680cfb64e22fdf9051a823f3cdfea6583838d8a60405161099b9493929190611adf565b60405180910390a250505050505050505050565b6109b7610eca565b73ffffffffffffffffffffffffffffffffffffffff166109d56104ec565b73ffffffffffffffffffffffffffffffffffffffff1614610a2b576040517f08c379a0000000000000000000000000000000000000000000000000000000008152600401610a22906117ba565b60405180910390fd5b600073ffffffffffffffffffffffffffffffffffffffff168173ffffffffffffffffffffffffffffffffffffffff1603610a9a576040517f08c379a0000000000000000000000000000000000000000000000000000000008152600401610a9190611b70565b60405180910390fd5b80600360006101000a81548173ffffffffffffffffffffffffffffffffffffffff021916908373ffffffffffffffffffffffffffffffffffffffff16021790555050565b600160009054906101000a900473ffffffffffffffffffffffffffffffffffffffff1681565b468503610b46576040517f08c379a0000000000000000000000000000000000000000000000000000000008152600401610b3d90611bdc565b60405180910390fd5b6000610b5386848461036f565b905080341015610b98576040517f08c379a0000000000000000000000000000000000000000000000000000000008152600401610b8f90611c48565b60405180910390fd5b600160149054906101000a900467ffffffffffffffff1667ffffffffffffffff16863373ffffffffffffffffffffffffffffffffffffffff167f4679cb14e22de98156c0e8896d3d05a0ae587315dfbb2abcbeec6ae4f0144549468b8a8a8a8a34604051610c0c9796959493929190611c68565b60405180910390a43460026000828254610c269190611cfc565b925050819055506001601481819054906101000a900467ffffffffffffffff16610c4f90611d52565b91906101000a81548167ffffffffffffffff021916908367ffffffffffffffff16021790555050505050505050565b600160149054906101000a900467ffffffffffffffff1681565b600360009054906101000a900473ffffffffffffffffffffffffffffffffffffffff1681565b600086864687878787604051602001610cdd9796959493929190611d82565b6040516020818303038152906040528051906020012090509695505050505050565b610d07610eca565b73ffffffffffffffffffffffffffffffffffffffff16610d256104ec565b73ffffffffffffffffffffffffffffffffffffffff1614610d7b576040517f08c379a0000000000000000000000000000000000000000000000000000000008152600401610d72906117ba565b60405180910390fd5b600060025490508173ffffffffffffffffffffffffffffffffffffffff166108fc829081150290604051600060405180830381858888f19350505050158015610dc8573d6000803e3d6000fd5b506002600090555050565b610ddb610eca565b73ffffffffffffffffffffffffffffffffffffffff16610df96104ec565b73ffffffffffffffffffffffffffffffffffffffff1614610e4f576040517f08c379a0000000000000000000000000000000000000000000000000000000008152600401610e46906117ba565b60405180910390fd5b600073ffffffffffffffffffffffffffffffffffffffff168173ffffffffffffffffffffffffffffffffffffffff1603610ebe576040517f08c379a0000000000000000000000000000000000000000000000000000000008152600401610eb590611e5e565b60405180910390fd5b610ec781610ed2565b50565b600033905090565b60008060009054906101000a900473ffffffffffffffffffffffffffffffffffffffff169050816000806101000a81548173ffffffffffffffffffffffffffffffffffffffff021916908373ffffffffffffffffffffffffffffffffffffffff1602179055508173ffffffffffffffffffffffffffffffffffffffff168173ffffffffffffffffffffffffffffffffffffffff167f8be0079c531659141344cd1fd0a4f28419497f9722a3daafe3b4186f6b6457e060405160405180910390a35050565b6060604482511015610fdf576040518060400160405280601d81526020017f5472616e73616374696f6e2072657665727465642073696c656e746c790000008152509050610ffc565b60048201915081806020019051810190610ff99190611f9f565b90505b919050565b6000604051905090565b600080fd5b600080fd5b6000819050919050565b61102881611015565b811461103357600080fd5b50565b6000813590506110458161101f565b92915050565b6000602082840312156110615761106061100b565b5b600061106f84828501611036565b91505092915050565b7f4e487b7100000000000000000000000000000000000000000000000000000000600052602160045260246000fd5b600481106110b8576110b7611078565b5b50565b60008190506110c9826110a7565b919050565b60006110d9826110bb565b9050919050565b6110e9816110ce565b82525050565b600060208201905061110460008301846110e0565b92915050565b6000819050919050565b61111d8161110a565b811461112857600080fd5b50565b60008135905061113a81611114565b92915050565b600080fd5b600080fd5b600080fd5b60008083601f84011261116557611164611140565b5b8235905067ffffffffffffffff81111561118257611181611145565b5b60208301915083600182028301111561119e5761119d61114a565b5b9250929050565b6000806000604084860312156111be576111bd61100b565b5b60006111cc8682870161112b565b935050602084013567ffffffffffffffff8111156111ed576111ec611010565b5b6111f98682870161114f565b92509250509250925092565b61120e8161110a565b82525050565b60006020820190506112296000830184611205565b92915050565b600073ffffffffffffffffffffffffffffffffffffffff82169050919050565b600061125a8261122f565b9050919050565b61126a8161124f565b82525050565b60006020820190506112856000830184611261565b92915050565b6004811061129857600080fd5b50565b6000813590506112aa8161128b565b92915050565b600080604083850312156112c7576112c661100b565b5b60006112d585828601611036565b92505060206112e68582860161129b565b9150509250929050565b6112f98161124f565b811461130457600080fd5b50565b600081359050611316816112f0565b92915050565b60008060008060008060008060e0898b03121561133c5761133b61100b565b5b600061134a8b828c0161112b565b985050602061135b8b828c01611036565b975050604061136c8b828c01611307565b965050606061137d8b828c0161112b565b955050608061138e8b828c0161112b565b94505060a089013567ffffffffffffffff8111156113af576113ae611010565b5b6113bb8b828c0161114f565b935093505060c06113ce8b828c01611036565b9150509295985092959890939650565b6000602082840312156113f4576113f361100b565b5b600061140284828501611307565b91505092915050565b600080600080600080608087890312156114285761142761100b565b5b600061143689828a01611036565b965050602061144789828a0161112b565b955050604087013567ffffffffffffffff81111561146857611467611010565b5b61147489828a0161114f565b9450945050606087013567ffffffffffffffff81111561149757611496611010565b5b6114a389828a0161114f565b92509250509295509295509295565b600067ffffffffffffffff82169050919050565b6114cf816114b2565b82525050565b60006020820190506114ea60008301846114c6565b92915050565b60008060008060008060a0878903121561150d5761150c61100b565b5b600061151b89828a0161112b565b965050602061152c89828a01611036565b955050604061153d89828a01611307565b945050606061154e89828a0161112b565b935050608087013567ffffffffffffffff81111561156f5761156e611010565b5b61157b89828a0161114f565b92509250509295509295509295565b61159381611015565b82525050565b60006020820190506115ae600083018461158a565b92915050565b60006115bf8261122f565b9050919050565b6115cf816115b4565b81146115da57600080fd5b50565b6000813590506115ec816115c6565b92915050565b6000602082840312156116085761160761100b565b5b6000611616848285016115dd565b91505092915050565b600082825260208201905092915050565b82818337600083830152505050565b6000601f19601f8301169050919050565b600061165c838561161f565b9350611669838584611630565b6116728361163f565b840190509392505050565b60006040820190506116926000830186611205565b81810360208301526116a5818486611650565b9050949350505050565b6000815190506116be81611114565b92915050565b6000602082840312156116da576116d961100b565b5b60006116e8848285016116af565b91505092915050565b600082825260208201905092915050565b7f466565206e6f7420736574000000000000000000000000000000000000000000600082015250565b6000611738600b836116f1565b915061174382611702565b602082019050919050565b600060208201905081810360008301526117678161172b565b9050919050565b7f4f776e61626c653a2063616c6c6572206973206e6f7420746865206f776e6572600082015250565b60006117a46020836116f1565b91506117af8261176e565b602082019050919050565b600060208201905081810360008301526117d381611797565b9050919050565b7f496e636f7272656374206d6573736167654964207375626d6974746564000000600082015250565b6000611810601d836116f1565b915061181b826117da565b602082019050919050565b6000602082019050818103600083015261183f81611803565b9050919050565b7f4d65737361676520616c72656164792065786563757465640000000000000000600082015250565b600061187c6018836116f1565b915061188782611846565b602082019050919050565b600060208201905081810360008301526118ab8161186f565b9050919050565b600081519050919050565b60005b838110156118db5780820151818401526020810190506118c0565b838111156118ea576000848401525b50505050565b60006118fb826118b2565b611905818561161f565b93506119158185602086016118bd565b61191e8161163f565b840191505092915050565b6000602082019050818103600083015261194381846118f0565b905092915050565b60008115159050919050565b6119608161194b565b811461196b57600080fd5b50565b60008151905061197d81611957565b92915050565b6000602082840312156119995761199861100b565b5b60006119a78482850161196e565b91505092915050565b60006080820190506119c5600083018861158a565b6119d26020830187611205565b81810360408301526119e5818587611650565b90506119f46060830184611261565b9695505050505050565b60038110611a0b57600080fd5b50565b600081519050611a1d816119fe565b92915050565b600060208284031215611a3957611a3861100b565b5b6000611a4784828501611a0e565b91505092915050565b600081519050919050565b6000611a6682611a50565b611a7081856116f1565b9350611a808185602086016118bd565b611a898161163f565b840191505092915050565b60006020820190508181036000830152611aae8184611a5b565b905092915050565b6000604082019050611acb60008301856114c6565b611ad860208301846114c6565b9392505050565b6000608082019050611af4600083018761158a565b611b0160208301866110e0565b611b0e60408301856114c6565b611b1b60608301846114c6565b95945050505050565b7f43616e6e6f742073657420746f20300000000000000000000000000000000000600082015250565b6000611b5a600f836116f1565b9150611b6582611b24565b602082019050919050565b60006020820190508181036000830152611b8981611b4d565b9050919050565b7f496e76616c696420636861696e49640000000000000000000000000000000000600082015250565b6000611bc6600f836116f1565b9150611bd182611b90565b602082019050919050565b60006020820190508181036000830152611bf581611bb9565b9050919050565b7f496e7375666669656e7420676173206665650000000000000000000000000000600082015250565b6000611c326012836116f1565b9150611c3d82611bfc565b602082019050919050565b60006020820190508181036000830152611c6181611c25565b9050919050565b600060a082019050611c7d600083018a611205565b611c8a602083018961158a565b8181036040830152611c9d818789611650565b90508181036060830152611cb2818587611650565b9050611cc16080830184611205565b98975050505050505050565b7f4e487b7100000000000000000000000000000000000000000000000000000000600052601160045260246000fd5b6000611d078261110a565b9150611d128361110a565b9250827fffffffffffffffffffffffffffffffffffffffffffffffffffffffffffffffff03821115611d4757611d46611ccd565b5b828201905092915050565b6000611d5d826114b2565b915067ffffffffffffffff8203611d7757611d76611ccd565b5b600182019050919050565b600060c082019050611d97600083018a611205565b611da4602083018961158a565b611db16040830188611205565b611dbe6060830187611261565b611dcb6080830186611205565b81810360a0830152611dde818486611650565b905098975050505050505050565b7f4f776e61626c653a206e6577206f776e657220697320746865207a65726f206160008201527f6464726573730000000000000000000000000000000000000000000000000000602082015250565b6000611e486026836116f1565b9150611e5382611dec565b604082019050919050565b60006020820190508181036000830152611e7781611e3b565b9050919050565b600080fd5b7f4e487b7100000000000000000000000000000000000000000000000000000000600052604160045260246000fd5b611ebb8261163f565b810181811067ffffffffffffffff82111715611eda57611ed9611e83565b5b80604052505050565b6000611eed611001565b9050611ef98282611eb2565b919050565b600067ffffffffffffffff821115611f1957611f18611e83565b5b611f228261163f565b9050602081019050919050565b6000611f42611f3d84611efe565b611ee3565b905082815260208101848484011115611f5e57611f5d611e7e565b5b611f698482856118bd565b509392505050565b600082601f830112611f8657611f85611140565b5b8151611f96848260208601611f2f565b91505092915050565b600060208284031215611fb557611fb461100b565b5b600082015167ffffffffffffffff811115611fd357611fd2611010565b5b611fdf84828501611f71565b9150509291505056fea26469706673582212203fce35bc0776b90bc0c93e9802fc76d967914629059e304c2ff7f890a6b3d51f64736f6c634300080d0033",
  "devdoc": {
    "kind": "dev",
    "methods": {
      "executeMessage(uint256,bytes32,address,uint256,uint256,bytes,bytes32)": {
        "params": {
          "_dstAddress": "Destination address that the arbitrary message will be passed to",
          "_gasLimit": "Gas limit to be passed alongside the message, depending on the fee paid on srcChain",
          "_message": "Arbitrary message payload to pass to the destination chain receiver",
          "_srcAddress": "Originating bytes32 address of the message sender on the srcChain",
          "_srcChainId": "Originating chain ID - typically a standard EVM chain ID, but may refer to a Synapse-specific chain ID on nonEVM chains"
        }
      },
      "owner()": {
        "details": "Returns the address of the current owner."
      },
      "renounceOwnership()": {
        "details": "Leaves the contract without owner. It will not be possible to call `onlyOwner` functions anymore. Can only be called by the current owner. NOTE: Renouncing ownership will leave the contract without an owner, thereby removing any functionality that is only available to the owner."
      },
      "sendMessage(bytes32,uint256,bytes,bytes)": {
        "params": {
          "_dstChainId": "The destination chain ID - typically, standard EVM chain ID, but differs on nonEVM chains",
          "_message": "The arbitrary payload to pass to the destination chain receiver",
          "_options": "Versioned struct used to instruct relayer on how to proceed with gas limits",
          "_receiver": "The bytes32 address of the destination contract to be called"
        }
      },
      "transferOwnership(address)": {
        "details": "Transfers ownership of the contract to a new account (`newOwner`). Can only be called by the current owner."
      },
      "withdrawGasFees(address)": {
        "params": {
          "to": "Address to withdraw gas fees to, which can be specified in the event owner() can't receive native gas"
        }
      }
    },
    "version": 1
  },
  "userdoc": {
    "kind": "user",
    "methods": {
      "executeMessage(uint256,bytes32,address,uint256,uint256,bytes,bytes32)": {
        "notice": "Relayer executes messages through an authenticated method to the destination receiver based on the originating transaction on source chain"
      },
      "sendMessage(bytes32,uint256,bytes,bytes)": {
        "notice": "Sends a message to a receiving contract address on another chain. Sender must make sure that the message is unique and not a duplicate message."
      },
      "updateMessageStatus(bytes32,uint8)": {
        "notice": "CONTRACT CONFIG "
      },
      "withdrawGasFees(address)": {
        "notice": "Withdraws accumulated fees in native gas token, based on fees variable."
      }
    },
    "version": 1
  },
  "storageLayout": {
    "storage": [
      {
        "astId": 7,
        "contract": "contracts/messaging/MessageBus.sol:MessageBus",
        "label": "_owner",
        "offset": 0,
        "slot": "0",
        "type": "t_address"
      },
      {
        "astId": 675,
        "contract": "contracts/messaging/MessageBus.sol:MessageBus",
        "label": "gasFeePricing",
        "offset": 0,
        "slot": "1",
        "type": "t_address"
      },
      {
        "astId": 677,
        "contract": "contracts/messaging/MessageBus.sol:MessageBus",
        "label": "nonce",
        "offset": 20,
        "slot": "1",
        "type": "t_uint64"
      },
      {
        "astId": 679,
        "contract": "contracts/messaging/MessageBus.sol:MessageBus",
        "label": "fees",
        "offset": 0,
        "slot": "2",
        "type": "t_uint256"
      },
      {
        "astId": 366,
        "contract": "contracts/messaging/MessageBus.sol:MessageBus",
        "label": "authVerifier",
        "offset": 0,
        "slot": "3",
        "type": "t_address"
      },
      {
        "astId": 376,
        "contract": "contracts/messaging/MessageBus.sol:MessageBus",
        "label": "executedMessages",
        "offset": 0,
        "slot": "4",
        "type": "t_mapping(t_bytes32,t_enum(TxStatus)371)"
      }
    ],
    "types": {
      "t_address": {
        "encoding": "inplace",
        "label": "address",
        "numberOfBytes": "20"
      },
      "t_bytes32": {
        "encoding": "inplace",
        "label": "bytes32",
        "numberOfBytes": "32"
      },
      "t_enum(TxStatus)371": {
        "encoding": "inplace",
        "label": "enum MessageBusReceiver.TxStatus",
        "numberOfBytes": "1"
      },
      "t_mapping(t_bytes32,t_enum(TxStatus)371)": {
        "encoding": "mapping",
        "key": "t_bytes32",
        "label": "mapping(bytes32 => enum MessageBusReceiver.TxStatus)",
        "numberOfBytes": "32",
        "value": "t_enum(TxStatus)371"
      },
      "t_uint256": {
        "encoding": "inplace",
        "label": "uint256",
        "numberOfBytes": "32"
      },
      "t_uint64": {
        "encoding": "inplace",
        "label": "uint64",
        "numberOfBytes": "8"
      }
    }
  }
}