{
  "address": "0x53aB43aA0c2928fBd835E0e88C43B01538eE1864",
  "abi": [
    {
      "inputs": [
        {
          "internalType": "address",
          "name": "_messageBus",
          "type": "address"
        }
      ],
      "stateMutability": "nonpayable",
      "type": "constructor"
    },
    {
      "anonymous": false,
      "inputs": [
        {
          "indexed": false,
          "internalType": "uint256",
          "name": "pings",
          "type": "uint256"
        }
      ],
      "name": "Ping",
      "type": "event"
    },
    {
      "stateMutability": "payable",
      "type": "fallback"
    },
    {
      "inputs": [],
      "name": "disable",
      "outputs": [],
      "stateMutability": "nonpayable",
      "type": "function"
    },
    {
      "inputs": [
        {
          "internalType": "bytes32",
          "name": "_srcAddress",
          "type": "bytes32"
        },
        {
          "internalType": "uint256",
          "name": "_srcChainId",
          "type": "uint256"
        },
        {
          "internalType": "bytes",
          "name": "_message",
          "type": "bytes"
        },
        {
          "internalType": "address",
          "name": "_executor",
          "type": "address"
        }
      ],
      "name": "executeMessage",
      "outputs": [],
      "stateMutability": "nonpayable",
      "type": "function"
    },
    {
      "inputs": [],
      "name": "maxPings",
      "outputs": [
        {
          "internalType": "uint256",
          "name": "",
          "type": "uint256"
        }
      ],
      "stateMutability": "view",
      "type": "function"
    },
    {
      "inputs": [],
      "name": "messageBus",
      "outputs": [
        {
          "internalType": "contract IMessageBus",
          "name": "",
          "type": "address"
        }
      ],
      "stateMutability": "view",
      "type": "function"
    },
    {
      "inputs": [],
      "name": "numPings",
      "outputs": [
        {
          "internalType": "uint256",
          "name": "",
          "type": "uint256"
        }
      ],
      "stateMutability": "view",
      "type": "function"
    },
    {
      "inputs": [
        {
          "internalType": "uint256",
          "name": "_dstChainId",
          "type": "uint256"
        },
        {
          "internalType": "address",
          "name": "_dstPingPongAddr",
          "type": "address"
        },
        {
          "internalType": "uint256",
          "name": "pings",
          "type": "uint256"
        }
      ],
      "name": "ping",
      "outputs": [],
      "stateMutability": "nonpayable",
      "type": "function"
    },
    {
      "inputs": [],
      "name": "pingsEnabled",
      "outputs": [
        {
          "internalType": "bool",
          "name": "",
          "type": "bool"
        }
      ],
      "stateMutability": "view",
      "type": "function"
    },
    {
      "stateMutability": "payable",
      "type": "receive"
    }
  ],
  "transactionHash": "0x20ea8b9e9eaaccabc40352fc3d352893a693cffe13a33d9b9511417000a5d183",
  "args": [
    "0xB34C67DB5F0Fd8D3D4238FD0A1cBbfD50a72e177"
  ],
  "solcInputHash": "ae6da9686381bcba7e3a788eaf7d049c",
  "bytecode": "0x608060405234801561001057600080fd5b5060405161095f38038061095f83398101604081905261002f91610060565b600080546001600160a01b039092166001600160a81b031990921691909117600160a01b1790556005600155610090565b60006020828403121561007257600080fd5b81516001600160a01b038116811461008957600080fd5b9392505050565b6108c08061009f6000396000f3fe60806040526004361061006e5760003560e01c806358f2948f1161004b57806358f2948f1461011c5780636c7c091b1461013c578063a1a227fa14610152578063a6060871146101a457005b80632f2770db14610077578063315f7a7f146100b15780633ba6107f146100da57005b3661007557005b005b34801561008357600080fd5b50610075600080547fffffffffffffffffffffff00ffffffffffffffffffffffffffffffffffffffff169055565b3480156100bd57600080fd5b506100c760025481565b6040519081526020015b60405180910390f35b3480156100e657600080fd5b5060005461010c9074010000000000000000000000000000000000000000900460ff1681565b60405190151581526020016100d1565b34801561012857600080fd5b50610075610137366004610665565b6101c4565b34801561014857600080fd5b506100c760015481565b34801561015e57600080fd5b5060005461017f9073ffffffffffffffffffffffffffffffffffffffff1681565b60405173ffffffffffffffffffffffffffffffffffffffff90911681526020016100d1565b3480156101b057600080fd5b506100756101bf36600461069a565b6105e3565b6000471161027f576040517f08c379a000000000000000000000000000000000000000000000000000000000815260206004820152604360248201527f7468652062616c616e6365206f66207468697320636f6e7472616374206e656560448201527f647320746f2062652061626c6520746f2070617920666f72206e61746976652060648201527f6761730000000000000000000000000000000000000000000000000000000000608482015260a4015b60405180910390fd5b60005474010000000000000000000000000000000000000000900460ff16610329576040517f08c379a000000000000000000000000000000000000000000000000000000000815260206004820152602760248201527f70696e6773456e61626c65642069732066616c73652e206d657373616765732060448201527f73746f70706564000000000000000000000000000000000000000000000000006064820152608401610276565b80600154116103ba576040517f08c379a000000000000000000000000000000000000000000000000000000000815260206004820152602a60248201527f6d617850696e677320686173206265656e20726561636865642c206e6f206d6f60448201527f7265206c6f6f70696e67000000000000000000000000000000000000000000006064820152608401610276565b6040518181527f48257dc961b6f792c2b78a080dacfed693b660960a702de21cee364e20270e2f9060200160405180910390a160008160405160200161040291815260200190565b604080517fffffffffffffffffffffffffffffffffffffffffffffffffffffffffffffffe08184030181526000805460208501845281855292517f5da6d2c40000000000000000000000000000000000000000000000000000000081529194509273ffffffffffffffffffffffffffffffffffffffff90921691635da6d2c49161049091899160040161079c565b6020604051808303816000875af11580156104af573d6000803e3d6000fd5b505050506040513d601f19601f820116820180604052508101906104d391906107bd565b90508047101561053f576040517f08c379a000000000000000000000000000000000000000000000000000000000815260206004820152601760248201527f6e6f7420656e6f7567682067617320666f7220666565730000000000000000006044820152606401610276565b6000805460408051602081018252928352517fac8a4c1b00000000000000000000000000000000000000000000000000000000815273ffffffffffffffffffffffffffffffffffffffff9182169263ac8a4c1b9285926105aa92918a16918b918991906004016107d6565b6000604051808303818588803b1580156105c357600080fd5b505af11580156105d7573d6000803e3d6000fd5b50505050505050505050565b60005473ffffffffffffffffffffffffffffffffffffffff16331461060757600080fd5b84600061061684860186610812565b90506106218161082b565b600281905590506106338683836101c4565b50505050505050565b803573ffffffffffffffffffffffffffffffffffffffff8116811461066057600080fd5b919050565b60008060006060848603121561067a57600080fd5b8335925061068a6020850161063c565b9150604084013590509250925092565b6000806000806000608086880312156106b257600080fd5b8535945060208601359350604086013567ffffffffffffffff808211156106d857600080fd5b818801915088601f8301126106ec57600080fd5b8135818111156106fb57600080fd5b89602082850101111561070d57600080fd5b6020830195508094505050506107256060870161063c565b90509295509295909350565b6000815180845260005b818110156107575760208185018101518683018201520161073b565b81811115610769576000602083870101525b50601f017fffffffffffffffffffffffffffffffffffffffffffffffffffffffffffffffe0169290920160200192915050565b8281526040602082015260006107b56040830184610731565b949350505050565b6000602082840312156107cf57600080fd5b5051919050565b8481528360208201526080604082015260006107f56080830185610731565b82810360608401526108078185610731565b979650505050505050565b60006020828403121561082457600080fd5b5035919050565b60007fffffffffffffffffffffffffffffffffffffffffffffffffffffffffffffffff8203610883577f4e487b7100000000000000000000000000000000000000000000000000000000600052601160045260246000fd5b506001019056fea26469706673582212207ae3427e313b38d24b94bb0ece786326738fc22bf1af54238e7ad14fe2552eb464736f6c634300080d0033",
  "devdoc": {
    "kind": "dev",
    "methods": {
      "executeMessage(bytes32,uint256,bytes,address)": {
        "params": {
          "_executor": "Address who called the MessageBus execution function",
          "_message": "Arbitrary message bytes originated from and encoded by the source app contract",
          "_srcAddress": "The bytes32 address of the source app contract",
          "_srcChainId": "The source chain ID where the transfer is originated from"
        }
      }
    },
    "version": 1
  },
  "userdoc": {
    "kind": "user",
    "methods": {
      "executeMessage(bytes32,uint256,bytes,address)": {
        "notice": "Called by MessageBus (MessageBusReceiver)"
      }
    },
    "version": 1
  },
  "storageLayout": {
    "storage": [
      {
        "astId": 6170,
        "contract": "contracts/messaging/apps/PingPong.sol:PingPong",
        "label": "messageBus",
        "offset": 0,
        "slot": "0",
        "type": "t_contract(IMessageBus)13439"
      },
      {
        "astId": 6172,
        "contract": "contracts/messaging/apps/PingPong.sol:PingPong",
        "label": "pingsEnabled",
        "offset": 20,
        "slot": "0",
        "type": "t_bool"
      },
      {
        "astId": 6178,
        "contract": "contracts/messaging/apps/PingPong.sol:PingPong",
        "label": "maxPings",
        "offset": 0,
        "slot": "1",
        "type": "t_uint256"
      },
      {
        "astId": 6180,
        "contract": "contracts/messaging/apps/PingPong.sol:PingPong",
        "label": "numPings",
        "offset": 0,
        "slot": "2",
        "type": "t_uint256"
      }
    ],
    "types": {
      "t_bool": {
        "encoding": "inplace",
        "label": "bool",
        "numberOfBytes": "1"
      },
      "t_contract(IMessageBus)13439": {
        "encoding": "inplace",
        "label": "contract IMessageBus",
        "numberOfBytes": "20"
      },
      "t_uint256": {
        "encoding": "inplace",
        "label": "uint256",
        "numberOfBytes": "32"
      }
    }
  }
}