{
  "address": "0xECD72d039362fbFC52F8A8724E720753c50aa3B1",
  "abi": [
    {
      "inputs": [
        {
          "internalType": "address payable",
          "name": "_wethAddress",
          "type": "address"
        },
        {
          "internalType": "address",
          "name": "_metaSwapOne",
          "type": "address"
        },
        {
          "internalType": "address",
          "name": "tokenOne",
          "type": "address"
        },
        {
          "internalType": "address",
          "name": "_metaSwapTwo",
          "type": "address"
        },
        {
          "internalType": "address",
          "name": "tokenTwo",
          "type": "address"
        },
        {
          "internalType": "contract ISynapseBridge",
          "name": "_synapseBridge",
          "type": "address"
        }
      ],
      "stateMutability": "nonpayable",
      "type": "constructor"
    },
    {
      "inputs": [],
      "name": "WETH_ADDRESS",
      "outputs": [
        {
          "internalType": "address payable",
          "name": "",
          "type": "address"
        }
      ],
      "stateMutability": "view",
      "type": "function"
    },
    {
      "inputs": [
        {
          "internalType": "contract IERC20",
          "name": "token",
          "type": "address"
        },
        {
          "internalType": "uint8",
          "name": "tokenIndexFrom",
          "type": "uint8"
        },
        {
          "internalType": "uint8",
          "name": "tokenIndexTo",
          "type": "uint8"
        },
        {
          "internalType": "uint256",
          "name": "dx",
          "type": "uint256"
        }
      ],
      "name": "calculateSwap",
      "outputs": [
        {
          "internalType": "uint256",
          "name": "",
          "type": "uint256"
        }
      ],
      "stateMutability": "view",
      "type": "function"
    },
    {
      "inputs": [
        {
          "internalType": "address",
          "name": "",
          "type": "address"
        }
      ],
      "name": "metaSwapMap",
      "outputs": [
        {
          "internalType": "address",
          "name": "",
          "type": "address"
        }
      ],
      "stateMutability": "view",
      "type": "function"
    },
    {
      "inputs": [
        {
          "internalType": "address",
          "name": "",
          "type": "address"
        },
        {
          "internalType": "uint256",
          "name": "",
          "type": "uint256"
        }
      ],
      "name": "metaSwapTokensMap",
      "outputs": [
        {
          "internalType": "contract IERC20",
          "name": "",
          "type": "address"
        }
      ],
      "stateMutability": "view",
      "type": "function"
    },
    {
      "inputs": [
        {
          "internalType": "address",
          "name": "to",
          "type": "address"
        },
        {
          "internalType": "uint256",
          "name": "chainId",
          "type": "uint256"
        },
        {
          "internalType": "contract IERC20",
          "name": "token",
          "type": "address"
        },
        {
          "internalType": "uint256",
          "name": "amount",
          "type": "uint256"
        }
      ],
      "name": "redeem",
      "outputs": [],
      "stateMutability": "nonpayable",
      "type": "function"
    },
    {
      "inputs": [
        {
          "internalType": "address",
          "name": "to",
          "type": "address"
        },
        {
          "internalType": "uint256",
          "name": "chainId",
          "type": "uint256"
        },
        {
          "internalType": "contract IERC20",
          "name": "token",
          "type": "address"
        },
        {
          "internalType": "uint256",
          "name": "amount",
          "type": "uint256"
        },
        {
          "internalType": "uint8",
          "name": "liqTokenIndex",
          "type": "uint8"
        },
        {
          "internalType": "uint256",
          "name": "liqMinAmount",
          "type": "uint256"
        },
        {
          "internalType": "uint256",
          "name": "liqDeadline",
          "type": "uint256"
        }
      ],
      "name": "redeemAndRemove",
      "outputs": [],
      "stateMutability": "nonpayable",
      "type": "function"
    },
    {
      "inputs": [
        {
          "internalType": "address",
          "name": "to",
          "type": "address"
        },
        {
          "internalType": "uint256",
          "name": "chainId",
          "type": "uint256"
        },
        {
          "internalType": "contract IERC20",
          "name": "token",
          "type": "address"
        },
        {
          "internalType": "uint256",
          "name": "amount",
          "type": "uint256"
        },
        {
          "internalType": "uint8",
          "name": "tokenIndexFrom",
          "type": "uint8"
        },
        {
          "internalType": "uint8",
          "name": "tokenIndexTo",
          "type": "uint8"
        },
        {
          "internalType": "uint256",
          "name": "minDy",
          "type": "uint256"
        },
        {
          "internalType": "uint256",
          "name": "deadline",
          "type": "uint256"
        }
      ],
      "name": "redeemAndSwap",
      "outputs": [],
      "stateMutability": "nonpayable",
      "type": "function"
    },
    {
      "inputs": [
        {
          "internalType": "address",
          "name": "to",
          "type": "address"
        },
        {
          "internalType": "uint256",
          "name": "chainId",
          "type": "uint256"
        },
        {
          "internalType": "contract IERC20",
          "name": "token",
          "type": "address"
        },
        {
          "internalType": "uint8",
          "name": "tokenIndexFrom",
          "type": "uint8"
        },
        {
          "internalType": "uint8",
          "name": "tokenIndexTo",
          "type": "uint8"
        },
        {
          "internalType": "uint256",
          "name": "dx",
          "type": "uint256"
        },
        {
          "internalType": "uint256",
          "name": "minDy",
          "type": "uint256"
        },
        {
          "internalType": "uint256",
          "name": "deadline",
          "type": "uint256"
        }
      ],
      "name": "swapAndRedeem",
      "outputs": [],
      "stateMutability": "nonpayable",
      "type": "function"
    },
    {
      "inputs": [
        {
          "internalType": "address",
          "name": "to",
          "type": "address"
        },
        {
          "internalType": "uint256",
          "name": "chainId",
          "type": "uint256"
        },
        {
          "internalType": "contract IERC20",
          "name": "token",
          "type": "address"
        },
        {
          "internalType": "uint8",
          "name": "tokenIndexFrom",
          "type": "uint8"
        },
        {
          "internalType": "uint8",
          "name": "tokenIndexTo",
          "type": "uint8"
        },
        {
          "internalType": "uint256",
          "name": "dx",
          "type": "uint256"
        },
        {
          "internalType": "uint256",
          "name": "minDy",
          "type": "uint256"
        },
        {
          "internalType": "uint256",
          "name": "deadline",
          "type": "uint256"
        },
        {
          "internalType": "uint8",
          "name": "liqTokenIndex",
          "type": "uint8"
        },
        {
          "internalType": "uint256",
          "name": "liqMinAmount",
          "type": "uint256"
        },
        {
          "internalType": "uint256",
          "name": "liqDeadline",
          "type": "uint256"
        }
      ],
      "name": "swapAndRedeemAndRemove",
      "outputs": [],
      "stateMutability": "nonpayable",
      "type": "function"
    },
    {
      "inputs": [
        {
          "internalType": "address",
          "name": "to",
          "type": "address"
        },
        {
          "internalType": "uint256",
          "name": "chainId",
          "type": "uint256"
        },
        {
          "internalType": "contract IERC20",
          "name": "token",
          "type": "address"
        },
        {
          "internalType": "uint8",
          "name": "tokenIndexFrom",
          "type": "uint8"
        },
        {
          "internalType": "uint8",
          "name": "tokenIndexTo",
          "type": "uint8"
        },
        {
          "internalType": "uint256",
          "name": "dx",
          "type": "uint256"
        },
        {
          "internalType": "uint256",
          "name": "minDy",
          "type": "uint256"
        },
        {
          "internalType": "uint256",
          "name": "deadline",
          "type": "uint256"
        },
        {
          "internalType": "uint8",
          "name": "swapTokenIndexFrom",
          "type": "uint8"
        },
        {
          "internalType": "uint8",
          "name": "swapTokenIndexTo",
          "type": "uint8"
        },
        {
          "internalType": "uint256",
          "name": "swapMinDy",
          "type": "uint256"
        },
        {
          "internalType": "uint256",
          "name": "swapDeadline",
          "type": "uint256"
        }
      ],
      "name": "swapAndRedeemAndSwap",
      "outputs": [],
      "stateMutability": "nonpayable",
      "type": "function"
    },
    {
      "inputs": [
        {
          "internalType": "address",
          "name": "to",
          "type": "address"
        },
        {
          "internalType": "uint256",
          "name": "chainId",
          "type": "uint256"
        },
        {
          "internalType": "contract IERC20",
          "name": "token",
          "type": "address"
        },
        {
          "internalType": "uint8",
          "name": "tokenIndexFrom",
          "type": "uint8"
        },
        {
          "internalType": "uint8",
          "name": "tokenIndexTo",
          "type": "uint8"
        },
        {
          "internalType": "uint256",
          "name": "dx",
          "type": "uint256"
        },
        {
          "internalType": "uint256",
          "name": "minDy",
          "type": "uint256"
        },
        {
          "internalType": "uint256",
          "name": "deadline",
          "type": "uint256"
        }
      ],
      "name": "swapETHAndRedeem",
      "outputs": [],
      "stateMutability": "payable",
      "type": "function"
    }
  ],
  "transactionHash": "0x28298768a19e9398676a724c3ac5674cf88e17fc81b2ec3bd97ff6a0da00aa2a",
  "args": [
    "0x0000000000000000000000000000000000000000",
    "0x957B42Ff75B486F8e9163652Eb8A9B46a12006a2",
    "0xCFc37A6AB183dd4aED08C204D1c2773c0b1BDf46",
    "0x0000000000000000000000000000000000000000",
    "0x0000000000000000000000000000000000000000",
    "0xC05e61d0E7a63D27546389B7aD62FdFf5A91aACE"
  ],
  "solcInputHash": "c61b70be94f86256718ace76b7a1925e",
  "bytecode": "0x60a06040523480156200001157600080fd5b50604051620025fb380380620025fb833981810160405260c08110156200003757600080fd5b50805160208083015160408085015160608087015160808089015160a0909901519288901b6001600160601b0319169052600080546001600160a01b03199081166001600160a01b038086169190911783558086168352600190985285822080548216898916908117909155888b16835295909120805490911696821696909617909555949592949093929115620002295760005b60208160ff161015620001e357856001600160a01b031663e4b50cb8826040518263ffffffff1660e01b8152600401808260ff16815260200191505060206040518083038186803b1580156200012157600080fd5b505afa9250505080156200014857506040513d60208110156200014357600080fd5b505160015b6200015357620001e3565b6001600160a01b038781166000908152600260209081526040822080546001810182559083529181902090910180546001600160a01b0319169284169283179055620001af9190899060001990620003a5811b6200175817901c565b600054620001d9906001600160a01b038381169116600019620003a5602090811b6200175817901c565b50600101620000cc565b60018160ff1611620002275760405162461bcd60e51b8152600401808060200182810382526024815260200180620025776024913960400191505060405180910390fd5b505b6001600160a01b03831615620003995760005b60208160ff1610156200035357836001600160a01b031663e4b50cb8826040518263ffffffff1660e01b8152600401808260ff16815260200191505060206040518083038186803b1580156200029157600080fd5b505afa925050508015620002b857506040513d6020811015620002b357600080fd5b505160015b620002c35762000353565b6001600160a01b038581166000908152600260209081526040822080546001810182559083529181902090910180546001600160a01b03191692841692831790556200031f9190879060001990620003a5811b6200175817901c565b60005462000349906001600160a01b038381169116600019620003a5602090811b6200175817901c565b506001016200023c565b60018160ff1611620003975760405162461bcd60e51b8152600401808060200182810382526024815260200180620025776024913960400191505060405180910390fd5b505b505050505050620007b8565b8015806200042f575060408051636eb1769f60e11b81523060048201526001600160a01b03848116602483015291519185169163dd62ed3e91604480820192602092909190829003018186803b158015620003ff57600080fd5b505afa15801562000414573d6000803e3d6000fd5b505050506040513d60208110156200042b57600080fd5b5051155b6200046c5760405162461bcd60e51b8152600401808060200182810382526036815260200180620025c56036913960400191505060405180910390fd5b604080516001600160a01b038416602482015260448082018490528251808303909101815260649091019091526020810180516001600160e01b0390811663095ea7b360e01b17909152620004c4918591620004c916565b505050565b606062000525826040518060400160405280602081526020017f5361666545524332303a206c6f772d6c6576656c2063616c6c206661696c6564815250856001600160a01b03166200058560201b620018d1179092919060201c565b805190915015620004c4578080602001905160208110156200054657600080fd5b5051620004c45760405162461bcd60e51b815260040180806020018281038252602a8152602001806200259b602a913960400191505060405180910390fd5b6060620005968484600085620005a0565b90505b9392505050565b606082471015620005e35760405162461bcd60e51b8152600401808060200182810382526026815260200180620025516026913960400191505060405180910390fd5b620005ee8562000708565b62000640576040805162461bcd60e51b815260206004820152601d60248201527f416464726573733a2063616c6c20746f206e6f6e2d636f6e7472616374000000604482015290519081900360640190fd5b60006060866001600160a01b031685876040518082805190602001908083835b60208310620006815780518252601f19909201916020918201910162000660565b6001836020036101000a03801982511681845116808217855250505050505090500191505060006040518083038185875af1925050503d8060008114620006e5576040519150601f19603f3d011682016040523d82523d6000602084013e620006ea565b606091505b509092509050620006fd8282866200070e565b979650505050505050565b3b151590565b606083156200071f57508162000599565b825115620007305782518084602001fd5b8160405162461bcd60e51b81526004018080602001828103825283818151815260200191508051906020019080838360005b838110156200077c57818101518382015260200162000762565b50505050905090810190601f168015620007aa5780820380516001836020036101000a031916815260200191505b509250505060405180910390fd5b60805160601c611d71620007e06000398061048e5280610cb15280610e475250611d716000f3fe6080604052600436106100bc5760003560e01c8063798af720116100745780639f3307271161004e5780639f3307271461038d578063d49df1a614610412578063f3f094a114610445576100bc565b8063798af7201461028f578063839ed90a146102ed5780638ff28a0614610354576100bc565b806336e712ed116100a557806336e712ed146101725780634a517a55146101ce57806365749c9d14610235576100bc565b8063040141e5146100c1578063174dc952146100f2575b600080fd5b3480156100cd57600080fd5b506100d661048c565b604080516001600160a01b039092168252519081900360200190f35b3480156100fe57600080fd5b50610170600480360361016081101561011657600080fd5b506001600160a01b0381358116916020810135916040820135169060ff6060820135811691608081013582169160a08201359160c08101359160e082013591610100810135909116906101208101359061014001356104b0565b005b34801561017e57600080fd5b50610170600480360360e081101561019557600080fd5b506001600160a01b0381358116916020810135916040820135169060608101359060ff6080820135169060a08101359060c00135610813565b3480156101da57600080fd5b5061017060048036036101008110156101f257600080fd5b506001600160a01b0381358116916020810135916040820135169060ff606082013581169160808101359091169060a08101359060c08101359060e00135610994565b610170600480360361010081101561024c57600080fd5b506001600160a01b0381358116916020810135916040820135169060ff606082013581169160808101359091169060a08101359060c08101359060e00135610caf565b34801561029b57600080fd5b506102db600480360360808110156102b257600080fd5b506001600160a01b038135169060ff602082013581169160408101359091169060600135611009565b60408051918252519081900360200190f35b3480156102f957600080fd5b50610170600480360361010081101561031157600080fd5b506001600160a01b0381358116916020810135916040820135169060608101359060ff608082013581169160a08101359091169060c08101359060e001356110c2565b34801561036057600080fd5b506100d66004803603604081101561037757600080fd5b506001600160a01b03813516906020013561124d565b34801561039957600080fd5b5061017060048036036101808110156103b157600080fd5b506001600160a01b0381358116916020810135916040820135169060ff6060820135811691608081013582169160a08201359160c08101359160e0820135916101008101358216916101208201351690610140810135906101600135611282565b34801561041e57600080fd5b506100d66004803603602081101561043557600080fd5b50356001600160a01b03166115d6565b34801561045157600080fd5b506101706004803603608081101561046857600080fd5b506001600160a01b03813581169160208101359160408201351690606001356115f1565b7f000000000000000000000000000000000000000000000000000000000000000081565b6001600160a01b03808a16600090815260016020526040902054168061053757604080517f08c379a000000000000000000000000000000000000000000000000000000000815260206004820152601060248201527f4d65746173776170206973203078303000000000000000000000000000000000604482015290519081900360640190fd5b6001600160a01b0381166000908152600260209081526040918290208054835181840281018401909452808452606093928301828280156105a157602002820191906000526020600020905b81546001600160a01b03168152600190910190602001808311610583575b505050505090506105de33308a848e60ff16815181106105bd57fe5b60200260200101516001600160a01b03166118ea909392919063ffffffff16565b604080517f9169558600000000000000000000000000000000000000000000000000000000815260ff808d1660048301528b166024820152604481018a9052606481018990526084810188905290516000916001600160a01b0385169163916955869160a48082019260209290919082900301818787803b15801561066257600080fd5b505af1158015610676573d6000803e3d6000fd5b505050506040513d602081101561068c57600080fd5b5051600054604080517fdd62ed3e0000000000000000000000000000000000000000000000000000000081523060048201526001600160a01b03928316602482015290519293508392918f169163dd62ed3e91604480820192602092909190829003018186803b1580156106ff57600080fd5b505afa158015610713573d6000803e3d6000fd5b505050506040513d602081101561072957600080fd5b5051101561074d5760005461074d906001600160a01b038e81169116600019611758565b60008054906101000a90046001600160a01b03166001600160a01b03166336e712ed8f8f8f858b8b8b6040518863ffffffff1660e01b815260040180886001600160a01b03168152602001878152602001866001600160a01b031681526020018581526020018460ff168152602001838152602001828152602001975050505050505050600060405180830381600087803b1580156107eb57600080fd5b505af11580156107ff573d6000803e3d6000fd5b505050505050505050505050505050505050565b6108286001600160a01b0386163330876118ea565b600054604080517fdd62ed3e0000000000000000000000000000000000000000000000000000000081523060048201526001600160a01b0392831660248201529051869288169163dd62ed3e916044808301926020929190829003018186803b15801561089457600080fd5b505afa1580156108a8573d6000803e3d6000fd5b505050506040513d60208110156108be57600080fd5b505110156108e2576000546108e2906001600160a01b038781169116600019611758565b60008054604080517f36e712ed0000000000000000000000000000000000000000000000000000000081526001600160a01b038b81166004830152602482018b905289811660448301526064820189905260ff8816608483015260a4820187905260c48201869052915191909216926336e712ed9260e4808201939182900301818387803b15801561097357600080fd5b505af1158015610987573d6000803e3d6000fd5b5050505050505050505050565b6001600160a01b038087166000908152600160205260409020541680610a1b57604080517f08c379a000000000000000000000000000000000000000000000000000000000815260206004820152601060248201527f4d65746173776170206973203078303000000000000000000000000000000000604482015290519081900360640190fd5b6001600160a01b038116600090815260026020908152604091829020805483518184028101840190945280845260609392830182828015610a8557602002820191906000526020600020905b81546001600160a01b03168152600190910190602001808311610a67575b50505050509050610aa1333087848b60ff16815181106105bd57fe5b604080517f9169558600000000000000000000000000000000000000000000000000000000815260ff808a1660048301528816602482015260448101879052606481018690526084810185905290516000916001600160a01b0385169163916955869160a48082019260209290919082900301818787803b158015610b2557600080fd5b505af1158015610b39573d6000803e3d6000fd5b505050506040513d6020811015610b4f57600080fd5b5051600054604080517fdd62ed3e0000000000000000000000000000000000000000000000000000000081523060048201526001600160a01b03928316602482015290519293508392918c169163dd62ed3e91604480820192602092909190829003018186803b158015610bc257600080fd5b505afa158015610bd6573d6000803e3d6000fd5b505050506040513d6020811015610bec57600080fd5b50511015610c1057600054610c10906001600160a01b038b81169116600019611758565b60008054604080517ff3f094a10000000000000000000000000000000000000000000000000000000081526001600160a01b038f81166004830152602482018f90528d81166044830152606482018690529151919092169263f3f094a1926084808201939182900301818387803b158015610c8a57600080fd5b505af1158015610c9e573d6000803e3d6000fd5b505050505050505050505050505050565b7f00000000000000000000000000000000000000000000000000000000000000006001600160a01b0316610d4457604080517f08c379a000000000000000000000000000000000000000000000000000000000815260206004820152600660248201527f5745544820300000000000000000000000000000000000000000000000000000604482015290519081900360640190fd5b600034118015610d5357508234145b610dbe57604080517f08c379a000000000000000000000000000000000000000000000000000000000815260206004820152601360248201527f494e434f5252454354204d53472056414c554500000000000000000000000000604482015290519081900360640190fd5b6001600160a01b038087166000908152600160205260409020541680610e4557604080517f08c379a000000000000000000000000000000000000000000000000000000000815260206004820152601060248201527f4d65746173776170206973203078303000000000000000000000000000000000604482015290519081900360640190fd5b7f00000000000000000000000000000000000000000000000000000000000000006001600160a01b031663d0e30db0346040518263ffffffff1660e01b81526004016000604051808303818588803b158015610ea057600080fd5b505af1158015610eb4573d6000803e3d6000fd5b5050604080517f9169558600000000000000000000000000000000000000000000000000000000815260ff808c1660048301528a1660248201526044810189905260648101889052608481018790529051600094506001600160a01b03861693506391695586925060a480830192602092919082900301818787803b158015610f3c57600080fd5b505af1158015610f50573d6000803e3d6000fd5b505050506040513d6020811015610f6657600080fd5b505160008054604080517ff3f094a10000000000000000000000000000000000000000000000000000000081526001600160a01b038f81166004830152602482018f90528d8116604483015260648201869052915194955091169263f3f094a19260848084019391929182900301818387803b158015610fe557600080fd5b505af1158015610ff9573d6000803e3d6000fd5b5050505050505050505050505050565b6001600160a01b0380851660009081526001602090815260408083205481517fa95b089f00000000000000000000000000000000000000000000000000000000815260ff808a1660048301528816602482015260448101879052915193941692839263a95b089f9260648082019391829003018186803b15801561108c57600080fd5b505afa1580156110a0573d6000803e3d6000fd5b505050506040513d60208110156110b657600080fd5b50519695505050505050565b6110d76001600160a01b0387163330886118ea565b600054604080517fdd62ed3e0000000000000000000000000000000000000000000000000000000081523060048201526001600160a01b0392831660248201529051879289169163dd62ed3e916044808301926020929190829003018186803b15801561114357600080fd5b505afa158015611157573d6000803e3d6000fd5b505050506040513d602081101561116d57600080fd5b5051101561119157600054611191906001600160a01b038881169116600019611758565b60008054604080517f839ed90a0000000000000000000000000000000000000000000000000000000081526001600160a01b038c81166004830152602482018c90528a81166044830152606482018a905260ff808a166084840152881660a483015260c4820187905260e482018690529151919092169263839ed90a92610104808201939182900301818387803b15801561122b57600080fd5b505af115801561123f573d6000803e3d6000fd5b505050505050505050505050565b6002602052816000526040600020818154811061126657fe5b6000918252602090912001546001600160a01b03169150829050565b6001600160a01b038a81166000908152600160205260409020541661130857604080517f08c379a000000000000000000000000000000000000000000000000000000000815260206004820152601060248201527f4d65746173776170206973203078303000000000000000000000000000000000604482015290519081900360640190fd5b6001600160a01b03808b166000908152600160209081526040808320549093168252600281529082902080548351818402810184019094528084526060939283018282801561138057602002820191906000526020600020905b81546001600160a01b03168152600190910190602001808311611362575b5050505050905061139c33308a848e60ff16815181106105bd57fe5b6000600160008d6001600160a01b03166001600160a01b0316815260200190815260200160002060009054906101000a90046001600160a01b03166001600160a01b031663916955868c8c8c8c8c6040518663ffffffff1660e01b8152600401808660ff1681526020018560ff16815260200184815260200183815260200182815260200195505050505050602060405180830381600087803b15801561144257600080fd5b505af1158015611456573d6000803e3d6000fd5b505050506040513d602081101561146c57600080fd5b5051600054604080517fdd62ed3e0000000000000000000000000000000000000000000000000000000081523060048201526001600160a01b03928316602482015290519293508392918f169163dd62ed3e91604480820192602092909190829003018186803b1580156114df57600080fd5b505afa1580156114f3573d6000803e3d6000fd5b505050506040513d602081101561150957600080fd5b5051101561152d5760005461152d906001600160a01b038e81169116600019611758565b60008054906101000a90046001600160a01b03166001600160a01b031663839ed90a8f8f8f858b8b8b8b6040518963ffffffff1660e01b815260040180896001600160a01b03168152602001888152602001876001600160a01b031681526020018681526020018560ff1681526020018460ff16815260200183815260200182815260200198505050505050505050600060405180830381600087803b1580156107eb57600080fd5b6001602052600090815260409020546001600160a01b031681565b6116066001600160a01b0383163330846118ea565b600054604080517fdd62ed3e0000000000000000000000000000000000000000000000000000000081523060048201526001600160a01b0392831660248201529051839285169163dd62ed3e916044808301926020929190829003018186803b15801561167257600080fd5b505afa158015611686573d6000803e3d6000fd5b505050506040513d602081101561169c57600080fd5b505110156116c0576000546116c0906001600160a01b038481169116600019611758565b60008054604080517ff3f094a10000000000000000000000000000000000000000000000000000000081526001600160a01b038881166004830152602482018890528681166044830152606482018690529151919092169263f3f094a1926084808201939182900301818387803b15801561173a57600080fd5b505af115801561174e573d6000803e3d6000fd5b5050505050505050565b8015806117f75750604080517fdd62ed3e0000000000000000000000000000000000000000000000000000000081523060048201526001600160a01b03848116602483015291519185169163dd62ed3e91604480820192602092909190829003018186803b1580156117c957600080fd5b505afa1580156117dd573d6000803e3d6000fd5b505050506040513d60208110156117f357600080fd5b5051155b61184c576040517f08c379a0000000000000000000000000000000000000000000000000000000008152600401808060200182810382526036815260200180611d066036913960400191505060405180910390fd5b604080516001600160a01b038416602482015260448082018490528251808303909101815260649091019091526020810180517bffffffffffffffffffffffffffffffffffffffffffffffffffffffff167f095ea7b3000000000000000000000000000000000000000000000000000000001790526118cc908490611978565b505050565b60606118e08484600085611a43565b90505b9392505050565b604080516001600160a01b0380861660248301528416604482015260648082018490528251808303909101815260849091019091526020810180517bffffffffffffffffffffffffffffffffffffffffffffffffffffffff167f23b872dd00000000000000000000000000000000000000000000000000000000179052611972908590611978565b50505050565b60606119cd826040518060400160405280602081526020017f5361666545524332303a206c6f772d6c6576656c2063616c6c206661696c6564815250856001600160a01b03166118d19092919063ffffffff16565b8051909150156118cc578080602001905160208110156119ec57600080fd5b50516118cc576040517f08c379a000000000000000000000000000000000000000000000000000000000815260040180806020018281038252602a815260200180611cdc602a913960400191505060405180910390fd5b606082471015611a9e576040517f08c379a0000000000000000000000000000000000000000000000000000000008152600401808060200182810382526026815260200180611cb66026913960400191505060405180910390fd5b611aa785611bf1565b611b1257604080517f08c379a000000000000000000000000000000000000000000000000000000000815260206004820152601d60248201527f416464726573733a2063616c6c20746f206e6f6e2d636f6e7472616374000000604482015290519081900360640190fd5b60006060866001600160a01b031685876040518082805190602001908083835b60208310611b6f57805182527fffffffffffffffffffffffffffffffffffffffffffffffffffffffffffffffe09092019160209182019101611b32565b6001836020036101000a03801982511681845116808217855250505050505090500191505060006040518083038185875af1925050503d8060008114611bd1576040519150601f19603f3d011682016040523d82523d6000602084013e611bd6565b606091505b5091509150611be6828286611bf7565b979650505050505050565b3b151590565b60608315611c065750816118e3565b825115611c165782518084602001fd5b816040517f08c379a00000000000000000000000000000000000000000000000000000000081526004018080602001828103825283818151815260200191508051906020019080838360005b83811015611c7a578181015183820152602001611c62565b50505050905090810190601f168015611ca75780820380516001836020036101000a031916815260200191505b509250505060405180910390fdfe416464726573733a20696e73756666696369656e742062616c616e636520666f722063616c6c5361666545524332303a204552433230206f7065726174696f6e20646964206e6f7420737563636565645361666545524332303a20617070726f76652066726f6d206e6f6e2d7a65726f20746f206e6f6e2d7a65726f20616c6c6f77616e6365a2646970667358221220d2744dc799679a8b059374207ccfdd9948c4dfb01aa461d7274b040e1600b23464736f6c634300060c0033416464726573733a20696e73756666696369656e742062616c616e636520666f722063616c6c6d65746153776170206d7573742068617665206174206c65617374203220746f6b656e735361666545524332303a204552433230206f7065726174696f6e20646964206e6f7420737563636565645361666545524332303a20617070726f76652066726f6d206e6f6e2d7a65726f20746f206e6f6e2d7a65726f20616c6c6f77616e6365",
  "devdoc": {
    "kind": "dev",
    "methods": {
      "calculateSwap(address,uint8,uint8,uint256)": {
        "params": {
          "dx": "the amount of tokens the user wants to sell. If the token charges a fee on transfers, use the amount that gets transferred after the fee.",
          "tokenIndexFrom": "the token the user wants to sell",
          "tokenIndexTo": "the token the user wants to buy"
        },
        "returns": {
          "_0": "amount of tokens the user will receive"
        }
      },
      "redeem(address,uint256,address,uint256)": {
        "params": {
          "amount": "Amount in native token decimals to transfer cross-chain pre-fees*",
          "chainId": "which underlying chain to bridge assets onto",
          "to": "address on other chain to redeem underlying assets to",
          "token": "ERC20 compatible token to deposit into the bridge"
        }
      },
      "redeemAndRemove(address,uint256,address,uint256,uint8,uint256,uint256)": {
        "params": {
          "amount": "Amount of (typically) LP token to pass to the nodes to attempt to removeLiquidity() with to redeem for the underlying assets of the LP token ",
          "chainId": "which underlying chain to bridge assets onto",
          "liqDeadline": "Specificies the deadline that the nodes are allowed to try to redeem/swap the LP token*",
          "liqMinAmount": "Specifies the minimum amount of the underlying asset needed for the nodes to execute the redeem/swap",
          "liqTokenIndex": "Specifies which of the underlying LP assets the nodes should attempt to redeem for",
          "to": "address on other chain to redeem underlying assets to",
          "token": "ERC20 compatible token to deposit into the bridge"
        }
      },
      "redeemAndSwap(address,uint256,address,uint256,uint8,uint8,uint256,uint256)": {
        "params": {
          "amount": "Amount in native token decimals to transfer cross-chain pre-fees",
          "chainId": "which underlying chain to bridge assets onto",
          "deadline": "latest timestamp to accept this transaction*",
          "minDy": "the min amount the user would like to receive, or revert to only minting the SynERC20 token crosschain.",
          "to": "address on other chain to redeem underlying assets to",
          "token": "ERC20 compatible token to deposit into the bridge",
          "tokenIndexFrom": "the token the user wants to swap from",
          "tokenIndexTo": "the token the user wants to swap to"
        }
      }
    },
    "version": 1
  },
  "userdoc": {
    "kind": "user",
    "methods": {
      "calculateSwap(address,uint8,uint8,uint256)": {
        "notice": "Calculate amount of tokens you receive on swap"
      },
      "redeem(address,uint256,address,uint256)": {
        "notice": "wraps SynapseBridge redeem()"
      },
      "redeemAndRemove(address,uint256,address,uint256,uint8,uint256,uint256)": {
        "notice": "Wraps redeemAndRemove on SynapseBridge Relays to nodes that (typically) a wrapped synAsset ERC20 token has been burned and the underlying needs to be redeeemed on the native chain. This function indicates to the nodes that they should attempt to redeem the LP token for the underlying assets (E.g \"swap\" out of the LP token)"
      },
      "redeemAndSwap(address,uint256,address,uint256,uint8,uint8,uint256,uint256)": {
        "notice": "Wraps redeemAndSwap on SynapseBridge.sol Relays to nodes that (typically) a wrapped synAsset ERC20 token has been burned and the underlying needs to be redeeemed on the native chain. This function indicates to the nodes that they should attempt to redeem the LP token for the underlying assets (E.g \"swap\" out of the LP token)"
      }
    },
    "version": 1
  },
  "storageLayout": {
    "storage": [
      {
        "astId": 10583,
        "contract": "contracts/synapse/wrappers/NerveMetaBridgeZap.sol:NerveMetaBridgeZap",
        "label": "synapseBridge",
        "offset": 0,
        "slot": "0",
        "type": "t_contract(ISynapseBridge)9064"
      },
      {
        "astId": 10589,
        "contract": "contracts/synapse/wrappers/NerveMetaBridgeZap.sol:NerveMetaBridgeZap",
        "label": "metaSwapMap",
        "offset": 0,
        "slot": "1",
        "type": "t_mapping(t_address,t_address)"
      },
      {
        "astId": 10594,
        "contract": "contracts/synapse/wrappers/NerveMetaBridgeZap.sol:NerveMetaBridgeZap",
        "label": "metaSwapTokensMap",
        "offset": 0,
        "slot": "2",
        "type": "t_mapping(t_address,t_array(t_contract(IERC20)4823)dyn_storage)"
      }
    ],
    "types": {
      "t_address": {
        "encoding": "inplace",
        "label": "address",
        "numberOfBytes": "20"
      },
      "t_array(t_contract(IERC20)4823)dyn_storage": {
        "base": "t_contract(IERC20)4823",
        "encoding": "dynamic_array",
        "label": "contract IERC20[]",
        "numberOfBytes": "32"
      },
      "t_contract(IERC20)4823": {
        "encoding": "inplace",
        "label": "contract IERC20",
        "numberOfBytes": "20"
      },
      "t_contract(ISynapseBridge)9064": {
        "encoding": "inplace",
        "label": "contract ISynapseBridge",
        "numberOfBytes": "20"
      },
      "t_mapping(t_address,t_address)": {
        "encoding": "mapping",
        "key": "t_address",
        "label": "mapping(address => address)",
        "numberOfBytes": "32",
        "value": "t_address"
      },
      "t_mapping(t_address,t_array(t_contract(IERC20)4823)dyn_storage)": {
        "encoding": "mapping",
        "key": "t_address",
        "label": "mapping(address => contract IERC20[])",
        "numberOfBytes": "32",
        "value": "t_array(t_contract(IERC20)4823)dyn_storage"
      }
    }
  }
}