{
  "address": "0xEC26E9b5018C19fb8ab5c0d51eeE557648bd7C65",
  "abi": [
    {
      "anonymous": false,
      "inputs": [
        {
          "indexed": false,
          "internalType": "address",
          "name": "account",
          "type": "address"
        }
      ],
      "name": "Paused",
      "type": "event"
    },
    {
      "anonymous": false,
      "inputs": [
        {
          "indexed": true,
          "internalType": "bytes32",
          "name": "role",
          "type": "bytes32"
        },
        {
          "indexed": true,
          "internalType": "bytes32",
          "name": "previousAdminRole",
          "type": "bytes32"
        },
        {
          "indexed": true,
          "internalType": "bytes32",
          "name": "newAdminRole",
          "type": "bytes32"
        }
      ],
      "name": "RoleAdminChanged",
      "type": "event"
    },
    {
      "anonymous": false,
      "inputs": [
        {
          "indexed": true,
          "internalType": "bytes32",
          "name": "role",
          "type": "bytes32"
        },
        {
          "indexed": true,
          "internalType": "address",
          "name": "account",
          "type": "address"
        },
        {
          "indexed": true,
          "internalType": "address",
          "name": "sender",
          "type": "address"
        }
      ],
      "name": "RoleGranted",
      "type": "event"
    },
    {
      "anonymous": false,
      "inputs": [
        {
          "indexed": true,
          "internalType": "bytes32",
          "name": "role",
          "type": "bytes32"
        },
        {
          "indexed": true,
          "internalType": "address",
          "name": "account",
          "type": "address"
        },
        {
          "indexed": true,
          "internalType": "address",
          "name": "sender",
          "type": "address"
        }
      ],
      "name": "RoleRevoked",
      "type": "event"
    },
    {
      "anonymous": false,
      "inputs": [
        {
          "indexed": true,
          "internalType": "address",
          "name": "to",
          "type": "address"
        },
        {
          "indexed": false,
          "internalType": "uint256",
          "name": "chainId",
          "type": "uint256"
        },
        {
          "indexed": false,
          "internalType": "contract IERC20",
          "name": "token",
          "type": "address"
        },
        {
          "indexed": false,
          "internalType": "uint256",
          "name": "amount",
          "type": "uint256"
        }
      ],
      "name": "TokenDeposit",
      "type": "event"
    },
    {
      "anonymous": false,
      "inputs": [
        {
          "indexed": true,
          "internalType": "address",
          "name": "to",
          "type": "address"
        },
        {
          "indexed": false,
          "internalType": "uint256",
          "name": "chainId",
          "type": "uint256"
        },
        {
          "indexed": false,
          "internalType": "contract IERC20",
          "name": "token",
          "type": "address"
        },
        {
          "indexed": false,
          "internalType": "uint256",
          "name": "amount",
          "type": "uint256"
        },
        {
          "indexed": false,
          "internalType": "bytes",
          "name": "routeraction",
          "type": "bytes"
        }
      ],
      "name": "TokenDepositAndSwap",
      "type": "event"
    },
    {
      "anonymous": false,
      "inputs": [
        {
          "indexed": true,
          "internalType": "address",
          "name": "to",
          "type": "address"
        },
        {
          "indexed": false,
          "internalType": "contract IERC20Mintable",
          "name": "token",
          "type": "address"
        },
        {
          "indexed": false,
          "internalType": "uint256",
          "name": "amount",
          "type": "uint256"
        },
        {
          "indexed": false,
          "internalType": "uint256",
          "name": "fee",
          "type": "uint256"
        },
        {
          "indexed": true,
          "internalType": "bytes32",
          "name": "kappa",
          "type": "bytes32"
        }
      ],
      "name": "TokenMint",
      "type": "event"
    },
    {
      "anonymous": false,
      "inputs": [
        {
          "indexed": true,
          "internalType": "address",
          "name": "to",
          "type": "address"
        },
        {
          "indexed": false,
          "internalType": "contract IERC20Mintable",
          "name": "token",
          "type": "address"
        },
        {
          "indexed": false,
          "internalType": "uint256",
          "name": "amount",
          "type": "uint256"
        },
        {
          "indexed": false,
          "internalType": "uint256",
          "name": "fee",
          "type": "uint256"
        },
        {
          "indexed": false,
          "internalType": "bytes",
          "name": "routeraction",
          "type": "bytes"
        },
        {
          "indexed": false,
          "internalType": "bool",
          "name": "swapSuccess",
          "type": "bool"
        },
        {
          "indexed": true,
          "internalType": "bytes32",
          "name": "kappa",
          "type": "bytes32"
        }
      ],
      "name": "TokenMintAndSwap",
      "type": "event"
    },
    {
      "anonymous": false,
      "inputs": [
        {
          "indexed": true,
          "internalType": "address",
          "name": "to",
          "type": "address"
        },
        {
          "indexed": false,
          "internalType": "uint256",
          "name": "chainId",
          "type": "uint256"
        },
        {
          "indexed": false,
          "internalType": "contract IERC20",
          "name": "token",
          "type": "address"
        },
        {
          "indexed": false,
          "internalType": "uint256",
          "name": "amount",
          "type": "uint256"
        }
      ],
      "name": "TokenRedeem",
      "type": "event"
    },
    {
      "anonymous": false,
      "inputs": [
        {
          "indexed": true,
          "internalType": "address",
          "name": "to",
          "type": "address"
        },
        {
          "indexed": false,
          "internalType": "uint256",
          "name": "chainId",
          "type": "uint256"
        },
        {
          "indexed": false,
          "internalType": "contract IERC20",
          "name": "token",
          "type": "address"
        },
        {
          "indexed": false,
          "internalType": "uint256",
          "name": "amount",
          "type": "uint256"
        },
        {
          "indexed": false,
          "internalType": "bytes",
          "name": "routeraction",
          "type": "bytes"
        }
      ],
      "name": "TokenRedeemAndSwap",
      "type": "event"
    },
    {
      "anonymous": false,
      "inputs": [
        {
          "indexed": true,
          "internalType": "address",
          "name": "to",
          "type": "address"
        },
        {
          "indexed": false,
          "internalType": "contract IERC20",
          "name": "token",
          "type": "address"
        },
        {
          "indexed": false,
          "internalType": "uint256",
          "name": "amount",
          "type": "uint256"
        },
        {
          "indexed": false,
          "internalType": "uint256",
          "name": "fee",
          "type": "uint256"
        },
        {
          "indexed": true,
          "internalType": "bytes32",
          "name": "kappa",
          "type": "bytes32"
        }
      ],
      "name": "TokenWithdraw",
      "type": "event"
    },
    {
      "anonymous": false,
      "inputs": [
        {
          "indexed": true,
          "internalType": "address",
          "name": "to",
          "type": "address"
        },
        {
          "indexed": false,
          "internalType": "contract IERC20",
          "name": "token",
          "type": "address"
        },
        {
          "indexed": false,
          "internalType": "uint256",
          "name": "amount",
          "type": "uint256"
        },
        {
          "indexed": false,
          "internalType": "uint256",
          "name": "fee",
          "type": "uint256"
        },
        {
          "indexed": false,
          "internalType": "bytes",
          "name": "routeraction",
          "type": "bytes"
        },
        {
          "indexed": false,
          "internalType": "bool",
          "name": "swapSuccess",
          "type": "bool"
        },
        {
          "indexed": true,
          "internalType": "bytes32",
          "name": "kappa",
          "type": "bytes32"
        }
      ],
      "name": "TokenWithdrawAndSwap",
      "type": "event"
    },
    {
      "anonymous": false,
      "inputs": [
        {
          "indexed": false,
          "internalType": "address",
          "name": "account",
          "type": "address"
        }
      ],
      "name": "Unpaused",
      "type": "event"
    },
    {
      "inputs": [],
      "name": "DEFAULT_ADMIN_ROLE",
      "outputs": [
        {
          "internalType": "bytes32",
          "name": "",
          "type": "bytes32"
        }
      ],
      "stateMutability": "view",
      "type": "function"
    },
    {
      "inputs": [],
      "name": "GOVERNANCE_ROLE",
      "outputs": [
        {
          "internalType": "bytes32",
          "name": "",
          "type": "bytes32"
        }
      ],
      "stateMutability": "view",
      "type": "function"
    },
    {
      "inputs": [],
      "name": "NODEGROUP_ROLE",
      "outputs": [
        {
          "internalType": "bytes32",
          "name": "",
          "type": "bytes32"
        }
      ],
      "stateMutability": "view",
      "type": "function"
    },
    {
      "inputs": [],
      "name": "ROUTER",
      "outputs": [
        {
          "internalType": "address",
          "name": "",
          "type": "address"
        }
      ],
      "stateMutability": "view",
      "type": "function"
    },
    {
      "inputs": [],
      "name": "WETH_ADDRESS",
      "outputs": [
        {
          "internalType": "address payable",
          "name": "",
          "type": "address"
        }
      ],
      "stateMutability": "view",
      "type": "function"
    },
    {
      "inputs": [
        {
          "internalType": "bytes32[]",
          "name": "kappas",
          "type": "bytes32[]"
        }
      ],
      "name": "addKappas",
      "outputs": [],
      "stateMutability": "nonpayable",
      "type": "function"
    },
    {
      "inputs": [],
      "name": "bridgeVersion",
      "outputs": [
        {
          "internalType": "uint256",
          "name": "",
          "type": "uint256"
        }
      ],
      "stateMutability": "view",
      "type": "function"
    },
    {
      "inputs": [],
      "name": "chainGasAmount",
      "outputs": [
        {
          "internalType": "uint256",
          "name": "",
          "type": "uint256"
        }
      ],
      "stateMutability": "view",
      "type": "function"
    },
    {
      "inputs": [
        {
          "internalType": "address",
          "name": "to",
          "type": "address"
        },
        {
          "internalType": "uint256",
          "name": "chainId",
          "type": "uint256"
        },
        {
          "internalType": "contract IERC20",
          "name": "token",
          "type": "address"
        },
        {
          "internalType": "uint256",
          "name": "amount",
          "type": "uint256"
        }
      ],
      "name": "deposit",
      "outputs": [],
      "stateMutability": "nonpayable",
      "type": "function"
    },
    {
      "inputs": [
        {
          "internalType": "address",
          "name": "to",
          "type": "address"
        },
        {
          "internalType": "uint256",
          "name": "chainId",
          "type": "uint256"
        },
        {
          "internalType": "contract IERC20",
          "name": "token",
          "type": "address"
        }
      ],
      "name": "depositMax",
      "outputs": [],
      "stateMutability": "nonpayable",
      "type": "function"
    },
    {
      "inputs": [
        {
          "internalType": "address",
          "name": "to",
          "type": "address"
        },
        {
          "internalType": "uint256",
          "name": "chainId",
          "type": "uint256"
        },
        {
          "internalType": "contract IERC20",
          "name": "token",
          "type": "address"
        },
        {
          "internalType": "bytes",
          "name": "routeraction",
          "type": "bytes"
        }
      ],
      "name": "depositMaxAndSwap",
      "outputs": [],
      "stateMutability": "nonpayable",
      "type": "function"
    },
    {
      "inputs": [
        {
          "internalType": "address",
          "name": "tokenAddress",
          "type": "address"
        }
      ],
      "name": "getFeeBalance",
      "outputs": [
        {
          "internalType": "uint256",
          "name": "",
          "type": "uint256"
        }
      ],
      "stateMutability": "view",
      "type": "function"
    },
    {
      "inputs": [
        {
          "internalType": "bytes32",
          "name": "role",
          "type": "bytes32"
        }
      ],
      "name": "getRoleAdmin",
      "outputs": [
        {
          "internalType": "bytes32",
          "name": "",
          "type": "bytes32"
        }
      ],
      "stateMutability": "view",
      "type": "function"
    },
    {
      "inputs": [
        {
          "internalType": "bytes32",
          "name": "role",
          "type": "bytes32"
        },
        {
          "internalType": "uint256",
          "name": "index",
          "type": "uint256"
        }
      ],
      "name": "getRoleMember",
      "outputs": [
        {
          "internalType": "address",
          "name": "",
          "type": "address"
        }
      ],
      "stateMutability": "view",
      "type": "function"
    },
    {
      "inputs": [
        {
          "internalType": "bytes32",
          "name": "role",
          "type": "bytes32"
        }
      ],
      "name": "getRoleMemberCount",
      "outputs": [
        {
          "internalType": "uint256",
          "name": "",
          "type": "uint256"
        }
      ],
      "stateMutability": "view",
      "type": "function"
    },
    {
      "inputs": [
        {
          "internalType": "bytes32",
          "name": "role",
          "type": "bytes32"
        },
        {
          "internalType": "address",
          "name": "account",
          "type": "address"
        }
      ],
      "name": "grantRole",
      "outputs": [],
      "stateMutability": "nonpayable",
      "type": "function"
    },
    {
      "inputs": [
        {
          "internalType": "bytes32",
          "name": "role",
          "type": "bytes32"
        },
        {
          "internalType": "address",
          "name": "account",
          "type": "address"
        }
      ],
      "name": "hasRole",
      "outputs": [
        {
          "internalType": "bool",
          "name": "",
          "type": "bool"
        }
      ],
      "stateMutability": "view",
      "type": "function"
    },
    {
      "inputs": [],
      "name": "initialize",
      "outputs": [],
      "stateMutability": "nonpayable",
      "type": "function"
    },
    {
      "inputs": [
        {
          "internalType": "bytes32",
          "name": "kappa",
          "type": "bytes32"
        }
      ],
      "name": "kappaExists",
      "outputs": [
        {
          "internalType": "bool",
          "name": "",
          "type": "bool"
        }
      ],
      "stateMutability": "view",
      "type": "function"
    },
    {
      "inputs": [
        {
          "internalType": "address payable",
          "name": "to",
          "type": "address"
        },
        {
          "internalType": "contract IERC20Mintable",
          "name": "token",
          "type": "address"
        },
        {
          "internalType": "uint256",
          "name": "amount",
          "type": "uint256"
        },
        {
          "internalType": "uint256",
          "name": "fee",
          "type": "uint256"
        },
        {
          "internalType": "bytes32",
          "name": "kappa",
          "type": "bytes32"
        }
      ],
      "name": "mint",
      "outputs": [],
      "stateMutability": "nonpayable",
      "type": "function"
    },
    {
      "inputs": [
        {
          "internalType": "address payable",
          "name": "to",
          "type": "address"
        },
        {
          "internalType": "contract IERC20Mintable",
          "name": "token",
          "type": "address"
        },
        {
          "internalType": "uint256",
          "name": "amount",
          "type": "uint256"
        },
        {
          "internalType": "uint256",
          "name": "fee",
          "type": "uint256"
        },
        {
          "internalType": "bytes",
          "name": "routeraction",
          "type": "bytes"
        },
        {
          "internalType": "bytes32",
          "name": "kappa",
          "type": "bytes32"
        }
      ],
      "name": "mintAndSwap",
      "outputs": [],
      "stateMutability": "nonpayable",
      "type": "function"
    },
    {
      "inputs": [],
      "name": "pause",
      "outputs": [],
      "stateMutability": "nonpayable",
      "type": "function"
    },
    {
      "inputs": [],
      "name": "paused",
      "outputs": [
        {
          "internalType": "bool",
          "name": "",
          "type": "bool"
        }
      ],
      "stateMutability": "view",
      "type": "function"
    },
    {
      "inputs": [
        {
          "internalType": "address",
          "name": "to",
          "type": "address"
        },
        {
          "internalType": "uint256",
          "name": "chainId",
          "type": "uint256"
        },
        {
          "internalType": "contract ERC20Burnable",
          "name": "token",
          "type": "address"
        },
        {
          "internalType": "uint256",
          "name": "amount",
          "type": "uint256"
        }
      ],
      "name": "redeem",
      "outputs": [],
      "stateMutability": "nonpayable",
      "type": "function"
    },
    {
      "inputs": [
        {
          "internalType": "address",
          "name": "to",
          "type": "address"
        },
        {
          "internalType": "uint256",
          "name": "chainId",
          "type": "uint256"
        },
        {
          "internalType": "contract ERC20Burnable",
          "name": "token",
          "type": "address"
        }
      ],
      "name": "redeemMax",
      "outputs": [],
      "stateMutability": "nonpayable",
      "type": "function"
    },
    {
      "inputs": [
        {
          "internalType": "address",
          "name": "to",
          "type": "address"
        },
        {
          "internalType": "uint256",
          "name": "chainId",
          "type": "uint256"
        },
        {
          "internalType": "contract ERC20Burnable",
          "name": "token",
          "type": "address"
        },
        {
          "internalType": "bytes",
          "name": "routeraction",
          "type": "bytes"
        }
      ],
      "name": "redeemMaxAndSwap",
      "outputs": [],
      "stateMutability": "nonpayable",
      "type": "function"
    },
    {
      "inputs": [
        {
          "internalType": "bytes32",
          "name": "role",
          "type": "bytes32"
        },
        {
          "internalType": "address",
          "name": "account",
          "type": "address"
        }
      ],
      "name": "renounceRole",
      "outputs": [],
      "stateMutability": "nonpayable",
      "type": "function"
    },
    {
      "inputs": [
        {
          "internalType": "bytes32",
          "name": "role",
          "type": "bytes32"
        },
        {
          "internalType": "address",
          "name": "account",
          "type": "address"
        }
      ],
      "name": "revokeRole",
      "outputs": [],
      "stateMutability": "nonpayable",
      "type": "function"
    },
    {
      "inputs": [
        {
          "internalType": "uint256",
          "name": "amount",
          "type": "uint256"
        }
      ],
      "name": "setChainGasAmount",
      "outputs": [],
      "stateMutability": "nonpayable",
      "type": "function"
    },
    {
      "inputs": [
        {
          "internalType": "address",
          "name": "_router",
          "type": "address"
        }
      ],
      "name": "setRouterAddress",
      "outputs": [],
      "stateMutability": "nonpayable",
      "type": "function"
    },
    {
      "inputs": [
        {
          "internalType": "address payable",
          "name": "_wethAddress",
          "type": "address"
        }
      ],
      "name": "setWethAddress",
      "outputs": [],
      "stateMutability": "nonpayable",
      "type": "function"
    },
    {
      "inputs": [],
      "name": "startBlockNumber",
      "outputs": [
        {
          "internalType": "uint256",
          "name": "",
          "type": "uint256"
        }
      ],
      "stateMutability": "view",
      "type": "function"
    },
    {
      "inputs": [],
      "name": "unpause",
      "outputs": [],
      "stateMutability": "nonpayable",
      "type": "function"
    },
    {
      "inputs": [
        {
          "internalType": "address",
          "name": "to",
          "type": "address"
        },
        {
          "internalType": "contract IERC20",
          "name": "token",
          "type": "address"
        },
        {
          "internalType": "uint256",
          "name": "amount",
          "type": "uint256"
        },
        {
          "internalType": "uint256",
          "name": "fee",
          "type": "uint256"
        },
        {
          "internalType": "bytes32",
          "name": "kappa",
          "type": "bytes32"
        }
      ],
      "name": "withdraw",
      "outputs": [],
      "stateMutability": "nonpayable",
      "type": "function"
    },
    {
      "inputs": [
        {
          "internalType": "address",
          "name": "to",
          "type": "address"
        },
        {
          "internalType": "contract IERC20",
          "name": "token",
          "type": "address"
        },
        {
          "internalType": "uint256",
          "name": "amount",
          "type": "uint256"
        },
        {
          "internalType": "uint256",
          "name": "fee",
          "type": "uint256"
        },
        {
          "internalType": "bytes",
          "name": "routeraction",
          "type": "bytes"
        },
        {
          "internalType": "bytes32",
          "name": "kappa",
          "type": "bytes32"
        }
      ],
      "name": "withdrawAndSwap",
      "outputs": [],
      "stateMutability": "nonpayable",
      "type": "function"
    },
    {
      "inputs": [
        {
          "internalType": "contract IERC20",
          "name": "token",
          "type": "address"
        },
        {
          "internalType": "address",
          "name": "to",
          "type": "address"
        }
      ],
      "name": "withdrawFees",
      "outputs": [],
      "stateMutability": "nonpayable",
      "type": "function"
    },
    {
      "stateMutability": "payable",
      "type": "receive"
    }
  ],
  "transactionHash": "0x27ccacafa064aa0790482a59bce5ac5334de598547ee45db4b79d5075f1a1b8a",
  "args": [],
  "solcInputHash": "478fc3ad156a2704b40ee85e1b05d104",
  "bytecode": "0x608060405234801561001057600080fd5b50613e6f806100206000396000f3fe6080604052600436106102525760003560e01c80639010d07c11610138578063ca15c873116100b0578063e7b6e20a1161007f578063f36c8f5c11610064578063f36c8f5c14610a68578063f3befd0114610a7d578063f3f094a114610a9257610259565b8063e7b6e20a1461098b578063f255527814610a2d57610259565b8063ca15c87314610896578063d547741f146108c0578063e00a83e0146108f9578063e7a599981461090e57610259565b8063a96e242311610107578063b250fe6b116100ec578063b250fe6b146107f6578063bcaeea5e14610820578063c78f68031461086357610259565b8063a96e2423146107ae578063ac865626146107e157610259565b80639010d07c146106e957806390d250741461071957806391d1485414610760578063a217fddf1461079957610259565b806336568abe116101cb578063498a4c2d1161019a5780635c975abb1161017f5780635c975abb146106aa5780638129fc1c146106bf5780638456cb59146106d457610259565b8063498a4c2d146106525780635198c3661461066757610259565b806336568abe146105355780633f4ba83a1461056e5780633f68fe7b1461058357806341cb87fc1461061f57610259565b80632397fbd4116102225780632f2ff15d116102075780632f2ff15d146104a95780632fe87b95146104e257806332fe7b261461052057610259565b80632397fbd4146103cb578063248a9ca31461046d57610259565b8062ebf0fd1461025e578063040141e5146102fc5780631cf5f07f1461032d57806320d7b3271461037c57610259565b3661025957005b600080fd5b34801561026a57600080fd5b506102fa6004803603608081101561028157600080fd5b6001600160a01b0382358116926020810135926040820135909216918101906080810160608201356401000000008111156102bb57600080fd5b8201836020820111156102cd57600080fd5b803590602001918460018302840111640100000000831117156102ef57600080fd5b509092509050610ad9565b005b34801561030857600080fd5b50610311610e02565b604080516001600160a01b039092168252519081900360200190f35b34801561033957600080fd5b506102fa600480360360a081101561035057600080fd5b506001600160a01b03813581169160208101359091169060408101359060608101359060800135610e11565b34801561038857600080fd5b506102fa600480360360a081101561039f57600080fd5b506001600160a01b0381358116916020810135909116906040810135906060810135906080013561125a565b3480156103d757600080fd5b506102fa600480360360c08110156103ee57600080fd5b6001600160a01b03823581169260208101359091169160408201359160608101359181019060a08101608082013564010000000081111561042e57600080fd5b82018360208201111561044057600080fd5b8035906020019184600183028401116401000000008311171561046257600080fd5b919350915035611600565b34801561047957600080fd5b506104976004803603602081101561049057600080fd5b5035611b6b565b60408051918252519081900360200190f35b3480156104b557600080fd5b506102fa600480360360408110156104cc57600080fd5b50803590602001356001600160a01b0316611b80565b3480156104ee57600080fd5b5061050c6004803603602081101561050557600080fd5b5035611bec565b604080519115158252519081900360200190f35b34801561052c57600080fd5b50610311611c01565b34801561054157600080fd5b506102fa6004803603604081101561055857600080fd5b50803590602001356001600160a01b0316611c10565b34801561057a57600080fd5b506102fa611c71565b34801561058f57600080fd5b506102fa600480360360808110156105a657600080fd5b6001600160a01b0382358116926020810135926040820135909216918101906080810160608201356401000000008111156105e057600080fd5b8201836020820111156105f257600080fd5b8035906020019184600183028401116401000000008311171561061457600080fd5b509092509050611cf6565b34801561062b57600080fd5b506102fa6004803603602081101561064257600080fd5b50356001600160a01b0316611fa6565b34801561065e57600080fd5b5061049761203c565b34801561067357600080fd5b506102fa6004803603606081101561068a57600080fd5b506001600160a01b03813581169160208101359160409091013516612042565b3480156106b657600080fd5b5061050c6122a4565b3480156106cb57600080fd5b506102fa6122ad565b3480156106e057600080fd5b506102fa6123a0565b3480156106f557600080fd5b506103116004803603604081101561070c57600080fd5b5080359060200135612423565b34801561072557600080fd5b506102fa6004803603608081101561073c57600080fd5b506001600160a01b0381358116916020810135916040820135169060600135612444565b34801561076c57600080fd5b5061050c6004803603604081101561078357600080fd5b50803590602001356001600160a01b0316612568565b3480156107a557600080fd5b50610497612580565b3480156107ba57600080fd5b506102fa600480360360208110156107d157600080fd5b50356001600160a01b0316612585565b3480156107ed57600080fd5b5061049761261b565b34801561080257600080fd5b506102fa6004803603602081101561081957600080fd5b5035612620565b34801561082c57600080fd5b506102fa6004803603606081101561084357600080fd5b506001600160a01b038135811691602081013591604090910135166126a0565b34801561086f57600080fd5b506104976004803603602081101561088657600080fd5b50356001600160a01b031661296c565b3480156108a257600080fd5b50610497600480360360208110156108b957600080fd5b5035612987565b3480156108cc57600080fd5b506102fa600480360360408110156108e357600080fd5b50803590602001356001600160a01b031661299e565b34801561090557600080fd5b506104976129f7565b34801561091a57600080fd5b506102fa6004803603602081101561093157600080fd5b81019060208101813564010000000081111561094c57600080fd5b82018360208201111561095e57600080fd5b8035906020019184602083028401116401000000008311171561098057600080fd5b5090925090506129fd565b34801561099757600080fd5b506102fa600480360360c08110156109ae57600080fd5b6001600160a01b03823581169260208101359091169160408201359160608101359181019060a0810160808201356401000000008111156109ee57600080fd5b820183602082011115610a0057600080fd5b80359060200191846001830284011164010000000083111715610a2257600080fd5b919350915035612aca565b348015610a3957600080fd5b506102fa60048036036040811015610a5057600080fd5b506001600160a01b0381358116916020013516612e23565b348015610a7457600080fd5b50610497612fb1565b348015610a8957600080fd5b50610497612fd5565b348015610a9e57600080fd5b506102fa60048036036080811015610ab557600080fd5b506001600160a01b0381358116916020810135916040820135169060600135612ff9565b60026065541415610b31576040805162461bcd60e51b815260206004820152601f60248201527f5265656e7472616e637947756172643a207265656e7472616e742063616c6c00604482015290519081900360640190fd5b6002606555610b3e6122a4565b15610b90576040805162461bcd60e51b815260206004820152601060248201527f5061757361626c653a2070617573656400000000000000000000000000000000604482015290519081900360640190fd5b604080517fdd62ed3e00000000000000000000000000000000000000000000000000000000815233600482015230602482015290516000916001600160a01b0386169163dd62ed3e91604480820192602092909190829003018186803b158015610bf957600080fd5b505afa158015610c0d573d6000803e3d6000fd5b505050506040513d6020811015610c2357600080fd5b5051604080517f70a0823100000000000000000000000000000000000000000000000000000000815233600482015290519192506000916001600160a01b038716916370a08231916024808301926020929190829003018186803b158015610c8a57600080fd5b505afa158015610c9e573d6000803e3d6000fd5b505050506040513d6020811015610cb457600080fd5b505190506000818311610cc75782610cc9565b815b9050876001600160a01b03167fcdee21a6c8590263cf09684240226aed3d9428ce742af50bc35a55162ad53824888884898960405180868152602001856001600160a01b03168152602001848152602001806020018281038252848482818152602001925080828437600083820152604051601f9091017fffffffffffffffffffffffffffffffffffffffffffffffffffffffffffffffe0169092018290039850909650505050505050a2604080517f79cc67900000000000000000000000000000000000000000000000000000000081523360048201526024810183905290516001600160a01b038816916379cc679091604480830192600092919082900301818387803b158015610ddb57600080fd5b505af1158015610def573d6000803e3d6000fd5b5050600160655550505050505050505050565b60cc546001600160a01b031681565b60026065541415610e69576040805162461bcd60e51b815260206004820152601f60248201527f5265656e7472616e637947756172643a207265656e7472616e742063616c6c00604482015290519081900360640190fd5b6002606555610e766122a4565b15610ec8576040805162461bcd60e51b815260206004820152601060248201527f5061757361626c653a2070617573656400000000000000000000000000000000604482015290519081900360640190fd5b610ef27fb5c00e6706c3d213edd70ff33717fac657eacc5fe161f07180cf1fcab13cc4cd33612568565b610f43576040805162461bcd60e51b815260206004820152601a60248201527f43616c6c6572206973206e6f742061206e6f64652067726f7570000000000000604482015290519081900360640190fd5b818311610f97576040805162461bcd60e51b815260206004820152601f60248201527f416d6f756e74206d7573742062652067726561746572207468616e2066656500604482015290519081900360640190fd5b600081815260ce602052604090205460ff1615610ffb576040805162461bcd60e51b815260206004820152601860248201527f4b6170706120697320616c72656164792070726573656e740000000000000000604482015290519081900360640190fd5b600081815260ce60209081526040808320805460ff191660011790556001600160a01b038716835260c99091529020546110359083613187565b6001600160a01b03808616600081815260c9602052604090209290925560cc541614801561106d575060cc546001600160a01b031615155b156111df5760cc546001600160a01b0316632e1a7d4d61108d85856131e1565b6040518263ffffffff1660e01b815260040180828152602001915050600060405180830381600087803b1580156110c357600080fd5b505af11580156110d7573d6000803e3d6000fd5b506000925050506001600160a01b0386166110f285856131e1565b604051600081818185875af1925050503d806000811461112e576040519150601f19603f3d011682016040523d82523d6000602084013e611133565b606091505b5050905080611189576040805162461bcd60e51b815260206004820152601360248201527f4554485f5452414e534645525f4641494c454400000000000000000000000000604482015290519081900360640190fd5b604080516001600160a01b03878116825260208201879052818301869052915184928916917f8b0afdc777af6946e53045a4a75212769075d30455a212ac51c9b16f9c5c9b26919081900360600190a35061124e565b604080516001600160a01b03868116825260208201869052818301859052915183928816917f8b0afdc777af6946e53045a4a75212769075d30455a212ac51c9b16f9c5c9b26919081900360600190a361124e8561123d85856131e1565b6001600160a01b038716919061323e565b50506001606555505050565b600260655414156112b2576040805162461bcd60e51b815260206004820152601f60248201527f5265656e7472616e637947756172643a207265656e7472616e742063616c6c00604482015290519081900360640190fd5b60026065556112bf6122a4565b15611311576040805162461bcd60e51b815260206004820152601060248201527f5061757361626c653a2070617573656400000000000000000000000000000000604482015290519081900360640190fd5b61133b7fb5c00e6706c3d213edd70ff33717fac657eacc5fe161f07180cf1fcab13cc4cd33612568565b61138c576040805162461bcd60e51b815260206004820152601a60248201527f43616c6c6572206973206e6f742061206e6f64652067726f7570000000000000604482015290519081900360640190fd5b8183116113e0576040805162461bcd60e51b815260206004820152601f60248201527f416d6f756e74206d7573742062652067726561746572207468616e2066656500604482015290519081900360640190fd5b600081815260ce602052604090205460ff1615611444576040805162461bcd60e51b815260206004820152601860248201527f4b6170706120697320616c72656164792070726573656e740000000000000000604482015290519081900360640190fd5b600081815260ce60209081526040808320805460ff191660011790556001600160a01b038716835260c990915290205461147e9083613187565b6001600160a01b03808616600090815260c96020526040902091909155819086167fbf14b9fde87f6e1c29a7e0787ad1d0d64b4648d8ae63da21524d9fd0f283dd38866114cb87876131e1565b604080516001600160a01b0390931683526020830191909152818101879052519081900360600190a3604080517f40c10f190000000000000000000000000000000000000000000000000000000081523060048201526024810185905290516001600160a01b038616916340c10f1991604480830192600092919082900301818387803b15801561155b57600080fd5b505af115801561156f573d6000803e3d6000fd5b5050505061158a8561123d84866131e190919063ffffffff16565b60cb541580159061159c575060cb5447115b1561124e5760cb546040516001600160a01b0387169190600081818185875af1925050503d80600081146115ec576040519150601f19603f3d011682016040523d82523d6000602084013e6115f1565b606091505b50505050506001606555505050565b60026065541415611658576040805162461bcd60e51b815260206004820152601f60248201527f5265656e7472616e637947756172643a207265656e7472616e742063616c6c00604482015290519081900360640190fd5b60026065556116656122a4565b156116b7576040805162461bcd60e51b815260206004820152601060248201527f5061757361626c653a2070617573656400000000000000000000000000000000604482015290519081900360640190fd5b6116e17fb5c00e6706c3d213edd70ff33717fac657eacc5fe161f07180cf1fcab13cc4cd33612568565b611732576040805162461bcd60e51b815260206004820152601a60248201527f43616c6c6572206973206e6f742061206e6f64652067726f7570000000000000604482015290519081900360640190fd5b838511611786576040805162461bcd60e51b815260206004820152601f60248201527f416d6f756e74206d7573742062652067726561746572207468616e2066656500604482015290519081900360640190fd5b600081815260ce602052604090205460ff16156117ea576040805162461bcd60e51b815260206004820152601860248201527f4b6170706120697320616c72656164792070726573656e740000000000000000604482015290519081900360640190fd5b600081815260ce60209081526040808320805460ff191660011790556001600160a01b038916835260c99091529020546118249085613187565b6001600160a01b038716600090815260c9602052604090205560cb541580159061184f575060cb5447115b156118a85760cb546040516001600160a01b0389169190600081818185875af1925050503d806000811461189f576040519150601f19603f3d011682016040523d82523d6000602084013e6118a4565b606091505b5050505b604080517f40c10f190000000000000000000000000000000000000000000000000000000081523060048201526024810187905290516001600160a01b038816916340c10f1991604480830192600092919082900301818387803b15801561190f57600080fd5b505af1158015611923573d6000803e3d6000fd5b505060cd5461194192506001600160a01b03898116925016876132be565b60cd546040516000916060916001600160a01b039091169086908690808383808284376040519201945060009350909150508083038183865af19150503d80600081146119aa576040519150601f19603f3d011682016040523d82523d6000602084013e6119af565b606091505b50915091508115611a7d57826001600160a01b038a167fc81ecce8f4a126cbaadfb2cb94433e73bb4a04ba791b496361e38bbd4b83c8068a6119f18b8b6131e1565b8a8a8a600160405180876001600160a01b031681526020018681526020018581526020018060200183151581526020018281038252858582818152602001925080828437600083820152604051601f9091017fffffffffffffffffffffffffffffffffffffffffffffffffffffffffffffffe016909201829003995090975050505050505050a3611b5b565b611a9c89611a8b89896131e1565b6001600160a01b038b16919061323e565b826001600160a01b038a167fc81ecce8f4a126cbaadfb2cb94433e73bb4a04ba791b496361e38bbd4b83c8068a611ad38b8b6131e1565b8a8a8a600060405180876001600160a01b031681526020018681526020018581526020018060200183151581526020018281038252858582818152602001925080828437600083820152604051601f9091017fffffffffffffffffffffffffffffffffffffffffffffffffffffffffffffffe016909201829003995090975050505050505050a35b5050600160655550505050505050565b60009081526033602052604090206002015490565b600082815260336020526040902060020154611ba390611b9e6133dd565b612568565b611bde5760405162461bcd60e51b815260040180806020018281038252602f815260200180613d2e602f913960400191505060405180910390fd5b611be882826133e1565b5050565b600090815260ce602052604090205460ff1690565b60cd546001600160a01b031681565b611c186133dd565b6001600160a01b0316816001600160a01b031614611c675760405162461bcd60e51b815260040180806020018281038252602f815260200180613e0b602f913960400191505060405180910390fd5b611be8828261344a565b611c9b7f71840dc4906352362b0cdaf79870196c8e42acafade72d5d5a6d59291253ceb133612568565b611cec576040805162461bcd60e51b815260206004820152600e60248201527f4e6f7420676f7665726e616e6365000000000000000000000000000000000000604482015290519081900360640190fd5b611cf46134b3565b565b60026065541415611d4e576040805162461bcd60e51b815260206004820152601f60248201527f5265656e7472616e637947756172643a207265656e7472616e742063616c6c00604482015290519081900360640190fd5b6002606555611d5b6122a4565b15611dad576040805162461bcd60e51b815260206004820152601060248201527f5061757361626c653a2070617573656400000000000000000000000000000000604482015290519081900360640190fd5b604080517fdd62ed3e00000000000000000000000000000000000000000000000000000000815233600482015230602482015290516000916001600160a01b0386169163dd62ed3e91604480820192602092909190829003018186803b158015611e1657600080fd5b505afa158015611e2a573d6000803e3d6000fd5b505050506040513d6020811015611e4057600080fd5b5051604080517f70a0823100000000000000000000000000000000000000000000000000000000815233600482015290519192506000916001600160a01b038716916370a08231916024808301926020929190829003018186803b158015611ea757600080fd5b505afa158015611ebb573d6000803e3d6000fd5b505050506040513d6020811015611ed157600080fd5b505190506000818311611ee45782611ee6565b815b9050876001600160a01b03167f34d1917df5e776633de68767355106ad1608c4826b41f9c54fb951bcf20c6c6f888884898960405180868152602001856001600160a01b03168152602001848152602001806020018281038252848482818152602001925080828437600083820152604051601f9091017fffffffffffffffffffffffffffffffffffffffffffffffffffffffffffffffe0169092018290039850909650505050505050a26115f16001600160a01b03871633308461355c565b611fb1600033612568565b612002576040805162461bcd60e51b815260206004820152600960248201527f4e6f742061646d696e0000000000000000000000000000000000000000000000604482015290519081900360640190fd5b60cd80547fffffffffffffffffffffffff0000000000000000000000000000000000000000166001600160a01b0392909216919091179055565b60ca5481565b6002606554141561209a576040805162461bcd60e51b815260206004820152601f60248201527f5265656e7472616e637947756172643a207265656e7472616e742063616c6c00604482015290519081900360640190fd5b60026065556120a76122a4565b156120f9576040805162461bcd60e51b815260206004820152601060248201527f5061757361626c653a2070617573656400000000000000000000000000000000604482015290519081900360640190fd5b604080517fdd62ed3e00000000000000000000000000000000000000000000000000000000815233600482015230602482015290516000916001600160a01b0384169163dd62ed3e91604480820192602092909190829003018186803b15801561216257600080fd5b505afa158015612176573d6000803e3d6000fd5b505050506040513d602081101561218c57600080fd5b5051604080517f70a0823100000000000000000000000000000000000000000000000000000000815233600482015290519192506000916001600160a01b038516916370a08231916024808301926020929190829003018186803b1580156121f357600080fd5b505afa158015612207573d6000803e3d6000fd5b505050506040513d602081101561221d57600080fd5b5051905060008183116122305782612232565b815b604080518781526001600160a01b0387811660208301528183018490529151929350908816917fda5273705dbef4bf1b902a131c2eac086b7e1476a8ab0cb4da08af1fe1bd8e3b9181900360600190a26122976001600160a01b03851633308461355c565b5050600160655550505050565b60975460ff1690565b600054610100900460ff16806122c657506122c66135e4565b806122d4575060005460ff16155b61230f5760405162461bcd60e51b815260040180806020018281038252602e815260200180613db3602e913960400191505060405180910390fd5b600054610100900460ff16158015612357576000805460ff197fffffffffffffffffffffffffffffffffffffffffffffffffffffffffffff00ff909116610100171660011790555b4360ca55612366600033611bde565b61236e6135f5565b801561239d57600080547fffffffffffffffffffffffffffffffffffffffffffffffffffffffffffff00ff1690555b50565b6123ca7f71840dc4906352362b0cdaf79870196c8e42acafade72d5d5a6d59291253ceb133612568565b61241b576040805162461bcd60e51b815260206004820152600e60248201527f4e6f7420676f7665726e616e6365000000000000000000000000000000000000604482015290519081900360640190fd5b611cf46136af565b600082815260336020526040812061243b908361373f565b90505b92915050565b6002606554141561249c576040805162461bcd60e51b815260206004820152601f60248201527f5265656e7472616e637947756172643a207265656e7472616e742063616c6c00604482015290519081900360640190fd5b60026065556124a96122a4565b156124fb576040805162461bcd60e51b815260206004820152601060248201527f5061757361626c653a2070617573656400000000000000000000000000000000604482015290519081900360640190fd5b604080518481526001600160a01b0384811660208301528183018490529151918616917fda5273705dbef4bf1b902a131c2eac086b7e1476a8ab0cb4da08af1fe1bd8e3b9181900360600190a261255d6001600160a01b03831633308461355c565b505060016065555050565b600082815260336020526040812061243b908361374b565b600081565b612590600033612568565b6125e1576040805162461bcd60e51b815260206004820152600960248201527f4e6f742061646d696e0000000000000000000000000000000000000000000000604482015290519081900360640190fd5b60cc80547fffffffffffffffffffffffff0000000000000000000000000000000000000000166001600160a01b0392909216919091179055565b600681565b61264a7f71840dc4906352362b0cdaf79870196c8e42acafade72d5d5a6d59291253ceb133612568565b61269b576040805162461bcd60e51b815260206004820152600e60248201527f4e6f7420676f7665726e616e6365000000000000000000000000000000000000604482015290519081900360640190fd5b60cb55565b600260655414156126f8576040805162461bcd60e51b815260206004820152601f60248201527f5265656e7472616e637947756172643a207265656e7472616e742063616c6c00604482015290519081900360640190fd5b60026065556127056122a4565b15612757576040805162461bcd60e51b815260206004820152601060248201527f5061757361626c653a2070617573656400000000000000000000000000000000604482015290519081900360640190fd5b604080517fdd62ed3e00000000000000000000000000000000000000000000000000000000815233600482015230602482015290516000916001600160a01b0384169163dd62ed3e91604480820192602092909190829003018186803b1580156127c057600080fd5b505afa1580156127d4573d6000803e3d6000fd5b505050506040513d60208110156127ea57600080fd5b5051604080517f70a0823100000000000000000000000000000000000000000000000000000000815233600482015290519192506000916001600160a01b038516916370a08231916024808301926020929190829003018186803b15801561285157600080fd5b505afa158015612865573d6000803e3d6000fd5b505050506040513d602081101561287b57600080fd5b50519050600081831161288e5782612890565b815b604080518781526001600160a01b0387811660208301528183018490529151929350908816917fdc5bad4651c5fbe9977a696aadc65996c468cde1448dd468ec0d83bf61c4b57c9181900360600190a2604080517f79cc67900000000000000000000000000000000000000000000000000000000081523360048201526024810183905290516001600160a01b038616916379cc679091604480830192600092919082900301818387803b15801561294757600080fd5b505af115801561295b573d6000803e3d6000fd5b505060016065555050505050505050565b6001600160a01b0316600090815260c9602052604090205490565b600081815260336020526040812061243e90613760565b6000828152603360205260409020600201546129bc90611b9e6133dd565b611c675760405162461bcd60e51b8152600401808060200182810382526030815260200180613d836030913960400191505060405180910390fd5b60cb5481565b612a277f71840dc4906352362b0cdaf79870196c8e42acafade72d5d5a6d59291253ceb133612568565b612a78576040805162461bcd60e51b815260206004820152600e60248201527f4e6f7420676f7665726e616e6365000000000000000000000000000000000000604482015290519081900360640190fd5b60005b81811015612ac557600160ce6000858585818110612a9557fe5b60209081029290920135835250810191909152604001600020805460ff1916911515919091179055600101612a7b565b505050565b60026065541415612b22576040805162461bcd60e51b815260206004820152601f60248201527f5265656e7472616e637947756172643a207265656e7472616e742063616c6c00604482015290519081900360640190fd5b6002606555612b2f6122a4565b15612b81576040805162461bcd60e51b815260206004820152601060248201527f5061757361626c653a2070617573656400000000000000000000000000000000604482015290519081900360640190fd5b612bab7fb5c00e6706c3d213edd70ff33717fac657eacc5fe161f07180cf1fcab13cc4cd33612568565b612bfc576040805162461bcd60e51b815260206004820152601a60248201527f43616c6c6572206973206e6f742061206e6f64652067726f7570000000000000604482015290519081900360640190fd5b838511612c50576040805162461bcd60e51b815260206004820152601f60248201527f416d6f756e74206d7573742062652067726561746572207468616e2066656500604482015290519081900360640190fd5b600081815260ce602052604090205460ff1615612cb4576040805162461bcd60e51b815260206004820152601860248201527f4b6170706120697320616c72656164792070726573656e740000000000000000604482015290519081900360640190fd5b600081815260ce60209081526040808320805460ff191660011790556001600160a01b038916835260c9909152902054612cee9085613187565b6001600160a01b03808816600090815260c9602052604090209190915560cd54612d2e9116612d1d87876131e1565b6001600160a01b03891691906132be565b60cd546040516000916060916001600160a01b039091169086908690808383808284376040519201945060009350909150508083038183865af19150503d8060008114612d97576040519150601f19603f3d011682016040523d82523d6000602084013e612d9c565b606091505b50915091508115612dde57826001600160a01b038a167f741b854853ef149b348d026b6ed7bbed5e76bac23a76dce85154e323f97ac2858a6119f18b8b6131e1565b612dec89611a8b89896131e1565b826001600160a01b038a167f741b854853ef149b348d026b6ed7bbed5e76bac23a76dce85154e323f97ac2858a611ad38b8b6131e1565b612e2b6122a4565b15612e7d576040805162461bcd60e51b815260206004820152601060248201527f5061757361626c653a2070617573656400000000000000000000000000000000604482015290519081900360640190fd5b612ea77f71840dc4906352362b0cdaf79870196c8e42acafade72d5d5a6d59291253ceb133612568565b612ef8576040805162461bcd60e51b815260206004820152600e60248201527f4e6f7420676f7665726e616e6365000000000000000000000000000000000000604482015290519081900360640190fd5b6001600160a01b038116612f53576040805162461bcd60e51b815260206004820152601060248201527f4164647265737320697320307830303000000000000000000000000000000000604482015290519081900360640190fd5b6001600160a01b038216600090815260c9602052604090205415611be8576001600160a01b038216600081815260c96020526040902054612f969190839061323e565b506001600160a01b0316600090815260c96020526040812055565b7f71840dc4906352362b0cdaf79870196c8e42acafade72d5d5a6d59291253ceb181565b7fb5c00e6706c3d213edd70ff33717fac657eacc5fe161f07180cf1fcab13cc4cd81565b60026065541415613051576040805162461bcd60e51b815260206004820152601f60248201527f5265656e7472616e637947756172643a207265656e7472616e742063616c6c00604482015290519081900360640190fd5b600260655561305e6122a4565b156130b0576040805162461bcd60e51b815260206004820152601060248201527f5061757361626c653a2070617573656400000000000000000000000000000000604482015290519081900360640190fd5b604080518481526001600160a01b0384811660208301528183018490529151918616917fdc5bad4651c5fbe9977a696aadc65996c468cde1448dd468ec0d83bf61c4b57c9181900360600190a2604080517f79cc67900000000000000000000000000000000000000000000000000000000081523360048201526024810183905290516001600160a01b038416916379cc679091604480830192600092919082900301818387803b15801561316457600080fd5b505af1158015613178573d6000803e3d6000fd5b50506001606555505050505050565b60008282018381101561243b576040805162461bcd60e51b815260206004820152601b60248201527f536166654d6174683a206164646974696f6e206f766572666c6f770000000000604482015290519081900360640190fd5b600082821115613238576040805162461bcd60e51b815260206004820152601e60248201527f536166654d6174683a207375627472616374696f6e206f766572666c6f770000604482015290519081900360640190fd5b50900390565b604080516001600160a01b038416602482015260448082018490528251808303909101815260649091019091526020810180517bffffffffffffffffffffffffffffffffffffffffffffffffffffffff167fa9059cbb00000000000000000000000000000000000000000000000000000000179052612ac590849061376b565b600061335482856001600160a01b031663dd62ed3e30876040518363ffffffff1660e01b815260040180836001600160a01b03168152602001826001600160a01b031681526020019250505060206040518083038186803b15801561332257600080fd5b505afa158015613336573d6000803e3d6000fd5b505050506040513d602081101561334c57600080fd5b505190613187565b604080516001600160a01b038616602482015260448082018490528251808303909101815260649091019091526020810180517bffffffffffffffffffffffffffffffffffffffffffffffffffffffff167f095ea7b3000000000000000000000000000000000000000000000000000000001790529091506133d790859061376b565b50505050565b3390565b60008281526033602052604090206133f9908261381c565b15611be8576134066133dd565b6001600160a01b0316816001600160a01b0316837f2f8788117e7eff1d82e926ec794901d17c78024a50270940304540a733656f0d60405160405180910390a45050565b60008281526033602052604090206134629082613831565b15611be85761346f6133dd565b6001600160a01b0316816001600160a01b0316837ff6391f5c32d9c69d2a47ea670b442974b53935d1edc7fd64eb21e047a839171b60405160405180910390a45050565b6134bb6122a4565b61350c576040805162461bcd60e51b815260206004820152601460248201527f5061757361626c653a206e6f7420706175736564000000000000000000000000604482015290519081900360640190fd5b6097805460ff191690557f5db9ee0a495bf2e6ff9c91a7834c1ba4fdd244a5e8aa4e537bd38aeae4b073aa61353f6133dd565b604080516001600160a01b039092168252519081900360200190a1565b604080516001600160a01b0380861660248301528416604482015260648082018490528251808303909101815260849091019091526020810180517bffffffffffffffffffffffffffffffffffffffffffffffffffffffff167f23b872dd000000000000000000000000000000000000000000000000000000001790526133d790859061376b565b60006135ef30613846565b15905090565b600054610100900460ff168061360e575061360e6135e4565b8061361c575060005460ff16155b6136575760405162461bcd60e51b815260040180806020018281038252602e815260200180613db3602e913960400191505060405180910390fd5b600054610100900460ff1615801561369f576000805460ff197fffffffffffffffffffffffffffffffffffffffffffffffffffffffffffff00ff909116610100171660011790555b6136a761384c565b61236e61384c565b6136b76122a4565b15613709576040805162461bcd60e51b815260206004820152601060248201527f5061757361626c653a2070617573656400000000000000000000000000000000604482015290519081900360640190fd5b6097805460ff191660011790557f62e78cea01bee320cd4e420270b5ea74000d11b0c9f74754ebdbfc544b05a25861353f6133dd565b600061243b8383613926565b600061243b836001600160a01b03841661398a565b600061243e826139a2565b60606137c0826040518060400160405280602081526020017f5361666545524332303a206c6f772d6c6576656c2063616c6c206661696c6564815250856001600160a01b03166139a69092919063ffffffff16565b805190915015612ac5578080602001905160208110156137df57600080fd5b5051612ac55760405162461bcd60e51b815260040180806020018281038252602a815260200180613de1602a913960400191505060405180910390fd5b600061243b836001600160a01b0384166139bf565b600061243b836001600160a01b038416613a09565b3b151590565b600054610100900460ff168061386557506138656135e4565b80613873575060005460ff16155b6138ae5760405162461bcd60e51b815260040180806020018281038252602e815260200180613db3602e913960400191505060405180910390fd5b600054610100900460ff1615801561236e576000805460ff197fffffffffffffffffffffffffffffffffffffffffffffffffffffffffffff00ff90911661010017166001179055801561239d57600080547fffffffffffffffffffffffffffffffffffffffffffffffffffffffffffff00ff16905550565b815460009082106139685760405162461bcd60e51b8152600401808060200182810382526022815260200180613d0c6022913960400191505060405180910390fd5b82600001828154811061397757fe5b9060005260206000200154905092915050565b60009081526001919091016020526040902054151590565b5490565b60606139b58484600085613aed565b90505b9392505050565b60006139cb838361398a565b613a015750815460018181018455600084815260208082209093018490558454848252828601909352604090209190915561243e565b50600061243e565b60008181526001830160205260408120548015613ae35783547fffffffffffffffffffffffffffffffffffffffffffffffffffffffffffffffff8083019190810190600090879083908110613a5a57fe5b9060005260206000200154905080876000018481548110613a7757fe5b600091825260208083209091019290925582815260018981019092526040902090840190558654879080613aa757fe5b6001900381819060005260206000200160009055905586600101600087815260200190815260200160002060009055600194505050505061243e565b600091505061243e565b606082471015613b2e5760405162461bcd60e51b8152600401808060200182810382526026815260200180613d5d6026913960400191505060405180910390fd5b613b3785613846565b613b88576040805162461bcd60e51b815260206004820152601d60248201527f416464726573733a2063616c6c20746f206e6f6e2d636f6e7472616374000000604482015290519081900360640190fd5b60006060866001600160a01b031685876040518082805190602001908083835b60208310613be557805182527fffffffffffffffffffffffffffffffffffffffffffffffffffffffffffffffe09092019160209182019101613ba8565b6001836020036101000a03801982511681845116808217855250505050505090500191505060006040518083038185875af1925050503d8060008114613c47576040519150601f19603f3d011682016040523d82523d6000602084013e613c4c565b606091505b5091509150613c5c828286613c67565b979650505050505050565b60608315613c765750816139b8565b825115613c865782518084602001fd5b8160405162461bcd60e51b81526004018080602001828103825283818151815260200191508051906020019080838360005b83811015613cd0578181015183820152602001613cb8565b50505050905090810190601f168015613cfd5780820380516001836020036101000a031916815260200191505b509250505060405180910390fdfe456e756d657261626c655365743a20696e646578206f7574206f6620626f756e6473416363657373436f6e74726f6c3a2073656e646572206d75737420626520616e2061646d696e20746f206772616e74416464726573733a20696e73756666696369656e742062616c616e636520666f722063616c6c416363657373436f6e74726f6c3a2073656e646572206d75737420626520616e2061646d696e20746f207265766f6b65496e697469616c697a61626c653a20636f6e747261637420697320616c726561647920696e697469616c697a65645361666545524332303a204552433230206f7065726174696f6e20646964206e6f742073756363656564416363657373436f6e74726f6c3a2063616e206f6e6c792072656e6f756e636520726f6c657320666f722073656c66a26469706673582212208576d5b20b7a76d6b25620232dc4cf97045d9d00f369cde89184eb7c5b02f6e564736f6c634300060c0033",
  "devdoc": {
    "kind": "dev",
    "methods": {
      "deposit(address,uint256,address,uint256)": {
        "params": {
          "amount": "Amount in native token decimals to transfer cross-chain pre-fees*",
          "chainId": "which chain to bridge assets onto",
          "to": "address on other chain to bridge assets to",
          "token": "ERC20 compatible token to deposit into the bridge"
        }
      },
      "depositMax(address,uint256,address)": {
        "params": {
          "chainId": "which chain to bridge assets onto",
          "to": "address on other chain to bridge assets to",
          "token": "ERC20 compatible token to deposit into the bridge*"
        }
      },
      "depositMaxAndSwap(address,uint256,address,bytes)": {
        "params": {
          "chainId": "which chain to bridge assets onto",
          "routeraction": "tx data to call router with on dest chain*",
          "to": "address on other chain to bridge assets to",
          "token": "ERC20 compatible token to deposit into the bridge"
        }
      },
      "getRoleAdmin(bytes32)": {
        "details": "Returns the admin role that controls `role`. See {grantRole} and {revokeRole}. To change a role's admin, use {_setRoleAdmin}."
      },
      "getRoleMember(bytes32,uint256)": {
        "details": "Returns one of the accounts that have `role`. `index` must be a value between 0 and {getRoleMemberCount}, non-inclusive. Role bearers are not sorted in any particular way, and their ordering may change at any point. WARNING: When using {getRoleMember} and {getRoleMemberCount}, make sure you perform all queries on the same block. See the following https://forum.openzeppelin.com/t/iterating-over-elements-on-enumerableset-in-openzeppelin-contracts/2296[forum post] for more information."
      },
      "getRoleMemberCount(bytes32)": {
        "details": "Returns the number of accounts that have `role`. Can be used together with {getRoleMember} to enumerate all bearers of a role."
      },
      "grantRole(bytes32,address)": {
        "details": "Grants `role` to `account`. If `account` had not been already granted `role`, emits a {RoleGranted} event. Requirements: - the caller must have ``role``'s admin role."
      },
      "hasRole(bytes32,address)": {
        "details": "Returns `true` if `account` has been granted `role`."
      },
      "mint(address,address,uint256,uint256,bytes32)": {
        "details": "This means the SynapseBridge.sol contract must have minter access to the token attempting to be minted",
        "params": {
          "amount": "Amount in native token decimals to transfer cross-chain post-fees",
          "fee": "Amount in native token decimals to save to the contract as fees",
          "kappa": "kappa*",
          "to": "address on other chain to redeem underlying assets to",
          "token": "ERC20 compatible token to deposit into the bridge"
        }
      },
      "mintAndSwap(address,address,uint256,uint256,bytes,bytes32)": {
        "details": "This means the BridgeDeposit.sol contract must have minter access to the token attempting to be minted",
        "params": {
          "amount": "Amount in native token decimals to transfer cross-chain post-fees",
          "fee": "Amount in native token decimals to save to the contract as fees",
          "kappa": "kappa*",
          "routeraction": "calldata from origin transaction to call router with",
          "to": "address on other chain to redeem underlying assets to",
          "token": "ERC20 compatible token to deposit into the bridge"
        }
      },
      "paused()": {
        "details": "Returns true if the contract is paused, and false otherwise."
      },
      "redeem(address,uint256,address,uint256)": {
        "params": {
          "amount": "Amount in native token decimals to transfer cross-chain pre-fees*",
          "chainId": "which underlying chain to bridge assets onto",
          "to": "address on other chain to redeem underlying assets to",
          "token": "ERC20 compatible token to deposit into the bridge"
        }
      },
      "redeemMax(address,uint256,address)": {
        "params": {
          "chainId": "which underlying chain to bridge assets onto",
          "to": "address on other chain to redeem underlying assets to",
          "token": "ERC20 compatible token to deposit into the bridge*"
        }
      },
      "redeemMaxAndSwap(address,uint256,address,bytes)": {
        "params": {
          "chainId": "which underlying chain to bridge assets onto",
          "to": "address on other chain to redeem underlying assets to",
          "token": "ERC20 compatible token to deposit into the bridge*"
        }
      },
      "renounceRole(bytes32,address)": {
        "details": "Revokes `role` from the calling account. Roles are often managed via {grantRole} and {revokeRole}: this function's purpose is to provide a mechanism for accounts to lose their privileges if they are compromised (such as when a trusted device is misplaced). If the calling account had been granted `role`, emits a {RoleRevoked} event. Requirements: - the caller must be `account`."
      },
      "revokeRole(bytes32,address)": {
        "details": "Revokes `role` from `account`. If `account` had been granted `role`, emits a {RoleRevoked} event. Requirements: - the caller must have ``role``'s admin role."
      },
      "withdraw(address,address,uint256,uint256,bytes32)": {
        "params": {
          "amount": "Amount in native token decimals to withdraw",
          "fee": "Amount in native token decimals to save to the contract as fees",
          "kappa": "kappa*",
          "to": "address on chain to send underlying assets to",
          "token": "ERC20 compatible token to withdraw from the bridge"
        }
      },
      "withdrawAndSwap(address,address,uint256,uint256,bytes,bytes32)": {
        "params": {
          "amount": "Amount in native token decimals to withdraw",
          "fee": "Amount in native token decimals to save to the contract as fees",
          "kappa": "kappa*",
          "routeraction": "calldata",
          "to": "address on chain to send underlying assets to",
          "token": "ERC20 compatible token to withdraw from the bridge"
        }
      },
      "withdrawFees(address,address)": {
        "params": {
          "to": "Address to send the fees to",
          "token": "ERC20 token in which fees acccumulated to transfer"
        }
      }
    },
    "version": 1
  },
  "userdoc": {
    "kind": "user",
    "methods": {
      "deposit(address,uint256,address,uint256)": {
        "notice": "Relays to nodes to transfers an ERC20 token cross-chain"
      },
      "depositMax(address,uint256,address)": {
        "notice": "Relays to nodes to transfers an ERC20 token cross-chain"
      },
      "depositMaxAndSwap(address,uint256,address,bytes)": {
        "notice": "Relays to nodes to both transfer an ERC20 token cross-chain, and then have the nodes execute a swap through a liquidity pool on behalf of the user."
      },
      "mint(address,address,uint256,uint256,bytes32)": {
        "notice": "Nodes call this function to mint a SynERC20 (or any asset that the bridge is given minter access to). This is called by the nodes after a TokenDeposit event is emitted."
      },
      "mintAndSwap(address,address,uint256,uint256,bytes,bytes32)": {
        "notice": "Nodes call this function to mint a SynERC20 (or any asset that the bridge is given minter access to), and then attempt to swap the SynERC20 into the desired destination asset. This is called by the nodes after a TokenDepositAndSwap event is emitted."
      },
      "redeem(address,uint256,address,uint256)": {
        "notice": "Relays to nodes that (typically) a wrapped synAsset ERC20 token has been burned and the underlying needs to be redeeemed on the native chain"
      },
      "redeemMax(address,uint256,address)": {
        "notice": "Relays to nodes that (typically) a wrapped synAsset ERC20 token has been burned and the underlying needs to be redeeemed on the native chain"
      },
      "redeemMaxAndSwap(address,uint256,address,bytes)": {
        "notice": "Relays to nodes that (typically) a wrapped synAsset ERC20 token has been burned and the underlying needs to be redeeemed on the native chain"
      },
      "withdraw(address,address,uint256,uint256,bytes32)": {
        "notice": "Function to be called by the node group to withdraw the underlying assets from the contract"
      },
      "withdrawAndSwap(address,address,uint256,uint256,bytes,bytes32)": {
        "notice": "Function to be called by the node group to withdraw the underlying assets from the contract"
      },
      "withdrawFees(address,address)": {
        "notice": "withdraw specified ERC20 token fees to a given address"
      }
    },
    "version": 1
  },
  "storageLayout": {
    "storage": [
      {
        "astId": 1286,
        "contract": "contracts/bridge/SynapseBridge.sol:SynapseBridge",
        "label": "_initialized",
        "offset": 0,
        "slot": "0",
        "type": "t_bool"
      },
      {
        "astId": 1289,
        "contract": "contracts/bridge/SynapseBridge.sol:SynapseBridge",
        "label": "_initializing",
        "offset": 1,
        "slot": "0",
        "type": "t_bool"
      },
      {
        "astId": 2325,
        "contract": "contracts/bridge/SynapseBridge.sol:SynapseBridge",
        "label": "__gap",
        "offset": 0,
        "slot": "1",
        "type": "t_array(t_uint256)50_storage"
      },
      {
        "astId": 43,
        "contract": "contracts/bridge/SynapseBridge.sol:SynapseBridge",
        "label": "_roles",
        "offset": 0,
        "slot": "51",
        "type": "t_mapping(t_bytes32,t_struct(RoleData)39_storage)"
      },
      {
        "astId": 306,
        "contract": "contracts/bridge/SynapseBridge.sol:SynapseBridge",
        "label": "__gap",
        "offset": 0,
        "slot": "52",
        "type": "t_array(t_uint256)49_storage"
      },
      {
        "astId": 2995,
        "contract": "contracts/bridge/SynapseBridge.sol:SynapseBridge",
        "label": "_status",
        "offset": 0,
        "slot": "101",
        "type": "t_uint256"
      },
      {
        "astId": 3038,
        "contract": "contracts/bridge/SynapseBridge.sol:SynapseBridge",
        "label": "__gap",
        "offset": 0,
        "slot": "102",
        "type": "t_array(t_uint256)49_storage"
      },
      {
        "astId": 2889,
        "contract": "contracts/bridge/SynapseBridge.sol:SynapseBridge",
        "label": "_paused",
        "offset": 0,
        "slot": "151",
        "type": "t_bool"
      },
      {
        "astId": 2980,
        "contract": "contracts/bridge/SynapseBridge.sol:SynapseBridge",
        "label": "__gap",
        "offset": 0,
        "slot": "152",
        "type": "t_array(t_uint256)49_storage"
      },
      {
        "astId": 23796,
        "contract": "contracts/bridge/SynapseBridge.sol:SynapseBridge",
        "label": "fees",
        "offset": 0,
        "slot": "201",
        "type": "t_mapping(t_address,t_uint256)"
      },
      {
        "astId": 23798,
        "contract": "contracts/bridge/SynapseBridge.sol:SynapseBridge",
        "label": "startBlockNumber",
        "offset": 0,
        "slot": "202",
        "type": "t_uint256"
      },
      {
        "astId": 23803,
        "contract": "contracts/bridge/SynapseBridge.sol:SynapseBridge",
        "label": "chainGasAmount",
        "offset": 0,
        "slot": "203",
        "type": "t_uint256"
      },
      {
        "astId": 23805,
        "contract": "contracts/bridge/SynapseBridge.sol:SynapseBridge",
        "label": "WETH_ADDRESS",
        "offset": 0,
        "slot": "204",
        "type": "t_address_payable"
      },
      {
        "astId": 23807,
        "contract": "contracts/bridge/SynapseBridge.sol:SynapseBridge",
        "label": "ROUTER",
        "offset": 0,
        "slot": "205",
        "type": "t_address"
      },
      {
        "astId": 23811,
        "contract": "contracts/bridge/SynapseBridge.sol:SynapseBridge",
        "label": "kappaMap",
        "offset": 0,
        "slot": "206",
        "type": "t_mapping(t_bytes32,t_bool)"
      }
    ],
    "types": {
      "t_address": {
        "encoding": "inplace",
        "label": "address",
        "numberOfBytes": "20"
      },
      "t_address_payable": {
        "encoding": "inplace",
        "label": "address payable",
        "numberOfBytes": "20"
      },
      "t_array(t_bytes32)dyn_storage": {
        "base": "t_bytes32",
        "encoding": "dynamic_array",
        "label": "bytes32[]",
        "numberOfBytes": "32"
      },
      "t_array(t_uint256)49_storage": {
        "base": "t_uint256",
        "encoding": "inplace",
        "label": "uint256[49]",
        "numberOfBytes": "1568"
      },
      "t_array(t_uint256)50_storage": {
        "base": "t_uint256",
        "encoding": "inplace",
        "label": "uint256[50]",
        "numberOfBytes": "1600"
      },
      "t_bool": {
        "encoding": "inplace",
        "label": "bool",
        "numberOfBytes": "1"
      },
      "t_bytes32": {
        "encoding": "inplace",
        "label": "bytes32",
        "numberOfBytes": "32"
      },
      "t_mapping(t_address,t_uint256)": {
        "encoding": "mapping",
        "key": "t_address",
        "label": "mapping(address => uint256)",
        "numberOfBytes": "32",
        "value": "t_uint256"
      },
      "t_mapping(t_bytes32,t_bool)": {
        "encoding": "mapping",
        "key": "t_bytes32",
        "label": "mapping(bytes32 => bool)",
        "numberOfBytes": "32",
        "value": "t_bool"
      },
      "t_mapping(t_bytes32,t_struct(RoleData)39_storage)": {
        "encoding": "mapping",
        "key": "t_bytes32",
        "label": "mapping(bytes32 => struct AccessControlUpgradeable.RoleData)",
        "numberOfBytes": "32",
        "value": "t_struct(RoleData)39_storage"
      },
      "t_mapping(t_bytes32,t_uint256)": {
        "encoding": "mapping",
        "key": "t_bytes32",
        "label": "mapping(bytes32 => uint256)",
        "numberOfBytes": "32",
        "value": "t_uint256"
      },
      "t_struct(AddressSet)2652_storage": {
        "encoding": "inplace",
        "label": "struct EnumerableSetUpgradeable.AddressSet",
        "members": [
          {
            "astId": 2651,
            "contract": "contracts/bridge/SynapseBridge.sol:SynapseBridge",
            "label": "_inner",
            "offset": 0,
            "slot": "0",
            "type": "t_struct(Set)2387_storage"
          }
        ],
        "numberOfBytes": "64"
      },
      "t_struct(RoleData)39_storage": {
        "encoding": "inplace",
        "label": "struct AccessControlUpgradeable.RoleData",
        "members": [
          {
            "astId": 36,
            "contract": "contracts/bridge/SynapseBridge.sol:SynapseBridge",
            "label": "members",
            "offset": 0,
            "slot": "0",
            "type": "t_struct(AddressSet)2652_storage"
          },
          {
            "astId": 38,
            "contract": "contracts/bridge/SynapseBridge.sol:SynapseBridge",
            "label": "adminRole",
            "offset": 0,
            "slot": "2",
            "type": "t_bytes32"
          }
        ],
        "numberOfBytes": "96"
      },
      "t_struct(Set)2387_storage": {
        "encoding": "inplace",
        "label": "struct EnumerableSetUpgradeable.Set",
        "members": [
          {
            "astId": 2382,
            "contract": "contracts/bridge/SynapseBridge.sol:SynapseBridge",
            "label": "_values",
            "offset": 0,
            "slot": "0",
            "type": "t_array(t_bytes32)dyn_storage"
          },
          {
            "astId": 2386,
            "contract": "contracts/bridge/SynapseBridge.sol:SynapseBridge",
            "label": "_indexes",
            "offset": 0,
            "slot": "1",
            "type": "t_mapping(t_bytes32,t_uint256)"
          }
        ],
        "numberOfBytes": "64"
      },
      "t_uint256": {
        "encoding": "inplace",
        "label": "uint256",
        "numberOfBytes": "32"
      }
    }
  }
}