{
  "address": "0xA3237d67AD570441c4f73030f2946b66Dda28Bbf",
  "abi": [
    {
      "anonymous": false,
      "inputs": [
        {
          "indexed": false,
          "internalType": "address",
          "name": "account",
          "type": "address"
        }
      ],
      "name": "Paused",
      "type": "event"
    },
    {
      "anonymous": false,
      "inputs": [
        {
          "indexed": true,
          "internalType": "bytes32",
          "name": "role",
          "type": "bytes32"
        },
        {
          "indexed": true,
          "internalType": "bytes32",
          "name": "previousAdminRole",
          "type": "bytes32"
        },
        {
          "indexed": true,
          "internalType": "bytes32",
          "name": "newAdminRole",
          "type": "bytes32"
        }
      ],
      "name": "RoleAdminChanged",
      "type": "event"
    },
    {
      "anonymous": false,
      "inputs": [
        {
          "indexed": true,
          "internalType": "bytes32",
          "name": "role",
          "type": "bytes32"
        },
        {
          "indexed": true,
          "internalType": "address",
          "name": "account",
          "type": "address"
        },
        {
          "indexed": true,
          "internalType": "address",
          "name": "sender",
          "type": "address"
        }
      ],
      "name": "RoleGranted",
      "type": "event"
    },
    {
      "anonymous": false,
      "inputs": [
        {
          "indexed": true,
          "internalType": "bytes32",
          "name": "role",
          "type": "bytes32"
        },
        {
          "indexed": true,
          "internalType": "address",
          "name": "account",
          "type": "address"
        },
        {
          "indexed": true,
          "internalType": "address",
          "name": "sender",
          "type": "address"
        }
      ],
      "name": "RoleRevoked",
      "type": "event"
    },
    {
      "anonymous": false,
      "inputs": [
        {
          "indexed": true,
          "internalType": "address",
          "name": "to",
          "type": "address"
        },
        {
          "indexed": false,
          "internalType": "uint256",
          "name": "chainId",
          "type": "uint256"
        },
        {
          "indexed": false,
          "internalType": "contract IERC20",
          "name": "token",
          "type": "address"
        },
        {
          "indexed": false,
          "internalType": "uint256",
          "name": "amount",
          "type": "uint256"
        }
      ],
      "name": "TokenDeposit",
      "type": "event"
    },
    {
      "anonymous": false,
      "inputs": [
        {
          "indexed": true,
          "internalType": "address",
          "name": "to",
          "type": "address"
        },
        {
          "indexed": false,
          "internalType": "uint256",
          "name": "chainId",
          "type": "uint256"
        },
        {
          "indexed": false,
          "internalType": "contract IERC20",
          "name": "token",
          "type": "address"
        },
        {
          "indexed": false,
          "internalType": "uint256",
          "name": "amount",
          "type": "uint256"
        },
        {
          "indexed": false,
          "internalType": "uint8",
          "name": "tokenIndexFrom",
          "type": "uint8"
        },
        {
          "indexed": false,
          "internalType": "uint8",
          "name": "tokenIndexTo",
          "type": "uint8"
        },
        {
          "indexed": false,
          "internalType": "uint256",
          "name": "minDy",
          "type": "uint256"
        },
        {
          "indexed": false,
          "internalType": "uint256",
          "name": "deadline",
          "type": "uint256"
        }
      ],
      "name": "TokenDepositAndSwap",
      "type": "event"
    },
    {
      "anonymous": false,
      "inputs": [
        {
          "indexed": true,
          "internalType": "address",
          "name": "to",
          "type": "address"
        },
        {
          "indexed": false,
          "internalType": "uint256",
          "name": "chainId",
          "type": "uint256"
        },
        {
          "indexed": false,
          "internalType": "contract IERC20",
          "name": "token",
          "type": "address"
        },
        {
          "indexed": false,
          "internalType": "uint256",
          "name": "amount",
          "type": "uint256"
        },
        {
          "components": [
            {
              "internalType": "uint256",
              "name": "amountIn",
              "type": "uint256"
            },
            {
              "internalType": "uint256",
              "name": "amountOut",
              "type": "uint256"
            },
            {
              "internalType": "address[]",
              "name": "path",
              "type": "address[]"
            },
            {
              "internalType": "address[]",
              "name": "adapters",
              "type": "address[]"
            }
          ],
          "indexed": false,
          "internalType": "struct IRouter.Trade",
          "name": "trade",
          "type": "tuple"
        }
      ],
      "name": "TokenDepositAndSwapV2",
      "type": "event"
    },
    {
      "anonymous": false,
      "inputs": [
        {
          "indexed": true,
          "internalType": "address",
          "name": "to",
          "type": "address"
        },
        {
          "indexed": false,
          "internalType": "contract IERC20Mintable",
          "name": "token",
          "type": "address"
        },
        {
          "indexed": false,
          "internalType": "uint256",
          "name": "amount",
          "type": "uint256"
        },
        {
          "indexed": false,
          "internalType": "uint256",
          "name": "fee",
          "type": "uint256"
        },
        {
          "indexed": true,
          "internalType": "bytes32",
          "name": "kappa",
          "type": "bytes32"
        }
      ],
      "name": "TokenMint",
      "type": "event"
    },
    {
      "anonymous": false,
      "inputs": [
        {
          "indexed": true,
          "internalType": "address",
          "name": "to",
          "type": "address"
        },
        {
          "indexed": false,
          "internalType": "contract IERC20Mintable",
          "name": "token",
          "type": "address"
        },
        {
          "indexed": false,
          "internalType": "uint256",
          "name": "amount",
          "type": "uint256"
        },
        {
          "indexed": false,
          "internalType": "uint256",
          "name": "fee",
          "type": "uint256"
        },
        {
          "indexed": false,
          "internalType": "uint8",
          "name": "tokenIndexFrom",
          "type": "uint8"
        },
        {
          "indexed": false,
          "internalType": "uint8",
          "name": "tokenIndexTo",
          "type": "uint8"
        },
        {
          "indexed": false,
          "internalType": "uint256",
          "name": "minDy",
          "type": "uint256"
        },
        {
          "indexed": false,
          "internalType": "uint256",
          "name": "deadline",
          "type": "uint256"
        },
        {
          "indexed": false,
          "internalType": "bool",
          "name": "swapSuccess",
          "type": "bool"
        },
        {
          "indexed": true,
          "internalType": "bytes32",
          "name": "kappa",
          "type": "bytes32"
        }
      ],
      "name": "TokenMintAndSwap",
      "type": "event"
    },
    {
      "anonymous": false,
      "inputs": [
        {
          "indexed": true,
          "internalType": "address",
          "name": "to",
          "type": "address"
        },
        {
          "indexed": false,
          "internalType": "contract IERC20Mintable",
          "name": "token",
          "type": "address"
        },
        {
          "indexed": false,
          "internalType": "uint256",
          "name": "amount",
          "type": "uint256"
        },
        {
          "indexed": false,
          "internalType": "uint256",
          "name": "fee",
          "type": "uint256"
        },
        {
          "components": [
            {
              "internalType": "uint256",
              "name": "amountIn",
              "type": "uint256"
            },
            {
              "internalType": "uint256",
              "name": "amountOut",
              "type": "uint256"
            },
            {
              "internalType": "address[]",
              "name": "path",
              "type": "address[]"
            },
            {
              "internalType": "address[]",
              "name": "adapters",
              "type": "address[]"
            }
          ],
          "indexed": false,
          "internalType": "struct IRouter.Trade",
          "name": "trade",
          "type": "tuple"
        },
        {
          "indexed": false,
          "internalType": "bool",
          "name": "swapSuccess",
          "type": "bool"
        },
        {
          "indexed": true,
          "internalType": "bytes32",
          "name": "kappa",
          "type": "bytes32"
        }
      ],
      "name": "TokenMintAndSwapV2",
      "type": "event"
    },
    {
      "anonymous": false,
      "inputs": [
        {
          "indexed": true,
          "internalType": "address",
          "name": "to",
          "type": "address"
        },
        {
          "indexed": false,
          "internalType": "uint256",
          "name": "chainId",
          "type": "uint256"
        },
        {
          "indexed": false,
          "internalType": "contract IERC20",
          "name": "token",
          "type": "address"
        },
        {
          "indexed": false,
          "internalType": "uint256",
          "name": "amount",
          "type": "uint256"
        }
      ],
      "name": "TokenRedeem",
      "type": "event"
    },
    {
      "anonymous": false,
      "inputs": [
        {
          "indexed": true,
          "internalType": "address",
          "name": "to",
          "type": "address"
        },
        {
          "indexed": false,
          "internalType": "uint256",
          "name": "chainId",
          "type": "uint256"
        },
        {
          "indexed": false,
          "internalType": "contract IERC20",
          "name": "token",
          "type": "address"
        },
        {
          "indexed": false,
          "internalType": "uint256",
          "name": "amount",
          "type": "uint256"
        },
        {
          "indexed": false,
          "internalType": "uint8",
          "name": "swapTokenIndex",
          "type": "uint8"
        },
        {
          "indexed": false,
          "internalType": "uint256",
          "name": "swapMinAmount",
          "type": "uint256"
        },
        {
          "indexed": false,
          "internalType": "uint256",
          "name": "swapDeadline",
          "type": "uint256"
        }
      ],
      "name": "TokenRedeemAndRemove",
      "type": "event"
    },
    {
      "anonymous": false,
      "inputs": [
        {
          "indexed": true,
          "internalType": "address",
          "name": "to",
          "type": "address"
        },
        {
          "indexed": false,
          "internalType": "uint256",
          "name": "chainId",
          "type": "uint256"
        },
        {
          "indexed": false,
          "internalType": "contract IERC20",
          "name": "token",
          "type": "address"
        },
        {
          "indexed": false,
          "internalType": "uint256",
          "name": "amount",
          "type": "uint256"
        },
        {
          "indexed": false,
          "internalType": "uint8",
          "name": "tokenIndexFrom",
          "type": "uint8"
        },
        {
          "indexed": false,
          "internalType": "uint8",
          "name": "tokenIndexTo",
          "type": "uint8"
        },
        {
          "indexed": false,
          "internalType": "uint256",
          "name": "minDy",
          "type": "uint256"
        },
        {
          "indexed": false,
          "internalType": "uint256",
          "name": "deadline",
          "type": "uint256"
        }
      ],
      "name": "TokenRedeemAndSwap",
      "type": "event"
    },
    {
      "anonymous": false,
      "inputs": [
        {
          "indexed": true,
          "internalType": "address",
          "name": "to",
          "type": "address"
        },
        {
          "indexed": false,
          "internalType": "uint256",
          "name": "chainId",
          "type": "uint256"
        },
        {
          "indexed": false,
          "internalType": "contract IERC20",
          "name": "token",
          "type": "address"
        },
        {
          "indexed": false,
          "internalType": "uint256",
          "name": "amount",
          "type": "uint256"
        },
        {
          "components": [
            {
              "internalType": "uint256",
              "name": "amountIn",
              "type": "uint256"
            },
            {
              "internalType": "uint256",
              "name": "amountOut",
              "type": "uint256"
            },
            {
              "internalType": "address[]",
              "name": "path",
              "type": "address[]"
            },
            {
              "internalType": "address[]",
              "name": "adapters",
              "type": "address[]"
            }
          ],
          "indexed": false,
          "internalType": "struct IRouter.Trade",
          "name": "trade",
          "type": "tuple"
        }
      ],
      "name": "TokenRedeemAndSwapV2",
      "type": "event"
    },
    {
      "anonymous": false,
      "inputs": [
        {
          "indexed": true,
          "internalType": "address",
          "name": "to",
          "type": "address"
        },
        {
          "indexed": false,
          "internalType": "contract IERC20",
          "name": "token",
          "type": "address"
        },
        {
          "indexed": false,
          "internalType": "uint256",
          "name": "amount",
          "type": "uint256"
        },
        {
          "indexed": false,
          "internalType": "uint256",
          "name": "fee",
          "type": "uint256"
        },
        {
          "indexed": true,
          "internalType": "bytes32",
          "name": "kappa",
          "type": "bytes32"
        }
      ],
      "name": "TokenWithdraw",
      "type": "event"
    },
    {
      "anonymous": false,
      "inputs": [
        {
          "indexed": true,
          "internalType": "address",
          "name": "to",
          "type": "address"
        },
        {
          "indexed": false,
          "internalType": "contract IERC20",
          "name": "token",
          "type": "address"
        },
        {
          "indexed": false,
          "internalType": "uint256",
          "name": "amount",
          "type": "uint256"
        },
        {
          "indexed": false,
          "internalType": "uint256",
          "name": "fee",
          "type": "uint256"
        },
        {
          "indexed": false,
          "internalType": "uint8",
          "name": "swapTokenIndex",
          "type": "uint8"
        },
        {
          "indexed": false,
          "internalType": "uint256",
          "name": "swapMinAmount",
          "type": "uint256"
        },
        {
          "indexed": false,
          "internalType": "uint256",
          "name": "swapDeadline",
          "type": "uint256"
        },
        {
          "indexed": false,
          "internalType": "bool",
          "name": "swapSuccess",
          "type": "bool"
        },
        {
          "indexed": true,
          "internalType": "bytes32",
          "name": "kappa",
          "type": "bytes32"
        }
      ],
      "name": "TokenWithdrawAndRemove",
      "type": "event"
    },
    {
      "anonymous": false,
      "inputs": [
        {
          "indexed": true,
          "internalType": "address",
          "name": "to",
          "type": "address"
        },
        {
          "indexed": false,
          "internalType": "contract IERC20",
          "name": "token",
          "type": "address"
        },
        {
          "indexed": false,
          "internalType": "uint256",
          "name": "amount",
          "type": "uint256"
        },
        {
          "indexed": false,
          "internalType": "uint256",
          "name": "fee",
          "type": "uint256"
        },
        {
          "components": [
            {
              "internalType": "uint256",
              "name": "amountIn",
              "type": "uint256"
            },
            {
              "internalType": "uint256",
              "name": "amountOut",
              "type": "uint256"
            },
            {
              "internalType": "address[]",
              "name": "path",
              "type": "address[]"
            },
            {
              "internalType": "address[]",
              "name": "adapters",
              "type": "address[]"
            }
          ],
          "indexed": false,
          "internalType": "struct IRouter.Trade",
          "name": "trade",
          "type": "tuple"
        },
        {
          "indexed": false,
          "internalType": "bool",
          "name": "swapSuccess",
          "type": "bool"
        },
        {
          "indexed": true,
          "internalType": "bytes32",
          "name": "kappa",
          "type": "bytes32"
        }
      ],
      "name": "TokenWithdrawAndSwapV2",
      "type": "event"
    },
    {
      "anonymous": false,
      "inputs": [
        {
          "indexed": false,
          "internalType": "address",
          "name": "account",
          "type": "address"
        }
      ],
      "name": "Unpaused",
      "type": "event"
    },
    {
      "inputs": [],
      "name": "DEFAULT_ADMIN_ROLE",
      "outputs": [
        {
          "internalType": "bytes32",
          "name": "",
          "type": "bytes32"
        }
      ],
      "stateMutability": "view",
      "type": "function"
    },
    {
      "inputs": [],
      "name": "GOVERNANCE_ROLE",
      "outputs": [
        {
          "internalType": "bytes32",
          "name": "",
          "type": "bytes32"
        }
      ],
      "stateMutability": "view",
      "type": "function"
    },
    {
      "inputs": [],
      "name": "NODEGROUP_ROLE",
      "outputs": [
        {
          "internalType": "bytes32",
          "name": "",
          "type": "bytes32"
        }
      ],
      "stateMutability": "view",
      "type": "function"
    },
    {
      "inputs": [],
      "name": "ROUTER",
      "outputs": [
        {
          "internalType": "address",
          "name": "",
          "type": "address"
        }
      ],
      "stateMutability": "view",
      "type": "function"
    },
    {
      "inputs": [],
      "name": "WETH_ADDRESS",
      "outputs": [
        {
          "internalType": "address payable",
          "name": "",
          "type": "address"
        }
      ],
      "stateMutability": "view",
      "type": "function"
    },
    {
      "inputs": [
        {
          "internalType": "bytes32[]",
          "name": "kappas",
          "type": "bytes32[]"
        }
      ],
      "name": "addKappas",
      "outputs": [],
      "stateMutability": "nonpayable",
      "type": "function"
    },
    {
      "inputs": [],
      "name": "bridgeVersion",
      "outputs": [
        {
          "internalType": "uint256",
          "name": "",
          "type": "uint256"
        }
      ],
      "stateMutability": "view",
      "type": "function"
    },
    {
      "inputs": [],
      "name": "chainGasAmount",
      "outputs": [
        {
          "internalType": "uint256",
          "name": "",
          "type": "uint256"
        }
      ],
      "stateMutability": "view",
      "type": "function"
    },
    {
      "inputs": [
        {
          "internalType": "address",
          "name": "to",
          "type": "address"
        },
        {
          "internalType": "uint256",
          "name": "chainId",
          "type": "uint256"
        },
        {
          "internalType": "contract IERC20",
          "name": "token",
          "type": "address"
        },
        {
          "internalType": "uint256",
          "name": "amount",
          "type": "uint256"
        }
      ],
      "name": "deposit",
      "outputs": [],
      "stateMutability": "nonpayable",
      "type": "function"
    },
    {
      "inputs": [
        {
          "internalType": "address",
          "name": "to",
          "type": "address"
        },
        {
          "internalType": "uint256",
          "name": "chainId",
          "type": "uint256"
        },
        {
          "internalType": "contract IERC20",
          "name": "token",
          "type": "address"
        },
        {
          "internalType": "uint256",
          "name": "amount",
          "type": "uint256"
        },
        {
          "internalType": "uint8",
          "name": "tokenIndexFrom",
          "type": "uint8"
        },
        {
          "internalType": "uint8",
          "name": "tokenIndexTo",
          "type": "uint8"
        },
        {
          "internalType": "uint256",
          "name": "minDy",
          "type": "uint256"
        },
        {
          "internalType": "uint256",
          "name": "deadline",
          "type": "uint256"
        }
      ],
      "name": "depositAndSwap",
      "outputs": [],
      "stateMutability": "nonpayable",
      "type": "function"
    },
    {
      "inputs": [
        {
          "internalType": "address",
          "name": "to",
          "type": "address"
        },
        {
          "internalType": "uint256",
          "name": "chainId",
          "type": "uint256"
        },
        {
          "internalType": "contract IERC20",
          "name": "token",
          "type": "address"
        }
      ],
      "name": "depositMax",
      "outputs": [],
      "stateMutability": "nonpayable",
      "type": "function"
    },
    {
      "inputs": [
        {
          "internalType": "address",
          "name": "to",
          "type": "address"
        },
        {
          "internalType": "uint256",
          "name": "chainId",
          "type": "uint256"
        },
        {
          "internalType": "contract IERC20",
          "name": "token",
          "type": "address"
        },
        {
          "components": [
            {
              "internalType": "uint256",
              "name": "amountIn",
              "type": "uint256"
            },
            {
              "internalType": "uint256",
              "name": "amountOut",
              "type": "uint256"
            },
            {
              "internalType": "address[]",
              "name": "path",
              "type": "address[]"
            },
            {
              "internalType": "address[]",
              "name": "adapters",
              "type": "address[]"
            }
          ],
          "internalType": "struct IRouter.Trade",
          "name": "_trade",
          "type": "tuple"
        }
      ],
      "name": "depositMaxAndSwapV2",
      "outputs": [],
      "stateMutability": "nonpayable",
      "type": "function"
    },
    {
      "inputs": [
        {
          "internalType": "address",
          "name": "tokenAddress",
          "type": "address"
        }
      ],
      "name": "getFeeBalance",
      "outputs": [
        {
          "internalType": "uint256",
          "name": "",
          "type": "uint256"
        }
      ],
      "stateMutability": "view",
      "type": "function"
    },
    {
      "inputs": [
        {
          "internalType": "bytes32",
          "name": "role",
          "type": "bytes32"
        }
      ],
      "name": "getRoleAdmin",
      "outputs": [
        {
          "internalType": "bytes32",
          "name": "",
          "type": "bytes32"
        }
      ],
      "stateMutability": "view",
      "type": "function"
    },
    {
      "inputs": [
        {
          "internalType": "bytes32",
          "name": "role",
          "type": "bytes32"
        },
        {
          "internalType": "uint256",
          "name": "index",
          "type": "uint256"
        }
      ],
      "name": "getRoleMember",
      "outputs": [
        {
          "internalType": "address",
          "name": "",
          "type": "address"
        }
      ],
      "stateMutability": "view",
      "type": "function"
    },
    {
      "inputs": [
        {
          "internalType": "bytes32",
          "name": "role",
          "type": "bytes32"
        }
      ],
      "name": "getRoleMemberCount",
      "outputs": [
        {
          "internalType": "uint256",
          "name": "",
          "type": "uint256"
        }
      ],
      "stateMutability": "view",
      "type": "function"
    },
    {
      "inputs": [
        {
          "internalType": "bytes32",
          "name": "role",
          "type": "bytes32"
        },
        {
          "internalType": "address",
          "name": "account",
          "type": "address"
        }
      ],
      "name": "grantRole",
      "outputs": [],
      "stateMutability": "nonpayable",
      "type": "function"
    },
    {
      "inputs": [
        {
          "internalType": "bytes32",
          "name": "role",
          "type": "bytes32"
        },
        {
          "internalType": "address",
          "name": "account",
          "type": "address"
        }
      ],
      "name": "hasRole",
      "outputs": [
        {
          "internalType": "bool",
          "name": "",
          "type": "bool"
        }
      ],
      "stateMutability": "view",
      "type": "function"
    },
    {
      "inputs": [],
      "name": "initialize",
      "outputs": [],
      "stateMutability": "nonpayable",
      "type": "function"
    },
    {
      "inputs": [
        {
          "internalType": "bytes32",
          "name": "kappa",
          "type": "bytes32"
        }
      ],
      "name": "kappaExists",
      "outputs": [
        {
          "internalType": "bool",
          "name": "",
          "type": "bool"
        }
      ],
      "stateMutability": "view",
      "type": "function"
    },
    {
      "inputs": [
        {
          "internalType": "address payable",
          "name": "to",
          "type": "address"
        },
        {
          "internalType": "contract IERC20Mintable",
          "name": "token",
          "type": "address"
        },
        {
          "internalType": "uint256",
          "name": "amount",
          "type": "uint256"
        },
        {
          "internalType": "uint256",
          "name": "fee",
          "type": "uint256"
        },
        {
          "internalType": "bytes32",
          "name": "kappa",
          "type": "bytes32"
        }
      ],
      "name": "mint",
      "outputs": [],
      "stateMutability": "nonpayable",
      "type": "function"
    },
    {
      "inputs": [
        {
          "internalType": "address payable",
          "name": "to",
          "type": "address"
        },
        {
          "internalType": "contract IERC20Mintable",
          "name": "token",
          "type": "address"
        },
        {
          "internalType": "uint256",
          "name": "amount",
          "type": "uint256"
        },
        {
          "internalType": "uint256",
          "name": "fee",
          "type": "uint256"
        },
        {
          "internalType": "contract ISwap",
          "name": "pool",
          "type": "address"
        },
        {
          "internalType": "uint8",
          "name": "tokenIndexFrom",
          "type": "uint8"
        },
        {
          "internalType": "uint8",
          "name": "tokenIndexTo",
          "type": "uint8"
        },
        {
          "internalType": "uint256",
          "name": "minDy",
          "type": "uint256"
        },
        {
          "internalType": "uint256",
          "name": "deadline",
          "type": "uint256"
        },
        {
          "internalType": "bytes32",
          "name": "kappa",
          "type": "bytes32"
        }
      ],
      "name": "mintAndSwap",
      "outputs": [],
      "stateMutability": "nonpayable",
      "type": "function"
    },
    {
      "inputs": [
        {
          "internalType": "address payable",
          "name": "to",
          "type": "address"
        },
        {
          "internalType": "contract IERC20Mintable",
          "name": "token",
          "type": "address"
        },
        {
          "internalType": "uint256",
          "name": "amount",
          "type": "uint256"
        },
        {
          "internalType": "uint256",
          "name": "fee",
          "type": "uint256"
        },
        {
          "components": [
            {
              "internalType": "uint256",
              "name": "amountIn",
              "type": "uint256"
            },
            {
              "internalType": "uint256",
              "name": "amountOut",
              "type": "uint256"
            },
            {
              "internalType": "address[]",
              "name": "path",
              "type": "address[]"
            },
            {
              "internalType": "address[]",
              "name": "adapters",
              "type": "address[]"
            }
          ],
          "internalType": "struct IRouter.Trade",
          "name": "_trade",
          "type": "tuple"
        },
        {
          "internalType": "bytes32",
          "name": "kappa",
          "type": "bytes32"
        }
      ],
      "name": "mintAndSwapV2",
      "outputs": [],
      "stateMutability": "nonpayable",
      "type": "function"
    },
    {
      "inputs": [],
      "name": "pause",
      "outputs": [],
      "stateMutability": "nonpayable",
      "type": "function"
    },
    {
      "inputs": [],
      "name": "paused",
      "outputs": [
        {
          "internalType": "bool",
          "name": "",
          "type": "bool"
        }
      ],
      "stateMutability": "view",
      "type": "function"
    },
    {
      "inputs": [
        {
          "internalType": "address",
          "name": "to",
          "type": "address"
        },
        {
          "internalType": "uint256",
          "name": "chainId",
          "type": "uint256"
        },
        {
          "internalType": "contract ERC20Burnable",
          "name": "token",
          "type": "address"
        },
        {
          "internalType": "uint256",
          "name": "amount",
          "type": "uint256"
        }
      ],
      "name": "redeem",
      "outputs": [],
      "stateMutability": "nonpayable",
      "type": "function"
    },
    {
      "inputs": [
        {
          "internalType": "address",
          "name": "to",
          "type": "address"
        },
        {
          "internalType": "uint256",
          "name": "chainId",
          "type": "uint256"
        },
        {
          "internalType": "contract ERC20Burnable",
          "name": "token",
          "type": "address"
        },
        {
          "internalType": "uint256",
          "name": "amount",
          "type": "uint256"
        },
        {
          "internalType": "uint8",
          "name": "swapTokenIndex",
          "type": "uint8"
        },
        {
          "internalType": "uint256",
          "name": "swapMinAmount",
          "type": "uint256"
        },
        {
          "internalType": "uint256",
          "name": "swapDeadline",
          "type": "uint256"
        }
      ],
      "name": "redeemAndRemove",
      "outputs": [],
      "stateMutability": "nonpayable",
      "type": "function"
    },
    {
      "inputs": [
        {
          "internalType": "address",
          "name": "to",
          "type": "address"
        },
        {
          "internalType": "uint256",
          "name": "chainId",
          "type": "uint256"
        },
        {
          "internalType": "contract ERC20Burnable",
          "name": "token",
          "type": "address"
        },
        {
          "internalType": "uint256",
          "name": "amount",
          "type": "uint256"
        },
        {
          "internalType": "uint8",
          "name": "tokenIndexFrom",
          "type": "uint8"
        },
        {
          "internalType": "uint8",
          "name": "tokenIndexTo",
          "type": "uint8"
        },
        {
          "internalType": "uint256",
          "name": "minDy",
          "type": "uint256"
        },
        {
          "internalType": "uint256",
          "name": "deadline",
          "type": "uint256"
        }
      ],
      "name": "redeemAndSwap",
      "outputs": [],
      "stateMutability": "nonpayable",
      "type": "function"
    },
    {
      "inputs": [
        {
          "internalType": "address",
          "name": "to",
          "type": "address"
        },
        {
          "internalType": "uint256",
          "name": "chainId",
          "type": "uint256"
        },
        {
          "internalType": "contract ERC20Burnable",
          "name": "token",
          "type": "address"
        }
      ],
      "name": "redeemMax",
      "outputs": [],
      "stateMutability": "nonpayable",
      "type": "function"
    },
    {
      "inputs": [
        {
          "internalType": "address",
          "name": "to",
          "type": "address"
        },
        {
          "internalType": "uint256",
          "name": "chainId",
          "type": "uint256"
        },
        {
          "internalType": "contract ERC20Burnable",
          "name": "token",
          "type": "address"
        },
        {
          "components": [
            {
              "internalType": "uint256",
              "name": "amountIn",
              "type": "uint256"
            },
            {
              "internalType": "uint256",
              "name": "amountOut",
              "type": "uint256"
            },
            {
              "internalType": "address[]",
              "name": "path",
              "type": "address[]"
            },
            {
              "internalType": "address[]",
              "name": "adapters",
              "type": "address[]"
            }
          ],
          "internalType": "struct IRouter.Trade",
          "name": "_trade",
          "type": "tuple"
        }
      ],
      "name": "redeemMaxAndSwapV2",
      "outputs": [],
      "stateMutability": "nonpayable",
      "type": "function"
    },
    {
      "inputs": [
        {
          "internalType": "bytes32",
          "name": "role",
          "type": "bytes32"
        },
        {
          "internalType": "address",
          "name": "account",
          "type": "address"
        }
      ],
      "name": "renounceRole",
      "outputs": [],
      "stateMutability": "nonpayable",
      "type": "function"
    },
    {
      "inputs": [
        {
          "internalType": "bytes32",
          "name": "role",
          "type": "bytes32"
        },
        {
          "internalType": "address",
          "name": "account",
          "type": "address"
        }
      ],
      "name": "revokeRole",
      "outputs": [],
      "stateMutability": "nonpayable",
      "type": "function"
    },
    {
      "inputs": [
        {
          "internalType": "uint256",
          "name": "amount",
          "type": "uint256"
        }
      ],
      "name": "setChainGasAmount",
      "outputs": [],
      "stateMutability": "nonpayable",
      "type": "function"
    },
    {
      "inputs": [
        {
          "internalType": "address",
          "name": "_router",
          "type": "address"
        }
      ],
      "name": "setRouterAddress",
      "outputs": [],
      "stateMutability": "nonpayable",
      "type": "function"
    },
    {
      "inputs": [
        {
          "internalType": "address payable",
          "name": "_wethAddress",
          "type": "address"
        }
      ],
      "name": "setWethAddress",
      "outputs": [],
      "stateMutability": "nonpayable",
      "type": "function"
    },
    {
      "inputs": [],
      "name": "startBlockNumber",
      "outputs": [
        {
          "internalType": "uint256",
          "name": "",
          "type": "uint256"
        }
      ],
      "stateMutability": "view",
      "type": "function"
    },
    {
      "inputs": [],
      "name": "unpause",
      "outputs": [],
      "stateMutability": "nonpayable",
      "type": "function"
    },
    {
      "inputs": [
        {
          "internalType": "address",
          "name": "to",
          "type": "address"
        },
        {
          "internalType": "contract IERC20",
          "name": "token",
          "type": "address"
        },
        {
          "internalType": "uint256",
          "name": "amount",
          "type": "uint256"
        },
        {
          "internalType": "uint256",
          "name": "fee",
          "type": "uint256"
        },
        {
          "internalType": "bytes32",
          "name": "kappa",
          "type": "bytes32"
        }
      ],
      "name": "withdraw",
      "outputs": [],
      "stateMutability": "nonpayable",
      "type": "function"
    },
    {
      "inputs": [
        {
          "internalType": "address",
          "name": "to",
          "type": "address"
        },
        {
          "internalType": "contract IERC20",
          "name": "token",
          "type": "address"
        },
        {
          "internalType": "uint256",
          "name": "amount",
          "type": "uint256"
        },
        {
          "internalType": "uint256",
          "name": "fee",
          "type": "uint256"
        },
        {
          "internalType": "contract ISwap",
          "name": "pool",
          "type": "address"
        },
        {
          "internalType": "uint8",
          "name": "swapTokenIndex",
          "type": "uint8"
        },
        {
          "internalType": "uint256",
          "name": "swapMinAmount",
          "type": "uint256"
        },
        {
          "internalType": "uint256",
          "name": "swapDeadline",
          "type": "uint256"
        },
        {
          "internalType": "bytes32",
          "name": "kappa",
          "type": "bytes32"
        }
      ],
      "name": "withdrawAndRemove",
      "outputs": [],
      "stateMutability": "nonpayable",
      "type": "function"
    },
    {
      "inputs": [
        {
          "internalType": "address",
          "name": "to",
          "type": "address"
        },
        {
          "internalType": "contract IERC20",
          "name": "token",
          "type": "address"
        },
        {
          "internalType": "uint256",
          "name": "amount",
          "type": "uint256"
        },
        {
          "internalType": "uint256",
          "name": "fee",
          "type": "uint256"
        },
        {
          "components": [
            {
              "internalType": "uint256",
              "name": "amountIn",
              "type": "uint256"
            },
            {
              "internalType": "uint256",
              "name": "amountOut",
              "type": "uint256"
            },
            {
              "internalType": "address[]",
              "name": "path",
              "type": "address[]"
            },
            {
              "internalType": "address[]",
              "name": "adapters",
              "type": "address[]"
            }
          ],
          "internalType": "struct IRouter.Trade",
          "name": "_trade",
          "type": "tuple"
        },
        {
          "internalType": "bytes32",
          "name": "kappa",
          "type": "bytes32"
        }
      ],
      "name": "withdrawAndSwapV2",
      "outputs": [],
      "stateMutability": "nonpayable",
      "type": "function"
    },
    {
      "inputs": [
        {
          "internalType": "contract IERC20",
          "name": "token",
          "type": "address"
        },
        {
          "internalType": "address",
          "name": "to",
          "type": "address"
        }
      ],
      "name": "withdrawFees",
      "outputs": [],
      "stateMutability": "nonpayable",
      "type": "function"
    },
    {
      "stateMutability": "payable",
      "type": "receive"
    }
  ],
  "transactionHash": "0x17c178b735a2d950f05e01d23ed0b6410d3680defb3d51d0d37229552d9df90d",
  "args": [],
  "solcInputHash": "92ae49d48e74ebc947d492d26acd67f5",
  "bytecode": "0x608060405234801561001057600080fd5b50614a60806100206000396000f3fe6080604052600436106102ca5760003560e01c806390d2507411610179578063ca15c873116100d6578063e7a599981161008a578063f36c8f5c11610064578063f36c8f5c1461075a578063f3befd011461076f578063f3f094a114610784576102d1565b8063e7a59998146106fa578063ef87c2f91461071a578063f25552781461073a576102d1565b8063d57eafac116100bb578063d57eafac146106a5578063da5f90ff146106c5578063e00a83e0146106e5576102d1565b8063ca15c87314610665578063d547741f14610685576102d1565b8063a96e24231161012d578063b250fe6b11610112578063b250fe6b14610605578063bcaeea5e14610625578063c78f680314610645576102d1565b8063a96e2423146105d0578063ac865626146105f0576102d1565b80639de3eff01161015e5780639de3eff01461057b578063a217fddf1461059b578063a2a2af0b146105b0576102d1565b806390d250741461053b57806391d148541461055b576102d1565b80633f4ba83a116102275780635c975abb116101db578063839ed90a116101c0578063839ed90a146104e65780638456cb59146105065780639010d07c1461051b576102d1565b80635c975abb146104bc5780638129fc1c146104d1576102d1565b8063498a4c2d1161020c578063498a4c2d146104675780635198c3661461047c57806355f047241461049c576102d1565b80633f4ba83a1461043257806341cb87fc14610447576102d1565b80632f2ff15d1161027e57806332fe7b261161026357806332fe7b26146103dd57806336568abe146103f257806336e712ed14610412576102d1565b80632f2ff15d146103905780632fe87b95146103b0576102d1565b80631cf5f07f116102af5780631cf5f07f1461032357806320d7b32714610343578063248a9ca314610363576102d1565b8063040141e5146102d65780631735789214610301576102d1565b366102d157005b600080fd5b3480156102e257600080fd5b506102eb6107a4565b6040516102f891906140ec565b60405180910390f35b34801561030d57600080fd5b5061032161031c366004613aac565b6107b3565b005b34801561032f57600080fd5b5061032161033e366004613a5c565b610f2f565b34801561034f57600080fd5b5061032161035e366004613a5c565b611233565b34801561036f57600080fd5b5061038361037e366004613f5d565b6114c4565b6040516102f89190614162565b34801561039c57600080fd5b506103216103ab366004613f75565b6114d9565b3480156103bc57600080fd5b506103d06103cb366004613f5d565b611521565b6040516102f89190614157565b3480156103e957600080fd5b506102eb611536565b3480156103fe57600080fd5b5061032161040d366004613f75565b611545565b34801561041e57600080fd5b5061032161042d366004613d5e565b611587565b34801561043e57600080fd5b50610321611694565b34801561045357600080fd5b50610321610462366004613a40565b6116e4565b34801561047357600080fd5b50610383611745565b34801561048857600080fd5b50610321610497366004613c6c565b61174b565b3480156104a857600080fd5b506103216104b7366004613b4a565b61192e565b3480156104c857600080fd5b506103d0611cbb565b3480156104dd57600080fd5b50610321611cc4565b3480156104f257600080fd5b50610321610501366004613dcc565b611d98565b34801561051257600080fd5b50610321611eba565b34801561052757600080fd5b506102eb610536366004613fa4565b611f08565b34801561054757600080fd5b50610321610556366004613d17565b611f29565b34801561056757600080fd5b506103d0610576366004613f75565b611fdb565b34801561058757600080fd5b50610321610596366004613c54565b611ff3565b3480156105a757600080fd5b50610383612254565b3480156105bc57600080fd5b506103216105cb366004613e4c565b612259565b3480156105dc57600080fd5b506103216105eb366004613a40565b612317565b3480156105fc57600080fd5b50610383612378565b34801561061157600080fd5b50610321610620366004613f5d565b61237d565b34801561063157600080fd5b50610321610640366004613c6c565b6123c8565b34801561065157600080fd5b50610383610660366004613a40565b61260f565b34801561067157600080fd5b50610383610680366004613f5d565b61262a565b34801561069157600080fd5b506103216106a0366004613f75565b612641565b3480156106b157600080fd5b506103216106c0366004613bc6565b61267b565b3480156106d157600080fd5b506103216106e0366004613cad565b612af9565b3480156106f157600080fd5b50610383612d03565b34801561070657600080fd5b50610321610715366004613ece565b612d09565b34801561072657600080fd5b50610321610735366004613cad565b612da1565b34801561074657600080fd5b50610321610755366004613fe1565b612f87565b34801561076657600080fd5b50610383613076565b34801561077b57600080fd5b5061038361309a565b34801561079057600080fd5b5061032161079f366004613d17565b6130be565b60cc546001600160a01b031681565b600260655414156107df5760405162461bcd60e51b81526004016107d6906146fa565b60405180910390fd5b60026065556107ec611cbb565b156108095760405162461bcd60e51b81526004016107d6906144f6565b6108337fb5c00e6706c3d213edd70ff33717fac657eacc5fe161f07180cf1fcab13cc4cd33611fdb565b61084f5760405162461bcd60e51b81526004016107d690614462565b86881161086e5760405162461bcd60e51b81526004016107d6906145f8565b600081815260ce602052604090205460ff161561089d5760405162461bcd60e51b81526004016107d6906145c1565b600081815260ce60209081526040808320805460ff191660011790556001600160a01b038c16835260c99091529020546108d790886131c5565b6001600160a01b038a16600090815260c9602052604090205560cb5415801590610902575060cb5447115b1561096657896001600160a01b031660cb54604051610920906140e9565b60006040518083038185875af1925050503d806000811461095d576040519150601f19603f3d011682016040523d82523d6000602084013e610962565b606091505b5050505b60006001600160a01b03871663a95b089f87876109838d8d6131ea565b6040518463ffffffff1660e01b81526004016109a193929190614924565b60206040518083038186803b1580156109b957600080fd5b505afa1580156109cd573d6000803e3d6000fd5b505050506040513d601f19601f820116820180604052508101906109f1919061400e565b9050838110610e32576040517f40c10f190000000000000000000000000000000000000000000000000000000081526001600160a01b038b16906340c10f1990610a419030908d9060040161411a565b600060405180830381600087803b158015610a5b57600080fd5b505af1158015610a6f573d6000803e3d6000fd5b50610a88925050506001600160a01b038b16888b613212565b6001600160a01b03871663916955868787610aa38d8d6131ea565b88886040518663ffffffff1660e01b8152600401610ac5959493929190614942565b602060405180830381600087803b158015610adf57600080fd5b505af1925050508015610b2d575060408051601f3d9081017fffffffffffffffffffffffffffffffffffffffffffffffffffffffffffffffe0168201909252610b2a9181019061400e565b60015b610baf57610b508b610b3f8b8b6131ea565b6001600160a01b038d169190613345565b816001600160a01b038c167f4f56ec39e98539920503fd54ee56ae0cbebe9eb15aa778f18de67701eeae7c658c610b878d8d6131ea565b8c8b8b8b8b6000604051610ba29897969594939291906141ce565b60405180910390a3610e2d565b6040517f82b866000000000000000000000000000000000000000000000000000000000081526000906001600160a01b038a16906382b8660090610bf7908a90600401614916565b60206040518083038186803b158015610c0f57600080fd5b505afa158015610c23573d6000803e3d6000fd5b505050506040513d601f19601f82011682018060405250810190610c479190613fc5565b60cc549091506001600160a01b038083169116148015610c71575060cc546001600160a01b031615155b15610dc45760cc546040517f2e1a7d4d0000000000000000000000000000000000000000000000000000000081526001600160a01b0390911690632e1a7d4d90610cbf908590600401614162565b600060405180830381600087803b158015610cd957600080fd5b505af1158015610ced573d6000803e3d6000fd5b5050505060008d6001600160a01b031683604051610d0a906140e9565b60006040518083038185875af1925050503d8060008114610d47576040519150601f19603f3d011682016040523d82523d6000602084013e610d4c565b606091505b5050905080610d6d5760405162461bcd60e51b81526004016107d690614666565b848e6001600160a01b03167f4f56ec39e98539920503fd54ee56ae0cbebe9eb15aa778f18de67701eeae7c658f868f8e8e8e8e6001604051610db69897969594939291906141ce565b60405180910390a350610e2a565b610dd86001600160a01b0382168e84613345565b838d6001600160a01b03167f4f56ec39e98539920503fd54ee56ae0cbebe9eb15aa778f18de67701eeae7c658e858e8d8d8d8d6001604051610e219897969594939291906141ce565b60405180910390a35b50505b610f1d565b6040517f40c10f190000000000000000000000000000000000000000000000000000000081526001600160a01b038b16906340c10f1990610e799030908d9060040161411a565b600060405180830381600087803b158015610e9357600080fd5b505af1158015610ea7573d6000803e3d6000fd5b50505050610ec28b610b3f8a8c6131ea90919063ffffffff16565b816001600160a01b038c167f4f56ec39e98539920503fd54ee56ae0cbebe9eb15aa778f18de67701eeae7c658c610ef98d8d6131ea565b8c8b8b8b8b6000604051610f149897969594939291906141ce565b60405180910390a35b50506001606555505050505050505050565b60026065541415610f525760405162461bcd60e51b81526004016107d6906146fa565b6002606555610f5f611cbb565b15610f7c5760405162461bcd60e51b81526004016107d6906144f6565b610fa67fb5c00e6706c3d213edd70ff33717fac657eacc5fe161f07180cf1fcab13cc4cd33611fdb565b610fc25760405162461bcd60e51b81526004016107d690614462565b818311610fe15760405162461bcd60e51b81526004016107d6906145f8565b600081815260ce602052604090205460ff16156110105760405162461bcd60e51b81526004016107d6906145c1565b600081815260ce60209081526040808320805460ff191660011790556001600160a01b038716835260c990915290205461104a90836131c5565b6001600160a01b03808616600081815260c9602052604090209290925560cc5416148015611082575060cc546001600160a01b031615155b156111c25760cc546001600160a01b0316632e1a7d4d6110a285856131ea565b6040518263ffffffff1660e01b81526004016110be9190614162565b600060405180830381600087803b1580156110d857600080fd5b505af11580156110ec573d6000803e3d6000fd5b506000925050506001600160a01b03861661110785856131ea565b604051611113906140e9565b60006040518083038185875af1925050503d8060008114611150576040519150601f19603f3d011682016040523d82523d6000602084013e611155565b606091505b50509050806111765760405162461bcd60e51b81526004016107d690614666565b81866001600160a01b03167f8b0afdc777af6946e53045a4a75212769075d30455a212ac51c9b16f9c5c9b268787876040516111b49392919061416b565b60405180910390a350611227565b80856001600160a01b03167f8b0afdc777af6946e53045a4a75212769075d30455a212ac51c9b16f9c5c9b268686866040516112009392919061416b565b60405180910390a36112278561121685856131ea565b6001600160a01b0387169190613345565b50506001606555505050565b600260655414156112565760405162461bcd60e51b81526004016107d6906146fa565b6002606555611263611cbb565b156112805760405162461bcd60e51b81526004016107d6906144f6565b6112aa7fb5c00e6706c3d213edd70ff33717fac657eacc5fe161f07180cf1fcab13cc4cd33611fdb565b6112c65760405162461bcd60e51b81526004016107d690614462565b8183116112e55760405162461bcd60e51b81526004016107d6906145f8565b600081815260ce602052604090205460ff16156113145760405162461bcd60e51b81526004016107d6906145c1565b600081815260ce60209081526040808320805460ff191660011790556001600160a01b038716835260c990915290205461134e90836131c5565b6001600160a01b03808616600090815260c96020526040902091909155819086167fbf14b9fde87f6e1c29a7e0787ad1d0d64b4648d8ae63da21524d9fd0f283dd388661139b87876131ea565b866040516113ab9392919061416b565b60405180910390a36040517f40c10f190000000000000000000000000000000000000000000000000000000081526001600160a01b038516906340c10f19906113fa903090879060040161411a565b600060405180830381600087803b15801561141457600080fd5b505af1158015611428573d6000803e3d6000fd5b505050506114438561121684866131ea90919063ffffffff16565b60cb5415801590611455575060cb5447115b1561122757846001600160a01b031660cb54604051611473906140e9565b60006040518083038185875af1925050503d80600081146114b0576040519150601f19603f3d011682016040523d82523d6000602084013e6114b5565b606091505b50505050506001606555505050565b60009081526033602052604090206002015490565b6000828152603360205260409020600201546114f790610576613364565b6115135760405162461bcd60e51b81526004016107d690614303565b61151d8282613368565b5050565b600090815260ce602052604090205460ff1690565b60cd546001600160a01b031681565b61154d613364565b6001600160a01b0316816001600160a01b03161461157d5760405162461bcd60e51b81526004016107d69061479f565b61151d82826133d1565b600260655414156115aa5760405162461bcd60e51b81526004016107d6906146fa565b60026065556115b7611cbb565b156115d45760405162461bcd60e51b81526004016107d6906144f6565b866001600160a01b03167f9a7024cde1920aa50cdde09ca396229e8c4d530d5cfdc6233590def70a94408c87878787878760405161161796959493929190614877565b60405180910390a26040517f79cc67900000000000000000000000000000000000000000000000000000000081526001600160a01b038616906379cc679090611666903390889060040161411a565b600060405180830381600087803b15801561168057600080fd5b505af1158015610f1d573d6000803e3d6000fd5b6116be7f71840dc4906352362b0cdaf79870196c8e42acafade72d5d5a6d59291253ceb133611fdb565b6116da5760405162461bcd60e51b81526004016107d69061452d565b6116e261343a565b565b6116ef600033611fdb565b61170b5760405162461bcd60e51b81526004016107d690614768565b60cd80547fffffffffffffffffffffffff0000000000000000000000000000000000000000166001600160a01b0392909216919091179055565b60ca5481565b6002606554141561176e5760405162461bcd60e51b81526004016107d6906146fa565b600260655561177b611cbb565b156117985760405162461bcd60e51b81526004016107d6906144f6565b6040517fdd62ed3e0000000000000000000000000000000000000000000000000000000081526000906001600160a01b0383169063dd62ed3e906117e29033903090600401614100565b60206040518083038186803b1580156117fa57600080fd5b505afa15801561180e573d6000803e3d6000fd5b505050506040513d601f19601f82011682018060405250810190611832919061400e565b90506000826001600160a01b03166370a08231336040518263ffffffff1660e01b815260040161186291906140ec565b60206040518083038186803b15801561187a57600080fd5b505afa15801561188e573d6000803e3d6000fd5b505050506040513d601f19601f820116820180604052508101906118b2919061400e565b905060008183116118c357826118c5565b815b9050856001600160a01b03167fda5273705dbef4bf1b902a131c2eac086b7e1476a8ab0cb4da08af1fe1bd8e3b8686846040516119049392919061482a565b60405180910390a26119216001600160a01b0385163330846134a8565b5050600160655550505050565b600260655414156119515760405162461bcd60e51b81526004016107d6906146fa565b600260655561195e611cbb565b1561197b5760405162461bcd60e51b81526004016107d6906144f6565b6119a57fb5c00e6706c3d213edd70ff33717fac657eacc5fe161f07180cf1fcab13cc4cd33611fdb565b6119c15760405162461bcd60e51b81526004016107d690614462565b8284116119e05760405162461bcd60e51b81526004016107d6906145f8565b600081815260ce602052604090205460ff1615611a0f5760405162461bcd60e51b81526004016107d6906145c1565b600081815260ce60209081526040808320805460ff191660011790556001600160a01b038816835260c9909152902054611a4990846131c5565b6001600160a01b038616600090815260c9602052604090205560cb5415801590611a74575060cb5447115b15611ad857856001600160a01b031660cb54604051611a92906140e9565b60006040518083038185875af1925050503d8060008114611acf576040519150601f19603f3d011682016040523d82523d6000602084013e611ad4565b606091505b5050505b60cd546040517f40c10f190000000000000000000000000000000000000000000000000000000081526001600160a01b03878116926340c10f1992611b259290911690889060040161411a565b600060405180830381600087803b158015611b3f57600080fd5b505af1158015611b53573d6000803e3d6000fd5b505060cd546040517fef8d2e5e0000000000000000000000000000000000000000000000000000000081526001600160a01b03909116925063ef8d2e5e9150611ba59085908a906000906004016147fc565b600060405180830381600087803b158015611bbf57600080fd5b505af1925050508015611bd0575060015b611c5a5760cd54611c01906001600160a01b031687611bef87876131ea565b6001600160a01b0389169291906134a8565b806001600160a01b0387167f3b6f2da9d7cffa8e22a0212d5882a7dc7faac27ffd9fc94d273da6fe31d4ee5187611c3888886131ea565b87876000604051611c4d95949392919061418c565b60405180910390a3611921565b806001600160a01b0387167f3b6f2da9d7cffa8e22a0212d5882a7dc7faac27ffd9fc94d273da6fe31d4ee5187611c9188886131ea565b87876001604051611ca695949392919061418c565b60405180910390a35050600160655550505050565b60975460ff1690565b600054610100900460ff1680611cdd5750611cdd6134c9565b80611ceb575060005460ff16155b611d075760405162461bcd60e51b81526004016107d690614564565b600054610100900460ff16158015611d4f576000805460ff197fffffffffffffffffffffffffffffffffffffffffffffffffffffffffffff00ff909116610100171660011790555b4360ca55611d5e600033611513565b611d666134da565b8015611d9557600080547fffffffffffffffffffffffffffffffffffffffffffffffffffffffffffff00ff1690555b50565b60026065541415611dbb5760405162461bcd60e51b81526004016107d6906146fa565b6002606555611dc8611cbb565b15611de55760405162461bcd60e51b81526004016107d6906144f6565b876001600160a01b03167f91f25e9be0134ec851830e0e76dc71e06f9dade75a9b84e9524071dbbc31942588888888888888604051611e2a97969594939291906148ab565b60405180910390a26040517f79cc67900000000000000000000000000000000000000000000000000000000081526001600160a01b038716906379cc679090611e79903390899060040161411a565b600060405180830381600087803b158015611e9357600080fd5b505af1158015611ea7573d6000803e3d6000fd5b5050600160655550505050505050505050565b611ee47f71840dc4906352362b0cdaf79870196c8e42acafade72d5d5a6d59291253ceb133611fdb565b611f005760405162461bcd60e51b81526004016107d69061452d565b6116e2613575565b6000828152603360205260408120611f2090836135d0565b90505b92915050565b60026065541415611f4c5760405162461bcd60e51b81526004016107d6906146fa565b6002606555611f59611cbb565b15611f765760405162461bcd60e51b81526004016107d6906144f6565b836001600160a01b03167fda5273705dbef4bf1b902a131c2eac086b7e1476a8ab0cb4da08af1fe1bd8e3b848484604051611fb39392919061482a565b60405180910390a2611fd06001600160a01b0383163330846134a8565b505060016065555050565b6000828152603360205260408120611f2090836135dc565b600260655414156120165760405162461bcd60e51b81526004016107d6906146fa565b6002606555612023611cbb565b156120405760405162461bcd60e51b81526004016107d6906144f6565b61206a7fb5c00e6706c3d213edd70ff33717fac657eacc5fe161f07180cf1fcab13cc4cd33611fdb565b6120865760405162461bcd60e51b81526004016107d690614462565b8284116120a55760405162461bcd60e51b81526004016107d6906145f8565b600081815260ce602052604090205460ff16156120d45760405162461bcd60e51b81526004016107d6906145c1565b600081815260ce60209081526040808320805460ff191660011790556001600160a01b038816835260c990915290205461210e90846131c5565b6001600160a01b03808716600090815260c9602052604090209190915560cd5461214e911661213d86866131ea565b6001600160a01b0388169190613345565b60cd546040517fef8d2e5e0000000000000000000000000000000000000000000000000000000081526001600160a01b039091169063ef8d2e5e9061219c9085908a906000906004016147fc565b600060405180830381600087803b1580156121b657600080fd5b505af19250505080156121c7575060015b61221d5760cd546121e6906001600160a01b031687611bef87876131ea565b806001600160a01b0387167f16beb026ce49f2d34554baf64cedb4d2fbb3b79fa38159fccc5454539d96aaf887611c3888886131ea565b806001600160a01b0387167f16beb026ce49f2d34554baf64cedb4d2fbb3b79fa38159fccc5454539d96aaf887611c9188886131ea565b600081565b6002606554141561227c5760405162461bcd60e51b81526004016107d6906146fa565b6002606555612289611cbb565b156122a65760405162461bcd60e51b81526004016107d6906144f6565b876001600160a01b03167f79c15604b92ef54d3f61f0c40caab8857927ca3d5092367163b4562c1699eb5f888888888888886040516122eb97969594939291906148ab565b60405180910390a26123086001600160a01b0387163330886134a8565b50506001606555505050505050565b612322600033611fdb565b61233e5760405162461bcd60e51b81526004016107d690614768565b60cc80547fffffffffffffffffffffffff0000000000000000000000000000000000000000166001600160a01b0392909216919091179055565b600681565b6123a77f71840dc4906352362b0cdaf79870196c8e42acafade72d5d5a6d59291253ceb133611fdb565b6123c35760405162461bcd60e51b81526004016107d69061452d565b60cb55565b600260655414156123eb5760405162461bcd60e51b81526004016107d6906146fa565b60026065556123f8611cbb565b156124155760405162461bcd60e51b81526004016107d6906144f6565b6040517fdd62ed3e0000000000000000000000000000000000000000000000000000000081526000906001600160a01b0383169063dd62ed3e9061245f9033903090600401614100565b60206040518083038186803b15801561247757600080fd5b505afa15801561248b573d6000803e3d6000fd5b505050506040513d601f19601f820116820180604052508101906124af919061400e565b90506000826001600160a01b03166370a08231336040518263ffffffff1660e01b81526004016124df91906140ec565b60206040518083038186803b1580156124f757600080fd5b505afa15801561250b573d6000803e3d6000fd5b505050506040513d601f19601f8201168201806040525081019061252f919061400e565b905060008183116125405782612542565b815b9050856001600160a01b03167fdc5bad4651c5fbe9977a696aadc65996c468cde1448dd468ec0d83bf61c4b57c8686846040516125819392919061482a565b60405180910390a26040517f79cc67900000000000000000000000000000000000000000000000000000000081526001600160a01b038516906379cc6790906125d0903390859060040161411a565b600060405180830381600087803b1580156125ea57600080fd5b505af11580156125fe573d6000803e3d6000fd5b505060016065555050505050505050565b6001600160a01b0316600090815260c9602052604090205490565b6000818152603360205260408120611f23906135f1565b60008281526033602052604090206002015461265f90610576613364565b61157d5760405162461bcd60e51b81526004016107d690614499565b6002606554141561269e5760405162461bcd60e51b81526004016107d6906146fa565b60026065556126ab611cbb565b156126c85760405162461bcd60e51b81526004016107d6906144f6565b6126f27fb5c00e6706c3d213edd70ff33717fac657eacc5fe161f07180cf1fcab13cc4cd33611fdb565b61270e5760405162461bcd60e51b81526004016107d690614462565b85871161272d5760405162461bcd60e51b81526004016107d6906145f8565b600081815260ce602052604090205460ff161561275c5760405162461bcd60e51b81526004016107d6906145c1565b600081815260ce60209081526040808320805460ff191660011790556001600160a01b038b16835260c990915290205461279690876131c5565b6001600160a01b03808a16600090815260c96020526040812092909255861663342a87a16127c48a8a6131ea565b876040518363ffffffff1660e01b81526004016127e29291906148e7565b60206040518083038186803b1580156127fa57600080fd5b505afa15801561280e573d6000803e3d6000fd5b505050506040513d601f19601f82011682018060405250810190612832919061400e565b9050838110612a825761285a866128498a8a6131ea565b6001600160a01b038c169190613212565b6001600160a01b038616633e3a15606128738a8a6131ea565b8787876040518563ffffffff1660e01b815260040161289594939291906148f8565b602060405180830381600087803b1580156128af57600080fd5b505af19250505080156128fd575060408051601f3d9081017fffffffffffffffffffffffffffffffffffffffffffffffffffffffffffffffe01682019092526128fa9181019061400e565b60015b61297d576129208a61290f8a8a6131ea565b6001600160a01b038c169190613345565b816001600160a01b038b167fc1a608d0f8122d014d03cc915a91d98cef4ebaf31ea3552320430cba05211b6d8b6129578c8c6131ea565b8b8a8a8a60006040516129709796959493929190614215565b60405180910390a3612a7d565b6040517f82b866000000000000000000000000000000000000000000000000000000000081526000906001600160a01b038916906382b86600906129c5908a90600401614916565b60206040518083038186803b1580156129dd57600080fd5b505afa1580156129f1573d6000803e3d6000fd5b505050506040513d601f19601f82011682018060405250810190612a159190613fc5565b9050612a2b6001600160a01b0382168d84613345565b838c6001600160a01b03167fc1a608d0f8122d014d03cc915a91d98cef4ebaf31ea3552320430cba05211b6d8d858d8c8c8c6001604051612a729796959493929190614215565b60405180910390a350505b6125fe565b612a908a61290f8a8a6131ea565b816001600160a01b038b167fc1a608d0f8122d014d03cc915a91d98cef4ebaf31ea3552320430cba05211b6d8b612ac78c8c6131ea565b8b8a8a8a6000604051612ae09796959493929190614215565b60405180910390a3505060016065555050505050505050565b60026065541415612b1c5760405162461bcd60e51b81526004016107d6906146fa565b6002606555612b29611cbb565b15612b465760405162461bcd60e51b81526004016107d6906144f6565b6040517fdd62ed3e0000000000000000000000000000000000000000000000000000000081526000906001600160a01b0384169063dd62ed3e90612b909033903090600401614100565b60206040518083038186803b158015612ba857600080fd5b505afa158015612bbc573d6000803e3d6000fd5b505050506040513d601f19601f82011682018060405250810190612be0919061400e565b90506000836001600160a01b03166370a08231336040518263ffffffff1660e01b8152600401612c1091906140ec565b60206040518083038186803b158015612c2857600080fd5b505afa158015612c3c573d6000803e3d6000fd5b505050506040513d601f19601f82011682018060405250810190612c60919061400e565b90506000818311612c715782612c73565b815b9050866001600160a01b03167ff218d87112279815d939a20a811069382597291bb79fd0bd9ad0b43fd5d6820587878488604051612cb49493929190614849565b60405180910390a26040517f79cc67900000000000000000000000000000000000000000000000000000000081526001600160a01b038616906379cc679090611666903390859060040161411a565b60cb5481565b612d337f71840dc4906352362b0cdaf79870196c8e42acafade72d5d5a6d59291253ceb133611fdb565b612d4f5760405162461bcd60e51b81526004016107d69061452d565b60005b81811015612d9c57600160ce6000858585818110612d6c57fe5b60209081029290920135835250810191909152604001600020805460ff1916911515919091179055600101612d52565b505050565b60026065541415612dc45760405162461bcd60e51b81526004016107d6906146fa565b6002606555612dd1611cbb565b15612dee5760405162461bcd60e51b81526004016107d6906144f6565b6040517fdd62ed3e0000000000000000000000000000000000000000000000000000000081526000906001600160a01b0384169063dd62ed3e90612e389033903090600401614100565b60206040518083038186803b158015612e5057600080fd5b505afa158015612e64573d6000803e3d6000fd5b505050506040513d601f19601f82011682018060405250810190612e88919061400e565b90506000836001600160a01b03166370a08231336040518263ffffffff1660e01b8152600401612eb891906140ec565b60206040518083038186803b158015612ed057600080fd5b505afa158015612ee4573d6000803e3d6000fd5b505050506040513d601f19601f82011682018060405250810190612f08919061400e565b90506000818311612f195782612f1b565b815b9050866001600160a01b03167f26714be20eee9267a8b1120baa355b33f063146cb26b0e604108d3f0b540e2f687878488604051612f5c9493929190614849565b60405180910390a2612f796001600160a01b0386163330846134a8565b505060016065555050505050565b612f8f611cbb565b15612fac5760405162461bcd60e51b81526004016107d6906144f6565b612fd67f71840dc4906352362b0cdaf79870196c8e42acafade72d5d5a6d59291253ceb133611fdb565b612ff25760405162461bcd60e51b81526004016107d69061452d565b6001600160a01b0381166130185760405162461bcd60e51b81526004016107d690614731565b6001600160a01b038216600090815260c960205260409020541561151d576001600160a01b038216600081815260c9602052604090205461305b91908390613345565b506001600160a01b0316600090815260c96020526040812055565b7f71840dc4906352362b0cdaf79870196c8e42acafade72d5d5a6d59291253ceb181565b7fb5c00e6706c3d213edd70ff33717fac657eacc5fe161f07180cf1fcab13cc4cd81565b600260655414156130e15760405162461bcd60e51b81526004016107d6906146fa565b60026065556130ee611cbb565b1561310b5760405162461bcd60e51b81526004016107d6906144f6565b836001600160a01b03167fdc5bad4651c5fbe9977a696aadc65996c468cde1448dd468ec0d83bf61c4b57c8484846040516131489392919061482a565b60405180910390a26040517f79cc67900000000000000000000000000000000000000000000000000000000081526001600160a01b038316906379cc679090613197903390859060040161411a565b600060405180830381600087803b1580156131b157600080fd5b505af1158015612308573d6000803e3d6000fd5b600082820183811015611f205760405162461bcd60e51b81526004016107d690614397565b60008282111561320c5760405162461bcd60e51b81526004016107d6906143ce565b50900390565b600061329c82856001600160a01b031663dd62ed3e30876040518363ffffffff1660e01b8152600401613246929190614100565b60206040518083038186803b15801561325e57600080fd5b505afa158015613272573d6000803e3d6000fd5b505050506040513d601f19601f82011682018060405250810190613296919061400e565b906131c5565b905061333f8463095ea7b360e01b85846040516024016132bd92919061411a565b604080517fffffffffffffffffffffffffffffffffffffffffffffffffffffffffffffffe08184030181529190526020810180517bffffffffffffffffffffffffffffffffffffffffffffffffffffffff167fffffffff00000000000000000000000000000000000000000000000000000000909316929092179091526135fc565b50505050565b612d9c8363a9059cbb60e01b84846040516024016132bd92919061411a565b3390565b6000828152603360205260409020613380908261368b565b1561151d5761338d613364565b6001600160a01b0316816001600160a01b0316837f2f8788117e7eff1d82e926ec794901d17c78024a50270940304540a733656f0d60405160405180910390a45050565b60008281526033602052604090206133e990826136a0565b1561151d576133f6613364565b6001600160a01b0316816001600160a01b0316837ff6391f5c32d9c69d2a47ea670b442974b53935d1edc7fd64eb21e047a839171b60405160405180910390a45050565b613442611cbb565b61345e5760405162461bcd60e51b81526004016107d690614360565b6097805460ff191690557f5db9ee0a495bf2e6ff9c91a7834c1ba4fdd244a5e8aa4e537bd38aeae4b073aa613491613364565b60405161349e91906140ec565b60405180910390a1565b61333f846323b872dd60e01b8585856040516024016132bd93929190614133565b60006134d4306136b5565b15905090565b600054610100900460ff16806134f357506134f36134c9565b80613501575060005460ff16155b61351d5760405162461bcd60e51b81526004016107d690614564565b600054610100900460ff16158015613565576000805460ff197fffffffffffffffffffffffffffffffffffffffffffffffffffffffffffff00ff909116610100171660011790555b61356d6136bb565b611d666136bb565b61357d611cbb565b1561359a5760405162461bcd60e51b81526004016107d6906144f6565b6097805460ff191660011790557f62e78cea01bee320cd4e420270b5ea74000d11b0c9f74754ebdbfc544b05a258613491613364565b6000611f208383613776565b6000611f20836001600160a01b0384166137bb565b6000611f23826137d3565b6060613651826040518060400160405280602081526020017f5361666545524332303a206c6f772d6c6576656c2063616c6c206661696c6564815250856001600160a01b03166137d79092919063ffffffff16565b805190915015612d9c578080602001905181019061366f9190613f3d565b612d9c5760405162461bcd60e51b81526004016107d69061469d565b6000611f20836001600160a01b0384166137f0565b6000611f20836001600160a01b03841661383a565b3b151590565b600054610100900460ff16806136d457506136d46134c9565b806136e2575060005460ff16155b6136fe5760405162461bcd60e51b81526004016107d690614564565b600054610100900460ff16158015611d66576000805460ff197fffffffffffffffffffffffffffffffffffffffffffffffffffffffffffff00ff909116610100171660011790558015611d9557600080547fffffffffffffffffffffffffffffffffffffffffffffffffffffffffffff00ff16905550565b815460009082106137995760405162461bcd60e51b81526004016107d6906142a6565b8260000182815481106137a857fe5b9060005260206000200154905092915050565b60009081526001919091016020526040902054151590565b5490565b60606137e6848460008561391e565b90505b9392505050565b60006137fc83836137bb565b61383257508154600181810184556000848152602080822090930184905584548482528286019093526040902091909155611f23565b506000611f23565b600081815260018301602052604081205480156139145783547fffffffffffffffffffffffffffffffffffffffffffffffffffffffffffffffff808301919081019060009087908390811061388b57fe5b90600052602060002001549050808760000184815481106138a857fe5b6000918252602080832090910192909255828152600189810190925260409020908401905586548790806138d857fe5b60019003818190600052602060002001600090559055866001016000878152602001908152602001600020600090556001945050505050611f23565b6000915050611f23565b6060824710156139405760405162461bcd60e51b81526004016107d690614405565b613949856136b5565b6139655760405162461bcd60e51b81526004016107d69061462f565b60006060866001600160a01b0316858760405161398291906140cd565b60006040518083038185875af1925050503d80600081146139bf576040519150601f19603f3d011682016040523d82523d6000602084013e6139c4565b606091505b50915091506139d48282866139df565b979650505050505050565b606083156139ee5750816137e9565b8251156139fe5782518084602001fd5b8160405162461bcd60e51b81526004016107d69190614255565b600060808284031215613a29578081fd5b50919050565b803560ff81168114611f2357600080fd5b600060208284031215613a51578081fd5b8135611f2081614a06565b600080600080600060a08688031215613a73578081fd5b8535613a7e81614a06565b94506020860135613a8e81614a06565b94979496505050506040830135926060810135926080909101359150565b6000806000806000806000806000806101408b8d031215613acb578485fd5b8a35613ad681614a06565b995060208b0135613ae681614a06565b985060408b0135975060608b0135965060808b0135613b0481614a06565b9550613b138c60a08d01613a2f565b9450613b228c60c08d01613a2f565b935060e08b013592506101008b013591506101208b013590509295989b9194979a5092959850565b60008060008060008060c08789031215613b62578182fd5b8635613b6d81614a06565b95506020870135613b7d81614a06565b94506040870135935060608701359250608087013567ffffffffffffffff811115613ba6578283fd5b613bb289828a01613a18565b92505060a087013590509295509295509295565b60008060008060008060008060006101208a8c031215613be4578283fd5b8935613bef81614a06565b985060208a0135613bff81614a06565b975060408a0135965060608a0135955060808a0135613c1d81614a06565b945060a08a0135613c2d81614a1b565b8094505060c08a0135925060e08a013591506101008a013590509295985092959850929598565b60008060008060008060c08789031215613b62578384fd5b600080600060608486031215613c80578081fd5b8335613c8b81614a06565b9250602084013591506040840135613ca281614a06565b809150509250925092565b60008060008060808587031215613cc2578182fd5b8435613ccd81614a06565b9350602085013592506040850135613ce481614a06565b9150606085013567ffffffffffffffff811115613cff578182fd5b613d0b87828801613a18565b91505092959194509250565b60008060008060808587031215613d2c578182fd5b8435613d3781614a06565b9350602085013592506040850135613d4e81614a06565b9396929550929360600135925050565b600080600080600080600060e0888a031215613d78578081fd5b8735613d8381614a06565b9650602088013595506040880135613d9a81614a06565b945060608801359350613db08960808a01613a2f565b925060a0880135915060c0880135905092959891949750929550565b600080600080600080600080610100898b031215613de8578182fd5b8835613df381614a06565b9750602089013596506040890135613e0a81614a06565b955060608901359450613e208a60808b01613a2f565b9350613e2f8a60a08b01613a2f565b925060c0890135915060e089013590509295985092959890939650565b600080600080600080600080610100898b031215613e68578182fd5b8835613e7381614a06565b9750602089013596506040890135613e8a81614a06565b9550606089013594506080890135613ea181614a1b565b935060a0890135613eb181614a1b565b979a969950949793969295929450505060c08201359160e0013590565b60008060208385031215613ee0578182fd5b823567ffffffffffffffff80821115613ef7578384fd5b818501915085601f830112613f0a578384fd5b813581811115613f18578485fd5b8660208083028501011115613f2b578485fd5b60209290920196919550909350505050565b600060208284031215613f4e578081fd5b81518015158114611f20578182fd5b600060208284031215613f6e578081fd5b5035919050565b60008060408385031215613f87578182fd5b823591506020830135613f9981614a06565b809150509250929050565b60008060408385031215613fb6578182fd5b50508035926020909101359150565b600060208284031215613fd6578081fd5b8151611f2081614a06565b60008060408385031215613ff3578182fd5b8235613ffe81614a06565b91506020830135613f9981614a06565b60006020828403121561401f578081fd5b5051919050565b60008284526020808501945082825b8581101561406357813561404881614a06565b6001600160a01b031687529582019590820190600101614035565b509495945050505050565b6000813583526020820135602084015261408b604083018361496d565b608060408601526140a0608086018284614026565b9150506140b0606084018461496d565b85830360608701526140c3838284614026565b9695505050505050565b600082516140df8184602087016149da565b9190910192915050565b90565b6001600160a01b0391909116815260200190565b6001600160a01b0392831681529116602082015260400190565b6001600160a01b03929092168252602082015260400190565b6001600160a01b039384168152919092166020820152604081019190915260600190565b901515815260200190565b90815260200190565b6001600160a01b039390931683526020830191909152604082015260600190565b60006001600160a01b038716825285602083015284604083015260a060608301526141ba60a083018561406e565b905082151560808301529695505050505050565b6001600160a01b039890981688526020880196909652604087019490945260ff92831660608701529116608085015260a084015260c0830152151560e08201526101000190565b6001600160a01b039790971687526020870195909552604086019390935260ff919091166060850152608084015260a0830152151560c082015260e00190565b60006020825282518060208401526142748160408501602087016149da565b601f017fffffffffffffffffffffffffffffffffffffffffffffffffffffffffffffffe0169190910160400192915050565b60208082526022908201527f456e756d657261626c655365743a20696e646578206f7574206f6620626f756e60408201527f6473000000000000000000000000000000000000000000000000000000000000606082015260800190565b6020808252602f908201527f416363657373436f6e74726f6c3a2073656e646572206d75737420626520616e60408201527f2061646d696e20746f206772616e740000000000000000000000000000000000606082015260800190565b60208082526014908201527f5061757361626c653a206e6f7420706175736564000000000000000000000000604082015260600190565b6020808252601b908201527f536166654d6174683a206164646974696f6e206f766572666c6f770000000000604082015260600190565b6020808252601e908201527f536166654d6174683a207375627472616374696f6e206f766572666c6f770000604082015260600190565b60208082526026908201527f416464726573733a20696e73756666696369656e742062616c616e636520666f60408201527f722063616c6c0000000000000000000000000000000000000000000000000000606082015260800190565b6020808252601a908201527f43616c6c6572206973206e6f742061206e6f64652067726f7570000000000000604082015260600190565b60208082526030908201527f416363657373436f6e74726f6c3a2073656e646572206d75737420626520616e60408201527f2061646d696e20746f207265766f6b6500000000000000000000000000000000606082015260800190565b60208082526010908201527f5061757361626c653a2070617573656400000000000000000000000000000000604082015260600190565b6020808252600e908201527f4e6f7420676f7665726e616e6365000000000000000000000000000000000000604082015260600190565b6020808252602e908201527f496e697469616c697a61626c653a20636f6e747261637420697320616c72656160408201527f647920696e697469616c697a6564000000000000000000000000000000000000606082015260800190565b60208082526018908201527f4b6170706120697320616c72656164792070726573656e740000000000000000604082015260600190565b6020808252601f908201527f416d6f756e74206d7573742062652067726561746572207468616e2066656500604082015260600190565b6020808252601d908201527f416464726573733a2063616c6c20746f206e6f6e2d636f6e7472616374000000604082015260600190565b60208082526013908201527f4554485f5452414e534645525f4641494c454400000000000000000000000000604082015260600190565b6020808252602a908201527f5361666545524332303a204552433230206f7065726174696f6e20646964206e60408201527f6f74207375636365656400000000000000000000000000000000000000000000606082015260800190565b6020808252601f908201527f5265656e7472616e637947756172643a207265656e7472616e742063616c6c00604082015260600190565b60208082526010908201527f4164647265737320697320307830303000000000000000000000000000000000604082015260600190565b60208082526009908201527f4e6f742061646d696e0000000000000000000000000000000000000000000000604082015260600190565b6020808252602f908201527f416363657373436f6e74726f6c3a2063616e206f6e6c792072656e6f756e636560408201527f20726f6c657320666f722073656c660000000000000000000000000000000000606082015260800190565b60006060825261480f606083018661406e565b6001600160a01b039490941660208301525060400152919050565b9283526001600160a01b03919091166020830152604082015260600190565b60008582526001600160a01b0385166020830152836040830152608060608301526140c3608083018461406e565b9586526001600160a01b03949094166020860152604085019290925260ff166060840152608083015260a082015260c00190565b9687526001600160a01b03959095166020870152604086019390935260ff918216606086015216608084015260a083015260c082015260e00190565b91825260ff16602082015260400190565b93845260ff9290921660208401526040830152606082015260800190565b60ff91909116815260200190565b60ff9384168152919092166020820152604081019190915260600190565b60ff958616815293909416602084015260408301919091526060820152608081019190915260a00190565b60008083357fffffffffffffffffffffffffffffffffffffffffffffffffffffffffffffffe18436030181126149a1578283fd5b830160208101925035905067ffffffffffffffff8111156149c157600080fd5b6020810236038313156149d357600080fd5b9250929050565b60005b838110156149f55781810151838201526020016149dd565b8381111561333f5750506000910152565b6001600160a01b0381168114611d9557600080fd5b60ff81168114611d9557600080fdfea2646970667358221220e728474dead3e77068f9406f93d91646c75dfced42eb9cd21a2661d091ed7b7964736f6c634300060c0033",
  "devdoc": {
    "kind": "dev",
    "methods": {
      "deposit(address,uint256,address,uint256)": {
        "params": {
          "amount": "Amount in native token decimals to transfer cross-chain pre-fees*",
          "chainId": "which chain to bridge assets onto",
          "to": "address on other chain to bridge assets to",
          "token": "ERC20 compatible token to deposit into the bridge"
        }
      },
      "depositAndSwap(address,uint256,address,uint256,uint8,uint8,uint256,uint256)": {
        "params": {
          "amount": "Amount in native token decimals to transfer cross-chain pre-fees",
          "chainId": "which chain to bridge assets onto",
          "deadline": "latest timestamp to accept this transaction*",
          "minDy": "the min amount the user would like to receive, or revert to only minting the SynERC20 token crosschain.",
          "to": "address on other chain to bridge assets to",
          "token": "ERC20 compatible token to deposit into the bridge",
          "tokenIndexFrom": "the token the user wants to swap from",
          "tokenIndexTo": "the token the user wants to swap to"
        }
      },
      "depositMax(address,uint256,address)": {
        "params": {
          "chainId": "which chain to bridge assets onto",
          "to": "address on other chain to bridge assets to",
          "token": "ERC20 compatible token to deposit into the bridge*"
        }
      },
      "depositMaxAndSwapV2(address,uint256,address,(uint256,uint256,address[],address[]))": {
        "params": {
          "_trade": "trade data to call router with on dest chain*",
          "chainId": "which chain to bridge assets onto",
          "to": "address on other chain to bridge assets to",
          "token": "ERC20 compatible token to deposit into the bridge"
        }
      },
      "getRoleAdmin(bytes32)": {
        "details": "Returns the admin role that controls `role`. See {grantRole} and {revokeRole}. To change a role's admin, use {_setRoleAdmin}."
      },
      "getRoleMember(bytes32,uint256)": {
        "details": "Returns one of the accounts that have `role`. `index` must be a value between 0 and {getRoleMemberCount}, non-inclusive. Role bearers are not sorted in any particular way, and their ordering may change at any point. WARNING: When using {getRoleMember} and {getRoleMemberCount}, make sure you perform all queries on the same block. See the following https://forum.openzeppelin.com/t/iterating-over-elements-on-enumerableset-in-openzeppelin-contracts/2296[forum post] for more information."
      },
      "getRoleMemberCount(bytes32)": {
        "details": "Returns the number of accounts that have `role`. Can be used together with {getRoleMember} to enumerate all bearers of a role."
      },
      "grantRole(bytes32,address)": {
        "details": "Grants `role` to `account`. If `account` had not been already granted `role`, emits a {RoleGranted} event. Requirements: - the caller must have ``role``'s admin role."
      },
      "hasRole(bytes32,address)": {
        "details": "Returns `true` if `account` has been granted `role`."
      },
      "mint(address,address,uint256,uint256,bytes32)": {
        "details": "This means the SynapseBridge.sol contract must have minter access to the token attempting to be minted",
        "params": {
          "amount": "Amount in native token decimals to transfer cross-chain post-fees",
          "fee": "Amount in native token decimals to save to the contract as fees",
          "kappa": "kappa*",
          "to": "address on other chain to redeem underlying assets to",
          "token": "ERC20 compatible token to deposit into the bridge"
        }
      },
      "mintAndSwap(address,address,uint256,uint256,address,uint8,uint8,uint256,uint256,bytes32)": {
        "details": "This means the BridgeDeposit.sol contract must have minter access to the token attempting to be minted",
        "params": {
          "amount": "Amount in native token decimals to transfer cross-chain post-fees",
          "deadline": "Epoch time of the deadline that the swap is allowed to be executed.",
          "fee": "Amount in native token decimals to save to the contract as fees",
          "kappa": "kappa*",
          "minDy": "Minumum amount (in final asset decimals) that must be swapped for, otherwise the user will receive the SynERC20.",
          "pool": "Destination chain's pool to use to swap SynERC20 -> Asset. The nodes determine this by using PoolConfig.sol.",
          "to": "address on other chain to redeem underlying assets to",
          "token": "ERC20 compatible token to deposit into the bridge",
          "tokenIndexFrom": "Index of the SynERC20 asset in the pool",
          "tokenIndexTo": "Index of the desired final asset"
        }
      },
      "mintAndSwapV2(address,address,uint256,uint256,(uint256,uint256,address[],address[]),bytes32)": {
        "details": "This means the BridgeDeposit.sol contract must have minter access to the token attempting to be minted",
        "params": {
          "_trade": "trade data to call router with on dest chain ",
          "amount": "Amount in native token decimals to transfer cross-chain post-fees",
          "fee": "Amount in native token decimals to save to the contract as fees",
          "kappa": "kappa*",
          "to": "address on other chain to redeem underlying assets to",
          "token": "ERC20 compatible token to deposit into the bridge"
        }
      },
      "paused()": {
        "details": "Returns true if the contract is paused, and false otherwise."
      },
      "redeem(address,uint256,address,uint256)": {
        "params": {
          "amount": "Amount in native token decimals to transfer cross-chain pre-fees*",
          "chainId": "which underlying chain to bridge assets onto",
          "to": "address on other chain to redeem underlying assets to",
          "token": "ERC20 compatible token to deposit into the bridge"
        }
      },
      "redeemAndRemove(address,uint256,address,uint256,uint8,uint256,uint256)": {
        "params": {
          "amount": "Amount in native token decimals to transfer cross-chain pre-fees",
          "chainId": "which underlying chain to bridge assets onto",
          "swapDeadline": "Specificies the deadline that the nodes are allowed to try to redeem/swap the LP token*",
          "swapMinAmount": "Specifies the minimum amount of the underlying asset needed for the nodes to execute the redeem/swap",
          "swapTokenIndex": "Specifies which of the underlying LP assets the nodes should attempt to redeem for",
          "to": "address on other chain to redeem underlying assets to",
          "token": "ERC20 compatible token to deposit into the bridge"
        }
      },
      "redeemAndSwap(address,uint256,address,uint256,uint8,uint8,uint256,uint256)": {
        "params": {
          "amount": "Amount in native token decimals to transfer cross-chain pre-fees",
          "chainId": "which underlying chain to bridge assets onto",
          "deadline": "latest timestamp to accept this transaction*",
          "minDy": "the min amount the user would like to receive, or revert to only minting the SynERC20 token crosschain.",
          "to": "address on other chain to redeem underlying assets to",
          "token": "ERC20 compatible token to deposit into the bridge",
          "tokenIndexFrom": "the token the user wants to swap from",
          "tokenIndexTo": "the token the user wants to swap to"
        }
      },
      "redeemMax(address,uint256,address)": {
        "params": {
          "chainId": "which underlying chain to bridge assets onto",
          "to": "address on other chain to redeem underlying assets to",
          "token": "ERC20 compatible token to deposit into the bridge*"
        }
      },
      "redeemMaxAndSwapV2(address,uint256,address,(uint256,uint256,address[],address[]))": {
        "params": {
          "_trade": "trade data to call router with on dest chain*",
          "chainId": "which underlying chain to bridge assets onto",
          "to": "address on other chain to redeem underlying assets to",
          "token": "ERC20 compatible token to deposit into the bridge"
        }
      },
      "renounceRole(bytes32,address)": {
        "details": "Revokes `role` from the calling account. Roles are often managed via {grantRole} and {revokeRole}: this function's purpose is to provide a mechanism for accounts to lose their privileges if they are compromised (such as when a trusted device is misplaced). If the calling account had been granted `role`, emits a {RoleRevoked} event. Requirements: - the caller must be `account`."
      },
      "revokeRole(bytes32,address)": {
        "details": "Revokes `role` from `account`. If `account` had been granted `role`, emits a {RoleRevoked} event. Requirements: - the caller must have ``role``'s admin role."
      },
      "withdraw(address,address,uint256,uint256,bytes32)": {
        "params": {
          "amount": "Amount in native token decimals to withdraw",
          "fee": "Amount in native token decimals to save to the contract as fees",
          "kappa": "kappa*",
          "to": "address on chain to send underlying assets to",
          "token": "ERC20 compatible token to withdraw from the bridge"
        }
      },
      "withdrawAndRemove(address,address,uint256,uint256,address,uint8,uint256,uint256,bytes32)": {
        "params": {
          "amount": "Amount in native token decimals to withdraw",
          "fee": "Amount in native token decimals to save to the contract as fees",
          "kappa": "kappa*",
          "pool": "Destination chain's pool to use to swap SynERC20 -> Asset. The nodes determine this by using PoolConfig.sol.",
          "swapDeadline": "Specificies the deadline that the nodes are allowed to try to redeem/swap the LP token",
          "swapMinAmount": "Specifies the minimum amount of the underlying asset needed for the nodes to execute the redeem/swap",
          "swapTokenIndex": "Specifies which of the underlying LP assets the nodes should attempt to redeem for",
          "to": "address on chain to send underlying assets to",
          "token": "ERC20 compatible token to withdraw from the bridge"
        }
      },
      "withdrawAndSwapV2(address,address,uint256,uint256,(uint256,uint256,address[],address[]),bytes32)": {
        "params": {
          "_trade": "trade data to call router with on dest chain",
          "amount": "Amount in native token decimals to withdraw",
          "fee": "Amount in native token decimals to save to the contract as fees",
          "kappa": "kappa*",
          "to": "address on chain to send underlying assets to",
          "token": "ERC20 compatible token to withdraw from the bridge"
        }
      },
      "withdrawFees(address,address)": {
        "params": {
          "to": "Address to send the fees to",
          "token": "ERC20 token in which fees acccumulated to transfer"
        }
      }
    },
    "version": 1
  },
  "userdoc": {
    "kind": "user",
    "methods": {
      "deposit(address,uint256,address,uint256)": {
        "notice": "Relays to nodes to transfers an ERC20 token cross-chain"
      },
      "depositAndSwap(address,uint256,address,uint256,uint8,uint8,uint256,uint256)": {
        "notice": "Relays to nodes to both transfer an ERC20 token cross-chain, and then have the nodes execute a swap through a liquidity pool on behalf of the user."
      },
      "depositMax(address,uint256,address)": {
        "notice": "Relays to nodes to transfers an ERC20 token cross-chain"
      },
      "depositMaxAndSwapV2(address,uint256,address,(uint256,uint256,address[],address[]))": {
        "notice": "Relays to nodes to both transfer an ERC20 token cross-chain, and then have the nodes execute a swap through a liquidity pool on behalf of the user."
      },
      "mint(address,address,uint256,uint256,bytes32)": {
        "notice": "Nodes call this function to mint a SynERC20 (or any asset that the bridge is given minter access to). This is called by the nodes after a TokenDepositV2 event is emitted."
      },
      "mintAndSwap(address,address,uint256,uint256,address,uint8,uint8,uint256,uint256,bytes32)": {
        "notice": "Nodes call this function to mint a SynERC20 (or any asset that the bridge is given minter access to), and then attempt to swap the SynERC20 into the desired destination asset. This is called by the nodes after a TokenDepositAndSwap event is emitted."
      },
      "mintAndSwapV2(address,address,uint256,uint256,(uint256,uint256,address[],address[]),bytes32)": {
        "notice": "Nodes call this function to mint a SynERC20 (or any asset that the bridge is given minter access to), and then attempt to swap the SynERC20 into the desired destination asset. This is called by the nodes after a TokenDepositAndSwapV2 event is emitted."
      },
      "redeem(address,uint256,address,uint256)": {
        "notice": "Relays to nodes that (typically) a wrapped synAsset ERC20 token has been burned and the underlying needs to be redeeemed on the native chain"
      },
      "redeemAndRemove(address,uint256,address,uint256,uint8,uint256,uint256)": {
        "notice": "Relays to nodes that (typically) a wrapped synAsset ERC20 token has been burned and the underlying needs to be redeeemed on the native chain. This function indicates to the nodes that they should attempt to redeem the LP token for the underlying assets (E.g \"swap\" out of the LP token)"
      },
      "redeemAndSwap(address,uint256,address,uint256,uint8,uint8,uint256,uint256)": {
        "notice": "Relays to nodes that (typically) a wrapped synAsset ERC20 token has been burned and the underlying needs to be redeeemed on the native chain. This function indicates to the nodes that they should attempt to redeem the LP token for the underlying assets (E.g \"swap\" out of the LP token)"
      },
      "redeemMax(address,uint256,address)": {
        "notice": "Relays to nodes that (typically) a wrapped synAsset ERC20 token has been burned and the underlying needs to be redeeemed on the native chain"
      },
      "redeemMaxAndSwapV2(address,uint256,address,(uint256,uint256,address[],address[]))": {
        "notice": "Relays to nodes that (typically) a wrapped synAsset ERC20 token has been burned and the underlying needs to be redeeemed on the native chain"
      },
      "withdraw(address,address,uint256,uint256,bytes32)": {
        "notice": "Function to be called by the node group to withdraw the underlying assets from the contract"
      },
      "withdrawAndRemove(address,address,uint256,uint256,address,uint8,uint256,uint256,bytes32)": {
        "notice": "Function to be called by the node group to withdraw the underlying assets from the contract"
      },
      "withdrawAndSwapV2(address,address,uint256,uint256,(uint256,uint256,address[],address[]),bytes32)": {
        "notice": "Function to be called by the node group to withdraw the underlying assets from the contract"
      },
      "withdrawFees(address,address)": {
        "notice": "withdraw specified ERC20 token fees to a given address"
      }
    },
    "version": 1
  },
  "storageLayout": {
    "storage": [
      {
        "astId": 1286,
        "contract": "contracts/bridge/SynapseBridge.sol:SynapseBridge",
        "label": "_initialized",
        "offset": 0,
        "slot": "0",
        "type": "t_bool"
      },
      {
        "astId": 1289,
        "contract": "contracts/bridge/SynapseBridge.sol:SynapseBridge",
        "label": "_initializing",
        "offset": 1,
        "slot": "0",
        "type": "t_bool"
      },
      {
        "astId": 2325,
        "contract": "contracts/bridge/SynapseBridge.sol:SynapseBridge",
        "label": "__gap",
        "offset": 0,
        "slot": "1",
        "type": "t_array(t_uint256)50_storage"
      },
      {
        "astId": 43,
        "contract": "contracts/bridge/SynapseBridge.sol:SynapseBridge",
        "label": "_roles",
        "offset": 0,
        "slot": "51",
        "type": "t_mapping(t_bytes32,t_struct(RoleData)39_storage)"
      },
      {
        "astId": 306,
        "contract": "contracts/bridge/SynapseBridge.sol:SynapseBridge",
        "label": "__gap",
        "offset": 0,
        "slot": "52",
        "type": "t_array(t_uint256)49_storage"
      },
      {
        "astId": 2995,
        "contract": "contracts/bridge/SynapseBridge.sol:SynapseBridge",
        "label": "_status",
        "offset": 0,
        "slot": "101",
        "type": "t_uint256"
      },
      {
        "astId": 3038,
        "contract": "contracts/bridge/SynapseBridge.sol:SynapseBridge",
        "label": "__gap",
        "offset": 0,
        "slot": "102",
        "type": "t_array(t_uint256)49_storage"
      },
      {
        "astId": 2889,
        "contract": "contracts/bridge/SynapseBridge.sol:SynapseBridge",
        "label": "_paused",
        "offset": 0,
        "slot": "151",
        "type": "t_bool"
      },
      {
        "astId": 2980,
        "contract": "contracts/bridge/SynapseBridge.sol:SynapseBridge",
        "label": "__gap",
        "offset": 0,
        "slot": "152",
        "type": "t_array(t_uint256)49_storage"
      },
      {
        "astId": 23798,
        "contract": "contracts/bridge/SynapseBridge.sol:SynapseBridge",
        "label": "fees",
        "offset": 0,
        "slot": "201",
        "type": "t_mapping(t_address,t_uint256)"
      },
      {
        "astId": 23800,
        "contract": "contracts/bridge/SynapseBridge.sol:SynapseBridge",
        "label": "startBlockNumber",
        "offset": 0,
        "slot": "202",
        "type": "t_uint256"
      },
      {
        "astId": 23805,
        "contract": "contracts/bridge/SynapseBridge.sol:SynapseBridge",
        "label": "chainGasAmount",
        "offset": 0,
        "slot": "203",
        "type": "t_uint256"
      },
      {
        "astId": 23807,
        "contract": "contracts/bridge/SynapseBridge.sol:SynapseBridge",
        "label": "WETH_ADDRESS",
        "offset": 0,
        "slot": "204",
        "type": "t_address_payable"
      },
      {
        "astId": 23809,
        "contract": "contracts/bridge/SynapseBridge.sol:SynapseBridge",
        "label": "ROUTER",
        "offset": 0,
        "slot": "205",
        "type": "t_address"
      },
      {
        "astId": 23813,
        "contract": "contracts/bridge/SynapseBridge.sol:SynapseBridge",
        "label": "kappaMap",
        "offset": 0,
        "slot": "206",
        "type": "t_mapping(t_bytes32,t_bool)"
      }
    ],
    "types": {
      "t_address": {
        "encoding": "inplace",
        "label": "address",
        "numberOfBytes": "20"
      },
      "t_address_payable": {
        "encoding": "inplace",
        "label": "address payable",
        "numberOfBytes": "20"
      },
      "t_array(t_bytes32)dyn_storage": {
        "base": "t_bytes32",
        "encoding": "dynamic_array",
        "label": "bytes32[]",
        "numberOfBytes": "32"
      },
      "t_array(t_uint256)49_storage": {
        "base": "t_uint256",
        "encoding": "inplace",
        "label": "uint256[49]",
        "numberOfBytes": "1568"
      },
      "t_array(t_uint256)50_storage": {
        "base": "t_uint256",
        "encoding": "inplace",
        "label": "uint256[50]",
        "numberOfBytes": "1600"
      },
      "t_bool": {
        "encoding": "inplace",
        "label": "bool",
        "numberOfBytes": "1"
      },
      "t_bytes32": {
        "encoding": "inplace",
        "label": "bytes32",
        "numberOfBytes": "32"
      },
      "t_mapping(t_address,t_uint256)": {
        "encoding": "mapping",
        "key": "t_address",
        "label": "mapping(address => uint256)",
        "numberOfBytes": "32",
        "value": "t_uint256"
      },
      "t_mapping(t_bytes32,t_bool)": {
        "encoding": "mapping",
        "key": "t_bytes32",
        "label": "mapping(bytes32 => bool)",
        "numberOfBytes": "32",
        "value": "t_bool"
      },
      "t_mapping(t_bytes32,t_struct(RoleData)39_storage)": {
        "encoding": "mapping",
        "key": "t_bytes32",
        "label": "mapping(bytes32 => struct AccessControlUpgradeable.RoleData)",
        "numberOfBytes": "32",
        "value": "t_struct(RoleData)39_storage"
      },
      "t_mapping(t_bytes32,t_uint256)": {
        "encoding": "mapping",
        "key": "t_bytes32",
        "label": "mapping(bytes32 => uint256)",
        "numberOfBytes": "32",
        "value": "t_uint256"
      },
      "t_struct(AddressSet)2652_storage": {
        "encoding": "inplace",
        "label": "struct EnumerableSetUpgradeable.AddressSet",
        "members": [
          {
            "astId": 2651,
            "contract": "contracts/bridge/SynapseBridge.sol:SynapseBridge",
            "label": "_inner",
            "offset": 0,
            "slot": "0",
            "type": "t_struct(Set)2387_storage"
          }
        ],
        "numberOfBytes": "64"
      },
      "t_struct(RoleData)39_storage": {
        "encoding": "inplace",
        "label": "struct AccessControlUpgradeable.RoleData",
        "members": [
          {
            "astId": 36,
            "contract": "contracts/bridge/SynapseBridge.sol:SynapseBridge",
            "label": "members",
            "offset": 0,
            "slot": "0",
            "type": "t_struct(AddressSet)2652_storage"
          },
          {
            "astId": 38,
            "contract": "contracts/bridge/SynapseBridge.sol:SynapseBridge",
            "label": "adminRole",
            "offset": 0,
            "slot": "2",
            "type": "t_bytes32"
          }
        ],
        "numberOfBytes": "96"
      },
      "t_struct(Set)2387_storage": {
        "encoding": "inplace",
        "label": "struct EnumerableSetUpgradeable.Set",
        "members": [
          {
            "astId": 2382,
            "contract": "contracts/bridge/SynapseBridge.sol:SynapseBridge",
            "label": "_values",
            "offset": 0,
            "slot": "0",
            "type": "t_array(t_bytes32)dyn_storage"
          },
          {
            "astId": 2386,
            "contract": "contracts/bridge/SynapseBridge.sol:SynapseBridge",
            "label": "_indexes",
            "offset": 0,
            "slot": "1",
            "type": "t_mapping(t_bytes32,t_uint256)"
          }
        ],
        "numberOfBytes": "64"
      },
      "t_uint256": {
        "encoding": "inplace",
        "label": "uint256",
        "numberOfBytes": "32"
      }
    }
  }
}