{
  "address": "0xCe1618175F590817B7dBd2eB8e8747098dC040e6",
  "abi": [
    {
      "anonymous": false,
      "inputs": [
        {
          "indexed": false,
          "internalType": "address",
          "name": "account",
          "type": "address"
        }
      ],
      "name": "Paused",
      "type": "event"
    },
    {
      "anonymous": false,
      "inputs": [
        {
          "indexed": true,
          "internalType": "bytes32",
          "name": "role",
          "type": "bytes32"
        },
        {
          "indexed": true,
          "internalType": "bytes32",
          "name": "previousAdminRole",
          "type": "bytes32"
        },
        {
          "indexed": true,
          "internalType": "bytes32",
          "name": "newAdminRole",
          "type": "bytes32"
        }
      ],
      "name": "RoleAdminChanged",
      "type": "event"
    },
    {
      "anonymous": false,
      "inputs": [
        {
          "indexed": true,
          "internalType": "bytes32",
          "name": "role",
          "type": "bytes32"
        },
        {
          "indexed": true,
          "internalType": "address",
          "name": "account",
          "type": "address"
        },
        {
          "indexed": true,
          "internalType": "address",
          "name": "sender",
          "type": "address"
        }
      ],
      "name": "RoleGranted",
      "type": "event"
    },
    {
      "anonymous": false,
      "inputs": [
        {
          "indexed": true,
          "internalType": "bytes32",
          "name": "role",
          "type": "bytes32"
        },
        {
          "indexed": true,
          "internalType": "address",
          "name": "account",
          "type": "address"
        },
        {
          "indexed": true,
          "internalType": "address",
          "name": "sender",
          "type": "address"
        }
      ],
      "name": "RoleRevoked",
      "type": "event"
    },
    {
      "anonymous": false,
      "inputs": [
        {
          "indexed": true,
          "internalType": "address",
          "name": "to",
          "type": "address"
        },
        {
          "indexed": false,
          "internalType": "uint256",
          "name": "chainId",
          "type": "uint256"
        },
        {
          "indexed": false,
          "internalType": "contract IERC20",
          "name": "token",
          "type": "address"
        },
        {
          "indexed": false,
          "internalType": "uint256",
          "name": "amount",
          "type": "uint256"
        }
      ],
      "name": "TokenDeposit",
      "type": "event"
    },
    {
      "anonymous": false,
      "inputs": [
        {
          "indexed": true,
          "internalType": "address",
          "name": "to",
          "type": "address"
        },
        {
          "indexed": false,
          "internalType": "uint256",
          "name": "chainId",
          "type": "uint256"
        },
        {
          "indexed": false,
          "internalType": "contract IERC20",
          "name": "token",
          "type": "address"
        },
        {
          "indexed": false,
          "internalType": "uint256",
          "name": "amount",
          "type": "uint256"
        },
        {
          "indexed": false,
          "internalType": "uint8",
          "name": "tokenIndexFrom",
          "type": "uint8"
        },
        {
          "indexed": false,
          "internalType": "uint8",
          "name": "tokenIndexTo",
          "type": "uint8"
        },
        {
          "indexed": false,
          "internalType": "uint256",
          "name": "minDy",
          "type": "uint256"
        },
        {
          "indexed": false,
          "internalType": "uint256",
          "name": "deadline",
          "type": "uint256"
        }
      ],
      "name": "TokenDepositAndSwap",
      "type": "event"
    },
    {
      "anonymous": false,
      "inputs": [
        {
          "indexed": true,
          "internalType": "address",
          "name": "to",
          "type": "address"
        },
        {
          "indexed": false,
          "internalType": "uint256",
          "name": "chainId",
          "type": "uint256"
        },
        {
          "indexed": false,
          "internalType": "contract IERC20",
          "name": "token",
          "type": "address"
        },
        {
          "indexed": false,
          "internalType": "uint256",
          "name": "amount",
          "type": "uint256"
        },
        {
          "indexed": false,
          "internalType": "address[]",
          "name": "path",
          "type": "address[]"
        },
        {
          "indexed": false,
          "internalType": "address[]",
          "name": "adapters",
          "type": "address[]"
        },
        {
          "indexed": false,
          "internalType": "uint256",
          "name": "maxBridgeSlippage",
          "type": "uint256"
        }
      ],
      "name": "TokenDepositAndSwapV2",
      "type": "event"
    },
    {
      "anonymous": false,
      "inputs": [
        {
          "indexed": true,
          "internalType": "address",
          "name": "to",
          "type": "address"
        },
        {
          "indexed": false,
          "internalType": "contract IERC20Mintable",
          "name": "token",
          "type": "address"
        },
        {
          "indexed": false,
          "internalType": "uint256",
          "name": "amount",
          "type": "uint256"
        },
        {
          "indexed": false,
          "internalType": "uint256",
          "name": "fee",
          "type": "uint256"
        },
        {
          "indexed": true,
          "internalType": "bytes32",
          "name": "kappa",
          "type": "bytes32"
        }
      ],
      "name": "TokenMint",
      "type": "event"
    },
    {
      "anonymous": false,
      "inputs": [
        {
          "indexed": true,
          "internalType": "address",
          "name": "to",
          "type": "address"
        },
        {
          "indexed": false,
          "internalType": "contract IERC20Mintable",
          "name": "token",
          "type": "address"
        },
        {
          "indexed": false,
          "internalType": "uint256",
          "name": "amount",
          "type": "uint256"
        },
        {
          "indexed": false,
          "internalType": "uint256",
          "name": "fee",
          "type": "uint256"
        },
        {
          "indexed": false,
          "internalType": "uint8",
          "name": "tokenIndexFrom",
          "type": "uint8"
        },
        {
          "indexed": false,
          "internalType": "uint8",
          "name": "tokenIndexTo",
          "type": "uint8"
        },
        {
          "indexed": false,
          "internalType": "uint256",
          "name": "minDy",
          "type": "uint256"
        },
        {
          "indexed": false,
          "internalType": "uint256",
          "name": "deadline",
          "type": "uint256"
        },
        {
          "indexed": false,
          "internalType": "bool",
          "name": "swapSuccess",
          "type": "bool"
        },
        {
          "indexed": true,
          "internalType": "bytes32",
          "name": "kappa",
          "type": "bytes32"
        }
      ],
      "name": "TokenMintAndSwap",
      "type": "event"
    },
    {
      "anonymous": false,
      "inputs": [
        {
          "indexed": true,
          "internalType": "address",
          "name": "to",
          "type": "address"
        },
        {
          "indexed": false,
          "internalType": "contract IERC20Mintable",
          "name": "token",
          "type": "address"
        },
        {
          "indexed": false,
          "internalType": "uint256",
          "name": "amount",
          "type": "uint256"
        },
        {
          "indexed": false,
          "internalType": "uint256",
          "name": "fee",
          "type": "uint256"
        },
        {
          "indexed": false,
          "internalType": "address[]",
          "name": "path",
          "type": "address[]"
        },
        {
          "indexed": false,
          "internalType": "address[]",
          "name": "adapters",
          "type": "address[]"
        },
        {
          "indexed": false,
          "internalType": "uint256",
          "name": "maxBridgeSlippage",
          "type": "uint256"
        },
        {
          "indexed": false,
          "internalType": "bool",
          "name": "swapSuccess",
          "type": "bool"
        },
        {
          "indexed": true,
          "internalType": "bytes32",
          "name": "kappa",
          "type": "bytes32"
        }
      ],
      "name": "TokenMintAndSwapV2",
      "type": "event"
    },
    {
      "anonymous": false,
      "inputs": [
        {
          "indexed": true,
          "internalType": "address",
          "name": "to",
          "type": "address"
        },
        {
          "indexed": false,
          "internalType": "uint256",
          "name": "chainId",
          "type": "uint256"
        },
        {
          "indexed": false,
          "internalType": "contract IERC20",
          "name": "token",
          "type": "address"
        },
        {
          "indexed": false,
          "internalType": "uint256",
          "name": "amount",
          "type": "uint256"
        }
      ],
      "name": "TokenRedeem",
      "type": "event"
    },
    {
      "anonymous": false,
      "inputs": [
        {
          "indexed": true,
          "internalType": "address",
          "name": "to",
          "type": "address"
        },
        {
          "indexed": false,
          "internalType": "uint256",
          "name": "chainId",
          "type": "uint256"
        },
        {
          "indexed": false,
          "internalType": "contract IERC20",
          "name": "token",
          "type": "address"
        },
        {
          "indexed": false,
          "internalType": "uint256",
          "name": "amount",
          "type": "uint256"
        },
        {
          "indexed": false,
          "internalType": "uint8",
          "name": "swapTokenIndex",
          "type": "uint8"
        },
        {
          "indexed": false,
          "internalType": "uint256",
          "name": "swapMinAmount",
          "type": "uint256"
        },
        {
          "indexed": false,
          "internalType": "uint256",
          "name": "swapDeadline",
          "type": "uint256"
        }
      ],
      "name": "TokenRedeemAndRemove",
      "type": "event"
    },
    {
      "anonymous": false,
      "inputs": [
        {
          "indexed": true,
          "internalType": "address",
          "name": "to",
          "type": "address"
        },
        {
          "indexed": false,
          "internalType": "uint256",
          "name": "chainId",
          "type": "uint256"
        },
        {
          "indexed": false,
          "internalType": "contract IERC20",
          "name": "token",
          "type": "address"
        },
        {
          "indexed": false,
          "internalType": "uint256",
          "name": "amount",
          "type": "uint256"
        },
        {
          "indexed": false,
          "internalType": "uint8",
          "name": "tokenIndexFrom",
          "type": "uint8"
        },
        {
          "indexed": false,
          "internalType": "uint8",
          "name": "tokenIndexTo",
          "type": "uint8"
        },
        {
          "indexed": false,
          "internalType": "uint256",
          "name": "minDy",
          "type": "uint256"
        },
        {
          "indexed": false,
          "internalType": "uint256",
          "name": "deadline",
          "type": "uint256"
        }
      ],
      "name": "TokenRedeemAndSwap",
      "type": "event"
    },
    {
      "anonymous": false,
      "inputs": [
        {
          "indexed": true,
          "internalType": "address",
          "name": "to",
          "type": "address"
        },
        {
          "indexed": false,
          "internalType": "uint256",
          "name": "chainId",
          "type": "uint256"
        },
        {
          "indexed": false,
          "internalType": "contract IERC20",
          "name": "token",
          "type": "address"
        },
        {
          "indexed": false,
          "internalType": "uint256",
          "name": "amount",
          "type": "uint256"
        },
        {
          "indexed": false,
          "internalType": "address[]",
          "name": "path",
          "type": "address[]"
        },
        {
          "indexed": false,
          "internalType": "address[]",
          "name": "adapters",
          "type": "address[]"
        },
        {
          "indexed": false,
          "internalType": "uint256",
          "name": "maxBridgeSlippage",
          "type": "uint256"
        }
      ],
      "name": "TokenRedeemAndSwapV2",
      "type": "event"
    },
    {
      "anonymous": false,
      "inputs": [
        {
          "indexed": true,
          "internalType": "address",
          "name": "to",
          "type": "address"
        },
        {
          "indexed": false,
          "internalType": "contract IERC20",
          "name": "token",
          "type": "address"
        },
        {
          "indexed": false,
          "internalType": "uint256",
          "name": "amount",
          "type": "uint256"
        },
        {
          "indexed": false,
          "internalType": "uint256",
          "name": "fee",
          "type": "uint256"
        },
        {
          "indexed": true,
          "internalType": "bytes32",
          "name": "kappa",
          "type": "bytes32"
        }
      ],
      "name": "TokenWithdraw",
      "type": "event"
    },
    {
      "anonymous": false,
      "inputs": [
        {
          "indexed": true,
          "internalType": "address",
          "name": "to",
          "type": "address"
        },
        {
          "indexed": false,
          "internalType": "contract IERC20",
          "name": "token",
          "type": "address"
        },
        {
          "indexed": false,
          "internalType": "uint256",
          "name": "amount",
          "type": "uint256"
        },
        {
          "indexed": false,
          "internalType": "uint256",
          "name": "fee",
          "type": "uint256"
        },
        {
          "indexed": false,
          "internalType": "uint8",
          "name": "swapTokenIndex",
          "type": "uint8"
        },
        {
          "indexed": false,
          "internalType": "uint256",
          "name": "swapMinAmount",
          "type": "uint256"
        },
        {
          "indexed": false,
          "internalType": "uint256",
          "name": "swapDeadline",
          "type": "uint256"
        },
        {
          "indexed": false,
          "internalType": "bool",
          "name": "swapSuccess",
          "type": "bool"
        },
        {
          "indexed": true,
          "internalType": "bytes32",
          "name": "kappa",
          "type": "bytes32"
        }
      ],
      "name": "TokenWithdrawAndRemove",
      "type": "event"
    },
    {
      "anonymous": false,
      "inputs": [
        {
          "indexed": true,
          "internalType": "address",
          "name": "to",
          "type": "address"
        },
        {
          "indexed": false,
          "internalType": "contract IERC20",
          "name": "token",
          "type": "address"
        },
        {
          "indexed": false,
          "internalType": "uint256",
          "name": "amount",
          "type": "uint256"
        },
        {
          "indexed": false,
          "internalType": "uint256",
          "name": "fee",
          "type": "uint256"
        },
        {
          "indexed": false,
          "internalType": "address[]",
          "name": "path",
          "type": "address[]"
        },
        {
          "indexed": false,
          "internalType": "address[]",
          "name": "adapters",
          "type": "address[]"
        },
        {
          "indexed": false,
          "internalType": "uint256",
          "name": "maxBridgeSlippage",
          "type": "uint256"
        },
        {
          "indexed": false,
          "internalType": "bool",
          "name": "swapSuccess",
          "type": "bool"
        },
        {
          "indexed": true,
          "internalType": "bytes32",
          "name": "kappa",
          "type": "bytes32"
        }
      ],
      "name": "TokenWithdrawAndSwapV2",
      "type": "event"
    },
    {
      "anonymous": false,
      "inputs": [
        {
          "indexed": false,
          "internalType": "address",
          "name": "account",
          "type": "address"
        }
      ],
      "name": "Unpaused",
      "type": "event"
    },
    {
      "inputs": [],
      "name": "DEFAULT_ADMIN_ROLE",
      "outputs": [
        {
          "internalType": "bytes32",
          "name": "",
          "type": "bytes32"
        }
      ],
      "stateMutability": "view",
      "type": "function"
    },
    {
      "inputs": [],
      "name": "GOVERNANCE_ROLE",
      "outputs": [
        {
          "internalType": "bytes32",
          "name": "",
          "type": "bytes32"
        }
      ],
      "stateMutability": "view",
      "type": "function"
    },
    {
      "inputs": [],
      "name": "NODEGROUP_ROLE",
      "outputs": [
        {
          "internalType": "bytes32",
          "name": "",
          "type": "bytes32"
        }
      ],
      "stateMutability": "view",
      "type": "function"
    },
    {
      "inputs": [],
      "name": "ROUTER",
      "outputs": [
        {
          "internalType": "address",
          "name": "",
          "type": "address"
        }
      ],
      "stateMutability": "view",
      "type": "function"
    },
    {
      "inputs": [],
      "name": "WETH_ADDRESS",
      "outputs": [
        {
          "internalType": "address payable",
          "name": "",
          "type": "address"
        }
      ],
      "stateMutability": "view",
      "type": "function"
    },
    {
      "inputs": [
        {
          "internalType": "bytes32[]",
          "name": "kappas",
          "type": "bytes32[]"
        }
      ],
      "name": "addKappas",
      "outputs": [],
      "stateMutability": "nonpayable",
      "type": "function"
    },
    {
      "inputs": [],
      "name": "bridgeVersion",
      "outputs": [
        {
          "internalType": "uint256",
          "name": "",
          "type": "uint256"
        }
      ],
      "stateMutability": "view",
      "type": "function"
    },
    {
      "inputs": [],
      "name": "chainGasAmount",
      "outputs": [
        {
          "internalType": "uint256",
          "name": "",
          "type": "uint256"
        }
      ],
      "stateMutability": "view",
      "type": "function"
    },
    {
      "inputs": [
        {
          "internalType": "address",
          "name": "to",
          "type": "address"
        },
        {
          "internalType": "uint256",
          "name": "chainId",
          "type": "uint256"
        },
        {
          "internalType": "contract IERC20",
          "name": "token",
          "type": "address"
        },
        {
          "internalType": "uint256",
          "name": "amount",
          "type": "uint256"
        }
      ],
      "name": "deposit",
      "outputs": [],
      "stateMutability": "nonpayable",
      "type": "function"
    },
    {
      "inputs": [
        {
          "internalType": "address",
          "name": "to",
          "type": "address"
        },
        {
          "internalType": "uint256",
          "name": "chainId",
          "type": "uint256"
        },
        {
          "internalType": "contract IERC20",
          "name": "token",
          "type": "address"
        },
        {
          "internalType": "uint256",
          "name": "amount",
          "type": "uint256"
        },
        {
          "internalType": "uint8",
          "name": "tokenIndexFrom",
          "type": "uint8"
        },
        {
          "internalType": "uint8",
          "name": "tokenIndexTo",
          "type": "uint8"
        },
        {
          "internalType": "uint256",
          "name": "minDy",
          "type": "uint256"
        },
        {
          "internalType": "uint256",
          "name": "deadline",
          "type": "uint256"
        }
      ],
      "name": "depositAndSwap",
      "outputs": [],
      "stateMutability": "nonpayable",
      "type": "function"
    },
    {
      "inputs": [
        {
          "internalType": "address",
          "name": "to",
          "type": "address"
        },
        {
          "internalType": "uint256",
          "name": "chainId",
          "type": "uint256"
        },
        {
          "internalType": "contract IERC20",
          "name": "token",
          "type": "address"
        }
      ],
      "name": "depositMax",
      "outputs": [],
      "stateMutability": "nonpayable",
      "type": "function"
    },
    {
      "inputs": [
        {
          "internalType": "address",
          "name": "to",
          "type": "address"
        },
        {
          "internalType": "uint256",
          "name": "chainId",
          "type": "uint256"
        },
        {
          "internalType": "contract IERC20",
          "name": "token",
          "type": "address"
        },
        {
          "internalType": "address[]",
          "name": "path",
          "type": "address[]"
        },
        {
          "internalType": "address[]",
          "name": "adapters",
          "type": "address[]"
        },
        {
          "internalType": "uint256",
          "name": "maxBridgeSlippage",
          "type": "uint256"
        }
      ],
      "name": "depositMaxAndSwapV2",
      "outputs": [],
      "stateMutability": "nonpayable",
      "type": "function"
    },
    {
      "inputs": [
        {
          "internalType": "address",
          "name": "tokenAddress",
          "type": "address"
        }
      ],
      "name": "getFeeBalance",
      "outputs": [
        {
          "internalType": "uint256",
          "name": "",
          "type": "uint256"
        }
      ],
      "stateMutability": "view",
      "type": "function"
    },
    {
      "inputs": [
        {
          "internalType": "bytes32",
          "name": "role",
          "type": "bytes32"
        }
      ],
      "name": "getRoleAdmin",
      "outputs": [
        {
          "internalType": "bytes32",
          "name": "",
          "type": "bytes32"
        }
      ],
      "stateMutability": "view",
      "type": "function"
    },
    {
      "inputs": [
        {
          "internalType": "bytes32",
          "name": "role",
          "type": "bytes32"
        },
        {
          "internalType": "address",
          "name": "account",
          "type": "address"
        }
      ],
      "name": "grantRole",
      "outputs": [],
      "stateMutability": "nonpayable",
      "type": "function"
    },
    {
      "inputs": [
        {
          "internalType": "bytes32",
          "name": "role",
          "type": "bytes32"
        },
        {
          "internalType": "address",
          "name": "account",
          "type": "address"
        }
      ],
      "name": "hasRole",
      "outputs": [
        {
          "internalType": "bool",
          "name": "",
          "type": "bool"
        }
      ],
      "stateMutability": "view",
      "type": "function"
    },
    {
      "inputs": [],
      "name": "initialize",
      "outputs": [],
      "stateMutability": "nonpayable",
      "type": "function"
    },
    {
      "inputs": [
        {
          "internalType": "bytes32",
          "name": "kappa",
          "type": "bytes32"
        }
      ],
      "name": "kappaExists",
      "outputs": [
        {
          "internalType": "bool",
          "name": "",
          "type": "bool"
        }
      ],
      "stateMutability": "view",
      "type": "function"
    },
    {
      "inputs": [
        {
          "internalType": "address payable",
          "name": "to",
          "type": "address"
        },
        {
          "internalType": "contract IERC20Mintable",
          "name": "token",
          "type": "address"
        },
        {
          "internalType": "uint256",
          "name": "amount",
          "type": "uint256"
        },
        {
          "internalType": "uint256",
          "name": "fee",
          "type": "uint256"
        },
        {
          "internalType": "bytes32",
          "name": "kappa",
          "type": "bytes32"
        }
      ],
      "name": "mint",
      "outputs": [],
      "stateMutability": "nonpayable",
      "type": "function"
    },
    {
      "inputs": [
        {
          "internalType": "address payable",
          "name": "to",
          "type": "address"
        },
        {
          "internalType": "contract IERC20Mintable",
          "name": "token",
          "type": "address"
        },
        {
          "internalType": "uint256",
          "name": "amount",
          "type": "uint256"
        },
        {
          "internalType": "uint256",
          "name": "fee",
          "type": "uint256"
        },
        {
          "internalType": "contract ISwap",
          "name": "pool",
          "type": "address"
        },
        {
          "internalType": "uint8",
          "name": "tokenIndexFrom",
          "type": "uint8"
        },
        {
          "internalType": "uint8",
          "name": "tokenIndexTo",
          "type": "uint8"
        },
        {
          "internalType": "uint256",
          "name": "minDy",
          "type": "uint256"
        },
        {
          "internalType": "uint256",
          "name": "deadline",
          "type": "uint256"
        },
        {
          "internalType": "bytes32",
          "name": "kappa",
          "type": "bytes32"
        }
      ],
      "name": "mintAndSwap",
      "outputs": [],
      "stateMutability": "nonpayable",
      "type": "function"
    },
    {
      "inputs": [
        {
          "internalType": "address payable",
          "name": "to",
          "type": "address"
        },
        {
          "internalType": "contract IERC20Mintable",
          "name": "token",
          "type": "address"
        },
        {
          "internalType": "uint256",
          "name": "amount",
          "type": "uint256"
        },
        {
          "internalType": "uint256",
          "name": "fee",
          "type": "uint256"
        },
        {
          "components": [
            {
              "internalType": "address[]",
              "name": "path",
              "type": "address[]"
            },
            {
              "internalType": "address[]",
              "name": "adapters",
              "type": "address[]"
            },
            {
              "internalType": "uint256",
              "name": "maxBridgeSlippage",
              "type": "uint256"
            }
          ],
          "internalType": "struct SynapseBridge.RouterTrade",
          "name": "_trade",
          "type": "tuple"
        },
        {
          "internalType": "bytes32",
          "name": "kappa",
          "type": "bytes32"
        }
      ],
      "name": "mintAndSwapV2",
      "outputs": [],
      "stateMutability": "nonpayable",
      "type": "function"
    },
    {
      "inputs": [],
      "name": "pause",
      "outputs": [],
      "stateMutability": "nonpayable",
      "type": "function"
    },
    {
      "inputs": [],
      "name": "paused",
      "outputs": [
        {
          "internalType": "bool",
          "name": "",
          "type": "bool"
        }
      ],
      "stateMutability": "view",
      "type": "function"
    },
    {
      "inputs": [
        {
          "internalType": "address",
          "name": "to",
          "type": "address"
        },
        {
          "internalType": "uint256",
          "name": "chainId",
          "type": "uint256"
        },
        {
          "internalType": "contract ERC20Burnable",
          "name": "token",
          "type": "address"
        },
        {
          "internalType": "uint256",
          "name": "amount",
          "type": "uint256"
        }
      ],
      "name": "redeem",
      "outputs": [],
      "stateMutability": "nonpayable",
      "type": "function"
    },
    {
      "inputs": [
        {
          "internalType": "address",
          "name": "to",
          "type": "address"
        },
        {
          "internalType": "uint256",
          "name": "chainId",
          "type": "uint256"
        },
        {
          "internalType": "contract ERC20Burnable",
          "name": "token",
          "type": "address"
        },
        {
          "internalType": "uint256",
          "name": "amount",
          "type": "uint256"
        },
        {
          "internalType": "uint8",
          "name": "swapTokenIndex",
          "type": "uint8"
        },
        {
          "internalType": "uint256",
          "name": "swapMinAmount",
          "type": "uint256"
        },
        {
          "internalType": "uint256",
          "name": "swapDeadline",
          "type": "uint256"
        }
      ],
      "name": "redeemAndRemove",
      "outputs": [],
      "stateMutability": "nonpayable",
      "type": "function"
    },
    {
      "inputs": [
        {
          "internalType": "address",
          "name": "to",
          "type": "address"
        },
        {
          "internalType": "uint256",
          "name": "chainId",
          "type": "uint256"
        },
        {
          "internalType": "contract ERC20Burnable",
          "name": "token",
          "type": "address"
        },
        {
          "internalType": "uint256",
          "name": "amount",
          "type": "uint256"
        },
        {
          "internalType": "uint8",
          "name": "tokenIndexFrom",
          "type": "uint8"
        },
        {
          "internalType": "uint8",
          "name": "tokenIndexTo",
          "type": "uint8"
        },
        {
          "internalType": "uint256",
          "name": "minDy",
          "type": "uint256"
        },
        {
          "internalType": "uint256",
          "name": "deadline",
          "type": "uint256"
        }
      ],
      "name": "redeemAndSwap",
      "outputs": [],
      "stateMutability": "nonpayable",
      "type": "function"
    },
    {
      "inputs": [
        {
          "internalType": "address",
          "name": "to",
          "type": "address"
        },
        {
          "internalType": "uint256",
          "name": "chainId",
          "type": "uint256"
        },
        {
          "internalType": "contract ERC20Burnable",
          "name": "token",
          "type": "address"
        }
      ],
      "name": "redeemMax",
      "outputs": [],
      "stateMutability": "nonpayable",
      "type": "function"
    },
    {
      "inputs": [
        {
          "internalType": "address",
          "name": "to",
          "type": "address"
        },
        {
          "internalType": "uint256",
          "name": "chainId",
          "type": "uint256"
        },
        {
          "internalType": "contract ERC20Burnable",
          "name": "token",
          "type": "address"
        },
        {
          "internalType": "address[]",
          "name": "path",
          "type": "address[]"
        },
        {
          "internalType": "address[]",
          "name": "adapters",
          "type": "address[]"
        },
        {
          "internalType": "uint256",
          "name": "maxBridgeSlippage",
          "type": "uint256"
        }
      ],
      "name": "redeemMaxAndSwapV2",
      "outputs": [],
      "stateMutability": "nonpayable",
      "type": "function"
    },
    {
      "inputs": [
        {
          "internalType": "bytes32",
          "name": "role",
          "type": "bytes32"
        },
        {
          "internalType": "address",
          "name": "account",
          "type": "address"
        }
      ],
      "name": "renounceRole",
      "outputs": [],
      "stateMutability": "nonpayable",
      "type": "function"
    },
    {
      "inputs": [
        {
          "internalType": "bytes32",
          "name": "role",
          "type": "bytes32"
        },
        {
          "internalType": "address",
          "name": "account",
          "type": "address"
        }
      ],
      "name": "revokeRole",
      "outputs": [],
      "stateMutability": "nonpayable",
      "type": "function"
    },
    {
      "inputs": [
        {
          "internalType": "uint256",
          "name": "amount",
          "type": "uint256"
        }
      ],
      "name": "setChainGasAmount",
      "outputs": [],
      "stateMutability": "nonpayable",
      "type": "function"
    },
    {
      "inputs": [
        {
          "internalType": "address",
          "name": "_router",
          "type": "address"
        }
      ],
      "name": "setRouterAddress",
      "outputs": [],
      "stateMutability": "nonpayable",
      "type": "function"
    },
    {
      "inputs": [
        {
          "internalType": "address payable",
          "name": "_wethAddress",
          "type": "address"
        }
      ],
      "name": "setWethAddress",
      "outputs": [],
      "stateMutability": "nonpayable",
      "type": "function"
    },
    {
      "inputs": [],
      "name": "startBlockNumber",
      "outputs": [
        {
          "internalType": "uint256",
          "name": "",
          "type": "uint256"
        }
      ],
      "stateMutability": "view",
      "type": "function"
    },
    {
      "inputs": [
        {
          "internalType": "bytes4",
          "name": "interfaceId",
          "type": "bytes4"
        }
      ],
      "name": "supportsInterface",
      "outputs": [
        {
          "internalType": "bool",
          "name": "",
          "type": "bool"
        }
      ],
      "stateMutability": "view",
      "type": "function"
    },
    {
      "inputs": [],
      "name": "unpause",
      "outputs": [],
      "stateMutability": "nonpayable",
      "type": "function"
    },
    {
      "inputs": [
        {
          "internalType": "address",
          "name": "to",
          "type": "address"
        },
        {
          "internalType": "contract IERC20",
          "name": "token",
          "type": "address"
        },
        {
          "internalType": "uint256",
          "name": "amount",
          "type": "uint256"
        },
        {
          "internalType": "uint256",
          "name": "fee",
          "type": "uint256"
        },
        {
          "internalType": "bytes32",
          "name": "kappa",
          "type": "bytes32"
        }
      ],
      "name": "withdraw",
      "outputs": [],
      "stateMutability": "nonpayable",
      "type": "function"
    },
    {
      "inputs": [
        {
          "internalType": "address",
          "name": "to",
          "type": "address"
        },
        {
          "internalType": "contract IERC20",
          "name": "token",
          "type": "address"
        },
        {
          "internalType": "uint256",
          "name": "amount",
          "type": "uint256"
        },
        {
          "internalType": "uint256",
          "name": "fee",
          "type": "uint256"
        },
        {
          "internalType": "contract ISwap",
          "name": "pool",
          "type": "address"
        },
        {
          "internalType": "uint8",
          "name": "swapTokenIndex",
          "type": "uint8"
        },
        {
          "internalType": "uint256",
          "name": "swapMinAmount",
          "type": "uint256"
        },
        {
          "internalType": "uint256",
          "name": "swapDeadline",
          "type": "uint256"
        },
        {
          "internalType": "bytes32",
          "name": "kappa",
          "type": "bytes32"
        }
      ],
      "name": "withdrawAndRemove",
      "outputs": [],
      "stateMutability": "nonpayable",
      "type": "function"
    },
    {
      "inputs": [
        {
          "internalType": "address",
          "name": "to",
          "type": "address"
        },
        {
          "internalType": "contract IERC20",
          "name": "token",
          "type": "address"
        },
        {
          "internalType": "uint256",
          "name": "amount",
          "type": "uint256"
        },
        {
          "internalType": "uint256",
          "name": "fee",
          "type": "uint256"
        },
        {
          "components": [
            {
              "internalType": "address[]",
              "name": "path",
              "type": "address[]"
            },
            {
              "internalType": "address[]",
              "name": "adapters",
              "type": "address[]"
            },
            {
              "internalType": "uint256",
              "name": "maxBridgeSlippage",
              "type": "uint256"
            }
          ],
          "internalType": "struct SynapseBridge.RouterTrade",
          "name": "_trade",
          "type": "tuple"
        },
        {
          "internalType": "bytes32",
          "name": "kappa",
          "type": "bytes32"
        }
      ],
      "name": "withdrawAndSwapV2",
      "outputs": [],
      "stateMutability": "nonpayable",
      "type": "function"
    },
    {
      "inputs": [
        {
          "internalType": "contract IERC20",
          "name": "token",
          "type": "address"
        },
        {
          "internalType": "address",
          "name": "to",
          "type": "address"
        }
      ],
      "name": "withdrawFees",
      "outputs": [],
      "stateMutability": "nonpayable",
      "type": "function"
    },
    {
      "stateMutability": "payable",
      "type": "receive"
    }
  ],
  "transactionHash": "0x16da2af38d520b011a50e0f304b5ce9f3772558cd39f7d10f992794a50615cf3",
  "args": [],
  "solcInputHash": "efe1c29c3a8132776e66b75375afd265",
  "bytecode": "0x608060405234801561001057600080fd5b506142fb806100206000396000f3fe60806040526004361061023f5760003560e01c806390d250741161012e578063c78f6803116100ab578063f25552781161006f578063f2555278146106cc578063f36c8f5c146106ec578063f3befd011461070e578063f3f094a114610730578063fb169ff01461075057600080fd5b8063c78f680314610620578063d547741f14610656578063d57eafac14610676578063e00a83e014610696578063e7a59998146106ac57600080fd5b8063a96e2423116100f2578063a96e24231461058b578063ac865626146105ab578063b250fe6b146105c0578063b2e97f11146105e0578063bcaeea5e1461060057600080fd5b806390d25074146104f657806391d1485414610516578063a06fec1b14610536578063a217fddf14610556578063a2a2af0b1461056b57600080fd5b806336e712ed116101bc5780635198c366116101805780635198c366146104745780635c975abb146104945780638129fc1c146104ac578063839ed90a146104c15780638456cb59146104e157600080fd5b806336e712ed146103e9578063381d86e3146104095780633f4ba83a1461042957806341cb87fc1461043e578063498a4c2d1461045e57600080fd5b8063248a9ca311610203578063248a9ca31461031a5780632f2ff15d146103585780632fe87b951461037857806332fe7b26146103a957806336568abe146103c957600080fd5b806301ffc9a71461024b578063040141e51461028057806317357892146102b85780631cf5f07f146102da57806320d7b327146102fa57600080fd5b3661024657005b600080fd5b34801561025757600080fd5b5061026b6102663660046136c6565b610770565b60405190151581526020015b60405180910390f35b34801561028c57600080fd5b5060fe546102a0906001600160a01b031681565b6040516001600160a01b039091168152602001610277565b3480156102c457600080fd5b506102d86102d336600461371b565b6107a7565b005b3480156102e657600080fd5b506102d86102f53660046137b8565b610e50565b34801561030657600080fd5b506102d86103153660046137b8565b611171565b34801561032657600080fd5b5061034a610335366004613809565b60009081526065602052604090206001015490565b604051908152602001610277565b34801561036457600080fd5b506102d8610373366004613822565b6113dd565b34801561038457600080fd5b5061026b610393366004613809565b6000908152610100602052604090205460ff1690565b3480156103b557600080fd5b5060ff546102a0906001600160a01b031681565b3480156103d557600080fd5b506102d86103e4366004613822565b611408565b3480156103f557600080fd5b506102d8610404366004613852565b611486565b34801561041557600080fd5b506102d861042436600461390c565b611592565b34801561043557600080fd5b506102d8611735565b34801561044a57600080fd5b506102d86104593660046139b2565b611773565b34801561046a57600080fd5b5061034a60fc5481565b34801561048057600080fd5b506102d861048f3660046139cf565b6117d8565b3480156104a057600080fd5b5060c95460ff1661026b565b3480156104b857600080fd5b506102d8611987565b3480156104cd57600080fd5b506102d86104dc366004613a11565b611a57565b3480156104ed57600080fd5b506102d8611b5e565b34801561050257600080fd5b506102d8610511366004613a90565b611b9a565b34801561052257600080fd5b5061026b610531366004613822565b611c53565b34801561054257600080fd5b506102d861055136600461390c565b611c7e565b34801561056257600080fd5b5061034a600081565b34801561057757600080fd5b506102d8610586366004613a11565b611e7e565b34801561059757600080fd5b506102d86105a63660046139b2565b611f3a565b3480156105b757600080fd5b5061034a600681565b3480156105cc57600080fd5b506102d86105db366004613809565b611f9f565b3480156105ec57600080fd5b506102d86105fb366004613af0565b611fd8565b34801561060c57600080fd5b506102d861061b3660046139cf565b612232565b34801561062c57600080fd5b5061034a61063b3660046139b2565b6001600160a01b0316600090815260fb602052604090205490565b34801561066257600080fd5b506102d8610671366004613822565b61242c565b34801561068257600080fd5b506102d8610691366004613b6e565b612452565b3480156106a257600080fd5b5061034a60fd5481565b3480156106b857600080fd5b506102d86106c7366004613bf9565b612874565b3480156106d857600080fd5b506102d86106e7366004613c3b565b612909565b3480156106f857600080fd5b5061034a60008051602061426683398151915281565b34801561071a57600080fd5b5061034a6000805160206142a683398151915281565b34801561073c57600080fd5b506102d861074b366004613a90565b612a07565b34801561075c57600080fd5b506102d861076b366004613af0565b612afc565b60006001600160e01b03198216637965db0b60e01b14806107a157506301ffc9a760e01b6001600160e01b03198316145b92915050565b600260975414156107d35760405162461bcd60e51b81526004016107ca90613c69565b60405180910390fd5b600260975560c95460ff16156107fb5760405162461bcd60e51b81526004016107ca90613ca0565b6108136000805160206142a683398151915233611c53565b61082f5760405162461bcd60e51b81526004016107ca90613cca565b86881161084e5760405162461bcd60e51b81526004016107ca90613d01565b6000818152610100602052604090205460ff161561087e5760405162461bcd60e51b81526004016107ca90613d38565b600081815261010060209081526040808320805460ff191660011790556001600160a01b038c16835260fb9091529020546108b99088612df2565b6001600160a01b038a16600090815260fb602052604090205560fd54158015906108e4575060fd5447115b1561093d5760fd546040516001600160a01b038c169190600081818185875af1925050503d8060008114610934576040519150601f19603f3d011682016040523d82523d6000602084013e610939565b606091505b5050505b60006001600160a01b03871663a95b089f878761095a8d8d612e05565b6040516001600160e01b031960e086901b16815260ff93841660048201529290911660248301526044820152606401602060405180830381865afa1580156109a6573d6000803e3d6000fd5b505050506040513d601f19601f820116820180604052508101906109ca9190613d6f565b9050838110610d7e576040516340c10f1960e01b81526001600160a01b038b16906340c10f1990610a019030908d90600401613d88565b600060405180830381600087803b158015610a1b57600080fd5b505af1158015610a2f573d6000803e3d6000fd5b50610a48925050506001600160a01b038b16888b612e11565b6001600160a01b03871663916955868787610a638d8d612e05565b6040516001600160e01b031960e086901b16815260ff93841660048201529290911660248301526044820152606481018790526084810186905260a4016020604051808303816000875af1925050508015610adb575060408051601f3d908101601f19168201909252610ad891810190613d6f565b60015b610b4b57610afe8b610aed8b8b612e05565b6001600160a01b038d169190612eee565b816001600160a01b038c166000805160206142868339815191528c610b238d8d612e05565b8c8b8b8b8b6000604051610b3e989796959493929190613da1565b60405180910390a3610e3e565b60405162415c3360e91b815260ff871660048201526000906001600160a01b038a16906382b8660090602401602060405180830381865afa158015610b94573d6000803e3d6000fd5b505050506040513d601f19601f82011682018060405250810190610bb89190613de8565b60fe549091506001600160a01b038083169116148015610be2575060fe546001600160a01b031615155b15610d235760fe54604051632e1a7d4d60e01b8152600481018490526001600160a01b0390911690632e1a7d4d90602401600060405180830381600087803b158015610c2d57600080fd5b505af1158015610c41573d6000803e3d6000fd5b5050505060008d6001600160a01b03168360405160006040518083038185875af1925050503d8060008114610c92576040519150601f19603f3d011682016040523d82523d6000602084013e610c97565b606091505b5050905080610cde5760405162461bcd60e51b815260206004820152601360248201527211551217d514905394d1915497d19052531151606a1b60448201526064016107ca565b848e6001600160a01b03166000805160206142868339815191528f868f8e8e8e8e6001604051610d15989796959493929190613da1565b60405180910390a350610d77565b610d376001600160a01b0382168e84612eee565b838d6001600160a01b03166000805160206142868339815191528e858e8d8d8d8d6001604051610d6e989796959493929190613da1565b60405180910390a35b5050610e3e565b6040516340c10f1960e01b81526001600160a01b038b16906340c10f1990610dac9030908d90600401613d88565b600060405180830381600087803b158015610dc657600080fd5b505af1158015610dda573d6000803e3d6000fd5b50505050610df58b610aed8a8c612e0590919063ffffffff16565b816001600160a01b038c166000805160206142868339815191528c610e1a8d8d612e05565b8c8b8b8b8b6000604051610e35989796959493929190613da1565b60405180910390a35b50506001609755505050505050505050565b60026097541415610e735760405162461bcd60e51b81526004016107ca90613c69565b600260975560c95460ff1615610e9b5760405162461bcd60e51b81526004016107ca90613ca0565b610eb36000805160206142a683398151915233611c53565b610ecf5760405162461bcd60e51b81526004016107ca90613cca565b818311610eee5760405162461bcd60e51b81526004016107ca90613d01565b6000818152610100602052604090205460ff1615610f1e5760405162461bcd60e51b81526004016107ca90613d38565b600081815261010060209081526040808320805460ff191660011790556001600160a01b038716835260fb909152902054610f599083612df2565b6001600160a01b03808616600081815260fb602052604090209290925560fe5416148015610f91575060fe546001600160a01b031615155b156110f65760fe546001600160a01b0316632e1a7d4d610fb18585612e05565b6040518263ffffffff1660e01b8152600401610fcf91815260200190565b600060405180830381600087803b158015610fe957600080fd5b505af1158015610ffd573d6000803e3d6000fd5b506000925050506001600160a01b0386166110188585612e05565b604051600081818185875af1925050503d8060008114611054576040519150601f19603f3d011682016040523d82523d6000602084013e611059565b606091505b50509050806110a05760405162461bcd60e51b815260206004820152601360248201527211551217d514905394d1915497d19052531151606a1b60448201526064016107ca565b604080516001600160a01b0387811682526020820187905291810185905283918816907f8b0afdc777af6946e53045a4a75212769075d30455a212ac51c9b16f9c5c9b269060600160405180910390a350611165565b604080516001600160a01b0386811682526020820186905291810184905282918716907f8b0afdc777af6946e53045a4a75212769075d30455a212ac51c9b16f9c5c9b269060600160405180910390a3611165856111548585612e05565b6001600160a01b0387169190612eee565b50506001609755505050565b600260975414156111945760405162461bcd60e51b81526004016107ca90613c69565b600260975560c95460ff16156111bc5760405162461bcd60e51b81526004016107ca90613ca0565b6111d46000805160206142a683398151915233611c53565b6111f05760405162461bcd60e51b81526004016107ca90613cca565b81831161120f5760405162461bcd60e51b81526004016107ca90613d01565b6000818152610100602052604090205460ff161561123f5760405162461bcd60e51b81526004016107ca90613d38565b600081815261010060209081526040808320805460ff191660011790556001600160a01b038716835260fb90915290205461127a9083612df2565b6001600160a01b03808616600090815260fb6020526040902091909155819086167fbf14b9fde87f6e1c29a7e0787ad1d0d64b4648d8ae63da21524d9fd0f283dd38866112c78787612e05565b604080516001600160a01b0390931683526020830191909152810186905260600160405180910390a36040516340c10f1960e01b81526001600160a01b038516906340c10f199061131e9030908790600401613d88565b600060405180830381600087803b15801561133857600080fd5b505af115801561134c573d6000803e3d6000fd5b50505050611367856111548486612e0590919063ffffffff16565b60fd5415801590611379575060fd5447115b156111655760fd546040516001600160a01b0387169190600081818185875af1925050503d80600081146113c9576040519150601f19603f3d011682016040523d82523d6000602084013e6113ce565b606091505b50505050506001609755505050565b6000828152606560205260409020600101546113f98133612f0d565b6114038383612f71565b505050565b6001600160a01b03811633146114785760405162461bcd60e51b815260206004820152602f60248201527f416363657373436f6e74726f6c3a2063616e206f6e6c792072656e6f756e636560448201526e103937b632b9903337b91039b2b63360891b60648201526084016107ca565b6114828282612ff7565b5050565b600260975414156114a95760405162461bcd60e51b81526004016107ca90613c69565b600260975560c95460ff16156114d15760405162461bcd60e51b81526004016107ca90613ca0565b604080518781526001600160a01b03878116602083015291810186905260ff851660608201526080810184905260a08101839052908816907f9a7024cde1920aa50cdde09ca396229e8c4d530d5cfdc6233590def70a94408c9060c00160405180910390a260405163079cc67960e41b81526001600160a01b038616906379cc6790906115649033908890600401613d88565b600060405180830381600087803b15801561157e57600080fd5b505af1158015610e3e573d6000803e3d6000fd5b600260975414156115b55760405162461bcd60e51b81526004016107ca90613c69565b600260975560c95460ff16156115dd5760405162461bcd60e51b81526004016107ca90613ca0565b604051636eb1769f60e11b81523360048201523060248201526000906001600160a01b0388169063dd62ed3e90604401602060405180830381865afa15801561162a573d6000803e3d6000fd5b505050506040513d601f19601f8201168201806040525081019061164e9190613d6f565b6040516370a0823160e01b81523360048201529091506000906001600160a01b038916906370a0823190602401602060405180830381865afa158015611698573d6000803e3d6000fd5b505050506040513d601f19601f820116820180604052508101906116bc9190613d6f565b905060008183116116cd57826116cf565b815b90508a6001600160a01b03167f0451376d6756ee18be892f283ef4c898db362a685eef07cbb80f64db97d30dd58b8b848c8c8c8c8c604051611718989796959493929190613e4e565b60405180910390a2610e3e6001600160a01b038a1633308461305e565b61174d60008051602061426683398151915233611c53565b6117695760405162461bcd60e51b81526004016107ca90613ea5565b611771613096565b565b61177e600033611c53565b6117b65760405162461bcd60e51b81526020600482015260096024820152682737ba1030b236b4b760b91b60448201526064016107ca565b60ff80546001600160a01b0319166001600160a01b0392909216919091179055565b600260975414156117fb5760405162461bcd60e51b81526004016107ca90613c69565b600260975560c95460ff16156118235760405162461bcd60e51b81526004016107ca90613ca0565b604051636eb1769f60e11b81523360048201523060248201526000906001600160a01b0383169063dd62ed3e90604401602060405180830381865afa158015611870573d6000803e3d6000fd5b505050506040513d601f19601f820116820180604052508101906118949190613d6f565b6040516370a0823160e01b81523360048201529091506000906001600160a01b038416906370a0823190602401602060405180830381865afa1580156118de573d6000803e3d6000fd5b505050506040513d601f19601f820116820180604052508101906119029190613d6f565b905060008183116119135782611915565b815b604080518781526001600160a01b0387811660208301529181018390529192508716907fda5273705dbef4bf1b902a131c2eac086b7e1476a8ab0cb4da08af1fe1bd8e3b9060600160405180910390a261197a6001600160a01b03851633308461305e565b5050600160975550505050565b600054610100900460ff166119a25760005460ff16156119a6565b303b155b611a095760405162461bcd60e51b815260206004820152602e60248201527f496e697469616c697a61626c653a20636f6e747261637420697320616c72656160448201526d191e481a5b9a5d1a585b1a5e995960921b60648201526084016107ca565b600054610100900460ff16158015611a2b576000805461ffff19166101011790555b4360fc55611a3a600033613129565b611a42613133565b8015611a54576000805461ff00191690555b50565b60026097541415611a7a5760405162461bcd60e51b81526004016107ca90613c69565b600260975560c95460ff1615611aa25760405162461bcd60e51b81526004016107ca90613ca0565b876001600160a01b03167f91f25e9be0134ec851830e0e76dc71e06f9dade75a9b84e9524071dbbc31942588888888888888604051611ae79796959493929190613ecd565b60405180910390a260405163079cc67960e41b81526001600160a01b038716906379cc679090611b1d9033908990600401613d88565b600060405180830381600087803b158015611b3757600080fd5b505af1158015611b4b573d6000803e3d6000fd5b5050600160975550505050505050505050565b611b7660008051602061426683398151915233611c53565b611b925760405162461bcd60e51b81526004016107ca90613ea5565b611771613172565b60026097541415611bbd5760405162461bcd60e51b81526004016107ca90613c69565b600260975560c95460ff1615611be55760405162461bcd60e51b81526004016107ca90613ca0565b604080518481526001600160a01b038481166020830152918101839052908516907fda5273705dbef4bf1b902a131c2eac086b7e1476a8ab0cb4da08af1fe1bd8e3b9060600160405180910390a2611c486001600160a01b03831633308461305e565b505060016097555050565b60009182526065602090815260408084206001600160a01b0393909316845291905290205460ff1690565b60026097541415611ca15760405162461bcd60e51b81526004016107ca90613c69565b600260975560c95460ff1615611cc95760405162461bcd60e51b81526004016107ca90613ca0565b604051636eb1769f60e11b81523360048201523060248201526000906001600160a01b0388169063dd62ed3e90604401602060405180830381865afa158015611d16573d6000803e3d6000fd5b505050506040513d601f19601f82011682018060405250810190611d3a9190613d6f565b6040516370a0823160e01b81523360048201529091506000906001600160a01b038916906370a0823190602401602060405180830381865afa158015611d84573d6000803e3d6000fd5b505050506040513d601f19601f82011682018060405250810190611da89190613d6f565b90506000818311611db95782611dbb565b815b90508a6001600160a01b03167fca7b49b34ee9c6923224bdfb212fc1fa849fadd45a711a7616a966540c004adb8b8b848c8c8c8c8c604051611e04989796959493929190613e4e565b60405180910390a260405163079cc67960e41b81526001600160a01b038a16906379cc679090611e3a9033908590600401613d88565b600060405180830381600087803b158015611e5457600080fd5b505af1158015611e68573d6000803e3d6000fd5b5050600160975550505050505050505050505050565b60026097541415611ea15760405162461bcd60e51b81526004016107ca90613c69565b600260975560c95460ff1615611ec95760405162461bcd60e51b81526004016107ca90613ca0565b876001600160a01b03167f79c15604b92ef54d3f61f0c40caab8857927ca3d5092367163b4562c1699eb5f88888888888888604051611f0e9796959493929190613ecd565b60405180910390a2611f2b6001600160a01b03871633308861305e565b50506001609755505050505050565b611f45600033611c53565b611f7d5760405162461bcd60e51b81526020600482015260096024820152682737ba1030b236b4b760b91b60448201526064016107ca565b60fe80546001600160a01b0319166001600160a01b0392909216919091179055565b611fb760008051602061426683398151915233611c53565b611fd35760405162461bcd60e51b81526004016107ca90613ea5565b60fd55565b60026097541415611ffb5760405162461bcd60e51b81526004016107ca90613c69565b600260975560c95460ff16156120235760405162461bcd60e51b81526004016107ca90613ca0565b61202e8484836131ca565b61203661326b565b1561208f5760fd546040516001600160a01b0388169190600081818185875af1925050503d8060008114612086576040519150601f19603f3d011682016040523d82523d6000602084013e61208b565b606091505b5050505b6001600160a01b038516600090815260fb60205260409020546120b29084612df2565b6001600160a01b038616600090815260fb60205260408120919091556120d88585612e05565b60ff549091506120f5906001600160a01b03888116911683612eee565b600061210388878787613286565b9050801561218357826001600160a01b0389167f3c3ab8c782be0bd06b260569fb257c56db46897c1c3a75bb58a71424901ee93c896121428a8a612e05565b8961214d8a80613f09565b61215a60208d018d613f09565b8d60400135600160405161217699989796959493929190613f53565b60405180910390a3611f2b565b60ff546121b0906001600160a01b03168961219e8989612e05565b6001600160a01b038b1692919061305e565b826001600160a01b0389167f3c3ab8c782be0bd06b260569fb257c56db46897c1c3a75bb58a71424901ee93c896121e78a8a612e05565b896121f28a80613f09565b6121ff60208d018d613f09565b8d60400135600160405161221b99989796959493929190613f53565b60405180910390a350506001609755505050505050565b600260975414156122555760405162461bcd60e51b81526004016107ca90613c69565b600260975560c95460ff161561227d5760405162461bcd60e51b81526004016107ca90613ca0565b604051636eb1769f60e11b81523360048201523060248201526000906001600160a01b0383169063dd62ed3e90604401602060405180830381865afa1580156122ca573d6000803e3d6000fd5b505050506040513d601f19601f820116820180604052508101906122ee9190613d6f565b6040516370a0823160e01b81523360048201529091506000906001600160a01b038416906370a0823190602401602060405180830381865afa158015612338573d6000803e3d6000fd5b505050506040513d601f19601f8201168201806040525081019061235c9190613d6f565b9050600081831161236d578261236f565b815b604080518781526001600160a01b0387811660208301529181018390529192508716907fdc5bad4651c5fbe9977a696aadc65996c468cde1448dd468ec0d83bf61c4b57c9060600160405180910390a260405163079cc67960e41b81526001600160a01b038516906379cc6790906123ed9033908590600401613d88565b600060405180830381600087803b15801561240757600080fd5b505af115801561241b573d6000803e3d6000fd5b505060016097555050505050505050565b6000828152606560205260409020600101546124488133612f0d565b6114038383612ff7565b600260975414156124755760405162461bcd60e51b81526004016107ca90613c69565b600260975560c95460ff161561249d5760405162461bcd60e51b81526004016107ca90613ca0565b6124b56000805160206142a683398151915233611c53565b6124d15760405162461bcd60e51b81526004016107ca90613cca565b8587116124f05760405162461bcd60e51b81526004016107ca90613d01565b6000818152610100602052604090205460ff16156125205760405162461bcd60e51b81526004016107ca90613d38565b600081815261010060209081526040808320805460ff191660011790556001600160a01b038b16835260fb90915290205461255b9087612df2565b6001600160a01b03808a16600090815260fb6020526040812092909255861663342a87a16125898a8a612e05565b6040516001600160e01b031960e084901b168152600481019190915260ff88166024820152604401602060405180830381865afa1580156125ce573d6000803e3d6000fd5b505050506040513d601f19601f820116820180604052508101906125f29190613d6f565b90508381106127fd5761261a866126098a8a612e05565b6001600160a01b038c169190612e11565b6001600160a01b038616633e3a15606126338a8a612e05565b6040516001600160e01b031960e084901b168152600481019190915260ff8816602482015260448101879052606481018690526084016020604051808303816000875af19250505080156126a4575060408051601f3d908101601f191682019092526126a191810190613d6f565b60015b612724576126c78a6126b68a8a612e05565b6001600160a01b038c169190612eee565b816001600160a01b038b167fc1a608d0f8122d014d03cc915a91d98cef4ebaf31ea3552320430cba05211b6d8b6126fe8c8c612e05565b8b8a8a8a60006040516127179796959493929190613fb2565b60405180910390a361241b565b60405162415c3360e91b815260ff871660048201526000906001600160a01b038916906382b8660090602401602060405180830381865afa15801561276d573d6000803e3d6000fd5b505050506040513d601f19601f820116820180604052508101906127919190613de8565b90506127a76001600160a01b0382168d84612eee565b838c6001600160a01b03167fc1a608d0f8122d014d03cc915a91d98cef4ebaf31ea3552320430cba05211b6d8d858d8c8c8c60016040516127ee9796959493929190613fb2565b60405180910390a3505061241b565b61280b8a6126b68a8a612e05565b816001600160a01b038b167fc1a608d0f8122d014d03cc915a91d98cef4ebaf31ea3552320430cba05211b6d8b6128428c8c612e05565b8b8a8a8a600060405161285b9796959493929190613fb2565b60405180910390a3505060016097555050505050505050565b61288c60008051602061426683398151915233611c53565b6128a85760405162461bcd60e51b81526004016107ca90613ea5565b60005b8181101561140357600161010060008585858181106128cc576128cc613ff2565b90506020020135815260200190815260200160002060006101000a81548160ff021916908315150217905550806129029061401e565b90506128ab565b60c95460ff161561292c5760405162461bcd60e51b81526004016107ca90613ca0565b61294460008051602061426683398151915233611c53565b6129605760405162461bcd60e51b81526004016107ca90613ea5565b6001600160a01b0381166129a95760405162461bcd60e51b815260206004820152601060248201526f0416464726573732069732030783030360841b60448201526064016107ca565b6001600160a01b038216600090815260fb602052604090205415611482576001600160a01b038216600081815260fb60205260409020546129ec91908390612eee565b506001600160a01b0316600090815260fb6020526040812055565b60026097541415612a2a5760405162461bcd60e51b81526004016107ca90613c69565b600260975560c95460ff1615612a525760405162461bcd60e51b81526004016107ca90613ca0565b604080518481526001600160a01b038481166020830152918101839052908516907fdc5bad4651c5fbe9977a696aadc65996c468cde1448dd468ec0d83bf61c4b57c9060600160405180910390a260405163079cc67960e41b81526001600160a01b038316906379cc679090612ace9033908590600401613d88565b600060405180830381600087803b158015612ae857600080fd5b505af1158015611f2b573d6000803e3d6000fd5b60026097541415612b1f5760405162461bcd60e51b81526004016107ca90613c69565b600260975560c95460ff1615612b475760405162461bcd60e51b81526004016107ca90613ca0565b612b528484836131ca565b6001600160a01b038516600090815260fb6020526040902054612b759084612df2565b6001600160a01b038616600090815260fb6020526040902055612b9661326b565b15612bef5760fd546040516001600160a01b0388169190600081818185875af1925050503d8060008114612be6576040519150601f19603f3d011682016040523d82523d6000602084013e612beb565b606091505b5050505b60ff546040516340c10f1960e01b81526001600160a01b03878116926340c10f1992612c2392909116908890600401613d88565b600060405180830381600087803b158015612c3d57600080fd5b505af1158015612c51573d6000803e3d6000fd5b50506040516340c10f1960e01b81526001600160a01b03881692506340c10f199150612c839030908790600401613d88565b600060405180830381600087803b158015612c9d57600080fd5b505af1158015612cb1573d6000803e3d6000fd5b505050506000612cc387868686613286565b90508015612d4357816001600160a01b0388167ff663aaa72454b2aec7a5bca072f85835e73b3714f4fb75586d80991b49450b7388612d028989612e05565b88612d0d8980613f09565b612d1a60208c018c613f09565b8c604001356001604051612d3699989796959493929190613f53565b60405180910390a3612de4565b60ff54612d70906001600160a01b031688612d5e8888612e05565b6001600160a01b038a1692919061305e565b816001600160a01b0388167ff663aaa72454b2aec7a5bca072f85835e73b3714f4fb75586d80991b49450b7388612da78989612e05565b88612db28980613f09565b612dbf60208c018c613f09565b8c604001356000604051612ddb99989796959493929190613f53565b60405180910390a35b505060016097555050505050565b6000612dfe8284614039565b9392505050565b6000612dfe8284614051565b604051636eb1769f60e11b81523060048201526001600160a01b038381166024830152600091839186169063dd62ed3e90604401602060405180830381865afa158015612e62573d6000803e3d6000fd5b505050506040513d601f19601f82011682018060405250810190612e869190613d6f565b612e909190614039565b9050612ee88463095ea7b360e01b8584604051602401612eb1929190613d88565b60408051601f198184030181529190526020810180516001600160e01b03166001600160e01b031990931692909217909152613326565b50505050565b6114038363a9059cbb60e01b8484604051602401612eb1929190613d88565b612f178282611c53565b61148257612f2f816001600160a01b031660146133f8565b612f3a8360206133f8565b604051602001612f4b929190614094565b60408051601f198184030181529082905262461bcd60e51b82526107ca91600401614109565b612f7b8282611c53565b6114825760008281526065602090815260408083206001600160a01b03851684529091529020805460ff19166001179055612fb33390565b6001600160a01b0316816001600160a01b0316837f2f8788117e7eff1d82e926ec794901d17c78024a50270940304540a733656f0d60405160405180910390a45050565b6130018282611c53565b156114825760008281526065602090815260408083206001600160a01b0385168085529252808320805460ff1916905551339285917ff6391f5c32d9c69d2a47ea670b442974b53935d1edc7fd64eb21e047a839171b9190a45050565b6040516001600160a01b0380851660248301528316604482015260648101829052612ee89085906323b872dd60e01b90608401612eb1565b60c95460ff166130df5760405162461bcd60e51b815260206004820152601460248201527314185d5cd8589b194e881b9bdd081c185d5cd95960621b60448201526064016107ca565b60c9805460ff191690557f5db9ee0a495bf2e6ff9c91a7834c1ba4fdd244a5e8aa4e537bd38aeae4b073aa335b6040516001600160a01b03909116815260200160405180910390a1565b6114828282612f71565b600054610100900460ff1661315a5760405162461bcd60e51b81526004016107ca9061413c565b613162613594565b61316a613594565b611771613594565b60c95460ff16156131955760405162461bcd60e51b81526004016107ca90613ca0565b60c9805460ff191660011790557f62e78cea01bee320cd4e420270b5ea74000d11b0c9f74754ebdbfc544b05a25861310c3390565b6131e26000805160206142a683398151915233611c53565b6131fe5760405162461bcd60e51b81526004016107ca90613cca565b81831161321d5760405162461bcd60e51b81526004016107ca90613d01565b6000818152610100602052604090205460ff161561324d5760405162461bcd60e51b81526004016107ca90613d38565b600090815261010060205260409020805460ff191660011790555050565b600060fd54600014158015613281575060fd5447115b905090565b60ff546000906001600160a01b0316631a9653356132a48686612e05565b60006132b08680613f09565b6132bd6020890189613f09565b8c60006040518963ffffffff1660e01b81526004016132e3989796959493929190614187565b600060405180830381600087803b1580156132fd57600080fd5b505af192505050801561330e575060015b61331a5750600061331e565b5060015b949350505050565b600061337b826040518060400160405280602081526020017f5361666545524332303a206c6f772d6c6576656c2063616c6c206661696c6564815250856001600160a01b03166135bb9092919063ffffffff16565b805190915015611403578080602001905181019061339991906141db565b6114035760405162461bcd60e51b815260206004820152602a60248201527f5361666545524332303a204552433230206f7065726174696f6e20646964206e6044820152691bdd081cdd58d8d9595960b21b60648201526084016107ca565b606060006134078360026141fd565b613412906002614039565b67ffffffffffffffff81111561342a5761342a61421c565b6040519080825280601f01601f191660200182016040528015613454576020820181803683370190505b509050600360fc1b8160008151811061346f5761346f613ff2565b60200101906001600160f81b031916908160001a905350600f60fb1b8160018151811061349e5761349e613ff2565b60200101906001600160f81b031916908160001a90535060006134c28460026141fd565b6134cd906001614039565b90505b6001811115613545576f181899199a1a9b1b9c1cb0b131b232b360811b85600f166010811061350157613501613ff2565b1a60f81b82828151811061351757613517613ff2565b60200101906001600160f81b031916908160001a90535060049490941c9361353e81614232565b90506134d0565b508315612dfe5760405162461bcd60e51b815260206004820181905260248201527f537472696e67733a20686578206c656e67746820696e73756666696369656e7460448201526064016107ca565b600054610100900460ff166117715760405162461bcd60e51b81526004016107ca9061413c565b606061331e848460008585843b6136145760405162461bcd60e51b815260206004820152601d60248201527f416464726573733a2063616c6c20746f206e6f6e2d636f6e747261637400000060448201526064016107ca565b600080866001600160a01b031685876040516136309190614249565b60006040518083038185875af1925050503d806000811461366d576040519150601f19603f3d011682016040523d82523d6000602084013e613672565b606091505b509150915061368282828661368d565b979650505050505050565b6060831561369c575081612dfe565b8251156136ac5782518084602001fd5b8160405162461bcd60e51b81526004016107ca9190614109565b6000602082840312156136d857600080fd5b81356001600160e01b031981168114612dfe57600080fd5b6001600160a01b0381168114611a5457600080fd5b803560ff8116811461371657600080fd5b919050565b6000806000806000806000806000806101408b8d03121561373b57600080fd5b8a35613746816136f0565b995060208b0135613756816136f0565b985060408b0135975060608b0135965060808b0135613774816136f0565b955061378260a08c01613705565b945061379060c08c01613705565b935060e08b013592506101008b013591506101208b013590509295989b9194979a5092959850565b600080600080600060a086880312156137d057600080fd5b85356137db816136f0565b945060208601356137eb816136f0565b94979496505050506040830135926060810135926080909101359150565b60006020828403121561381b57600080fd5b5035919050565b6000806040838503121561383557600080fd5b823591506020830135613847816136f0565b809150509250929050565b600080600080600080600060e0888a03121561386d57600080fd5b8735613878816136f0565b965060208801359550604088013561388f816136f0565b9450606088013593506138a460808901613705565b925060a0880135915060c0880135905092959891949750929550565b60008083601f8401126138d257600080fd5b50813567ffffffffffffffff8111156138ea57600080fd5b6020830191508360208260051b850101111561390557600080fd5b9250929050565b60008060008060008060008060c0898b03121561392857600080fd5b8835613933816136f0565b975060208901359650604089013561394a816136f0565b9550606089013567ffffffffffffffff8082111561396757600080fd5b6139738c838d016138c0565b909750955060808b013591508082111561398c57600080fd5b506139998b828c016138c0565b999c989b50969995989497949560a00135949350505050565b6000602082840312156139c457600080fd5b8135612dfe816136f0565b6000806000606084860312156139e457600080fd5b83356139ef816136f0565b9250602084013591506040840135613a06816136f0565b809150509250925092565b600080600080600080600080610100898b031215613a2e57600080fd5b8835613a39816136f0565b9750602089013596506040890135613a50816136f0565b955060608901359450613a6560808a01613705565b9350613a7360a08a01613705565b925060c0890135915060e089013590509295985092959890939650565b60008060008060808587031215613aa657600080fd5b8435613ab1816136f0565b9350602085013592506040850135613ac8816136f0565b9396929550929360600135925050565b600060608284031215613aea57600080fd5b50919050565b60008060008060008060c08789031215613b0957600080fd5b8635613b14816136f0565b95506020870135613b24816136f0565b94506040870135935060608701359250608087013567ffffffffffffffff811115613b4e57600080fd5b613b5a89828a01613ad8565b92505060a087013590509295509295509295565b60008060008060008060008060006101208a8c031215613b8d57600080fd5b8935613b98816136f0565b985060208a0135613ba8816136f0565b975060408a0135965060608a0135955060808a0135613bc6816136f0565b9450613bd460a08b01613705565b935060c08a0135925060e08a013591506101008a013590509295985092959850929598565b60008060208385031215613c0c57600080fd5b823567ffffffffffffffff811115613c2357600080fd5b613c2f858286016138c0565b90969095509350505050565b60008060408385031215613c4e57600080fd5b8235613c59816136f0565b91506020830135613847816136f0565b6020808252601f908201527f5265656e7472616e637947756172643a207265656e7472616e742063616c6c00604082015260600190565b60208082526010908201526f14185d5cd8589b194e881c185d5cd95960821b604082015260600190565b6020808252601a908201527f43616c6c6572206973206e6f742061206e6f64652067726f7570000000000000604082015260600190565b6020808252601f908201527f416d6f756e74206d7573742062652067726561746572207468616e2066656500604082015260600190565b60208082526018908201527f4b6170706120697320616c72656164792070726573656e740000000000000000604082015260600190565b600060208284031215613d8157600080fd5b5051919050565b6001600160a01b03929092168252602082015260400190565b6001600160a01b039890981688526020880196909652604087019490945260ff92831660608701529116608085015260a084015260c0830152151560e08201526101000190565b600060208284031215613dfa57600080fd5b8151612dfe816136f0565b8183526000602080850194508260005b85811015613e43578135613e28816136f0565b6001600160a01b031687529582019590820190600101613e15565b509495945050505050565b88815260018060a01b038816602082015286604082015260c060608201526000613e7c60c083018789613e05565b8281036080840152613e8f818688613e05565b9150508260a08301529998505050505050505050565b6020808252600e908201526d4e6f7420676f7665726e616e636560901b604082015260600190565b9687526001600160a01b03959095166020870152604086019390935260ff918216606086015216608084015260a083015260c082015260e00190565b6000808335601e19843603018112613f2057600080fd5b83018035915067ffffffffffffffff821115613f3b57600080fd5b6020019150600581901b360382131561390557600080fd5b60018060a01b038a16815288602082015287604082015260e060608201526000613f8160e08301888a613e05565b8281036080840152613f94818789613e05565b60a0840195909552505090151560c090910152979650505050505050565b6001600160a01b039790971687526020870195909552604086019390935260ff919091166060850152608084015260a0830152151560c082015260e00190565b634e487b7160e01b600052603260045260246000fd5b634e487b7160e01b600052601160045260246000fd5b600060001982141561403257614032614008565b5060010190565b6000821982111561404c5761404c614008565b500190565b60008282101561406357614063614008565b500390565b60005b8381101561408357818101518382015260200161406b565b83811115612ee85750506000910152565b7f416363657373436f6e74726f6c3a206163636f756e74200000000000000000008152600083516140cc816017850160208801614068565b7001034b99036b4b9b9b4b733903937b6329607d1b60179184019182015283516140fd816028840160208801614068565b01602801949350505050565b6020815260008251806020840152614128816040850160208701614068565b601f01601f19169190910160400192915050565b6020808252602b908201527f496e697469616c697a61626c653a20636f6e7472616374206973206e6f74206960408201526a6e697469616c697a696e6760a81b606082015260800190565b88815287602082015260c0604082015260006141a760c08301888a613e05565b82810360608401526141ba818789613e05565b6001600160a01b03959095166080840152505060a001529695505050505050565b6000602082840312156141ed57600080fd5b81518015158114612dfe57600080fd5b600081600019048311821515161561421757614217614008565b500290565b634e487b7160e01b600052604160045260246000fd5b60008161424157614241614008565b506000190190565b6000825161425b818460208701614068565b919091019291505056fe71840dc4906352362b0cdaf79870196c8e42acafade72d5d5a6d59291253ceb14f56ec39e98539920503fd54ee56ae0cbebe9eb15aa778f18de67701eeae7c65b5c00e6706c3d213edd70ff33717fac657eacc5fe161f07180cf1fcab13cc4cda264697066735822122010bea104f9a73688483dcf9f3a9b9563e0008d032914936915e4c4d4e8a9faee64736f6c634300080b0033",
  "devdoc": {
    "kind": "dev",
    "methods": {
      "deposit(address,uint256,address,uint256)": {
        "params": {
          "amount": "Amount in native token decimals to transfer cross-chain pre-fees*",
          "chainId": "which chain to bridge assets onto",
          "to": "address on other chain to bridge assets to",
          "token": "ERC20 compatible token to deposit into the bridge"
        }
      },
      "depositAndSwap(address,uint256,address,uint256,uint8,uint8,uint256,uint256)": {
        "params": {
          "amount": "Amount in native token decimals to transfer cross-chain pre-fees",
          "chainId": "which chain to bridge assets onto",
          "deadline": "latest timestamp to accept this transaction*",
          "minDy": "the min amount the user would like to receive, or revert to only minting the SynERC20 token crosschain.",
          "to": "address on other chain to bridge assets to",
          "token": "ERC20 compatible token to deposit into the bridge",
          "tokenIndexFrom": "the token the user wants to swap from",
          "tokenIndexTo": "the token the user wants to swap to"
        }
      },
      "depositMax(address,uint256,address)": {
        "params": {
          "chainId": "which chain to bridge assets onto",
          "to": "address on other chain to bridge assets to",
          "token": "ERC20 compatible token to deposit into the bridge*"
        }
      },
      "depositMaxAndSwapV2(address,uint256,address,address[],address[],uint256)": {
        "params": {
          "chainId": "which chain to bridge assets onto",
          "to": "address on other chain to bridge assets to",
          "token": "ERC20 compatible token to deposit into the bridge*"
        }
      },
      "getRoleAdmin(bytes32)": {
        "details": "Returns the admin role that controls `role`. See {grantRole} and {revokeRole}. To change a role's admin, use {_setRoleAdmin}."
      },
      "grantRole(bytes32,address)": {
        "details": "Grants `role` to `account`. If `account` had not been already granted `role`, emits a {RoleGranted} event. Requirements: - the caller must have ``role``'s admin role."
      },
      "hasRole(bytes32,address)": {
        "details": "Returns `true` if `account` has been granted `role`."
      },
      "mint(address,address,uint256,uint256,bytes32)": {
        "details": "This means the SynapseBridge.sol contract must have minter access to the token attempting to be minted",
        "params": {
          "amount": "Amount in native token decimals to transfer cross-chain post-fees",
          "fee": "Amount in native token decimals to save to the contract as fees",
          "kappa": "kappa*",
          "to": "address on other chain to redeem underlying assets to",
          "token": "ERC20 compatible token to deposit into the bridge"
        }
      },
      "mintAndSwap(address,address,uint256,uint256,address,uint8,uint8,uint256,uint256,bytes32)": {
        "details": "This means the BridgeDeposit.sol contract must have minter access to the token attempting to be minted",
        "params": {
          "amount": "Amount in native token decimals to transfer cross-chain post-fees",
          "deadline": "Epoch time of the deadline that the swap is allowed to be executed.",
          "fee": "Amount in native token decimals to save to the contract as fees",
          "kappa": "kappa*",
          "minDy": "Minumum amount (in final asset decimals) that must be swapped for, otherwise the user will receive the SynERC20.",
          "pool": "Destination chain's pool to use to swap SynERC20 -> Asset. The nodes determine this by using PoolConfig.sol.",
          "to": "address on other chain to redeem underlying assets to",
          "token": "ERC20 compatible token to deposit into the bridge",
          "tokenIndexFrom": "Index of the SynERC20 asset in the pool",
          "tokenIndexTo": "Index of the desired final asset"
        }
      },
      "mintAndSwapV2(address,address,uint256,uint256,(address[],address[],uint256),bytes32)": {
        "details": "This means the BridgeDeposit.sol contract must have minter access to the token attempting to be minted",
        "params": {
          "amount": "Amount in native token decimals to transfer cross-chain post-fees",
          "fee": "Amount in native token decimals to save to the contract as fees",
          "kappa": "kappa*",
          "to": "address on other chain to redeem underlying assets to",
          "token": "ERC20 compatible token to deposit into the bridge"
        }
      },
      "paused()": {
        "details": "Returns true if the contract is paused, and false otherwise."
      },
      "redeem(address,uint256,address,uint256)": {
        "params": {
          "amount": "Amount in native token decimals to transfer cross-chain pre-fees*",
          "chainId": "which underlying chain to bridge assets onto",
          "to": "address on other chain to redeem underlying assets to",
          "token": "ERC20 compatible token to deposit into the bridge"
        }
      },
      "redeemAndRemove(address,uint256,address,uint256,uint8,uint256,uint256)": {
        "params": {
          "amount": "Amount in native token decimals to transfer cross-chain pre-fees",
          "chainId": "which underlying chain to bridge assets onto",
          "swapDeadline": "Specificies the deadline that the nodes are allowed to try to redeem/swap the LP token*",
          "swapMinAmount": "Specifies the minimum amount of the underlying asset needed for the nodes to execute the redeem/swap",
          "swapTokenIndex": "Specifies which of the underlying LP assets the nodes should attempt to redeem for",
          "to": "address on other chain to redeem underlying assets to",
          "token": "ERC20 compatible token to deposit into the bridge"
        }
      },
      "redeemAndSwap(address,uint256,address,uint256,uint8,uint8,uint256,uint256)": {
        "params": {
          "amount": "Amount in native token decimals to transfer cross-chain pre-fees",
          "chainId": "which underlying chain to bridge assets onto",
          "deadline": "latest timestamp to accept this transaction*",
          "minDy": "the min amount the user would like to receive, or revert to only minting the SynERC20 token crosschain.",
          "to": "address on other chain to redeem underlying assets to",
          "token": "ERC20 compatible token to deposit into the bridge",
          "tokenIndexFrom": "the token the user wants to swap from",
          "tokenIndexTo": "the token the user wants to swap to"
        }
      },
      "redeemMax(address,uint256,address)": {
        "params": {
          "chainId": "which underlying chain to bridge assets onto",
          "to": "address on other chain to redeem underlying assets to",
          "token": "ERC20 compatible token to deposit into the bridge*"
        }
      },
      "redeemMaxAndSwapV2(address,uint256,address,address[],address[],uint256)": {
        "params": {
          "chainId": "which underlying chain to bridge assets onto",
          "to": "address on other chain to redeem underlying assets to",
          "token": "ERC20 compatible token to deposit into the bridge*"
        }
      },
      "renounceRole(bytes32,address)": {
        "details": "Revokes `role` from the calling account. Roles are often managed via {grantRole} and {revokeRole}: this function's purpose is to provide a mechanism for accounts to lose their privileges if they are compromised (such as when a trusted device is misplaced). If the calling account had been revoked `role`, emits a {RoleRevoked} event. Requirements: - the caller must be `account`."
      },
      "revokeRole(bytes32,address)": {
        "details": "Revokes `role` from `account`. If `account` had been granted `role`, emits a {RoleRevoked} event. Requirements: - the caller must have ``role``'s admin role."
      },
      "supportsInterface(bytes4)": {
        "details": "See {IERC165-supportsInterface}."
      },
      "withdraw(address,address,uint256,uint256,bytes32)": {
        "params": {
          "amount": "Amount in native token decimals to withdraw",
          "fee": "Amount in native token decimals to save to the contract as fees",
          "kappa": "kappa*",
          "to": "address on chain to send underlying assets to",
          "token": "ERC20 compatible token to withdraw from the bridge"
        }
      },
      "withdrawAndRemove(address,address,uint256,uint256,address,uint8,uint256,uint256,bytes32)": {
        "params": {
          "amount": "Amount in native token decimals to withdraw",
          "fee": "Amount in native token decimals to save to the contract as fees",
          "kappa": "kappa*",
          "pool": "Destination chain's pool to use to swap SynERC20 -> Asset. The nodes determine this by using PoolConfig.sol.",
          "swapDeadline": "Specificies the deadline that the nodes are allowed to try to redeem/swap the LP token",
          "swapMinAmount": "Specifies the minimum amount of the underlying asset needed for the nodes to execute the redeem/swap",
          "swapTokenIndex": "Specifies which of the underlying LP assets the nodes should attempt to redeem for",
          "to": "address on chain to send underlying assets to",
          "token": "ERC20 compatible token to withdraw from the bridge"
        }
      },
      "withdrawAndSwapV2(address,address,uint256,uint256,(address[],address[],uint256),bytes32)": {
        "params": {
          "amount": "Amount in native token decimals to withdraw",
          "fee": "Amount in native token decimals to save to the contract as fees",
          "kappa": "kappa*",
          "to": "address on chain to send underlying assets to",
          "token": "ERC20 compatible token to withdraw from the bridge"
        }
      },
      "withdrawFees(address,address)": {
        "params": {
          "to": "Address to send the fees to",
          "token": "ERC20 token in which fees acccumulated to transfer"
        }
      }
    },
    "version": 1
  },
  "userdoc": {
    "kind": "user",
    "methods": {
      "deposit(address,uint256,address,uint256)": {
        "notice": "Relays to nodes to transfers an ERC20 token cross-chain"
      },
      "depositAndSwap(address,uint256,address,uint256,uint8,uint8,uint256,uint256)": {
        "notice": "Relays to nodes to both transfer an ERC20 token cross-chain, and then have the nodes execute a swap through a liquidity pool on behalf of the user."
      },
      "depositMax(address,uint256,address)": {
        "notice": "Relays to nodes to transfers an ERC20 token cross-chain"
      },
      "depositMaxAndSwapV2(address,uint256,address,address[],address[],uint256)": {
        "notice": "Relays to nodes to both transfer an ERC20 token cross-chain, and then have the nodes execute a swap through a liquidity pool on behalf of the user."
      },
      "mint(address,address,uint256,uint256,bytes32)": {
        "notice": "Nodes call this function to mint a SynERC20 (or any asset that the bridge is given minter access to). This is called by the nodes after a TokenDepositV2 event is emitted."
      },
      "mintAndSwap(address,address,uint256,uint256,address,uint8,uint8,uint256,uint256,bytes32)": {
        "notice": "Nodes call this function to mint a SynERC20 (or any asset that the bridge is given minter access to), and then attempt to swap the SynERC20 into the desired destination asset. This is called by the nodes after a TokenDepositAndSwap event is emitted."
      },
      "mintAndSwapV2(address,address,uint256,uint256,(address[],address[],uint256),bytes32)": {
        "notice": "Nodes call this function to mint a SynERC20 (or any asset that the bridge is given minter access to), and then attempt to swap the SynERC20 into the desired destination asset. This is called by the nodes after a TokenDepositAndSwapV2 event is emitted."
      },
      "redeem(address,uint256,address,uint256)": {
        "notice": "Relays to nodes that (typically) a wrapped synAsset ERC20 token has been burned and the underlying needs to be redeeemed on the native chain"
      },
      "redeemAndRemove(address,uint256,address,uint256,uint8,uint256,uint256)": {
        "notice": "Relays to nodes that (typically) a wrapped synAsset ERC20 token has been burned and the underlying needs to be redeeemed on the native chain. This function indicates to the nodes that they should attempt to redeem the LP token for the underlying assets (E.g \"swap\" out of the LP token)"
      },
      "redeemAndSwap(address,uint256,address,uint256,uint8,uint8,uint256,uint256)": {
        "notice": "Relays to nodes that (typically) a wrapped synAsset ERC20 token has been burned and the underlying needs to be redeeemed on the native chain. This function indicates to the nodes that they should attempt to redeem the LP token for the underlying assets (E.g \"swap\" out of the LP token)"
      },
      "redeemMax(address,uint256,address)": {
        "notice": "Relays to nodes that (typically) a wrapped synAsset ERC20 token has been burned and the underlying needs to be redeeemed on the native chain"
      },
      "redeemMaxAndSwapV2(address,uint256,address,address[],address[],uint256)": {
        "notice": "Relays to nodes that (typically) a wrapped synAsset ERC20 token has been burned and the underlying needs to be redeeemed on the native chain"
      },
      "withdraw(address,address,uint256,uint256,bytes32)": {
        "notice": "Function to be called by the node group to withdraw the underlying assets from the contract"
      },
      "withdrawAndRemove(address,address,uint256,uint256,address,uint8,uint256,uint256,bytes32)": {
        "notice": "Function to be called by the node group to withdraw the underlying assets from the contract"
      },
      "withdrawAndSwapV2(address,address,uint256,uint256,(address[],address[],uint256),bytes32)": {
        "notice": "Function to be called by the node group to withdraw the underlying assets from the contract"
      },
      "withdrawFees(address,address)": {
        "notice": "withdraw specified ERC20 token fees to a given address"
      }
    },
    "version": 1
  },
  "storageLayout": {
    "storage": [
      {
        "astId": 1982,
        "contract": "contracts/bridge/SynapseBridge.sol:SynapseBridge",
        "label": "_initialized",
        "offset": 0,
        "slot": "0",
        "type": "t_bool"
      },
      {
        "astId": 1985,
        "contract": "contracts/bridge/SynapseBridge.sol:SynapseBridge",
        "label": "_initializing",
        "offset": 1,
        "slot": "0",
        "type": "t_bool"
      },
      {
        "astId": 2508,
        "contract": "contracts/bridge/SynapseBridge.sol:SynapseBridge",
        "label": "__gap",
        "offset": 0,
        "slot": "1",
        "type": "t_array(t_uint256)50_storage"
      },
      {
        "astId": 2757,
        "contract": "contracts/bridge/SynapseBridge.sol:SynapseBridge",
        "label": "__gap",
        "offset": 0,
        "slot": "51",
        "type": "t_array(t_uint256)50_storage"
      },
      {
        "astId": 1614,
        "contract": "contracts/bridge/SynapseBridge.sol:SynapseBridge",
        "label": "_roles",
        "offset": 0,
        "slot": "101",
        "type": "t_mapping(t_bytes32,t_struct(RoleData)1609_storage)"
      },
      {
        "astId": 1901,
        "contract": "contracts/bridge/SynapseBridge.sol:SynapseBridge",
        "label": "__gap",
        "offset": 0,
        "slot": "102",
        "type": "t_array(t_uint256)49_storage"
      },
      {
        "astId": 2176,
        "contract": "contracts/bridge/SynapseBridge.sol:SynapseBridge",
        "label": "_status",
        "offset": 0,
        "slot": "151",
        "type": "t_uint256"
      },
      {
        "astId": 2219,
        "contract": "contracts/bridge/SynapseBridge.sol:SynapseBridge",
        "label": "__gap",
        "offset": 0,
        "slot": "152",
        "type": "t_array(t_uint256)49_storage"
      },
      {
        "astId": 2070,
        "contract": "contracts/bridge/SynapseBridge.sol:SynapseBridge",
        "label": "_paused",
        "offset": 0,
        "slot": "201",
        "type": "t_bool"
      },
      {
        "astId": 2161,
        "contract": "contracts/bridge/SynapseBridge.sol:SynapseBridge",
        "label": "__gap",
        "offset": 0,
        "slot": "202",
        "type": "t_array(t_uint256)49_storage"
      },
      {
        "astId": 2905,
        "contract": "contracts/bridge/SynapseBridge.sol:SynapseBridge",
        "label": "fees",
        "offset": 0,
        "slot": "251",
        "type": "t_mapping(t_address,t_uint256)"
      },
      {
        "astId": 2907,
        "contract": "contracts/bridge/SynapseBridge.sol:SynapseBridge",
        "label": "startBlockNumber",
        "offset": 0,
        "slot": "252",
        "type": "t_uint256"
      },
      {
        "astId": 2912,
        "contract": "contracts/bridge/SynapseBridge.sol:SynapseBridge",
        "label": "chainGasAmount",
        "offset": 0,
        "slot": "253",
        "type": "t_uint256"
      },
      {
        "astId": 2914,
        "contract": "contracts/bridge/SynapseBridge.sol:SynapseBridge",
        "label": "WETH_ADDRESS",
        "offset": 0,
        "slot": "254",
        "type": "t_address_payable"
      },
      {
        "astId": 2916,
        "contract": "contracts/bridge/SynapseBridge.sol:SynapseBridge",
        "label": "ROUTER",
        "offset": 0,
        "slot": "255",
        "type": "t_address"
      },
      {
        "astId": 2920,
        "contract": "contracts/bridge/SynapseBridge.sol:SynapseBridge",
        "label": "kappaMap",
        "offset": 0,
        "slot": "256",
        "type": "t_mapping(t_bytes32,t_bool)"
      }
    ],
    "types": {
      "t_address": {
        "encoding": "inplace",
        "label": "address",
        "numberOfBytes": "20"
      },
      "t_address_payable": {
        "encoding": "inplace",
        "label": "address payable",
        "numberOfBytes": "20"
      },
      "t_array(t_uint256)49_storage": {
        "base": "t_uint256",
        "encoding": "inplace",
        "label": "uint256[49]",
        "numberOfBytes": "1568"
      },
      "t_array(t_uint256)50_storage": {
        "base": "t_uint256",
        "encoding": "inplace",
        "label": "uint256[50]",
        "numberOfBytes": "1600"
      },
      "t_bool": {
        "encoding": "inplace",
        "label": "bool",
        "numberOfBytes": "1"
      },
      "t_bytes32": {
        "encoding": "inplace",
        "label": "bytes32",
        "numberOfBytes": "32"
      },
      "t_mapping(t_address,t_bool)": {
        "encoding": "mapping",
        "key": "t_address",
        "label": "mapping(address => bool)",
        "numberOfBytes": "32",
        "value": "t_bool"
      },
      "t_mapping(t_address,t_uint256)": {
        "encoding": "mapping",
        "key": "t_address",
        "label": "mapping(address => uint256)",
        "numberOfBytes": "32",
        "value": "t_uint256"
      },
      "t_mapping(t_bytes32,t_bool)": {
        "encoding": "mapping",
        "key": "t_bytes32",
        "label": "mapping(bytes32 => bool)",
        "numberOfBytes": "32",
        "value": "t_bool"
      },
      "t_mapping(t_bytes32,t_struct(RoleData)1609_storage)": {
        "encoding": "mapping",
        "key": "t_bytes32",
        "label": "mapping(bytes32 => struct AccessControlUpgradeable.RoleData)",
        "numberOfBytes": "32",
        "value": "t_struct(RoleData)1609_storage"
      },
      "t_struct(RoleData)1609_storage": {
        "encoding": "inplace",
        "label": "struct AccessControlUpgradeable.RoleData",
        "members": [
          {
            "astId": 1606,
            "contract": "contracts/bridge/SynapseBridge.sol:SynapseBridge",
            "label": "members",
            "offset": 0,
            "slot": "0",
            "type": "t_mapping(t_address,t_bool)"
          },
          {
            "astId": 1608,
            "contract": "contracts/bridge/SynapseBridge.sol:SynapseBridge",
            "label": "adminRole",
            "offset": 0,
            "slot": "1",
            "type": "t_bytes32"
          }
        ],
        "numberOfBytes": "64"
      },
      "t_uint256": {
        "encoding": "inplace",
        "label": "uint256",
        "numberOfBytes": "32"
      }
    }
  }
}