{
  "address": "0x6F4e8eBa4D337f874Ab57478AcC2Cb5BACdc19c9",
  "abi": [
    {
      "inputs": [
        {
          "internalType": "address",
          "name": "_messageBus",
          "type": "address"
        }
      ],
      "stateMutability": "nonpayable",
      "type": "constructor"
    },
    {
      "anonymous": false,
      "inputs": [
        {
          "indexed": true,
          "internalType": "address",
          "name": "previousOwner",
          "type": "address"
        },
        {
          "indexed": true,
          "internalType": "address",
          "name": "newOwner",
          "type": "address"
        }
      ],
      "name": "OwnershipTransferred",
      "type": "event"
    },
    {
      "anonymous": false,
      "inputs": [
        {
          "indexed": false,
          "internalType": "uint256",
          "name": "_srcChainId",
          "type": "uint256"
        },
        {
          "indexed": false,
          "internalType": "bytes32",
          "name": "_srcAddress",
          "type": "bytes32"
        }
      ],
      "name": "SetTrustedRemote",
      "type": "event"
    },
    {
      "inputs": [
        {
          "internalType": "bytes32",
          "name": "_srcAddress",
          "type": "bytes32"
        },
        {
          "internalType": "uint256",
          "name": "_srcChainId",
          "type": "uint256"
        },
        {
          "internalType": "bytes",
          "name": "_message",
          "type": "bytes"
        },
        {
          "internalType": "address",
          "name": "_executor",
          "type": "address"
        }
      ],
      "name": "executeMessage",
      "outputs": [
        {
          "internalType": "enum ISynMessagingReceiver.MsgExecutionStatus",
          "name": "",
          "type": "uint8"
        }
      ],
      "stateMutability": "nonpayable",
      "type": "function"
    },
    {
      "inputs": [
        {
          "internalType": "uint256",
          "name": "_chainId",
          "type": "uint256"
        }
      ],
      "name": "getTrustedRemote",
      "outputs": [
        {
          "internalType": "bytes32",
          "name": "trustedRemote",
          "type": "bytes32"
        }
      ],
      "stateMutability": "view",
      "type": "function"
    },
    {
      "inputs": [],
      "name": "messageBus",
      "outputs": [
        {
          "internalType": "address",
          "name": "",
          "type": "address"
        }
      ],
      "stateMutability": "view",
      "type": "function"
    },
    {
      "inputs": [],
      "name": "owner",
      "outputs": [
        {
          "internalType": "address",
          "name": "",
          "type": "address"
        }
      ],
      "stateMutability": "view",
      "type": "function"
    },
    {
      "inputs": [],
      "name": "renounceOwnership",
      "outputs": [],
      "stateMutability": "nonpayable",
      "type": "function"
    },
    {
      "inputs": [
        {
          "internalType": "bytes32[]",
          "name": "_receiver",
          "type": "bytes32[]"
        },
        {
          "internalType": "uint256[]",
          "name": "_dstChainId",
          "type": "uint256[]"
        },
        {
          "internalType": "bytes[]",
          "name": "_message",
          "type": "bytes[]"
        },
        {
          "internalType": "bytes[]",
          "name": "_options",
          "type": "bytes[]"
        }
      ],
      "name": "sendMultipleMessages",
      "outputs": [],
      "stateMutability": "payable",
      "type": "function"
    },
    {
      "inputs": [
        {
          "internalType": "address",
          "name": "_messageBus",
          "type": "address"
        }
      ],
      "name": "setMessageBus",
      "outputs": [],
      "stateMutability": "nonpayable",
      "type": "function"
    },
    {
      "inputs": [
        {
          "internalType": "uint256",
          "name": "_srcChainId",
          "type": "uint256"
        },
        {
          "internalType": "bytes32",
          "name": "_srcAddress",
          "type": "bytes32"
        }
      ],
      "name": "setTrustedRemote",
      "outputs": [],
      "stateMutability": "nonpayable",
      "type": "function"
    },
    {
      "inputs": [
        {
          "internalType": "address",
          "name": "newOwner",
          "type": "address"
        }
      ],
      "name": "transferOwnership",
      "outputs": [],
      "stateMutability": "nonpayable",
      "type": "function"
    }
  ],
  "transactionHash": "0x9d2c361102739352218301c206351155873acd1e065b870f18fee52d78cc556c",
  "args": [
    "0xE27BFf97CE92C3e1Ff7AA9f86781FDd6D48F5eE9"
  ],
  "solcInputHash": "9e7d058856e3e7fa07d6bebcdaa7de4f",
  "bytecode": "0x608060405234801561001057600080fd5b5060405161100738038061100783398101604081905261002f916100ad565b6100383361005d565b600180546001600160a01b0319166001600160a01b03929092169190911790556100dd565b600080546001600160a01b038381166001600160a01b0319831681178455604051919092169283917f8be0079c531659141344cd1fd0a4f28419497f9722a3daafe3b4186f6b6457e09190a35050565b6000602082840312156100bf57600080fd5b81516001600160a01b03811681146100d657600080fd5b9392505050565b610f1b806100ec6000396000f3fe6080604052600436106100965760003560e01c8063a1a227fa11610069578063b51ca31e1161004e578063b51ca31e146101b8578063bd3583ae146101cb578063f2fde38b146101eb57600080fd5b8063a1a227fa1461015e578063a60608711461018b57600080fd5b8063547cad121461009b578063715018a6146100bd57806384a12b0f146100d25780638da5cb5b14610112575b600080fd5b3480156100a757600080fd5b506100bb6100b6366004610946565b61020b565b005b3480156100c957600080fd5b506100bb6102d8565b3480156100de57600080fd5b506100ff6100ed366004610968565b60009081526002602052604090205490565b6040519081526020015b60405180910390f35b34801561011e57600080fd5b5060005473ffffffffffffffffffffffffffffffffffffffff165b60405173ffffffffffffffffffffffffffffffffffffffff9091168152602001610109565b34801561016a57600080fd5b506001546101399073ffffffffffffffffffffffffffffffffffffffff1681565b34801561019757600080fd5b506101ab6101a6366004610981565b610365565b6040516101099190610a18565b6100bb6101c6366004610c68565b6104ad565b3480156101d757600080fd5b506100bb6101e6366004610d6a565b61069e565b3480156101f757600080fd5b506100bb610206366004610946565b61076e565b60005473ffffffffffffffffffffffffffffffffffffffff163314610291576040517f08c379a000000000000000000000000000000000000000000000000000000000815260206004820181905260248201527f4f776e61626c653a2063616c6c6572206973206e6f7420746865206f776e657260448201526064015b60405180910390fd5b600180547fffffffffffffffffffffffff00000000000000000000000000000000000000001673ffffffffffffffffffffffffffffffffffffffff92909216919091179055565b60005473ffffffffffffffffffffffffffffffffffffffff163314610359576040517f08c379a000000000000000000000000000000000000000000000000000000000815260206004820181905260248201527f4f776e61626c653a2063616c6c6572206973206e6f7420746865206f776e65726044820152606401610288565b610363600061089e565b565b60015460009073ffffffffffffffffffffffffffffffffffffffff1633146103e9576040517f08c379a000000000000000000000000000000000000000000000000000000000815260206004820152601960248201527f63616c6c6572206973206e6f74206d65737361676520627573000000000000006044820152606401610288565b6000858152600260205260409020548614610460576040517f08c379a000000000000000000000000000000000000000000000000000000000815260206004820152601a60248201527f496e76616c696420736f757263652073656e64696e67206170700000000000006044820152606401610288565b6104a3868686868080601f016020809104026020016040519081016040528093929190818152602001838380828437600092019190915250889250610913915050565b9695505050505050565b82518451146104bb57600080fd5b81518451146104c957600080fd5b80518451146104d757600080fd5b60008251346104e69190610d8c565b905060005b83518161ffff161015610696576000801b60026000878461ffff168151811061051657610516610dc7565b602002602001015181526020019081526020016000205403610594576040517f08c379a000000000000000000000000000000000000000000000000000000000815260206004820152601b60248201527f5265636569766572206e6f7420747275737465642072656d6f746500000000006044820152606401610288565b600154865173ffffffffffffffffffffffffffffffffffffffff9091169063ac8a4c1b908490899061ffff86169081106105d0576105d0610dc7565b6020026020010151888561ffff16815181106105ee576105ee610dc7565b6020026020010151888661ffff168151811061060c5761060c610dc7565b6020026020010151888761ffff168151811061062a5761062a610dc7565b60200260200101516040518663ffffffff1660e01b81526004016106519493929190610e61565b6000604051808303818588803b15801561066a57600080fd5b505af115801561067e573d6000803e3d6000fd5b5050505050808061068e90610e9d565b9150506104eb565b505050505050565b60005473ffffffffffffffffffffffffffffffffffffffff16331461071f576040517f08c379a000000000000000000000000000000000000000000000000000000000815260206004820181905260248201527f4f776e61626c653a2063616c6c6572206973206e6f7420746865206f776e65726044820152606401610288565b60008281526002602090815260409182902083905581518481529081018390527f642e74356c0610a9f944fb1a2d88d2fb82c6b74921566eee8bc0f9bb30f74f03910160405180910390a15050565b60005473ffffffffffffffffffffffffffffffffffffffff1633146107ef576040517f08c379a000000000000000000000000000000000000000000000000000000000815260206004820181905260248201527f4f776e61626c653a2063616c6c6572206973206e6f7420746865206f776e65726044820152606401610288565b73ffffffffffffffffffffffffffffffffffffffff8116610892576040517f08c379a000000000000000000000000000000000000000000000000000000000815260206004820152602660248201527f4f776e61626c653a206e6577206f776e657220697320746865207a65726f206160448201527f64647265737300000000000000000000000000000000000000000000000000006064820152608401610288565b61089b8161089e565b50565b6000805473ffffffffffffffffffffffffffffffffffffffff8381167fffffffffffffffffffffffff0000000000000000000000000000000000000000831681178455604051919092169283917f8be0079c531659141344cd1fd0a4f28419497f9722a3daafe3b4186f6b6457e09190a35050565b6000949350505050565b803573ffffffffffffffffffffffffffffffffffffffff8116811461094157600080fd5b919050565b60006020828403121561095857600080fd5b6109618261091d565b9392505050565b60006020828403121561097a57600080fd5b5035919050565b60008060008060006080868803121561099957600080fd5b8535945060208601359350604086013567ffffffffffffffff808211156109bf57600080fd5b818801915088601f8301126109d357600080fd5b8135818111156109e257600080fd5b8960208285010111156109f457600080fd5b602083019550809450505050610a0c6060870161091d565b90509295509295909350565b6020810160028310610a53577f4e487b7100000000000000000000000000000000000000000000000000000000600052602160045260246000fd5b91905290565b7f4e487b7100000000000000000000000000000000000000000000000000000000600052604160045260246000fd5b604051601f82017fffffffffffffffffffffffffffffffffffffffffffffffffffffffffffffffe016810167ffffffffffffffff81118282101715610acf57610acf610a59565b604052919050565b600067ffffffffffffffff821115610af157610af1610a59565b5060051b60200190565b600082601f830112610b0c57600080fd5b81356020610b21610b1c83610ad7565b610a88565b82815260059290921b84018101918181019086841115610b4057600080fd5b8286015b84811015610b5b5780358352918301918301610b44565b509695505050505050565b6000601f8381840112610b7857600080fd5b82356020610b88610b1c83610ad7565b82815260059290921b85018101918181019087841115610ba757600080fd5b8287015b84811015610c5c57803567ffffffffffffffff80821115610bcc5760008081fd5b818a0191508a603f830112610be15760008081fd5b85820135604082821115610bf757610bf7610a59565b610c26887fffffffffffffffffffffffffffffffffffffffffffffffffffffffffffffffe08c85011601610a88565b92508183528c81838601011115610c3d5760008081fd5b8181850189850137506000908201870152845250918301918301610bab565b50979650505050505050565b60008060008060808587031215610c7e57600080fd5b843567ffffffffffffffff80821115610c9657600080fd5b818701915087601f830112610caa57600080fd5b81356020610cba610b1c83610ad7565b82815260059290921b8401810191818101908b841115610cd957600080fd5b948201945b83861015610cf757853582529482019490820190610cde565b98505088013592505080821115610d0d57600080fd5b610d1988838901610afb565b94506040870135915080821115610d2f57600080fd5b610d3b88838901610b66565b93506060870135915080821115610d5157600080fd5b50610d5e87828801610b66565b91505092959194509250565b60008060408385031215610d7d57600080fd5b50508035926020909101359150565b600082610dc2577f4e487b7100000000000000000000000000000000000000000000000000000000600052601260045260246000fd5b500490565b7f4e487b7100000000000000000000000000000000000000000000000000000000600052603260045260246000fd5b6000815180845260005b81811015610e1c57602081850181015186830182015201610e00565b81811115610e2e576000602083870101525b50601f017fffffffffffffffffffffffffffffffffffffffffffffffffffffffffffffffe0169290920160200192915050565b848152836020820152608060408201526000610e806080830185610df6565b8281036060840152610e928185610df6565b979650505050505050565b600061ffff808316818103610edb577f4e487b7100000000000000000000000000000000000000000000000000000000600052601160045260246000fd5b600101939250505056fea26469706673582212208055e709a9e9f87a2c84a3931166d7002377f0ba07d8d5b162b5d7ad8e1286d364736f6c634300080d0033",
  "devdoc": {
    "kind": "dev",
    "methods": {
      "executeMessage(bytes32,uint256,bytes,address)": {
        "details": "Must be called by MessageBug & sent from src chain by a trusted srcApp",
        "params": {
          "_executor": "Address who called the MessageBus execution function",
          "_message": "Arbitrary message bytes originated from and encoded by the source app contract",
          "_srcAddress": "The bytes32 address of the source app contract",
          "_srcChainId": "The source chain ID where the transfer is originated from"
        },
        "returns": {
          "_0": "status Enum containing options of Success, Fail, Retry"
        }
      },
      "owner()": {
        "details": "Returns the address of the current owner."
      },
      "renounceOwnership()": {
        "details": "Leaves the contract without owner. It will not be possible to call `onlyOwner` functions anymore. Can only be called by the current owner. NOTE: Renouncing ownership will leave the contract without an owner, thereby removing any functionality that is only available to the owner."
      },
      "transferOwnership(address)": {
        "details": "Transfers ownership of the contract to a new account (`newOwner`). Can only be called by the current owner."
      }
    },
    "title": "Example app of sending multiple messages in one transaction",
    "version": 1
  },
  "userdoc": {
    "kind": "user",
    "methods": {
      "executeMessage(bytes32,uint256,bytes,address)": {
        "notice": "Executes a message called by MessageBus (MessageBusReceiver)"
      }
    },
    "version": 1
  },
  "storageLayout": {
    "storage": [
      {
        "astId": 7,
        "contract": "contracts/messaging/apps/BatchMessageSender.sol:BatchMessageSender",
        "label": "_owner",
        "offset": 0,
        "slot": "0",
        "type": "t_address"
      },
      {
        "astId": 9592,
        "contract": "contracts/messaging/apps/BatchMessageSender.sol:BatchMessageSender",
        "label": "messageBus",
        "offset": 0,
        "slot": "1",
        "type": "t_address"
      },
      {
        "astId": 9596,
        "contract": "contracts/messaging/apps/BatchMessageSender.sol:BatchMessageSender",
        "label": "trustedRemoteLookup",
        "offset": 0,
        "slot": "2",
        "type": "t_mapping(t_uint256,t_bytes32)"
      }
    ],
    "types": {
      "t_address": {
        "encoding": "inplace",
        "label": "address",
        "numberOfBytes": "20"
      },
      "t_bytes32": {
        "encoding": "inplace",
        "label": "bytes32",
        "numberOfBytes": "32"
      },
      "t_mapping(t_uint256,t_bytes32)": {
        "encoding": "mapping",
        "key": "t_uint256",
        "label": "mapping(uint256 => bytes32)",
        "numberOfBytes": "32",
        "value": "t_bytes32"
      },
      "t_uint256": {
        "encoding": "inplace",
        "label": "uint256",
        "numberOfBytes": "32"
      }
    }
  }
}