{
  "address": "0x0783A772277C70cA529cd65194CA12AcF0c095a2",
  "abi": [
    {
      "anonymous": false,
      "inputs": [
        {
          "indexed": true,
          "internalType": "address",
          "name": "token",
          "type": "address"
        }
      ],
      "name": "ResetAllowance",
      "type": "event"
    },
    {
      "anonymous": false,
      "inputs": [
        {
          "indexed": true,
          "internalType": "bytes32",
          "name": "role",
          "type": "bytes32"
        },
        {
          "indexed": true,
          "internalType": "bytes32",
          "name": "previousAdminRole",
          "type": "bytes32"
        },
        {
          "indexed": true,
          "internalType": "bytes32",
          "name": "newAdminRole",
          "type": "bytes32"
        }
      ],
      "name": "RoleAdminChanged",
      "type": "event"
    },
    {
      "anonymous": false,
      "inputs": [
        {
          "indexed": true,
          "internalType": "bytes32",
          "name": "role",
          "type": "bytes32"
        },
        {
          "indexed": true,
          "internalType": "address",
          "name": "account",
          "type": "address"
        },
        {
          "indexed": true,
          "internalType": "address",
          "name": "sender",
          "type": "address"
        }
      ],
      "name": "RoleGranted",
      "type": "event"
    },
    {
      "anonymous": false,
      "inputs": [
        {
          "indexed": true,
          "internalType": "bytes32",
          "name": "role",
          "type": "bytes32"
        },
        {
          "indexed": true,
          "internalType": "address",
          "name": "account",
          "type": "address"
        },
        {
          "indexed": true,
          "internalType": "address",
          "name": "sender",
          "type": "address"
        }
      ],
      "name": "RoleRevoked",
      "type": "event"
    },
    {
      "anonymous": false,
      "inputs": [
        {
          "indexed": true,
          "internalType": "address",
          "name": "token",
          "type": "address"
        },
        {
          "indexed": false,
          "internalType": "uint96",
          "name": "allowanceAmount",
          "type": "uint96"
        },
        {
          "indexed": false,
          "internalType": "uint16",
          "name": "resetTime",
          "type": "uint16"
        }
      ],
      "name": "SetAllowance",
      "type": "event"
    },
    {
      "inputs": [],
      "name": "BRIDGE_ADDRESS",
      "outputs": [
        {
          "internalType": "address",
          "name": "",
          "type": "address"
        }
      ],
      "stateMutability": "view",
      "type": "function"
    },
    {
      "inputs": [],
      "name": "BRIDGE_ROLE",
      "outputs": [
        {
          "internalType": "bytes32",
          "name": "",
          "type": "bytes32"
        }
      ],
      "stateMutability": "view",
      "type": "function"
    },
    {
      "inputs": [],
      "name": "DEFAULT_ADMIN_ROLE",
      "outputs": [
        {
          "internalType": "bytes32",
          "name": "",
          "type": "bytes32"
        }
      ],
      "stateMutability": "view",
      "type": "function"
    },
    {
      "inputs": [],
      "name": "GOVERNANCE_ROLE",
      "outputs": [
        {
          "internalType": "bytes32",
          "name": "",
          "type": "bytes32"
        }
      ],
      "stateMutability": "view",
      "type": "function"
    },
    {
      "inputs": [],
      "name": "LIMITER_ROLE",
      "outputs": [
        {
          "internalType": "bytes32",
          "name": "",
          "type": "bytes32"
        }
      ],
      "stateMutability": "view",
      "type": "function"
    },
    {
      "inputs": [],
      "name": "MIN_RETRY_TIMEOUT",
      "outputs": [
        {
          "internalType": "uint32",
          "name": "",
          "type": "uint32"
        }
      ],
      "stateMutability": "view",
      "type": "function"
    },
    {
      "inputs": [],
      "name": "NAME",
      "outputs": [
        {
          "internalType": "string",
          "name": "",
          "type": "string"
        }
      ],
      "stateMutability": "view",
      "type": "function"
    },
    {
      "inputs": [],
      "name": "VERSION",
      "outputs": [
        {
          "internalType": "string",
          "name": "",
          "type": "string"
        }
      ],
      "stateMutability": "view",
      "type": "function"
    },
    {
      "inputs": [
        {
          "internalType": "bytes32",
          "name": "kappa",
          "type": "bytes32"
        },
        {
          "internalType": "bytes",
          "name": "toRetry",
          "type": "bytes"
        }
      ],
      "name": "addToRetryQueue",
      "outputs": [],
      "stateMutability": "nonpayable",
      "type": "function"
    },
    {
      "inputs": [
        {
          "internalType": "address",
          "name": "",
          "type": "address"
        }
      ],
      "name": "allowances",
      "outputs": [
        {
          "internalType": "uint96",
          "name": "amount",
          "type": "uint96"
        },
        {
          "internalType": "uint96",
          "name": "spent",
          "type": "uint96"
        },
        {
          "internalType": "uint16",
          "name": "resetTimeMin",
          "type": "uint16"
        },
        {
          "internalType": "uint32",
          "name": "lastResetMin",
          "type": "uint32"
        },
        {
          "internalType": "bool",
          "name": "initialized",
          "type": "bool"
        }
      ],
      "stateMutability": "view",
      "type": "function"
    },
    {
      "inputs": [
        {
          "internalType": "address",
          "name": "token",
          "type": "address"
        },
        {
          "internalType": "uint256",
          "name": "amount",
          "type": "uint256"
        }
      ],
      "name": "checkAndUpdateAllowance",
      "outputs": [
        {
          "internalType": "bool",
          "name": "",
          "type": "bool"
        }
      ],
      "stateMutability": "nonpayable",
      "type": "function"
    },
    {
      "inputs": [
        {
          "internalType": "bytes32",
          "name": "kappa",
          "type": "bytes32"
        }
      ],
      "name": "deleteByKappa",
      "outputs": [],
      "stateMutability": "nonpayable",
      "type": "function"
    },
    {
      "inputs": [
        {
          "internalType": "bytes32",
          "name": "role",
          "type": "bytes32"
        }
      ],
      "name": "getRoleAdmin",
      "outputs": [
        {
          "internalType": "bytes32",
          "name": "",
          "type": "bytes32"
        }
      ],
      "stateMutability": "view",
      "type": "function"
    },
    {
      "inputs": [
        {
          "internalType": "address",
          "name": "token",
          "type": "address"
        }
      ],
      "name": "getTokenAllowance",
      "outputs": [
        {
          "internalType": "uint256[4]",
          "name": "",
          "type": "uint256[4]"
        }
      ],
      "stateMutability": "view",
      "type": "function"
    },
    {
      "inputs": [],
      "name": "getTokens",
      "outputs": [
        {
          "internalType": "address[]",
          "name": "",
          "type": "address[]"
        }
      ],
      "stateMutability": "view",
      "type": "function"
    },
    {
      "inputs": [
        {
          "internalType": "bytes32",
          "name": "role",
          "type": "bytes32"
        },
        {
          "internalType": "address",
          "name": "account",
          "type": "address"
        }
      ],
      "name": "grantRole",
      "outputs": [],
      "stateMutability": "nonpayable",
      "type": "function"
    },
    {
      "inputs": [
        {
          "internalType": "bytes32",
          "name": "role",
          "type": "bytes32"
        },
        {
          "internalType": "address",
          "name": "account",
          "type": "address"
        }
      ],
      "name": "hasRole",
      "outputs": [
        {
          "internalType": "bool",
          "name": "",
          "type": "bool"
        }
      ],
      "stateMutability": "view",
      "type": "function"
    },
    {
      "inputs": [],
      "name": "initialize",
      "outputs": [],
      "stateMutability": "nonpayable",
      "type": "function"
    },
    {
      "inputs": [
        {
          "internalType": "bytes32",
          "name": "role",
          "type": "bytes32"
        },
        {
          "internalType": "address",
          "name": "account",
          "type": "address"
        }
      ],
      "name": "renounceRole",
      "outputs": [],
      "stateMutability": "nonpayable",
      "type": "function"
    },
    {
      "inputs": [
        {
          "internalType": "address",
          "name": "token",
          "type": "address"
        }
      ],
      "name": "resetAllowance",
      "outputs": [],
      "stateMutability": "nonpayable",
      "type": "function"
    },
    {
      "inputs": [
        {
          "internalType": "bytes32",
          "name": "kappa",
          "type": "bytes32"
        }
      ],
      "name": "retryByKappa",
      "outputs": [],
      "stateMutability": "nonpayable",
      "type": "function"
    },
    {
      "inputs": [
        {
          "internalType": "uint8",
          "name": "count",
          "type": "uint8"
        }
      ],
      "name": "retryCount",
      "outputs": [],
      "stateMutability": "nonpayable",
      "type": "function"
    },
    {
      "inputs": [],
      "name": "retryQueueLength",
      "outputs": [
        {
          "internalType": "uint256",
          "name": "length",
          "type": "uint256"
        }
      ],
      "stateMutability": "view",
      "type": "function"
    },
    {
      "inputs": [],
      "name": "retryTimeout",
      "outputs": [
        {
          "internalType": "uint32",
          "name": "",
          "type": "uint32"
        }
      ],
      "stateMutability": "view",
      "type": "function"
    },
    {
      "inputs": [
        {
          "internalType": "bytes32",
          "name": "role",
          "type": "bytes32"
        },
        {
          "internalType": "address",
          "name": "account",
          "type": "address"
        }
      ],
      "name": "revokeRole",
      "outputs": [],
      "stateMutability": "nonpayable",
      "type": "function"
    },
    {
      "inputs": [
        {
          "internalType": "address",
          "name": "token",
          "type": "address"
        },
        {
          "internalType": "uint96",
          "name": "allowanceAmount",
          "type": "uint96"
        },
        {
          "internalType": "uint16",
          "name": "resetTimeMin",
          "type": "uint16"
        },
        {
          "internalType": "uint32",
          "name": "resetBaseMin",
          "type": "uint32"
        }
      ],
      "name": "setAllowance",
      "outputs": [],
      "stateMutability": "nonpayable",
      "type": "function"
    },
    {
      "inputs": [
        {
          "internalType": "address",
          "name": "bridge",
          "type": "address"
        }
      ],
      "name": "setBridgeAddress",
      "outputs": [],
      "stateMutability": "nonpayable",
      "type": "function"
    },
    {
      "inputs": [
        {
          "internalType": "uint32",
          "name": "_retryTimeout",
          "type": "uint32"
        }
      ],
      "name": "setRetryTimeout",
      "outputs": [],
      "stateMutability": "nonpayable",
      "type": "function"
    },
    {
      "inputs": [
        {
          "internalType": "bytes4",
          "name": "interfaceId",
          "type": "bytes4"
        }
      ],
      "name": "supportsInterface",
      "outputs": [
        {
          "internalType": "bool",
          "name": "",
          "type": "bool"
        }
      ],
      "stateMutability": "view",
      "type": "function"
    },
    {
      "inputs": [
        {
          "internalType": "uint256",
          "name": "",
          "type": "uint256"
        }
      ],
      "name": "tokens",
      "outputs": [
        {
          "internalType": "address",
          "name": "",
          "type": "address"
        }
      ],
      "stateMutability": "view",
      "type": "function"
    }
  ],
  "transactionHash": "0x5fc31eb34abfc8038dbbd9a09eee05df80b56d8ac4b2ec92d5ad4ab8b2648171",
  "args": [],
  "solcInputHash": "a10bad590e6f15313bad17f0c537c7b0",
  "bytecode": "0x608060405234801561001057600080fd5b50612dcf806100206000396000f3fe608060405234801561001057600080fd5b50600436106101da5760003560e01c8063a3f4df7e11610104578063b5bfddea116100a2578063e91e2f6d11610071578063e91e2f6d146105b7578063f36c8f5c146105ca578063f778c12e146105f1578063ffa1ad741461060457600080fd5b8063b5bfddea1461054a578063c44f340014610571578063cf7fdc9d14610584578063d547741f146105a457600080fd5b8063aa6ca808116100de578063aa6ca808146104e8578063b3de4214146104fd578063b3e8e4b814610524578063b55f46e51461053757600080fd5b8063a3f4df7e1461046c578063a5b599e4146104b5578063a88e42ce146104d557600080fd5b80634ed416081161017c5780637f5a22f91161014b5780637f5a22f9146104035780638129fc1c1461041657806391d148541461041e578063a217fddf1461046457600080fd5b80634ed41608146103885780634f64b2be146103905780635eb9c710146103c85780637eb5016e146103db57600080fd5b8063248a9ca3116101b8578063248a9ca3146102395780632b603c711461026a5780632f2ff15d1461036257806336568abe1461037557600080fd5b806301ffc9a7146101df57806313398a901461020757806314cec89614610224575b600080fd5b6101f26101ed3660046124ed565b610640565b60405190151581526020015b60405180910390f35b61020f600a81565b60405163ffffffff90911681526020016101fe565b61023761023236600461252f565b6106d9565b005b61025c610247366004612552565b60009081526065602052604090206001015490565b6040519081526020016101fe565b61031a610278366004612594565b60c9602052600090815260409020546bffffffffffffffffffffffff808216916c010000000000000000000000008104909116907801000000000000000000000000000000000000000000000000810461ffff16907a010000000000000000000000000000000000000000000000000000810463ffffffff16907e01000000000000000000000000000000000000000000000000000000000000900460ff1685565b604080516bffffffffffffffffffffffff968716815295909416602086015261ffff9092169284019290925263ffffffff90911660608301521515608082015260a0016101fe565b6102376103703660046125af565b61076e565b6102376103833660046125af565b610799565b61025c610851565b6103a361039e366004612552565b610862565b60405173ffffffffffffffffffffffffffffffffffffffff90911681526020016101fe565b6102376103d6366004612552565b610899565b60ce5461020f9074010000000000000000000000000000000000000000900463ffffffff1681565b610237610411366004612594565b6109b9565b610237610a2c565b6101f261042c3660046125af565b600091825260656020908152604080842073ffffffffffffffffffffffffffffffffffffffff93909316845291905290205460ff1690565b61025c600081565b6104a86040518060400160405280600c81526020017f52617465204c696d69746572000000000000000000000000000000000000000081525081565b6040516101fe9190612607565b6104c86104c3366004612594565b610b9a565b6040516101fe9190612658565b6101f26104e3366004612689565b610c0e565b6104f0610ea5565b6040516101fe91906126b3565b61025c7ff7b34cf87af24ce01c1aff9f518b133989851466d994e0016fc14651fa02826c81565b610237610532366004612721565b610f14565b610237610545366004612791565b611293565b61025c7f52ba824bfabc2bcfcdf7f0edbb486ebb05e1836c90e78047efeb949990f72e5f81565b61023761057f366004612552565b61137f565b60ce546103a39073ffffffffffffffffffffffffffffffffffffffff1681565b6102376105b23660046125af565b6113b5565b6102376105c5366004612594565b6113db565b61025c7f71840dc4906352362b0cdaf79870196c8e42acafade72d5d5a6d59291253ceb181565b6102376105ff366004612870565b6115b1565b6104a86040518060400160405280600581526020017f302e312e3000000000000000000000000000000000000000000000000000000081525081565b60007fffffffff0000000000000000000000000000000000000000000000000000000082167f7965db0b0000000000000000000000000000000000000000000000000000000014806106d357507f01ffc9a7000000000000000000000000000000000000000000000000000000007fffffffff000000000000000000000000000000000000000000000000000000008316145b92915050565b7ff7b34cf87af24ce01c1aff9f518b133989851466d994e0016fc14651fa02826c61070481336115e8565b600061071c8360ff1661071760ca6116ba565b61170d565b905060005b8160ff168160ff1610156107685760008061073c60ca611725565b508051919350915015610753576107538282611840565b5050808061076090612929565b915050610721565b50505050565b60008281526065602052604090206001015461078a81336115e8565b6107948383611973565b505050565b73ffffffffffffffffffffffffffffffffffffffff81163314610843576040517f08c379a000000000000000000000000000000000000000000000000000000000815260206004820152602f60248201527f416363657373436f6e74726f6c3a2063616e206f6e6c792072656e6f756e636560448201527f20726f6c657320666f722073656c66000000000000000000000000000000000060648201526084015b60405180910390fd5b61084d8282611a67565b5050565b600061085d60ca6116ba565b905090565b60cf818154811061087257600080fd5b60009182526020909120015473ffffffffffffffffffffffffffffffffffffffff16905081565b6000806108a760ca84611b22565b81519193509150156109b0573360009081527f3ed388a1d2364d5b9a8aaca854ba9c96aa9f1f92229c5253866b634067b14585602052604090205460ff1661099b5760006108f6603c42612978565b60ce549091506109249074010000000000000000000000000000000000000000900463ffffffff168361298c565b63ffffffff168163ffffffff161015610999576040517f08c379a000000000000000000000000000000000000000000000000000000000815260206004820152601a60248201527f52657472792074696d656f7574206e6f742066696e6973686564000000000000604482015260640161083a565b505b6109a660ca84611bda565b6107948383611840565b61079483611c0b565b7f71840dc4906352362b0cdaf79870196c8e42acafade72d5d5a6d59291253ceb16109e481336115e8565b5060ce80547fffffffffffffffffffffffff00000000000000000000000000000000000000001673ffffffffffffffffffffffffffffffffffffffff92909216919091179055565b600054610100900460ff16610a475760005460ff1615610a4b565b303b155b610ad7576040517f08c379a000000000000000000000000000000000000000000000000000000000815260206004820152602e60248201527f496e697469616c697a61626c653a20636f6e747261637420697320616c72656160448201527f647920696e697469616c697a6564000000000000000000000000000000000000606482015260840161083a565b600054610100900460ff16158015610b1657600080547fffffffffffffffffffffffffffffffffffffffffffffffffffffffffffff0000166101011790555b610b21600033611dc2565b610b29611dcc565b60ce80547fffffffffffffffff00000000ffffffffffffffffffffffffffffffffffffffff16740a00000000000000000000000000000000000000001790558015610b9757600080547fffffffffffffffffffffffffffffffffffffffffffffffffffffffffffff00ff1690555b50565b610ba26123fc565b6000610bad83611e65565b9050604051806080016040528082600001516bffffffffffffffffffffffff16815260200182602001516bffffffffffffffffffffffff168152602001826040015161ffff168152602001826060015163ffffffff16815250915050919050565b600060026097541415610c7d576040517f08c379a000000000000000000000000000000000000000000000000000000000815260206004820152601f60248201527f5265656e7472616e637947756172643a207265656e7472616e742063616c6c00604482015260640161083a565b60026097557f52ba824bfabc2bcfcdf7f0edbb486ebb05e1836c90e78047efeb949990f72e5f610cad81336115e8565b6000610cb885611e65565b90506000848260200151610ccc91906129b4565b905081600001516bffffffffffffffffffffffff16816bffffffffffffffffffffffff161115610d0157600093505050610e99565b6bffffffffffffffffffffffff81166020830152610e92868373ffffffffffffffffffffffffffffffffffffffff909116600090815260c96020908152604091829020835181549285015193850151606086015160809096015115157e01000000000000000000000000000000000000000000000000000000000000027fff00ffffffffffffffffffffffffffffffffffffffffffffffffffffffffffff63ffffffff9097167a010000000000000000000000000000000000000000000000000000027fffff00000000ffffffffffffffffffffffffffffffffffffffffffffffffffff61ffff909316780100000000000000000000000000000000000000000000000002929092167fffff000000000000ffffffffffffffffffffffffffffffffffffffffffffffff6bffffffffffffffffffffffff9788166c01000000000000000000000000027fffffffffffffffff00000000000000000000000000000000000000000000000090971697909416969096179490941791909116939093179290921792909216919091179055565b6001935050505b50600160975592915050565b606060cf805480602002602001604051908101604052809291908181526020018280548015610f0a57602002820191906000526020600020905b815473ffffffffffffffffffffffffffffffffffffffff168152600190910190602001808311610edf575b5050505050905090565b7ff7b34cf87af24ce01c1aff9f518b133989851466d994e0016fc14651fa02826c610f3f81336115e8565b6000610f4a86611e65565b90508060800151610fcb5760016080820181905260cf805491820181556000527facb8d954e2cfef495862221e91bd7523613cf8808827cb33edfe4904cc51bf290180547fffffffffffffffffffffffff00000000000000000000000000000000000000001673ffffffffffffffffffffffffffffffffffffffff88161790555b6000610fd8603c42612978565b905063ffffffff84161561108f578063ffffffff168463ffffffff16111561105c576040517f08c379a000000000000000000000000000000000000000000000000000000000815260206004820152601a60248201527f7265736574426173654d696e203c3d2063757272656e744d696e000000000000604482015260640161083a565b61ffff851661106b85836129db565b6110759190612a00565b61107f90826129db565b63ffffffff1660608301526110ab565b606082015163ffffffff166110ab5763ffffffff811660608301525b61ffff85811660408481019182526bffffffffffffffffffffffff898116865273ffffffffffffffffffffffffffffffffffffffff8b16600090815260c9602090815292902086518154938801519451606089015160808a015115157e01000000000000000000000000000000000000000000000000000000000000027fff00ffffffffffffffffffffffffffffffffffffffffffffffffffffffffffff63ffffffff9092167a010000000000000000000000000000000000000000000000000000027fffff00000000ffffffffffffffffffffffffffffffffffffffffffffffffffff93909916780100000000000000000000000000000000000000000000000002929092167fffff000000000000ffffffffffffffffffffffffffffffffffffffffffffffff9786166c01000000000000000000000000027fffffffffffffffff00000000000000000000000000000000000000000000000090971693909516929092179490941794909416919091179390931791909116179055604080516bffffffffffffffffffffffff8816815261ffff8716602082015273ffffffffffffffffffffffffffffffffffffffff8916917f74a2df75e844fef5875c37aa03ff31ba3732ff013175bfb9285d3f47bb8c4fc9910160405180910390a250505050505050565b7f71840dc4906352362b0cdaf79870196c8e42acafade72d5d5a6d59291253ceb16112be81336115e8565b600a63ffffffff8316101561132f576040517f08c379a000000000000000000000000000000000000000000000000000000000815260206004820152601160248201527f54696d656f757420746f6f2073686f7274000000000000000000000000000000604482015260640161083a565b5060ce805463ffffffff90921674010000000000000000000000000000000000000000027fffffffffffffffff00000000ffffffffffffffffffffffffffffffffffffffff909216919091179055565b7ff7b34cf87af24ce01c1aff9f518b133989851466d994e0016fc14651fa02826c6113aa81336115e8565b61084d60ca83611bda565b6000828152606560205260409020600101546113d181336115e8565b6107948383611a67565b7ff7b34cf87af24ce01c1aff9f518b133989851466d994e0016fc14651fa02826c61140681336115e8565b600061141183611e65565b6000602082810182815273ffffffffffffffffffffffffffffffffffffffff871680845260c9909252604080842085518154935183880151606089015160808a015115157e01000000000000000000000000000000000000000000000000000000000000027fff00ffffffffffffffffffffffffffffffffffffffffffffffffffffffffffff63ffffffff9092167a010000000000000000000000000000000000000000000000000000027fffff00000000ffffffffffffffffffffffffffffffffffffffffffffffffffff61ffff909416780100000000000000000000000000000000000000000000000002939093167fffff000000000000ffffffffffffffffffffffffffffffffffffffffffffffff6bffffffffffffffffffffffff9586166c01000000000000000000000000027fffffffffffffffff000000000000000000000000000000000000000000000000909a16959096169490941797909717939093169190911717169290921790915551929350917fe9c2678ff6b16779478ca0ff73f9face6adeb21fffd1b2ffd6ee79794c51294b9190a2505050565b7f52ba824bfabc2bcfcdf7f0edbb486ebb05e1836c90e78047efeb949990f72e5f6115dc81336115e8565b61076860ca8484611fff565b600082815260656020908152604080832073ffffffffffffffffffffffffffffffffffffffff8516845290915290205460ff1661084d576116408173ffffffffffffffffffffffffffffffffffffffff16601461215a565b61164b83602061215a565b60405160200161165c929190612a23565b604080517fffffffffffffffffffffffffffffffffffffffffffffffffffffffffffffffe0818403018152908290527f08c379a000000000000000000000000000000000000000000000000000000000825261083a91600401612607565b60028101546000906116f5906fffffffffffffffffffffffffffffffff80821691700100000000000000000000000000000000900416612aa4565b6fffffffffffffffffffffffffffffffff1692915050565b600081831061171c578161171e565b825b9392505050565b600281015460009060609082906fffffffffffffffffffffffffffffffff8082169170010000000000000000000000000000000090041680821461183757600082815260208790526040902054945061177e8686611b22565b6000848152602089815260408083208390558983526001808c01909252822080547fffffffffffffffffffffffffffffffffffffffffffffffffffffffff00000000168155939750919550906117d69083018261241a565b5050816117e290612acd565b9150808214156117f85760006002870155611837565b6002860180547fffffffffffffffffffffffffffffffff00000000000000000000000000000000166fffffffffffffffffffffffffffffffff84161790555b50509193909250565b60ce5460405160009173ffffffffffffffffffffffffffffffffffffffff169061186b908490612b06565b6000604051808303816000865af19150503d80600081146118a8576040519150601f19603f3d011682016040523d82523d6000602084013e6118ad565b606091505b505090508015801561194f575060ce546040517f2fe87b950000000000000000000000000000000000000000000000000000000081526004810185905273ffffffffffffffffffffffffffffffffffffffff90911690632fe87b9590602401602060405180830381865afa158015611929573d6000803e3d6000fd5b505050506040513d601f19601f8201168201806040525081019061194d9190612b22565b155b1561079457600083815260cd60209081526040909120835161076892850190612454565b600082815260656020908152604080832073ffffffffffffffffffffffffffffffffffffffff8516845290915290205460ff1661084d57600082815260656020908152604080832073ffffffffffffffffffffffffffffffffffffffff85168452909152902080547fffffffffffffffffffffffffffffffffffffffffffffffffffffffffffffff00166001179055611a093390565b73ffffffffffffffffffffffffffffffffffffffff168173ffffffffffffffffffffffffffffffffffffffff16837f2f8788117e7eff1d82e926ec794901d17c78024a50270940304540a733656f0d60405160405180910390a45050565b600082815260656020908152604080832073ffffffffffffffffffffffffffffffffffffffff8516845290915290205460ff161561084d57600082815260656020908152604080832073ffffffffffffffffffffffffffffffffffffffff8516808552925280832080547fffffffffffffffffffffffffffffffffffffffffffffffffffffffffffffff0016905551339285917ff6391f5c32d9c69d2a47ea670b442974b53935d1edc7fd64eb21e047a839171b9190a45050565b60008181526001808401602052604082208054910180546060939263ffffffff16908290611b4f90612b44565b80601f0160208091040260200160405190810160405280929190818152602001828054611b7b90612b44565b8015611bc85780601f10611b9d57610100808354040283529160200191611bc8565b820191906000526020600020905b815481529060010190602001808311611bab57829003601f168201915b50939a94995093975050505050505050565b6040805160208082018084526000808452858152600180880190935293909320915161079493929091019190612454565b600081815260cd602052604081208054611c2490612b44565b80601f0160208091040260200160405190810160405280929190818152602001828054611c5090612b44565b8015611c9d5780601f10611c7257610100808354040283529160200191611c9d565b820191906000526020600020905b815481529060010190602001808311611c8057829003601f168201915b5050505050905060008151111561084d57604080516020808201808452600080845286815260cd9092529290209051611cd69290612454565b5060ce54604051600091829173ffffffffffffffffffffffffffffffffffffffff90911690611d06908590612b06565b6000604051808303816000865af19150503d8060008114611d43576040519150601f19603f3d011682016040523d82523d6000602084013e611d48565b606091505b50909250905081611d5a85602061215a565b611d638361239d565b604051602001611d74929190612b92565b60405160208183030381529060405290611dbb576040517f08c379a000000000000000000000000000000000000000000000000000000000815260040161083a9190612607565b5050505050565b61084d8282611973565b600054610100900460ff16611e63576040517f08c379a000000000000000000000000000000000000000000000000000000000815260206004820152602b60248201527f496e697469616c697a61626c653a20636f6e7472616374206973206e6f74206960448201527f6e697469616c697a696e67000000000000000000000000000000000000000000606482015260840161083a565b565b6040805160a0810182526000808252602082018190529181018290526060810182905260808101919091525073ffffffffffffffffffffffffffffffffffffffff8116600090815260c960209081526040808320815160a08101835290546bffffffffffffffffffffffff80821683526c01000000000000000000000000820416938201939093527801000000000000000000000000000000000000000000000000830461ffff16918101919091527a010000000000000000000000000000000000000000000000000000820463ffffffff1660608201527e0100000000000000000000000000000000000000000000000000000000000090910460ff161515608082015290611f76603c42612978565b90506000826040015161ffff16118015611fb257506040820151611f9e9061ffff16826129db565b63ffffffff16826060015163ffffffff1611155b15611ff957600060208301526040820151606083015161ffff90911690611fd990836129db565b611fe39190612a00565b611fed90826129db565b63ffffffff1660608301525b50919050565b600082815260018401602052604081205463ffffffff16156120235750600061171e565b600284015470010000000000000000000000000000000090046fffffffffffffffffffffffffffffffff1660009081526020859052604090819020849055805180820190915280612075603c42612978565b63ffffffff908116825260209182018590526000868152600188810184526040909120845181547fffffffffffffffffffffffffffffffffffffffffffffffffffffffff0000000016931692909217825583830151805192936120de9392850192910190612454565b5050506002840180546010906121199070010000000000000000000000000000000090046fffffffffffffffffffffffffffffffff16612c39565b91906101000a8154816fffffffffffffffffffffffffffffffff02191690836fffffffffffffffffffffffffffffffff160217905550600190509392505050565b60606000612169836002612c69565b612174906002612ca6565b67ffffffffffffffff81111561218c5761218c6127ac565b6040519080825280601f01601f1916602001820160405280156121b6576020820181803683370190505b5090507f3000000000000000000000000000000000000000000000000000000000000000816000815181106121ed576121ed612cbe565b60200101907effffffffffffffffffffffffffffffffffffffffffffffffffffffffffffff1916908160001a9053507f78000000000000000000000000000000000000000000000000000000000000008160018151811061225057612250612cbe565b60200101907effffffffffffffffffffffffffffffffffffffffffffffffffffffffffffff1916908160001a905350600061228c846002612c69565b612297906001612ca6565b90505b6001811115612334577f303132333435363738396162636465660000000000000000000000000000000085600f16601081106122d8576122d8612cbe565b1a60f81b8282815181106122ee576122ee612cbe565b60200101907effffffffffffffffffffffffffffffffffffffffffffffffffffffffffffff1916908160001a90535060049490941c9361232d81612ced565b905061229a565b50831561171e576040517f08c379a000000000000000000000000000000000000000000000000000000000815260206004820181905260248201527f537472696e67733a20686578206c656e67746820696e73756666696369656e74604482015260640161083a565b60606044825110156123e257505060408051808201909152601d81527f5472616e73616374696f6e2072657665727465642073696c656e746c79000000602082015290565b600482019150818060200190518101906106d39190612d22565b60405180608001604052806004906020820280368337509192915050565b50805461242690612b44565b6000825580601f10612436575050565b601f016020900490600052602060002090810190610b9791906124d8565b82805461246090612b44565b90600052602060002090601f01602090048101928261248257600085556124c8565b82601f1061249b57805160ff19168380011785556124c8565b828001600101855582156124c8579182015b828111156124c85782518255916020019190600101906124ad565b506124d49291506124d8565b5090565b5b808211156124d457600081556001016124d9565b6000602082840312156124ff57600080fd5b81357fffffffff000000000000000000000000000000000000000000000000000000008116811461171e57600080fd5b60006020828403121561254157600080fd5b813560ff8116811461171e57600080fd5b60006020828403121561256457600080fd5b5035919050565b803573ffffffffffffffffffffffffffffffffffffffff8116811461258f57600080fd5b919050565b6000602082840312156125a657600080fd5b61171e8261256b565b600080604083850312156125c257600080fd5b823591506125d26020840161256b565b90509250929050565b60005b838110156125f65781810151838201526020016125de565b838111156107685750506000910152565b60208152600082518060208401526126268160408501602087016125db565b601f017fffffffffffffffffffffffffffffffffffffffffffffffffffffffffffffffe0169190910160400192915050565b60808101818360005b6004811015612680578151835260209283019290910190600101612661565b50505092915050565b6000806040838503121561269c57600080fd5b6126a58361256b565b946020939093013593505050565b6020808252825182820181905260009190848201906040850190845b8181101561270157835173ffffffffffffffffffffffffffffffffffffffff16835292840192918401916001016126cf565b50909695505050505050565b803563ffffffff8116811461258f57600080fd5b6000806000806080858703121561273757600080fd5b6127408561256b565b935060208501356bffffffffffffffffffffffff8116811461276157600080fd5b9250604085013561ffff8116811461277857600080fd5b91506127866060860161270d565b905092959194509250565b6000602082840312156127a357600080fd5b61171e8261270d565b7f4e487b7100000000000000000000000000000000000000000000000000000000600052604160045260246000fd5b604051601f82017fffffffffffffffffffffffffffffffffffffffffffffffffffffffffffffffe016810167ffffffffffffffff81118282101715612822576128226127ac565b604052919050565b600067ffffffffffffffff821115612844576128446127ac565b50601f017fffffffffffffffffffffffffffffffffffffffffffffffffffffffffffffffe01660200190565b6000806040838503121561288357600080fd5b82359150602083013567ffffffffffffffff8111156128a157600080fd5b8301601f810185136128b257600080fd5b80356128c56128c08261282a565b6127db565b8181528660208385010111156128da57600080fd5b816020840160208301376000602083830101528093505050509250929050565b7f4e487b7100000000000000000000000000000000000000000000000000000000600052601160045260246000fd5b600060ff821660ff811415612940576129406128fa565b60010192915050565b7f4e487b7100000000000000000000000000000000000000000000000000000000600052601260045260246000fd5b60008261298757612987612949565b500490565b600063ffffffff8083168185168083038211156129ab576129ab6128fa565b01949350505050565b60006bffffffffffffffffffffffff8083168185168083038211156129ab576129ab6128fa565b600063ffffffff838116908316818110156129f8576129f86128fa565b039392505050565b600063ffffffff80841680612a1757612a17612949565b92169190910692915050565b7f416363657373436f6e74726f6c3a206163636f756e7420000000000000000000815260008351612a5b8160178501602088016125db565b7f206973206d697373696e6720726f6c65200000000000000000000000000000006017918401918201528351612a988160288401602088016125db565b01602801949350505050565b60006fffffffffffffffffffffffffffffffff838116908316818110156129f8576129f86128fa565b60007fffffffffffffffffffffffffffffffffffffffffffffffffffffffffffffffff821415612aff57612aff6128fa565b5060010190565b60008251612b188184602087016125db565b9190910192915050565b600060208284031215612b3457600080fd5b8151801515811461171e57600080fd5b600181811c90821680612b5857607f821691505b60208210811415611ff9577f4e487b7100000000000000000000000000000000000000000000000000000000600052602260045260246000fd5b7f436f756c64206e6f742063616c6c2062726964676520666f72206b617070613a81527f2000000000000000000000000000000000000000000000000000000000000000602082015260008351612bf08160218501602088016125db565b7f20726576657274656420776974683a20000000000000000000000000000000006021918401918201528351612c2d8160318401602088016125db565b01603101949350505050565b60006fffffffffffffffffffffffffffffffff80831681811415612c5f57612c5f6128fa565b6001019392505050565b6000817fffffffffffffffffffffffffffffffffffffffffffffffffffffffffffffffff0483118215151615612ca157612ca16128fa565b500290565b60008219821115612cb957612cb96128fa565b500190565b7f4e487b7100000000000000000000000000000000000000000000000000000000600052603260045260246000fd5b600081612cfc57612cfc6128fa565b507fffffffffffffffffffffffffffffffffffffffffffffffffffffffffffffffff0190565b600060208284031215612d3457600080fd5b815167ffffffffffffffff811115612d4b57600080fd5b8201601f81018413612d5c57600080fd5b8051612d6a6128c08261282a565b818152856020838501011115612d7f57600080fd5b612d908260208301602086016125db565b9594505050505056fea264697066735822122096b9b0d074fe5bdf1239b840ac12e7257d722837984419e29985a4ec28e2889764736f6c634300080b0033",
  "devdoc": {
    "kind": "dev",
    "methods": {
      "checkAndUpdateAllowance(address,uint256)": {
        "params": {
          "amount": "to transfer*"
        }
      },
      "getRoleAdmin(bytes32)": {
        "details": "Returns the admin role that controls `role`. See {grantRole} and {revokeRole}. To change a role's admin, use {_setRoleAdmin}."
      },
      "grantRole(bytes32,address)": {
        "details": "Grants `role` to `account`. If `account` had not been already granted `role`, emits a {RoleGranted} event. Requirements: - the caller must have ``role``'s admin role."
      },
      "hasRole(bytes32,address)": {
        "details": "Returns `true` if `account` has been granted `role`."
      },
      "renounceRole(bytes32,address)": {
        "details": "Revokes `role` from the calling account. Roles are often managed via {grantRole} and {revokeRole}: this function's purpose is to provide a mechanism for accounts to lose their privileges if they are compromised (such as when a trusted device is misplaced). If the calling account had been revoked `role`, emits a {RoleRevoked} event. Requirements: - the caller must be `account`."
      },
      "revokeRole(bytes32,address)": {
        "details": "Revokes `role` from `account`. If `account` had been granted `role`, emits a {RoleRevoked} event. Requirements: - the caller must have ``role``'s admin role."
      },
      "setAllowance(address,uint96,uint16,uint32)": {
        "params": {
          "allowanceAmount": "for the token",
          "resetBaseMin": "amount Amount in native token decimals to transfer cross-chain pre-fees*",
          "resetTimeMin": "minimum reset time (amount goes to 0 after this)",
          "token": "to update the allowance for"
        }
      },
      "supportsInterface(bytes4)": {
        "details": "See {IERC165-supportsInterface}."
      }
    },
    "version": 1
  },
  "userdoc": {
    "kind": "user",
    "methods": {
      "checkAndUpdateAllowance(address,uint256)": {
        "notice": "Checks the allowance for a given token. If the new amount exceeds the allowance, it is not updated and false is returned otherwise true is returned and the transaction can proceed"
      },
      "getTokens()": {
        "notice": "Gets a  list of tokens with allowances*"
      },
      "setAllowance(address,uint96,uint16,uint32)": {
        "notice": "Updates the allowance for a given token"
      }
    },
    "version": 1
  },
  "storageLayout": {
    "storage": [
      {
        "astId": 408,
        "contract": "contracts/bridge/RateLimiter.sol:RateLimiter",
        "label": "_initialized",
        "offset": 0,
        "slot": "0",
        "type": "t_bool"
      },
      {
        "astId": 411,
        "contract": "contracts/bridge/RateLimiter.sol:RateLimiter",
        "label": "_initializing",
        "offset": 1,
        "slot": "0",
        "type": "t_bool"
      },
      {
        "astId": 818,
        "contract": "contracts/bridge/RateLimiter.sol:RateLimiter",
        "label": "__gap",
        "offset": 0,
        "slot": "1",
        "type": "t_array(t_uint256)50_storage"
      },
      {
        "astId": 1065,
        "contract": "contracts/bridge/RateLimiter.sol:RateLimiter",
        "label": "__gap",
        "offset": 0,
        "slot": "51",
        "type": "t_array(t_uint256)50_storage"
      },
      {
        "astId": 39,
        "contract": "contracts/bridge/RateLimiter.sol:RateLimiter",
        "label": "_roles",
        "offset": 0,
        "slot": "101",
        "type": "t_mapping(t_bytes32,t_struct(RoleData)34_storage)"
      },
      {
        "astId": 327,
        "contract": "contracts/bridge/RateLimiter.sol:RateLimiter",
        "label": "__gap",
        "offset": 0,
        "slot": "102",
        "type": "t_array(t_uint256)49_storage"
      },
      {
        "astId": 489,
        "contract": "contracts/bridge/RateLimiter.sol:RateLimiter",
        "label": "_status",
        "offset": 0,
        "slot": "151",
        "type": "t_uint256"
      },
      {
        "astId": 533,
        "contract": "contracts/bridge/RateLimiter.sol:RateLimiter",
        "label": "__gap",
        "offset": 0,
        "slot": "152",
        "type": "t_array(t_uint256)49_storage"
      },
      {
        "astId": 1301,
        "contract": "contracts/bridge/RateLimiter.sol:RateLimiter",
        "label": "allowances",
        "offset": 0,
        "slot": "201",
        "type": "t_mapping(t_address,t_struct(Allowance)1341_storage)"
      },
      {
        "astId": 1304,
        "contract": "contracts/bridge/RateLimiter.sol:RateLimiter",
        "label": "rateLimitedQueue",
        "offset": 0,
        "slot": "202",
        "type": "t_struct(KappaQueue)2123_storage"
      },
      {
        "astId": 1308,
        "contract": "contracts/bridge/RateLimiter.sol:RateLimiter",
        "label": "failedRetries",
        "offset": 0,
        "slot": "205",
        "type": "t_mapping(t_bytes32,t_bytes_storage)"
      },
      {
        "astId": 1310,
        "contract": "contracts/bridge/RateLimiter.sol:RateLimiter",
        "label": "BRIDGE_ADDRESS",
        "offset": 0,
        "slot": "206",
        "type": "t_address"
      },
      {
        "astId": 1312,
        "contract": "contracts/bridge/RateLimiter.sol:RateLimiter",
        "label": "retryTimeout",
        "offset": 20,
        "slot": "206",
        "type": "t_uint32"
      },
      {
        "astId": 1318,
        "contract": "contracts/bridge/RateLimiter.sol:RateLimiter",
        "label": "tokens",
        "offset": 0,
        "slot": "207",
        "type": "t_array(t_address)dyn_storage"
      }
    ],
    "types": {
      "t_address": {
        "encoding": "inplace",
        "label": "address",
        "numberOfBytes": "20"
      },
      "t_array(t_address)dyn_storage": {
        "base": "t_address",
        "encoding": "dynamic_array",
        "label": "address[]",
        "numberOfBytes": "32"
      },
      "t_array(t_uint256)49_storage": {
        "base": "t_uint256",
        "encoding": "inplace",
        "label": "uint256[49]",
        "numberOfBytes": "1568"
      },
      "t_array(t_uint256)50_storage": {
        "base": "t_uint256",
        "encoding": "inplace",
        "label": "uint256[50]",
        "numberOfBytes": "1600"
      },
      "t_bool": {
        "encoding": "inplace",
        "label": "bool",
        "numberOfBytes": "1"
      },
      "t_bytes32": {
        "encoding": "inplace",
        "label": "bytes32",
        "numberOfBytes": "32"
      },
      "t_bytes_storage": {
        "encoding": "bytes",
        "label": "bytes",
        "numberOfBytes": "32"
      },
      "t_mapping(t_address,t_bool)": {
        "encoding": "mapping",
        "key": "t_address",
        "label": "mapping(address => bool)",
        "numberOfBytes": "32",
        "value": "t_bool"
      },
      "t_mapping(t_address,t_struct(Allowance)1341_storage)": {
        "encoding": "mapping",
        "key": "t_address",
        "label": "mapping(address => struct RateLimiter.Allowance)",
        "numberOfBytes": "32",
        "value": "t_struct(Allowance)1341_storage"
      },
      "t_mapping(t_bytes32,t_bytes_storage)": {
        "encoding": "mapping",
        "key": "t_bytes32",
        "label": "mapping(bytes32 => bytes)",
        "numberOfBytes": "32",
        "value": "t_bytes_storage"
      },
      "t_mapping(t_bytes32,t_struct(RetryableTx)2105_storage)": {
        "encoding": "mapping",
        "key": "t_bytes32",
        "label": "mapping(bytes32 => struct EnumerableQueueUpgradeable.RetryableTx)",
        "numberOfBytes": "32",
        "value": "t_struct(RetryableTx)2105_storage"
      },
      "t_mapping(t_bytes32,t_struct(RoleData)34_storage)": {
        "encoding": "mapping",
        "key": "t_bytes32",
        "label": "mapping(bytes32 => struct AccessControlUpgradeable.RoleData)",
        "numberOfBytes": "32",
        "value": "t_struct(RoleData)34_storage"
      },
      "t_mapping(t_uint256,t_bytes32)": {
        "encoding": "mapping",
        "key": "t_uint256",
        "label": "mapping(uint256 => bytes32)",
        "numberOfBytes": "32",
        "value": "t_bytes32"
      },
      "t_struct(Allowance)1341_storage": {
        "encoding": "inplace",
        "label": "struct RateLimiter.Allowance",
        "members": [
          {
            "astId": 1332,
            "contract": "contracts/bridge/RateLimiter.sol:RateLimiter",
            "label": "amount",
            "offset": 0,
            "slot": "0",
            "type": "t_uint96"
          },
          {
            "astId": 1334,
            "contract": "contracts/bridge/RateLimiter.sol:RateLimiter",
            "label": "spent",
            "offset": 12,
            "slot": "0",
            "type": "t_uint96"
          },
          {
            "astId": 1336,
            "contract": "contracts/bridge/RateLimiter.sol:RateLimiter",
            "label": "resetTimeMin",
            "offset": 24,
            "slot": "0",
            "type": "t_uint16"
          },
          {
            "astId": 1338,
            "contract": "contracts/bridge/RateLimiter.sol:RateLimiter",
            "label": "lastResetMin",
            "offset": 26,
            "slot": "0",
            "type": "t_uint32"
          },
          {
            "astId": 1340,
            "contract": "contracts/bridge/RateLimiter.sol:RateLimiter",
            "label": "initialized",
            "offset": 30,
            "slot": "0",
            "type": "t_bool"
          }
        ],
        "numberOfBytes": "32"
      },
      "t_struct(KappaQueue)2123_storage": {
        "encoding": "inplace",
        "label": "struct EnumerableQueueUpgradeable.KappaQueue",
        "members": [
          {
            "astId": 2110,
            "contract": "contracts/bridge/RateLimiter.sol:RateLimiter",
            "label": "_keys",
            "offset": 0,
            "slot": "0",
            "type": "t_mapping(t_uint256,t_bytes32)"
          },
          {
            "astId": 2116,
            "contract": "contracts/bridge/RateLimiter.sol:RateLimiter",
            "label": "_data",
            "offset": 0,
            "slot": "1",
            "type": "t_mapping(t_bytes32,t_struct(RetryableTx)2105_storage)"
          },
          {
            "astId": 2119,
            "contract": "contracts/bridge/RateLimiter.sol:RateLimiter",
            "label": "_head",
            "offset": 0,
            "slot": "2",
            "type": "t_uint128"
          },
          {
            "astId": 2122,
            "contract": "contracts/bridge/RateLimiter.sol:RateLimiter",
            "label": "_tail",
            "offset": 16,
            "slot": "2",
            "type": "t_uint128"
          }
        ],
        "numberOfBytes": "96"
      },
      "t_struct(RetryableTx)2105_storage": {
        "encoding": "inplace",
        "label": "struct EnumerableQueueUpgradeable.RetryableTx",
        "members": [
          {
            "astId": 2101,
            "contract": "contracts/bridge/RateLimiter.sol:RateLimiter",
            "label": "storedAtMin",
            "offset": 0,
            "slot": "0",
            "type": "t_uint32"
          },
          {
            "astId": 2104,
            "contract": "contracts/bridge/RateLimiter.sol:RateLimiter",
            "label": "toRetry",
            "offset": 0,
            "slot": "1",
            "type": "t_bytes_storage"
          }
        ],
        "numberOfBytes": "64"
      },
      "t_struct(RoleData)34_storage": {
        "encoding": "inplace",
        "label": "struct AccessControlUpgradeable.RoleData",
        "members": [
          {
            "astId": 31,
            "contract": "contracts/bridge/RateLimiter.sol:RateLimiter",
            "label": "members",
            "offset": 0,
            "slot": "0",
            "type": "t_mapping(t_address,t_bool)"
          },
          {
            "astId": 33,
            "contract": "contracts/bridge/RateLimiter.sol:RateLimiter",
            "label": "adminRole",
            "offset": 0,
            "slot": "1",
            "type": "t_bytes32"
          }
        ],
        "numberOfBytes": "64"
      },
      "t_uint128": {
        "encoding": "inplace",
        "label": "uint128",
        "numberOfBytes": "16"
      },
      "t_uint16": {
        "encoding": "inplace",
        "label": "uint16",
        "numberOfBytes": "2"
      },
      "t_uint256": {
        "encoding": "inplace",
        "label": "uint256",
        "numberOfBytes": "32"
      },
      "t_uint32": {
        "encoding": "inplace",
        "label": "uint32",
        "numberOfBytes": "4"
      },
      "t_uint96": {
        "encoding": "inplace",
        "label": "uint96",
        "numberOfBytes": "12"
      }
    }
  }
}