{
  "address": "0xA4d4aB6ced6c9558D77BcEE5755364E82Cf766AA",
  "abi": [
    {
      "anonymous": false,
      "inputs": [
        {
          "indexed": true,
          "internalType": "bytes32",
          "name": "role",
          "type": "bytes32"
        },
        {
          "indexed": true,
          "internalType": "bytes32",
          "name": "previousAdminRole",
          "type": "bytes32"
        },
        {
          "indexed": true,
          "internalType": "bytes32",
          "name": "newAdminRole",
          "type": "bytes32"
        }
      ],
      "name": "RoleAdminChanged",
      "type": "event"
    },
    {
      "anonymous": false,
      "inputs": [
        {
          "indexed": true,
          "internalType": "bytes32",
          "name": "role",
          "type": "bytes32"
        },
        {
          "indexed": true,
          "internalType": "address",
          "name": "account",
          "type": "address"
        },
        {
          "indexed": true,
          "internalType": "address",
          "name": "sender",
          "type": "address"
        }
      ],
      "name": "RoleGranted",
      "type": "event"
    },
    {
      "anonymous": false,
      "inputs": [
        {
          "indexed": true,
          "internalType": "bytes32",
          "name": "role",
          "type": "bytes32"
        },
        {
          "indexed": true,
          "internalType": "address",
          "name": "account",
          "type": "address"
        },
        {
          "indexed": true,
          "internalType": "address",
          "name": "sender",
          "type": "address"
        }
      ],
      "name": "RoleRevoked",
      "type": "event"
    },
    {
      "anonymous": false,
      "inputs": [
        {
          "indexed": false,
          "internalType": "address",
          "name": "from",
          "type": "address"
        },
        {
          "indexed": false,
          "internalType": "address",
          "name": "to",
          "type": "address"
        },
        {
          "indexed": false,
          "internalType": "uint256",
          "name": "chainId",
          "type": "uint256"
        },
        {
          "indexed": false,
          "internalType": "contract IERC20",
          "name": "token",
          "type": "address"
        },
        {
          "indexed": false,
          "internalType": "uint256",
          "name": "amount",
          "type": "uint256"
        }
      ],
      "name": "TokenDeposit",
      "type": "event"
    },
    {
      "anonymous": false,
      "inputs": [
        {
          "indexed": false,
          "internalType": "address",
          "name": "to",
          "type": "address"
        },
        {
          "indexed": false,
          "internalType": "contract IERC20Mintable",
          "name": "token",
          "type": "address"
        },
        {
          "indexed": false,
          "internalType": "uint256",
          "name": "amount",
          "type": "uint256"
        },
        {
          "indexed": false,
          "internalType": "uint256",
          "name": "fee",
          "type": "uint256"
        }
      ],
      "name": "TokenMint",
      "type": "event"
    },
    {
      "anonymous": false,
      "inputs": [
        {
          "indexed": false,
          "internalType": "address",
          "name": "to",
          "type": "address"
        },
        {
          "indexed": false,
          "internalType": "uint256",
          "name": "chainId",
          "type": "uint256"
        },
        {
          "indexed": false,
          "internalType": "contract IERC20",
          "name": "token",
          "type": "address"
        },
        {
          "indexed": false,
          "internalType": "uint256",
          "name": "amount",
          "type": "uint256"
        }
      ],
      "name": "TokenRedeem",
      "type": "event"
    },
    {
      "anonymous": false,
      "inputs": [
        {
          "indexed": false,
          "internalType": "address",
          "name": "to",
          "type": "address"
        },
        {
          "indexed": false,
          "internalType": "contract IERC20",
          "name": "token",
          "type": "address"
        },
        {
          "indexed": false,
          "internalType": "uint256",
          "name": "amount",
          "type": "uint256"
        },
        {
          "indexed": false,
          "internalType": "uint256",
          "name": "fee",
          "type": "uint256"
        }
      ],
      "name": "TokenWithdraw",
      "type": "event"
    },
    {
      "inputs": [],
      "name": "DEFAULT_ADMIN_ROLE",
      "outputs": [
        {
          "internalType": "bytes32",
          "name": "",
          "type": "bytes32"
        }
      ],
      "stateMutability": "view",
      "type": "function"
    },
    {
      "inputs": [],
      "name": "NODEGROUP_ROLE",
      "outputs": [
        {
          "internalType": "bytes32",
          "name": "",
          "type": "bytes32"
        }
      ],
      "stateMutability": "view",
      "type": "function"
    },
    {
      "inputs": [
        {
          "internalType": "address",
          "name": "to",
          "type": "address"
        },
        {
          "internalType": "uint256",
          "name": "chainId",
          "type": "uint256"
        },
        {
          "internalType": "contract IERC20",
          "name": "token",
          "type": "address"
        },
        {
          "internalType": "uint256",
          "name": "amount",
          "type": "uint256"
        }
      ],
      "name": "deposit",
      "outputs": [],
      "stateMutability": "nonpayable",
      "type": "function"
    },
    {
      "inputs": [
        {
          "internalType": "address",
          "name": "to",
          "type": "address"
        },
        {
          "internalType": "uint256",
          "name": "chainId",
          "type": "uint256"
        },
        {
          "internalType": "uint256",
          "name": "amount",
          "type": "uint256"
        }
      ],
      "name": "depositETH",
      "outputs": [],
      "stateMutability": "payable",
      "type": "function"
    },
    {
      "inputs": [],
      "name": "getETHFeeBalance",
      "outputs": [
        {
          "internalType": "uint256",
          "name": "",
          "type": "uint256"
        }
      ],
      "stateMutability": "view",
      "type": "function"
    },
    {
      "inputs": [
        {
          "internalType": "address",
          "name": "tokenAddress",
          "type": "address"
        }
      ],
      "name": "getFeeBalance",
      "outputs": [
        {
          "internalType": "uint256",
          "name": "",
          "type": "uint256"
        }
      ],
      "stateMutability": "view",
      "type": "function"
    },
    {
      "inputs": [
        {
          "internalType": "bytes32",
          "name": "role",
          "type": "bytes32"
        }
      ],
      "name": "getRoleAdmin",
      "outputs": [
        {
          "internalType": "bytes32",
          "name": "",
          "type": "bytes32"
        }
      ],
      "stateMutability": "view",
      "type": "function"
    },
    {
      "inputs": [
        {
          "internalType": "bytes32",
          "name": "role",
          "type": "bytes32"
        },
        {
          "internalType": "uint256",
          "name": "index",
          "type": "uint256"
        }
      ],
      "name": "getRoleMember",
      "outputs": [
        {
          "internalType": "address",
          "name": "",
          "type": "address"
        }
      ],
      "stateMutability": "view",
      "type": "function"
    },
    {
      "inputs": [
        {
          "internalType": "bytes32",
          "name": "role",
          "type": "bytes32"
        }
      ],
      "name": "getRoleMemberCount",
      "outputs": [
        {
          "internalType": "uint256",
          "name": "",
          "type": "uint256"
        }
      ],
      "stateMutability": "view",
      "type": "function"
    },
    {
      "inputs": [
        {
          "internalType": "bytes32",
          "name": "role",
          "type": "bytes32"
        },
        {
          "internalType": "address",
          "name": "account",
          "type": "address"
        }
      ],
      "name": "grantRole",
      "outputs": [],
      "stateMutability": "nonpayable",
      "type": "function"
    },
    {
      "inputs": [
        {
          "internalType": "bytes32",
          "name": "role",
          "type": "bytes32"
        },
        {
          "internalType": "address",
          "name": "account",
          "type": "address"
        }
      ],
      "name": "hasRole",
      "outputs": [
        {
          "internalType": "bool",
          "name": "",
          "type": "bool"
        }
      ],
      "stateMutability": "view",
      "type": "function"
    },
    {
      "inputs": [],
      "name": "initialize",
      "outputs": [],
      "stateMutability": "nonpayable",
      "type": "function"
    },
    {
      "inputs": [
        {
          "internalType": "address",
          "name": "to",
          "type": "address"
        },
        {
          "internalType": "contract IERC20Mintable",
          "name": "token",
          "type": "address"
        },
        {
          "internalType": "uint256",
          "name": "amount",
          "type": "uint256"
        },
        {
          "internalType": "uint256",
          "name": "fee",
          "type": "uint256"
        }
      ],
      "name": "mint",
      "outputs": [],
      "stateMutability": "nonpayable",
      "type": "function"
    },
    {
      "inputs": [
        {
          "internalType": "address",
          "name": "to",
          "type": "address"
        },
        {
          "internalType": "uint256",
          "name": "chainId",
          "type": "uint256"
        },
        {
          "internalType": "contract ERC20Burnable",
          "name": "token",
          "type": "address"
        },
        {
          "internalType": "uint256",
          "name": "amount",
          "type": "uint256"
        }
      ],
      "name": "redeem",
      "outputs": [],
      "stateMutability": "nonpayable",
      "type": "function"
    },
    {
      "inputs": [
        {
          "internalType": "bytes32",
          "name": "role",
          "type": "bytes32"
        },
        {
          "internalType": "address",
          "name": "account",
          "type": "address"
        }
      ],
      "name": "renounceRole",
      "outputs": [],
      "stateMutability": "nonpayable",
      "type": "function"
    },
    {
      "inputs": [
        {
          "internalType": "bytes32",
          "name": "role",
          "type": "bytes32"
        },
        {
          "internalType": "address",
          "name": "account",
          "type": "address"
        }
      ],
      "name": "revokeRole",
      "outputs": [],
      "stateMutability": "nonpayable",
      "type": "function"
    },
    {
      "inputs": [
        {
          "internalType": "address",
          "name": "to",
          "type": "address"
        },
        {
          "internalType": "contract IERC20",
          "name": "token",
          "type": "address"
        },
        {
          "internalType": "uint256",
          "name": "amount",
          "type": "uint256"
        },
        {
          "internalType": "uint256",
          "name": "fee",
          "type": "uint256"
        }
      ],
      "name": "withdraw",
      "outputs": [],
      "stateMutability": "nonpayable",
      "type": "function"
    },
    {
      "inputs": [
        {
          "internalType": "address payable",
          "name": "to",
          "type": "address"
        },
        {
          "internalType": "uint256",
          "name": "amount",
          "type": "uint256"
        },
        {
          "internalType": "uint256",
          "name": "fee",
          "type": "uint256"
        }
      ],
      "name": "withdrawETH",
      "outputs": [],
      "stateMutability": "nonpayable",
      "type": "function"
    },
    {
      "inputs": [
        {
          "internalType": "address payable",
          "name": "to",
          "type": "address"
        }
      ],
      "name": "withdrawETHAdminFees",
      "outputs": [],
      "stateMutability": "nonpayable",
      "type": "function"
    },
    {
      "inputs": [
        {
          "internalType": "contract IERC20",
          "name": "token",
          "type": "address"
        },
        {
          "internalType": "address",
          "name": "to",
          "type": "address"
        }
      ],
      "name": "withdrawFees",
      "outputs": [],
      "stateMutability": "nonpayable",
      "type": "function"
    }
  ],
  "transactionHash": "0xcabda942eb6f5ac13e779d936b257fe6c6e98e1e03f242472788ad6152d31044",
  "args": [],
  "solcInputHash": "a2357e27eeee6ac4e6ccf7d126eb78c7",
  "bytecode": "0x608060405234801561001057600080fd5b50611b2f806100206000396000f3fe60806040526004361061015f5760003560e01c8063a217fddf116100c0578063d547741f11610074578063f3befd0111610059578063f3befd01146105ce578063f3f094a1146105e3578063faae0534146106375761015f565b8063d547741f14610540578063f2555278146105865761015f565b8063c78f6803116100a5578063c78f680314610497578063ca15c873146104d7578063ce0b63ce146105015761015f565b8063a217fddf1461042c578063b3f1c93d146104415761015f565b80637bfe950c116101175780639010d07c116100fc5780639010d07c1461032557806390d250741461037e57806391d14854146103d25761015f565b80637bfe950c146102ba5780638129fc1c146103105761015f565b80632f2ff15d116101485780632f2ff15d146101e25780632fcc29fa1461022857806336568abe146102745761015f565b8063248a9ca3146101645780632b602165146101a0575b600080fd5b34801561017057600080fd5b5061018e6004803603602081101561018757600080fd5b503561064c565b60408051918252519081900360200190f35b3480156101ac57600080fd5b506101e0600480360360208110156101c357600080fd5b503573ffffffffffffffffffffffffffffffffffffffff16610661565b005b3480156101ee57600080fd5b506101e06004803603604081101561020557600080fd5b508035906020013573ffffffffffffffffffffffffffffffffffffffff166106c6565b34801561023457600080fd5b506101e06004803603606081101561024b57600080fd5b5073ffffffffffffffffffffffffffffffffffffffff813516906020810135906040013561072e565b34801561028057600080fd5b506101e06004803603604081101561029757600080fd5b508035906020013573ffffffffffffffffffffffffffffffffffffffff1661085d565b3480156102c657600080fd5b506101e0600480360360808110156102dd57600080fd5b5073ffffffffffffffffffffffffffffffffffffffff8135811691602081013590911690604081013590606001356108d8565b34801561031c57600080fd5b506101e0610a0a565b34801561033157600080fd5b506103556004803603604081101561034857600080fd5b5080359060200135610b16565b6040805173ffffffffffffffffffffffffffffffffffffffff9092168252519081900360200190f35b34801561038a57600080fd5b506101e0600480360360808110156103a157600080fd5b5073ffffffffffffffffffffffffffffffffffffffff81358116916020810135916040820135169060600135610b37565b3480156103de57600080fd5b50610418600480360360408110156103f557600080fd5b508035906020013573ffffffffffffffffffffffffffffffffffffffff16610bc3565b604080519115158252519081900360200190f35b34801561043857600080fd5b5061018e610bdb565b34801561044d57600080fd5b506101e06004803603608081101561046457600080fd5b5073ffffffffffffffffffffffffffffffffffffffff813581169160208101359091169060408101359060600135610be0565b3480156104a357600080fd5b5061018e600480360360208110156104ba57600080fd5b503573ffffffffffffffffffffffffffffffffffffffff16610d8e565b3480156104e357600080fd5b5061018e600480360360208110156104fa57600080fd5b5035610db6565b6101e06004803603606081101561051757600080fd5b5073ffffffffffffffffffffffffffffffffffffffff8135169060208101359060400135610dcd565b34801561054c57600080fd5b506101e06004803603604081101561056357600080fd5b508035906020013573ffffffffffffffffffffffffffffffffffffffff16610e41565b34801561059257600080fd5b506101e0600480360360408110156105a957600080fd5b5073ffffffffffffffffffffffffffffffffffffffff81358116916020013516610e9a565b3480156105da57600080fd5b5061018e610f0b565b3480156105ef57600080fd5b506101e06004803603608081101561060657600080fd5b5073ffffffffffffffffffffffffffffffffffffffff81358116916020810135916040820135169060600135610f2f565b34801561064357600080fd5b5061018e611020565b60009081526033602052604090206002015490565b61066c600033610bc3565b61067557600080fd5b606654156106c35760665460405173ffffffffffffffffffffffffffffffffffffffff83169180156108fc02916000818181858888f193505050501580156106c1573d6000803e3d6000fd5b505b50565b6000828152603360205260409020600201546106e9906106e4611026565b610bc3565b6107245760405162461bcd60e51b815260040180806020018281038252602f8152602001806119ee602f913960400191505060405180910390fd5b6106c1828261102a565b6107587fb5c00e6706c3d213edd70ff33717fac657eacc5fe161f07180cf1fcab13cc4cd33610bc3565b6107a9576040805162461bcd60e51b815260206004820152601a60248201527f43616c6c6572206973206e6f742061206e6f64652067726f7570000000000000604482015290519081900360640190fd5b6066546107b690826110ad565b5060405173ffffffffffffffffffffffffffffffffffffffff84169083156108fc029084906000818181858888f193505050501580156107fa573d6000803e3d6000fd5b506040805173ffffffffffffffffffffffffffffffffffffffff85168152600060208201528082018490526060810183905290517ff6a7e66150be6cb9298dfde86d270dad2bb6cf1550db4bc04fabc754e002e10c9181900360800190a1505050565b610865611026565b73ffffffffffffffffffffffffffffffffffffffff168173ffffffffffffffffffffffffffffffffffffffff16146108ce5760405162461bcd60e51b815260040180806020018281038252602f815260200180611acb602f913960400191505060405180910390fd5b6106c18282611107565b6109027fb5c00e6706c3d213edd70ff33717fac657eacc5fe161f07180cf1fcab13cc4cd33610bc3565b610953576040805162461bcd60e51b815260206004820152601a60248201527f43616c6c6572206973206e6f742061206e6f64652067726f7570000000000000604482015290519081900360640190fd5b73ffffffffffffffffffffffffffffffffffffffff831660009081526065602052604090205461098390826110ad565b506109a673ffffffffffffffffffffffffffffffffffffffff841630868561118a565b6040805173ffffffffffffffffffffffffffffffffffffffff8087168252851660208201528082018490526060810183905290517ff6a7e66150be6cb9298dfde86d270dad2bb6cf1550db4bc04fabc754e002e10c9181900360800190a150505050565b600054610100900460ff1680610a235750610a23611225565b80610a31575060005460ff16155b610a6c5760405162461bcd60e51b815260040180806020018281038252602e815260200180611a73602e913960400191505060405180910390fd5b600054610100900460ff16158015610ad257600080547fffffffffffffffffffffffffffffffffffffffffffffffffffffffffffffff007fffffffffffffffffffffffffffffffffffffffffffffffffffffffffffff00ff909116610100171660011790555b610add600033610724565b610ae5611236565b80156106c357600080547fffffffffffffffffffffffffffffffffffffffffffffffffffffffffffff00ff16905550565b6000828152603360205260408120610b2e908361130e565b90505b92915050565b610b5973ffffffffffffffffffffffffffffffffffffffff831633308461118a565b6040805133815273ffffffffffffffffffffffffffffffffffffffff8087166020830152818301869052841660608201526080810183905290517f6568c3c65090c2fab1a6886c6a81ef1d1cbe109f8673f9cd595ea82a72fc57d99181900360a00190a150505050565b6000828152603360205260408120610b2e908361131a565b600081565b610c0a7fb5c00e6706c3d213edd70ff33717fac657eacc5fe161f07180cf1fcab13cc4cd33610bc3565b610c5b576040805162461bcd60e51b815260206004820152601a60248201527f43616c6c6572206973206e6f742061206e6f64652067726f7570000000000000604482015290519081900360640190fd5b73ffffffffffffffffffffffffffffffffffffffff8316600090815260656020526040902054610c8b90826110ad565b50604080517f4c8a255800000000000000000000000000000000000000000000000000000000815273ffffffffffffffffffffffffffffffffffffffff86811660048301526024820185905230604483015260648201849052915191851691634c8a25589160848082019260009290919082900301818387803b158015610d1157600080fd5b505af1158015610d25573d6000803e3d6000fd5b50506040805173ffffffffffffffffffffffffffffffffffffffff8089168252871660208201528082018690526060810185905290517f9b3a2ae3f672665c724d4fdf82f2ba754aebc968ec9f8c2221fa4034e07e467d9350908190036080019150a150505050565b73ffffffffffffffffffffffffffffffffffffffff1660009081526065602052604090205490565b6000818152603360205260408120610b319061133c565b803414610dd957600080fd5b6040805133815273ffffffffffffffffffffffffffffffffffffffff85166020820152808201849052600060608201526080810183905290517f6568c3c65090c2fab1a6886c6a81ef1d1cbe109f8673f9cd595ea82a72fc57d99181900360a00190a1505050565b600082815260336020526040902060020154610e5f906106e4611026565b6108ce5760405162461bcd60e51b8152600401808060200182810382526030815260200180611a436030913960400191505060405180910390fd5b610ea5600033610bc3565b610eae57600080fd5b73ffffffffffffffffffffffffffffffffffffffff8216600090815260656020526040902054156106c15773ffffffffffffffffffffffffffffffffffffffff82166000818152606560205260409020546106c191908390611347565b7fb5c00e6706c3d213edd70ff33717fac657eacc5fe161f07180cf1fcab13cc4cd81565b604080517f79cc679000000000000000000000000000000000000000000000000000000000815233600482015260248101839052905173ffffffffffffffffffffffffffffffffffffffff8416916379cc679091604480830192600092919082900301818387803b158015610fa357600080fd5b505af1158015610fb7573d6000803e3d6000fd5b50506040805173ffffffffffffffffffffffffffffffffffffffff8089168252602082018890528616818301526060810185905290517fdc5bad4651c5fbe9977a696aadc65996c468cde1448dd468ec0d83bf61c4b57c9350908190036080019150a150505050565b60665490565b3390565b600082815260336020526040902061104290826113d9565b156106c15761104f611026565b73ffffffffffffffffffffffffffffffffffffffff168173ffffffffffffffffffffffffffffffffffffffff16837f2f8788117e7eff1d82e926ec794901d17c78024a50270940304540a733656f0d60405160405180910390a45050565b600082820183811015610b2e576040805162461bcd60e51b815260206004820152601b60248201527f536166654d6174683a206164646974696f6e206f766572666c6f770000000000604482015290519081900360640190fd5b600082815260336020526040902061111f90826113fb565b156106c15761112c611026565b73ffffffffffffffffffffffffffffffffffffffff168173ffffffffffffffffffffffffffffffffffffffff16837ff6391f5c32d9c69d2a47ea670b442974b53935d1edc7fd64eb21e047a839171b60405160405180910390a45050565b6040805173ffffffffffffffffffffffffffffffffffffffff80861660248301528416604482015260648082018490528251808303909101815260849091019091526020810180517bffffffffffffffffffffffffffffffffffffffffffffffffffffffff167f23b872dd0000000000000000000000000000000000000000000000000000000017905261121f90859061141d565b50505050565b6000611230306114db565b15905090565b600054610100900460ff168061124f575061124f611225565b8061125d575060005460ff16155b6112985760405162461bcd60e51b815260040180806020018281038252602e815260200180611a73602e913960400191505060405180910390fd5b600054610100900460ff161580156112fe57600080547fffffffffffffffffffffffffffffffffffffffffffffffffffffffffffffff007fffffffffffffffffffffffffffffffffffffffffffffffffffffffffffff00ff909116610100171660011790555b6113066114e1565b610ae56114e1565b6000610b2e83836115d9565b6000610b2e8373ffffffffffffffffffffffffffffffffffffffff841661163d565b6000610b3182611655565b6040805173ffffffffffffffffffffffffffffffffffffffff8416602482015260448082018490528251808303909101815260649091019091526020810180517bffffffffffffffffffffffffffffffffffffffffffffffffffffffff167fa9059cbb000000000000000000000000000000000000000000000000000000001790526113d490849061141d565b505050565b6000610b2e8373ffffffffffffffffffffffffffffffffffffffff8416611659565b6000610b2e8373ffffffffffffffffffffffffffffffffffffffff84166116a3565b606061147f826040518060400160405280602081526020017f5361666545524332303a206c6f772d6c6576656c2063616c6c206661696c65648152508573ffffffffffffffffffffffffffffffffffffffff166117879092919063ffffffff16565b8051909150156113d45780806020019051602081101561149e57600080fd5b50516113d45760405162461bcd60e51b815260040180806020018281038252602a815260200180611aa1602a913960400191505060405180910390fd5b3b151590565b600054610100900460ff16806114fa57506114fa611225565b80611508575060005460ff16155b6115435760405162461bcd60e51b815260040180806020018281038252602e815260200180611a73602e913960400191505060405180910390fd5b600054610100900460ff16158015610ae557600080547fffffffffffffffffffffffffffffffffffffffffffffffffffffffffffffff007fffffffffffffffffffffffffffffffffffffffffffffffffffffffffffff00ff9091166101001716600117905580156106c357600080547fffffffffffffffffffffffffffffffffffffffffffffffffffffffffffff00ff16905550565b8154600090821061161b5760405162461bcd60e51b81526004018080602001828103825260228152602001806119cc6022913960400191505060405180910390fd5b82600001828154811061162a57fe5b9060005260206000200154905092915050565b60009081526001919091016020526040902054151590565b5490565b6000611665838361163d565b61169b57508154600181810184556000848152602080822090930184905584548482528286019093526040902091909155610b31565b506000610b31565b6000818152600183016020526040812054801561177d5783547fffffffffffffffffffffffffffffffffffffffffffffffffffffffffffffffff80830191908101906000908790839081106116f457fe5b906000526020600020015490508087600001848154811061171157fe5b60009182526020808320909101929092558281526001898101909252604090209084019055865487908061174157fe5b60019003818190600052602060002001600090559055866001016000878152602001908152602001600020600090556001945050505050610b31565b6000915050610b31565b606061179684846000856117a0565b90505b9392505050565b6060824710156117e15760405162461bcd60e51b8152600401808060200182810382526026815260200180611a1d6026913960400191505060405180910390fd5b6117ea856114db565b61183b576040805162461bcd60e51b815260206004820152601d60248201527f416464726573733a2063616c6c20746f206e6f6e2d636f6e7472616374000000604482015290519081900360640190fd5b600060608673ffffffffffffffffffffffffffffffffffffffff1685876040518082805190602001908083835b602083106118a557805182527fffffffffffffffffffffffffffffffffffffffffffffffffffffffffffffffe09092019160209182019101611868565b6001836020036101000a03801982511681845116808217855250505050505090500191505060006040518083038185875af1925050503d8060008114611907576040519150601f19603f3d011682016040523d82523d6000602084013e61190c565b606091505b509150915061191c828286611927565b979650505050505050565b60608315611936575081611799565b8251156119465782518084602001fd5b8160405162461bcd60e51b81526004018080602001828103825283818151815260200191508051906020019080838360005b83811015611990578181015183820152602001611978565b50505050905090810190601f1680156119bd5780820380516001836020036101000a031916815260200191505b509250505060405180910390fdfe456e756d657261626c655365743a20696e646578206f7574206f6620626f756e6473416363657373436f6e74726f6c3a2073656e646572206d75737420626520616e2061646d696e20746f206772616e74416464726573733a20696e73756666696369656e742062616c616e636520666f722063616c6c416363657373436f6e74726f6c3a2073656e646572206d75737420626520616e2061646d696e20746f207265766f6b65496e697469616c697a61626c653a20636f6e747261637420697320616c726561647920696e697469616c697a65645361666545524332303a204552433230206f7065726174696f6e20646964206e6f742073756363656564416363657373436f6e74726f6c3a2063616e206f6e6c792072656e6f756e636520726f6c657320666f722073656c66a2646970667358221220dfcde095eb4f73f957d0a7365fe99aa3fe9c209baf47637dcce4722c00ac24b664736f6c634300060c0033",
  "devdoc": {
    "kind": "dev",
    "methods": {
      "deposit(address,uint256,address,uint256)": {
        "params": {
          "amount": "Amount in native token decimals to transfer cross-chain pre-fees*",
          "chainId": "which chain to bridge assets onto",
          "to": "address on other chain to bridge assets to",
          "token": "ERC20 compatible token to deposit into the bridge"
        }
      },
      "depositETH(address,uint256,uint256)": {
        "params": {
          "amount": "Amount in native token decimals to transfer cross-chain pre-fees*",
          "chainId": "which chain to bridge assets onto",
          "to": "address on other chain to bridge assets to"
        }
      },
      "getRoleAdmin(bytes32)": {
        "details": "Returns the admin role that controls `role`. See {grantRole} and {revokeRole}. To change a role's admin, use {_setRoleAdmin}."
      },
      "getRoleMember(bytes32,uint256)": {
        "details": "Returns one of the accounts that have `role`. `index` must be a value between 0 and {getRoleMemberCount}, non-inclusive. Role bearers are not sorted in any particular way, and their ordering may change at any point. WARNING: When using {getRoleMember} and {getRoleMemberCount}, make sure you perform all queries on the same block. See the following https://forum.openzeppelin.com/t/iterating-over-elements-on-enumerableset-in-openzeppelin-contracts/2296[forum post] for more information."
      },
      "getRoleMemberCount(bytes32)": {
        "details": "Returns the number of accounts that have `role`. Can be used together with {getRoleMember} to enumerate all bearers of a role."
      },
      "grantRole(bytes32,address)": {
        "details": "Grants `role` to `account`. If `account` had not been already granted `role`, emits a {RoleGranted} event. Requirements: - the caller must have ``role``'s admin role."
      },
      "hasRole(bytes32,address)": {
        "details": "Returns `true` if `account` has been granted `role`."
      },
      "mint(address,address,uint256,uint256)": {
        "details": "This means the BridgeDeposit.sol contract must have minter access to the token attempting to be minted",
        "params": {
          "amount": "Amount in native token decimals to transfer cross-chain post-fees",
          "fee": "Amount in native token decimals to save to the contract as fees*",
          "to": "address on other chain to redeem underlying assets to",
          "token": "ERC20 compatible token to deposit into the bridge"
        }
      },
      "redeem(address,uint256,address,uint256)": {
        "params": {
          "amount": "Amount in native token decimals to transfer cross-chain pre-fees*",
          "chainId": "which underlying chain to bridge assets onto",
          "to": "address on other chain to redeem underlying assets to",
          "token": "ERC20 compatible token to deposit into the bridge"
        }
      },
      "renounceRole(bytes32,address)": {
        "details": "Revokes `role` from the calling account. Roles are often managed via {grantRole} and {revokeRole}: this function's purpose is to provide a mechanism for accounts to lose their privileges if they are compromised (such as when a trusted device is misplaced). If the calling account had been granted `role`, emits a {RoleRevoked} event. Requirements: - the caller must be `account`."
      },
      "revokeRole(bytes32,address)": {
        "details": "Revokes `role` from `account`. If `account` had been granted `role`, emits a {RoleRevoked} event. Requirements: - the caller must have ``role``'s admin role."
      },
      "withdraw(address,address,uint256,uint256)": {
        "params": {
          "amount": "Amount in native token decimals to withdraw",
          "fee": "Amount in native token decimals to save to the contract as fees*",
          "to": "address on chain to send underlying assets to",
          "token": "ERC20 compatible token to withdraw from the bridge"
        }
      },
      "withdrawETH(address,uint256,uint256)": {
        "params": {
          "amount": "Amount in gas token decimals to withdraw (after subtracting fee already)",
          "fee": "Amount in gas token decimals to save to the contract as fees*",
          "to": "address on chain to send gas asset to"
        }
      },
      "withdrawETHAdminFees(address)": {
        "params": {
          "to": "Address to send the gas fees to"
        }
      },
      "withdrawFees(address,address)": {
        "params": {
          "to": "Address to send the fees to",
          "token": "ERC20 token in which fees acccumulated to transfer"
        }
      }
    },
    "version": 1
  },
  "userdoc": {
    "kind": "user",
    "methods": {
      "deposit(address,uint256,address,uint256)": {
        "notice": "Relays to nodes to transfers an ERC20 token cross-chain"
      },
      "depositETH(address,uint256,uint256)": {
        "notice": "Relays to nodes to transfers the underlying chain gas token cross-chain"
      },
      "mint(address,address,uint256,uint256)": {
        "notice": "Relays to nodes that (typically) a wrapped synAsset ERC20 token has been burned and the underlying needs to be redeeemed on the native chain"
      },
      "redeem(address,uint256,address,uint256)": {
        "notice": "Relays to nodes that (typically) a wrapped synAsset ERC20 token has been burned and the underlying needs to be redeeemed on the native chain"
      },
      "withdraw(address,address,uint256,uint256)": {
        "notice": "Function to be called by the node group to withdraw the underlying assets from the contract"
      },
      "withdrawETH(address,uint256,uint256)": {
        "notice": "Function to be called by the node group to withdraw the underlying gas asset from the contract"
      },
      "withdrawETHAdminFees(address)": {
        "notice": "withdraw gas token fees to a given address"
      },
      "withdrawFees(address,address)": {
        "notice": "withdraw specified ERC20 token fees to a given address"
      }
    },
    "version": 1
  },
  "storageLayout": {
    "storage": [
      {
        "astId": 1155,
        "contract": "contracts/synapse/BridgeDeposit.sol:BridgeDeposit",
        "label": "_initialized",
        "offset": 0,
        "slot": "0",
        "type": "t_bool"
      },
      {
        "astId": 1158,
        "contract": "contracts/synapse/BridgeDeposit.sol:BridgeDeposit",
        "label": "_initializing",
        "offset": 1,
        "slot": "0",
        "type": "t_bool"
      },
      {
        "astId": 2194,
        "contract": "contracts/synapse/BridgeDeposit.sol:BridgeDeposit",
        "label": "__gap",
        "offset": 0,
        "slot": "1",
        "type": "t_array(t_uint256)50_storage"
      },
      {
        "astId": 43,
        "contract": "contracts/synapse/BridgeDeposit.sol:BridgeDeposit",
        "label": "_roles",
        "offset": 0,
        "slot": "51",
        "type": "t_mapping(t_bytes32,t_struct(RoleData)39_storage)"
      },
      {
        "astId": 306,
        "contract": "contracts/synapse/BridgeDeposit.sol:BridgeDeposit",
        "label": "__gap",
        "offset": 0,
        "slot": "52",
        "type": "t_array(t_uint256)49_storage"
      },
      {
        "astId": 6391,
        "contract": "contracts/synapse/BridgeDeposit.sol:BridgeDeposit",
        "label": "fees",
        "offset": 0,
        "slot": "101",
        "type": "t_mapping(t_address,t_uint256)"
      },
      {
        "astId": 6393,
        "contract": "contracts/synapse/BridgeDeposit.sol:BridgeDeposit",
        "label": "ethFees",
        "offset": 0,
        "slot": "102",
        "type": "t_uint256"
      }
    ],
    "types": {
      "t_address": {
        "encoding": "inplace",
        "label": "address",
        "numberOfBytes": "20"
      },
      "t_array(t_bytes32)dyn_storage": {
        "base": "t_bytes32",
        "encoding": "dynamic_array",
        "label": "bytes32[]",
        "numberOfBytes": "32"
      },
      "t_array(t_uint256)49_storage": {
        "base": "t_uint256",
        "encoding": "inplace",
        "label": "uint256[49]",
        "numberOfBytes": "1568"
      },
      "t_array(t_uint256)50_storage": {
        "base": "t_uint256",
        "encoding": "inplace",
        "label": "uint256[50]",
        "numberOfBytes": "1600"
      },
      "t_bool": {
        "encoding": "inplace",
        "label": "bool",
        "numberOfBytes": "1"
      },
      "t_bytes32": {
        "encoding": "inplace",
        "label": "bytes32",
        "numberOfBytes": "32"
      },
      "t_mapping(t_address,t_uint256)": {
        "encoding": "mapping",
        "key": "t_address",
        "label": "mapping(address => uint256)",
        "numberOfBytes": "32",
        "value": "t_uint256"
      },
      "t_mapping(t_bytes32,t_struct(RoleData)39_storage)": {
        "encoding": "mapping",
        "key": "t_bytes32",
        "label": "mapping(bytes32 => struct AccessControlUpgradeable.RoleData)",
        "numberOfBytes": "32",
        "value": "t_struct(RoleData)39_storage"
      },
      "t_mapping(t_bytes32,t_uint256)": {
        "encoding": "mapping",
        "key": "t_bytes32",
        "label": "mapping(bytes32 => uint256)",
        "numberOfBytes": "32",
        "value": "t_uint256"
      },
      "t_struct(AddressSet)2521_storage": {
        "encoding": "inplace",
        "label": "struct EnumerableSetUpgradeable.AddressSet",
        "members": [
          {
            "astId": 2520,
            "contract": "contracts/synapse/BridgeDeposit.sol:BridgeDeposit",
            "label": "_inner",
            "offset": 0,
            "slot": "0",
            "type": "t_struct(Set)2256_storage"
          }
        ],
        "numberOfBytes": "64"
      },
      "t_struct(RoleData)39_storage": {
        "encoding": "inplace",
        "label": "struct AccessControlUpgradeable.RoleData",
        "members": [
          {
            "astId": 36,
            "contract": "contracts/synapse/BridgeDeposit.sol:BridgeDeposit",
            "label": "members",
            "offset": 0,
            "slot": "0",
            "type": "t_struct(AddressSet)2521_storage"
          },
          {
            "astId": 38,
            "contract": "contracts/synapse/BridgeDeposit.sol:BridgeDeposit",
            "label": "adminRole",
            "offset": 0,
            "slot": "2",
            "type": "t_bytes32"
          }
        ],
        "numberOfBytes": "96"
      },
      "t_struct(Set)2256_storage": {
        "encoding": "inplace",
        "label": "struct EnumerableSetUpgradeable.Set",
        "members": [
          {
            "astId": 2251,
            "contract": "contracts/synapse/BridgeDeposit.sol:BridgeDeposit",
            "label": "_values",
            "offset": 0,
            "slot": "0",
            "type": "t_array(t_bytes32)dyn_storage"
          },
          {
            "astId": 2255,
            "contract": "contracts/synapse/BridgeDeposit.sol:BridgeDeposit",
            "label": "_indexes",
            "offset": 0,
            "slot": "1",
            "type": "t_mapping(t_bytes32,t_uint256)"
          }
        ],
        "numberOfBytes": "64"
      },
      "t_uint256": {
        "encoding": "inplace",
        "label": "uint256",
        "numberOfBytes": "32"
      }
    }
  }
}