{
  "address": "0x7fd806049608b7d04076b8187dd773343e0589e6",
  "abi": [
    {
      "inputs": [],
      "stateMutability": "nonpayable",
      "type": "constructor"
    },
    {
      "anonymous": false,
      "inputs": [
        {
          "indexed": true,
          "internalType": "bytes32",
          "name": "role",
          "type": "bytes32"
        },
        {
          "indexed": true,
          "internalType": "bytes32",
          "name": "previousAdminRole",
          "type": "bytes32"
        },
        {
          "indexed": true,
          "internalType": "bytes32",
          "name": "newAdminRole",
          "type": "bytes32"
        }
      ],
      "name": "RoleAdminChanged",
      "type": "event"
    },
    {
      "anonymous": false,
      "inputs": [
        {
          "indexed": true,
          "internalType": "bytes32",
          "name": "role",
          "type": "bytes32"
        },
        {
          "indexed": true,
          "internalType": "address",
          "name": "account",
          "type": "address"
        },
        {
          "indexed": true,
          "internalType": "address",
          "name": "sender",
          "type": "address"
        }
      ],
      "name": "RoleGranted",
      "type": "event"
    },
    {
      "anonymous": false,
      "inputs": [
        {
          "indexed": true,
          "internalType": "bytes32",
          "name": "role",
          "type": "bytes32"
        },
        {
          "indexed": true,
          "internalType": "address",
          "name": "account",
          "type": "address"
        },
        {
          "indexed": true,
          "internalType": "address",
          "name": "sender",
          "type": "address"
        }
      ],
      "name": "RoleRevoked",
      "type": "event"
    },
    {
      "inputs": [],
      "name": "BRIDGEMANAGER_ROLE",
      "outputs": [
        {
          "internalType": "bytes32",
          "name": "",
          "type": "bytes32"
        }
      ],
      "stateMutability": "view",
      "type": "function"
    },
    {
      "inputs": [],
      "name": "DEFAULT_ADMIN_ROLE",
      "outputs": [
        {
          "internalType": "bytes32",
          "name": "",
          "type": "bytes32"
        }
      ],
      "stateMutability": "view",
      "type": "function"
    },
    {
      "inputs": [
        {
          "internalType": "address",
          "name": "tokenAddress",
          "type": "address"
        },
        {
          "internalType": "uint256",
          "name": "chainID",
          "type": "uint256"
        },
        {
          "internalType": "uint256",
          "name": "amount",
          "type": "uint256"
        }
      ],
      "name": "calculateSwapFee",
      "outputs": [
        {
          "internalType": "uint256",
          "name": "",
          "type": "uint256"
        }
      ],
      "stateMutability": "view",
      "type": "function"
    },
    {
      "inputs": [],
      "name": "getAllTokenIDs",
      "outputs": [
        {
          "internalType": "string[]",
          "name": "result",
          "type": "string[]"
        }
      ],
      "stateMutability": "view",
      "type": "function"
    },
    {
      "inputs": [
        {
          "internalType": "bytes32",
          "name": "role",
          "type": "bytes32"
        }
      ],
      "name": "getRoleAdmin",
      "outputs": [
        {
          "internalType": "bytes32",
          "name": "",
          "type": "bytes32"
        }
      ],
      "stateMutability": "view",
      "type": "function"
    },
    {
      "inputs": [
        {
          "internalType": "bytes32",
          "name": "role",
          "type": "bytes32"
        },
        {
          "internalType": "uint256",
          "name": "index",
          "type": "uint256"
        }
      ],
      "name": "getRoleMember",
      "outputs": [
        {
          "internalType": "address",
          "name": "",
          "type": "address"
        }
      ],
      "stateMutability": "view",
      "type": "function"
    },
    {
      "inputs": [
        {
          "internalType": "bytes32",
          "name": "role",
          "type": "bytes32"
        }
      ],
      "name": "getRoleMemberCount",
      "outputs": [
        {
          "internalType": "uint256",
          "name": "",
          "type": "uint256"
        }
      ],
      "stateMutability": "view",
      "type": "function"
    },
    {
      "inputs": [
        {
          "internalType": "string",
          "name": "tokenID",
          "type": "string"
        },
        {
          "internalType": "uint256",
          "name": "chainID",
          "type": "uint256"
        }
      ],
      "name": "getToken",
      "outputs": [
        {
          "components": [
            {
              "internalType": "uint256",
              "name": "chainId",
              "type": "uint256"
            },
            {
              "internalType": "address",
              "name": "tokenAddress",
              "type": "address"
            },
            {
              "internalType": "uint8",
              "name": "tokenDecimals",
              "type": "uint8"
            },
            {
              "internalType": "uint256",
              "name": "maxSwap",
              "type": "uint256"
            },
            {
              "internalType": "uint256",
              "name": "minSwap",
              "type": "uint256"
            },
            {
              "internalType": "uint256",
              "name": "swapFee",
              "type": "uint256"
            },
            {
              "internalType": "uint256",
              "name": "maxSwapFee",
              "type": "uint256"
            },
            {
              "internalType": "uint256",
              "name": "minSwapFee",
              "type": "uint256"
            },
            {
              "internalType": "bool",
              "name": "hasUnderlying",
              "type": "bool"
            },
            {
              "internalType": "bool",
              "name": "isUnderlying",
              "type": "bool"
            }
          ],
          "internalType": "struct BridgeConfig.Token",
          "name": "token",
          "type": "tuple"
        }
      ],
      "stateMutability": "view",
      "type": "function"
    },
    {
      "inputs": [
        {
          "internalType": "address",
          "name": "tokenAddress",
          "type": "address"
        },
        {
          "internalType": "uint256",
          "name": "chainID",
          "type": "uint256"
        }
      ],
      "name": "getToken",
      "outputs": [
        {
          "components": [
            {
              "internalType": "uint256",
              "name": "chainId",
              "type": "uint256"
            },
            {
              "internalType": "address",
              "name": "tokenAddress",
              "type": "address"
            },
            {
              "internalType": "uint8",
              "name": "tokenDecimals",
              "type": "uint8"
            },
            {
              "internalType": "uint256",
              "name": "maxSwap",
              "type": "uint256"
            },
            {
              "internalType": "uint256",
              "name": "minSwap",
              "type": "uint256"
            },
            {
              "internalType": "uint256",
              "name": "swapFee",
              "type": "uint256"
            },
            {
              "internalType": "uint256",
              "name": "maxSwapFee",
              "type": "uint256"
            },
            {
              "internalType": "uint256",
              "name": "minSwapFee",
              "type": "uint256"
            },
            {
              "internalType": "bool",
              "name": "hasUnderlying",
              "type": "bool"
            },
            {
              "internalType": "bool",
              "name": "isUnderlying",
              "type": "bool"
            }
          ],
          "internalType": "struct BridgeConfig.Token",
          "name": "token",
          "type": "tuple"
        }
      ],
      "stateMutability": "view",
      "type": "function"
    },
    {
      "inputs": [
        {
          "internalType": "address",
          "name": "tokenAddress",
          "type": "address"
        },
        {
          "internalType": "uint256",
          "name": "chainID",
          "type": "uint256"
        }
      ],
      "name": "getTokenID",
      "outputs": [
        {
          "internalType": "string",
          "name": "",
          "type": "string"
        }
      ],
      "stateMutability": "view",
      "type": "function"
    },
    {
      "inputs": [
        {
          "internalType": "string",
          "name": "tokenID",
          "type": "string"
        }
      ],
      "name": "getUnderlyingToken",
      "outputs": [
        {
          "components": [
            {
              "internalType": "uint256",
              "name": "chainId",
              "type": "uint256"
            },
            {
              "internalType": "address",
              "name": "tokenAddress",
              "type": "address"
            },
            {
              "internalType": "uint8",
              "name": "tokenDecimals",
              "type": "uint8"
            },
            {
              "internalType": "uint256",
              "name": "maxSwap",
              "type": "uint256"
            },
            {
              "internalType": "uint256",
              "name": "minSwap",
              "type": "uint256"
            },
            {
              "internalType": "uint256",
              "name": "swapFee",
              "type": "uint256"
            },
            {
              "internalType": "uint256",
              "name": "maxSwapFee",
              "type": "uint256"
            },
            {
              "internalType": "uint256",
              "name": "minSwapFee",
              "type": "uint256"
            },
            {
              "internalType": "bool",
              "name": "hasUnderlying",
              "type": "bool"
            },
            {
              "internalType": "bool",
              "name": "isUnderlying",
              "type": "bool"
            }
          ],
          "internalType": "struct BridgeConfig.Token",
          "name": "token",
          "type": "tuple"
        }
      ],
      "stateMutability": "view",
      "type": "function"
    },
    {
      "inputs": [
        {
          "internalType": "bytes32",
          "name": "role",
          "type": "bytes32"
        },
        {
          "internalType": "address",
          "name": "account",
          "type": "address"
        }
      ],
      "name": "grantRole",
      "outputs": [],
      "stateMutability": "nonpayable",
      "type": "function"
    },
    {
      "inputs": [
        {
          "internalType": "bytes32",
          "name": "role",
          "type": "bytes32"
        },
        {
          "internalType": "address",
          "name": "account",
          "type": "address"
        }
      ],
      "name": "hasRole",
      "outputs": [
        {
          "internalType": "bool",
          "name": "",
          "type": "bool"
        }
      ],
      "stateMutability": "view",
      "type": "function"
    },
    {
      "inputs": [
        {
          "internalType": "string",
          "name": "tokenID",
          "type": "string"
        }
      ],
      "name": "hasUnderlyingToken",
      "outputs": [
        {
          "internalType": "bool",
          "name": "",
          "type": "bool"
        }
      ],
      "stateMutability": "view",
      "type": "function"
    },
    {
      "inputs": [
        {
          "internalType": "string",
          "name": "tokenID",
          "type": "string"
        }
      ],
      "name": "isTokenIDExist",
      "outputs": [
        {
          "internalType": "bool",
          "name": "",
          "type": "bool"
        }
      ],
      "stateMutability": "view",
      "type": "function"
    },
    {
      "inputs": [
        {
          "internalType": "bytes32",
          "name": "role",
          "type": "bytes32"
        },
        {
          "internalType": "address",
          "name": "account",
          "type": "address"
        }
      ],
      "name": "renounceRole",
      "outputs": [],
      "stateMutability": "nonpayable",
      "type": "function"
    },
    {
      "inputs": [
        {
          "internalType": "bytes32",
          "name": "role",
          "type": "bytes32"
        },
        {
          "internalType": "address",
          "name": "account",
          "type": "address"
        }
      ],
      "name": "revokeRole",
      "outputs": [],
      "stateMutability": "nonpayable",
      "type": "function"
    },
    {
      "inputs": [
        {
          "internalType": "string",
          "name": "tokenID",
          "type": "string"
        },
        {
          "internalType": "uint256",
          "name": "chainID",
          "type": "uint256"
        },
        {
          "internalType": "address",
          "name": "tokenAddress",
          "type": "address"
        },
        {
          "internalType": "uint8",
          "name": "tokenDecimals",
          "type": "uint8"
        },
        {
          "internalType": "uint256",
          "name": "maxSwap",
          "type": "uint256"
        },
        {
          "internalType": "uint256",
          "name": "minSwap",
          "type": "uint256"
        },
        {
          "internalType": "uint256",
          "name": "swapFee",
          "type": "uint256"
        },
        {
          "internalType": "uint256",
          "name": "maxSwapFee",
          "type": "uint256"
        },
        {
          "internalType": "uint256",
          "name": "minSwapFee",
          "type": "uint256"
        },
        {
          "internalType": "bool",
          "name": "hasUnderlying",
          "type": "bool"
        },
        {
          "internalType": "bool",
          "name": "isUnderlying",
          "type": "bool"
        }
      ],
      "name": "setTokenConfig",
      "outputs": [
        {
          "internalType": "bool",
          "name": "",
          "type": "bool"
        }
      ],
      "stateMutability": "nonpayable",
      "type": "function"
    }
  ],
  "transactionHash": "0xd88a9d5c13ad9f7cfaa50617e6aab40d655211406842b17fab0f819bf9359236",
  "args": [],
  "solcInputHash": "93aac212556138477183b84b0e38d022",
  "bytecode": "0x60806040523480156200001157600080fd5b506200001f60003362000025565b62000139565b62000031828262000035565b5050565b6000828152602081815260409091206200005a91839062000caa620000ae821b17901c565b1562000031576200006a620000ce565b6001600160a01b0316816001600160a01b0316837f2f8788117e7eff1d82e926ec794901d17c78024a50270940304540a733656f0d60405160405180910390a45050565b6000620000c5836001600160a01b038416620000d2565b90505b92915050565b3390565b6000620000e0838362000121565b6200011857508154600181810184556000848152602080822090930184905584548482528286019093526040902091909155620000c8565b506000620000c8565b60009081526001919091016020526040902054151590565b611d6c80620001496000396000f3fe608060405234801561001057600080fd5b50600436106101365760003560e01c8063684a10b3116100b2578063af611ca011610081578063d547741f11610066578063d547741f1461029b578063fc7cc4cb146102ae578063ff9106c7146102c157610136565b8063af611ca014610275578063ca15c8731461028857610136565b8063684a10b3146102255780639010d07c1461023a57806391d148541461025a578063a217fddf1461026d57610136565b806336568abe1161010957806343d7cce6116100ee57806343d7cce6146101ec57806358dfe6f1146101ff57806359053bfe1461021257610136565b806336568abe146101b95780633cc1c7e0146101cc57610136565b8063074b7e971461013b578063248a9ca3146101645780632f2ff15d14610184578063324980b514610199575b600080fd5b61014e6101493660046117f4565b6102c9565b60405161015b9190611a75565b60405180910390f35b610177610172366004611774565b61045b565b60405161015b9190611a80565b61019761019236600461178c565b610473565b005b6101ac6101a7366004611834565b6104de565b60405161015b9190611ca4565b6101976101c736600461178c565b6105f5565b6101df6101da366004611717565b61066b565b60405161015b9190611a89565b6101ac6101fa366004611717565b6106a7565b6101ac61020d3660046117f4565b610796565b61014e61022036600461187e565b61093c565b61022d610a72565b60405161015b91906119f7565b61024d6102483660046117d3565b610b15565b60405161015b91906119d6565b61014e61026836600461178c565b610b2d565b610177610b45565b61014e6102833660046117f4565b610b4a565b610177610296366004611774565b610b93565b6101976102a936600461178c565b610baa565b6101776102bc366004611741565b610bfe565b610177610c86565b60008061030b84848080601f016020809104026020016040519081016040528093929190818152602001838380828437600092019190915250610ccc92505050565b600081815260026020908152604080832080548251818502810185019093528083529495506060949193909284015b828210156104095760008481526020908190206040805161014081018252600886029092018054835260018082015473ffffffffffffffffffffffffffffffffffffffff81168587015260ff740100000000000000000000000000000000000000009091048116938501939093526002820154606085015260038201546080850152600482015460a0850152600582015460c0850152600682015460e085015260079091015480831615156101008086019190915290049091161515610120830152908352909201910161033a565b50505050905060005b815181101561044d5781818151811061042757fe5b60200260200101516101000151156104455760019350505050610455565b600101610412565b506000925050505b92915050565b6000818152602081905260409020600201545b919050565b60008281526020819052604090206002015461049190610268610cd3565b6104d0576040517f08c379a00000000000000000000000000000000000000000000000000000000081526004016104c790611af9565b60405180910390fd5b6104da8282610cd7565b5050565b6104e661162c565b6004600061052986868080601f016020809104026020016040519081016040528093929190818152602001838380828437600092019190915250610ccc92505050565b815260208082019290925260409081016000908120858252835281902081516101408101835281548152600182015473ffffffffffffffffffffffffffffffffffffffff8116948201949094527401000000000000000000000000000000000000000090930460ff908116928401929092526002810154606084015260038101546080840152600481015460a0840152600581015460c0840152600681015460e084015260070154808216151561010080850191909152900416151561012082015290505b9392505050565b6105fd610cd3565b73ffffffffffffffffffffffffffffffffffffffff168173ffffffffffffffffffffffffffffffffffffffff1614610661576040517f08c379a00000000000000000000000000000000000000000000000000000000081526004016104c790611c47565b6104da8282610d5a565b600081815260036020908152604080832073ffffffffffffffffffffffffffffffffffffffff861684529091529020546060906105ee90610ddd565b6106af61162c565b60606106bb848461066b565b9050600460006106ca83610ccc565b815260208082019290925260409081016000908120868252835281902081516101408101835281548152600182015473ffffffffffffffffffffffffffffffffffffffff81169482019490945260ff740100000000000000000000000000000000000000009094048416928101929092526002810154606083015260038101546080830152600481015460a0830152600581015460c0830152600681015460e0830152600701548083161515610100808401919091529004909116151561012082015291505092915050565b61079e61162c565b60006107df84848080601f016020809104026020016040519081016040528093929190818152602001838380828437600092019190915250610ccc92505050565b600081815260026020908152604080832080548251818502810185019093528083529495506060949193909284015b828210156108dd5760008481526020908190206040805161014081018252600886029092018054835260018082015473ffffffffffffffffffffffffffffffffffffffff81168587015260ff740100000000000000000000000000000000000000009091048116938501939093526002820154606085015260038201546080850152600482015460a0850152600582015460c0850152600682015460e085015260079091015480831615156101008086019190915290049091161515610120830152908352909201910161080e565b50505050905060005b8151811015610933578181815181106108fb57fe5b602002602001015161012001511561092b5781818151811061091957fe5b60200260200101519350505050610455565b6001016108e6565b50505092915050565b60006109687f4370dcf3e42e4d5b773a451bb8390ee8e7308f47681d1414cff87c2ad0512c8533610b2d565b61097157600080fd5b61097961162c565b8a816020019073ffffffffffffffffffffffffffffffffffffffff16908173ffffffffffffffffffffffffffffffffffffffff168152505089816040019060ff16908160ff16815250508881606001818152505087816080018181525050868160a0018181525050858160c0018181525050848160e001818152505083816101000190151590811515815250508281610120019015159081151581525050610a60610a598f8f8080601f016020809104026020016040519081016040528093929190818152602001838380828437600092019190915250610ccc92505050565b8d83610ef1565b9e9d5050505050505050505050505050565b6001546060908067ffffffffffffffff81118015610a8f57600080fd5b50604051908082528060200260200182016040528015610ac357816020015b6060815260200190600190039081610aae5790505b50915060005b81811015610b1057610af160018281548110610ae157fe5b9060005260206000200154610ddd565b838281518110610afd57fe5b6020908102919091010152600101610ac9565b505090565b60008281526020819052604081206105ee9083611340565b60008281526020819052604081206105ee908361134c565b600081565b60006105ee610b8e84848080601f016020809104026020016040519081016040528093929190818152602001838380828437600092019190915250610ccc92505050565b61136e565b6000818152602081905260408120610455906113b6565b600082815260208190526040902060020154610bc890610268610cd3565b610661576040517f08c379a00000000000000000000000000000000000000000000000000000000081526004016104c790611b8d565b6000610c0861162c565b610c1285856106a7565b90506000610c3c6402540be400610c368460a00151876113c190919063ffffffff16565b90611415565b90508160e0015181118015610c5457508160c0015181105b15610c625791506105ee9050565b8160c00151811115610c7a575060c0015190506105ee565b5060e0015190506105ee565b7f4370dcf3e42e4d5b773a451bb8390ee8e7308f47681d1414cff87c2ad0512c8581565b60006105ee8373ffffffffffffffffffffffffffffffffffffffff8416611461565b6020015190565b3390565b6000828152602081905260409020610cef9082610caa565b156104da57610cfc610cd3565b73ffffffffffffffffffffffffffffffffffffffff168173ffffffffffffffffffffffffffffffffffffffff16837f2f8788117e7eff1d82e926ec794901d17c78024a50270940304540a733656f0d60405160405180910390a45050565b6000828152602081905260409020610d7290826114ab565b156104da57610d7f610cd3565b73ffffffffffffffffffffffffffffffffffffffff168173ffffffffffffffffffffffffffffffffffffffff16837ff6391f5c32d9c69d2a47ea670b442974b53935d1edc7fd64eb21e047a839171b60405160405180910390a45050565b606060005b60208160ff16108015610e285750828160ff1660208110610dff57fe5b1a60f81b7fff000000000000000000000000000000000000000000000000000000000000001615155b15610e3557600101610de2565b60608160ff1667ffffffffffffffff81118015610e5157600080fd5b506040519080825280601f01601f191660200182016040528015610e7c576020820181803683370190505b50905060005b8260ff168160ff161015610ee957848160ff1660208110610e9f57fe5b1a60f81b828260ff1681518110610eb257fe5b60200101907effffffffffffffffffffffffffffffffffffffffffffffffffffffffffffff1916908160001a905350600101610e82565b509392505050565b6000838152600460208181526040808420868552825280842085518155918501516001830180549287015160ff1674010000000000000000000000000000000000000000027fffffffffffffffffffffff00ffffffffffffffffffffffffffffffffffffffff73ffffffffffffffffffffffffffffffffffffffff9093167fffffffffffffffffffffffff00000000000000000000000000000000000000009094169390931791909116919091179055606084015160028201556080840151600382015560a08401519181019190915560c0830151600582015560e08301516006820155610100808401516007909201805461012086015115159092027fffffffffffffffffffffffffffffffffffffffffffffffffffffffffffff00ff9315157fffffffffffffffffffffffffffffffffffffffffffffffffffffffffffffff00909316929092179290921617905561104a8461136e565b611083576001805480820182556000919091527fb10e2d527612073b26eecdfd717e6a320cf44b4afac2b0732d9fcbe2b7fa0cf6018490555b6000848152600260205260408120905b81548110156111ca57848282815481106110a957fe5b90600052602060002090600802016000015414156111c25760008282815481106110cf57fe5b6000918252602091829020600160089092020101549086015173ffffffffffffffffffffffffffffffffffffffff91821692501681146111c057846020015183838154811061111a57fe5b6000918252602080832060089290920290910160010180547fffffffffffffffffffffffff00000000000000000000000000000000000000001673ffffffffffffffffffffffffffffffffffffffff9485161790558882526003808252604080842086861685528084528185207fc5d2460186f7233c927e7db2dcc703c0e500b653ca82273b7bfad8045d85a47090558b85529183528983015190941683529052208790555b505b600101611093565b50805460018181018355600092835260208084208651600890940201928355808601805184840180546040808b015160ff1674010000000000000000000000000000000000000000027fffffffffffffffffffffff00ffffffffffffffffffffffffffffffffffffffff73ffffffffffffffffffffffffffffffffffffffff9586167fffffffffffffffffffffffff000000000000000000000000000000000000000090941693909317929092169190911790915560608901516002870155608089015160038088019190915560a08a0151600488015560c08a0151600588015560e08a01516006880155610100808b0151600790980180546101208d015115159092027fffffffffffffffffffffffffffffffffffffffffffffffffffffffffffff00ff9915157fffffffffffffffffffffffffffffffffffffffffffffffffffffffffffffff0090931692909217989098161790965589875294835284862091511685529052912085905590509392505050565b60006105ee83836114cd565b60006105ee8373ffffffffffffffffffffffffffffffffffffffff841661152c565b6000805b6001548110156113ad57826001828154811061138a57fe5b906000526020600020015414156113a557600191505061046e565b600101611372565b50600092915050565b600061045582611544565b6000826113d057506000610455565b828202828482816113dd57fe5b04146105ee576040517f08c379a00000000000000000000000000000000000000000000000000000000081526004016104c790611bea565b6000808211611450576040517f08c379a00000000000000000000000000000000000000000000000000000000081526004016104c790611b56565b81838161145957fe5b049392505050565b600061146d838361152c565b6114a357508154600181810184556000848152602080822090930184905584548482528286019093526040902091909155610455565b506000610455565b60006105ee8373ffffffffffffffffffffffffffffffffffffffff8416611548565b8154600090821061150a576040517f08c379a00000000000000000000000000000000000000000000000000000000081526004016104c790611a9c565b82600001828154811061151957fe5b9060005260206000200154905092915050565b60009081526001919091016020526040902054151590565b5490565b600081815260018301602052604081205480156116225783547fffffffffffffffffffffffffffffffffffffffffffffffffffffffffffffffff808301919081019060009087908390811061159957fe5b90600052602060002001549050808760000184815481106115b657fe5b6000918252602080832090910192909255828152600189810190925260409020908401905586548790806115e657fe5b60019003818190600052602060002001600090559055866001016000878152602001908152602001600020600090556001945050505050610455565b6000915050610455565b60405180610140016040528060008152602001600073ffffffffffffffffffffffffffffffffffffffff168152602001600060ff16815260200160008152602001600081526020016000815260200160008152602001600081526020016000151581526020016000151581525090565b803573ffffffffffffffffffffffffffffffffffffffff8116811461045557600080fd5b8035801515811461045557600080fd5b60008083601f8401126116e1578182fd5b50813567ffffffffffffffff8111156116f8578182fd5b60208301915083602082850101111561171057600080fd5b9250929050565b60008060408385031215611729578182fd5b611733848461169c565b946020939093013593505050565b600080600060608486031215611755578081fd5b61175f858561169c565b95602085013595506040909401359392505050565b600060208284031215611785578081fd5b5035919050565b6000806040838503121561179e578182fd5b82359150602083013573ffffffffffffffffffffffffffffffffffffffff811681146117c8578182fd5b809150509250929050565b600080604083850312156117e5578182fd5b50508035926020909101359150565b60008060208385031215611806578182fd5b823567ffffffffffffffff81111561181c578283fd5b611828858286016116d0565b90969095509350505050565b600080600060408486031215611848578283fd5b833567ffffffffffffffff81111561185e578384fd5b61186a868287016116d0565b909790965060209590950135949350505050565b6000806000806000806000806000806000806101608d8f0312156118a0578788fd5b67ffffffffffffffff8d3511156118b5578788fd5b6118c28e8e358f016116d0565b909c509a5060208d013599506118db8e60408f0161169c565b985060608d013560ff811681146118f0578889fd5b975060808d0135965060a08d0135955060c08d0135945060e08d013593506101008d013592506119248e6101208f016116c0565b91506119348e6101408f016116c0565b90509295989b509295989b509295989b565b73ffffffffffffffffffffffffffffffffffffffff169052565b15159052565b60008151808452815b8181101561198b5760208185018101518683018201520161196f565b8181111561199c5782602083870101525b50601f017fffffffffffffffffffffffffffffffffffffffffffffffffffffffffffffffe0169290920160200192915050565b60ff169052565b73ffffffffffffffffffffffffffffffffffffffff91909116815260200190565b6000602080830181845280855180835260408601915060408482028701019250838701855b82811015611a68577fffffffffffffffffffffffffffffffffffffffffffffffffffffffffffffffc0888603018452611a56858351611966565b94509285019290850190600101611a1c565b5092979650505050505050565b901515815260200190565b90815260200190565b6000602082526105ee6020830184611966565b60208082526022908201527f456e756d657261626c655365743a20696e646578206f7574206f6620626f756e60408201527f6473000000000000000000000000000000000000000000000000000000000000606082015260800190565b6020808252602f908201527f416363657373436f6e74726f6c3a2073656e646572206d75737420626520616e60408201527f2061646d696e20746f206772616e740000000000000000000000000000000000606082015260800190565b6020808252601a908201527f536166654d6174683a206469766973696f6e206279207a65726f000000000000604082015260600190565b60208082526030908201527f416363657373436f6e74726f6c3a2073656e646572206d75737420626520616e60408201527f2061646d696e20746f207265766f6b6500000000000000000000000000000000606082015260800190565b60208082526021908201527f536166654d6174683a206d756c7469706c69636174696f6e206f766572666c6f60408201527f7700000000000000000000000000000000000000000000000000000000000000606082015260800190565b6020808252602f908201527f416363657373436f6e74726f6c3a2063616e206f6e6c792072656e6f756e636560408201527f20726f6c657320666f722073656c660000000000000000000000000000000000606082015260800190565b81518152602080830151610140830191611cc090840182611946565b506040830151611cd360408401826119cf565b50606083015160608301526080830151608083015260a083015160a083015260c083015160c083015260e083015160e083015261010080840151611d1982850182611960565b505061012080840151611d2e82850182611960565b50509291505056fea2646970667358221220d04f3bde3732e51f164a90e571ede79e469aae645de63cf0d8e129a4edbb553e64736f6c634300060c0033",
  "devdoc": {
    "kind": "dev",
    "methods": {
      "calculateSwapFee(address,uint256,uint256)": {
        "details": "This means the fee should be calculated based on the chain that the nodes emit a tx on",
        "params": {
          "amount": "in native token decimals",
          "chainID": "destination chain ID to query the token config for",
          "tokenAddress": "address of the destination token to query token config for"
        },
        "returns": {
          "_0": "Fee calculated in token decimals"
        }
      },
      "getRoleAdmin(bytes32)": {
        "details": "Returns the admin role that controls `role`. See {grantRole} and {revokeRole}. To change a role's admin, use {_setRoleAdmin}."
      },
      "getRoleMember(bytes32,uint256)": {
        "details": "Returns one of the accounts that have `role`. `index` must be a value between 0 and {getRoleMemberCount}, non-inclusive. Role bearers are not sorted in any particular way, and their ordering may change at any point. WARNING: When using {getRoleMember} and {getRoleMemberCount}, make sure you perform all queries on the same block. See the following https://forum.openzeppelin.com/t/iterating-over-elements-on-enumerableset-in-openzeppelin-contracts/2296[forum post] for more information."
      },
      "getRoleMemberCount(bytes32)": {
        "details": "Returns the number of accounts that have `role`. Can be used together with {getRoleMember} to enumerate all bearers of a role."
      },
      "getToken(address,uint256)": {
        "params": {
          "chainID": "Chain ID of which token to get config for",
          "tokenAddress": "Matches the token ID by using a combo of address + chain ID"
        }
      },
      "getToken(string,uint256)": {
        "params": {
          "chainID": "Chain ID of which token address + config to get",
          "tokenID": "String input of the token ID for the token"
        }
      },
      "getTokenID(address,uint256)": {
        "params": {
          "chainID": "chainID of which to get token ID for",
          "tokenAddress": "address of token to get ID for"
        }
      },
      "getUnderlyingToken(string)": {
        "params": {
          "tokenID": "string token ID"
        }
      },
      "grantRole(bytes32,address)": {
        "details": "Grants `role` to `account`. If `account` had not been already granted `role`, emits a {RoleGranted} event. Requirements: - the caller must have ``role``'s admin role."
      },
      "hasRole(bytes32,address)": {
        "details": "Returns `true` if `account` has been granted `role`."
      },
      "hasUnderlyingToken(string)": {
        "params": {
          "tokenID": "String to check if it is a withdraw/underlying token"
        }
      },
      "renounceRole(bytes32,address)": {
        "details": "Revokes `role` from the calling account. Roles are often managed via {grantRole} and {revokeRole}: this function's purpose is to provide a mechanism for accounts to lose their privileges if they are compromised (such as when a trusted device is misplaced). If the calling account had been granted `role`, emits a {RoleRevoked} event. Requirements: - the caller must be `account`."
      },
      "revokeRole(bytes32,address)": {
        "details": "Revokes `role` from `account`. If `account` had been granted `role`, emits a {RoleRevoked} event. Requirements: - the caller must have ``role``'s admin role."
      },
      "setTokenConfig(string,uint256,address,uint8,uint256,uint256,uint256,uint256,uint256,bool,bool)": {
        "params": {
          "chainID": "chain ID to use for the token config object",
          "hasUnderlying": "bool which represents whether this is a global mint token or one to withdraw()",
          "isUnderlying": "bool which represents if this token is the one to withdraw on the given chain",
          "maxSwap": "maximum amount of token allowed to be transferred at once - in native token decimals",
          "maxSwapFee": "max swap fee to be charged - in native token decimals",
          "minSwap": "minimum amount of token needed to be transferred at once - in native token decimals",
          "minSwapFee": "min swap fee to be charged - in native token decimals - especially useful for mainnet ETH",
          "swapFee": "percent based swap fee -- 10e6 == 10bps",
          "tokenAddress": "token address of the token on the given chain",
          "tokenDecimals": "decimals of token ",
          "tokenID": "string ID to set the token config object form"
        }
      }
    },
    "title": "BridgeConfig contract",
    "version": 1
  },
  "userdoc": {
    "kind": "user",
    "methods": {
      "calculateSwapFee(address,uint256,uint256)": {
        "notice": "Calculates bridge swap fee based on the destination chain's token transfer."
      },
      "getAllTokenIDs()": {
        "notice": "Returns a list of all existing token IDs converted to strings"
      },
      "getToken(address,uint256)": {
        "notice": "Returns token config struct, given an address and chainID"
      },
      "getToken(string,uint256)": {
        "notice": "Returns the full token config struct "
      },
      "getTokenID(address,uint256)": {
        "notice": "Returns the token ID (string) of the cross-chain token inputted"
      },
      "getUnderlyingToken(string)": {
        "notice": "Returns which token is the underlying token to withdraw"
      },
      "hasUnderlyingToken(string)": {
        "notice": "Returns true if the token has an underlying token -- meaning the token is deposited into the bridge"
      },
      "isTokenIDExist(string)": {
        "notice": "Public function returning if token ID exists given a string"
      },
      "setTokenConfig(string,uint256,address,uint8,uint256,uint256,uint256,uint256,uint256,bool,bool)": {
        "notice": "Main write function of this contract - Handles creating the struct and passing it to the internal logic function"
      }
    },
    "notice": "This token is used for configuring different tokens on the bridge and mapping them across chains.*",
    "version": 1
  },
  "storageLayout": {
    "storage": [
      {
        "astId": 2760,
        "contract": "contracts/synapse/BridgeConfig.sol:BridgeConfig",
        "label": "_roles",
        "offset": 0,
        "slot": "0",
        "type": "t_mapping(t_bytes32,t_struct(RoleData)2756_storage)"
      },
      {
        "astId": 5785,
        "contract": "contracts/synapse/BridgeConfig.sol:BridgeConfig",
        "label": "_allTokenIDs",
        "offset": 0,
        "slot": "1",
        "type": "t_array(t_bytes32)dyn_storage"
      },
      {
        "astId": 5790,
        "contract": "contracts/synapse/BridgeConfig.sol:BridgeConfig",
        "label": "_allTokens",
        "offset": 0,
        "slot": "2",
        "type": "t_mapping(t_bytes32,t_array(t_struct(Token)5828_storage)dyn_storage)"
      },
      {
        "astId": 5796,
        "contract": "contracts/synapse/BridgeConfig.sol:BridgeConfig",
        "label": "_tokenIDMap",
        "offset": 0,
        "slot": "3",
        "type": "t_mapping(t_uint256,t_mapping(t_address,t_bytes32))"
      },
      {
        "astId": 5802,
        "contract": "contracts/synapse/BridgeConfig.sol:BridgeConfig",
        "label": "_tokens",
        "offset": 0,
        "slot": "4",
        "type": "t_mapping(t_bytes32,t_mapping(t_uint256,t_struct(Token)5828_storage))"
      }
    ],
    "types": {
      "t_address": {
        "encoding": "inplace",
        "label": "address",
        "numberOfBytes": "20"
      },
      "t_array(t_bytes32)dyn_storage": {
        "base": "t_bytes32",
        "encoding": "dynamic_array",
        "label": "bytes32[]",
        "numberOfBytes": "32"
      },
      "t_array(t_struct(Token)5828_storage)dyn_storage": {
        "base": "t_struct(Token)5828_storage",
        "encoding": "dynamic_array",
        "label": "struct BridgeConfig.Token[]",
        "numberOfBytes": "32"
      },
      "t_bool": {
        "encoding": "inplace",
        "label": "bool",
        "numberOfBytes": "1"
      },
      "t_bytes32": {
        "encoding": "inplace",
        "label": "bytes32",
        "numberOfBytes": "32"
      },
      "t_mapping(t_address,t_bytes32)": {
        "encoding": "mapping",
        "key": "t_address",
        "label": "mapping(address => bytes32)",
        "numberOfBytes": "32",
        "value": "t_bytes32"
      },
      "t_mapping(t_bytes32,t_array(t_struct(Token)5828_storage)dyn_storage)": {
        "encoding": "mapping",
        "key": "t_bytes32",
        "label": "mapping(bytes32 => struct BridgeConfig.Token[])",
        "numberOfBytes": "32",
        "value": "t_array(t_struct(Token)5828_storage)dyn_storage"
      },
      "t_mapping(t_bytes32,t_mapping(t_uint256,t_struct(Token)5828_storage))": {
        "encoding": "mapping",
        "key": "t_bytes32",
        "label": "mapping(bytes32 => mapping(uint256 => struct BridgeConfig.Token))",
        "numberOfBytes": "32",
        "value": "t_mapping(t_uint256,t_struct(Token)5828_storage)"
      },
      "t_mapping(t_bytes32,t_struct(RoleData)2756_storage)": {
        "encoding": "mapping",
        "key": "t_bytes32",
        "label": "mapping(bytes32 => struct AccessControl.RoleData)",
        "numberOfBytes": "32",
        "value": "t_struct(RoleData)2756_storage"
      },
      "t_mapping(t_bytes32,t_uint256)": {
        "encoding": "mapping",
        "key": "t_bytes32",
        "label": "mapping(bytes32 => uint256)",
        "numberOfBytes": "32",
        "value": "t_uint256"
      },
      "t_mapping(t_uint256,t_mapping(t_address,t_bytes32))": {
        "encoding": "mapping",
        "key": "t_uint256",
        "label": "mapping(uint256 => mapping(address => bytes32))",
        "numberOfBytes": "32",
        "value": "t_mapping(t_address,t_bytes32)"
      },
      "t_mapping(t_uint256,t_struct(Token)5828_storage)": {
        "encoding": "mapping",
        "key": "t_uint256",
        "label": "mapping(uint256 => struct BridgeConfig.Token)",
        "numberOfBytes": "32",
        "value": "t_struct(Token)5828_storage"
      },
      "t_struct(AddressSet)5510_storage": {
        "encoding": "inplace",
        "label": "struct EnumerableSet.AddressSet",
        "members": [
          {
            "astId": 5509,
            "contract": "contracts/synapse/BridgeConfig.sol:BridgeConfig",
            "label": "_inner",
            "offset": 0,
            "slot": "0",
            "type": "t_struct(Set)5245_storage"
          }
        ],
        "numberOfBytes": "64"
      },
      "t_struct(RoleData)2756_storage": {
        "encoding": "inplace",
        "label": "struct AccessControl.RoleData",
        "members": [
          {
            "astId": 2753,
            "contract": "contracts/synapse/BridgeConfig.sol:BridgeConfig",
            "label": "members",
            "offset": 0,
            "slot": "0",
            "type": "t_struct(AddressSet)5510_storage"
          },
          {
            "astId": 2755,
            "contract": "contracts/synapse/BridgeConfig.sol:BridgeConfig",
            "label": "adminRole",
            "offset": 0,
            "slot": "2",
            "type": "t_bytes32"
          }
        ],
        "numberOfBytes": "96"
      },
      "t_struct(Set)5245_storage": {
        "encoding": "inplace",
        "label": "struct EnumerableSet.Set",
        "members": [
          {
            "astId": 5240,
            "contract": "contracts/synapse/BridgeConfig.sol:BridgeConfig",
            "label": "_values",
            "offset": 0,
            "slot": "0",
            "type": "t_array(t_bytes32)dyn_storage"
          },
          {
            "astId": 5244,
            "contract": "contracts/synapse/BridgeConfig.sol:BridgeConfig",
            "label": "_indexes",
            "offset": 0,
            "slot": "1",
            "type": "t_mapping(t_bytes32,t_uint256)"
          }
        ],
        "numberOfBytes": "64"
      },
      "t_struct(Token)5828_storage": {
        "encoding": "inplace",
        "label": "struct BridgeConfig.Token",
        "members": [
          {
            "astId": 5809,
            "contract": "contracts/synapse/BridgeConfig.sol:BridgeConfig",
            "label": "chainId",
            "offset": 0,
            "slot": "0",
            "type": "t_uint256"
          },
          {
            "astId": 5811,
            "contract": "contracts/synapse/BridgeConfig.sol:BridgeConfig",
            "label": "tokenAddress",
            "offset": 0,
            "slot": "1",
            "type": "t_address"
          },
          {
            "astId": 5813,
            "contract": "contracts/synapse/BridgeConfig.sol:BridgeConfig",
            "label": "tokenDecimals",
            "offset": 20,
            "slot": "1",
            "type": "t_uint8"
          },
          {
            "astId": 5815,
            "contract": "contracts/synapse/BridgeConfig.sol:BridgeConfig",
            "label": "maxSwap",
            "offset": 0,
            "slot": "2",
            "type": "t_uint256"
          },
          {
            "astId": 5817,
            "contract": "contracts/synapse/BridgeConfig.sol:BridgeConfig",
            "label": "minSwap",
            "offset": 0,
            "slot": "3",
            "type": "t_uint256"
          },
          {
            "astId": 5819,
            "contract": "contracts/synapse/BridgeConfig.sol:BridgeConfig",
            "label": "swapFee",
            "offset": 0,
            "slot": "4",
            "type": "t_uint256"
          },
          {
            "astId": 5821,
            "contract": "contracts/synapse/BridgeConfig.sol:BridgeConfig",
            "label": "maxSwapFee",
            "offset": 0,
            "slot": "5",
            "type": "t_uint256"
          },
          {
            "astId": 5823,
            "contract": "contracts/synapse/BridgeConfig.sol:BridgeConfig",
            "label": "minSwapFee",
            "offset": 0,
            "slot": "6",
            "type": "t_uint256"
          },
          {
            "astId": 5825,
            "contract": "contracts/synapse/BridgeConfig.sol:BridgeConfig",
            "label": "hasUnderlying",
            "offset": 0,
            "slot": "7",
            "type": "t_bool"
          },
          {
            "astId": 5827,
            "contract": "contracts/synapse/BridgeConfig.sol:BridgeConfig",
            "label": "isUnderlying",
            "offset": 1,
            "slot": "7",
            "type": "t_bool"
          }
        ],
        "numberOfBytes": "256"
      },
      "t_uint256": {
        "encoding": "inplace",
        "label": "uint256",
        "numberOfBytes": "32"
      },
      "t_uint8": {
        "encoding": "inplace",
        "label": "uint8",
        "numberOfBytes": "1"
      }
    }
  }
}