{
  "address": "0x1622B32113bd2dFE1d92B30dA7FB68b7E5FA81b2",
  "abi": [
    {
      "anonymous": false,
      "inputs": [
        {
          "indexed": false,
          "internalType": "address",
          "name": "account",
          "type": "address"
        }
      ],
      "name": "Paused",
      "type": "event"
    },
    {
      "anonymous": false,
      "inputs": [
        {
          "indexed": true,
          "internalType": "bytes32",
          "name": "role",
          "type": "bytes32"
        },
        {
          "indexed": true,
          "internalType": "bytes32",
          "name": "previousAdminRole",
          "type": "bytes32"
        },
        {
          "indexed": true,
          "internalType": "bytes32",
          "name": "newAdminRole",
          "type": "bytes32"
        }
      ],
      "name": "RoleAdminChanged",
      "type": "event"
    },
    {
      "anonymous": false,
      "inputs": [
        {
          "indexed": true,
          "internalType": "bytes32",
          "name": "role",
          "type": "bytes32"
        },
        {
          "indexed": true,
          "internalType": "address",
          "name": "account",
          "type": "address"
        },
        {
          "indexed": true,
          "internalType": "address",
          "name": "sender",
          "type": "address"
        }
      ],
      "name": "RoleGranted",
      "type": "event"
    },
    {
      "anonymous": false,
      "inputs": [
        {
          "indexed": true,
          "internalType": "bytes32",
          "name": "role",
          "type": "bytes32"
        },
        {
          "indexed": true,
          "internalType": "address",
          "name": "account",
          "type": "address"
        },
        {
          "indexed": true,
          "internalType": "address",
          "name": "sender",
          "type": "address"
        }
      ],
      "name": "RoleRevoked",
      "type": "event"
    },
    {
      "anonymous": false,
      "inputs": [
        {
          "indexed": true,
          "internalType": "address",
          "name": "to",
          "type": "address"
        },
        {
          "indexed": false,
          "internalType": "uint256",
          "name": "chainId",
          "type": "uint256"
        },
        {
          "indexed": false,
          "internalType": "contract IERC20",
          "name": "token",
          "type": "address"
        },
        {
          "indexed": false,
          "internalType": "uint256",
          "name": "amount",
          "type": "uint256"
        }
      ],
      "name": "TokenDeposit",
      "type": "event"
    },
    {
      "anonymous": false,
      "inputs": [
        {
          "indexed": true,
          "internalType": "address",
          "name": "to",
          "type": "address"
        },
        {
          "indexed": false,
          "internalType": "uint256",
          "name": "chainId",
          "type": "uint256"
        },
        {
          "indexed": false,
          "internalType": "contract IERC20",
          "name": "token",
          "type": "address"
        },
        {
          "indexed": false,
          "internalType": "uint256",
          "name": "amount",
          "type": "uint256"
        },
        {
          "indexed": false,
          "internalType": "uint8",
          "name": "tokenIndexFrom",
          "type": "uint8"
        },
        {
          "indexed": false,
          "internalType": "uint8",
          "name": "tokenIndexTo",
          "type": "uint8"
        },
        {
          "indexed": false,
          "internalType": "uint256",
          "name": "minDy",
          "type": "uint256"
        },
        {
          "indexed": false,
          "internalType": "uint256",
          "name": "deadline",
          "type": "uint256"
        }
      ],
      "name": "TokenDepositAndSwap",
      "type": "event"
    },
    {
      "anonymous": false,
      "inputs": [
        {
          "indexed": true,
          "internalType": "address",
          "name": "to",
          "type": "address"
        },
        {
          "indexed": false,
          "internalType": "contract IERC20Mintable",
          "name": "token",
          "type": "address"
        },
        {
          "indexed": false,
          "internalType": "uint256",
          "name": "amount",
          "type": "uint256"
        },
        {
          "indexed": false,
          "internalType": "uint256",
          "name": "fee",
          "type": "uint256"
        },
        {
          "indexed": false,
          "internalType": "bytes32",
          "name": "kappa",
          "type": "bytes32"
        }
      ],
      "name": "TokenMint",
      "type": "event"
    },
    {
      "anonymous": false,
      "inputs": [
        {
          "indexed": true,
          "internalType": "address",
          "name": "to",
          "type": "address"
        },
        {
          "indexed": false,
          "internalType": "contract IERC20Mintable",
          "name": "token",
          "type": "address"
        },
        {
          "indexed": false,
          "internalType": "uint256",
          "name": "amount",
          "type": "uint256"
        },
        {
          "indexed": false,
          "internalType": "uint256",
          "name": "fee",
          "type": "uint256"
        },
        {
          "indexed": false,
          "internalType": "uint8",
          "name": "tokenIndexFrom",
          "type": "uint8"
        },
        {
          "indexed": false,
          "internalType": "uint8",
          "name": "tokenIndexTo",
          "type": "uint8"
        },
        {
          "indexed": false,
          "internalType": "uint256",
          "name": "minDy",
          "type": "uint256"
        },
        {
          "indexed": false,
          "internalType": "uint256",
          "name": "deadline",
          "type": "uint256"
        },
        {
          "indexed": false,
          "internalType": "bool",
          "name": "swapSuccess",
          "type": "bool"
        },
        {
          "indexed": false,
          "internalType": "bytes32",
          "name": "kappa",
          "type": "bytes32"
        }
      ],
      "name": "TokenMintAndSwap",
      "type": "event"
    },
    {
      "anonymous": false,
      "inputs": [
        {
          "indexed": true,
          "internalType": "address",
          "name": "to",
          "type": "address"
        },
        {
          "indexed": false,
          "internalType": "uint256",
          "name": "chainId",
          "type": "uint256"
        },
        {
          "indexed": false,
          "internalType": "contract IERC20",
          "name": "token",
          "type": "address"
        },
        {
          "indexed": false,
          "internalType": "uint256",
          "name": "amount",
          "type": "uint256"
        }
      ],
      "name": "TokenRedeem",
      "type": "event"
    },
    {
      "anonymous": false,
      "inputs": [
        {
          "indexed": true,
          "internalType": "address",
          "name": "to",
          "type": "address"
        },
        {
          "indexed": false,
          "internalType": "uint256",
          "name": "chainId",
          "type": "uint256"
        },
        {
          "indexed": false,
          "internalType": "contract IERC20",
          "name": "token",
          "type": "address"
        },
        {
          "indexed": false,
          "internalType": "uint256",
          "name": "amount",
          "type": "uint256"
        },
        {
          "indexed": false,
          "internalType": "uint256",
          "name": "swapTokenAmount",
          "type": "uint256"
        },
        {
          "indexed": false,
          "internalType": "uint8",
          "name": "swapTokenIndex",
          "type": "uint8"
        },
        {
          "indexed": false,
          "internalType": "uint256",
          "name": "swapMinAmount",
          "type": "uint256"
        },
        {
          "indexed": false,
          "internalType": "uint256",
          "name": "swapDeadline",
          "type": "uint256"
        }
      ],
      "name": "TokenRedeemAndRemove",
      "type": "event"
    },
    {
      "anonymous": false,
      "inputs": [
        {
          "indexed": true,
          "internalType": "address",
          "name": "to",
          "type": "address"
        },
        {
          "indexed": false,
          "internalType": "uint256",
          "name": "chainId",
          "type": "uint256"
        },
        {
          "indexed": false,
          "internalType": "contract IERC20",
          "name": "token",
          "type": "address"
        },
        {
          "indexed": false,
          "internalType": "uint256",
          "name": "amount",
          "type": "uint256"
        },
        {
          "indexed": false,
          "internalType": "uint8",
          "name": "tokenIndexFrom",
          "type": "uint8"
        },
        {
          "indexed": false,
          "internalType": "uint8",
          "name": "tokenIndexTo",
          "type": "uint8"
        },
        {
          "indexed": false,
          "internalType": "uint256",
          "name": "minDy",
          "type": "uint256"
        },
        {
          "indexed": false,
          "internalType": "uint256",
          "name": "deadline",
          "type": "uint256"
        }
      ],
      "name": "TokenRedeemAndSwap",
      "type": "event"
    },
    {
      "anonymous": false,
      "inputs": [
        {
          "indexed": true,
          "internalType": "address",
          "name": "to",
          "type": "address"
        },
        {
          "indexed": false,
          "internalType": "contract IERC20",
          "name": "token",
          "type": "address"
        },
        {
          "indexed": false,
          "internalType": "uint256",
          "name": "amount",
          "type": "uint256"
        },
        {
          "indexed": false,
          "internalType": "uint256",
          "name": "fee",
          "type": "uint256"
        },
        {
          "indexed": false,
          "internalType": "bytes32",
          "name": "kappa",
          "type": "bytes32"
        }
      ],
      "name": "TokenWithdraw",
      "type": "event"
    },
    {
      "anonymous": false,
      "inputs": [
        {
          "indexed": true,
          "internalType": "address",
          "name": "to",
          "type": "address"
        },
        {
          "indexed": false,
          "internalType": "contract IERC20",
          "name": "token",
          "type": "address"
        },
        {
          "indexed": false,
          "internalType": "uint256",
          "name": "amount",
          "type": "uint256"
        },
        {
          "indexed": false,
          "internalType": "uint256",
          "name": "fee",
          "type": "uint256"
        },
        {
          "indexed": false,
          "internalType": "uint256",
          "name": "swapTokenAmount",
          "type": "uint256"
        },
        {
          "indexed": false,
          "internalType": "uint8",
          "name": "swapTokenIndex",
          "type": "uint8"
        },
        {
          "indexed": false,
          "internalType": "uint256",
          "name": "swapMinAmount",
          "type": "uint256"
        },
        {
          "indexed": false,
          "internalType": "uint256",
          "name": "swapDeadline",
          "type": "uint256"
        },
        {
          "indexed": false,
          "internalType": "bool",
          "name": "swapSuccess",
          "type": "bool"
        },
        {
          "indexed": false,
          "internalType": "bytes32",
          "name": "kappa",
          "type": "bytes32"
        }
      ],
      "name": "TokenWithdrawAndRemove",
      "type": "event"
    },
    {
      "anonymous": false,
      "inputs": [
        {
          "indexed": false,
          "internalType": "address",
          "name": "account",
          "type": "address"
        }
      ],
      "name": "Unpaused",
      "type": "event"
    },
    {
      "inputs": [],
      "name": "DEFAULT_ADMIN_ROLE",
      "outputs": [
        {
          "internalType": "bytes32",
          "name": "",
          "type": "bytes32"
        }
      ],
      "stateMutability": "view",
      "type": "function"
    },
    {
      "inputs": [],
      "name": "NODEGROUP_ROLE",
      "outputs": [
        {
          "internalType": "bytes32",
          "name": "",
          "type": "bytes32"
        }
      ],
      "stateMutability": "view",
      "type": "function"
    },
    {
      "inputs": [
        {
          "internalType": "address",
          "name": "to",
          "type": "address"
        },
        {
          "internalType": "uint256",
          "name": "chainId",
          "type": "uint256"
        },
        {
          "internalType": "contract IERC20",
          "name": "token",
          "type": "address"
        },
        {
          "internalType": "uint256",
          "name": "amount",
          "type": "uint256"
        }
      ],
      "name": "deposit",
      "outputs": [],
      "stateMutability": "nonpayable",
      "type": "function"
    },
    {
      "inputs": [
        {
          "internalType": "address",
          "name": "to",
          "type": "address"
        },
        {
          "internalType": "uint256",
          "name": "chainId",
          "type": "uint256"
        },
        {
          "internalType": "contract IERC20",
          "name": "token",
          "type": "address"
        },
        {
          "internalType": "uint256",
          "name": "amount",
          "type": "uint256"
        },
        {
          "internalType": "uint8",
          "name": "tokenIndexFrom",
          "type": "uint8"
        },
        {
          "internalType": "uint8",
          "name": "tokenIndexTo",
          "type": "uint8"
        },
        {
          "internalType": "uint256",
          "name": "minDy",
          "type": "uint256"
        },
        {
          "internalType": "uint256",
          "name": "deadline",
          "type": "uint256"
        }
      ],
      "name": "depositAndSwap",
      "outputs": [],
      "stateMutability": "nonpayable",
      "type": "function"
    },
    {
      "inputs": [
        {
          "internalType": "address",
          "name": "tokenAddress",
          "type": "address"
        }
      ],
      "name": "getFeeBalance",
      "outputs": [
        {
          "internalType": "uint256",
          "name": "",
          "type": "uint256"
        }
      ],
      "stateMutability": "view",
      "type": "function"
    },
    {
      "inputs": [
        {
          "internalType": "bytes32",
          "name": "role",
          "type": "bytes32"
        }
      ],
      "name": "getRoleAdmin",
      "outputs": [
        {
          "internalType": "bytes32",
          "name": "",
          "type": "bytes32"
        }
      ],
      "stateMutability": "view",
      "type": "function"
    },
    {
      "inputs": [
        {
          "internalType": "bytes32",
          "name": "role",
          "type": "bytes32"
        },
        {
          "internalType": "uint256",
          "name": "index",
          "type": "uint256"
        }
      ],
      "name": "getRoleMember",
      "outputs": [
        {
          "internalType": "address",
          "name": "",
          "type": "address"
        }
      ],
      "stateMutability": "view",
      "type": "function"
    },
    {
      "inputs": [
        {
          "internalType": "bytes32",
          "name": "role",
          "type": "bytes32"
        }
      ],
      "name": "getRoleMemberCount",
      "outputs": [
        {
          "internalType": "uint256",
          "name": "",
          "type": "uint256"
        }
      ],
      "stateMutability": "view",
      "type": "function"
    },
    {
      "inputs": [
        {
          "internalType": "bytes32",
          "name": "role",
          "type": "bytes32"
        },
        {
          "internalType": "address",
          "name": "account",
          "type": "address"
        }
      ],
      "name": "grantRole",
      "outputs": [],
      "stateMutability": "nonpayable",
      "type": "function"
    },
    {
      "inputs": [
        {
          "internalType": "bytes32",
          "name": "role",
          "type": "bytes32"
        },
        {
          "internalType": "address",
          "name": "account",
          "type": "address"
        }
      ],
      "name": "hasRole",
      "outputs": [
        {
          "internalType": "bool",
          "name": "",
          "type": "bool"
        }
      ],
      "stateMutability": "view",
      "type": "function"
    },
    {
      "inputs": [],
      "name": "initialize",
      "outputs": [],
      "stateMutability": "nonpayable",
      "type": "function"
    },
    {
      "inputs": [
        {
          "internalType": "address",
          "name": "to",
          "type": "address"
        },
        {
          "internalType": "contract IERC20Mintable",
          "name": "token",
          "type": "address"
        },
        {
          "internalType": "uint256",
          "name": "amount",
          "type": "uint256"
        },
        {
          "internalType": "uint256",
          "name": "fee",
          "type": "uint256"
        },
        {
          "internalType": "bytes32",
          "name": "kappa",
          "type": "bytes32"
        }
      ],
      "name": "mint",
      "outputs": [],
      "stateMutability": "nonpayable",
      "type": "function"
    },
    {
      "inputs": [
        {
          "internalType": "address",
          "name": "to",
          "type": "address"
        },
        {
          "internalType": "contract IERC20Mintable",
          "name": "token",
          "type": "address"
        },
        {
          "internalType": "uint256",
          "name": "amount",
          "type": "uint256"
        },
        {
          "internalType": "uint256",
          "name": "fee",
          "type": "uint256"
        },
        {
          "internalType": "contract IMetaSwapDeposit",
          "name": "pool",
          "type": "address"
        },
        {
          "internalType": "uint8",
          "name": "tokenIndexFrom",
          "type": "uint8"
        },
        {
          "internalType": "uint8",
          "name": "tokenIndexTo",
          "type": "uint8"
        },
        {
          "internalType": "uint256",
          "name": "minDy",
          "type": "uint256"
        },
        {
          "internalType": "uint256",
          "name": "deadline",
          "type": "uint256"
        },
        {
          "internalType": "bytes32",
          "name": "kappa",
          "type": "bytes32"
        }
      ],
      "name": "mintAndSwap",
      "outputs": [],
      "stateMutability": "nonpayable",
      "type": "function"
    },
    {
      "inputs": [],
      "name": "paused",
      "outputs": [
        {
          "internalType": "bool",
          "name": "",
          "type": "bool"
        }
      ],
      "stateMutability": "view",
      "type": "function"
    },
    {
      "inputs": [
        {
          "internalType": "address",
          "name": "to",
          "type": "address"
        },
        {
          "internalType": "uint256",
          "name": "chainId",
          "type": "uint256"
        },
        {
          "internalType": "contract ERC20Burnable",
          "name": "token",
          "type": "address"
        },
        {
          "internalType": "uint256",
          "name": "amount",
          "type": "uint256"
        }
      ],
      "name": "redeem",
      "outputs": [],
      "stateMutability": "nonpayable",
      "type": "function"
    },
    {
      "inputs": [
        {
          "internalType": "address",
          "name": "to",
          "type": "address"
        },
        {
          "internalType": "uint256",
          "name": "chainId",
          "type": "uint256"
        },
        {
          "internalType": "contract ERC20Burnable",
          "name": "token",
          "type": "address"
        },
        {
          "internalType": "uint256",
          "name": "amount",
          "type": "uint256"
        },
        {
          "internalType": "uint256",
          "name": "swapTokenAmount",
          "type": "uint256"
        },
        {
          "internalType": "uint8",
          "name": "swapTokenIndex",
          "type": "uint8"
        },
        {
          "internalType": "uint256",
          "name": "swapMinAmount",
          "type": "uint256"
        },
        {
          "internalType": "uint256",
          "name": "swapDeadline",
          "type": "uint256"
        }
      ],
      "name": "redeemAndRemove",
      "outputs": [],
      "stateMutability": "nonpayable",
      "type": "function"
    },
    {
      "inputs": [
        {
          "internalType": "address",
          "name": "to",
          "type": "address"
        },
        {
          "internalType": "uint256",
          "name": "chainId",
          "type": "uint256"
        },
        {
          "internalType": "contract ERC20Burnable",
          "name": "token",
          "type": "address"
        },
        {
          "internalType": "uint256",
          "name": "amount",
          "type": "uint256"
        },
        {
          "internalType": "uint8",
          "name": "tokenIndexFrom",
          "type": "uint8"
        },
        {
          "internalType": "uint8",
          "name": "tokenIndexTo",
          "type": "uint8"
        },
        {
          "internalType": "uint256",
          "name": "minDy",
          "type": "uint256"
        },
        {
          "internalType": "uint256",
          "name": "deadline",
          "type": "uint256"
        }
      ],
      "name": "redeemAndSwap",
      "outputs": [],
      "stateMutability": "nonpayable",
      "type": "function"
    },
    {
      "inputs": [
        {
          "internalType": "bytes32",
          "name": "role",
          "type": "bytes32"
        },
        {
          "internalType": "address",
          "name": "account",
          "type": "address"
        }
      ],
      "name": "renounceRole",
      "outputs": [],
      "stateMutability": "nonpayable",
      "type": "function"
    },
    {
      "inputs": [
        {
          "internalType": "bytes32",
          "name": "role",
          "type": "bytes32"
        },
        {
          "internalType": "address",
          "name": "account",
          "type": "address"
        }
      ],
      "name": "revokeRole",
      "outputs": [],
      "stateMutability": "nonpayable",
      "type": "function"
    },
    {
      "inputs": [],
      "name": "startBlockNumber",
      "outputs": [
        {
          "internalType": "uint256",
          "name": "",
          "type": "uint256"
        }
      ],
      "stateMutability": "view",
      "type": "function"
    },
    {
      "inputs": [
        {
          "internalType": "address",
          "name": "to",
          "type": "address"
        },
        {
          "internalType": "contract IERC20",
          "name": "token",
          "type": "address"
        },
        {
          "internalType": "uint256",
          "name": "amount",
          "type": "uint256"
        },
        {
          "internalType": "uint256",
          "name": "fee",
          "type": "uint256"
        },
        {
          "internalType": "bytes32",
          "name": "kappa",
          "type": "bytes32"
        }
      ],
      "name": "withdraw",
      "outputs": [],
      "stateMutability": "nonpayable",
      "type": "function"
    },
    {
      "inputs": [
        {
          "internalType": "address",
          "name": "to",
          "type": "address"
        },
        {
          "internalType": "contract IERC20",
          "name": "token",
          "type": "address"
        },
        {
          "internalType": "uint256",
          "name": "amount",
          "type": "uint256"
        },
        {
          "internalType": "uint256",
          "name": "fee",
          "type": "uint256"
        },
        {
          "internalType": "contract ISwap",
          "name": "pool",
          "type": "address"
        },
        {
          "internalType": "uint256",
          "name": "swapTokenAmount",
          "type": "uint256"
        },
        {
          "internalType": "uint8",
          "name": "swapTokenIndex",
          "type": "uint8"
        },
        {
          "internalType": "uint256",
          "name": "swapMinAmount",
          "type": "uint256"
        },
        {
          "internalType": "uint256",
          "name": "swapDeadline",
          "type": "uint256"
        },
        {
          "internalType": "bytes32",
          "name": "kappa",
          "type": "bytes32"
        }
      ],
      "name": "withdrawAndRemove",
      "outputs": [],
      "stateMutability": "nonpayable",
      "type": "function"
    },
    {
      "inputs": [
        {
          "internalType": "contract IERC20",
          "name": "token",
          "type": "address"
        },
        {
          "internalType": "address",
          "name": "to",
          "type": "address"
        }
      ],
      "name": "withdrawFees",
      "outputs": [],
      "stateMutability": "nonpayable",
      "type": "function"
    }
  ],
  "transactionHash": "0x7ddd8cd50388d8fc7458f978c0159fc0787191edcd6cdb1824716d826d0a9e9d",
  "args": [],
  "solcInputHash": "a7f6ae749ea8fae51a76e8abd5ee052b",
  "bytecode": "0x608060405234801561001057600080fd5b50612ebe806100206000396000f3fe608060405234801561001057600080fd5b506004361061018d5760003560e01c80639010d07c116100e3578063ca15c8731161008c578063f255527811610066578063f2555278146105c1578063f3befd01146105ef578063f3f094a1146105f75761018d565b8063ca15c87314610512578063cc5ce6081461052f578063d547741f146105955761018d565b8063a217fddf116100bd578063a217fddf1461048a578063a2a2af0b14610492578063c78f6803146104ec5761018d565b80639010d07c146103e557806390d250741461042457806391d148541461045e5761018d565b806336568abe1161014557806374786f3f1161011f57806374786f3f1461032d5780638129fc1c14610383578063839ed90a1461038b5761018d565b806336568abe146102dd578063498a4c2d146103095780635c975abb146103115761018d565b806320d7b3271161017657806320d7b32714610240578063248a9ca3146102825780632f2ff15d146102b15761018d565b806317357892146101925780631cf5f07f146101fe575b600080fd5b6101fc60048036036101408110156101a957600080fd5b506001600160a01b03813581169160208101358216916040820135916060810135916080820135169060ff60a082013581169160c08101359091169060e081013590610100810135906101200135610631565b005b6101fc600480360360a081101561021457600080fd5b506001600160a01b03813581169160208101359091169060408101359060608101359060800135610d04565b6101fc600480360360a081101561025657600080fd5b506001600160a01b03813581169160208101359091169060408101359060608101359060800135610f42565b61029f6004803603602081101561029857600080fd5b50356111eb565b60408051918252519081900360200190f35b6101fc600480360360408110156102c757600080fd5b50803590602001356001600160a01b0316611200565b6101fc600480360360408110156102f357600080fd5b50803590602001356001600160a01b031661126c565b61029f6112cd565b6103196112d3565b604080519115158252519081900360200190f35b6101fc600480360361010081101561034457600080fd5b506001600160a01b0381358116916020810135916040820135169060608101359060808101359060ff60a0820135169060c08101359060e001356112dc565b6101fc61148c565b6101fc60048036036101008110156103a257600080fd5b506001600160a01b0381358116916020810135916040820135169060608101359060ff608082013581169160a08101359091169060c08101359060e0013561159d565b610408600480360360408110156103fb57600080fd5b5080359060200135611727565b604080516001600160a01b039092168252519081900360200190f35b6101fc6004803603608081101561043a57600080fd5b506001600160a01b0381358116916020810135916040820135169060600135611748565b6103196004803603604081101561047457600080fd5b50803590602001356001600160a01b031661186c565b61029f611884565b6101fc60048036036101008110156104a957600080fd5b506001600160a01b0381358116916020810135916040820135169060608101359060ff608082013581169160a08101359091169060c08101359060e00135611889565b61029f6004803603602081101561050257600080fd5b50356001600160a01b03166119d0565b61029f6004803603602081101561052857600080fd5b50356119eb565b6101fc600480360361014081101561054657600080fd5b506001600160a01b03813581169160208101358216916040820135916060810135916080820135169060a08101359060ff60c0820135169060e081013590610100810135906101200135611a02565b6101fc600480360360408110156105ab57600080fd5b50803590602001356001600160a01b0316611f38565b6101fc600480360360408110156105d757600080fd5b506001600160a01b0381358116916020013516611f91565b61029f6120b8565b6101fc6004803603608081101561060d57600080fd5b506001600160a01b03813581169160208101359160408201351690606001356120dc565b60026065541415610689576040805162461bcd60e51b815260206004820152601f60248201527f5265656e7472616e637947756172643a207265656e7472616e742063616c6c00604482015290519081900360640190fd5b60026065556106966112d3565b156106e8576040805162461bcd60e51b815260206004820152601060248201527f5061757361626c653a2070617573656400000000000000000000000000000000604482015290519081900360640190fd5b6107127fb5c00e6706c3d213edd70ff33717fac657eacc5fe161f07180cf1fcab13cc4cd3361186c565b610763576040805162461bcd60e51b815260206004820152601a60248201527f43616c6c6572206973206e6f742061206e6f64652067726f7570000000000000604482015290519081900360640190fd5b8688116107b7576040805162461bcd60e51b815260206004820152601f60248201527f416d6f756e74206d7573742062652067726561746572207468616e2066656500604482015290519081900360640190fd5b6001600160a01b038916600090815260c960205260409020546107da908861225b565b6001600160a01b03808b16600090815260c96020526040812092909255871663a95b089f878761080a8d8d6122b5565b6040518463ffffffff1660e01b8152600401808460ff1681526020018360ff168152602001828152602001935050505060206040518083038186803b15801561085257600080fd5b505afa158015610866573d6000803e3d6000fd5b505050506040513d602081101561087c57600080fd5b50519050838110610bcd57604080517f40c10f19000000000000000000000000000000000000000000000000000000008152306004820152602481018b905290516001600160a01b038c16916340c10f1991604480830192600092919082900301818387803b1580156108ee57600080fd5b505af1158015610902573d6000803e3d6000fd5b50505050896001600160a01b031663095ea7b3888b6040518363ffffffff1660e01b815260040180836001600160a01b0316815260200182815260200192505050602060405180830381600087803b15801561095d57600080fd5b505af1158015610971573d6000803e3d6000fd5b505050506040513d602081101561098757600080fd5b50506001600160a01b038716639169558687876109a48d8d6122b5565b88886040518663ffffffff1660e01b8152600401808660ff1681526020018560ff16815260200184815260200183815260200182815260200195505050505050602060405180830381600087803b1580156109fe57600080fd5b505af1925050508015610a2357506040513d6020811015610a1e57600080fd5b505160015b610abd57610a3b6001600160a01b038b168c8b612312565b604080516001600160a01b038c81168252602082018c90528183018b905260ff808a1660608401528816608083015260a0820187905260c08201869052600060e083015261010082018590529151918d16917f4f56ec39e98539920503fd54ee56ae0cbebe9eb15aa778f18de67701eeae7c65918190036101200190a2610bc8565b6000886001600160a01b031663e4b50cb8886040518263ffffffff1660e01b8152600401808260ff16815260200191505060206040518083038186803b158015610b0657600080fd5b505afa158015610b1a573d6000803e3d6000fd5b505050506040513d6020811015610b3057600080fd5b50519050610b486001600160a01b0382168e84612312565b604080516001600160a01b038e81168252602082018e90528183018d905260ff808c1660608401528a16608083015260a0820189905260c08201889052600160e083015261010082018790529151918f16917f4f56ec39e98539920503fd54ee56ae0cbebe9eb15aa778f18de67701eeae7c65918190036101200190a250505b610cf2565b604080517f40c10f19000000000000000000000000000000000000000000000000000000008152306004820152602481018b905290516001600160a01b038c16916340c10f1991604480830192600092919082900301818387803b158015610c3457600080fd5b505af1158015610c48573d6000803e3d6000fd5b50505050610c748b610c638a8c6122b590919063ffffffff16565b6001600160a01b038d169190612312565b604080516001600160a01b038c81168252602082018c90528183018b905260ff808a1660608401528816608083015260a0820187905260c08201869052600060e083015261010082018590529151918d16917f4f56ec39e98539920503fd54ee56ae0cbebe9eb15aa778f18de67701eeae7c65918190036101200190a25b50506001606555505050505050505050565b60026065541415610d5c576040805162461bcd60e51b815260206004820152601f60248201527f5265656e7472616e637947756172643a207265656e7472616e742063616c6c00604482015290519081900360640190fd5b6002606555610d696112d3565b15610dbb576040805162461bcd60e51b815260206004820152601060248201527f5061757361626c653a2070617573656400000000000000000000000000000000604482015290519081900360640190fd5b610de57fb5c00e6706c3d213edd70ff33717fac657eacc5fe161f07180cf1fcab13cc4cd3361186c565b610e36576040805162461bcd60e51b815260206004820152601a60248201527f43616c6c6572206973206e6f742061206e6f64652067726f7570000000000000604482015290519081900360640190fd5b818311610e8a576040805162461bcd60e51b815260206004820152601f60248201527f416d6f756e74206d7573742062652067726561746572207468616e2066656500604482015290519081900360640190fd5b6001600160a01b038416600090815260c96020526040902054610ead908361225b565b6001600160a01b03808616600081815260c96020908152604091829020949094558051918252928101869052808301859052606081018490529151908716917f8b0afdc777af6946e53045a4a75212769075d30455a212ac51c9b16f9c5c9b26919081900360800190a2610f3685610f2585856122b5565b6001600160a01b0387169190612312565b50506001606555505050565b60026065541415610f9a576040805162461bcd60e51b815260206004820152601f60248201527f5265656e7472616e637947756172643a207265656e7472616e742063616c6c00604482015290519081900360640190fd5b6002606555610fa76112d3565b15610ff9576040805162461bcd60e51b815260206004820152601060248201527f5061757361626c653a2070617573656400000000000000000000000000000000604482015290519081900360640190fd5b6110237fb5c00e6706c3d213edd70ff33717fac657eacc5fe161f07180cf1fcab13cc4cd3361186c565b611074576040805162461bcd60e51b815260206004820152601a60248201527f43616c6c6572206973206e6f742061206e6f64652067726f7570000000000000604482015290519081900360640190fd5b8183116110c8576040805162461bcd60e51b815260206004820152601f60248201527f416d6f756e74206d7573742062652067726561746572207468616e2066656500604482015290519081900360640190fd5b6001600160a01b038416600090815260c960205260409020546110eb908361225b565b6001600160a01b03808616600081815260c96020908152604091829020949094558051918252928101869052808301859052606081018490529151908716917fbf14b9fde87f6e1c29a7e0787ad1d0d64b4648d8ae63da21524d9fd0f283dd38919081900360800190a2604080517f40c10f190000000000000000000000000000000000000000000000000000000081523060048201526024810185905290516001600160a01b038616916340c10f1991604480830192600092919082900301818387803b1580156111bc57600080fd5b505af11580156111d0573d6000803e3d6000fd5b50505050610f3685610f2584866122b590919063ffffffff16565b60009081526033602052604090206002015490565b6000828152603360205260409020600201546112239061121e612397565b61186c565b61125e5760405162461bcd60e51b815260040180806020018281038252602f815260200180612d47602f913960400191505060405180910390fd5b611268828261239b565b5050565b611274612397565b6001600160a01b0316816001600160a01b0316146112c35760405162461bcd60e51b815260040180806020018281038252602f815260200180612e5a602f913960400191505060405180910390fd5b6112688282612404565b60ca5481565b60975460ff1690565b60026065541415611334576040805162461bcd60e51b815260206004820152601f60248201527f5265656e7472616e637947756172643a207265656e7472616e742063616c6c00604482015290519081900360640190fd5b60026065556113416112d3565b15611393576040805162461bcd60e51b815260206004820152601060248201527f5061757361626c653a2070617573656400000000000000000000000000000000604482015290519081900360640190fd5b604080518881526001600160a01b0388811660208301528183018890526060820187905260ff8616608083015260a0820185905260c082018490529151918a16917fe777b6198e79ffb89ff7fdffa3ad2f3e1c73cd227996b5e7b80d7d8466ee735f9181900360e00190a2604080517f79cc67900000000000000000000000000000000000000000000000000000000081523360048201526024810187905290516001600160a01b038816916379cc679091604480830192600092919082900301818387803b15801561146557600080fd5b505af1158015611479573d6000803e3d6000fd5b5050600160655550505050505050505050565b600054610100900460ff16806114a557506114a561246d565b806114b3575060005460ff16155b6114ee5760405162461bcd60e51b815260040180806020018281038252602e815260200180612dcc602e913960400191505060405180910390fd5b600054610100900460ff1615801561155457600080547fffffffffffffffffffffffffffffffffffffffffffffffffffffffffffffff007fffffffffffffffffffffffffffffffffffffffffffffffffffffffffffff00ff909116610100171660011790555b4360ca5561156360003361125e565b61156b61247e565b801561159a57600080547fffffffffffffffffffffffffffffffffffffffffffffffffffffffffffff00ff1690555b50565b600260655414156115f5576040805162461bcd60e51b815260206004820152601f60248201527f5265656e7472616e637947756172643a207265656e7472616e742063616c6c00604482015290519081900360640190fd5b60026065556116026112d3565b15611654576040805162461bcd60e51b815260206004820152601060248201527f5061757361626c653a2070617573656400000000000000000000000000000000604482015290519081900360640190fd5b604080518881526001600160a01b03888116602083015281830188905260ff80881660608401528616608083015260a0820185905260c082018490529151918a16917f91f25e9be0134ec851830e0e76dc71e06f9dade75a9b84e9524071dbbc3194259181900360e00190a2604080517f79cc67900000000000000000000000000000000000000000000000000000000081523360048201526024810187905290516001600160a01b038816916379cc679091604480830192600092919082900301818387803b15801561146557600080fd5b600082815260336020526040812061173f9083612556565b90505b92915050565b600260655414156117a0576040805162461bcd60e51b815260206004820152601f60248201527f5265656e7472616e637947756172643a207265656e7472616e742063616c6c00604482015290519081900360640190fd5b60026065556117ad6112d3565b156117ff576040805162461bcd60e51b815260206004820152601060248201527f5061757361626c653a2070617573656400000000000000000000000000000000604482015290519081900360640190fd5b604080518481526001600160a01b0384811660208301528183018490529151918616917fda5273705dbef4bf1b902a131c2eac086b7e1476a8ab0cb4da08af1fe1bd8e3b9181900360600190a26118616001600160a01b038316333084612562565b505060016065555050565b600082815260336020526040812061173f90836125f0565b600081565b600260655414156118e1576040805162461bcd60e51b815260206004820152601f60248201527f5265656e7472616e637947756172643a207265656e7472616e742063616c6c00604482015290519081900360640190fd5b60026065556118ee6112d3565b15611940576040805162461bcd60e51b815260206004820152601060248201527f5061757361626c653a2070617573656400000000000000000000000000000000604482015290519081900360640190fd5b604080518881526001600160a01b03888116602083015281830188905260ff80881660608401528616608083015260a0820185905260c082018490529151918a16917f79c15604b92ef54d3f61f0c40caab8857927ca3d5092367163b4562c1699eb5f9181900360e00190a26119c16001600160a01b038716333088612562565b50506001606555505050505050565b6001600160a01b0316600090815260c9602052604090205490565b600081815260336020526040812061174290612605565b60026065541415611a5a576040805162461bcd60e51b815260206004820152601f60248201527f5265656e7472616e637947756172643a207265656e7472616e742063616c6c00604482015290519081900360640190fd5b6002606555611a676112d3565b15611ab9576040805162461bcd60e51b815260206004820152601060248201527f5061757361626c653a2070617573656400000000000000000000000000000000604482015290519081900360640190fd5b611ae37fb5c00e6706c3d213edd70ff33717fac657eacc5fe161f07180cf1fcab13cc4cd3361186c565b611b34576040805162461bcd60e51b815260206004820152601a60248201527f43616c6c6572206973206e6f742061206e6f64652067726f7570000000000000604482015290519081900360640190fd5b868811611b88576040805162461bcd60e51b815260206004820152601f60248201527f416d6f756e74206d7573742062652067726561746572207468616e2066656500604482015290519081900360640190fd5b6001600160a01b038916600090815260c96020526040902054611bab908861225b565b6001600160a01b03808b16600090815260c96020526040812092909255871663342a87a1611bd9888b6122b5565b876040518363ffffffff1660e01b8152600401808381526020018260ff1681526020019250505060206040518083038186803b158015611c1857600080fd5b505afa158015611c2c573d6000803e3d6000fd5b505050506040513d6020811015611c4257600080fd5b50519050838110611e9c57611c6c87611c5b888b6122b5565b6001600160a01b038d169190612610565b6001600160a01b038716633e3a1560611c85888b6122b5565b8787876040518563ffffffff1660e01b8152600401808581526020018460ff168152602001838152602001828152602001945050505050602060405180830381600087803b158015611cd657600080fd5b505af1925050508015611cfb57506040513d6020811015611cf657600080fd5b505160015b611d8e57611d0d8b610c638b8b6122b5565b604080516001600160a01b038c81168252602082018c90528183018b90526060820189905260ff8816608083015260a0820187905260c08201869052600060e083015261010082018590529151918d16917f5cf39541d0e32b8c50c276b0486944a40d570f3878a368a84e1ad3d20bcb831e918190036101200190a2610bc8565b6000886001600160a01b03166382b86600886040518263ffffffff1660e01b8152600401808260ff16815260200191505060206040518083038186803b158015611dd757600080fd5b505afa158015611deb573d6000803e3d6000fd5b505050506040513d6020811015611e0157600080fd5b50519050611e196001600160a01b0382168e84612312565b604080516001600160a01b038e81168252602082018e90528183018d9052606082018b905260ff8a16608083015260a0820189905260c08201889052600160e083015261010082018790529151918f16917f5cf39541d0e32b8c50c276b0486944a40d570f3878a368a84e1ad3d20bcb831e918190036101200190a25050610cf2565b611eaa8b610c638b8b6122b5565b604080516001600160a01b038c81168252602082018c90528183018b90526060820189905260ff8816608083015260a0820187905260c08201869052600060e083015261010082018590529151918d16917f5cf39541d0e32b8c50c276b0486944a40d570f3878a368a84e1ad3d20bcb831e918190036101200190a250506001606555505050505050505050565b600082815260336020526040902060020154611f569061121e612397565b6112c35760405162461bcd60e51b8152600401808060200182810382526030815260200180612d9c6030913960400191505060405180910390fd5b611f996112d3565b15611feb576040805162461bcd60e51b815260206004820152601060248201527f5061757361626c653a2070617573656400000000000000000000000000000000604482015290519081900360640190fd5b611ff660003361186c565b611fff57600080fd5b6001600160a01b03811661205a576040805162461bcd60e51b815260206004820152601060248201527f4164647265737320697320307830303000000000000000000000000000000000604482015290519081900360640190fd5b6001600160a01b038216600090815260c9602052604090205415611268576001600160a01b038216600081815260c9602052604090205461209d91908390612312565b506001600160a01b0316600090815260c96020526040812055565b7fb5c00e6706c3d213edd70ff33717fac657eacc5fe161f07180cf1fcab13cc4cd81565b60026065541415612134576040805162461bcd60e51b815260206004820152601f60248201527f5265656e7472616e637947756172643a207265656e7472616e742063616c6c00604482015290519081900360640190fd5b60026065556121416112d3565b15612193576040805162461bcd60e51b815260206004820152601060248201527f5061757361626c653a2070617573656400000000000000000000000000000000604482015290519081900360640190fd5b604080518481526001600160a01b0384811660208301528183018490529151918616917fdc5bad4651c5fbe9977a696aadc65996c468cde1448dd468ec0d83bf61c4b57c9181900360600190a2604080517f79cc67900000000000000000000000000000000000000000000000000000000081523360048201526024810183905290516001600160a01b038416916379cc679091604480830192600092919082900301818387803b15801561224757600080fd5b505af11580156119c1573d6000803e3d6000fd5b60008282018381101561173f576040805162461bcd60e51b815260206004820152601b60248201527f536166654d6174683a206164646974696f6e206f766572666c6f770000000000604482015290519081900360640190fd5b60008282111561230c576040805162461bcd60e51b815260206004820152601e60248201527f536166654d6174683a207375627472616374696f6e206f766572666c6f770000604482015290519081900360640190fd5b50900390565b604080516001600160a01b038416602482015260448082018490528251808303909101815260649091019091526020810180517bffffffffffffffffffffffffffffffffffffffffffffffffffffffff167fa9059cbb00000000000000000000000000000000000000000000000000000000179052612392908490612766565b505050565b3390565b60008281526033602052604090206123b39082612817565b15611268576123c0612397565b6001600160a01b0316816001600160a01b0316837f2f8788117e7eff1d82e926ec794901d17c78024a50270940304540a733656f0d60405160405180910390a45050565b600082815260336020526040902061241c908261282c565b1561126857612429612397565b6001600160a01b0316816001600160a01b0316837ff6391f5c32d9c69d2a47ea670b442974b53935d1edc7fd64eb21e047a839171b60405160405180910390a45050565b600061247830612841565b15905090565b600054610100900460ff1680612497575061249761246d565b806124a5575060005460ff16155b6124e05760405162461bcd60e51b815260040180806020018281038252602e815260200180612dcc602e913960400191505060405180910390fd5b600054610100900460ff1615801561254657600080547fffffffffffffffffffffffffffffffffffffffffffffffffffffffffffffff007fffffffffffffffffffffffffffffffffffffffffffffffffffffffffffff00ff909116610100171660011790555b61254e612847565b61156b612847565b600061173f838361293f565b604080516001600160a01b0380861660248301528416604482015260648082018490528251808303909101815260849091019091526020810180517bffffffffffffffffffffffffffffffffffffffffffffffffffffffff167f23b872dd000000000000000000000000000000000000000000000000000000001790526125ea908590612766565b50505050565b600061173f836001600160a01b0384166129a3565b6000611742826129bb565b8015806126af5750604080517fdd62ed3e0000000000000000000000000000000000000000000000000000000081523060048201526001600160a01b03848116602483015291519185169163dd62ed3e91604480820192602092909190829003018186803b15801561268157600080fd5b505afa158015612695573d6000803e3d6000fd5b505050506040513d60208110156126ab57600080fd5b5051155b6126ea5760405162461bcd60e51b8152600401808060200182810382526036815260200180612e246036913960400191505060405180910390fd5b604080516001600160a01b038416602482015260448082018490528251808303909101815260649091019091526020810180517bffffffffffffffffffffffffffffffffffffffffffffffffffffffff167f095ea7b3000000000000000000000000000000000000000000000000000000001790526123929084905b60606127bb826040518060400160405280602081526020017f5361666545524332303a206c6f772d6c6576656c2063616c6c206661696c6564815250856001600160a01b03166129bf9092919063ffffffff16565b805190915015612392578080602001905160208110156127da57600080fd5b50516123925760405162461bcd60e51b815260040180806020018281038252602a815260200180612dfa602a913960400191505060405180910390fd5b600061173f836001600160a01b0384166129d8565b600061173f836001600160a01b038416612a22565b3b151590565b600054610100900460ff1680612860575061286061246d565b8061286e575060005460ff16155b6128a95760405162461bcd60e51b815260040180806020018281038252602e815260200180612dcc602e913960400191505060405180910390fd5b600054610100900460ff1615801561156b57600080547fffffffffffffffffffffffffffffffffffffffffffffffffffffffffffffff007fffffffffffffffffffffffffffffffffffffffffffffffffffffffffffff00ff90911661010017166001179055801561159a57600080547fffffffffffffffffffffffffffffffffffffffffffffffffffffffffffff00ff16905550565b815460009082106129815760405162461bcd60e51b8152600401808060200182810382526022815260200180612d256022913960400191505060405180910390fd5b82600001828154811061299057fe5b9060005260206000200154905092915050565b60009081526001919091016020526040902054151590565b5490565b60606129ce8484600085612b06565b90505b9392505050565b60006129e483836129a3565b612a1a57508154600181810184556000848152602080822090930184905584548482528286019093526040902091909155611742565b506000611742565b60008181526001830160205260408120548015612afc5783547fffffffffffffffffffffffffffffffffffffffffffffffffffffffffffffffff8083019190810190600090879083908110612a7357fe5b9060005260206000200154905080876000018481548110612a9057fe5b600091825260208083209091019290925582815260018981019092526040902090840190558654879080612ac057fe5b60019003818190600052602060002001600090559055866001016000878152602001908152602001600020600090556001945050505050611742565b6000915050611742565b606082471015612b475760405162461bcd60e51b8152600401808060200182810382526026815260200180612d766026913960400191505060405180910390fd5b612b5085612841565b612ba1576040805162461bcd60e51b815260206004820152601d60248201527f416464726573733a2063616c6c20746f206e6f6e2d636f6e7472616374000000604482015290519081900360640190fd5b60006060866001600160a01b031685876040518082805190602001908083835b60208310612bfe57805182527fffffffffffffffffffffffffffffffffffffffffffffffffffffffffffffffe09092019160209182019101612bc1565b6001836020036101000a03801982511681845116808217855250505050505090500191505060006040518083038185875af1925050503d8060008114612c60576040519150601f19603f3d011682016040523d82523d6000602084013e612c65565b606091505b5091509150612c75828286612c80565b979650505050505050565b60608315612c8f5750816129d1565b825115612c9f5782518084602001fd5b8160405162461bcd60e51b81526004018080602001828103825283818151815260200191508051906020019080838360005b83811015612ce9578181015183820152602001612cd1565b50505050905090810190601f168015612d165780820380516001836020036101000a031916815260200191505b509250505060405180910390fdfe456e756d657261626c655365743a20696e646578206f7574206f6620626f756e6473416363657373436f6e74726f6c3a2073656e646572206d75737420626520616e2061646d696e20746f206772616e74416464726573733a20696e73756666696369656e742062616c616e636520666f722063616c6c416363657373436f6e74726f6c3a2073656e646572206d75737420626520616e2061646d696e20746f207265766f6b65496e697469616c697a61626c653a20636f6e747261637420697320616c726561647920696e697469616c697a65645361666545524332303a204552433230206f7065726174696f6e20646964206e6f7420737563636565645361666545524332303a20617070726f76652066726f6d206e6f6e2d7a65726f20746f206e6f6e2d7a65726f20616c6c6f77616e6365416363657373436f6e74726f6c3a2063616e206f6e6c792072656e6f756e636520726f6c657320666f722073656c66a26469706673582212202e7e26e9322bf6c856f6988d0dd65618072181e460661c903179d9ec32bf510164736f6c634300060c0033",
  "devdoc": {
    "kind": "dev",
    "methods": {
      "deposit(address,uint256,address,uint256)": {
        "params": {
          "amount": "Amount in native token decimals to transfer cross-chain pre-fees*",
          "chainId": "which chain to bridge assets onto",
          "to": "address on other chain to bridge assets to",
          "token": "ERC20 compatible token to deposit into the bridge"
        }
      },
      "depositAndSwap(address,uint256,address,uint256,uint8,uint8,uint256,uint256)": {
        "params": {
          "amount": "Amount in native token decimals to transfer cross-chain pre-fees",
          "chainId": "which chain to bridge assets onto",
          "deadline": "latest timestamp to accept this transaction*",
          "minDy": "the min amount the user would like to receive, or revert to only minting the SynERC20 token crosschain.",
          "to": "address on other chain to bridge assets to",
          "token": "ERC20 compatible token to deposit into the bridge",
          "tokenIndexFrom": "the token the user wants to swap from",
          "tokenIndexTo": "the token the user wants to swap to"
        }
      },
      "getRoleAdmin(bytes32)": {
        "details": "Returns the admin role that controls `role`. See {grantRole} and {revokeRole}. To change a role's admin, use {_setRoleAdmin}."
      },
      "getRoleMember(bytes32,uint256)": {
        "details": "Returns one of the accounts that have `role`. `index` must be a value between 0 and {getRoleMemberCount}, non-inclusive. Role bearers are not sorted in any particular way, and their ordering may change at any point. WARNING: When using {getRoleMember} and {getRoleMemberCount}, make sure you perform all queries on the same block. See the following https://forum.openzeppelin.com/t/iterating-over-elements-on-enumerableset-in-openzeppelin-contracts/2296[forum post] for more information."
      },
      "getRoleMemberCount(bytes32)": {
        "details": "Returns the number of accounts that have `role`. Can be used together with {getRoleMember} to enumerate all bearers of a role."
      },
      "grantRole(bytes32,address)": {
        "details": "Grants `role` to `account`. If `account` had not been already granted `role`, emits a {RoleGranted} event. Requirements: - the caller must have ``role``'s admin role."
      },
      "hasRole(bytes32,address)": {
        "details": "Returns `true` if `account` has been granted `role`."
      },
      "mint(address,address,uint256,uint256,bytes32)": {
        "details": "This means the SynapseBridge.sol contract must have minter access to the token attempting to be minted",
        "params": {
          "amount": "Amount in native token decimals to transfer cross-chain post-fees",
          "fee": "Amount in native token decimals to save to the contract as fees",
          "kappa": "kappa*",
          "to": "address on other chain to redeem underlying assets to",
          "token": "ERC20 compatible token to deposit into the bridge"
        }
      },
      "mintAndSwap(address,address,uint256,uint256,address,uint8,uint8,uint256,uint256,bytes32)": {
        "details": "This means the BridgeDeposit.sol contract must have minter access to the token attempting to be minted",
        "params": {
          "amount": "Amount in native token decimals to transfer cross-chain post-fees",
          "deadline": "Epoch time of the deadline that the swap is allowed to be executed.",
          "fee": "Amount in native token decimals to save to the contract as fees",
          "kappa": "kappa*",
          "minDy": "Minumum amount (in final asset decimals) that must be swapped for, otherwise the user will receive the SynERC20.",
          "pool": "Destination chain's pool to use to swap SynERC20 -> Asset. The nodes determine this by using PoolConfig.sol.",
          "to": "address on other chain to redeem underlying assets to",
          "token": "ERC20 compatible token to deposit into the bridge",
          "tokenIndexFrom": "Index of the SynERC20 asset in the pool",
          "tokenIndexTo": "Index of the desired final asset"
        }
      },
      "paused()": {
        "details": "Returns true if the contract is paused, and false otherwise."
      },
      "redeem(address,uint256,address,uint256)": {
        "params": {
          "amount": "Amount in native token decimals to transfer cross-chain pre-fees*",
          "chainId": "which underlying chain to bridge assets onto",
          "to": "address on other chain to redeem underlying assets to",
          "token": "ERC20 compatible token to deposit into the bridge"
        }
      },
      "redeemAndRemove(address,uint256,address,uint256,uint256,uint8,uint256,uint256)": {
        "params": {
          "amount": "Amount in native token decimals to transfer cross-chain pre-fees",
          "chainId": "which underlying chain to bridge assets onto",
          "swapDeadline": "Specificies the deadline that the nodes are allowed to try to redeem/swap the LP token*",
          "swapMinAmount": "Specifies the minimum amount of the underlying asset needed for the nodes to execute the redeem/swap",
          "swapTokenAmount": "Amount of (typically) LP token to pass to the nodes to attempt to removeLiquidity() with to redeem for the underlying assets of the LP token",
          "swapTokenIndex": "Specifies which of the underlying LP assets the nodes should attempt to redeem for",
          "to": "address on other chain to redeem underlying assets to",
          "token": "ERC20 compatible token to deposit into the bridge"
        }
      },
      "redeemAndSwap(address,uint256,address,uint256,uint8,uint8,uint256,uint256)": {
        "params": {
          "amount": "Amount in native token decimals to transfer cross-chain pre-fees",
          "chainId": "which underlying chain to bridge assets onto",
          "deadline": "latest timestamp to accept this transaction*",
          "minDy": "the min amount the user would like to receive, or revert to only minting the SynERC20 token crosschain.",
          "to": "address on other chain to redeem underlying assets to",
          "token": "ERC20 compatible token to deposit into the bridge",
          "tokenIndexFrom": "the token the user wants to swap from",
          "tokenIndexTo": "the token the user wants to swap to"
        }
      },
      "renounceRole(bytes32,address)": {
        "details": "Revokes `role` from the calling account. Roles are often managed via {grantRole} and {revokeRole}: this function's purpose is to provide a mechanism for accounts to lose their privileges if they are compromised (such as when a trusted device is misplaced). If the calling account had been granted `role`, emits a {RoleRevoked} event. Requirements: - the caller must be `account`."
      },
      "revokeRole(bytes32,address)": {
        "details": "Revokes `role` from `account`. If `account` had been granted `role`, emits a {RoleRevoked} event. Requirements: - the caller must have ``role``'s admin role."
      },
      "withdraw(address,address,uint256,uint256,bytes32)": {
        "params": {
          "amount": "Amount in native token decimals to withdraw",
          "fee": "Amount in native token decimals to save to the contract as fees",
          "kappa": "kappa*",
          "to": "address on chain to send underlying assets to",
          "token": "ERC20 compatible token to withdraw from the bridge"
        }
      },
      "withdrawAndRemove(address,address,uint256,uint256,address,uint256,uint8,uint256,uint256,bytes32)": {
        "params": {
          "amount": "Amount in native token decimals to withdraw",
          "fee": "Amount in native token decimals to save to the contract as fees",
          "kappa": "kappa*",
          "pool": "Destination chain's pool to use to swap SynERC20 -> Asset. The nodes determine this by using PoolConfig.sol.",
          "swapDeadline": "Specificies the deadline that the nodes are allowed to try to redeem/swap the LP token",
          "swapMinAmount": "Specifies the minimum amount of the underlying asset needed for the nodes to execute the redeem/swap",
          "swapTokenAmount": "Amount of (typically) LP token to attempt to removeLiquidity() with to redeem for the underlying assets of the LP token",
          "swapTokenIndex": "Specifies which of the underlying LP assets the nodes should attempt to redeem for",
          "to": "address on chain to send underlying assets to",
          "token": "ERC20 compatible token to withdraw from the bridge"
        }
      },
      "withdrawFees(address,address)": {
        "params": {
          "to": "Address to send the fees to",
          "token": "ERC20 token in which fees acccumulated to transfer"
        }
      }
    },
    "version": 1
  },
  "userdoc": {
    "kind": "user",
    "methods": {
      "deposit(address,uint256,address,uint256)": {
        "notice": "Relays to nodes to transfers an ERC20 token cross-chain"
      },
      "depositAndSwap(address,uint256,address,uint256,uint8,uint8,uint256,uint256)": {
        "notice": "Relays to nodes to both transfer an ERC20 token cross-chain, and then have the nodes execute a swap through a liquidity pool on behalf of the user."
      },
      "mint(address,address,uint256,uint256,bytes32)": {
        "notice": "Nodes call this function to mint a SynERC20 (or any asset that the bridge is given minter access to). This is called by the nodes after a TokenDeposit event is emitted."
      },
      "mintAndSwap(address,address,uint256,uint256,address,uint8,uint8,uint256,uint256,bytes32)": {
        "notice": "Nodes call this function to mint a SynERC20 (or any asset that the bridge is given minter access to), and then attempt to swap the SynERC20 into the desired destination asset. This is called by the nodes after a TokenDepositAndSwap event is emitted."
      },
      "redeem(address,uint256,address,uint256)": {
        "notice": "Relays to nodes that (typically) a wrapped synAsset ERC20 token has been burned and the underlying needs to be redeeemed on the native chain"
      },
      "redeemAndRemove(address,uint256,address,uint256,uint256,uint8,uint256,uint256)": {
        "notice": "Relays to nodes that (typically) a wrapped synAsset ERC20 token has been burned and the underlying needs to be redeeemed on the native chain. This function indicates to the nodes that they should attempt to redeem the LP token for the underlying assets (E.g \"swap\" out of the LP token)"
      },
      "redeemAndSwap(address,uint256,address,uint256,uint8,uint8,uint256,uint256)": {
        "notice": "Relays to nodes that (typically) a wrapped synAsset ERC20 token has been burned and the underlying needs to be redeeemed on the native chain. This function indicates to the nodes that they should attempt to redeem the LP token for the underlying assets (E.g \"swap\" out of the LP token)"
      },
      "withdraw(address,address,uint256,uint256,bytes32)": {
        "notice": "Function to be called by the node group to withdraw the underlying assets from the contract"
      },
      "withdrawAndRemove(address,address,uint256,uint256,address,uint256,uint8,uint256,uint256,bytes32)": {
        "notice": "Function to be called by the node group to withdraw the underlying assets from the contract"
      },
      "withdrawFees(address,address)": {
        "notice": "withdraw specified ERC20 token fees to a given address"
      }
    },
    "version": 1
  },
  "storageLayout": {
    "storage": [
      {
        "astId": 1155,
        "contract": "contracts/synapse/SynapseBridge.sol:SynapseBridge",
        "label": "_initialized",
        "offset": 0,
        "slot": "0",
        "type": "t_bool"
      },
      {
        "astId": 1158,
        "contract": "contracts/synapse/SynapseBridge.sol:SynapseBridge",
        "label": "_initializing",
        "offset": 1,
        "slot": "0",
        "type": "t_bool"
      },
      {
        "astId": 2194,
        "contract": "contracts/synapse/SynapseBridge.sol:SynapseBridge",
        "label": "__gap",
        "offset": 0,
        "slot": "1",
        "type": "t_array(t_uint256)50_storage"
      },
      {
        "astId": 43,
        "contract": "contracts/synapse/SynapseBridge.sol:SynapseBridge",
        "label": "_roles",
        "offset": 0,
        "slot": "51",
        "type": "t_mapping(t_bytes32,t_struct(RoleData)39_storage)"
      },
      {
        "astId": 306,
        "contract": "contracts/synapse/SynapseBridge.sol:SynapseBridge",
        "label": "__gap",
        "offset": 0,
        "slot": "52",
        "type": "t_array(t_uint256)49_storage"
      },
      {
        "astId": 2864,
        "contract": "contracts/synapse/SynapseBridge.sol:SynapseBridge",
        "label": "_status",
        "offset": 0,
        "slot": "101",
        "type": "t_uint256"
      },
      {
        "astId": 2907,
        "contract": "contracts/synapse/SynapseBridge.sol:SynapseBridge",
        "label": "__gap",
        "offset": 0,
        "slot": "102",
        "type": "t_array(t_uint256)49_storage"
      },
      {
        "astId": 2758,
        "contract": "contracts/synapse/SynapseBridge.sol:SynapseBridge",
        "label": "_paused",
        "offset": 0,
        "slot": "151",
        "type": "t_bool"
      },
      {
        "astId": 2849,
        "contract": "contracts/synapse/SynapseBridge.sol:SynapseBridge",
        "label": "__gap",
        "offset": 0,
        "slot": "152",
        "type": "t_array(t_uint256)49_storage"
      },
      {
        "astId": 7452,
        "contract": "contracts/synapse/SynapseBridge.sol:SynapseBridge",
        "label": "fees",
        "offset": 0,
        "slot": "201",
        "type": "t_mapping(t_address,t_uint256)"
      },
      {
        "astId": 7454,
        "contract": "contracts/synapse/SynapseBridge.sol:SynapseBridge",
        "label": "startBlockNumber",
        "offset": 0,
        "slot": "202",
        "type": "t_uint256"
      }
    ],
    "types": {
      "t_address": {
        "encoding": "inplace",
        "label": "address",
        "numberOfBytes": "20"
      },
      "t_array(t_bytes32)dyn_storage": {
        "base": "t_bytes32",
        "encoding": "dynamic_array",
        "label": "bytes32[]",
        "numberOfBytes": "32"
      },
      "t_array(t_uint256)49_storage": {
        "base": "t_uint256",
        "encoding": "inplace",
        "label": "uint256[49]",
        "numberOfBytes": "1568"
      },
      "t_array(t_uint256)50_storage": {
        "base": "t_uint256",
        "encoding": "inplace",
        "label": "uint256[50]",
        "numberOfBytes": "1600"
      },
      "t_bool": {
        "encoding": "inplace",
        "label": "bool",
        "numberOfBytes": "1"
      },
      "t_bytes32": {
        "encoding": "inplace",
        "label": "bytes32",
        "numberOfBytes": "32"
      },
      "t_mapping(t_address,t_uint256)": {
        "encoding": "mapping",
        "key": "t_address",
        "label": "mapping(address => uint256)",
        "numberOfBytes": "32",
        "value": "t_uint256"
      },
      "t_mapping(t_bytes32,t_struct(RoleData)39_storage)": {
        "encoding": "mapping",
        "key": "t_bytes32",
        "label": "mapping(bytes32 => struct AccessControlUpgradeable.RoleData)",
        "numberOfBytes": "32",
        "value": "t_struct(RoleData)39_storage"
      },
      "t_mapping(t_bytes32,t_uint256)": {
        "encoding": "mapping",
        "key": "t_bytes32",
        "label": "mapping(bytes32 => uint256)",
        "numberOfBytes": "32",
        "value": "t_uint256"
      },
      "t_struct(AddressSet)2521_storage": {
        "encoding": "inplace",
        "label": "struct EnumerableSetUpgradeable.AddressSet",
        "members": [
          {
            "astId": 2520,
            "contract": "contracts/synapse/SynapseBridge.sol:SynapseBridge",
            "label": "_inner",
            "offset": 0,
            "slot": "0",
            "type": "t_struct(Set)2256_storage"
          }
        ],
        "numberOfBytes": "64"
      },
      "t_struct(RoleData)39_storage": {
        "encoding": "inplace",
        "label": "struct AccessControlUpgradeable.RoleData",
        "members": [
          {
            "astId": 36,
            "contract": "contracts/synapse/SynapseBridge.sol:SynapseBridge",
            "label": "members",
            "offset": 0,
            "slot": "0",
            "type": "t_struct(AddressSet)2521_storage"
          },
          {
            "astId": 38,
            "contract": "contracts/synapse/SynapseBridge.sol:SynapseBridge",
            "label": "adminRole",
            "offset": 0,
            "slot": "2",
            "type": "t_bytes32"
          }
        ],
        "numberOfBytes": "96"
      },
      "t_struct(Set)2256_storage": {
        "encoding": "inplace",
        "label": "struct EnumerableSetUpgradeable.Set",
        "members": [
          {
            "astId": 2251,
            "contract": "contracts/synapse/SynapseBridge.sol:SynapseBridge",
            "label": "_values",
            "offset": 0,
            "slot": "0",
            "type": "t_array(t_bytes32)dyn_storage"
          },
          {
            "astId": 2255,
            "contract": "contracts/synapse/SynapseBridge.sol:SynapseBridge",
            "label": "_indexes",
            "offset": 0,
            "slot": "1",
            "type": "t_mapping(t_bytes32,t_uint256)"
          }
        ],
        "numberOfBytes": "64"
      },
      "t_uint256": {
        "encoding": "inplace",
        "label": "uint256",
        "numberOfBytes": "32"
      }
    }
  }
}