{
  "address": "0xbCefB397a13528F693D929931248C94c4263B763",
  "abi": [
    {
      "inputs": [],
      "stateMutability": "nonpayable",
      "type": "constructor"
    },
    {
      "anonymous": false,
      "inputs": [
        {
          "indexed": false,
          "internalType": "string",
          "name": "key",
          "type": "string"
        }
      ],
      "name": "ConfigUpdate",
      "type": "event"
    },
    {
      "anonymous": false,
      "inputs": [
        {
          "indexed": true,
          "internalType": "bytes32",
          "name": "role",
          "type": "bytes32"
        },
        {
          "indexed": true,
          "internalType": "bytes32",
          "name": "previousAdminRole",
          "type": "bytes32"
        },
        {
          "indexed": true,
          "internalType": "bytes32",
          "name": "newAdminRole",
          "type": "bytes32"
        }
      ],
      "name": "RoleAdminChanged",
      "type": "event"
    },
    {
      "anonymous": false,
      "inputs": [
        {
          "indexed": true,
          "internalType": "bytes32",
          "name": "role",
          "type": "bytes32"
        },
        {
          "indexed": true,
          "internalType": "address",
          "name": "account",
          "type": "address"
        },
        {
          "indexed": true,
          "internalType": "address",
          "name": "sender",
          "type": "address"
        }
      ],
      "name": "RoleGranted",
      "type": "event"
    },
    {
      "anonymous": false,
      "inputs": [
        {
          "indexed": true,
          "internalType": "bytes32",
          "name": "role",
          "type": "bytes32"
        },
        {
          "indexed": true,
          "internalType": "address",
          "name": "account",
          "type": "address"
        },
        {
          "indexed": true,
          "internalType": "address",
          "name": "sender",
          "type": "address"
        }
      ],
      "name": "RoleRevoked",
      "type": "event"
    },
    {
      "inputs": [],
      "name": "BRIDGEMANAGER_ROLE",
      "outputs": [
        {
          "internalType": "bytes32",
          "name": "",
          "type": "bytes32"
        }
      ],
      "stateMutability": "view",
      "type": "function"
    },
    {
      "inputs": [],
      "name": "DEFAULT_ADMIN_ROLE",
      "outputs": [
        {
          "internalType": "bytes32",
          "name": "",
          "type": "bytes32"
        }
      ],
      "stateMutability": "view",
      "type": "function"
    },
    {
      "inputs": [
        {
          "internalType": "string",
          "name": "_key",
          "type": "string"
        }
      ],
      "name": "get",
      "outputs": [
        {
          "internalType": "string",
          "name": "",
          "type": "string"
        }
      ],
      "stateMutability": "view",
      "type": "function"
    },
    {
      "inputs": [
        {
          "internalType": "bytes32",
          "name": "role",
          "type": "bytes32"
        }
      ],
      "name": "getRoleAdmin",
      "outputs": [
        {
          "internalType": "bytes32",
          "name": "",
          "type": "bytes32"
        }
      ],
      "stateMutability": "view",
      "type": "function"
    },
    {
      "inputs": [
        {
          "internalType": "bytes32",
          "name": "role",
          "type": "bytes32"
        },
        {
          "internalType": "uint256",
          "name": "index",
          "type": "uint256"
        }
      ],
      "name": "getRoleMember",
      "outputs": [
        {
          "internalType": "address",
          "name": "",
          "type": "address"
        }
      ],
      "stateMutability": "view",
      "type": "function"
    },
    {
      "inputs": [
        {
          "internalType": "bytes32",
          "name": "role",
          "type": "bytes32"
        }
      ],
      "name": "getRoleMemberCount",
      "outputs": [
        {
          "internalType": "uint256",
          "name": "",
          "type": "uint256"
        }
      ],
      "stateMutability": "view",
      "type": "function"
    },
    {
      "inputs": [
        {
          "internalType": "bytes32",
          "name": "role",
          "type": "bytes32"
        },
        {
          "internalType": "address",
          "name": "account",
          "type": "address"
        }
      ],
      "name": "grantRole",
      "outputs": [],
      "stateMutability": "nonpayable",
      "type": "function"
    },
    {
      "inputs": [
        {
          "internalType": "bytes32",
          "name": "role",
          "type": "bytes32"
        },
        {
          "internalType": "address",
          "name": "account",
          "type": "address"
        }
      ],
      "name": "hasRole",
      "outputs": [
        {
          "internalType": "bool",
          "name": "",
          "type": "bool"
        }
      ],
      "stateMutability": "view",
      "type": "function"
    },
    {
      "inputs": [],
      "name": "keyCount",
      "outputs": [
        {
          "internalType": "uint256",
          "name": "",
          "type": "uint256"
        }
      ],
      "stateMutability": "view",
      "type": "function"
    },
    {
      "inputs": [
        {
          "internalType": "uint256",
          "name": "index",
          "type": "uint256"
        }
      ],
      "name": "keyValueByIndex",
      "outputs": [
        {
          "internalType": "string",
          "name": "",
          "type": "string"
        },
        {
          "internalType": "string",
          "name": "",
          "type": "string"
        }
      ],
      "stateMutability": "view",
      "type": "function"
    },
    {
      "inputs": [
        {
          "internalType": "bytes32",
          "name": "role",
          "type": "bytes32"
        },
        {
          "internalType": "address",
          "name": "account",
          "type": "address"
        }
      ],
      "name": "renounceRole",
      "outputs": [],
      "stateMutability": "nonpayable",
      "type": "function"
    },
    {
      "inputs": [
        {
          "internalType": "bytes32",
          "name": "role",
          "type": "bytes32"
        },
        {
          "internalType": "address",
          "name": "account",
          "type": "address"
        }
      ],
      "name": "revokeRole",
      "outputs": [],
      "stateMutability": "nonpayable",
      "type": "function"
    },
    {
      "inputs": [
        {
          "internalType": "string",
          "name": "_key",
          "type": "string"
        },
        {
          "internalType": "string",
          "name": "_value",
          "type": "string"
        }
      ],
      "name": "set",
      "outputs": [
        {
          "internalType": "bool",
          "name": "",
          "type": "bool"
        }
      ],
      "stateMutability": "nonpayable",
      "type": "function"
    }
  ],
  "transactionHash": "0x1bd21dcdf4b69c7fafdcc54afe4f548bab0fe872b12378788e913fccbf9984b2",
  "args": [],
  "solcInputHash": "77596e7531271a22ac9958a08ab3be9e",
  "bytecode": "0x60806040523480156200001157600080fd5b506200001f60003362000051565b6200004b7f4370dcf3e42e4d5b773a451bb8390ee8e7308f47681d1414cff87c2ad0512c853362000051565b62000165565b6200005d828262000061565b5050565b6000828152602081815260409091206200008691839062000535620000da821b17901c565b156200005d5762000096620000fa565b6001600160a01b0316816001600160a01b0316837f2f8788117e7eff1d82e926ec794901d17c78024a50270940304540a733656f0d60405160405180910390a45050565b6000620000f1836001600160a01b038416620000fe565b90505b92915050565b3390565b60006200010c83836200014d565b6200014457508154600181810184556000848152602080822090930184905584548482528286019093526040902091909155620000f4565b506000620000f4565b60009081526001919091016020526040902054151590565b61114980620001756000396000f3fe608060405234801561001057600080fd5b50600436106100df5760003560e01c8063a217fddf1161008c578063d547741f11610066578063d547741f146101d1578063e942b516146101e4578063fac750e0146101f7578063ff9106c7146101ff576100df565b8063a217fddf14610195578063bbe696481461019d578063ca15c873146101be576100df565b8063693ec85e116100bd578063693ec85e146101355780639010d07c1461015557806391d1485414610175576100df565b8063248a9ca3146100e45780632f2ff15d1461010d57806336568abe14610122575b600080fd5b6100f76100f2366004610d05565b610207565b6040516101049190610ec0565b60405180910390f35b61012061011b366004610d1d565b61021c565b005b610120610130366004610d1d565b610287565b610148610143366004610d85565b6102fd565b6040516101049190610ec9565b610168610163366004610d64565b610351565b6040516101049190610e94565b610188610183366004610d1d565b610370565b6040516101049190610eb5565b6100f7610388565b6101b06101ab366004610d05565b61038d565b604051610104929190610edc565b6100f76101cc366004610d05565b6103a4565b6101206101df366004610d1d565b6103bb565b6101886101f2366004610dc5565b61040f565b6100f7610500565b6100f7610511565b60009081526020819052604090206002015490565b60008281526020819052604090206002015461023a90610183610557565b610279576040517f08c379a000000000000000000000000000000000000000000000000000000000815260040161027090610f5e565b60405180910390fd5b610283828261055b565b5050565b61028f610557565b73ffffffffffffffffffffffffffffffffffffffff168173ffffffffffffffffffffffffffffffffffffffff16146102f3576040517f08c379a000000000000000000000000000000000000000000000000000000000815260040161027090611086565b61028382826105de565b60608083838080601f016020809104026020016040519081016040528093929190818152602001838380828437600092019190915250929350610347925060019150839050610661565b9150505b92915050565b60008281526020819052604081206103699083610696565b9392505050565b600082815260208190526040812061036990836106a2565b600081565b60608061039b6001846106c4565b91509150915091565b600081815260208190526040812061034b906106dd565b6000828152602081905260409020600201546103d990610183610557565b6102f3576040517f08c379a000000000000000000000000000000000000000000000000000000000815260040161027090610fbb565b600061043b7f4370dcf3e42e4d5b773a451bb8390ee8e7308f47681d1414cff87c2ad0512c8533610370565b610471576040517f08c379a000000000000000000000000000000000000000000000000000000000815260040161027090611018565b606085858080601f01602080910402602001604051908101604052809392919081815260200183838082843760009201919091525050604080516020601f890181900481028201810190925287815293945060609392508791508690819084018382808284376000920191909152509293506104f5925060019150849050836106e8565b979650505050505050565b600061050c60016106fd565b905090565b7f4370dcf3e42e4d5b773a451bb8390ee8e7308f47681d1414cff87c2ad0512c8581565b60006103698373ffffffffffffffffffffffffffffffffffffffff8416610708565b3390565b60008281526020819052604090206105739082610535565b1561028357610580610557565b73ffffffffffffffffffffffffffffffffffffffff168173ffffffffffffffffffffffffffffffffffffffff16837f2f8788117e7eff1d82e926ec794901d17c78024a50270940304540a733656f0d60405160405180910390a45050565b60008281526020819052604090206105f69082610752565b1561028357610603610557565b73ffffffffffffffffffffffffffffffffffffffff168173ffffffffffffffffffffffffffffffffffffffff16837ff6391f5c32d9c69d2a47ea670b442974b53935d1edc7fd64eb21e047a839171b60405160405180910390a45050565b6060610369836000018360405160200161067b9190610e78565b60405160208183030381529060405280519060200120610774565b60006103698383610873565b60006103698373ffffffffffffffffffffffffffffffffffffffff84166108d2565b6060806106d184846108ea565b915091505b9250929050565b600061034b82610a78565b60006106f5848484610a7c565b949350505050565b600061034b82610b1f565b600061071483836108d2565b61074a5750815460018181018455600084815260208082209093018490558454848252828601909352604090209190915561034b565b50600061034b565b60006103698373ffffffffffffffffffffffffffffffffffffffff8416610b2a565b60008181526003830160209081526040918290208054835160026001831615610100027fffffffffffffffffffffffffffffffffffffffffffffffffffffffffffffffff0190921691909104601f8101849004840282018401909452838152606093849391929183018282801561082c5780601f106108015761010080835404028352916020019161082c565b820191906000526020600020905b81548152906001019060200180831161080f57829003601f168201915b5050505050905061083d8484610c0e565b610369576040517f08c379a00000000000000000000000000000000000000000000000000000000081526004016102709061104f565b815460009082106108b0576040517f08c379a000000000000000000000000000000000000000000000000000000000815260040161027090610f01565b8260000182815481106108bf57fe5b9060005260206000200154905092915050565b60009081526001919091016020526040902054151590565b60608060006108f98585610696565b600081815260028781016020908152604080842060038b01835293819020845482516001821615610100027fffffffffffffffffffffffffffffffffffffffffffffffffffffffffffffffff0190911694909404601f810184900484028501840190925281845294955092939284918301828280156109b95780601f1061098e576101008083540402835291602001916109b9565b820191906000526020600020905b81548152906001019060200180831161099c57829003601f168201915b5050845460408051602060026001851615610100027fffffffffffffffffffffffffffffffffffffffffffffffffffffffffffffffff0190941693909304601f810184900484028201840190925281815295975086945092508401905082828015610a655780601f10610a3a57610100808354040283529160200191610a65565b820191906000526020600020905b815481529060010190602001808311610a4857829003601f168201915b5050505050905092509250509250929050565b5490565b60008083604051602001610a909190610e78565b604080517fffffffffffffffffffffffffffffffffffffffffffffffffffffffffffffffe081840301815291815281516020928301206000818152600389018452919091208551919350610ae992909190860190610c32565b50600081815260028601602090815260409091208551610b0b92870190610c32565b50610b168582610c1a565b95945050505050565b600061034b826106dd565b60008181526001830160205260408120548015610c045783547fffffffffffffffffffffffffffffffffffffffffffffffffffffffffffffffff8083019190810190600090879083908110610b7b57fe5b9060005260206000200154905080876000018481548110610b9857fe5b600091825260208083209091019290925582815260018981019092526040902090840190558654879080610bc857fe5b6001900381819060005260206000200160009055905586600101600087815260200190815260200160002060009055600194505050505061034b565b600091505061034b565b60006103698383610c26565b60006103698383610708565b600061036983836108d2565b828054600181600116156101000203166002900490600052602060002090601f016020900481019282601f10610c7357805160ff1916838001178555610ca0565b82800160010185558215610ca0579182015b82811115610ca0578251825591602001919060010190610c85565b50610cac929150610cb0565b5090565b5b80821115610cac5760008155600101610cb1565b60008083601f840112610cd6578182fd5b50813567ffffffffffffffff811115610ced578182fd5b6020830191508360208285010111156106d657600080fd5b600060208284031215610d16578081fd5b5035919050565b60008060408385031215610d2f578081fd5b82359150602083013573ffffffffffffffffffffffffffffffffffffffff81168114610d59578182fd5b809150509250929050565b60008060408385031215610d76578182fd5b50508035926020909101359150565b60008060208385031215610d97578182fd5b823567ffffffffffffffff811115610dad578283fd5b610db985828601610cc5565b90969095509350505050565b60008060008060408587031215610dda578182fd5b843567ffffffffffffffff80821115610df1578384fd5b610dfd88838901610cc5565b90965094506020870135915080821115610e15578384fd5b50610e2287828801610cc5565b95989497509550505050565b60008151808452610e468160208601602086016110e3565b601f017fffffffffffffffffffffffffffffffffffffffffffffffffffffffffffffffe0169290920160200192915050565b60008251610e8a8184602087016110e3565b9190910192915050565b73ffffffffffffffffffffffffffffffffffffffff91909116815260200190565b901515815260200190565b90815260200190565b6000602082526103696020830184610e2e565b600060408252610eef6040830185610e2e565b8281036020840152610b168185610e2e565b60208082526022908201527f456e756d657261626c655365743a20696e646578206f7574206f6620626f756e60408201527f6473000000000000000000000000000000000000000000000000000000000000606082015260800190565b6020808252602f908201527f416363657373436f6e74726f6c3a2073656e646572206d75737420626520616e60408201527f2061646d696e20746f206772616e740000000000000000000000000000000000606082015260800190565b60208082526030908201527f416363657373436f6e74726f6c3a2073656e646572206d75737420626520616e60408201527f2061646d696e20746f207265766f6b6500000000000000000000000000000000606082015260800190565b6020808252601c908201527f43616c6c6572206973206e6f7420427269646765204d616e6167657200000000604082015260600190565b6020808252601e908201527f456e756d657261626c654d61703a206e6f6e6578697374656e74206b65790000604082015260600190565b6020808252602f908201527f416363657373436f6e74726f6c3a2063616e206f6e6c792072656e6f756e636560408201527f20726f6c657320666f722073656c660000000000000000000000000000000000606082015260800190565b60005b838110156110fe5781810151838201526020016110e6565b8381111561110d576000848401525b5050505056fea26469706673582212206c99fcb57c32fcfa16fdeeec022a1e00573aa433cb3420adbb5eac53292be2ce64736f6c634300060c0033",
  "devdoc": {
    "author": "Synapse Authors",
    "kind": "dev",
    "methods": {
      "getRoleAdmin(bytes32)": {
        "details": "Returns the admin role that controls `role`. See {grantRole} and {revokeRole}. To change a role's admin, use {_setRoleAdmin}."
      },
      "getRoleMember(bytes32,uint256)": {
        "details": "Returns one of the accounts that have `role`. `index` must be a value between 0 and {getRoleMemberCount}, non-inclusive. Role bearers are not sorted in any particular way, and their ordering may change at any point. WARNING: When using {getRoleMember} and {getRoleMemberCount}, make sure you perform all queries on the same block. See the following https://forum.openzeppelin.com/t/iterating-over-elements-on-enumerableset-in-openzeppelin-contracts/2296[forum post] for more information."
      },
      "getRoleMemberCount(bytes32)": {
        "details": "Returns the number of accounts that have `role`. Can be used together with {getRoleMember} to enumerate all bearers of a role."
      },
      "grantRole(bytes32,address)": {
        "details": "Grants `role` to `account`. If `account` had not been already granted `role`, emits a {RoleGranted} event. Requirements: - the caller must have ``role``'s admin role."
      },
      "hasRole(bytes32,address)": {
        "details": "Returns `true` if `account` has been granted `role`."
      },
      "keyCount()": {
        "details": "this is useful for enumerating through all keys in the env"
      },
      "renounceRole(bytes32,address)": {
        "details": "Revokes `role` from the calling account. Roles are often managed via {grantRole} and {revokeRole}: this function's purpose is to provide a mechanism for accounts to lose their privileges if they are compromised (such as when a trusted device is misplaced). If the calling account had been granted `role`, emits a {RoleRevoked} event. Requirements: - the caller must be `account`."
      },
      "revokeRole(bytes32,address)": {
        "details": "Revokes `role` from `account`. If `account` had been granted `role`, emits a {RoleRevoked} event. Requirements: - the caller must have ``role``'s admin role."
      },
      "set(string,string)": {
        "details": "caller must have bridge manager role"
      }
    },
    "title": "NodeEnv contract",
    "version": 1
  },
  "userdoc": {
    "kind": "user",
    "methods": {
      "get(string)": {
        "notice": "gets the value associated with the key"
      },
      "keyCount()": {
        "notice": "get the length of the config"
      },
      "keyValueByIndex(uint256)": {
        "notice": "gets the key/value pair by it's index Requirements: - `index` must be strictly less than {length}."
      },
      "set(string,string)": {
        "notice": "sets the key"
      }
    },
    "notice": "This contract implements a key-value store for storing variables on which synapse nodes must coordinate methods are purposely arbitrary to allow these fields to be defined in synapse improvement proposals.This token is used for configuring different tokens on the bridge and mapping them across chains.*",
    "version": 1
  },
  "storageLayout": {
    "storage": [
      {
        "astId": 2760,
        "contract": "contracts/synapse/NodeEnv.sol:NodeEnv",
        "label": "_roles",
        "offset": 0,
        "slot": "0",
        "type": "t_mapping(t_bytes32,t_struct(RoleData)2756_storage)"
      },
      {
        "astId": 6922,
        "contract": "contracts/synapse/NodeEnv.sol:NodeEnv",
        "label": "_config",
        "offset": 0,
        "slot": "1",
        "type": "t_struct(StringToStringMap)8890_storage"
      }
    ],
    "types": {
      "t_array(t_bytes32)dyn_storage": {
        "base": "t_bytes32",
        "encoding": "dynamic_array",
        "label": "bytes32[]",
        "numberOfBytes": "32"
      },
      "t_bytes32": {
        "encoding": "inplace",
        "label": "bytes32",
        "numberOfBytes": "32"
      },
      "t_mapping(t_bytes32,t_string_storage)": {
        "encoding": "mapping",
        "key": "t_bytes32",
        "label": "mapping(bytes32 => string)",
        "numberOfBytes": "32",
        "value": "t_string_storage"
      },
      "t_mapping(t_bytes32,t_struct(RoleData)2756_storage)": {
        "encoding": "mapping",
        "key": "t_bytes32",
        "label": "mapping(bytes32 => struct AccessControl.RoleData)",
        "numberOfBytes": "32",
        "value": "t_struct(RoleData)2756_storage"
      },
      "t_mapping(t_bytes32,t_uint256)": {
        "encoding": "mapping",
        "key": "t_bytes32",
        "label": "mapping(bytes32 => uint256)",
        "numberOfBytes": "32",
        "value": "t_uint256"
      },
      "t_string_storage": {
        "encoding": "bytes",
        "label": "string",
        "numberOfBytes": "32"
      },
      "t_struct(AddressSet)5510_storage": {
        "encoding": "inplace",
        "label": "struct EnumerableSet.AddressSet",
        "members": [
          {
            "astId": 5509,
            "contract": "contracts/synapse/NodeEnv.sol:NodeEnv",
            "label": "_inner",
            "offset": 0,
            "slot": "0",
            "type": "t_struct(Set)5245_storage"
          }
        ],
        "numberOfBytes": "64"
      },
      "t_struct(Bytes32Set)5425_storage": {
        "encoding": "inplace",
        "label": "struct EnumerableSet.Bytes32Set",
        "members": [
          {
            "astId": 5424,
            "contract": "contracts/synapse/NodeEnv.sol:NodeEnv",
            "label": "_inner",
            "offset": 0,
            "slot": "0",
            "type": "t_struct(Set)5245_storage"
          }
        ],
        "numberOfBytes": "64"
      },
      "t_struct(Map)8677_storage": {
        "encoding": "inplace",
        "label": "struct EnumerableStringMap.Map",
        "members": [
          {
            "astId": 8668,
            "contract": "contracts/synapse/NodeEnv.sol:NodeEnv",
            "label": "_keys",
            "offset": 0,
            "slot": "0",
            "type": "t_struct(Bytes32Set)5425_storage"
          },
          {
            "astId": 8672,
            "contract": "contracts/synapse/NodeEnv.sol:NodeEnv",
            "label": "_hashKeyMap",
            "offset": 0,
            "slot": "2",
            "type": "t_mapping(t_bytes32,t_string_storage)"
          },
          {
            "astId": 8676,
            "contract": "contracts/synapse/NodeEnv.sol:NodeEnv",
            "label": "_values",
            "offset": 0,
            "slot": "3",
            "type": "t_mapping(t_bytes32,t_string_storage)"
          }
        ],
        "numberOfBytes": "128"
      },
      "t_struct(RoleData)2756_storage": {
        "encoding": "inplace",
        "label": "struct AccessControl.RoleData",
        "members": [
          {
            "astId": 2753,
            "contract": "contracts/synapse/NodeEnv.sol:NodeEnv",
            "label": "members",
            "offset": 0,
            "slot": "0",
            "type": "t_struct(AddressSet)5510_storage"
          },
          {
            "astId": 2755,
            "contract": "contracts/synapse/NodeEnv.sol:NodeEnv",
            "label": "adminRole",
            "offset": 0,
            "slot": "2",
            "type": "t_bytes32"
          }
        ],
        "numberOfBytes": "96"
      },
      "t_struct(Set)5245_storage": {
        "encoding": "inplace",
        "label": "struct EnumerableSet.Set",
        "members": [
          {
            "astId": 5240,
            "contract": "contracts/synapse/NodeEnv.sol:NodeEnv",
            "label": "_values",
            "offset": 0,
            "slot": "0",
            "type": "t_array(t_bytes32)dyn_storage"
          },
          {
            "astId": 5244,
            "contract": "contracts/synapse/NodeEnv.sol:NodeEnv",
            "label": "_indexes",
            "offset": 0,
            "slot": "1",
            "type": "t_mapping(t_bytes32,t_uint256)"
          }
        ],
        "numberOfBytes": "64"
      },
      "t_struct(StringToStringMap)8890_storage": {
        "encoding": "inplace",
        "label": "struct EnumerableStringMap.StringToStringMap",
        "members": [
          {
            "astId": 8889,
            "contract": "contracts/synapse/NodeEnv.sol:NodeEnv",
            "label": "_inner",
            "offset": 0,
            "slot": "0",
            "type": "t_struct(Map)8677_storage"
          }
        ],
        "numberOfBytes": "128"
      },
      "t_uint256": {
        "encoding": "inplace",
        "label": "uint256",
        "numberOfBytes": "32"
      }
    }
  }
}