{
  "address": "0x544450Ffdfa5EA20528F21918E8aAC7B2C733381",
  "abi": [
    {
      "inputs": [
        {
          "internalType": "contract ISwap",
          "name": "_baseSwap",
          "type": "address"
        }
      ],
      "stateMutability": "nonpayable",
      "type": "constructor"
    },
    {
      "inputs": [],
      "name": "baseSwap",
      "outputs": [
        {
          "internalType": "contract ISwap",
          "name": "",
          "type": "address"
        }
      ],
      "stateMutability": "view",
      "type": "function"
    },
    {
      "inputs": [
        {
          "internalType": "uint256",
          "name": "",
          "type": "uint256"
        }
      ],
      "name": "baseTokens",
      "outputs": [
        {
          "internalType": "contract IERC20",
          "name": "",
          "type": "address"
        }
      ],
      "stateMutability": "view",
      "type": "function"
    },
    {
      "inputs": [
        {
          "internalType": "uint8",
          "name": "tokenIndexFrom",
          "type": "uint8"
        },
        {
          "internalType": "uint8",
          "name": "tokenIndexTo",
          "type": "uint8"
        },
        {
          "internalType": "uint256",
          "name": "dx",
          "type": "uint256"
        }
      ],
      "name": "calculateSwap",
      "outputs": [
        {
          "internalType": "uint256",
          "name": "",
          "type": "uint256"
        }
      ],
      "stateMutability": "view",
      "type": "function"
    },
    {
      "inputs": [
        {
          "internalType": "uint256",
          "name": "index",
          "type": "uint256"
        }
      ],
      "name": "getToken",
      "outputs": [
        {
          "internalType": "contract IERC20",
          "name": "",
          "type": "address"
        }
      ],
      "stateMutability": "view",
      "type": "function"
    },
    {
      "inputs": [
        {
          "internalType": "uint8",
          "name": "tokenIndexFrom",
          "type": "uint8"
        },
        {
          "internalType": "uint8",
          "name": "tokenIndexTo",
          "type": "uint8"
        },
        {
          "internalType": "uint256",
          "name": "dx",
          "type": "uint256"
        },
        {
          "internalType": "uint256",
          "name": "minDy",
          "type": "uint256"
        },
        {
          "internalType": "uint256",
          "name": "deadline",
          "type": "uint256"
        }
      ],
      "name": "swap",
      "outputs": [
        {
          "internalType": "uint256",
          "name": "",
          "type": "uint256"
        }
      ],
      "stateMutability": "nonpayable",
      "type": "function"
    }
  ],
  "transactionHash": "0x53cd8547c9f964d0bdcdfbbc207278bb235cc3bafcf1455bcdf07af62a38eadf",
  "args": [
    "0xa067668661C84476aFcDc6fA5D758C4c01C34352"
  ],
  "solcInputHash": "1ed676684a388645e9adb335da84afb8",
  "bytecode": "0x60806040523480156200001157600080fd5b506040516200122338038062001223833981810160405260208110156200003757600080fd5b50516001600081815581546001600160a01b0319166001600160a01b038416179091555b60208160ff1610156200015557816001600160a01b03166382b86600826040518263ffffffff1660e01b8152600401808260ff16815260200191505060206040518083038186803b158015620000b057600080fd5b505afa925050508015620000d757506040513d6020811015620000d257600080fd5b505160015b620000e25762000155565b600280546001810182556000919091527f405787fa12a823e0f2b7631cc41b3ba8828b3321ca811111fa75cd3aa3bb5ace0180546001600160a01b0319166001600160a01b0383169081179091556200014b9084600019620001a1602090811b620004d417901c565b506001016200005b565b60018160ff1611620001995760405162461bcd60e51b81526004018080602001828103825260248152602001806200119f6024913960400191505060405180910390fd5b5050620005b4565b8015806200022b575060408051636eb1769f60e11b81523060048201526001600160a01b03848116602483015291519185169163dd62ed3e91604480820192602092909190829003018186803b158015620001fb57600080fd5b505afa15801562000210573d6000803e3d6000fd5b505050506040513d60208110156200022757600080fd5b5051155b620002685760405162461bcd60e51b8152600401808060200182810382526036815260200180620011ed6036913960400191505060405180910390fd5b604080516001600160a01b038416602482015260448082018490528251808303909101815260649091019091526020810180516001600160e01b0390811663095ea7b360e01b17909152620002c0918591620002c516565b505050565b606062000321826040518060400160405280602081526020017f5361666545524332303a206c6f772d6c6576656c2063616c6c206661696c6564815250856001600160a01b03166200038160201b62000667179092919060201c565b805190915015620002c0578080602001905160208110156200034257600080fd5b5051620002c05760405162461bcd60e51b815260040180806020018281038252602a815260200180620011c3602a913960400191505060405180910390fd5b60606200039284846000856200039c565b90505b9392505050565b606082471015620003df5760405162461bcd60e51b8152600401808060200182810382526026815260200180620011796026913960400191505060405180910390fd5b620003ea8562000504565b6200043c576040805162461bcd60e51b815260206004820152601d60248201527f416464726573733a2063616c6c20746f206e6f6e2d636f6e7472616374000000604482015290519081900360640190fd5b60006060866001600160a01b031685876040518082805190602001908083835b602083106200047d5780518252601f1990920191602091820191016200045c565b6001836020036101000a03801982511681845116808217855250505050505090500191505060006040518083038185875af1925050503d8060008114620004e1576040519150601f19603f3d011682016040523d82523d6000602084013e620004e6565b606091505b509092509050620004f98282866200050a565b979650505050505050565b3b151590565b606083156200051b57508162000395565b8251156200052c5782518084602001fd5b8160405162461bcd60e51b81526004018080602001828103825283818151815260200191508051906020019080838360005b83811015620005785781810151838201526020016200055e565b50505050905090810190601f168015620005a65780820380516001836020036101000a031916815260200191505b509250505060405180910390fd5b610bb580620005c46000396000f3fe608060405234801561001057600080fd5b50600436106100675760003560e01c80639750a8ee116100505780639750a8ee14610100578063a95b089f14610108578063e4b50cb81461013857610067565b8063328123a21461006c57806391695586146100b2575b600080fd5b6100896004803603602081101561008257600080fd5b5035610155565b6040805173ffffffffffffffffffffffffffffffffffffffff9092168252519081900360200190f35b6100ee600480360360a08110156100c857600080fd5b5060ff813581169160208101359091169060408101359060608101359060800135610189565b60408051918252519081900360200190f35b610089610357565b6100ee6004803603606081101561011e57600080fd5b5060ff813581169160208101359091169060400135610373565b6100896004803603602081101561014e57600080fd5b503561042c565b6002818154811061016257fe5b60009182526020909120015473ffffffffffffffffffffffffffffffffffffffff16905081565b6000600260005414156101fd57604080517f08c379a000000000000000000000000000000000000000000000000000000000815260206004820152601f60248201527f5265656e7472616e637947756172643a207265656e7472616e742063616c6c00604482015290519081900360640190fd5b600260008190555061024533308660028a60ff168154811061021b57fe5b60009182526020909120015473ffffffffffffffffffffffffffffffffffffffff1692919061067e565b600154604080517f9169558600000000000000000000000000000000000000000000000000000000815260ff808a16600483015288166024820152604481018790526064810186905260848101859052905160009273ffffffffffffffffffffffffffffffffffffffff169163916955869160a480830192602092919082900301818787803b1580156102d757600080fd5b505af11580156102eb573d6000803e3d6000fd5b505050506040513d602081101561030157600080fd5b505160028054919250610348913391849160ff8b1690811061031f57fe5b60009182526020909120015473ffffffffffffffffffffffffffffffffffffffff169190610719565b60016000559695505050505050565b60015473ffffffffffffffffffffffffffffffffffffffff1681565b600154604080517fa95b089f00000000000000000000000000000000000000000000000000000000815260ff80871660048301528516602482015260448101849052905160009273ffffffffffffffffffffffffffffffffffffffff169163a95b089f916064808301926020929190829003018186803b1580156103f657600080fd5b505afa15801561040a573d6000803e3d6000fd5b505050506040513d602081101561042057600080fd5b505190505b9392505050565b600254600090821061049f57604080517f08c379a000000000000000000000000000000000000000000000000000000000815260206004820152601260248201527f696e646578206f7574206f662072616e67650000000000000000000000000000604482015290519081900360640190fd5b600282815481106104ac57fe5b60009182526020909120015473ffffffffffffffffffffffffffffffffffffffff1692915050565b8015806105805750604080517fdd62ed3e00000000000000000000000000000000000000000000000000000000815230600482015273ffffffffffffffffffffffffffffffffffffffff848116602483015291519185169163dd62ed3e91604480820192602092909190829003018186803b15801561055257600080fd5b505afa158015610566573d6000803e3d6000fd5b505050506040513d602081101561057c57600080fd5b5051155b6105d5576040517f08c379a0000000000000000000000000000000000000000000000000000000008152600401808060200182810382526036815260200180610b4a6036913960400191505060405180910390fd5b6040805173ffffffffffffffffffffffffffffffffffffffff8416602482015260448082018490528251808303909101815260649091019091526020810180517bffffffffffffffffffffffffffffffffffffffffffffffffffffffff167f095ea7b3000000000000000000000000000000000000000000000000000000001790526106629084906107a2565b505050565b6060610676848460008561087a565b949350505050565b6040805173ffffffffffffffffffffffffffffffffffffffff80861660248301528416604482015260648082018490528251808303909101815260849091019091526020810180517bffffffffffffffffffffffffffffffffffffffffffffffffffffffff167f23b872dd000000000000000000000000000000000000000000000000000000001790526107139085906107a2565b50505050565b6040805173ffffffffffffffffffffffffffffffffffffffff8416602482015260448082018490528251808303909101815260649091019091526020810180517bffffffffffffffffffffffffffffffffffffffffffffffffffffffff167fa9059cbb000000000000000000000000000000000000000000000000000000001790526106629084905b6060610804826040518060400160405280602081526020017f5361666545524332303a206c6f772d6c6576656c2063616c6c206661696c65648152508573ffffffffffffffffffffffffffffffffffffffff166106679092919063ffffffff16565b8051909150156106625780806020019051602081101561082357600080fd5b5051610662576040517f08c379a000000000000000000000000000000000000000000000000000000000815260040180806020018281038252602a815260200180610b20602a913960400191505060405180910390fd5b6060824710156108d5576040517f08c379a0000000000000000000000000000000000000000000000000000000008152600401808060200182810382526026815260200180610afa6026913960400191505060405180910390fd5b6108de85610a35565b61094957604080517f08c379a000000000000000000000000000000000000000000000000000000000815260206004820152601d60248201527f416464726573733a2063616c6c20746f206e6f6e2d636f6e7472616374000000604482015290519081900360640190fd5b600060608673ffffffffffffffffffffffffffffffffffffffff1685876040518082805190602001908083835b602083106109b357805182527fffffffffffffffffffffffffffffffffffffffffffffffffffffffffffffffe09092019160209182019101610976565b6001836020036101000a03801982511681845116808217855250505050505090500191505060006040518083038185875af1925050503d8060008114610a15576040519150601f19603f3d011682016040523d82523d6000602084013e610a1a565b606091505b5091509150610a2a828286610a3b565b979650505050505050565b3b151590565b60608315610a4a575081610425565b825115610a5a5782518084602001fd5b816040517f08c379a00000000000000000000000000000000000000000000000000000000081526004018080602001828103825283818151815260200191508051906020019080838360005b83811015610abe578181015183820152602001610aa6565b50505050905090810190601f168015610aeb5780820380516001836020036101000a031916815260200191505b509250505060405180910390fdfe416464726573733a20696e73756666696369656e742062616c616e636520666f722063616c6c5361666545524332303a204552433230206f7065726174696f6e20646964206e6f7420737563636565645361666545524332303a20617070726f76652066726f6d206e6f6e2d7a65726f20746f206e6f6e2d7a65726f20616c6c6f77616e6365a2646970667358221220dd7700356f20a49c2f3bba202cd650aab038ba8956a52ca7f9611149f60494fa64736f6c634300060c0033416464726573733a20696e73756666696369656e742062616c616e636520666f722063616c6c6261736553776170206d7573742068617665206174206c65617374203220746f6b656e735361666545524332303a204552433230206f7065726174696f6e20646964206e6f7420737563636565645361666545524332303a20617070726f76652066726f6d206e6f6e2d7a65726f20746f206e6f6e2d7a65726f20616c6c6f77616e6365",
  "devdoc": {
    "kind": "dev",
    "methods": {
      "calculateSwap(uint8,uint8,uint256)": {
        "params": {
          "dx": "the amount of tokens the user wants to sell. If the token charges a fee on transfers, use the amount that gets transferred after the fee.",
          "tokenIndexFrom": "the token the user wants to sell",
          "tokenIndexTo": "the token the user wants to buy"
        },
        "returns": {
          "_0": "amount of tokens the user will receive"
        }
      },
      "getToken(uint256)": {
        "params": {
          "index": "the index of the token"
        },
        "returns": {
          "_0": "address of the token at given index"
        }
      },
      "swap(uint8,uint8,uint256,uint256,uint256)": {
        "params": {
          "deadline": "latest timestamp to accept this transaction",
          "dx": "the amount of tokens the user wants to swap from",
          "minDy": "the min amount the user would like to receive, or revert.",
          "tokenIndexFrom": "the token the user wants to swap from",
          "tokenIndexTo": "the token the user wants to swap to"
        }
      }
    },
    "version": 1
  },
  "userdoc": {
    "kind": "user",
    "methods": {
      "calculateSwap(uint8,uint8,uint256)": {
        "notice": "Calculate amount of tokens you receive on swap"
      },
      "getToken(uint256)": {
        "notice": "Returns the address of the pooled token at given index. Reverts if tokenIndex is out of range."
      },
      "swap(uint8,uint8,uint256,uint256,uint256)": {
        "notice": "Swap two underlying tokens using the meta pool and the base pool"
      }
    },
    "version": 1
  },
  "storageLayout": {
    "storage": [
      {
        "astId": 3372,
        "contract": "contracts/helper/BaseSwapDeposit.sol:BaseSwapDeposit",
        "label": "_status",
        "offset": 0,
        "slot": "0",
        "type": "t_uint256"
      },
      {
        "astId": 7969,
        "contract": "contracts/helper/BaseSwapDeposit.sol:BaseSwapDeposit",
        "label": "baseSwap",
        "offset": 0,
        "slot": "1",
        "type": "t_contract(ISwap)9272"
      },
      {
        "astId": 7972,
        "contract": "contracts/helper/BaseSwapDeposit.sol:BaseSwapDeposit",
        "label": "baseTokens",
        "offset": 0,
        "slot": "2",
        "type": "t_array(t_contract(IERC20)2829)dyn_storage"
      }
    ],
    "types": {
      "t_array(t_contract(IERC20)2829)dyn_storage": {
        "base": "t_contract(IERC20)2829",
        "encoding": "dynamic_array",
        "label": "contract IERC20[]",
        "numberOfBytes": "32"
      },
      "t_contract(IERC20)2829": {
        "encoding": "inplace",
        "label": "contract IERC20",
        "numberOfBytes": "20"
      },
      "t_contract(ISwap)9272": {
        "encoding": "inplace",
        "label": "contract ISwap",
        "numberOfBytes": "20"
      },
      "t_uint256": {
        "encoding": "inplace",
        "label": "uint256",
        "numberOfBytes": "32"
      }
    }
  }
}