{
  "address": "0xC0751a70d0fE959591017B71cF25f6f230E6f2Ff",
  "abi": [
    {
      "inputs": [],
      "stateMutability": "nonpayable",
      "type": "constructor"
    },
    {
      "anonymous": false,
      "inputs": [
        {
          "indexed": true,
          "internalType": "bytes32",
          "name": "role",
          "type": "bytes32"
        },
        {
          "indexed": true,
          "internalType": "bytes32",
          "name": "previousAdminRole",
          "type": "bytes32"
        },
        {
          "indexed": true,
          "internalType": "bytes32",
          "name": "newAdminRole",
          "type": "bytes32"
        }
      ],
      "name": "RoleAdminChanged",
      "type": "event"
    },
    {
      "anonymous": false,
      "inputs": [
        {
          "indexed": true,
          "internalType": "bytes32",
          "name": "role",
          "type": "bytes32"
        },
        {
          "indexed": true,
          "internalType": "address",
          "name": "account",
          "type": "address"
        },
        {
          "indexed": true,
          "internalType": "address",
          "name": "sender",
          "type": "address"
        }
      ],
      "name": "RoleGranted",
      "type": "event"
    },
    {
      "anonymous": false,
      "inputs": [
        {
          "indexed": true,
          "internalType": "bytes32",
          "name": "role",
          "type": "bytes32"
        },
        {
          "indexed": true,
          "internalType": "address",
          "name": "account",
          "type": "address"
        },
        {
          "indexed": true,
          "internalType": "address",
          "name": "sender",
          "type": "address"
        }
      ],
      "name": "RoleRevoked",
      "type": "event"
    },
    {
      "inputs": [],
      "name": "BRIDGEMANAGER_ROLE",
      "outputs": [
        {
          "internalType": "bytes32",
          "name": "",
          "type": "bytes32"
        }
      ],
      "stateMutability": "view",
      "type": "function"
    },
    {
      "inputs": [],
      "name": "DEFAULT_ADMIN_ROLE",
      "outputs": [
        {
          "internalType": "bytes32",
          "name": "",
          "type": "bytes32"
        }
      ],
      "stateMutability": "view",
      "type": "function"
    },
    {
      "inputs": [],
      "name": "bridgeConfigVersion",
      "outputs": [
        {
          "internalType": "uint256",
          "name": "",
          "type": "uint256"
        }
      ],
      "stateMutability": "view",
      "type": "function"
    },
    {
      "inputs": [
        {
          "internalType": "string",
          "name": "tokenAddress",
          "type": "string"
        },
        {
          "internalType": "uint256",
          "name": "chainID",
          "type": "uint256"
        },
        {
          "internalType": "uint256",
          "name": "amount",
          "type": "uint256"
        }
      ],
      "name": "calculateSwapFee",
      "outputs": [
        {
          "internalType": "uint256",
          "name": "",
          "type": "uint256"
        }
      ],
      "stateMutability": "view",
      "type": "function"
    },
    {
      "inputs": [
        {
          "internalType": "address",
          "name": "tokenAddress",
          "type": "address"
        },
        {
          "internalType": "uint256",
          "name": "chainID",
          "type": "uint256"
        },
        {
          "internalType": "uint256",
          "name": "amount",
          "type": "uint256"
        }
      ],
      "name": "calculateSwapFee",
      "outputs": [
        {
          "internalType": "uint256",
          "name": "",
          "type": "uint256"
        }
      ],
      "stateMutability": "view",
      "type": "function"
    },
    {
      "inputs": [],
      "name": "getAllTokenIDs",
      "outputs": [
        {
          "internalType": "string[]",
          "name": "result",
          "type": "string[]"
        }
      ],
      "stateMutability": "view",
      "type": "function"
    },
    {
      "inputs": [
        {
          "internalType": "uint256",
          "name": "chainID",
          "type": "uint256"
        }
      ],
      "name": "getMaxGasPrice",
      "outputs": [
        {
          "internalType": "uint256",
          "name": "",
          "type": "uint256"
        }
      ],
      "stateMutability": "view",
      "type": "function"
    },
    {
      "inputs": [
        {
          "internalType": "address",
          "name": "tokenAddress",
          "type": "address"
        },
        {
          "internalType": "uint256",
          "name": "chainID",
          "type": "uint256"
        }
      ],
      "name": "getPoolConfig",
      "outputs": [
        {
          "components": [
            {
              "internalType": "address",
              "name": "tokenAddress",
              "type": "address"
            },
            {
              "internalType": "uint256",
              "name": "chainId",
              "type": "uint256"
            },
            {
              "internalType": "address",
              "name": "poolAddress",
              "type": "address"
            },
            {
              "internalType": "bool",
              "name": "metaswap",
              "type": "bool"
            }
          ],
          "internalType": "struct BridgeConfigV3.Pool",
          "name": "",
          "type": "tuple"
        }
      ],
      "stateMutability": "view",
      "type": "function"
    },
    {
      "inputs": [
        {
          "internalType": "bytes32",
          "name": "role",
          "type": "bytes32"
        }
      ],
      "name": "getRoleAdmin",
      "outputs": [
        {
          "internalType": "bytes32",
          "name": "",
          "type": "bytes32"
        }
      ],
      "stateMutability": "view",
      "type": "function"
    },
    {
      "inputs": [
        {
          "internalType": "bytes32",
          "name": "role",
          "type": "bytes32"
        },
        {
          "internalType": "uint256",
          "name": "index",
          "type": "uint256"
        }
      ],
      "name": "getRoleMember",
      "outputs": [
        {
          "internalType": "address",
          "name": "",
          "type": "address"
        }
      ],
      "stateMutability": "view",
      "type": "function"
    },
    {
      "inputs": [
        {
          "internalType": "bytes32",
          "name": "role",
          "type": "bytes32"
        }
      ],
      "name": "getRoleMemberCount",
      "outputs": [
        {
          "internalType": "uint256",
          "name": "",
          "type": "uint256"
        }
      ],
      "stateMutability": "view",
      "type": "function"
    },
    {
      "inputs": [
        {
          "internalType": "string",
          "name": "tokenID",
          "type": "string"
        },
        {
          "internalType": "uint256",
          "name": "chainID",
          "type": "uint256"
        }
      ],
      "name": "getToken",
      "outputs": [
        {
          "components": [
            {
              "internalType": "uint256",
              "name": "chainId",
              "type": "uint256"
            },
            {
              "internalType": "string",
              "name": "tokenAddress",
              "type": "string"
            },
            {
              "internalType": "uint8",
              "name": "tokenDecimals",
              "type": "uint8"
            },
            {
              "internalType": "uint256",
              "name": "maxSwap",
              "type": "uint256"
            },
            {
              "internalType": "uint256",
              "name": "minSwap",
              "type": "uint256"
            },
            {
              "internalType": "uint256",
              "name": "swapFee",
              "type": "uint256"
            },
            {
              "internalType": "uint256",
              "name": "maxSwapFee",
              "type": "uint256"
            },
            {
              "internalType": "uint256",
              "name": "minSwapFee",
              "type": "uint256"
            },
            {
              "internalType": "bool",
              "name": "hasUnderlying",
              "type": "bool"
            },
            {
              "internalType": "bool",
              "name": "isUnderlying",
              "type": "bool"
            }
          ],
          "internalType": "struct BridgeConfigV3.Token",
          "name": "token",
          "type": "tuple"
        }
      ],
      "stateMutability": "view",
      "type": "function"
    },
    {
      "inputs": [
        {
          "internalType": "string",
          "name": "tokenAddress",
          "type": "string"
        },
        {
          "internalType": "uint256",
          "name": "chainID",
          "type": "uint256"
        }
      ],
      "name": "getTokenByAddress",
      "outputs": [
        {
          "components": [
            {
              "internalType": "uint256",
              "name": "chainId",
              "type": "uint256"
            },
            {
              "internalType": "string",
              "name": "tokenAddress",
              "type": "string"
            },
            {
              "internalType": "uint8",
              "name": "tokenDecimals",
              "type": "uint8"
            },
            {
              "internalType": "uint256",
              "name": "maxSwap",
              "type": "uint256"
            },
            {
              "internalType": "uint256",
              "name": "minSwap",
              "type": "uint256"
            },
            {
              "internalType": "uint256",
              "name": "swapFee",
              "type": "uint256"
            },
            {
              "internalType": "uint256",
              "name": "maxSwapFee",
              "type": "uint256"
            },
            {
              "internalType": "uint256",
              "name": "minSwapFee",
              "type": "uint256"
            },
            {
              "internalType": "bool",
              "name": "hasUnderlying",
              "type": "bool"
            },
            {
              "internalType": "bool",
              "name": "isUnderlying",
              "type": "bool"
            }
          ],
          "internalType": "struct BridgeConfigV3.Token",
          "name": "token",
          "type": "tuple"
        }
      ],
      "stateMutability": "view",
      "type": "function"
    },
    {
      "inputs": [
        {
          "internalType": "address",
          "name": "tokenAddress",
          "type": "address"
        },
        {
          "internalType": "uint256",
          "name": "chainID",
          "type": "uint256"
        }
      ],
      "name": "getTokenByEVMAddress",
      "outputs": [
        {
          "components": [
            {
              "internalType": "uint256",
              "name": "chainId",
              "type": "uint256"
            },
            {
              "internalType": "string",
              "name": "tokenAddress",
              "type": "string"
            },
            {
              "internalType": "uint8",
              "name": "tokenDecimals",
              "type": "uint8"
            },
            {
              "internalType": "uint256",
              "name": "maxSwap",
              "type": "uint256"
            },
            {
              "internalType": "uint256",
              "name": "minSwap",
              "type": "uint256"
            },
            {
              "internalType": "uint256",
              "name": "swapFee",
              "type": "uint256"
            },
            {
              "internalType": "uint256",
              "name": "maxSwapFee",
              "type": "uint256"
            },
            {
              "internalType": "uint256",
              "name": "minSwapFee",
              "type": "uint256"
            },
            {
              "internalType": "bool",
              "name": "hasUnderlying",
              "type": "bool"
            },
            {
              "internalType": "bool",
              "name": "isUnderlying",
              "type": "bool"
            }
          ],
          "internalType": "struct BridgeConfigV3.Token",
          "name": "token",
          "type": "tuple"
        }
      ],
      "stateMutability": "view",
      "type": "function"
    },
    {
      "inputs": [
        {
          "internalType": "string",
          "name": "tokenID",
          "type": "string"
        },
        {
          "internalType": "uint256",
          "name": "chainID",
          "type": "uint256"
        }
      ],
      "name": "getTokenByID",
      "outputs": [
        {
          "components": [
            {
              "internalType": "uint256",
              "name": "chainId",
              "type": "uint256"
            },
            {
              "internalType": "string",
              "name": "tokenAddress",
              "type": "string"
            },
            {
              "internalType": "uint8",
              "name": "tokenDecimals",
              "type": "uint8"
            },
            {
              "internalType": "uint256",
              "name": "maxSwap",
              "type": "uint256"
            },
            {
              "internalType": "uint256",
              "name": "minSwap",
              "type": "uint256"
            },
            {
              "internalType": "uint256",
              "name": "swapFee",
              "type": "uint256"
            },
            {
              "internalType": "uint256",
              "name": "maxSwapFee",
              "type": "uint256"
            },
            {
              "internalType": "uint256",
              "name": "minSwapFee",
              "type": "uint256"
            },
            {
              "internalType": "bool",
              "name": "hasUnderlying",
              "type": "bool"
            },
            {
              "internalType": "bool",
              "name": "isUnderlying",
              "type": "bool"
            }
          ],
          "internalType": "struct BridgeConfigV3.Token",
          "name": "token",
          "type": "tuple"
        }
      ],
      "stateMutability": "view",
      "type": "function"
    },
    {
      "inputs": [
        {
          "internalType": "address",
          "name": "tokenAddress",
          "type": "address"
        },
        {
          "internalType": "uint256",
          "name": "chainID",
          "type": "uint256"
        }
      ],
      "name": "getTokenID",
      "outputs": [
        {
          "internalType": "string",
          "name": "",
          "type": "string"
        }
      ],
      "stateMutability": "view",
      "type": "function"
    },
    {
      "inputs": [
        {
          "internalType": "string",
          "name": "tokenAddress",
          "type": "string"
        },
        {
          "internalType": "uint256",
          "name": "chainID",
          "type": "uint256"
        }
      ],
      "name": "getTokenID",
      "outputs": [
        {
          "internalType": "string",
          "name": "",
          "type": "string"
        }
      ],
      "stateMutability": "view",
      "type": "function"
    },
    {
      "inputs": [
        {
          "internalType": "string",
          "name": "tokenID",
          "type": "string"
        }
      ],
      "name": "getUnderlyingToken",
      "outputs": [
        {
          "components": [
            {
              "internalType": "uint256",
              "name": "chainId",
              "type": "uint256"
            },
            {
              "internalType": "string",
              "name": "tokenAddress",
              "type": "string"
            },
            {
              "internalType": "uint8",
              "name": "tokenDecimals",
              "type": "uint8"
            },
            {
              "internalType": "uint256",
              "name": "maxSwap",
              "type": "uint256"
            },
            {
              "internalType": "uint256",
              "name": "minSwap",
              "type": "uint256"
            },
            {
              "internalType": "uint256",
              "name": "swapFee",
              "type": "uint256"
            },
            {
              "internalType": "uint256",
              "name": "maxSwapFee",
              "type": "uint256"
            },
            {
              "internalType": "uint256",
              "name": "minSwapFee",
              "type": "uint256"
            },
            {
              "internalType": "bool",
              "name": "hasUnderlying",
              "type": "bool"
            },
            {
              "internalType": "bool",
              "name": "isUnderlying",
              "type": "bool"
            }
          ],
          "internalType": "struct BridgeConfigV3.Token",
          "name": "token",
          "type": "tuple"
        }
      ],
      "stateMutability": "view",
      "type": "function"
    },
    {
      "inputs": [
        {
          "internalType": "bytes32",
          "name": "role",
          "type": "bytes32"
        },
        {
          "internalType": "address",
          "name": "account",
          "type": "address"
        }
      ],
      "name": "grantRole",
      "outputs": [],
      "stateMutability": "nonpayable",
      "type": "function"
    },
    {
      "inputs": [
        {
          "internalType": "bytes32",
          "name": "role",
          "type": "bytes32"
        },
        {
          "internalType": "address",
          "name": "account",
          "type": "address"
        }
      ],
      "name": "hasRole",
      "outputs": [
        {
          "internalType": "bool",
          "name": "",
          "type": "bool"
        }
      ],
      "stateMutability": "view",
      "type": "function"
    },
    {
      "inputs": [
        {
          "internalType": "string",
          "name": "tokenID",
          "type": "string"
        }
      ],
      "name": "hasUnderlyingToken",
      "outputs": [
        {
          "internalType": "bool",
          "name": "",
          "type": "bool"
        }
      ],
      "stateMutability": "view",
      "type": "function"
    },
    {
      "inputs": [
        {
          "internalType": "string",
          "name": "tokenID",
          "type": "string"
        }
      ],
      "name": "isTokenIDExist",
      "outputs": [
        {
          "internalType": "bool",
          "name": "",
          "type": "bool"
        }
      ],
      "stateMutability": "view",
      "type": "function"
    },
    {
      "inputs": [
        {
          "internalType": "bytes32",
          "name": "role",
          "type": "bytes32"
        },
        {
          "internalType": "address",
          "name": "account",
          "type": "address"
        }
      ],
      "name": "renounceRole",
      "outputs": [],
      "stateMutability": "nonpayable",
      "type": "function"
    },
    {
      "inputs": [
        {
          "internalType": "bytes32",
          "name": "role",
          "type": "bytes32"
        },
        {
          "internalType": "address",
          "name": "account",
          "type": "address"
        }
      ],
      "name": "revokeRole",
      "outputs": [],
      "stateMutability": "nonpayable",
      "type": "function"
    },
    {
      "inputs": [
        {
          "internalType": "uint256",
          "name": "chainID",
          "type": "uint256"
        },
        {
          "internalType": "uint256",
          "name": "maxPrice",
          "type": "uint256"
        }
      ],
      "name": "setMaxGasPrice",
      "outputs": [],
      "stateMutability": "nonpayable",
      "type": "function"
    },
    {
      "inputs": [
        {
          "internalType": "address",
          "name": "tokenAddress",
          "type": "address"
        },
        {
          "internalType": "uint256",
          "name": "chainID",
          "type": "uint256"
        },
        {
          "internalType": "address",
          "name": "poolAddress",
          "type": "address"
        },
        {
          "internalType": "bool",
          "name": "metaswap",
          "type": "bool"
        }
      ],
      "name": "setPoolConfig",
      "outputs": [
        {
          "components": [
            {
              "internalType": "address",
              "name": "tokenAddress",
              "type": "address"
            },
            {
              "internalType": "uint256",
              "name": "chainId",
              "type": "uint256"
            },
            {
              "internalType": "address",
              "name": "poolAddress",
              "type": "address"
            },
            {
              "internalType": "bool",
              "name": "metaswap",
              "type": "bool"
            }
          ],
          "internalType": "struct BridgeConfigV3.Pool",
          "name": "",
          "type": "tuple"
        }
      ],
      "stateMutability": "nonpayable",
      "type": "function"
    },
    {
      "inputs": [
        {
          "internalType": "string",
          "name": "tokenID",
          "type": "string"
        },
        {
          "internalType": "uint256",
          "name": "chainID",
          "type": "uint256"
        },
        {
          "internalType": "address",
          "name": "tokenAddress",
          "type": "address"
        },
        {
          "internalType": "uint8",
          "name": "tokenDecimals",
          "type": "uint8"
        },
        {
          "internalType": "uint256",
          "name": "maxSwap",
          "type": "uint256"
        },
        {
          "internalType": "uint256",
          "name": "minSwap",
          "type": "uint256"
        },
        {
          "internalType": "uint256",
          "name": "swapFee",
          "type": "uint256"
        },
        {
          "internalType": "uint256",
          "name": "maxSwapFee",
          "type": "uint256"
        },
        {
          "internalType": "uint256",
          "name": "minSwapFee",
          "type": "uint256"
        },
        {
          "internalType": "bool",
          "name": "hasUnderlying",
          "type": "bool"
        },
        {
          "internalType": "bool",
          "name": "isUnderlying",
          "type": "bool"
        }
      ],
      "name": "setTokenConfig",
      "outputs": [
        {
          "internalType": "bool",
          "name": "",
          "type": "bool"
        }
      ],
      "stateMutability": "nonpayable",
      "type": "function"
    },
    {
      "inputs": [
        {
          "internalType": "string",
          "name": "tokenID",
          "type": "string"
        },
        {
          "internalType": "uint256",
          "name": "chainID",
          "type": "uint256"
        },
        {
          "internalType": "string",
          "name": "tokenAddress",
          "type": "string"
        },
        {
          "internalType": "uint8",
          "name": "tokenDecimals",
          "type": "uint8"
        },
        {
          "internalType": "uint256",
          "name": "maxSwap",
          "type": "uint256"
        },
        {
          "internalType": "uint256",
          "name": "minSwap",
          "type": "uint256"
        },
        {
          "internalType": "uint256",
          "name": "swapFee",
          "type": "uint256"
        },
        {
          "internalType": "uint256",
          "name": "maxSwapFee",
          "type": "uint256"
        },
        {
          "internalType": "uint256",
          "name": "minSwapFee",
          "type": "uint256"
        },
        {
          "internalType": "bool",
          "name": "hasUnderlying",
          "type": "bool"
        },
        {
          "internalType": "bool",
          "name": "isUnderlying",
          "type": "bool"
        }
      ],
      "name": "setTokenConfig",
      "outputs": [
        {
          "internalType": "bool",
          "name": "",
          "type": "bool"
        }
      ],
      "stateMutability": "nonpayable",
      "type": "function"
    }
  ],
  "transactionHash": "0x5beb8b3f085472534d9e24c5b8292c44a5ac750a71e63cb57ef016ab0a6b12e5",
  "args": [],
  "solcInputHash": "bb6523bae5307469530d9badcb427ea9",
  "bytecode": "0x60806040523480156200001157600080fd5b506200001f60003362000025565b62000139565b62000031828262000035565b5050565b6000828152602081815260409091206200005a91839062001098620000ae821b17901c565b1562000031576200006a620000ce565b6001600160a01b0316816001600160a01b0316837f2f8788117e7eff1d82e926ec794901d17c78024a50270940304540a733656f0d60405160405180910390a45050565b6000620000c5836001600160a01b038416620000d2565b90505b92915050565b3390565b6000620000e0838362000121565b6200011857508154600181810184556000848152602080822090930184905584548482528286019093526040902091909155620000c8565b506000620000c8565b60009081526001919091016020526040902054151590565b612ae180620001496000396000f3fe608060405234801561001057600080fd5b50600436106101c45760003560e01c80637e355e5e116100f9578063d547741f11610097578063efd7516e11610071578063efd7516e146103c3578063fc7cc4cb146103d6578063fd534b33146103e9578063ff9106c7146103fc576101c4565b8063d547741f1461038a578063ddb543991461039d578063e814157d146103b0576101c4565b8063a217fddf116100d3578063a217fddf14610349578063abaac00814610351578063af611ca014610364578063ca15c87314610377576101c4565b80637e355e5e146103035780639010d07c1461031657806391d1485414610336576101c4565b80633cc1c7e01161016657806359053bfe1161014057806359053bfe146102bb578063684a10b3146102ce57806372fb43d9146102e357806377b8cbf714610242576101c4565b80633cc1c7e014610275578063558dae3a1461029557806358dfe6f1146102a8576101c4565b80632c02799e116101a25780632c02799e146102255780632f2ff15d1461022d578063324980b51461024257806336568abe14610262576101c4565b8063074b7e97146101c95780630a62a9cb146101f2578063248a9ca314610212575b600080fd5b6101dc6101d7366004612551565b610404565b6040516101e99190612725565b60405180910390f35b6102056102003660046125c7565b6105d3565b6040516101e99190612730565b610205610220366004612397565b6105f2565b610205610607565b61024061023b3660046123af565b61060c565b005b610255610250366004612584565b610677565b6040516101e991906129d7565b6102406102703660046123af565b6107cb565b6102886102833660046122e6565b610841565b6040516101e99190612739565b6102556102a33660046122e6565b61085d565b6102556102b6366004612551565b610942565b6101dc6102c9366004612417565b610b25565b6102d6610b87565b6040516101e991906126a7565b6102f66102f13660046122e6565b610c2a565b6040516101e9919061298b565b6102f6610311366004612310565b610cb4565b6103296103243660046123f6565b610e0f565b6040516101e99190612686565b6101dc6103443660046123af565b610e27565b610205610e3f565b61024061035f3660046123f6565b610e44565b6101dc610372366004612551565b610e89565b610205610385366004612397565b610e9c565b6102406103983660046123af565b610eb3565b6101dc6103ab3660046124d9565b610f07565b6102556103be366004612584565b611020565b6102886103d1366004612584565b611043565b6102056103e4366004612364565b611051565b6102056103f7366004612397565b611062565b610205611074565b600080610410836110ba565b600081815260026020908152604080832080548251818502810185019093528083529495506060949193909284015b8282101561058257838290600052602060002090600902016040518061014001604052908160008201548152602001600182018054600181600116156101000203166002900480601f0160208091040260200160405190810160405280929190818152602001828054600181600116156101000203166002900480156105065780601f106104db57610100808354040283529160200191610506565b820191906000526020600020905b8154815290600101906020018083116104e957829003601f168201915b5050509183525050600282015460ff908116602080840191909152600384015460408401526004840154606084015260058401546080840152600684015460a0840152600784015460c0840152600890930154808216151560e0840152610100908190049091161515910152908252600192909201910161043f565b50505050905060005b81518110156105c6578181815181106105a057fe5b60200260200101516101000151156105be57600193505050506105ce565b60010161058b565b506000925050505b919050565b60006105e86105e1856110d3565b848461122d565b90505b9392505050565b60009081526020819052604090206002015490565b600381565b60008281526020819052604090206002015461062a90610344611410565b610669576040517f08c379a0000000000000000000000000000000000000000000000000000000008152600401610660906127a9565b60405180910390fd5b6106738282611414565b5050565b61067f6120aa565b6004600061068c856110ba565b815260200190815260200160002060008381526020019081526020016000206040518061014001604052908160008201548152602001600182018054600181600116156101000203166002900480601f01602080910402602001604051908101604052809291908181526020018280546001816001161561010002031660029004801561075a5780601f1061072f5761010080835404028352916020019161075a565b820191906000526020600020905b81548152906001019060200180831161073d57829003601f168201915b5050509183525050600282015460ff9081166020830152600383015460408301526004830154606083015260058301546080830152600683015460a0830152600783015460c0830152600890920154808316151560e083015261010090819004909216151591015290505b92915050565b6107d3611410565b73ffffffffffffffffffffffffffffffffffffffff168173ffffffffffffffffffffffffffffffffffffffff1614610837576040517f08c379a00000000000000000000000000000000000000000000000000000000081526004016106609061292e565b6106738282611497565b60606105eb6108576108528561151a565b6110d3565b8361168b565b6108656120aa565b6000828152600360205260408120600491906108836108528761151a565b604051610890919061266a565b908152602001604051809103902054815260200190815260200160002060008381526020019081526020016000206040518061014001604052908160008201548152602001600182018054600181600116156101000203166002900480601f01602080910402602001604051908101604052809291908181526020018280546001816001161561010002031660029004801561075a5780601f1061072f5761010080835404028352916020019161075a565b61094a6120aa565b6000610955836110ba565b600081815260026020908152604080832080548251818502810185019093528083529495506060949193909284015b82821015610ac757838290600052602060002090600902016040518061014001604052908160008201548152602001600182018054600181600116156101000203166002900480601f016020809104026020016040519081016040528092919081815260200182805460018160011615610100020316600290048015610a4b5780601f10610a2057610100808354040283529160200191610a4b565b820191906000526020600020905b815481529060010190602001808311610a2e57829003601f168201915b5050509183525050600282015460ff908116602080840191909152600384015460408401526004840154606084015260058401546080840152600684015460a0840152600784015460c0840152600890930154808216151560e08401526101009081900490911615159101529082526001929092019101610984565b50505050905060005b8151811015610b1d57818181518110610ae557fe5b6020026020010151610120015115610b1557818181518110610b0357fe5b602002602001015193505050506105ce565b600101610ad0565b505050919050565b6000610b517f4370dcf3e42e4d5b773a451bb8390ee8e7308f47681d1414cff87c2ad0512c8533610e27565b610b5a57600080fd5b610b768d8d8d610b698e61151a565b8d8d8d8d8d8d8d8d610f07565b9d9c50505050505050505050505050565b6001546060908067ffffffffffffffff81118015610ba457600080fd5b50604051908082528060200260200182016040528015610bd857816020015b6060815260200190600190039081610bc35790505b50915060005b81811015610c2557610c0660018281548110610bf657fe5b90600052602060002001546116c1565b838281518110610c1257fe5b6020908102919091010152600101610bde565b505090565b610c32612104565b5073ffffffffffffffffffffffffffffffffffffffff918216600090815260056020908152604080832093835292815290829020825160808101845281548516815260018201549281019290925260020154928316918101919091527401000000000000000000000000000000000000000090910460ff161515606082015290565b610cbc612104565b610ce67f4370dcf3e42e4d5b773a451bb8390ee8e7308f47681d1414cff87c2ad0512c8533610e27565b610d1c576040517f08c379a0000000000000000000000000000000000000000000000000000000008152600401610660906128f7565b610d24612104565b50506040805160808101825273ffffffffffffffffffffffffffffffffffffffff8087168083526020808401888152878416858701908152871515606087019081526000948552600584528785208b865290935295909220845181549085167fffffffffffffffffffffffff0000000000000000000000000000000000000000918216178255925160018201559451600290950180549151151574010000000000000000000000000000000000000000027fffffffffffffffffffffff00ffffffffffffffffffffffffffffffffffffffff9690941691909216179390931617909155949350505050565b60008281526020819052604081206105eb90836117cd565b60008281526020819052604081206105eb90836117d9565b600081565b610e6e7f4370dcf3e42e4d5b773a451bb8390ee8e7308f47681d1414cff87c2ad0512c8533610e27565b610e7757600080fd5b60009182526006602052604090912055565b60006107c5610e97836110ba565b6117fb565b60008181526020819052604081206107c590611843565b600082815260208190526040902060020154610ed190610344611410565b610837576040517f08c379a00000000000000000000000000000000000000000000000000000000081526004016106609061283d565b6000610f337f4370dcf3e42e4d5b773a451bb8390ee8e7308f47681d1414cff87c2ad0512c8533610e27565b610f3c57600080fd5b610f446120aa565b610f4d8b6110d3565b816020018190525089816040019060ff16908160ff16815250508881606001818152505087816080018181525050868160a0018181525050858160c0018181525050848160e0018181525050838161010001901515908115158152505082816101200190151590811515815250508b81600001818152505061100e6110078f8f8080601f0160208091040260200160405190810160405280939291908181526020018383808284376000920191909152506110ba92505050565b8d8361184e565b9e9d5050505050505050505050505050565b6110286120aa565b600082815260036020526040812060049190610883866110d3565b60606105eb610857846110d3565b60006105e86105e16108528661151a565b60009081526006602052604090205490565b7f4370dcf3e42e4d5b773a451bb8390ee8e7308f47681d1414cff87c2ad0512c8581565b60006105eb8373ffffffffffffffffffffffffffffffffffffffff8416611c77565b60006020825111156110cb57600080fd5b506020015190565b6060808290506060815167ffffffffffffffff811180156110f357600080fd5b506040519080825280601f01601f19166020018201604052801561111e576020820181803683370190505b50905060005b825181101561122557604183828151811061113b57fe5b016020015160f81c108015906111655750605a83828151811061115a57fe5b016020015160f81c11155b156111ca5782818151811061117657fe5b602001015160f81c60f81b60f81c60200160f81b82828151811061119657fe5b60200101907effffffffffffffffffffffffffffffffffffffffffffffffffffffffffffff1916908160001a90535061121d565b8281815181106111d657fe5b602001015160f81c60f81b8282815181106111ed57fe5b60200101907effffffffffffffffffffffffffffffffffffffffffffffffffffffffffffff1916908160001a9053505b600101611124565b509392505050565b60006112376120aa565b6000848152600360205260408082209051600492919061125890899061266a565b908152602001604051809103902054815260200190815260200160002060008581526020019081526020016000206040518061014001604052908160008201548152602001600182018054600181600116156101000203166002900480601f0160208091040260200160405190810160405280929190818152602001828054600181600116156101000203166002900480156113355780601f1061130a57610100808354040283529160200191611335565b820191906000526020600020905b81548152906001019060200180831161131857829003601f168201915b5050509183525050600282015460ff9081166020830152600383015460408301526004830154606083015260058301546080830152600683015460a080840191909152600784015460c0840152600890930154808216151560e08401526101009081900490911615159101528101519091506000906113c6906402540be400906113c0908790611cc1565b90611d15565b90508160e00151811180156113de57508160c0015181105b156113ec5791506105eb9050565b8160c00151811115611404575060c0015190506105eb565b5060e0015190506105eb565b3390565b600082815260208190526040902061142c9082611098565b1561067357611439611410565b73ffffffffffffffffffffffffffffffffffffffff168173ffffffffffffffffffffffffffffffffffffffff16837f2f8788117e7eff1d82e926ec794901d17c78024a50270940304540a733656f0d60405160405180910390a45050565b60008281526020819052604090206114af9082611d61565b15610673576114bc611410565b73ffffffffffffffffffffffffffffffffffffffff168173ffffffffffffffffffffffffffffffffffffffff16837ff6391f5c32d9c69d2a47ea670b442974b53935d1edc7fd64eb21e047a839171b60405160405180910390a45050565b604080516028808252606082810190935282919060208201818036833701905050905060005b60148110156116445760008160130360080260020a8573ffffffffffffffffffffffffffffffffffffffff168161157357fe5b0460f81b9050600060108260f81c60ff168161158b57fe5b0460f81b905060008160f81c6010028360f81c0360f81b90506115ad82611d83565b8585600202815181106115bc57fe5b60200101907effffffffffffffffffffffffffffffffffffffffffffffffffffffffffffff1916908160001a9053506115f481611d83565b85856002026001018151811061160657fe5b60200101907effffffffffffffffffffffffffffffffffffffffffffffffffffffffffffff1916908160001a90535050600190920191506115409050565b5060408051808201909152600281527f307800000000000000000000000000000000000000000000000000000000000060208201526116838183611db1565b949350505050565b60606105eb60036000848152602001908152602001600020846040516116b1919061266a565b9081526020016040518091039020545b606060005b60208160ff1610801561170c5750828160ff16602081106116e357fe5b1a60f81b7fff000000000000000000000000000000000000000000000000000000000000001615155b15611719576001016116c6565b60608160ff1667ffffffffffffffff8111801561173557600080fd5b506040519080825280601f01601f191660200182016040528015611760576020820181803683370190505b50905060005b8260ff168160ff16101561122557848160ff166020811061178357fe5b1a60f81b828260ff168151811061179657fe5b60200101907effffffffffffffffffffffffffffffffffffffffffffffffffffffffffffff1916908160001a905350600101611766565b60006105eb8383611ef2565b60006105eb8373ffffffffffffffffffffffffffffffffffffffff8416611f51565b6000805b60015481101561183a57826001828154811061181757fe5b906000526020600020015414156118325760019150506105ce565b6001016117ff565b50600092915050565b60006107c582611f69565b60008381526004602090815260408083208584528252822083518155818401518051859361188392600185019291019061212b565b50604082015160028201805460ff9092167fffffffffffffffffffffffffffffffffffffffffffffffffffffffffffffff00928316179055606083015160038301556080830151600483015560a0830151600583015560c0830151600683015560e0830151600783015561010080840151600890930180546101209095015115159091027fffffffffffffffffffffffffffffffffffffffffffffffffffffffffffff00ff931515949092169390931791909116179055611943846117fb565b61197c576001805480820182556000919091527fb10e2d527612073b26eecdfd717e6a320cf44b4afac2b0732d9fcbe2b7fa0cf6018490555b6000848152600260205260408120905b8154811015611b4857848282815481106119a257fe5b9060005260206000209060090201600001541415611b405760608282815481106119c857fe5b90600052602060002090600902016001018054600181600116156101000203166002900480601f016020809104026020016040519081016040528092919081815260200182805460018160011615610100020316600290048015611a6d5780601f10611a4257610100808354040283529160200191611a6d565b820191906000526020600020905b815481529060010190602001808311611a5057829003601f168201915b50505050509050611a82856020015182611f6d565b611b3e578460200151838381548110611a9757fe5b90600052602060002090600902016001019080519060200190611abb92919061212b565b507fc5d2460186f7233c927e7db2dcc703c0e500b653ca82273b7bfad8045d85a4706003600088815260200190815260200160002082604051611afe919061266a565b90815260408051602092819003830181209390935560008981526003835220908701518992611b2d919061266a565b908152604051908190036020019020555b505b60010161198c565b5080546001818101835560008381526020908190208651600990940201928355808601518051879493611b809390850192019061212b565b5060408281015160028301805460ff9092167fffffffffffffffffffffffffffffffffffffffffffffffffffffffffffffff0092831617905560608401516003808501919091556080850151600485015560a0850151600585015560c0850151600685015560e0850151600785015561010080860151600890950180546101209097015115159091027fffffffffffffffffffffffffffffffffffffffffffffffffffffffffffff00ff95151596909316959095179390931617909255600086815260209182528290209085015191518792611c5b9161266a565b9081526040519081900360200190205550600190509392505050565b6000611c838383611f51565b611cb9575081546001818101845560008481526020808220909301849055845484825282860190935260409020919091556107c5565b5060006107c5565b600082611cd0575060006107c5565b82820282848281611cdd57fe5b04146105eb576040517f08c379a00000000000000000000000000000000000000000000000000000000081526004016106609061289a565b6000808211611d50576040517f08c379a000000000000000000000000000000000000000000000000000000000815260040161066090612806565b818381611d5957fe5b049392505050565b60006105eb8373ffffffffffffffffffffffffffffffffffffffff8416611fc6565b6000600a60f883901c1015611da3578160f81c60300160f81b90506105ce565b50605760f891821c01901b90565b805182516060918491849184910167ffffffffffffffff81118015611dd557600080fd5b506040519080825280601f01601f191660200182016040528015611e00576020820181803683370190505b509050806000805b8551821015611e7457858281518110611e1d57fe5b602001015160f81c60f81b838280600101935081518110611e3a57fe5b60200101907effffffffffffffffffffffffffffffffffffffffffffffffffffffffffffff1916908160001a905350600190910190611e08565b600091505b8451821015611ee557848281518110611e8e57fe5b602001015160f81c60f81b838280600101935081518110611eab57fe5b60200101907effffffffffffffffffffffffffffffffffffffffffffffffffffffffffffff1916908160001a905350600190910190611e79565b5090979650505050505050565b81546000908210611f2f576040517f08c379a00000000000000000000000000000000000000000000000000000000081526004016106609061274c565b826000018281548110611f3e57fe5b9060005260206000200154905092915050565b60009081526001919091016020526040902054151590565b5490565b600081604051602001611f80919061266a565b6040516020818303038152906040528051906020012083604051602001611fa7919061266a565b6040516020818303038152906040528051906020012014905092915050565b600081815260018301602052604081205480156120a05783547fffffffffffffffffffffffffffffffffffffffffffffffffffffffffffffffff808301919081019060009087908390811061201757fe5b906000526020600020015490508087600001848154811061203457fe5b60009182526020808320909101929092558281526001898101909252604090209084019055865487908061206457fe5b600190038181906000526020600020016000905590558660010160008781526020019081526020016000206000905560019450505050506107c5565b60009150506107c5565b6040518061014001604052806000815260200160608152602001600060ff16815260200160008152602001600081526020016000815260200160008152602001600081526020016000151581526020016000151581525090565b60408051608081018252600080825260208201819052918101829052606081019190915290565b828054600181600116156101000203166002900490600052602060002090601f016020900481019282601f1061216c57805160ff1916838001178555612199565b82800160010185558215612199579182015b8281111561219957825182559160200191906001019061217e565b506121a59291506121a9565b5090565b5b808211156121a557600081556001016121aa565b803573ffffffffffffffffffffffffffffffffffffffff811681146107c557600080fd5b803580151581146107c557600080fd5b60008083601f840112612203578182fd5b50813567ffffffffffffffff81111561221a578182fd5b60208301915083602082850101111561223257600080fd5b9250929050565b600082601f830112612249578081fd5b813567ffffffffffffffff80821115612260578283fd5b60405160207fffffffffffffffffffffffffffffffffffffffffffffffffffffffffffffffe0601f850116820101818110838211171561229e578485fd5b6040528281529250828483016020018610156122b957600080fd5b8260208601602083013760006020848301015250505092915050565b803560ff811681146107c557600080fd5b600080604083850312156122f8578182fd5b61230284846121be565b946020939093013593505050565b60008060008060808587031215612325578182fd5b61232f86866121be565b93506020850135925061234586604087016121be565b915060608501358015158114612359578182fd5b939692955090935050565b600080600060608486031215612378578283fd5b61238285856121be565b95602085013595506040909401359392505050565b6000602082840312156123a8578081fd5b5035919050565b600080604083850312156123c1578182fd5b82359150602083013573ffffffffffffffffffffffffffffffffffffffff811681146123eb578182fd5b809150509250929050565b60008060408385031215612408578182fd5b50508035926020909101359150565b6000806000806000806000806000806000806101608d8f031215612439578788fd5b67ffffffffffffffff8d35111561244e578788fd5b61245b8e8e358f016121f2565b909c509a5060208d013599506124748e60408f016121be565b98506124838e60608f016122d5565b975060808d0135965060a08d0135955060c08d0135945060e08d013593506101008d013592506124b78e6101208f016121e2565b91506124c78e6101408f016121e2565b90509295989b509295989b509295989b565b6000806000806000806000806000806000806101608d8f0312156124fb578081fd5b67ffffffffffffffff8d351115612510578081fd5b61251d8e8e358f016121f2565b909c509a5060208d0135995067ffffffffffffffff60408e01351115612541578081fd5b6124748e60408f01358f01612239565b600060208284031215612562578081fd5b813567ffffffffffffffff811115612578578182fd5b61168384828501612239565b60008060408385031215612596578182fd5b823567ffffffffffffffff8111156125ac578283fd5b6125b885828601612239565b95602094909401359450505050565b6000806000606084860312156125db578081fd5b833567ffffffffffffffff8111156125f1578182fd5b6125fd86828701612239565b9660208601359650604090950135949350505050565b15159052565b60008151808452612631816020860160208601612a7b565b601f017fffffffffffffffffffffffffffffffffffffffffffffffffffffffffffffffe0169290920160200192915050565b60ff169052565b6000825161267c818460208701612a7b565b9190910192915050565b73ffffffffffffffffffffffffffffffffffffffff91909116815260200190565b6000602080830181845280855180835260408601915060408482028701019250838701855b82811015612718577fffffffffffffffffffffffffffffffffffffffffffffffffffffffffffffffc0888603018452612706858351612619565b945092850192908501906001016126cc565b5092979650505050505050565b901515815260200190565b90815260200190565b6000602082526105eb6020830184612619565b60208082526022908201527f456e756d657261626c655365743a20696e646578206f7574206f6620626f756e60408201527f6473000000000000000000000000000000000000000000000000000000000000606082015260800190565b6020808252602f908201527f416363657373436f6e74726f6c3a2073656e646572206d75737420626520616e60408201527f2061646d696e20746f206772616e740000000000000000000000000000000000606082015260800190565b6020808252601a908201527f536166654d6174683a206469766973696f6e206279207a65726f000000000000604082015260600190565b60208082526030908201527f416363657373436f6e74726f6c3a2073656e646572206d75737420626520616e60408201527f2061646d696e20746f207265766f6b6500000000000000000000000000000000606082015260800190565b60208082526021908201527f536166654d6174683a206d756c7469706c69636174696f6e206f766572666c6f60408201527f7700000000000000000000000000000000000000000000000000000000000000606082015260800190565b6020808252601c908201527f43616c6c6572206973206e6f7420427269646765204d616e6167657200000000604082015260600190565b6020808252602f908201527f416363657373436f6e74726f6c3a2063616e206f6e6c792072656e6f756e636560408201527f20726f6c657320666f722073656c660000000000000000000000000000000000606082015260800190565b600060808201905073ffffffffffffffffffffffffffffffffffffffff808451168352602084015160208401528060408501511660408401525060608301511515606083015292915050565b600060208252825160208301526020830151610140806040850152612a00610160850183612619565b91506040850151612a146060860182612663565b5060608501516080850152608085015160a085015260a085015160c085015260c085015160e085015260e0850151610100818187015280870151915050610120612a6081870183612613565b8601519050612a7185830182612613565b5090949350505050565b60005b83811015612a96578181015183820152602001612a7e565b83811115612aa5576000848401525b5050505056fea26469706673582212205f1b88fb781d1c4d09bda296020462f42a840855295b5461d856d321dec508e464736f6c634300060c0033",
  "devdoc": {
    "kind": "dev",
    "methods": {
      "calculateSwapFee(address,uint256,uint256)": {
        "details": "This means the fee should be calculated based on the chain that the nodes emit a tx on",
        "params": {
          "amount": "in native token decimals",
          "chainID": "destination chain ID to query the token config for",
          "tokenAddress": "address of the destination token to query token config for"
        },
        "returns": {
          "_0": "Fee calculated in token decimals"
        }
      },
      "calculateSwapFee(string,uint256,uint256)": {
        "details": "This means the fee should be calculated based on the chain that the nodes emit a tx on",
        "params": {
          "amount": "in native token decimals",
          "chainID": "destination chain ID to query the token config for",
          "tokenAddress": "address of the destination token to query token config for"
        },
        "returns": {
          "_0": "Fee calculated in token decimals"
        }
      },
      "getRoleAdmin(bytes32)": {
        "details": "Returns the admin role that controls `role`. See {grantRole} and {revokeRole}. To change a role's admin, use {_setRoleAdmin}."
      },
      "getRoleMember(bytes32,uint256)": {
        "details": "Returns one of the accounts that have `role`. `index` must be a value between 0 and {getRoleMemberCount}, non-inclusive. Role bearers are not sorted in any particular way, and their ordering may change at any point. WARNING: When using {getRoleMember} and {getRoleMemberCount}, make sure you perform all queries on the same block. See the following https://forum.openzeppelin.com/t/iterating-over-elements-on-enumerableset-in-openzeppelin-contracts/2296[forum post] for more information."
      },
      "getRoleMemberCount(bytes32)": {
        "details": "Returns the number of accounts that have `role`. Can be used together with {getRoleMember} to enumerate all bearers of a role."
      },
      "getToken(string,uint256)": {
        "params": {
          "chainID": "Chain ID of which token address + config to get",
          "tokenID": "String input of the token ID for the token"
        }
      },
      "getTokenByAddress(string,uint256)": {
        "params": {
          "chainID": "Chain ID of which token to get config for",
          "tokenAddress": "Matches the token ID by using a combo of address + chain ID"
        }
      },
      "getTokenByID(string,uint256)": {
        "params": {
          "chainID": "Chain ID of which token address + config to get",
          "tokenID": "String input of the token ID for the token"
        }
      },
      "getTokenID(address,uint256)": {
        "params": {
          "chainID": "chainID of which to get token ID for",
          "tokenAddress": "address of token to get ID for"
        }
      },
      "getUnderlyingToken(string)": {
        "params": {
          "tokenID": "string token ID"
        }
      },
      "grantRole(bytes32,address)": {
        "details": "Grants `role` to `account`. If `account` had not been already granted `role`, emits a {RoleGranted} event. Requirements: - the caller must have ``role``'s admin role."
      },
      "hasRole(bytes32,address)": {
        "details": "Returns `true` if `account` has been granted `role`."
      },
      "hasUnderlyingToken(string)": {
        "params": {
          "tokenID": "String to check if it is a withdraw/underlying token"
        }
      },
      "renounceRole(bytes32,address)": {
        "details": "Revokes `role` from the calling account. Roles are often managed via {grantRole} and {revokeRole}: this function's purpose is to provide a mechanism for accounts to lose their privileges if they are compromised (such as when a trusted device is misplaced). If the calling account had been granted `role`, emits a {RoleRevoked} event. Requirements: - the caller must be `account`."
      },
      "revokeRole(bytes32,address)": {
        "details": "Revokes `role` from `account`. If `account` had been granted `role`, emits a {RoleRevoked} event. Requirements: - the caller must have ``role``'s admin role."
      },
      "setTokenConfig(string,uint256,address,uint8,uint256,uint256,uint256,uint256,uint256,bool,bool)": {
        "params": {
          "chainID": "chain ID to use for the token config object",
          "hasUnderlying": "bool which represents whether this is a global mint token or one to withdraw()",
          "isUnderlying": "bool which represents if this token is the one to withdraw on the given chain",
          "maxSwap": "maximum amount of token allowed to be transferred at once - in native token decimals",
          "maxSwapFee": "max swap fee to be charged - in native token decimals",
          "minSwap": "minimum amount of token needed to be transferred at once - in native token decimals",
          "minSwapFee": "min swap fee to be charged - in native token decimals - especially useful for mainnet ETH",
          "swapFee": "percent based swap fee -- 10e6 == 10bps",
          "tokenAddress": "token address of the token on the given chain",
          "tokenDecimals": "decimals of token",
          "tokenID": "string ID to set the token config object form"
        }
      },
      "setTokenConfig(string,uint256,string,uint8,uint256,uint256,uint256,uint256,uint256,bool,bool)": {
        "params": {
          "chainID": "chain ID to use for the token config object",
          "hasUnderlying": "bool which represents whether this is a global mint token or one to withdraw()",
          "isUnderlying": "bool which represents if this token is the one to withdraw on the given chain",
          "maxSwap": "maximum amount of token allowed to be transferred at once - in native token decimals",
          "maxSwapFee": "max swap fee to be charged - in native token decimals",
          "minSwap": "minimum amount of token needed to be transferred at once - in native token decimals",
          "minSwapFee": "min swap fee to be charged - in native token decimals - especially useful for mainnet ETH",
          "swapFee": "percent based swap fee -- 10e6 == 10bps",
          "tokenAddress": "token address of the token on the given chain",
          "tokenDecimals": "decimals of token",
          "tokenID": "string ID to set the token config object form"
        }
      }
    },
    "title": "BridgeConfig contract",
    "version": 1
  },
  "userdoc": {
    "kind": "user",
    "methods": {
      "calculateSwapFee(address,uint256,uint256)": {
        "notice": "Calculates bridge swap fee based on the destination chain's token transfer."
      },
      "calculateSwapFee(string,uint256,uint256)": {
        "notice": "Calculates bridge swap fee based on the destination chain's token transfer."
      },
      "getAllTokenIDs()": {
        "notice": "Returns a list of all existing token IDs converted to strings"
      },
      "getMaxGasPrice(uint256)": {
        "notice": "gets the max gas price for a chain"
      },
      "getToken(string,uint256)": {
        "notice": "Returns the full token config struct"
      },
      "getTokenByAddress(string,uint256)": {
        "notice": "Returns token config struct, given an address and chainID"
      },
      "getTokenByID(string,uint256)": {
        "notice": "Returns the full token config struct"
      },
      "getTokenID(address,uint256)": {
        "notice": "Returns the token ID (string) of the cross-chain token inputted"
      },
      "getUnderlyingToken(string)": {
        "notice": "Returns which token is the underlying token to withdraw"
      },
      "hasUnderlyingToken(string)": {
        "notice": "Returns true if the token has an underlying token -- meaning the token is deposited into the bridge"
      },
      "isTokenIDExist(string)": {
        "notice": "Public function returning if token ID exists given a string"
      },
      "setMaxGasPrice(uint256,uint256)": {
        "notice": "sets the max gas price for a chain"
      },
      "setTokenConfig(string,uint256,address,uint8,uint256,uint256,uint256,uint256,uint256,bool,bool)": {
        "notice": "Main write function of this contract - Handles creating the struct and passing it to the internal logic function"
      },
      "setTokenConfig(string,uint256,string,uint8,uint256,uint256,uint256,uint256,uint256,bool,bool)": {
        "notice": "Main write function of this contract - Handles creating the struct and passing it to the internal logic function"
      }
    },
    "notice": "This token is used for configuring different tokens on the bridge and mapping them across chains.*",
    "version": 1
  },
  "storageLayout": {
    "storage": [
      {
        "astId": 3062,
        "contract": "contracts/bridge/BridgeConfigV3.sol:BridgeConfigV3",
        "label": "_roles",
        "offset": 0,
        "slot": "0",
        "type": "t_mapping(t_bytes32,t_struct(RoleData)3058_storage)"
      },
      {
        "astId": 14019,
        "contract": "contracts/bridge/BridgeConfigV3.sol:BridgeConfigV3",
        "label": "_allTokenIDs",
        "offset": 0,
        "slot": "1",
        "type": "t_array(t_bytes32)dyn_storage"
      },
      {
        "astId": 14024,
        "contract": "contracts/bridge/BridgeConfigV3.sol:BridgeConfigV3",
        "label": "_allTokens",
        "offset": 0,
        "slot": "2",
        "type": "t_mapping(t_bytes32,t_array(t_struct(Token)14075_storage)dyn_storage)"
      },
      {
        "astId": 14030,
        "contract": "contracts/bridge/BridgeConfigV3.sol:BridgeConfigV3",
        "label": "_tokenIDMap",
        "offset": 0,
        "slot": "3",
        "type": "t_mapping(t_uint256,t_mapping(t_string_memory_ptr,t_bytes32))"
      },
      {
        "astId": 14036,
        "contract": "contracts/bridge/BridgeConfigV3.sol:BridgeConfigV3",
        "label": "_tokens",
        "offset": 0,
        "slot": "4",
        "type": "t_mapping(t_bytes32,t_mapping(t_uint256,t_struct(Token)14075_storage))"
      },
      {
        "astId": 14042,
        "contract": "contracts/bridge/BridgeConfigV3.sol:BridgeConfigV3",
        "label": "_pool",
        "offset": 0,
        "slot": "5",
        "type": "t_mapping(t_address,t_mapping(t_uint256,t_struct(Pool)14084_storage))"
      },
      {
        "astId": 14046,
        "contract": "contracts/bridge/BridgeConfigV3.sol:BridgeConfigV3",
        "label": "_maxGasPrice",
        "offset": 0,
        "slot": "6",
        "type": "t_mapping(t_uint256,t_uint256)"
      }
    ],
    "types": {
      "t_address": {
        "encoding": "inplace",
        "label": "address",
        "numberOfBytes": "20"
      },
      "t_array(t_bytes32)dyn_storage": {
        "base": "t_bytes32",
        "encoding": "dynamic_array",
        "label": "bytes32[]",
        "numberOfBytes": "32"
      },
      "t_array(t_struct(Token)14075_storage)dyn_storage": {
        "base": "t_struct(Token)14075_storage",
        "encoding": "dynamic_array",
        "label": "struct BridgeConfigV3.Token[]",
        "numberOfBytes": "32"
      },
      "t_bool": {
        "encoding": "inplace",
        "label": "bool",
        "numberOfBytes": "1"
      },
      "t_bytes32": {
        "encoding": "inplace",
        "label": "bytes32",
        "numberOfBytes": "32"
      },
      "t_mapping(t_address,t_mapping(t_uint256,t_struct(Pool)14084_storage))": {
        "encoding": "mapping",
        "key": "t_address",
        "label": "mapping(address => mapping(uint256 => struct BridgeConfigV3.Pool))",
        "numberOfBytes": "32",
        "value": "t_mapping(t_uint256,t_struct(Pool)14084_storage)"
      },
      "t_mapping(t_bytes32,t_array(t_struct(Token)14075_storage)dyn_storage)": {
        "encoding": "mapping",
        "key": "t_bytes32",
        "label": "mapping(bytes32 => struct BridgeConfigV3.Token[])",
        "numberOfBytes": "32",
        "value": "t_array(t_struct(Token)14075_storage)dyn_storage"
      },
      "t_mapping(t_bytes32,t_mapping(t_uint256,t_struct(Token)14075_storage))": {
        "encoding": "mapping",
        "key": "t_bytes32",
        "label": "mapping(bytes32 => mapping(uint256 => struct BridgeConfigV3.Token))",
        "numberOfBytes": "32",
        "value": "t_mapping(t_uint256,t_struct(Token)14075_storage)"
      },
      "t_mapping(t_bytes32,t_struct(RoleData)3058_storage)": {
        "encoding": "mapping",
        "key": "t_bytes32",
        "label": "mapping(bytes32 => struct AccessControl.RoleData)",
        "numberOfBytes": "32",
        "value": "t_struct(RoleData)3058_storage"
      },
      "t_mapping(t_bytes32,t_uint256)": {
        "encoding": "mapping",
        "key": "t_bytes32",
        "label": "mapping(bytes32 => uint256)",
        "numberOfBytes": "32",
        "value": "t_uint256"
      },
      "t_mapping(t_string_memory_ptr,t_bytes32)": {
        "encoding": "mapping",
        "key": "t_string_memory_ptr",
        "label": "mapping(string => bytes32)",
        "numberOfBytes": "32",
        "value": "t_bytes32"
      },
      "t_mapping(t_uint256,t_mapping(t_string_memory_ptr,t_bytes32))": {
        "encoding": "mapping",
        "key": "t_uint256",
        "label": "mapping(uint256 => mapping(string => bytes32))",
        "numberOfBytes": "32",
        "value": "t_mapping(t_string_memory_ptr,t_bytes32)"
      },
      "t_mapping(t_uint256,t_struct(Pool)14084_storage)": {
        "encoding": "mapping",
        "key": "t_uint256",
        "label": "mapping(uint256 => struct BridgeConfigV3.Pool)",
        "numberOfBytes": "32",
        "value": "t_struct(Pool)14084_storage"
      },
      "t_mapping(t_uint256,t_struct(Token)14075_storage)": {
        "encoding": "mapping",
        "key": "t_uint256",
        "label": "mapping(uint256 => struct BridgeConfigV3.Token)",
        "numberOfBytes": "32",
        "value": "t_struct(Token)14075_storage"
      },
      "t_mapping(t_uint256,t_uint256)": {
        "encoding": "mapping",
        "key": "t_uint256",
        "label": "mapping(uint256 => uint256)",
        "numberOfBytes": "32",
        "value": "t_uint256"
      },
      "t_string_memory_ptr": {
        "encoding": "bytes",
        "label": "string",
        "numberOfBytes": "32"
      },
      "t_string_storage": {
        "encoding": "bytes",
        "label": "string",
        "numberOfBytes": "32"
      },
      "t_struct(AddressSet)5812_storage": {
        "encoding": "inplace",
        "label": "struct EnumerableSet.AddressSet",
        "members": [
          {
            "astId": 5811,
            "contract": "contracts/bridge/BridgeConfigV3.sol:BridgeConfigV3",
            "label": "_inner",
            "offset": 0,
            "slot": "0",
            "type": "t_struct(Set)5547_storage"
          }
        ],
        "numberOfBytes": "64"
      },
      "t_struct(Pool)14084_storage": {
        "encoding": "inplace",
        "label": "struct BridgeConfigV3.Pool",
        "members": [
          {
            "astId": 14077,
            "contract": "contracts/bridge/BridgeConfigV3.sol:BridgeConfigV3",
            "label": "tokenAddress",
            "offset": 0,
            "slot": "0",
            "type": "t_address"
          },
          {
            "astId": 14079,
            "contract": "contracts/bridge/BridgeConfigV3.sol:BridgeConfigV3",
            "label": "chainId",
            "offset": 0,
            "slot": "1",
            "type": "t_uint256"
          },
          {
            "astId": 14081,
            "contract": "contracts/bridge/BridgeConfigV3.sol:BridgeConfigV3",
            "label": "poolAddress",
            "offset": 0,
            "slot": "2",
            "type": "t_address"
          },
          {
            "astId": 14083,
            "contract": "contracts/bridge/BridgeConfigV3.sol:BridgeConfigV3",
            "label": "metaswap",
            "offset": 20,
            "slot": "2",
            "type": "t_bool"
          }
        ],
        "numberOfBytes": "96"
      },
      "t_struct(RoleData)3058_storage": {
        "encoding": "inplace",
        "label": "struct AccessControl.RoleData",
        "members": [
          {
            "astId": 3055,
            "contract": "contracts/bridge/BridgeConfigV3.sol:BridgeConfigV3",
            "label": "members",
            "offset": 0,
            "slot": "0",
            "type": "t_struct(AddressSet)5812_storage"
          },
          {
            "astId": 3057,
            "contract": "contracts/bridge/BridgeConfigV3.sol:BridgeConfigV3",
            "label": "adminRole",
            "offset": 0,
            "slot": "2",
            "type": "t_bytes32"
          }
        ],
        "numberOfBytes": "96"
      },
      "t_struct(Set)5547_storage": {
        "encoding": "inplace",
        "label": "struct EnumerableSet.Set",
        "members": [
          {
            "astId": 5542,
            "contract": "contracts/bridge/BridgeConfigV3.sol:BridgeConfigV3",
            "label": "_values",
            "offset": 0,
            "slot": "0",
            "type": "t_array(t_bytes32)dyn_storage"
          },
          {
            "astId": 5546,
            "contract": "contracts/bridge/BridgeConfigV3.sol:BridgeConfigV3",
            "label": "_indexes",
            "offset": 0,
            "slot": "1",
            "type": "t_mapping(t_bytes32,t_uint256)"
          }
        ],
        "numberOfBytes": "64"
      },
      "t_struct(Token)14075_storage": {
        "encoding": "inplace",
        "label": "struct BridgeConfigV3.Token",
        "members": [
          {
            "astId": 14056,
            "contract": "contracts/bridge/BridgeConfigV3.sol:BridgeConfigV3",
            "label": "chainId",
            "offset": 0,
            "slot": "0",
            "type": "t_uint256"
          },
          {
            "astId": 14058,
            "contract": "contracts/bridge/BridgeConfigV3.sol:BridgeConfigV3",
            "label": "tokenAddress",
            "offset": 0,
            "slot": "1",
            "type": "t_string_storage"
          },
          {
            "astId": 14060,
            "contract": "contracts/bridge/BridgeConfigV3.sol:BridgeConfigV3",
            "label": "tokenDecimals",
            "offset": 0,
            "slot": "2",
            "type": "t_uint8"
          },
          {
            "astId": 14062,
            "contract": "contracts/bridge/BridgeConfigV3.sol:BridgeConfigV3",
            "label": "maxSwap",
            "offset": 0,
            "slot": "3",
            "type": "t_uint256"
          },
          {
            "astId": 14064,
            "contract": "contracts/bridge/BridgeConfigV3.sol:BridgeConfigV3",
            "label": "minSwap",
            "offset": 0,
            "slot": "4",
            "type": "t_uint256"
          },
          {
            "astId": 14066,
            "contract": "contracts/bridge/BridgeConfigV3.sol:BridgeConfigV3",
            "label": "swapFee",
            "offset": 0,
            "slot": "5",
            "type": "t_uint256"
          },
          {
            "astId": 14068,
            "contract": "contracts/bridge/BridgeConfigV3.sol:BridgeConfigV3",
            "label": "maxSwapFee",
            "offset": 0,
            "slot": "6",
            "type": "t_uint256"
          },
          {
            "astId": 14070,
            "contract": "contracts/bridge/BridgeConfigV3.sol:BridgeConfigV3",
            "label": "minSwapFee",
            "offset": 0,
            "slot": "7",
            "type": "t_uint256"
          },
          {
            "astId": 14072,
            "contract": "contracts/bridge/BridgeConfigV3.sol:BridgeConfigV3",
            "label": "hasUnderlying",
            "offset": 0,
            "slot": "8",
            "type": "t_bool"
          },
          {
            "astId": 14074,
            "contract": "contracts/bridge/BridgeConfigV3.sol:BridgeConfigV3",
            "label": "isUnderlying",
            "offset": 1,
            "slot": "8",
            "type": "t_bool"
          }
        ],
        "numberOfBytes": "288"
      },
      "t_uint256": {
        "encoding": "inplace",
        "label": "uint256",
        "numberOfBytes": "32"
      },
      "t_uint8": {
        "encoding": "inplace",
        "label": "uint8",
        "numberOfBytes": "1"
      }
    }
  }
}