{
  "address": "0x146a91fCD5557B26a4636Ae7C009A29dDd7ab264",
  "abi": [
    {
      "inputs": [],
      "stateMutability": "nonpayable",
      "type": "constructor"
    },
    {
      "anonymous": false,
      "inputs": [
        {
          "indexed": true,
          "internalType": "bytes32",
          "name": "role",
          "type": "bytes32"
        },
        {
          "indexed": true,
          "internalType": "bytes32",
          "name": "previousAdminRole",
          "type": "bytes32"
        },
        {
          "indexed": true,
          "internalType": "bytes32",
          "name": "newAdminRole",
          "type": "bytes32"
        }
      ],
      "name": "RoleAdminChanged",
      "type": "event"
    },
    {
      "anonymous": false,
      "inputs": [
        {
          "indexed": true,
          "internalType": "bytes32",
          "name": "role",
          "type": "bytes32"
        },
        {
          "indexed": true,
          "internalType": "address",
          "name": "account",
          "type": "address"
        },
        {
          "indexed": true,
          "internalType": "address",
          "name": "sender",
          "type": "address"
        }
      ],
      "name": "RoleGranted",
      "type": "event"
    },
    {
      "anonymous": false,
      "inputs": [
        {
          "indexed": true,
          "internalType": "bytes32",
          "name": "role",
          "type": "bytes32"
        },
        {
          "indexed": true,
          "internalType": "address",
          "name": "account",
          "type": "address"
        },
        {
          "indexed": true,
          "internalType": "address",
          "name": "sender",
          "type": "address"
        }
      ],
      "name": "RoleRevoked",
      "type": "event"
    },
    {
      "inputs": [],
      "name": "BRIDGEMANAGER_ROLE",
      "outputs": [
        {
          "internalType": "bytes32",
          "name": "",
          "type": "bytes32"
        }
      ],
      "stateMutability": "view",
      "type": "function"
    },
    {
      "inputs": [],
      "name": "DEFAULT_ADMIN_ROLE",
      "outputs": [
        {
          "internalType": "bytes32",
          "name": "",
          "type": "bytes32"
        }
      ],
      "stateMutability": "view",
      "type": "function"
    },
    {
      "inputs": [
        {
          "internalType": "uint256",
          "name": "chainId",
          "type": "uint256"
        },
        {
          "internalType": "address",
          "name": "tokenAddress",
          "type": "address"
        },
        {
          "internalType": "uint256",
          "name": "amount",
          "type": "uint256"
        }
      ],
      "name": "calculateSwapFee",
      "outputs": [
        {
          "internalType": "uint256",
          "name": "",
          "type": "uint256"
        }
      ],
      "stateMutability": "view",
      "type": "function"
    },
    {
      "inputs": [],
      "name": "getAllTokenIDs",
      "outputs": [
        {
          "internalType": "address[]",
          "name": "result",
          "type": "address[]"
        }
      ],
      "stateMutability": "view",
      "type": "function"
    },
    {
      "inputs": [
        {
          "internalType": "address",
          "name": "tokenID",
          "type": "address"
        },
        {
          "internalType": "uint256",
          "name": "chainID",
          "type": "uint256"
        }
      ],
      "name": "getMultichainToken",
      "outputs": [
        {
          "internalType": "address",
          "name": "",
          "type": "address"
        }
      ],
      "stateMutability": "view",
      "type": "function"
    },
    {
      "inputs": [
        {
          "internalType": "bytes32",
          "name": "role",
          "type": "bytes32"
        }
      ],
      "name": "getRoleAdmin",
      "outputs": [
        {
          "internalType": "bytes32",
          "name": "",
          "type": "bytes32"
        }
      ],
      "stateMutability": "view",
      "type": "function"
    },
    {
      "inputs": [
        {
          "internalType": "bytes32",
          "name": "role",
          "type": "bytes32"
        },
        {
          "internalType": "uint256",
          "name": "index",
          "type": "uint256"
        }
      ],
      "name": "getRoleMember",
      "outputs": [
        {
          "internalType": "address",
          "name": "",
          "type": "address"
        }
      ],
      "stateMutability": "view",
      "type": "function"
    },
    {
      "inputs": [
        {
          "internalType": "bytes32",
          "name": "role",
          "type": "bytes32"
        }
      ],
      "name": "getRoleMemberCount",
      "outputs": [
        {
          "internalType": "uint256",
          "name": "",
          "type": "uint256"
        }
      ],
      "stateMutability": "view",
      "type": "function"
    },
    {
      "inputs": [
        {
          "internalType": "address",
          "name": "tokenID",
          "type": "address"
        },
        {
          "internalType": "uint256",
          "name": "chainID",
          "type": "uint256"
        }
      ],
      "name": "getTokenConfig",
      "outputs": [
        {
          "components": [
            {
              "internalType": "uint256",
              "name": "chainId",
              "type": "uint256"
            },
            {
              "internalType": "address",
              "name": "tokenAddress",
              "type": "address"
            },
            {
              "internalType": "uint8",
              "name": "tokenDecimals",
              "type": "uint8"
            },
            {
              "internalType": "uint256",
              "name": "maxSwap",
              "type": "uint256"
            },
            {
              "internalType": "uint256",
              "name": "minSwap",
              "type": "uint256"
            },
            {
              "internalType": "uint256",
              "name": "swapFee",
              "type": "uint256"
            },
            {
              "internalType": "uint256",
              "name": "maxSwapFee",
              "type": "uint256"
            },
            {
              "internalType": "uint256",
              "name": "minSwapFee",
              "type": "uint256"
            }
          ],
          "internalType": "struct BridgeConfig.TokenConfig",
          "name": "",
          "type": "tuple"
        }
      ],
      "stateMutability": "view",
      "type": "function"
    },
    {
      "inputs": [
        {
          "internalType": "uint256",
          "name": "chainID",
          "type": "uint256"
        },
        {
          "internalType": "address",
          "name": "tokenAddress",
          "type": "address"
        }
      ],
      "name": "getTokenID",
      "outputs": [
        {
          "internalType": "address",
          "name": "",
          "type": "address"
        }
      ],
      "stateMutability": "view",
      "type": "function"
    },
    {
      "inputs": [
        {
          "internalType": "bytes32",
          "name": "role",
          "type": "bytes32"
        },
        {
          "internalType": "address",
          "name": "account",
          "type": "address"
        }
      ],
      "name": "grantRole",
      "outputs": [],
      "stateMutability": "nonpayable",
      "type": "function"
    },
    {
      "inputs": [
        {
          "internalType": "bytes32",
          "name": "role",
          "type": "bytes32"
        },
        {
          "internalType": "address",
          "name": "account",
          "type": "address"
        }
      ],
      "name": "hasRole",
      "outputs": [
        {
          "internalType": "bool",
          "name": "",
          "type": "bool"
        }
      ],
      "stateMutability": "view",
      "type": "function"
    },
    {
      "inputs": [
        {
          "internalType": "address",
          "name": "tokenID",
          "type": "address"
        }
      ],
      "name": "isTokenIDExist",
      "outputs": [
        {
          "internalType": "bool",
          "name": "",
          "type": "bool"
        }
      ],
      "stateMutability": "view",
      "type": "function"
    },
    {
      "inputs": [
        {
          "internalType": "bytes32",
          "name": "role",
          "type": "bytes32"
        },
        {
          "internalType": "address",
          "name": "account",
          "type": "address"
        }
      ],
      "name": "renounceRole",
      "outputs": [],
      "stateMutability": "nonpayable",
      "type": "function"
    },
    {
      "inputs": [
        {
          "internalType": "bytes32",
          "name": "role",
          "type": "bytes32"
        },
        {
          "internalType": "address",
          "name": "account",
          "type": "address"
        }
      ],
      "name": "revokeRole",
      "outputs": [],
      "stateMutability": "nonpayable",
      "type": "function"
    },
    {
      "inputs": [
        {
          "internalType": "address",
          "name": "tokenID",
          "type": "address"
        },
        {
          "internalType": "uint256",
          "name": "chainID",
          "type": "uint256"
        },
        {
          "components": [
            {
              "internalType": "uint256",
              "name": "chainId",
              "type": "uint256"
            },
            {
              "internalType": "address",
              "name": "tokenAddress",
              "type": "address"
            },
            {
              "internalType": "uint8",
              "name": "tokenDecimals",
              "type": "uint8"
            },
            {
              "internalType": "uint256",
              "name": "maxSwap",
              "type": "uint256"
            },
            {
              "internalType": "uint256",
              "name": "minSwap",
              "type": "uint256"
            },
            {
              "internalType": "uint256",
              "name": "swapFee",
              "type": "uint256"
            },
            {
              "internalType": "uint256",
              "name": "maxSwapFee",
              "type": "uint256"
            },
            {
              "internalType": "uint256",
              "name": "minSwapFee",
              "type": "uint256"
            }
          ],
          "internalType": "struct BridgeConfig.TokenConfig",
          "name": "config",
          "type": "tuple"
        }
      ],
      "name": "setTokenConfig",
      "outputs": [
        {
          "internalType": "bool",
          "name": "",
          "type": "bool"
        }
      ],
      "stateMutability": "nonpayable",
      "type": "function"
    }
  ],
  "transactionHash": "0x045ac2147ea6ef02763ede3d7ae862f4df64ca07d148ccee97c235d4fcb3a325",
  "args": [],
  "solcInputHash": "adde4deb5622e1fc3e2abc11eed451e9",
  "bytecode": "0x60806040523480156200001157600080fd5b506200001f60003362000051565b6200004b7f4370dcf3e42e4d5b773a451bb8390ee8e7308f47681d1414cff87c2ad0512c853362000051565b62000165565b6200005d828262000061565b5050565b6000828152602081815260409091206200008691839062000705620000da821b17901c565b156200005d5762000096620000fa565b6001600160a01b0316816001600160a01b0316837f2f8788117e7eff1d82e926ec794901d17c78024a50270940304540a733656f0d60405160405180910390a45050565b6000620000f1836001600160a01b038416620000fe565b90505b92915050565b3390565b60006200010c83836200014d565b6200014457508154600181810184556000848152602080822090930184905584548482528286019093526040902091909155620000f4565b506000620000f4565b60009081526001919091016020526040902054151590565b61173c80620001756000396000f3fe608060405234801561001057600080fd5b50600436106101005760003560e01c8063a9171dff11610097578063d547741f11610066578063d547741f1461021f578063d623e4fd14610232578063f892fe4814610245578063ff9106c71461025857610100565b8063a9171dff146101d3578063ae9172d3146101e6578063c4fb2e4b146101f9578063ca15c8731461020c57610100565b80639010d07c116100d35780639010d07c1461016b57806391d148541461018b578063a217fddf146101ab578063a222dbbd146101b357610100565b8063248a9ca3146101055780632f2ff15d1461012e57806336568abe14610143578063684a10b314610156575b600080fd5b610118610113366004611100565b610260565b6040516101259190611302565b60405180910390f35b61014161013c366004611118565b610278565b005b610141610151366004611118565b6102c9565b61015e610325565b604051610125919061129d565b61017e61017936600461115f565b6103f0565b604051610125919061127c565b61019e610199366004611118565b610411565b60405161012591906112f7565b610118610429565b6101c66101c136600461106f565b61042e565b6040516101259190611694565b61019e6101e1366004611099565b6104de565b6101186101f4366004611247565b610536565b61017e61020736600461121b565b6105a7565b61011861021a366004611100565b6105dd565b61014161022d366004611118565b6105f4565b61017e61024036600461106f565b61062e565b61019e610253366004611054565b6106d6565b6101186106e1565b6000818152602081905260409020600201545b919050565b60008281526020819052604090206002015461029690610199610727565b6102bb5760405162461bcd60e51b81526004016102b290611368565b60405180910390fd5b6102c5828261072b565b5050565b6102d1610727565b73ffffffffffffffffffffffffffffffffffffffff168173ffffffffffffffffffffffffffffffffffffffff161461031b5760405162461bcd60e51b81526004016102b290611637565b6102c582826107ae565b6001546060908067ffffffffffffffff8111801561034257600080fd5b5060405190808252806020026020018201604052801561036c578160200160208202803683370190505b50915060005b818110156103eb576001818154811061038757fe5b9060005260206000200160009054906101000a900473ffffffffffffffffffffffffffffffffffffffff168382815181106103be57fe5b73ffffffffffffffffffffffffffffffffffffffff90921660209283029190910190910152600101610372565b505090565b60008281526020819052604081206104089083610831565b90505b92915050565b6000828152602081905260408120610408908361083d565b600081565b610436610fc1565b5073ffffffffffffffffffffffffffffffffffffffff918216600090815260046020818152604080842094845293815291839020835161010081018552815481526001820154958616938101939093527401000000000000000000000000000000000000000090940460ff169282019290925260028301546060820152600383015460808201529082015460a0820152600582015460c082015260069091015460e082015290565b600061050a7f4370dcf3e42e4d5b773a451bb8390ee8e7308f47681d1414cff87c2ad0512c8533610411565b61051357600080fd5b61052c848461052736869003860186611180565b61085f565b90505b9392505050565b60008061054385856105a7565b905061054d610fc1565b610557828761042e565b905060006105816402540be40061057b8460a0015188610af190919063ffffffff16565b90610b2b565b90508160e0015181111561059957925061052f915050565b5060e00151915061052f9050565b600091825260036020908152604080842073ffffffffffffffffffffffffffffffffffffffff9384168552909152909120541690565b600081815260208190526040812061040b90610b5d565b60008281526020819052604090206002015461061290610199610727565b61031b5760405162461bcd60e51b81526004016102b290611433565b73ffffffffffffffffffffffffffffffffffffffff82166000908152600260205260408120815b81548110156106cb578382828154811061066b57fe5b90600052602060002090600202016000015414156106c35781818154811061068f57fe5b600091825260209091206001600290920201015473ffffffffffffffffffffffffffffffffffffffff16925061040b915050565b600101610655565b506000949350505050565b600061040b82610b68565b7f4370dcf3e42e4d5b773a451bb8390ee8e7308f47681d1414cff87c2ad0512c8581565b60006104088373ffffffffffffffffffffffffffffffffffffffff8416610bdd565b3390565b60008281526020819052604090206107439082610705565b156102c557610750610727565b73ffffffffffffffffffffffffffffffffffffffff168173ffffffffffffffffffffffffffffffffffffffff16837f2f8788117e7eff1d82e926ec794901d17c78024a50270940304540a733656f0d60405160405180910390a45050565b60008281526020819052604090206107c69082610c27565b156102c5576107d3610727565b73ffffffffffffffffffffffffffffffffffffffff168173ffffffffffffffffffffffffffffffffffffffff16837ff6391f5c32d9c69d2a47ea670b442974b53935d1edc7fd64eb21e047a839171b60405160405180910390a45050565b60006104088383610c49565b60006104088373ffffffffffffffffffffffffffffffffffffffff8416610c8e565b60008160008160600151116108865760405162461bcd60e51b81526004016102b2906113fc565b60008160800151116108aa5760405162461bcd60e51b81526004016102b290611600565b8060800151816060015110156108d25760405162461bcd60e51b81526004016102b2906115c9565b8060e001518160c0015110156108fa5760405162461bcd60e51b81526004016102b2906114fe565b8060e001518160c0015110156109225760405162461bcd60e51b81526004016102b2906114c7565b73ffffffffffffffffffffffffffffffffffffffff85166109555760405162461bcd60e51b81526004016102b290611490565b600084116109755760405162461bcd60e51b81526004016102b290611592565b73ffffffffffffffffffffffffffffffffffffffff808616600090815260046020818152604080842089855282529283902087518155908701516001820180549489015160ff1674010000000000000000000000000000000000000000027fffffffffffffffffffffff00ffffffffffffffffffffffffffffffffffffffff929096167fffffffffffffffffffffffff0000000000000000000000000000000000000000909516949094171693909317909155606085015160028301556080850151600383015560a08501519082015560c0840151600582015560e0840151600690910155610a6385610b68565b610ad7576001805480820182556000919091527fb10e2d527612073b26eecdfd717e6a320cf44b4afac2b0732d9fcbe2b7fa0cf60180547fffffffffffffffffffffffff00000000000000000000000000000000000000001673ffffffffffffffffffffffffffffffffffffffff87161790555b610ae685858560200151610ca6565b506001949350505050565b600082610b005750600061040b565b82820282848281610b0d57fe5b04146104085760405162461bcd60e51b81526004016102b290611535565b6000808211610b4c5760405162461bcd60e51b81526004016102b2906113c5565b818381610b5557fe5b049392505050565b600061040b82610ed9565b6000805b600154811015610bd4578273ffffffffffffffffffffffffffffffffffffffff1660018281548110610b9a57fe5b60009182526020909120015473ffffffffffffffffffffffffffffffffffffffff161415610bcc576001915050610273565b600101610b6c565b50600092915050565b6000610be98383610c8e565b610c1f5750815460018181018455600084815260208082209093018490558454848252828601909352604090209190915561040b565b50600061040b565b60006104088373ffffffffffffffffffffffffffffffffffffffff8416610edd565b81546000908210610c6c5760405162461bcd60e51b81526004016102b29061130b565b826000018281548110610c7b57fe5b9060005260206000200154905092915050565b60009081526001919091016020526040902054151590565b73ffffffffffffffffffffffffffffffffffffffff8316610cd95760405162461bcd60e51b81526004016102b290611490565b60008211610cf95760405162461bcd60e51b81526004016102b290611592565b73ffffffffffffffffffffffffffffffffffffffff83166000908152600260205260408120905b8154811015610e3a5783828281548110610d3657fe5b9060005260206000209060020201600001541415610e32576000828281548110610d5c57fe5b600091825260209091206001600290920201015473ffffffffffffffffffffffffffffffffffffffff908116915084168114610e2a5783838381548110610d9f57fe5b6000918252602080832060029290920290910160010180547fffffffffffffffffffffffff000000000000000000000000000000000000000090811673ffffffffffffffffffffffffffffffffffffffff9586161790915588835260038252604080842086861685529092528183208054821690558784168352912080549091169188169190911790555b505050610ed4565b600101610d20565b5060408051808201825284815273ffffffffffffffffffffffffffffffffffffffff80851660208084018281528654600181810189556000988952838920965160029092029096019081559051940180549484167fffffffffffffffffffffffff00000000000000000000000000000000000000009586161790558786526003815284862091865252919092208054918616919092161790555b505050565b5490565b60008181526001830160205260408120548015610fb75783547fffffffffffffffffffffffffffffffffffffffffffffffffffffffffffffffff8083019190810190600090879083908110610f2e57fe5b9060005260206000200154905080876000018481548110610f4b57fe5b600091825260208083209091019290925582815260018981019092526040902090840190558654879080610f7b57fe5b6001900381819060005260206000200160009055905586600101600087815260200190815260200160002060009055600194505050505061040b565b600091505061040b565b60405180610100016040528060008152602001600073ffffffffffffffffffffffffffffffffffffffff168152602001600060ff16815260200160008152602001600081526020016000815260200160008152602001600081525090565b803573ffffffffffffffffffffffffffffffffffffffff8116811461040b57600080fd5b803560ff8116811461040b57600080fd5b600060208284031215611065578081fd5b610408838361101f565b60008060408385031215611081578081fd5b61108b848461101f565b946020939093013593505050565b60008060008385036101408112156110af578182fd5b6110b9868661101f565b9350602085013592506101007fffffffffffffffffffffffffffffffffffffffffffffffffffffffffffffffc0820112156110f2578182fd5b506040840190509250925092565b600060208284031215611111578081fd5b5035919050565b6000806040838503121561112a578182fd5b82359150602083013573ffffffffffffffffffffffffffffffffffffffff81168114611154578182fd5b809150509250929050565b60008060408385031215611171578182fd5b50508035926020909101359150565b6000610100808385031215611193578182fd5b6040519081019067ffffffffffffffff821181831017156111b2578283fd5b81604052833581526111c7856020860161101f565b60208201526111d98560408601611043565b6040820152606084013560608201526080840135608082015260a084013560a082015260c084013560c082015260e084013560e0820152809250505092915050565b6000806040838503121561122d578182fd5b8235915061123e846020850161101f565b90509250929050565b60008060006060848603121561125b578283fd5b8335925061126c856020860161101f565b9150604084013590509250925092565b73ffffffffffffffffffffffffffffffffffffffff91909116815260200190565b6020808252825182820181905260009190848201906040850190845b818110156112eb57835173ffffffffffffffffffffffffffffffffffffffff16835292840192918401916001016112b9565b50909695505050505050565b901515815260200190565b90815260200190565b60208082526022908201527f456e756d657261626c655365743a20696e646578206f7574206f6620626f756e60408201527f6473000000000000000000000000000000000000000000000000000000000000606082015260800190565b6020808252602f908201527f416363657373436f6e74726f6c3a2073656e646572206d75737420626520616e60408201527f2061646d696e20746f206772616e740000000000000000000000000000000000606082015260800190565b6020808252601a908201527f536166654d6174683a206469766973696f6e206279207a65726f000000000000604082015260600190565b60208082526010908201527f7a65726f204d6178696d756d5377617000000000000000000000000000000000604082015260600190565b60208082526030908201527f416363657373436f6e74726f6c3a2073656e646572206d75737420626520616e60408201527f2061646d696e20746f207265766f6b6500000000000000000000000000000000606082015260800190565b6020808252600d908201527f656d70747920746f6b656e494400000000000000000000000000000000000000604082015260600190565b6020808252601c908201527f4d696e696d756d53776170203c204d696e696d756d5377617046656500000000604082015260600190565b6020808252601f908201527f4d6178696d756d53776170466565203c204d696e696d756d5377617046656500604082015260600190565b60208082526021908201527f536166654d6174683a206d756c7469706c69636174696f6e206f766572666c6f60408201527f7700000000000000000000000000000000000000000000000000000000000000606082015260800190565b6020808252600c908201527f7a65726f20636861696e49440000000000000000000000000000000000000000604082015260600190565b60208082526019908201527f4d6178696d756d53776170203c204d696e696d756d5377617000000000000000604082015260600190565b60208082526010908201527f7a65726f204d696e696d756d5377617000000000000000000000000000000000604082015260600190565b6020808252602f908201527f416363657373436f6e74726f6c3a2063616e206f6e6c792072656e6f756e636560408201527f20726f6c657320666f722073656c660000000000000000000000000000000000606082015260800190565b6000610100820190508251825273ffffffffffffffffffffffffffffffffffffffff602084015116602083015260ff6040840151166040830152606083015160608301526080830151608083015260a083015160a083015260c083015160c083015260e083015160e08301529291505056fea2646970667358221220bfa67fa5997941daaa0837d18ebd9b4e53a94e0eedae728807685854385ffa7764736f6c634300060c0033",
  "devdoc": {
    "kind": "dev",
    "methods": {
      "getRoleAdmin(bytes32)": {
        "details": "Returns the admin role that controls `role`. See {grantRole} and {revokeRole}. To change a role's admin, use {_setRoleAdmin}."
      },
      "getRoleMember(bytes32,uint256)": {
        "details": "Returns one of the accounts that have `role`. `index` must be a value between 0 and {getRoleMemberCount}, non-inclusive. Role bearers are not sorted in any particular way, and their ordering may change at any point. WARNING: When using {getRoleMember} and {getRoleMemberCount}, make sure you perform all queries on the same block. See the following https://forum.openzeppelin.com/t/iterating-over-elements-on-enumerableset-in-openzeppelin-contracts/2296[forum post] for more information."
      },
      "getRoleMemberCount(bytes32)": {
        "details": "Returns the number of accounts that have `role`. Can be used together with {getRoleMember} to enumerate all bearers of a role."
      },
      "grantRole(bytes32,address)": {
        "details": "Grants `role` to `account`. If `account` had not been already granted `role`, emits a {RoleGranted} event. Requirements: - the caller must have ``role``'s admin role."
      },
      "hasRole(bytes32,address)": {
        "details": "Returns `true` if `account` has been granted `role`."
      },
      "renounceRole(bytes32,address)": {
        "details": "Revokes `role` from the calling account. Roles are often managed via {grantRole} and {revokeRole}: this function's purpose is to provide a mechanism for accounts to lose their privileges if they are compromised (such as when a trusted device is misplaced). If the calling account had been granted `role`, emits a {RoleRevoked} event. Requirements: - the caller must be `account`."
      },
      "revokeRole(bytes32,address)": {
        "details": "Revokes `role` from `account`. If `account` had been granted `role`, emits a {RoleRevoked} event. Requirements: - the caller must have ``role``'s admin role."
      }
    },
    "version": 1
  },
  "userdoc": {
    "kind": "user",
    "methods": {},
    "version": 1
  },
  "storageLayout": {
    "storage": [
      {
        "astId": 2760,
        "contract": "contracts/synapse/BridgeConfig.sol:BridgeConfig",
        "label": "_roles",
        "offset": 0,
        "slot": "0",
        "type": "t_mapping(t_bytes32,t_struct(RoleData)2756_storage)"
      },
      {
        "astId": 5741,
        "contract": "contracts/synapse/BridgeConfig.sol:BridgeConfig",
        "label": "_allTokenIDs",
        "offset": 0,
        "slot": "1",
        "type": "t_array(t_address)dyn_storage"
      },
      {
        "astId": 5749,
        "contract": "contracts/synapse/BridgeConfig.sol:BridgeConfig",
        "label": "_allMultichainTokens",
        "offset": 0,
        "slot": "2",
        "type": "t_mapping(t_address,t_array(t_struct(MultichainToken)5837_storage)dyn_storage)"
      },
      {
        "astId": 5755,
        "contract": "contracts/synapse/BridgeConfig.sol:BridgeConfig",
        "label": "_tokenIDMap",
        "offset": 0,
        "slot": "3",
        "type": "t_mapping(t_uint256,t_mapping(t_address,t_address))"
      },
      {
        "astId": 5761,
        "contract": "contracts/synapse/BridgeConfig.sol:BridgeConfig",
        "label": "_tokenConfig",
        "offset": 0,
        "slot": "4",
        "type": "t_mapping(t_address,t_mapping(t_uint256,t_struct(TokenConfig)5832_storage))"
      }
    ],
    "types": {
      "t_address": {
        "encoding": "inplace",
        "label": "address",
        "numberOfBytes": "20"
      },
      "t_array(t_address)dyn_storage": {
        "base": "t_address",
        "encoding": "dynamic_array",
        "label": "address[]",
        "numberOfBytes": "32"
      },
      "t_array(t_bytes32)dyn_storage": {
        "base": "t_bytes32",
        "encoding": "dynamic_array",
        "label": "bytes32[]",
        "numberOfBytes": "32"
      },
      "t_array(t_struct(MultichainToken)5837_storage)dyn_storage": {
        "base": "t_struct(MultichainToken)5837_storage",
        "encoding": "dynamic_array",
        "label": "struct BridgeConfig.MultichainToken[]",
        "numberOfBytes": "32"
      },
      "t_bytes32": {
        "encoding": "inplace",
        "label": "bytes32",
        "numberOfBytes": "32"
      },
      "t_mapping(t_address,t_address)": {
        "encoding": "mapping",
        "key": "t_address",
        "label": "mapping(address => address)",
        "numberOfBytes": "32",
        "value": "t_address"
      },
      "t_mapping(t_address,t_array(t_struct(MultichainToken)5837_storage)dyn_storage)": {
        "encoding": "mapping",
        "key": "t_address",
        "label": "mapping(address => struct BridgeConfig.MultichainToken[])",
        "numberOfBytes": "32",
        "value": "t_array(t_struct(MultichainToken)5837_storage)dyn_storage"
      },
      "t_mapping(t_address,t_mapping(t_uint256,t_struct(TokenConfig)5832_storage))": {
        "encoding": "mapping",
        "key": "t_address",
        "label": "mapping(address => mapping(uint256 => struct BridgeConfig.TokenConfig))",
        "numberOfBytes": "32",
        "value": "t_mapping(t_uint256,t_struct(TokenConfig)5832_storage)"
      },
      "t_mapping(t_bytes32,t_struct(RoleData)2756_storage)": {
        "encoding": "mapping",
        "key": "t_bytes32",
        "label": "mapping(bytes32 => struct AccessControl.RoleData)",
        "numberOfBytes": "32",
        "value": "t_struct(RoleData)2756_storage"
      },
      "t_mapping(t_bytes32,t_uint256)": {
        "encoding": "mapping",
        "key": "t_bytes32",
        "label": "mapping(bytes32 => uint256)",
        "numberOfBytes": "32",
        "value": "t_uint256"
      },
      "t_mapping(t_uint256,t_mapping(t_address,t_address))": {
        "encoding": "mapping",
        "key": "t_uint256",
        "label": "mapping(uint256 => mapping(address => address))",
        "numberOfBytes": "32",
        "value": "t_mapping(t_address,t_address)"
      },
      "t_mapping(t_uint256,t_struct(TokenConfig)5832_storage)": {
        "encoding": "mapping",
        "key": "t_uint256",
        "label": "mapping(uint256 => struct BridgeConfig.TokenConfig)",
        "numberOfBytes": "32",
        "value": "t_struct(TokenConfig)5832_storage"
      },
      "t_struct(AddressSet)5510_storage": {
        "encoding": "inplace",
        "label": "struct EnumerableSet.AddressSet",
        "members": [
          {
            "astId": 5509,
            "contract": "contracts/synapse/BridgeConfig.sol:BridgeConfig",
            "label": "_inner",
            "offset": 0,
            "slot": "0",
            "type": "t_struct(Set)5245_storage"
          }
        ],
        "numberOfBytes": "64"
      },
      "t_struct(MultichainToken)5837_storage": {
        "encoding": "inplace",
        "label": "struct BridgeConfig.MultichainToken",
        "members": [
          {
            "astId": 5834,
            "contract": "contracts/synapse/BridgeConfig.sol:BridgeConfig",
            "label": "chainId",
            "offset": 0,
            "slot": "0",
            "type": "t_uint256"
          },
          {
            "astId": 5836,
            "contract": "contracts/synapse/BridgeConfig.sol:BridgeConfig",
            "label": "tokenAddress",
            "offset": 0,
            "slot": "1",
            "type": "t_address"
          }
        ],
        "numberOfBytes": "64"
      },
      "t_struct(RoleData)2756_storage": {
        "encoding": "inplace",
        "label": "struct AccessControl.RoleData",
        "members": [
          {
            "astId": 2753,
            "contract": "contracts/synapse/BridgeConfig.sol:BridgeConfig",
            "label": "members",
            "offset": 0,
            "slot": "0",
            "type": "t_struct(AddressSet)5510_storage"
          },
          {
            "astId": 2755,
            "contract": "contracts/synapse/BridgeConfig.sol:BridgeConfig",
            "label": "adminRole",
            "offset": 0,
            "slot": "2",
            "type": "t_bytes32"
          }
        ],
        "numberOfBytes": "96"
      },
      "t_struct(Set)5245_storage": {
        "encoding": "inplace",
        "label": "struct EnumerableSet.Set",
        "members": [
          {
            "astId": 5240,
            "contract": "contracts/synapse/BridgeConfig.sol:BridgeConfig",
            "label": "_values",
            "offset": 0,
            "slot": "0",
            "type": "t_array(t_bytes32)dyn_storage"
          },
          {
            "astId": 5244,
            "contract": "contracts/synapse/BridgeConfig.sol:BridgeConfig",
            "label": "_indexes",
            "offset": 0,
            "slot": "1",
            "type": "t_mapping(t_bytes32,t_uint256)"
          }
        ],
        "numberOfBytes": "64"
      },
      "t_struct(TokenConfig)5832_storage": {
        "encoding": "inplace",
        "label": "struct BridgeConfig.TokenConfig",
        "members": [
          {
            "astId": 5817,
            "contract": "contracts/synapse/BridgeConfig.sol:BridgeConfig",
            "label": "chainId",
            "offset": 0,
            "slot": "0",
            "type": "t_uint256"
          },
          {
            "astId": 5819,
            "contract": "contracts/synapse/BridgeConfig.sol:BridgeConfig",
            "label": "tokenAddress",
            "offset": 0,
            "slot": "1",
            "type": "t_address"
          },
          {
            "astId": 5821,
            "contract": "contracts/synapse/BridgeConfig.sol:BridgeConfig",
            "label": "tokenDecimals",
            "offset": 20,
            "slot": "1",
            "type": "t_uint8"
          },
          {
            "astId": 5823,
            "contract": "contracts/synapse/BridgeConfig.sol:BridgeConfig",
            "label": "maxSwap",
            "offset": 0,
            "slot": "2",
            "type": "t_uint256"
          },
          {
            "astId": 5825,
            "contract": "contracts/synapse/BridgeConfig.sol:BridgeConfig",
            "label": "minSwap",
            "offset": 0,
            "slot": "3",
            "type": "t_uint256"
          },
          {
            "astId": 5827,
            "contract": "contracts/synapse/BridgeConfig.sol:BridgeConfig",
            "label": "swapFee",
            "offset": 0,
            "slot": "4",
            "type": "t_uint256"
          },
          {
            "astId": 5829,
            "contract": "contracts/synapse/BridgeConfig.sol:BridgeConfig",
            "label": "maxSwapFee",
            "offset": 0,
            "slot": "5",
            "type": "t_uint256"
          },
          {
            "astId": 5831,
            "contract": "contracts/synapse/BridgeConfig.sol:BridgeConfig",
            "label": "minSwapFee",
            "offset": 0,
            "slot": "6",
            "type": "t_uint256"
          }
        ],
        "numberOfBytes": "224"
      },
      "t_uint256": {
        "encoding": "inplace",
        "label": "uint256",
        "numberOfBytes": "32"
      },
      "t_uint8": {
        "encoding": "inplace",
        "label": "uint8",
        "numberOfBytes": "1"
      }
    }
  }
}